{
  "transactions": [
    {
      "hash": "0x7b5d79d1cf23fd92f5ee329cf3da353cc05454ea5051982b4f248d0164e9459f",
      "transactionType": "CALL",
      "contractName": null,
      "contractAddress": "0x05bd298c0c3f34b541b42f867baf6707911be437",
      "function": "setWhitelistedUser(address,bool)",
      "arguments": [
        "0xf20a8950c368Ec48323092D6e4acF90aADf2BdC6",
        "true"
      ],
      "transaction": {
        "from": "0xb819a871d20913839c37f316dc914b0570bfc0ee",
        "to": "0x05bd298c0c3f34b541b42f867baf6707911be437",
        "gas": "0x12e11",
        "value": "0x0",
        "input": "0x44710fbe000000000000000000000000f20a8950c368ec48323092d6e4acf90aadf2bdc60000000000000000000000000000000000000000000000000000000000000001",
        "nonce": "0x1ee",
        "chainId": "0xe708"
      },
      "additionalContracts": [],
      "isFixedGasLimit": false
    },
    {
      "hash": "0x07a9042af1f5961f955d1ffd36168430eddeedc0aaf4bf846cb7e0213dbbb64a",
      "transactionType": "CALL",
      "contractName": null,
      "contractAddress": "0x05bd298c0c3f34b541b42f867baf6707911be437",
      "function": "setWhitelistedUser(address,bool)",
      "arguments": [
        "0x8E72a24221517E51502f20f387415a06b27A5b51",
        "true"
      ],
      "transaction": {
        "from": "0xb819a871d20913839c37f316dc914b0570bfc0ee",
        "to": "0x05bd298c0c3f34b541b42f867baf6707911be437",
        "gas": "0x12e11",
        "value": "0x0",
        "input": "0x44710fbe0000000000000000000000008e72a24221517e51502f20f387415a06b27a5b510000000000000000000000000000000000000000000000000000000000000001",
        "nonce": "0x1ef",
        "chainId": "0xe708"
      },
      "additionalContracts": [],
      "isFixedGasLimit": false
    },
    {
      "hash": "0x64d287e53be07a4d3d1e977967a6c6a2623bc23a90d341b870ac5f329ca9c9e9",
      "transactionType": "CALL",
      "contractName": null,
      "contractAddress": "0x05bd298c0c3f34b541b42f867baf6707911be437",
      "function": "setWhitelistedUser(address,bool)",
      "arguments": [
        "0x50d8Deadd2b3140B151CaB2C4FB76F1f59b236F8",
        "true"
      ],
      "transaction": {
        "from": "0xb819a871d20913839c37f316dc914b0570bfc0ee",
        "to": "0x05bd298c0c3f34b541b42f867baf6707911be437",
        "gas": "0x12e11",
        "value": "0x0",
        "input": "0x44710fbe00000000000000000000000050d8deadd2b3140b151cab2c4fb76f1f59b236f80000000000000000000000000000000000000000000000000000000000000001",
        "nonce": "0x1f0",
        "chainId": "0xe708"
      },
      "additionalContracts": [],
      "isFixedGasLimit": false
    },
    {
      "hash": "0x5a1846de55c9080d44182a69acf7115d26e223cc3c98ffc0c8972c330df1b348",
      "transactionType": "CALL",
      "contractName": null,
      "contractAddress": "0x05bd298c0c3f34b541b42f867baf6707911be437",
      "function": "setWhitelistedUser(address,bool)",
      "arguments": [
        "0x574582C44e3f1EF2cB29a7131B057FebBCC8244E",
        "true"
      ],
      "transaction": {
        "from": "0xb819a871d20913839c37f316dc914b0570bfc0ee",
        "to": "0x05bd298c0c3f34b541b42f867baf6707911be437",
        "gas": "0x12e11",
        "value": "0x0",
        "input": "0x44710fbe000000000000000000000000574582c44e3f1ef2cb29a7131b057febbcc8244e0000000000000000000000000000000000000000000000000000000000000001",
        "nonce": "0x1f1",
        "chainId": "0xe708"
      },
      "additionalContracts": [],
      "isFixedGasLimit": false
    },
    {
      "hash": "0x8f7c08ea7cc73f0fd23e620f5ee6c044183e2eec058aa8310272bf46411f5c65",
      "transactionType": "CALL",
      "contractName": null,
      "contractAddress": "0x05bd298c0c3f34b541b42f867baf6707911be437",
      "function": "setWhitelistedUser(address,bool)",
      "arguments": [
        "0x281567fe62b587EC1755f6F33b80160F544Dc5d0",
        "true"
      ],
      "transaction": {
        "from": "0xb819a871d20913839c37f316dc914b0570bfc0ee",
        "to": "0x05bd298c0c3f34b541b42f867baf6707911be437",
        "gas": "0x12e11",
        "value": "0x0",
        "input": "0x44710fbe000000000000000000000000281567fe62b587ec1755f6f33b80160f544dc5d00000000000000000000000000000000000000000000000000000000000000001",
        "nonce": "0x1f2",
        "chainId": "0xe708"
      },
      "additionalContracts": [],
      "isFixedGasLimit": false
    },
    {
      "hash": "0x9ad32f2fe33734f6545d305d35e3daafd2dd9fb71d80bdcc31e63d25eecb83c7",
      "transactionType": "CALL",
      "contractName": null,
      "contractAddress": "0x05bd298c0c3f34b541b42f867baf6707911be437",
      "function": "setWhitelistedUser(address,bool)",
      "arguments": [
        "0x2705f6A8F01bd4A805D9FC73151DBe37BB8d1edE",
        "true"
      ],
      "transaction": {
        "from": "0xb819a871d20913839c37f316dc914b0570bfc0ee",
        "to": "0x05bd298c0c3f34b541b42f867baf6707911be437",
        "gas": "0x12e11",
        "value": "0x0",
        "input": "0x44710fbe0000000000000000000000002705f6a8f01bd4a805d9fc73151dbe37bb8d1ede0000000000000000000000000000000000000000000000000000000000000001",
        "nonce": "0x1f3",
        "chainId": "0xe708"
      },
      "additionalContracts": [],
      "isFixedGasLimit": false
    },
    {
      "hash": "0x56db3bbb38b60c191788271a493bc2f9cf9001137028bcad4b54aea3aed89d31",
      "transactionType": "CALL",
      "contractName": null,
      "contractAddress": "0x05bd298c0c3f34b541b42f867baf6707911be437",
      "function": "setWhitelistedUser(address,bool)",
      "arguments": [
        "0xc9C9693b6A445D05Add0043662fad9Ac600Ad088",
        "true"
      ],
      "transaction": {
        "from": "0xb819a871d20913839c37f316dc914b0570bfc0ee",
        "to": "0x05bd298c0c3f34b541b42f867baf6707911be437",
        "gas": "0x12e11",
        "value": "0x0",
        "input": "0x44710fbe000000000000000000000000c9c9693b6a445d05add0043662fad9ac600ad0880000000000000000000000000000000000000000000000000000000000000001",
        "nonce": "0x1f4",
        "chainId": "0xe708"
      },
      "additionalContracts": [],
      "isFixedGasLimit": false
    },
    {
      "hash": "0x9aabdf2687e37a57a4fa2c1d6142d017497769a8ca446cdd892436d5fcd86a9e",
      "transactionType": "CALL",
      "contractName": null,
      "contractAddress": "0x05bd298c0c3f34b541b42f867baf6707911be437",
      "function": "setWhitelistedUser(address,bool)",
      "arguments": [
        "0x7EfE40B2E6dA8b28AaB6Bd2D622B9Cd7f5fE077c",
        "true"
      ],
      "transaction": {
        "from": "0xb819a871d20913839c37f316dc914b0570bfc0ee",
        "to": "0x05bd298c0c3f34b541b42f867baf6707911be437",
        "gas": "0x12e11",
        "value": "0x0",
        "input": "0x44710fbe0000000000000000000000007efe40b2e6da8b28aab6bd2d622b9cd7f5fe077c0000000000000000000000000000000000000000000000000000000000000001",
        "nonce": "0x1f5",
        "chainId": "0xe708"
      },
      "additionalContracts": [],
      "isFixedGasLimit": false
    },
    {
      "hash": "0x372594706e4f8ac5975c7f065b71f1c50e497c23de75032795694979778be84d",
      "transactionType": "CALL",
      "contractName": null,
      "contractAddress": "0x05bd298c0c3f34b541b42f867baf6707911be437",
      "function": "setWhitelistedUser(address,bool)",
      "arguments": [
        "0xa22DCB8F0A2848289124086F35ae9dB2a0006962",
        "true"
      ],
      "transaction": {
        "from": "0xb819a871d20913839c37f316dc914b0570bfc0ee",
        "to": "0x05bd298c0c3f34b541b42f867baf6707911be437",
        "gas": "0x11d37",
        "value": "0x0",
        "input": "0x44710fbe000000000000000000000000a22dcb8f0a2848289124086f35ae9db2a00069620000000000000000000000000000000000000000000000000000000000000001",
        "nonce": "0x1f6",
        "chainId": "0xe708"
      },
      "additionalContracts": [],
      "isFixedGasLimit": false
    },
    {
      "hash": "0x6b15db0bfa5207a4bc86d2fafde992ebd7cf2aadea9f81d8b29e41a82795b3f0",
      "transactionType": "CALL",
      "contractName": null,
      "contractAddress": "0x05bd298c0c3f34b541b42f867baf6707911be437",
      "function": "setWhitelistedUser(address,bool)",
      "arguments": [
        "0xB819A871d20913839c37f316Dc914b0570bfc0eE",
        "true"
      ],
      "transaction": {
        "from": "0xb819a871d20913839c37f316dc914b0570bfc0ee",
        "to": "0x05bd298c0c3f34b541b42f867baf6707911be437",
        "gas": "0x12e11",
        "value": "0x0",
        "input": "0x44710fbe000000000000000000000000b819a871d20913839c37f316dc914b0570bfc0ee0000000000000000000000000000000000000000000000000000000000000001",
        "nonce": "0x1f7",
        "chainId": "0xe708"
      },
      "additionalContracts": [],
      "isFixedGasLimit": false
    },
    {
      "hash": "0x2a5b7b765ef83a2dd233d21f024a651407bc7193404c574b96e8cfc4bd61cc97",
      "transactionType": "CALL",
      "contractName": null,
      "contractAddress": "0x05bd298c0c3f34b541b42f867baf6707911be437",
      "function": "setWhitelistedUser(address,bool)",
      "arguments": [
        "0x40282d3Cf4890D9806BC1853e97a59C93D813653",
        "true"
      ],
      "transaction": {
        "from": "0xb819a871d20913839c37f316dc914b0570bfc0ee",
        "to": "0x05bd298c0c3f34b541b42f867baf6707911be437",
        "gas": "0x12e11",
        "value": "0x0",
        "input": "0x44710fbe00000000000000000000000040282d3cf4890d9806bc1853e97a59c93d8136530000000000000000000000000000000000000000000000000000000000000001",
        "nonce": "0x1f8",
        "chainId": "0xe708"
      },
      "additionalContracts": [],
      "isFixedGasLimit": false
    },
    {
      "hash": "0x3953e5e95b6cfb058e51e5295ebfe51c961009b132849fe0ad6d4a92ba0c0633",
      "transactionType": "CALL",
      "contractName": null,
      "contractAddress": "0x05bd298c0c3f34b541b42f867baf6707911be437",
      "function": "setWhitelistedUser(address,bool)",
      "arguments": [
        "0xB5b901F1BB86421301138b5c45C1D3Fe96663161",
        "true"
      ],
      "transaction": {
        "from": "0xb819a871d20913839c37f316dc914b0570bfc0ee",
        "to": "0x05bd298c0c3f34b541b42f867baf6707911be437",
        "gas": "0x12e11",
        "value": "0x0",
        "input": "0x44710fbe000000000000000000000000b5b901f1bb86421301138b5c45c1d3fe966631610000000000000000000000000000000000000000000000000000000000000001",
        "nonce": "0x1f9",
        "chainId": "0xe708"
      },
      "additionalContracts": [],
      "isFixedGasLimit": false
    },
    {
      "hash": "0x48ae03e4d2347b84cd6a3b4d6163038e52544becde16793769d7123fd06a8921",
      "transactionType": "CALL",
      "contractName": null,
      "contractAddress": "0x05bd298c0c3f34b541b42f867baf6707911be437",
      "function": "setWhitelistedUser(address,bool)",
      "arguments": [
        "0xBAec8904499dcdee770c60df15b0C37EAC84Fb62",
        "true"
      ],
      "transaction": {
        "from": "0xb819a871d20913839c37f316dc914b0570bfc0ee",
        "to": "0x05bd298c0c3f34b541b42f867baf6707911be437",
        "gas": "0x12e11",
        "value": "0x0",
        "input": "0x44710fbe000000000000000000000000baec8904499dcdee770c60df15b0c37eac84fb620000000000000000000000000000000000000000000000000000000000000001",
        "nonce": "0x1fa",
        "chainId": "0xe708"
      },
      "additionalContracts": [],
      "isFixedGasLimit": false
    },
    {
      "hash": "0x15a4990c82b145c7e2e2d94a8c65d909f8dac0b6658b714b27212aa61c4cc44f",
      "transactionType": "CALL",
      "contractName": null,
      "contractAddress": "0x05bd298c0c3f34b541b42f867baf6707911be437",
      "function": "setWhitelistedUser(address,bool)",
      "arguments": [
        "0xfC4A23271b60887FC246B060B6931a08E2BC434c",
        "true"
      ],
      "transaction": {
        "from": "0xb819a871d20913839c37f316dc914b0570bfc0ee",
        "to": "0x05bd298c0c3f34b541b42f867baf6707911be437",
        "gas": "0x12e11",
        "value": "0x0",
        "input": "0x44710fbe000000000000000000000000fc4a23271b60887fc246b060b6931a08e2bc434c0000000000000000000000000000000000000000000000000000000000000001",
        "nonce": "0x1fb",
        "chainId": "0xe708"
      },
      "additionalContracts": [],
      "isFixedGasLimit": false
    },
    {
      "hash": "0x7795d50be1c7fa8bc11523f6d8c3191ec2c6239061d526b3f8565b66a8f33b31",
      "transactionType": "CALL",
      "contractName": null,
      "contractAddress": "0x05bd298c0c3f34b541b42f867baf6707911be437",
      "function": "setWhitelistedUser(address,bool)",
      "arguments": [
        "0x65b142550aE82f4BB3792E1eEfb2FC35541A3837",
        "true"
      ],
      "transaction": {
        "from": "0xb819a871d20913839c37f316dc914b0570bfc0ee",
        "to": "0x05bd298c0c3f34b541b42f867baf6707911be437",
        "gas": "0x12e11",
        "value": "0x0",
        "input": "0x44710fbe00000000000000000000000065b142550ae82f4bb3792e1eefb2fc35541a38370000000000000000000000000000000000000000000000000000000000000001",
        "nonce": "0x1fc",
        "chainId": "0xe708"
      },
      "additionalContracts": [],
      "isFixedGasLimit": false
    },
    {
      "hash": "0xef00e35069d5b077c8b41a92df309c6a363e5ccb0ea91809a7aa27bb1eca296d",
      "transactionType": "CALL",
      "contractName": null,
      "contractAddress": "0x05bd298c0c3f34b541b42f867baf6707911be437",
      "function": "setWhitelistedUser(address,bool)",
      "arguments": [
        "0x75149feEBb20E1fE5Ddb89302a6d4bACE70c14Ce",
        "true"
      ],
      "transaction": {
        "from": "0xb819a871d20913839c37f316dc914b0570bfc0ee",
        "to": "0x05bd298c0c3f34b541b42f867baf6707911be437",
        "gas": "0x12e11",
        "value": "0x0",
        "input": "0x44710fbe00000000000000000000000075149feebb20e1fe5ddb89302a6d4bace70c14ce0000000000000000000000000000000000000000000000000000000000000001",
        "nonce": "0x1fd",
        "chainId": "0xe708"
      },
      "additionalContracts": [],
      "isFixedGasLimit": false
    },
    {
      "hash": "0x85f389bf1dd20eb5a6033719101fca33346e07f96d5c4d67b2800f59347b3708",
      "transactionType": "CALL",
      "contractName": null,
      "contractAddress": "0x05bd298c0c3f34b541b42f867baf6707911be437",
      "function": "setWhitelistedUser(address,bool)",
      "arguments": [
        "0x65B6D4770DAdcFba6d363dE86aA4D9c76283cea0",
        "true"
      ],
      "transaction": {
        "from": "0xb819a871d20913839c37f316dc914b0570bfc0ee",
        "to": "0x05bd298c0c3f34b541b42f867baf6707911be437",
        "gas": "0x12e11",
        "value": "0x0",
        "input": "0x44710fbe00000000000000000000000065b6d4770dadcfba6d363de86aa4d9c76283cea00000000000000000000000000000000000000000000000000000000000000001",
        "nonce": "0x1fe",
        "chainId": "0xe708"
      },
      "additionalContracts": [],
      "isFixedGasLimit": false
    },
    {
      "hash": "0x76b91ecd6eb0ae42506190190a949b89d15820534ee52bbd7edfdc71ef65eab4",
      "transactionType": "CALL",
      "contractName": null,
      "contractAddress": "0x05bd298c0c3f34b541b42f867baf6707911be437",
      "function": "setWhitelistedUser(address,bool)",
      "arguments": [
        "0xa6A9fdDC94BB4FE7520A2eA1CC2c433e18683342",
        "true"
      ],
      "transaction": {
        "from": "0xb819a871d20913839c37f316dc914b0570bfc0ee",
        "to": "0x05bd298c0c3f34b541b42f867baf6707911be437",
        "gas": "0x12e11",
        "value": "0x0",
        "input": "0x44710fbe000000000000000000000000a6a9fddc94bb4fe7520a2ea1cc2c433e186833420000000000000000000000000000000000000000000000000000000000000001",
        "nonce": "0x1ff",
        "chainId": "0xe708"
      },
      "additionalContracts": [],
      "isFixedGasLimit": false
    },
    {
      "hash": "0x9e2fa69fef778e5f90319ba3495bfd8e4e67ddb7fa131539ac995cbca7cf307f",
      "transactionType": "CALL",
      "contractName": null,
      "contractAddress": "0x05bd298c0c3f34b541b42f867baf6707911be437",
      "function": "setWhitelistedUser(address,bool)",
      "arguments": [
        "0x18D04F05f80ADE5373849385a1c24E1E0a6d1744",
        "true"
      ],
      "transaction": {
        "from": "0xb819a871d20913839c37f316dc914b0570bfc0ee",
        "to": "0x05bd298c0c3f34b541b42f867baf6707911be437",
        "gas": "0x12e11",
        "value": "0x0",
        "input": "0x44710fbe00000000000000000000000018d04f05f80ade5373849385a1c24e1e0a6d17440000000000000000000000000000000000000000000000000000000000000001",
        "nonce": "0x200",
        "chainId": "0xe708"
      },
      "additionalContracts": [],
      "isFixedGasLimit": false
    },
    {
      "hash": "0xe374bbbce8e8a24feb995f1ab7892b78dda72f2ecb5da1eb708f54a7540ae769",
      "transactionType": "CALL",
      "contractName": null,
      "contractAddress": "0x05bd298c0c3f34b541b42f867baf6707911be437",
      "function": "setWhitelistedUser(address,bool)",
      "arguments": [
        "0xBD9C90D6774CB5320B54Bb7998b6Bcc5e4A9071f",
        "true"
      ],
      "transaction": {
        "from": "0xb819a871d20913839c37f316dc914b0570bfc0ee",
        "to": "0x05bd298c0c3f34b541b42f867baf6707911be437",
        "gas": "0x12e11",
        "value": "0x0",
        "input": "0x44710fbe000000000000000000000000bd9c90d6774cb5320b54bb7998b6bcc5e4a9071f0000000000000000000000000000000000000000000000000000000000000001",
        "nonce": "0x201",
        "chainId": "0xe708"
      },
      "additionalContracts": [],
      "isFixedGasLimit": false
    },
    {
      "hash": "0x252d35d4a6762a128997d5f43cfea0e46e256ff601f4f76487b1f9b2b5bd653d",
      "transactionType": "CALL",
      "contractName": null,
      "contractAddress": "0x05bd298c0c3f34b541b42f867baf6707911be437",
      "function": "setWhitelistedUser(address,bool)",
      "arguments": [
        "0x8f2eABa31B1b613ca78F2795bA05400F0583c5A4",
        "true"
      ],
      "transaction": {
        "from": "0xb819a871d20913839c37f316dc914b0570bfc0ee",
        "to": "0x05bd298c0c3f34b541b42f867baf6707911be437",
        "gas": "0x12e11",
        "value": "0x0",
        "input": "0x44710fbe0000000000000000000000008f2eaba31b1b613ca78f2795ba05400f0583c5a40000000000000000000000000000000000000000000000000000000000000001",
        "nonce": "0x202",
        "chainId": "0xe708"
      },
      "additionalContracts": [],
      "isFixedGasLimit": false
    },
    {
      "hash": "0x5cdbbabce71b962fbd0cb95e73d86cfcccfe4e207ed11e59ef1c19f1ee51e91c",
      "transactionType": "CALL",
      "contractName": null,
      "contractAddress": "0x05bd298c0c3f34b541b42f867baf6707911be437",
      "function": "setWhitelistedUser(address,bool)",
      "arguments": [
        "0x8f2eABa31B1b613ca78F2795bA05400F0583c5A4",
        "true"
      ],
      "transaction": {
        "from": "0xb819a871d20913839c37f316dc914b0570bfc0ee",
        "to": "0x05bd298c0c3f34b541b42f867baf6707911be437",
        "gas": "0xb1e9",
        "value": "0x0",
        "input": "0x44710fbe0000000000000000000000008f2eaba31b1b613ca78f2795ba05400f0583c5a40000000000000000000000000000000000000000000000000000000000000001",
        "nonce": "0x203",
        "chainId": "0xe708"
      },
      "additionalContracts": [],
      "isFixedGasLimit": false
    },
    {
      "hash": "0x0bf67e1e86e685bf0d4c5fa9913245d8a5be606f626a37369bdc346c832bb94a",
      "transactionType": "CALL",
      "contractName": null,
      "contractAddress": "0x05bd298c0c3f34b541b42f867baf6707911be437",
      "function": "setWhitelistedUser(address,bool)",
      "arguments": [
        "0x50d8Deadd2b3140B151CaB2C4FB76F1f59b236F8",
        "true"
      ],
      "transaction": {
        "from": "0xb819a871d20913839c37f316dc914b0570bfc0ee",
        "to": "0x05bd298c0c3f34b541b42f867baf6707911be437",
        "gas": "0xb1e9",
        "value": "0x0",
        "input": "0x44710fbe00000000000000000000000050d8deadd2b3140b151cab2c4fb76f1f59b236f80000000000000000000000000000000000000000000000000000000000000001",
        "nonce": "0x204",
        "chainId": "0xe708"
      },
      "additionalContracts": [],
      "isFixedGasLimit": false
    },
    {
      "hash": "0x2054a371540a31136c5adc170cb037620c8827acce9a64e9de0de1275e14e7b0",
      "transactionType": "CALL",
      "contractName": null,
      "contractAddress": "0x05bd298c0c3f34b541b42f867baf6707911be437",
      "function": "setWhitelistedUser(address,bool)",
      "arguments": [
        "0x574582C44e3f1EF2cB29a7131B057FebBCC8244E",
        "true"
      ],
      "transaction": {
        "from": "0xb819a871d20913839c37f316dc914b0570bfc0ee",
        "to": "0x05bd298c0c3f34b541b42f867baf6707911be437",
        "gas": "0xb1e9",
        "value": "0x0",
        "input": "0x44710fbe000000000000000000000000574582c44e3f1ef2cb29a7131b057febbcc8244e0000000000000000000000000000000000000000000000000000000000000001",
        "nonce": "0x205",
        "chainId": "0xe708"
      },
      "additionalContracts": [],
      "isFixedGasLimit": false
    },
    {
      "hash": "0xf0b079da71bda7402ec5d3c452a49194111394f9366765a1a0e9af6c7caa1fd8",
      "transactionType": "CALL",
      "contractName": null,
      "contractAddress": "0x05bd298c0c3f34b541b42f867baf6707911be437",
      "function": "setWhitelistedUser(address,bool)",
      "arguments": [
        "0xBd0Ce952bA069A1e15f3bf3916d4B07bBBdBC8B3",
        "true"
      ],
      "transaction": {
        "from": "0xb819a871d20913839c37f316dc914b0570bfc0ee",
        "to": "0x05bd298c0c3f34b541b42f867baf6707911be437",
        "gas": "0x12e11",
        "value": "0x0",
        "input": "0x44710fbe000000000000000000000000bd0ce952ba069a1e15f3bf3916d4b07bbbdbc8b30000000000000000000000000000000000000000000000000000000000000001",
        "nonce": "0x206",
        "chainId": "0xe708"
      },
      "additionalContracts": [],
      "isFixedGasLimit": false
    }
  ],
  "receipts": [
    {
      "status": "0x1",
      "cumulativeGasUsed": "0xce8b",
      "logs": [
        {
          "address": "0x05bd298c0c3f34b541b42f867baf6707911be437",
          "topics": [
            "0x995d2434d36c9bceaab42c56efe51e8ffe41fd11cabefd9e2cb83700d8b2035e",
            "0x000000000000000000000000f20a8950c368ec48323092d6e4acf90aadf2bdc6"
          ],
          "data": "0x0000000000000000000000000000000000000000000000000000000000000001",
          "blockHash": "0xc8e85192aac4879bea3fe3b7be4d3911f9b1415d1b5069aa67b145fcd83b92a9",
          "blockNumber": "0x121c22e",
          "transactionHash": "0x7b5d79d1cf23fd92f5ee329cf3da353cc05454ea5051982b4f248d0164e9459f",
          "transactionIndex": "0x0",
          "logIndex": "0x0",
          "removed": false
        }
      ],
      "logsBloom": "0x00001000000000000000000000000000000000000000000000000000000000000000000000000000000000000000000000000000000000000000000000000000000000000000000000000002000000000000000000000000000000000000000000000000000000000000000000000000000000000000000000000000000000000000000000000000000000000000000000000000000000000000000000000000000000001000000000000000000000000000020040000000000000000000000000000000000000000000000000000000000000000000000000011000004000000000000000000000000000000000000000000000000002000000000000000000",
      "type": "0x2",
      "transactionHash": "0x7b5d79d1cf23fd92f5ee329cf3da353cc05454ea5051982b4f248d0164e9459f",
      "transactionIndex": "0x0",
      "blockHash": "0xc8e85192aac4879bea3fe3b7be4d3911f9b1415d1b5069aa67b145fcd83b92a9",
      "blockNumber": "0x121c22e",
      "gasUsed": "0xce8b",
      "effectiveGasPrice": "0x34392c3",
      "from": "0xb819a871d20913839c37f316dc914b0570bfc0ee",
      "to": "0x05bd298c0c3f34b541b42f867baf6707911be437",
      "contractAddress": null
    },
    {
      "status": "0x1",
      "cumulativeGasUsed": "0xce8b",
      "logs": [
        {
          "address": "0x05bd298c0c3f34b541b42f867baf6707911be437",
          "topics": [
            "0x995d2434d36c9bceaab42c56efe51e8ffe41fd11cabefd9e2cb83700d8b2035e",
            "0x0000000000000000000000008e72a24221517e51502f20f387415a06b27a5b51"
          ],
          "data": "0x0000000000000000000000000000000000000000000000000000000000000001",
          "blockHash": "0xe60a08755d93be5e6b10008722ef5005acebabbe730a8521716435da41cea3ae",
          "blockNumber": "0x121c230",
          "transactionHash": "0x07a9042af1f5961f955d1ffd36168430eddeedc0aaf4bf846cb7e0213dbbb64a",
          "transactionIndex": "0x0",
          "logIndex": "0x0",
          "removed": false
        }
      ],
      "logsBloom": "0x00001000000000000000000000000000000000000000000000000000000000000000000000000000000000000000000000000000000000000000000000000000000000000000000000000002000000000000000000000000000000000000000000000000000000000000000000000000000000000000000000000800000000000000000000000000000000000000000000000000000000000000000000020000000000001000000000000000000000000000000040000000000000000000000000000000000000000000000000000000000000000001000000010000000000000000000000000000000000000000000000000000000002000000000000000000",
      "type": "0x2",
      "transactionHash": "0x07a9042af1f5961f955d1ffd36168430eddeedc0aaf4bf846cb7e0213dbbb64a",
      "transactionIndex": "0x0",
      "blockHash": "0xe60a08755d93be5e6b10008722ef5005acebabbe730a8521716435da41cea3ae",
      "blockNumber": "0x121c230",
      "gasUsed": "0xce8b",
      "effectiveGasPrice": "0x34392c3",
      "from": "0xb819a871d20913839c37f316dc914b0570bfc0ee",
      "to": "0x05bd298c0c3f34b541b42f867baf6707911be437",
      "contractAddress": null
    },
    {
      "status": "0x1",
      "cumulativeGasUsed": "0x13bad",
      "logs": [
        {
          "address": "0x05bd298c0c3f34b541b42f867baf6707911be437",
          "topics": [
            "0x995d2434d36c9bceaab42c56efe51e8ffe41fd11cabefd9e2cb83700d8b2035e",
            "0x00000000000000000000000050d8deadd2b3140b151cab2c4fb76f1f59b236f8"
          ],
          "data": "0x0000000000000000000000000000000000000000000000000000000000000001",
          "blockHash": "0x839f630a25ac3e5ef616f55339b8a7c4bcf6e1a2d121a319e6ec03ba16018e53",
          "blockNumber": "0x121c231",
          "transactionHash": "0x64d287e53be07a4d3d1e977967a6c6a2623bc23a90d341b870ac5f329ca9c9e9",
          "transactionIndex": "0x1",
          "logIndex": "0x1",
          "removed": false
        }
      ],
      "logsBloom": "0x00001000000000000000000000000000000000000000200000000000000000000000000000000000000000000000000000000000000000000000000000000000000000000000000000000002000000000000000000000000000000000000000000000000000000000000000000000000000000000000000000000000020000000000000000000000000000000000000000000000000000000000000000000000000000001000000000000000000000000000000040000000000000000000000000000000000000000000000000000000000000000000000000010000000000000000000000800000000000000000000000000000000002000000000000000000",
      "type": "0x2",
      "transactionHash": "0x64d287e53be07a4d3d1e977967a6c6a2623bc23a90d341b870ac5f329ca9c9e9",
      "transactionIndex": "0x1",
      "blockHash": "0x839f630a25ac3e5ef616f55339b8a7c4bcf6e1a2d121a319e6ec03ba16018e53",
      "blockNumber": "0x121c231",
      "gasUsed": "0xce8b",
      "effectiveGasPrice": "0x34392c3",
      "from": "0xb819a871d20913839c37f316dc914b0570bfc0ee",
      "to": "0x05bd298c0c3f34b541b42f867baf6707911be437",
      "contractAddress": null
    },
    {
      "status": "0x1",
      "cumulativeGasUsed": "0xce8b",
      "logs": [
        {
          "address": "0x05bd298c0c3f34b541b42f867baf6707911be437",
          "topics": [
            "0x995d2434d36c9bceaab42c56efe51e8ffe41fd11cabefd9e2cb83700d8b2035e",
            "0x000000000000000000000000574582c44e3f1ef2cb29a7131b057febbcc8244e"
          ],
          "data": "0x0000000000000000000000000000000000000000000000000000000000000001",
          "blockHash": "0x22a8917cfdc8422e9ddb4b9d05d5b6439fe58e564e884cbdfe7254c3e065de5e",
          "blockNumber": "0x121c233",
          "transactionHash": "0x5a1846de55c9080d44182a69acf7115d26e223cc3c98ffc0c8972c330df1b348",
          "transactionIndex": "0x0",
          "logIndex": "0x0",
          "removed": false
        }
      ],
      "logsBloom": "0x00001000000000000000000000000000000000000000000000000000000000000000000000000000000000000000000000000000000000000000000000000000000000000000200000000002000000000000000000000000000000000000000000000000000000000000000000000000000000000000000000000000000000000000000000000000000000100000000000000000000000000000000000000000004000001000000000000000000000000000000040000000000000000000000000000000000000000000000000000000000000000000000000010000000000000000000000000000000000000000000000000000000002000000000000000000",
      "type": "0x2",
      "transactionHash": "0x5a1846de55c9080d44182a69acf7115d26e223cc3c98ffc0c8972c330df1b348",
      "transactionIndex": "0x0",
      "blockHash": "0x22a8917cfdc8422e9ddb4b9d05d5b6439fe58e564e884cbdfe7254c3e065de5e",
      "blockNumber": "0x121c233",
      "gasUsed": "0xce8b",
      "effectiveGasPrice": "0x34392c3",
      "from": "0xb819a871d20913839c37f316dc914b0570bfc0ee",
      "to": "0x05bd298c0c3f34b541b42f867baf6707911be437",
      "contractAddress": null
    },
    {
      "status": "0x1",
      "cumulativeGasUsed": "0x16147",
      "logs": [
        {
          "address": "0x05bd298c0c3f34b541b42f867baf6707911be437",
          "topics": [
            "0x995d2434d36c9bceaab42c56efe51e8ffe41fd11cabefd9e2cb83700d8b2035e",
            "0x000000000000000000000000281567fe62b587ec1755f6f33b80160f544dc5d0"
          ],
          "data": "0x0000000000000000000000000000000000000000000000000000000000000001",
          "blockHash": "0x8187563e42fae2ffc69a76fc2280cc17cc613c2e39dc36c2b207d0d4157880b4",
          "blockNumber": "0x121c234",
          "transactionHash": "0x8f7c08ea7cc73f0fd23e620f5ee6c044183e2eec058aa8310272bf46411f5c65",
          "transactionIndex": "0x1",
          "logIndex": "0x1",
          "removed": false
        }
      ],
      "logsBloom": "0x00201000000000000000000000000000000000000000000000000000000000000000000000000000000000000000000000000000000000000000000000000000000000000000000000000002000000000000000000000000000000000002000000000000000000000000000000000000000000000000000000000000000000000000000000000000000000000000000000000000800000000000000000000000000000001000000000000000000000000000000040000000000000000000000000000000000000000000000000000000000000000000000000010000000000000000000000000000000000000000000000000000000002000000000000000000",
      "type": "0x2",
      "transactionHash": "0x8f7c08ea7cc73f0fd23e620f5ee6c044183e2eec058aa8310272bf46411f5c65",
      "transactionIndex": "0x1",
      "blockHash": "0x8187563e42fae2ffc69a76fc2280cc17cc613c2e39dc36c2b207d0d4157880b4",
      "blockNumber": "0x121c234",
      "gasUsed": "0xce8b",
      "effectiveGasPrice": "0x34392c3",
      "from": "0xb819a871d20913839c37f316dc914b0570bfc0ee",
      "to": "0x05bd298c0c3f34b541b42f867baf6707911be437",
      "contractAddress": null
    },
    {
      "status": "0x1",
      "cumulativeGasUsed": "0xce8b",
      "logs": [
        {
          "address": "0x05bd298c0c3f34b541b42f867baf6707911be437",
          "topics": [
            "0x995d2434d36c9bceaab42c56efe51e8ffe41fd11cabefd9e2cb83700d8b2035e",
            "0x0000000000000000000000002705f6a8f01bd4a805d9fc73151dbe37bb8d1ede"
          ],
          "data": "0x0000000000000000000000000000000000000000000000000000000000000001",
          "blockHash": "0xd78da5c91fd0dfe2f5a29e351aa4bd3ed70dfabbf8b3f5cb386d2b4a755852ad",
          "blockNumber": "0x121c236",
          "transactionHash": "0x9ad32f2fe33734f6545d305d35e3daafd2dd9fb71d80bdcc31e63d25eecb83c7",
          "transactionIndex": "0x0",
          "logIndex": "0x0",
          "removed": false
        }
      ],
      "logsBloom": "0x00001000000000000000000000000000000000000000000000000000000040000000000000000000000000000000000000000000000000000000000000000000000000000000000000000002000000000000000000000040000000000000000000000000000000000000000000000000000000000000000000000040000000000000000000000000000000000000000000000000000000000000000000000000000000001000000000000000000000000000000040000000000000000000000000000000000000000000000000000000000000000000000000010000000000000000000000000000000000000000000000000000000002000000000000000000",
      "type": "0x2",
      "transactionHash": "0x9ad32f2fe33734f6545d305d35e3daafd2dd9fb71d80bdcc31e63d25eecb83c7",
      "transactionIndex": "0x0",
      "blockHash": "0xd78da5c91fd0dfe2f5a29e351aa4bd3ed70dfabbf8b3f5cb386d2b4a755852ad",
      "blockNumber": "0x121c236",
      "gasUsed": "0xce8b",
      "effectiveGasPrice": "0x34392c3",
      "from": "0xb819a871d20913839c37f316dc914b0570bfc0ee",
      "to": "0x05bd298c0c3f34b541b42f867baf6707911be437",
      "contractAddress": null
    },
    {
      "status": "0x1",
      "cumulativeGasUsed": "0x46db1",
      "logs": [
        {
          "address": "0x05bd298c0c3f34b541b42f867baf6707911be437",
          "topics": [
            "0x995d2434d36c9bceaab42c56efe51e8ffe41fd11cabefd9e2cb83700d8b2035e",
            "0x000000000000000000000000c9c9693b6a445d05add0043662fad9ac600ad088"
          ],
          "data": "0x0000000000000000000000000000000000000000000000000000000000000001",
          "blockHash": "0x4e1cc3dcefb00900b543babe82b3d84b05802fae32c8de53841a05b770f6176b",
          "blockNumber": "0x121c238",
          "transactionHash": "0x56db3bbb38b60c191788271a493bc2f9cf9001137028bcad4b54aea3aed89d31",
          "transactionIndex": "0x2",
          "logIndex": "0x5",
          "removed": false
        }
      ],
      "logsBloom": "0x00001000000000000000000000000000000000000000000000000000000000000000000010000000000000000000000000000000000000000000000000000000000000000000000000000002000000000000000000000000000000000000000000000000000000000000000000000000000000000000000000000000000000000000000000000000000000000000000000000000000000000000000000000000000000001000000000000000000000000000000040000000000000000000000000000001000000000000000000000000000000000000000000010000000000000000000000000000000000000000000000000000000002000000000000000000",
      "type": "0x2",
      "transactionHash": "0x56db3bbb38b60c191788271a493bc2f9cf9001137028bcad4b54aea3aed89d31",
      "transactionIndex": "0x2",
      "blockHash": "0x4e1cc3dcefb00900b543babe82b3d84b05802fae32c8de53841a05b770f6176b",
      "blockNumber": "0x121c238",
      "gasUsed": "0xce8b",
      "effectiveGasPrice": "0x34392c3",
      "from": "0xb819a871d20913839c37f316dc914b0570bfc0ee",
      "to": "0x05bd298c0c3f34b541b42f867baf6707911be437",
      "contractAddress": null
    },
    {
      "status": "0x1",
      "cumulativeGasUsed": "0x46397",
      "logs": [
        {
          "address": "0x05bd298c0c3f34b541b42f867baf6707911be437",
          "topics": [
            "0x995d2434d36c9bceaab42c56efe51e8ffe41fd11cabefd9e2cb83700d8b2035e",
            "0x0000000000000000000000007efe40b2e6da8b28aab6bd2d622b9cd7f5fe077c"
          ],
          "data": "0x0000000000000000000000000000000000000000000000000000000000000001",
          "blockHash": "0x158abe340f233315dac28f4b3b84fcd15a8a1ba1d7d4e6989a1b869942f3e444",
          "blockNumber": "0x121c23b",
          "transactionHash": "0x9aabdf2687e37a57a4fa2c1d6142d017497769a8ca446cdd892436d5fcd86a9e",
          "transactionIndex": "0x2",
          "logIndex": "0x4",
          "removed": false
        }
      ],
      "logsBloom": "0x00001000000000000000000000000000000000000000000000000000000000000000000000000000000000000000000000000000000000000000000000000000000000000000000000080002000000000000000000000000000000000000000000000000000000000000000000000000000000000000000000000000000000000000000200000000000000000000000000000000000000000000000000000000000000001000000000000000000000000000000040000000000000000000000000000000000000000000000000000000000000800000000000010000000000000000000000000000000000000000000000000000000002000000000000000000",
      "type": "0x2",
      "transactionHash": "0x9aabdf2687e37a57a4fa2c1d6142d017497769a8ca446cdd892436d5fcd86a9e",
      "transactionIndex": "0x2",
      "blockHash": "0x158abe340f233315dac28f4b3b84fcd15a8a1ba1d7d4e6989a1b869942f3e444",
      "blockNumber": "0x121c23b",
      "gasUsed": "0xce8b",
      "effectiveGasPrice": "0x34392c3",
      "from": "0xb819a871d20913839c37f316dc914b0570bfc0ee",
      "to": "0x05bd298c0c3f34b541b42f867baf6707911be437",
      "contractAddress": null
    },
    {
      "status": "0x1",
      "cumulativeGasUsed": "0xce7f",
      "logs": [
        {
          "address": "0x05bd298c0c3f34b541b42f867baf6707911be437",
          "topics": [
            "0x995d2434d36c9bceaab42c56efe51e8ffe41fd11cabefd9e2cb83700d8b2035e",
            "0x000000000000000000000000a22dcb8f0a2848289124086f35ae9db2a0006962"
          ],
          "data": "0x0000000000000000000000000000000000000000000000000000000000000001",
          "blockHash": "0x9387f688ef33c4f70fb4205606fec838ee6c4b73fe3d79d20ff7e8e00cbf584e",
          "blockNumber": "0x121c23e",
          "transactionHash": "0x372594706e4f8ac5975c7f065b71f1c50e497c23de75032795694979778be84d",
          "transactionIndex": "0x0",
          "logIndex": "0x0",
          "removed": false
        }
      ],
      "logsBloom": "0x00001000000000000100000000000000000000000000000000000000000000000000000000000000000000000000000000000000000000000000000000000000000000100000000000000002000000000000000000000000000000000000000000000000000000000000000000000000000000000000000000000000000000000000000000000000000000000000000000000000000000200000000000000000000000001000000000000000000000000000000040000000000000000000000000000000000000000000000000000000000000000000000000010000000000000000000000000000000000000000000000000000000002000000000000000000",
      "type": "0x2",
      "transactionHash": "0x372594706e4f8ac5975c7f065b71f1c50e497c23de75032795694979778be84d",
      "transactionIndex": "0x0",
      "blockHash": "0x9387f688ef33c4f70fb4205606fec838ee6c4b73fe3d79d20ff7e8e00cbf584e",
      "blockNumber": "0x121c23e",
      "gasUsed": "0xce7f",
      "effectiveGasPrice": "0x34392c3",
      "from": "0xb819a871d20913839c37f316dc914b0570bfc0ee",
      "to": "0x05bd298c0c3f34b541b42f867baf6707911be437",
      "contractAddress": null
    },
    {
      "status": "0x1",
      "cumulativeGasUsed": "0x220a7",
      "logs": [
        {
          "address": "0x05bd298c0c3f34b541b42f867baf6707911be437",
          "topics": [
            "0x995d2434d36c9bceaab42c56efe51e8ffe41fd11cabefd9e2cb83700d8b2035e",
            "0x000000000000000000000000b819a871d20913839c37f316dc914b0570bfc0ee"
          ],
          "data": "0x0000000000000000000000000000000000000000000000000000000000000001",
          "blockHash": "0x2bb2a97239fbfbdf3ff923c79445f4d273674e24f41b09d8f42908eb75cf7823",
          "blockNumber": "0x121c240",
          "transactionHash": "0x6b15db0bfa5207a4bc86d2fafde992ebd7cf2aadea9f81d8b29e41a82795b3f0",
          "transactionIndex": "0x2",
          "logIndex": "0x1",
          "removed": false
        }
      ],
      "logsBloom": "0x00001000000000000000000000000000000000000000000000000000000000000000000000000000000000000000000000000000000000000000000000000002000000000080000000000002000000000000000000000000000000000000000000000000000000000000000000000000000000000000000000000000000000000000000000000000000000000000000000000000000000000000000000000000000000001000000000000000000000000000000040000000000000000000000000000000000000000000000000000000000000000000000000010200000000000000000000000000000000000000000000000000000002000000000000000000",
      "type": "0x2",
      "transactionHash": "0x6b15db0bfa5207a4bc86d2fafde992ebd7cf2aadea9f81d8b29e41a82795b3f0",
      "transactionIndex": "0x2",
      "blockHash": "0x2bb2a97239fbfbdf3ff923c79445f4d273674e24f41b09d8f42908eb75cf7823",
      "blockNumber": "0x121c240",
      "gasUsed": "0xce8b",
      "effectiveGasPrice": "0x34392c3",
      "from": "0xb819a871d20913839c37f316dc914b0570bfc0ee",
      "to": "0x05bd298c0c3f34b541b42f867baf6707911be437",
      "contractAddress": null
    },
    {
      "status": "0x1",
      "cumulativeGasUsed": "0x852ef",
      "logs": [
        {
          "address": "0x05bd298c0c3f34b541b42f867baf6707911be437",
          "topics": [
            "0x995d2434d36c9bceaab42c56efe51e8ffe41fd11cabefd9e2cb83700d8b2035e",
            "0x00000000000000000000000040282d3cf4890d9806bc1853e97a59c93d813653"
          ],
          "data": "0x0000000000000000000000000000000000000000000000000000000000000001",
          "blockHash": "0x0b49ca46a03f2f945a02312cf1878141d2edb3720a912fa7697723685a2c834e",
          "blockNumber": "0x121c242",
          "transactionHash": "0x2a5b7b765ef83a2dd233d21f024a651407bc7193404c574b96e8cfc4bd61cc97",
          "transactionIndex": "0x2",
          "logIndex": "0xf",
          "removed": false
        }
      ],
      "logsBloom": "0x00001000000000000000000000000000000000000000000000000000000000000000004000000000000000000000000000000000000000000000000000000000000000000000000000000002000000000000000000000000000000000000000000000000000000000000000000000000000000000000000000000000000000000000000040000000000000000000000000000000000200000000000000000000000000001000000000000000000000000000000040000000000000000000000000000000000000000000000000000000000000000000000000010000000000000000000000000000000000000000000000000000000002000000000000000000",
      "type": "0x2",
      "transactionHash": "0x2a5b7b765ef83a2dd233d21f024a651407bc7193404c574b96e8cfc4bd61cc97",
      "transactionIndex": "0x2",
      "blockHash": "0x0b49ca46a03f2f945a02312cf1878141d2edb3720a912fa7697723685a2c834e",
      "blockNumber": "0x121c242",
      "gasUsed": "0xce8b",
      "effectiveGasPrice": "0x34392c3",
      "from": "0xb819a871d20913839c37f316dc914b0570bfc0ee",
      "to": "0x05bd298c0c3f34b541b42f867baf6707911be437",
      "contractAddress": null
    },
    {
      "status": "0x1",
      "cumulativeGasUsed": "0x90f99",
      "logs": [
        {
          "address": "0x05bd298c0c3f34b541b42f867baf6707911be437",
          "topics": [
            "0x995d2434d36c9bceaab42c56efe51e8ffe41fd11cabefd9e2cb83700d8b2035e",
            "0x000000000000000000000000b5b901f1bb86421301138b5c45c1d3fe96663161"
          ],
          "data": "0x0000000000000000000000000000000000000000000000000000000000000001",
          "blockHash": "0x67f3e6a949a7292fc8ee23083dbeb9260117be30e7f9d7360e23c440a620e7b0",
          "blockNumber": "0x121c244",
          "transactionHash": "0x3953e5e95b6cfb058e51e5295ebfe51c961009b132849fe0ad6d4a92ba0c0633",
          "transactionIndex": "0x2",
          "logIndex": "0x8",
          "removed": false
        }
      ],
      "logsBloom": "0x00001000000000000000000000000000000000000000000000000000000000004000000000000000000000000000000000000000000000000000000000000000000000000000000000000002000000000000000000800000000000000000000000000000000000000000000000000000000000000000000000000000000000000000000000000000000000000000000000000000000000000000000000000000000000001000010000000000000000000000000040000000000000000000000000000000000000000000000000000000000000000000000000010000000000000000000000000000000000000000000000000000000002000000000000000000",
      "type": "0x2",
      "transactionHash": "0x3953e5e95b6cfb058e51e5295ebfe51c961009b132849fe0ad6d4a92ba0c0633",
      "transactionIndex": "0x2",
      "blockHash": "0x67f3e6a949a7292fc8ee23083dbeb9260117be30e7f9d7360e23c440a620e7b0",
      "blockNumber": "0x121c244",
      "gasUsed": "0xce8b",
      "effectiveGasPrice": "0x34392c3",
      "from": "0xb819a871d20913839c37f316dc914b0570bfc0ee",
      "to": "0x05bd298c0c3f34b541b42f867baf6707911be437",
      "contractAddress": null
    },
    {
      "status": "0x1",
      "cumulativeGasUsed": "0x7d53e",
      "logs": [
        {
          "address": "0x05bd298c0c3f34b541b42f867baf6707911be437",
          "topics": [
            "0x995d2434d36c9bceaab42c56efe51e8ffe41fd11cabefd9e2cb83700d8b2035e",
            "0x000000000000000000000000baec8904499dcdee770c60df15b0c37eac84fb62"
          ],
          "data": "0x0000000000000000000000000000000000000000000000000000000000000001",
          "blockHash": "0xdf72bcdb9da87153c59d2769f71583b827d7755d9483003502181662d30519ca",
          "blockNumber": "0x121c246",
          "transactionHash": "0x48ae03e4d2347b84cd6a3b4d6163038e52544becde16793769d7123fd06a8921",
          "transactionIndex": "0x2",
          "logIndex": "0xa",
          "removed": false
        }
      ],
      "logsBloom": "0x00001000000000000000000000000000000000000000000000000000000000000000000000000000000000000000000000000000000000000000000000000000000000000000800000000002000080000000000000000000000000000000000000000000000000000000000000000000000000000000000000000000000000000000000000000000000000000000000000000000000000000000000000000000000000001000000000000000000000000000000040000000000000000000000000000000000000000000000000000000008000000000000000010000000000000000000000000000000000000000000000000000000002000000000000000000",
      "type": "0x2",
      "transactionHash": "0x48ae03e4d2347b84cd6a3b4d6163038e52544becde16793769d7123fd06a8921",
      "transactionIndex": "0x2",
      "blockHash": "0xdf72bcdb9da87153c59d2769f71583b827d7755d9483003502181662d30519ca",
      "blockNumber": "0x121c246",
      "gasUsed": "0xce8b",
      "effectiveGasPrice": "0x34392c3",
      "from": "0xb819a871d20913839c37f316dc914b0570bfc0ee",
      "to": "0x05bd298c0c3f34b541b42f867baf6707911be437",
      "contractAddress": null
    },
    {
      "status": "0x1",
      "cumulativeGasUsed": "0x39b12",
      "logs": [
        {
          "address": "0x05bd298c0c3f34b541b42f867baf6707911be437",
          "topics": [
            "0x995d2434d36c9bceaab42c56efe51e8ffe41fd11cabefd9e2cb83700d8b2035e",
            "0x000000000000000000000000fc4a23271b60887fc246b060b6931a08e2bc434c"
          ],
          "data": "0x0000000000000000000000000000000000000000000000000000000000000001",
          "blockHash": "0x3ee12be39f3dcba7e5abb286a1343e1f3ab803521d32792e30d9e95acfc5051f",
          "blockNumber": "0x121c249",
          "transactionHash": "0x15a4990c82b145c7e2e2d94a8c65d909f8dac0b6658b714b27212aa61c4cc44f",
          "transactionIndex": "0x2",
          "logIndex": "0x3",
          "removed": false
        }
      ],
      "logsBloom": "0x00001200000000000000000000000000000000000000000000000000000000000000000000000000000000000000000000000000000000000000000000000000000000000000020000000002000000000000000000000000000000004000000000000000000000000000000000000000000000000000000000000000000000000000000000000000000000000000000000000000000000000000000000000000000000001000000000000000000000000000000040000000000000000000000000000000000000000000000000000000000000000000000000010000000000000000000000000000000000000000000000000000000002000000000000000000",
      "type": "0x2",
      "transactionHash": "0x15a4990c82b145c7e2e2d94a8c65d909f8dac0b6658b714b27212aa61c4cc44f",
      "transactionIndex": "0x2",
      "blockHash": "0x3ee12be39f3dcba7e5abb286a1343e1f3ab803521d32792e30d9e95acfc5051f",
      "blockNumber": "0x121c249",
      "gasUsed": "0xce8b",
      "effectiveGasPrice": "0x34392c3",
      "from": "0xb819a871d20913839c37f316dc914b0570bfc0ee",
      "to": "0x05bd298c0c3f34b541b42f867baf6707911be437",
      "contractAddress": null
    },
    {
      "status": "0x1",
      "cumulativeGasUsed": "0x2eb0e",
      "logs": [
        {
          "address": "0x05bd298c0c3f34b541b42f867baf6707911be437",
          "topics": [
            "0x995d2434d36c9bceaab42c56efe51e8ffe41fd11cabefd9e2cb83700d8b2035e",
            "0x00000000000000000000000065b142550ae82f4bb3792e1eefb2fc35541a3837"
          ],
          "data": "0x0000000000000000000000000000000000000000000000000000000000000001",
          "blockHash": "0x343a6891236818de88d93654d4d6449af2793b4cef803e9b85131135daf64432",
          "blockNumber": "0x121c24a",
          "transactionHash": "0x7795d50be1c7fa8bc11523f6d8c3191ec2c6239061d526b3f8565b66a8f33b31",
          "transactionIndex": "0x3",
          "logIndex": "0x2",
          "removed": false
        }
      ],
      "logsBloom": "0x00001000000000000000000000000000000000000000000000000000000000000000000000000000000000000000000000000000000000000000000000000000000000000000000000000002000000000000000000000000000000000000000000000000000000000000000000000000000000000000000000000000000000000000000000000000000000000000000000000000000000000000000000000000000040001000000000000000000000080000000040000000000000000000000000000000000000000000000000000000000000000000000000010000008000000000000000000000000000000000000000000000000002000000000000000000",
      "type": "0x2",
      "transactionHash": "0x7795d50be1c7fa8bc11523f6d8c3191ec2c6239061d526b3f8565b66a8f33b31",
      "transactionIndex": "0x3",
      "blockHash": "0x343a6891236818de88d93654d4d6449af2793b4cef803e9b85131135daf64432",
      "blockNumber": "0x121c24a",
      "gasUsed": "0xce8b",
      "effectiveGasPrice": "0x34392c3",
      "from": "0xb819a871d20913839c37f316dc914b0570bfc0ee",
      "to": "0x05bd298c0c3f34b541b42f867baf6707911be437",
      "contractAddress": null
    },
    {
      "status": "0x1",
      "cumulativeGasUsed": "0x22c24",
      "logs": [
        {
          "address": "0x05bd298c0c3f34b541b42f867baf6707911be437",
          "topics": [
            "0x995d2434d36c9bceaab42c56efe51e8ffe41fd11cabefd9e2cb83700d8b2035e",
            "0x00000000000000000000000075149feebb20e1fe5ddb89302a6d4bace70c14ce"
          ],
          "data": "0x0000000000000000000000000000000000000000000000000000000000000001",
          "blockHash": "0xf95b1abbd34d10ab611b9b76117bd6d0c97efe19b70eed16d3888790b4bcd0b8",
          "blockNumber": "0x121c24c",
          "transactionHash": "0xef00e35069d5b077c8b41a92df309c6a363e5ccb0ea91809a7aa27bb1eca296d",
          "transactionIndex": "0x2",
          "logIndex": "0x3",
          "removed": false
        }
      ],
      "logsBloom": "0x00001000000000200000000000000000000000000000000000000000000000000000000000000000040000000000000000000000000000000000000000000000000000000000000000000002000000000000000000000000000000000000000000000000000000000000000000000000000000000000000000000000000000000000000000000000000000000000000000000000000000000000000000000000000000001000000000000000000010000000000040000000000000000000000000000000000000000000000000000000000000000000000000010000000000000000000000000000000000000000000000000000000002000000000000000000",
      "type": "0x2",
      "transactionHash": "0xef00e35069d5b077c8b41a92df309c6a363e5ccb0ea91809a7aa27bb1eca296d",
      "transactionIndex": "0x2",
      "blockHash": "0xf95b1abbd34d10ab611b9b76117bd6d0c97efe19b70eed16d3888790b4bcd0b8",
      "blockNumber": "0x121c24c",
      "gasUsed": "0xce8b",
      "effectiveGasPrice": "0x34392c3",
      "from": "0xb819a871d20913839c37f316dc914b0570bfc0ee",
      "to": "0x05bd298c0c3f34b541b42f867baf6707911be437",
      "contractAddress": null
    },
    {
      "status": "0x1",
      "cumulativeGasUsed": "0x12093",
      "logs": [
        {
          "address": "0x05bd298c0c3f34b541b42f867baf6707911be437",
          "topics": [
            "0x995d2434d36c9bceaab42c56efe51e8ffe41fd11cabefd9e2cb83700d8b2035e",
            "0x00000000000000000000000065b6d4770dadcfba6d363de86aa4d9c76283cea0"
          ],
          "data": "0x0000000000000000000000000000000000000000000000000000000000000001",
          "blockHash": "0xe35ae0a34772347f7b431a397a76f21d92fda4550a4f427185580a61ef46184d",
          "blockNumber": "0x121c24f",
          "transactionHash": "0x85f389bf1dd20eb5a6033719101fca33346e07f96d5c4d67b2800f59347b3708",
          "transactionIndex": "0x1",
          "logIndex": "0x0",
          "removed": false
        }
      ],
      "logsBloom": "0x00001000800000000000000000000000000000000000000000000000000000000000000000000000000002000000000000000000000000000000000000000000000000000000000000000002000000000000000000000000000000000000000000000000000000000000000000000000000000000000000000000000000000000000000000000000000000000000000000000000000000000000000000000000000000001000000000000000000000000000000040000000000000000000000000000000000000000000000000000000002000000000000000010000000000000000000000000000000000000000000000000000000002000000000000000000",
      "type": "0x2",
      "transactionHash": "0x85f389bf1dd20eb5a6033719101fca33346e07f96d5c4d67b2800f59347b3708",
      "transactionIndex": "0x1",
      "blockHash": "0xe35ae0a34772347f7b431a397a76f21d92fda4550a4f427185580a61ef46184d",
      "blockNumber": "0x121c24f",
      "gasUsed": "0xce8b",
      "effectiveGasPrice": "0x34392c3",
      "from": "0xb819a871d20913839c37f316dc914b0570bfc0ee",
      "to": "0x05bd298c0c3f34b541b42f867baf6707911be437",
      "contractAddress": null
    },
    {
      "status": "0x1",
      "cumulativeGasUsed": "0xce8b",
      "logs": [
        {
          "address": "0x05bd298c0c3f34b541b42f867baf6707911be437",
          "topics": [
            "0x995d2434d36c9bceaab42c56efe51e8ffe41fd11cabefd9e2cb83700d8b2035e",
            "0x000000000000000000000000a6a9fddc94bb4fe7520a2ea1cc2c433e18683342"
          ],
          "data": "0x0000000000000000000000000000000000000000000000000000000000000001",
          "blockHash": "0xcf67dc3c39444909f0b997c304984a6e3850c44cbfbe3d323f0c21ba858c6cf1",
          "blockNumber": "0x121c252",
          "transactionHash": "0x76b91ecd6eb0ae42506190190a949b89d15820534ee52bbd7edfdc71ef65eab4",
          "transactionIndex": "0x0",
          "logIndex": "0x0",
          "removed": false
        }
      ],
      "logsBloom": "0x00001000000040000000000000000000000000000000000000000000000000000000000000000000000000000000000000000000000000000000000000000000000000000000000000000002000000400000000000000000000000000000000000000000000000000000000000000000000000000000000000000000000000000000000000000000000000000000000000000000000000000000000000000000000000001000000002000000000000000000000040000000000000000000000000000000000000000000000000000000000000000000000000010000000000000000000000000000000000000000000000000000000002000000000000000000",
      "type": "0x2",
      "transactionHash": "0x76b91ecd6eb0ae42506190190a949b89d15820534ee52bbd7edfdc71ef65eab4",
      "transactionIndex": "0x0",
      "blockHash": "0xcf67dc3c39444909f0b997c304984a6e3850c44cbfbe3d323f0c21ba858c6cf1",
      "blockNumber": "0x121c252",
      "gasUsed": "0xce8b",
      "effectiveGasPrice": "0x34392c3",
      "from": "0xb819a871d20913839c37f316dc914b0570bfc0ee",
      "to": "0x05bd298c0c3f34b541b42f867baf6707911be437",
      "contractAddress": null
    },
    {
      "status": "0x1",
      "cumulativeGasUsed": "0x51d0c",
      "logs": [
        {
          "address": "0x05bd298c0c3f34b541b42f867baf6707911be437",
          "topics": [
            "0x995d2434d36c9bceaab42c56efe51e8ffe41fd11cabefd9e2cb83700d8b2035e",
            "0x00000000000000000000000018d04f05f80ade5373849385a1c24e1e0a6d1744"
          ],
          "data": "0x0000000000000000000000000000000000000000000000000000000000000001",
          "blockHash": "0x991277a79b81744ccc1784050a816ee7b0628fb4e22e41c1f6d7e5f54e5509b9",
          "blockNumber": "0x121c254",
          "transactionHash": "0x9e2fa69fef778e5f90319ba3495bfd8e4e67ddb7fa131539ac995cbca7cf307f",
          "transactionIndex": "0x1",
          "logIndex": "0x4",
          "removed": false
        }
      ],
      "logsBloom": "0x00001000000000000000000000000000000000000000000000000000000000000000000000000000000000000000000000000000000000000000000000000000000000000000000000000002000100000000000000000000000000000000000000000000000000000000000000000000000000000000000000000000000000000000000000000000000000000000000000000000000000000000000000000000000000001000000000000000000000000000000040000000000000000000000000000000000100000000000000000000000000000000000000010000000000000000000000000000000000000004000000000000000002000000000000000000",
      "type": "0x2",
      "transactionHash": "0x9e2fa69fef778e5f90319ba3495bfd8e4e67ddb7fa131539ac995cbca7cf307f",
      "transactionIndex": "0x1",
      "blockHash": "0x991277a79b81744ccc1784050a816ee7b0628fb4e22e41c1f6d7e5f54e5509b9",
      "blockNumber": "0x121c254",
      "gasUsed": "0xce8b",
      "effectiveGasPrice": "0x34392c3",
      "from": "0xb819a871d20913839c37f316dc914b0570bfc0ee",
      "to": "0x05bd298c0c3f34b541b42f867baf6707911be437",
      "contractAddress": null
    },
    {
      "status": "0x1",
      "cumulativeGasUsed": "0x12093",
      "logs": [
        {
          "address": "0x05bd298c0c3f34b541b42f867baf6707911be437",
          "topics": [
            "0x995d2434d36c9bceaab42c56efe51e8ffe41fd11cabefd9e2cb83700d8b2035e",
            "0x000000000000000000000000bd9c90d6774cb5320b54bb7998b6bcc5e4a9071f"
          ],
          "data": "0x0000000000000000000000000000000000000000000000000000000000000001",
          "blockHash": "0x044eaac620ccad906427ed92fa1657cc2662cb9ef1f411b54c88bcce35d62e65",
          "blockNumber": "0x121c256",
          "transactionHash": "0xe374bbbce8e8a24feb995f1ab7892b78dda72f2ecb5da1eb708f54a7540ae769",
          "transactionIndex": "0x1",
          "logIndex": "0x0",
          "removed": false
        }
      ],
      "logsBloom": "0x00001000000000000000000000000000000000000000000000000000000000000000000000002000000000000000000000000000000040000000000000000000000000000000000000000002000000000000000000000000000000000000000000000000000000000000000000000000000000000000000000000000000000000000000000000000000000000000000000000000000000000000000000000000000000001000000000000000000000000000000040800000000000000000000000000000000000000000000000000000000000000000000000010000000000000000000000000000000000000000000000000000000002000000000000000000",
      "type": "0x2",
      "transactionHash": "0xe374bbbce8e8a24feb995f1ab7892b78dda72f2ecb5da1eb708f54a7540ae769",
      "transactionIndex": "0x1",
      "blockHash": "0x044eaac620ccad906427ed92fa1657cc2662cb9ef1f411b54c88bcce35d62e65",
      "blockNumber": "0x121c256",
      "gasUsed": "0xce8b",
      "effectiveGasPrice": "0x34392c3",
      "from": "0xb819a871d20913839c37f316dc914b0570bfc0ee",
      "to": "0x05bd298c0c3f34b541b42f867baf6707911be437",
      "contractAddress": null
    },
    {
      "status": "0x1",
      "cumulativeGasUsed": "0xce8b",
      "logs": [
        {
          "address": "0x05bd298c0c3f34b541b42f867baf6707911be437",
          "topics": [
            "0x995d2434d36c9bceaab42c56efe51e8ffe41fd11cabefd9e2cb83700d8b2035e",
            "0x0000000000000000000000008f2eaba31b1b613ca78f2795ba05400f0583c5a4"
          ],
          "data": "0x0000000000000000000000000000000000000000000000000000000000000001",
          "blockHash": "0xe1029e645f4977f39e9964af773d9903fb66bfbf2a13bd0d042f8b0552c8695e",
          "blockNumber": "0x121c258",
          "transactionHash": "0x252d35d4a6762a128997d5f43cfea0e46e256ff601f4f76487b1f9b2b5bd653d",
          "transactionIndex": "0x0",
          "logIndex": "0x0",
          "removed": false
        }
      ],
      "logsBloom": "0x00001000000000000000000000000000000000000000000000000000000000000000000000000000000000000000000000000000000000000000000000000000000000000000000000000002000000000000000000000000000000000000000000000000000000000000001000000000000000000000000000000000000000000000000000000000000000000000000000000000000000000000000000000000000000001000000000000000000000000000000040000000000000000000000000004000000000000000000000002000000000000000000000010000000000000000000000000000000000000000000000000000000002000000000000000000",
      "type": "0x2",
      "transactionHash": "0x252d35d4a6762a128997d5f43cfea0e46e256ff601f4f76487b1f9b2b5bd653d",
      "transactionIndex": "0x0",
      "blockHash": "0xe1029e645f4977f39e9964af773d9903fb66bfbf2a13bd0d042f8b0552c8695e",
      "blockNumber": "0x121c258",
      "gasUsed": "0xce8b",
      "effectiveGasPrice": "0x34392c3",
      "from": "0xb819a871d20913839c37f316dc914b0570bfc0ee",
      "to": "0x05bd298c0c3f34b541b42f867baf6707911be437",
      "contractAddress": null
    },
    {
      "status": "0x1",
      "cumulativeGasUsed": "0x8e396",
      "logs": [
        {
          "address": "0x05bd298c0c3f34b541b42f867baf6707911be437",
          "topics": [
            "0x995d2434d36c9bceaab42c56efe51e8ffe41fd11cabefd9e2cb83700d8b2035e",
            "0x0000000000000000000000008f2eaba31b1b613ca78f2795ba05400f0583c5a4"
          ],
          "data": "0x0000000000000000000000000000000000000000000000000000000000000001",
          "blockHash": "0xd256b23082defcea732a82111d09463e22ac9fb786b106dae4f70ec1e50ead54",
          "blockNumber": "0x121c259",
          "transactionHash": "0x5cdbbabce71b962fbd0cb95e73d86cfcccfe4e207ed11e59ef1c19f1ee51e91c",
          "transactionIndex": "0x7",
          "logIndex": "0x8",
          "removed": false
        }
      ],
      "logsBloom": "0x00001000000000000000000000000000000000000000000000000000000000000000000000000000000000000000000000000000000000000000000000000000000000000000000000000002000000000000000000000000000000000000000000000000000000000000001000000000000000000000000000000000000000000000000000000000000000000000000000000000000000000000000000000000000000001000000000000000000000000000000040000000000000000000000000004000000000000000000000002000000000000000000000010000000000000000000000000000000000000000000000000000000002000000000000000000",
      "type": "0x2",
      "transactionHash": "0x5cdbbabce71b962fbd0cb95e73d86cfcccfe4e207ed11e59ef1c19f1ee51e91c",
      "transactionIndex": "0x7",
      "blockHash": "0xd256b23082defcea732a82111d09463e22ac9fb786b106dae4f70ec1e50ead54",
      "blockNumber": "0x121c259",
      "gasUsed": "0x80cf",
      "effectiveGasPrice": "0x34392c3",
      "from": "0xb819a871d20913839c37f316dc914b0570bfc0ee",
      "to": "0x05bd298c0c3f34b541b42f867baf6707911be437",
      "contractAddress": null
    },
    {
      "status": "0x1",
      "cumulativeGasUsed": "0x80cf",
      "logs": [
        {
          "address": "0x05bd298c0c3f34b541b42f867baf6707911be437",
          "topics": [
            "0x995d2434d36c9bceaab42c56efe51e8ffe41fd11cabefd9e2cb83700d8b2035e",
            "0x00000000000000000000000050d8deadd2b3140b151cab2c4fb76f1f59b236f8"
          ],
          "data": "0x0000000000000000000000000000000000000000000000000000000000000001",
          "blockHash": "0x3a82b6c9f03cd21b63f4f78e4fc7ee490d007c58125b19e60a17d32fed80b641",
          "blockNumber": "0x121c25b",
          "transactionHash": "0x0bf67e1e86e685bf0d4c5fa9913245d8a5be606f626a37369bdc346c832bb94a",
          "transactionIndex": "0x0",
          "logIndex": "0x0",
          "removed": false
        }
      ],
      "logsBloom": "0x00001000000000000000000000000000000000000000200000000000000000000000000000000000000000000000000000000000000000000000000000000000000000000000000000000002000000000000000000000000000000000000000000000000000000000000000000000000000000000000000000000000020000000000000000000000000000000000000000000000000000000000000000000000000000001000000000000000000000000000000040000000000000000000000000000000000000000000000000000000000000000000000000010000000000000000000000800000000000000000000000000000000002000000000000000000",
      "type": "0x2",
      "transactionHash": "0x0bf67e1e86e685bf0d4c5fa9913245d8a5be606f626a37369bdc346c832bb94a",
      "transactionIndex": "0x0",
      "blockHash": "0x3a82b6c9f03cd21b63f4f78e4fc7ee490d007c58125b19e60a17d32fed80b641",
      "blockNumber": "0x121c25b",
      "gasUsed": "0x80cf",
      "effectiveGasPrice": "0x34392c3",
      "from": "0xb819a871d20913839c37f316dc914b0570bfc0ee",
      "to": "0x05bd298c0c3f34b541b42f867baf6707911be437",
      "contractAddress": null
    },
    {
      "status": "0x1",
      "cumulativeGasUsed": "0x31482",
      "logs": [
        {
          "address": "0x05bd298c0c3f34b541b42f867baf6707911be437",
          "topics": [
            "0x995d2434d36c9bceaab42c56efe51e8ffe41fd11cabefd9e2cb83700d8b2035e",
            "0x000000000000000000000000574582c44e3f1ef2cb29a7131b057febbcc8244e"
          ],
          "data": "0x0000000000000000000000000000000000000000000000000000000000000001",
          "blockHash": "0x6508ed0e923f93707a318d3069a59f6ab9456f7e5526879d03c79ce50639b810",
          "blockNumber": "0x121c25d",
          "transactionHash": "0x2054a371540a31136c5adc170cb037620c8827acce9a64e9de0de1275e14e7b0",
          "transactionIndex": "0x2",
          "logIndex": "0x3",
          "removed": false
        }
      ],
      "logsBloom": "0x00001000000000000000000000000000000000000000000000000000000000000000000000000000000000000000000000000000000000000000000000000000000000000000200000000002000000000000000000000000000000000000000000000000000000000000000000000000000000000000000000000000000000000000000000000000000000100000000000000000000000000000000000000000004000001000000000000000000000000000000040000000000000000000000000000000000000000000000000000000000000000000000000010000000000000000000000000000000000000000000000000000000002000000000000000000",
      "type": "0x2",
      "transactionHash": "0x2054a371540a31136c5adc170cb037620c8827acce9a64e9de0de1275e14e7b0",
      "transactionIndex": "0x2",
      "blockHash": "0x6508ed0e923f93707a318d3069a59f6ab9456f7e5526879d03c79ce50639b810",
      "blockNumber": "0x121c25d",
      "gasUsed": "0x80cf",
      "effectiveGasPrice": "0x34392c3",
      "from": "0xb819a871d20913839c37f316dc914b0570bfc0ee",
      "to": "0x05bd298c0c3f34b541b42f867baf6707911be437",
      "contractAddress": null
    },
    {
      "status": "0x1",
      "cumulativeGasUsed": "0x1f351",
      "logs": [
        {
          "address": "0x05bd298c0c3f34b541b42f867baf6707911be437",
          "topics": [
            "0x995d2434d36c9bceaab42c56efe51e8ffe41fd11cabefd9e2cb83700d8b2035e",
            "0x000000000000000000000000bd0ce952ba069a1e15f3bf3916d4b07bbbdbc8b3"
          ],
          "data": "0x0000000000000000000000000000000000000000000000000000000000000001",
          "blockHash": "0xe6ef94accbf112bf57fa25356318b6175062bc6a470d98221b51e46af9dfcea6",
          "blockNumber": "0x121c25e",
          "transactionHash": "0xf0b079da71bda7402ec5d3c452a49194111394f9366765a1a0e9af6c7caa1fd8",
          "transactionIndex": "0x2",
          "logIndex": "0x1",
          "removed": false
        }
      ],
      "logsBloom": "0x00001000000000000000000000000000000000000000000000000000000000000000000000000000000000000000000000000000000000000000000000000000000000000002000000000002000000000000000000000000000000000000000000000000000000000000000000000000000000000000000000000000000000000000000000000000000000000000000000000000000000000000000000000000000000001000000000000000000000000000000040000000000000000000000000000000008000000000010000000000000000000000000000010000000000000000000000000000000000000000000000000000000002000000000000000000",
      "type": "0x2",
      "transactionHash": "0xf0b079da71bda7402ec5d3c452a49194111394f9366765a1a0e9af6c7caa1fd8",
      "transactionIndex": "0x2",
      "blockHash": "0xe6ef94accbf112bf57fa25356318b6175062bc6a470d98221b51e46af9dfcea6",
      "blockNumber": "0x121c25e",
      "gasUsed": "0xce8b",
      "effectiveGasPrice": "0x34392c3",
      "from": "0xb819a871d20913839c37f316dc914b0570bfc0ee",
      "to": "0x05bd298c0c3f34b541b42f867baf6707911be437",
      "contractAddress": null
    }
  ],
  "libraries": [],
  "pending": [],
  "returns": {},
  "timestamp": 1747223312,
  "chain": 59144,
  "commit": "0b1d1bd"
}