{
  "transactions": [
    {
      "hash": "0x096fe23abbd2c50b6e9984370d0decc63ce84b047a36caf0e17818f629ec2965",
      "transactionType": "CALL",
      "contractName": "Roles",
      "contractAddress": "0x1211d07f0ebea8994f23ec26e1e512929fc8ab08",
      "function": "allowFor(address,bytes32,bool)",
      "arguments": [
        "0xF8B6314e66EA3e4b62e229fa5F5F052058618404",
        "0x4b1cf52f49d174a2779824195ac83ffb0173882d2de2b8017a7a2ad31efa9bac",
        "true"
      ],
      "transaction": {
        "from": "0xb819a871d20913839c37f316dc914b0570bfc0ee",
        "to": "0x1211d07f0ebea8994f23ec26e1e512929fc8ab08",
        "gas": "0x107e3",
        "value": "0x0",
        "input": "0xec3a4613000000000000000000000000f8b6314e66ea3e4b62e229fa5f5f0520586184044b1cf52f49d174a2779824195ac83ffb0173882d2de2b8017a7a2ad31efa9bac0000000000000000000000000000000000000000000000000000000000000001",
        "nonce": "0x12d",
        "chainId": "0x1"
      },
      "additionalContracts": [],
      "isFixedGasLimit": false
    },
    {
      "hash": "0xf2cf0d3868fb55ae4a703c1de8edc38394453ea725ca2a8c485cdfa6abe96c94",
      "transactionType": "CALL",
      "contractName": "Roles",
      "contractAddress": "0x1211d07f0ebea8994f23ec26e1e512929fc8ab08",
      "function": "allowFor(address,bytes32,bool)",
      "arguments": [
        "0x91B945CbB063648C44271868a7A0c7BdFf64827D",
        "0x4b1cf52f49d174a2779824195ac83ffb0173882d2de2b8017a7a2ad31efa9bac",
        "true"
      ],
      "transaction": {
        "from": "0xb819a871d20913839c37f316dc914b0570bfc0ee",
        "to": "0x1211d07f0ebea8994f23ec26e1e512929fc8ab08",
        "gas": "0x107e3",
        "value": "0x0",
        "input": "0xec3a461300000000000000000000000091b945cbb063648c44271868a7a0c7bdff64827d4b1cf52f49d174a2779824195ac83ffb0173882d2de2b8017a7a2ad31efa9bac0000000000000000000000000000000000000000000000000000000000000001",
        "nonce": "0x12e",
        "chainId": "0x1"
      },
      "additionalContracts": [],
      "isFixedGasLimit": false
    },
    {
      "hash": "0x5892f66ef1de091d8663a86fcde6aa8e2926867a8825680e0a0552f08e08992b",
      "transactionType": "CALL",
      "contractName": "Roles",
      "contractAddress": "0x1211d07f0ebea8994f23ec26e1e512929fc8ab08",
      "function": "allowFor(address,bytes32,bool)",
      "arguments": [
        "0x91B945CbB063648C44271868a7A0c7BdFf64827D",
        "0xaeffe8a027d13ff1f9fbecaa8f7fc0ff2c5c5d71561a1a572f6bafeeba68abfd",
        "true"
      ],
      "transaction": {
        "from": "0xb819a871d20913839c37f316dc914b0570bfc0ee",
        "to": "0x1211d07f0ebea8994f23ec26e1e512929fc8ab08",
        "gas": "0x107e3",
        "value": "0x0",
        "input": "0xec3a461300000000000000000000000091b945cbb063648c44271868a7a0c7bdff64827daeffe8a027d13ff1f9fbecaa8f7fc0ff2c5c5d71561a1a572f6bafeeba68abfd0000000000000000000000000000000000000000000000000000000000000001",
        "nonce": "0x12f",
        "chainId": "0x1"
      },
      "additionalContracts": [],
      "isFixedGasLimit": false
    },
    {
      "hash": "0x54edf7a6bd2e44fc2fcc43b312197606410847a6d01dc0c30f8ba5b5bc5f5048",
      "transactionType": "CALL",
      "contractName": "Roles",
      "contractAddress": "0x1211d07f0ebea8994f23ec26e1e512929fc8ab08",
      "function": "allowFor(address,bytes32,bool)",
      "arguments": [
        "0x91B945CbB063648C44271868a7A0c7BdFf64827D",
        "0xc8e17e1f507bc6ac21ffd444ba9d6c9d6ea2defdac21571990ea0eb8bcde3a24",
        "true"
      ],
      "transaction": {
        "from": "0xb819a871d20913839c37f316dc914b0570bfc0ee",
        "to": "0x1211d07f0ebea8994f23ec26e1e512929fc8ab08",
        "gas": "0x107e3",
        "value": "0x0",
        "input": "0xec3a461300000000000000000000000091b945cbb063648c44271868a7a0c7bdff64827dc8e17e1f507bc6ac21ffd444ba9d6c9d6ea2defdac21571990ea0eb8bcde3a240000000000000000000000000000000000000000000000000000000000000001",
        "nonce": "0x130",
        "chainId": "0x1"
      },
      "additionalContracts": [],
      "isFixedGasLimit": false
    },
    {
      "hash": "0xd0ed85748e540a761c37c28d28c68e961c30d4b73cbb515d00b3d16f1744369d",
      "transactionType": "CALL",
      "contractName": "Roles",
      "contractAddress": "0x1211d07f0ebea8994f23ec26e1e512929fc8ab08",
      "function": "allowFor(address,bytes32,bool)",
      "arguments": [
        "0x91B945CbB063648C44271868a7A0c7BdFf64827D",
        "0xcf3889b3d647b5db8c87e0e05aca2acdd693a72c71726764f2198ee27a21c728",
        "true"
      ],
      "transaction": {
        "from": "0xb819a871d20913839c37f316dc914b0570bfc0ee",
        "to": "0x1211d07f0ebea8994f23ec26e1e512929fc8ab08",
        "gas": "0x107e3",
        "value": "0x0",
        "input": "0xec3a461300000000000000000000000091b945cbb063648c44271868a7a0c7bdff64827dcf3889b3d647b5db8c87e0e05aca2acdd693a72c71726764f2198ee27a21c7280000000000000000000000000000000000000000000000000000000000000001",
        "nonce": "0x131",
        "chainId": "0x1"
      },
      "additionalContracts": [],
      "isFixedGasLimit": false
    },
    {
      "hash": "0x885e2287c7b65cd7d241e65b3af2bd19ca030f679322dd2386a9d008acb50c17",
      "transactionType": "CALL",
      "contractName": "Roles",
      "contractAddress": "0x1211d07f0ebea8994f23ec26e1e512929fc8ab08",
      "function": "allowFor(address,bytes32,bool)",
      "arguments": [
        "0x91B945CbB063648C44271868a7A0c7BdFf64827D",
        "0x79bb2eff4b96ce24cc809a1642a7365c4980ebeb15be2580a619e03726e41a98",
        "true"
      ],
      "transaction": {
        "from": "0xb819a871d20913839c37f316dc914b0570bfc0ee",
        "to": "0x1211d07f0ebea8994f23ec26e1e512929fc8ab08",
        "gas": "0x107e3",
        "value": "0x0",
        "input": "0xec3a461300000000000000000000000091b945cbb063648c44271868a7a0c7bdff64827d79bb2eff4b96ce24cc809a1642a7365c4980ebeb15be2580a619e03726e41a980000000000000000000000000000000000000000000000000000000000000001",
        "nonce": "0x132",
        "chainId": "0x1"
      },
      "additionalContracts": [],
      "isFixedGasLimit": false
    },
    {
      "hash": "0xab2ff8bdab4d6e9fb82cfed961bec5009bede20a68ebb48ba03ac22e481ad8d9",
      "transactionType": "CALL",
      "contractName": "Roles",
      "contractAddress": "0x1211d07f0ebea8994f23ec26e1e512929fc8ab08",
      "function": "allowFor(address,bytes32,bool)",
      "arguments": [
        "0x91B945CbB063648C44271868a7A0c7BdFf64827D",
        "0x3e008573b76fa95febaab72c06ec152363f92f2b27dcaf00fbd0bb77a70593db",
        "true"
      ],
      "transaction": {
        "from": "0xb819a871d20913839c37f316dc914b0570bfc0ee",
        "to": "0x1211d07f0ebea8994f23ec26e1e512929fc8ab08",
        "gas": "0x107c3",
        "value": "0x0",
        "input": "0xec3a461300000000000000000000000091b945cbb063648c44271868a7a0c7bdff64827d3e008573b76fa95febaab72c06ec152363f92f2b27dcaf00fbd0bb77a70593db0000000000000000000000000000000000000000000000000000000000000001",
        "nonce": "0x133",
        "chainId": "0x1"
      },
      "additionalContracts": [],
      "isFixedGasLimit": false
    },
    {
      "hash": "0xc59cb043dba72b4c42e8d38d1a97447bafeb00d71e517efd4c8458cb76d69337",
      "transactionType": "CALL",
      "contractName": "Roles",
      "contractAddress": "0x1211d07f0ebea8994f23ec26e1e512929fc8ab08",
      "function": "allowFor(address,bytes32,bool)",
      "arguments": [
        "0x91B945CbB063648C44271868a7A0c7BdFf64827D",
        "0x46c2ab528350fb4f59e61eb6c0382446a3636f13f7846680a2734e5f829735a4",
        "true"
      ],
      "transaction": {
        "from": "0xb819a871d20913839c37f316dc914b0570bfc0ee",
        "to": "0x1211d07f0ebea8994f23ec26e1e512929fc8ab08",
        "gas": "0x107e3",
        "value": "0x0",
        "input": "0xec3a461300000000000000000000000091b945cbb063648c44271868a7a0c7bdff64827d46c2ab528350fb4f59e61eb6c0382446a3636f13f7846680a2734e5f829735a40000000000000000000000000000000000000000000000000000000000000001",
        "nonce": "0x134",
        "chainId": "0x1"
      },
      "additionalContracts": [],
      "isFixedGasLimit": false
    },
    {
      "hash": "0xd4cfc74dd58d2817f787b2e5ba1937e8f2e93f4b6e756503ee4351b2b18724a7",
      "transactionType": "CALL",
      "contractName": "Roles",
      "contractAddress": "0x1211d07f0ebea8994f23ec26e1e512929fc8ab08",
      "function": "allowFor(address,bytes32,bool)",
      "arguments": [
        "0x91B945CbB063648C44271868a7A0c7BdFf64827D",
        "0xb0487bdd3330b4d082e49dfc24e1aa23706abcc632f9215fee20a474a9a88457",
        "true"
      ],
      "transaction": {
        "from": "0xb819a871d20913839c37f316dc914b0570bfc0ee",
        "to": "0x1211d07f0ebea8994f23ec26e1e512929fc8ab08",
        "gas": "0x107e3",
        "value": "0x0",
        "input": "0xec3a461300000000000000000000000091b945cbb063648c44271868a7a0c7bdff64827db0487bdd3330b4d082e49dfc24e1aa23706abcc632f9215fee20a474a9a884570000000000000000000000000000000000000000000000000000000000000001",
        "nonce": "0x135",
        "chainId": "0x1"
      },
      "additionalContracts": [],
      "isFixedGasLimit": false
    },
    {
      "hash": "0x29088a269db8ebb7d5c8309741c932d2b34bde963acb4eac39ee029614b6ef15",
      "transactionType": "CALL",
      "contractName": "Roles",
      "contractAddress": "0x1211d07f0ebea8994f23ec26e1e512929fc8ab08",
      "function": "allowFor(address,bytes32,bool)",
      "arguments": [
        "0x91B945CbB063648C44271868a7A0c7BdFf64827D",
        "0xeefbfa32ce9dd99a431be27221a8732bc1e7b3d032ff4cbd56226b17783f7413",
        "true"
      ],
      "transaction": {
        "from": "0xb819a871d20913839c37f316dc914b0570bfc0ee",
        "to": "0x1211d07f0ebea8994f23ec26e1e512929fc8ab08",
        "gas": "0x107e3",
        "value": "0x0",
        "input": "0xec3a461300000000000000000000000091b945cbb063648c44271868a7a0c7bdff64827deefbfa32ce9dd99a431be27221a8732bc1e7b3d032ff4cbd56226b17783f74130000000000000000000000000000000000000000000000000000000000000001",
        "nonce": "0x136",
        "chainId": "0x1"
      },
      "additionalContracts": [],
      "isFixedGasLimit": false
    },
    {
      "hash": "0x21975971c6618545bab45db24977cd3f3f8d3bc49f4f70e62c1adee311b6fb6f",
      "transactionType": "CALL",
      "contractName": "Roles",
      "contractAddress": "0x1211d07f0ebea8994f23ec26e1e512929fc8ab08",
      "function": "allowFor(address,bytes32,bool)",
      "arguments": [
        "0x91B945CbB063648C44271868a7A0c7BdFf64827D",
        "0xaa85d4d7655b58b3177edbbb41bc17f2e2ebffd26ace9d6b56244a5ee16c7806",
        "true"
      ],
      "transaction": {
        "from": "0xb819a871d20913839c37f316dc914b0570bfc0ee",
        "to": "0x1211d07f0ebea8994f23ec26e1e512929fc8ab08",
        "gas": "0x107e3",
        "value": "0x0",
        "input": "0xec3a461300000000000000000000000091b945cbb063648c44271868a7a0c7bdff64827daa85d4d7655b58b3177edbbb41bc17f2e2ebffd26ace9d6b56244a5ee16c78060000000000000000000000000000000000000000000000000000000000000001",
        "nonce": "0x137",
        "chainId": "0x1"
      },
      "additionalContracts": [],
      "isFixedGasLimit": false
    },
    {
      "hash": "0x6ab5b05d4cd5802d4b93aa2e9fef9e650482ebd11f0c81e736ca9ead19e567e0",
      "transactionType": "CALL",
      "contractName": "Roles",
      "contractAddress": "0x1211d07f0ebea8994f23ec26e1e512929fc8ab08",
      "function": "allowFor(address,bytes32,bool)",
      "arguments": [
        "0xB819A871d20913839c37f316Dc914b0570bfc0eE",
        "0x4b1cf52f49d174a2779824195ac83ffb0173882d2de2b8017a7a2ad31efa9bac",
        "false"
      ],
      "transaction": {
        "from": "0xb819a871d20913839c37f316dc914b0570bfc0ee",
        "to": "0x1211d07f0ebea8994f23ec26e1e512929fc8ab08",
        "gas": "0x91aa",
        "value": "0x0",
        "input": "0xec3a4613000000000000000000000000b819a871d20913839c37f316dc914b0570bfc0ee4b1cf52f49d174a2779824195ac83ffb0173882d2de2b8017a7a2ad31efa9bac0000000000000000000000000000000000000000000000000000000000000000",
        "nonce": "0x138",
        "chainId": "0x1"
      },
      "additionalContracts": [],
      "isFixedGasLimit": false
    },
    {
      "hash": "0x62d1e1228e1682c7b5648fe9c89570dd66c8b17f08e33c45121e9228b1850f99",
      "transactionType": "CALL",
      "contractName": "Roles",
      "contractAddress": "0x1211d07f0ebea8994f23ec26e1e512929fc8ab08",
      "function": "allowFor(address,bytes32,bool)",
      "arguments": [
        "0xB819A871d20913839c37f316Dc914b0570bfc0eE",
        "0xaeffe8a027d13ff1f9fbecaa8f7fc0ff2c5c5d71561a1a572f6bafeeba68abfd",
        "false"
      ],
      "transaction": {
        "from": "0xb819a871d20913839c37f316dc914b0570bfc0ee",
        "to": "0x1211d07f0ebea8994f23ec26e1e512929fc8ab08",
        "gas": "0x91aa",
        "value": "0x0",
        "input": "0xec3a4613000000000000000000000000b819a871d20913839c37f316dc914b0570bfc0eeaeffe8a027d13ff1f9fbecaa8f7fc0ff2c5c5d71561a1a572f6bafeeba68abfd0000000000000000000000000000000000000000000000000000000000000000",
        "nonce": "0x139",
        "chainId": "0x1"
      },
      "additionalContracts": [],
      "isFixedGasLimit": false
    },
    {
      "hash": "0xff67b807ab16fbd3409c4f25cc47eaf482800e7738bb6f7f1e59c03e02313601",
      "transactionType": "CALL",
      "contractName": "Roles",
      "contractAddress": "0x1211d07f0ebea8994f23ec26e1e512929fc8ab08",
      "function": "allowFor(address,bytes32,bool)",
      "arguments": [
        "0xB819A871d20913839c37f316Dc914b0570bfc0eE",
        "0xc8e17e1f507bc6ac21ffd444ba9d6c9d6ea2defdac21571990ea0eb8bcde3a24",
        "false"
      ],
      "transaction": {
        "from": "0xb819a871d20913839c37f316dc914b0570bfc0ee",
        "to": "0x1211d07f0ebea8994f23ec26e1e512929fc8ab08",
        "gas": "0x91aa",
        "value": "0x0",
        "input": "0xec3a4613000000000000000000000000b819a871d20913839c37f316dc914b0570bfc0eec8e17e1f507bc6ac21ffd444ba9d6c9d6ea2defdac21571990ea0eb8bcde3a240000000000000000000000000000000000000000000000000000000000000000",
        "nonce": "0x13a",
        "chainId": "0x1"
      },
      "additionalContracts": [],
      "isFixedGasLimit": false
    },
    {
      "hash": "0x3d410711034a016eb3b550aca60ced811d6c6a229db39054339d07b98d0a8339",
      "transactionType": "CALL",
      "contractName": "Roles",
      "contractAddress": "0x1211d07f0ebea8994f23ec26e1e512929fc8ab08",
      "function": "allowFor(address,bytes32,bool)",
      "arguments": [
        "0xB819A871d20913839c37f316Dc914b0570bfc0eE",
        "0xcf3889b3d647b5db8c87e0e05aca2acdd693a72c71726764f2198ee27a21c728",
        "false"
      ],
      "transaction": {
        "from": "0xb819a871d20913839c37f316dc914b0570bfc0ee",
        "to": "0x1211d07f0ebea8994f23ec26e1e512929fc8ab08",
        "gas": "0x91aa",
        "value": "0x0",
        "input": "0xec3a4613000000000000000000000000b819a871d20913839c37f316dc914b0570bfc0eecf3889b3d647b5db8c87e0e05aca2acdd693a72c71726764f2198ee27a21c7280000000000000000000000000000000000000000000000000000000000000000",
        "nonce": "0x13b",
        "chainId": "0x1"
      },
      "additionalContracts": [],
      "isFixedGasLimit": false
    },
    {
      "hash": "0x7ba7189238d3ea9f4aef16cde044cfcc975c83218e00d1150b8bb9e0e60b3624",
      "transactionType": "CALL",
      "contractName": "Roles",
      "contractAddress": "0x1211d07f0ebea8994f23ec26e1e512929fc8ab08",
      "function": "allowFor(address,bytes32,bool)",
      "arguments": [
        "0xB819A871d20913839c37f316Dc914b0570bfc0eE",
        "0x3e008573b76fa95febaab72c06ec152363f92f2b27dcaf00fbd0bb77a70593db",
        "false"
      ],
      "transaction": {
        "from": "0xb819a871d20913839c37f316dc914b0570bfc0ee",
        "to": "0x1211d07f0ebea8994f23ec26e1e512929fc8ab08",
        "gas": "0x9188",
        "value": "0x0",
        "input": "0xec3a4613000000000000000000000000b819a871d20913839c37f316dc914b0570bfc0ee3e008573b76fa95febaab72c06ec152363f92f2b27dcaf00fbd0bb77a70593db0000000000000000000000000000000000000000000000000000000000000000",
        "nonce": "0x13c",
        "chainId": "0x1"
      },
      "additionalContracts": [],
      "isFixedGasLimit": false
    },
    {
      "hash": "0x8f40326d6cc60acddb92a8f7643d96ed46df55f3d492a5b1bf247ef7c95c4c91",
      "transactionType": "CALL",
      "contractName": "Roles",
      "contractAddress": "0x1211d07f0ebea8994f23ec26e1e512929fc8ab08",
      "function": "allowFor(address,bytes32,bool)",
      "arguments": [
        "0xB819A871d20913839c37f316Dc914b0570bfc0eE",
        "0x46c2ab528350fb4f59e61eb6c0382446a3636f13f7846680a2734e5f829735a4",
        "false"
      ],
      "transaction": {
        "from": "0xb819a871d20913839c37f316dc914b0570bfc0ee",
        "to": "0x1211d07f0ebea8994f23ec26e1e512929fc8ab08",
        "gas": "0x91aa",
        "value": "0x0",
        "input": "0xec3a4613000000000000000000000000b819a871d20913839c37f316dc914b0570bfc0ee46c2ab528350fb4f59e61eb6c0382446a3636f13f7846680a2734e5f829735a40000000000000000000000000000000000000000000000000000000000000000",
        "nonce": "0x13d",
        "chainId": "0x1"
      },
      "additionalContracts": [],
      "isFixedGasLimit": false
    },
    {
      "hash": "0x9cf117289769fab10b8685313df11152f1db1bb2322f3d007c1261167159de02",
      "transactionType": "CALL",
      "contractName": "Roles",
      "contractAddress": "0x1211d07f0ebea8994f23ec26e1e512929fc8ab08",
      "function": "allowFor(address,bytes32,bool)",
      "arguments": [
        "0xB819A871d20913839c37f316Dc914b0570bfc0eE",
        "0xb0487bdd3330b4d082e49dfc24e1aa23706abcc632f9215fee20a474a9a88457",
        "false"
      ],
      "transaction": {
        "from": "0xb819a871d20913839c37f316dc914b0570bfc0ee",
        "to": "0x1211d07f0ebea8994f23ec26e1e512929fc8ab08",
        "gas": "0x91aa",
        "value": "0x0",
        "input": "0xec3a4613000000000000000000000000b819a871d20913839c37f316dc914b0570bfc0eeb0487bdd3330b4d082e49dfc24e1aa23706abcc632f9215fee20a474a9a884570000000000000000000000000000000000000000000000000000000000000000",
        "nonce": "0x13e",
        "chainId": "0x1"
      },
      "additionalContracts": [],
      "isFixedGasLimit": false
    },
    {
      "hash": "0xe2a384b3026ef515b411e41785ff30abc769a29f34da4a99fcea37ea924f3272",
      "transactionType": "CALL",
      "contractName": "Roles",
      "contractAddress": "0x1211d07f0ebea8994f23ec26e1e512929fc8ab08",
      "function": "allowFor(address,bytes32,bool)",
      "arguments": [
        "0xB819A871d20913839c37f316Dc914b0570bfc0eE",
        "0xeefbfa32ce9dd99a431be27221a8732bc1e7b3d032ff4cbd56226b17783f7413",
        "false"
      ],
      "transaction": {
        "from": "0xb819a871d20913839c37f316dc914b0570bfc0ee",
        "to": "0x1211d07f0ebea8994f23ec26e1e512929fc8ab08",
        "gas": "0x91aa",
        "value": "0x0",
        "input": "0xec3a4613000000000000000000000000b819a871d20913839c37f316dc914b0570bfc0eeeefbfa32ce9dd99a431be27221a8732bc1e7b3d032ff4cbd56226b17783f74130000000000000000000000000000000000000000000000000000000000000000",
        "nonce": "0x13f",
        "chainId": "0x1"
      },
      "additionalContracts": [],
      "isFixedGasLimit": false
    },
    {
      "hash": "0x7795e7ea6e5433b0917d7f9ca26186c1d34e9178da0b7cc519bc4601a4e2b5da",
      "transactionType": "CALL",
      "contractName": "Roles",
      "contractAddress": "0x1211d07f0ebea8994f23ec26e1e512929fc8ab08",
      "function": "allowFor(address,bytes32,bool)",
      "arguments": [
        "0xB819A871d20913839c37f316Dc914b0570bfc0eE",
        "0xaa85d4d7655b58b3177edbbb41bc17f2e2ebffd26ace9d6b56244a5ee16c7806",
        "false"
      ],
      "transaction": {
        "from": "0xb819a871d20913839c37f316dc914b0570bfc0ee",
        "to": "0x1211d07f0ebea8994f23ec26e1e512929fc8ab08",
        "gas": "0x91aa",
        "value": "0x0",
        "input": "0xec3a4613000000000000000000000000b819a871d20913839c37f316dc914b0570bfc0eeaa85d4d7655b58b3177edbbb41bc17f2e2ebffd26ace9d6b56244a5ee16c78060000000000000000000000000000000000000000000000000000000000000000",
        "nonce": "0x140",
        "chainId": "0x1"
      },
      "additionalContracts": [],
      "isFixedGasLimit": false
    },
    {
      "hash": "0x2eab63304329563811e7455afd72620f74b562b590140733aa812171da36d98e",
      "transactionType": "CALL",
      "contractName": null,
      "contractAddress": "0x269c36a173d881720544fb303e681370158ff1fd",
      "function": "transferOwnership(address)",
      "arguments": [
        "0x91B945CbB063648C44271868a7A0c7BdFf64827D"
      ],
      "transaction": {
        "from": "0xb819a871d20913839c37f316dc914b0570bfc0ee",
        "to": "0x269c36a173d881720544fb303e681370158ff1fd",
        "gas": "0xb580",
        "value": "0x0",
        "input": "0xf2fde38b00000000000000000000000091b945cbb063648c44271868a7a0c7bdff64827d",
        "nonce": "0x141",
        "chainId": "0x1"
      },
      "additionalContracts": [],
      "isFixedGasLimit": false
    },
    {
      "hash": "0x216b864079395bcc2e244117cab831b9bd4d250ec227e37527201b6939bb978d",
      "transactionType": "CALL",
      "contractName": null,
      "contractAddress": "0xc7bc6bd45eb84d594f51ced3c5497e6812c7732f",
      "function": "transferOwnership(address)",
      "arguments": [
        "0x91B945CbB063648C44271868a7A0c7BdFf64827D"
      ],
      "transaction": {
        "from": "0xb819a871d20913839c37f316dc914b0570bfc0ee",
        "to": "0xc7bc6bd45eb84d594f51ced3c5497e6812c7732f",
        "gas": "0xb580",
        "value": "0x0",
        "input": "0xf2fde38b00000000000000000000000091b945cbb063648c44271868a7a0c7bdff64827d",
        "nonce": "0x142",
        "chainId": "0x1"
      },
      "additionalContracts": [],
      "isFixedGasLimit": false
    },
    {
      "hash": "0x457da42468974d472ab0fd38a66b6360c7a5e8555fb1654a48270d2bce832641",
      "transactionType": "CALL",
      "contractName": null,
      "contractAddress": "0xdf0635c1ecfdf08146150691a97e2ff6a8aa1a90",
      "function": "transferOwnership(address)",
      "arguments": [
        "0x91B945CbB063648C44271868a7A0c7BdFf64827D"
      ],
      "transaction": {
        "from": "0xb819a871d20913839c37f316dc914b0570bfc0ee",
        "to": "0xdf0635c1ecfdf08146150691a97e2ff6a8aa1a90",
        "gas": "0xb580",
        "value": "0x0",
        "input": "0xf2fde38b00000000000000000000000091b945cbb063648c44271868a7a0c7bdff64827d",
        "nonce": "0x143",
        "chainId": "0x1"
      },
      "additionalContracts": [],
      "isFixedGasLimit": false
    },
    {
      "hash": "0x60e23e1f472a757df362fdb4a285c61c321042ffdcc44d8ee4cf29cc244b31eb",
      "transactionType": "CALL",
      "contractName": null,
      "contractAddress": "0x2b588f7f4832561e46924f3ea54c244569724915",
      "function": "transferOwnership(address)",
      "arguments": [
        "0x91B945CbB063648C44271868a7A0c7BdFf64827D"
      ],
      "transaction": {
        "from": "0xb819a871d20913839c37f316dc914b0570bfc0ee",
        "to": "0x2b588f7f4832561e46924f3ea54c244569724915",
        "gas": "0xb580",
        "value": "0x0",
        "input": "0xf2fde38b00000000000000000000000091b945cbb063648c44271868a7a0c7bdff64827d",
        "nonce": "0x144",
        "chainId": "0x1"
      },
      "additionalContracts": [],
      "isFixedGasLimit": false
    },
    {
      "hash": "0x5c3a1065a6aeb7d292bee4afd720ae6339d699f45e2137d5ecd555bb67ec1f43",
      "transactionType": "CALL",
      "contractName": null,
      "contractAddress": "0x1d8e8cefeb085f3211ab6a443ad9051b54d1cd1a",
      "function": "transferOwnership(address)",
      "arguments": [
        "0x91B945CbB063648C44271868a7A0c7BdFf64827D"
      ],
      "transaction": {
        "from": "0xb819a871d20913839c37f316dc914b0570bfc0ee",
        "to": "0x1d8e8cefeb085f3211ab6a443ad9051b54d1cd1a",
        "gas": "0xb580",
        "value": "0x0",
        "input": "0xf2fde38b00000000000000000000000091b945cbb063648c44271868a7a0c7bdff64827d",
        "nonce": "0x145",
        "chainId": "0x1"
      },
      "additionalContracts": [],
      "isFixedGasLimit": false
    },
    {
      "hash": "0x80278452d47510a2315507ba43e3fd11ed4aa98de8fa42a5e68eb740515c226c",
      "transactionType": "CALL",
      "contractName": null,
      "contractAddress": "0x8bad0c523516262a439197736fff982f5e0987cc",
      "function": "transferOwnership(address)",
      "arguments": [
        "0x91B945CbB063648C44271868a7A0c7BdFf64827D"
      ],
      "transaction": {
        "from": "0xb819a871d20913839c37f316dc914b0570bfc0ee",
        "to": "0x8bad0c523516262a439197736fff982f5e0987cc",
        "gas": "0xb580",
        "value": "0x0",
        "input": "0xf2fde38b00000000000000000000000091b945cbb063648c44271868a7a0c7bdff64827d",
        "nonce": "0x146",
        "chainId": "0x1"
      },
      "additionalContracts": [],
      "isFixedGasLimit": false
    },
    {
      "hash": "0xd48abab71aec440bc3a5cdf3181dbcad35b1dce14252baad10a1534846c259cc",
      "transactionType": "CALL",
      "contractName": null,
      "contractAddress": "0x4df3dd62db219c47f6a7cb1be02c511afceadf5e",
      "function": "transferOwnership(address)",
      "arguments": [
        "0x91B945CbB063648C44271868a7A0c7BdFf64827D"
      ],
      "transaction": {
        "from": "0xb819a871d20913839c37f316dc914b0570bfc0ee",
        "to": "0x4df3dd62db219c47f6a7cb1be02c511afceadf5e",
        "gas": "0xb580",
        "value": "0x0",
        "input": "0xf2fde38b00000000000000000000000091b945cbb063648c44271868a7a0c7bdff64827d",
        "nonce": "0x147",
        "chainId": "0x1"
      },
      "additionalContracts": [],
      "isFixedGasLimit": false
    },
    {
      "hash": "0x2d2055419ddd826d6bc9056fbaaceb1dfafd1c5cad2a41a9288761ac4af1f5d3",
      "transactionType": "CALL",
      "contractName": "ZkVerifier",
      "contractAddress": "0xe32fc580e6e3f6f5947bc2d900062dce019f375f",
      "function": "transferOwnership(address)",
      "arguments": [
        "0x91B945CbB063648C44271868a7A0c7BdFf64827D"
      ],
      "transaction": {
        "from": "0xb819a871d20913839c37f316dc914b0570bfc0ee",
        "to": "0xe32fc580e6e3f6f5947bc2d900062dce019f375f",
        "gas": "0x9a49",
        "value": "0x0",
        "input": "0xf2fde38b00000000000000000000000091b945cbb063648c44271868a7a0c7bdff64827d",
        "nonce": "0x148",
        "chainId": "0x1"
      },
      "additionalContracts": [],
      "isFixedGasLimit": false
    },
    {
      "hash": "0x54d8a61693ccf9889ba4bb260ccd050046223d0e3b88494a08f90357237f4911",
      "transactionType": "CALL",
      "contractName": "Pauser",
      "contractAddress": "0xddcca3eda77622b7ff5b7f11b340a8f818a87d2c",
      "function": "transferOwnership(address)",
      "arguments": [
        "0x91B945CbB063648C44271868a7A0c7BdFf64827D"
      ],
      "transaction": {
        "from": "0xb819a871d20913839c37f316dc914b0570bfc0ee",
        "to": "0xddcca3eda77622b7ff5b7f11b340a8f818a87d2c",
        "gas": "0x9a97",
        "value": "0x0",
        "input": "0xf2fde38b00000000000000000000000091b945cbb063648c44271868a7a0c7bdff64827d",
        "nonce": "0x149",
        "chainId": "0x1"
      },
      "additionalContracts": [],
      "isFixedGasLimit": false
    },
    {
      "hash": "0xb3e1249b8bedf9928e907fada4631d2dd2e033c5dabbdc455a51010b5dc7aa2d",
      "transactionType": "CALL",
      "contractName": "Roles",
      "contractAddress": "0x1211d07f0ebea8994f23ec26e1e512929fc8ab08",
      "function": "transferOwnership(address)",
      "arguments": [
        "0x91B945CbB063648C44271868a7A0c7BdFf64827D"
      ],
      "transaction": {
        "from": "0xb819a871d20913839c37f316dc914b0570bfc0ee",
        "to": "0x1211d07f0ebea8994f23ec26e1e512929fc8ab08",
        "gas": "0xa3d0",
        "value": "0x0",
        "input": "0xf2fde38b00000000000000000000000091b945cbb063648c44271868a7a0c7bdff64827d",
        "nonce": "0x14a",
        "chainId": "0x1"
      },
      "additionalContracts": [],
      "isFixedGasLimit": false
    },
    {
      "hash": "0xd17e2c26d2022d90d08f5b709e37cc27e9b94ddc8ee47f7e1cb2e674f4fd6102",
      "transactionType": "CALL",
      "contractName": "BatchSubmitter",
      "contractAddress": "0x04f0cdc5a215dedf6a1ed5444e07367e20768041",
      "function": "transferOwnership(address)",
      "arguments": [
        "0x91B945CbB063648C44271868a7A0c7BdFf64827D"
      ],
      "transaction": {
        "from": "0xb819a871d20913839c37f316dc914b0570bfc0ee",
        "to": "0x04f0cdc5a215dedf6a1ed5444e07367e20768041",
        "gas": "0x9a49",
        "value": "0x0",
        "input": "0xf2fde38b00000000000000000000000091b945cbb063648c44271868a7a0c7bdff64827d",
        "nonce": "0x14b",
        "chainId": "0x1"
      },
      "additionalContracts": [],
      "isFixedGasLimit": false
    }
  ],
  "receipts": [
    {
      "status": "0x1",
      "cumulativeGasUsed": "0xd25db7",
      "logs": [
        {
          "address": "0x1211d07f0ebea8994f23ec26e1e512929fc8ab08",
          "topics": [
            "0xbf768a8bd7016d5df999ce7e5dcbd90856578a89eb68c5a1d5fc1d4a3360107e",
            "0x000000000000000000000000f8b6314e66ea3e4b62e229fa5f5f052058618404",
            "0x4b1cf52f49d174a2779824195ac83ffb0173882d2de2b8017a7a2ad31efa9bac"
          ],
          "data": "0x0000000000000000000000000000000000000000000000000000000000000001",
          "blockHash": "0x13f6b91bf82cab9a753d91ef72c265f93a2fa728ff1b27e0029127217f9a10b3",
          "blockNumber": "0x1587547",
          "blockTimestamp": "0x6835bd8b",
          "transactionHash": "0x096fe23abbd2c50b6e9984370d0decc63ce84b047a36caf0e17818f629ec2965",
          "transactionIndex": "0x8a",
          "logIndex": "0x14d",
          "removed": false
        }
      ],
      "logsBloom": "0x00000000000000000004000000000200000000000000000000000000000000000000000000000040000000000000080000000000002000000000000000000000000000000000000000000000010000000000000000000000000000000000000000008000000000000000000000000000000000000000000000400000000000000000000000000000000000000000000000000000000000000000000000000000000000000000000000000000000002000000000000000000000000000000000000000000000000002000000000000000002000010000000000000000000000000000000000000000000000000000000000000000000000000000000000000000",
      "type": "0x2",
      "transactionHash": "0x096fe23abbd2c50b6e9984370d0decc63ce84b047a36caf0e17818f629ec2965",
      "transactionIndex": "0x8a",
      "blockHash": "0x13f6b91bf82cab9a753d91ef72c265f93a2fa728ff1b27e0029127217f9a10b3",
      "blockNumber": "0x1587547",
      "gasUsed": "0xbf0e",
      "effectiveGasPrice": "0x30e2778fd",
      "from": "0xb819a871d20913839c37f316dc914b0570bfc0ee",
      "to": "0x1211d07f0ebea8994f23ec26e1e512929fc8ab08",
      "contractAddress": null
    },
    {
      "status": "0x1",
      "cumulativeGasUsed": "0xea2df7",
      "logs": [
        {
          "address": "0x1211d07f0ebea8994f23ec26e1e512929fc8ab08",
          "topics": [
            "0xbf768a8bd7016d5df999ce7e5dcbd90856578a89eb68c5a1d5fc1d4a3360107e",
            "0x00000000000000000000000091b945cbb063648c44271868a7a0c7bdff64827d",
            "0x4b1cf52f49d174a2779824195ac83ffb0173882d2de2b8017a7a2ad31efa9bac"
          ],
          "data": "0x0000000000000000000000000000000000000000000000000000000000000001",
          "blockHash": "0x903e69bca43dbbdf134f35d82b3f0b1bd31e7d267cf1a17c36ef14ec970c1fc1",
          "blockNumber": "0x1587548",
          "blockTimestamp": "0x6835bd97",
          "transactionHash": "0xf2cf0d3868fb55ae4a703c1de8edc38394453ea725ca2a8c485cdfa6abe96c94",
          "transactionIndex": "0x9c",
          "logIndex": "0x157",
          "removed": false
        }
      ],
      "logsBloom": "0x00000000000000000004000000000200000000000000000000000000000000000000000000000040000000000000080000000000000000000000000000000000000000000000000000000000010000000000100000000000000000000000000000000000000000000000000000000000000000000000000000400000000400000000000000000000000000004000000000000000000000000000000000000000000000000000000000000000000002000000000000000000000000000000000000000000000000000000000000000000002000010000000000000000000000000000000000000000000000000000000000000000000000000000000000000000",
      "type": "0x2",
      "transactionHash": "0xf2cf0d3868fb55ae4a703c1de8edc38394453ea725ca2a8c485cdfa6abe96c94",
      "transactionIndex": "0x9c",
      "blockHash": "0x903e69bca43dbbdf134f35d82b3f0b1bd31e7d267cf1a17c36ef14ec970c1fc1",
      "blockNumber": "0x1587548",
      "gasUsed": "0xbf0e",
      "effectiveGasPrice": "0x3035b70cb",
      "from": "0xb819a871d20913839c37f316dc914b0570bfc0ee",
      "to": "0x1211d07f0ebea8994f23ec26e1e512929fc8ab08",
      "contractAddress": null
    },
    {
      "status": "0x1",
      "cumulativeGasUsed": "0xccbd13",
      "logs": [
        {
          "address": "0x1211d07f0ebea8994f23ec26e1e512929fc8ab08",
          "topics": [
            "0xbf768a8bd7016d5df999ce7e5dcbd90856578a89eb68c5a1d5fc1d4a3360107e",
            "0x00000000000000000000000091b945cbb063648c44271868a7a0c7bdff64827d",
            "0xaeffe8a027d13ff1f9fbecaa8f7fc0ff2c5c5d71561a1a572f6bafeeba68abfd"
          ],
          "data": "0x0000000000000000000000000000000000000000000000000000000000000001",
          "blockHash": "0x2c97d2990505fb77fe66a2e6efd7d16c6ac06e0148d7f9dd5815084115c62f3b",
          "blockNumber": "0x1587549",
          "blockTimestamp": "0x6835bda3",
          "transactionHash": "0x5892f66ef1de091d8663a86fcde6aa8e2926867a8825680e0a0552f08e08992b",
          "transactionIndex": "0x9f",
          "logIndex": "0x159",
          "removed": false
        }
      ],
      "logsBloom": "0x00000000000000000004000000000200000000000000000000000000000000000000000000000040000000000000080000100000000000000000000000000000000000000040000000000000000000000000100000400000000000000000000000000000000000000000000000000000000000000000000000400000000400000000000000000000000000004000000000000000000000000000000000000000000000000000000000000000000000000000000000000000000000000000000000000000000000000000000000000000000000010000000000000000000000000000000000000000000000000000000000000000000000000000000000000000",
      "type": "0x2",
      "transactionHash": "0x5892f66ef1de091d8663a86fcde6aa8e2926867a8825680e0a0552f08e08992b",
      "transactionIndex": "0x9f",
      "blockHash": "0x2c97d2990505fb77fe66a2e6efd7d16c6ac06e0148d7f9dd5815084115c62f3b",
      "blockNumber": "0x1587549",
      "gasUsed": "0xbf0e",
      "effectiveGasPrice": "0x3191bbe4d",
      "from": "0xb819a871d20913839c37f316dc914b0570bfc0ee",
      "to": "0x1211d07f0ebea8994f23ec26e1e512929fc8ab08",
      "contractAddress": null
    },
    {
      "status": "0x1",
      "cumulativeGasUsed": "0xed3333",
      "logs": [
        {
          "address": "0x1211d07f0ebea8994f23ec26e1e512929fc8ab08",
          "topics": [
            "0xbf768a8bd7016d5df999ce7e5dcbd90856578a89eb68c5a1d5fc1d4a3360107e",
            "0x00000000000000000000000091b945cbb063648c44271868a7a0c7bdff64827d",
            "0xc8e17e1f507bc6ac21ffd444ba9d6c9d6ea2defdac21571990ea0eb8bcde3a24"
          ],
          "data": "0x0000000000000000000000000000000000000000000000000000000000000001",
          "blockHash": "0x0ff533331d7002f92200540a11eead2986e2c5fd3f50bb0df036b488e22b316f",
          "blockNumber": "0x158754a",
          "blockTimestamp": "0x6835bdaf",
          "transactionHash": "0x54edf7a6bd2e44fc2fcc43b312197606410847a6d01dc0c30f8ba5b5bc5f5048",
          "transactionIndex": "0xa0",
          "logIndex": "0x184",
          "removed": false
        }
      ],
      "logsBloom": "0x00000000000000000004000000000200000000000000000000000000000000000000020000000040000000000000080000000000000000000000000000000000000000000000000000000000000000000000100000000000000000000000000000000000000000000000000000000008000000000000000000400000000400000000000000000000000000004000000000000000000000000000000000000000000000000400000000000000000000000000000000000000000000000000000000000000000000000000000000000000000000010000000000000000000000000000000000000000000000000000000000000000000000000000000000000000",
      "type": "0x2",
      "transactionHash": "0x54edf7a6bd2e44fc2fcc43b312197606410847a6d01dc0c30f8ba5b5bc5f5048",
      "transactionIndex": "0xa0",
      "blockHash": "0x0ff533331d7002f92200540a11eead2986e2c5fd3f50bb0df036b488e22b316f",
      "blockNumber": "0x158754a",
      "gasUsed": "0xbf0e",
      "effectiveGasPrice": "0x30d353797",
      "from": "0xb819a871d20913839c37f316dc914b0570bfc0ee",
      "to": "0x1211d07f0ebea8994f23ec26e1e512929fc8ab08",
      "contractAddress": null
    },
    {
      "status": "0x1",
      "cumulativeGasUsed": "0x8fed55",
      "logs": [
        {
          "address": "0x1211d07f0ebea8994f23ec26e1e512929fc8ab08",
          "topics": [
            "0xbf768a8bd7016d5df999ce7e5dcbd90856578a89eb68c5a1d5fc1d4a3360107e",
            "0x00000000000000000000000091b945cbb063648c44271868a7a0c7bdff64827d",
            "0xcf3889b3d647b5db8c87e0e05aca2acdd693a72c71726764f2198ee27a21c728"
          ],
          "data": "0x0000000000000000000000000000000000000000000000000000000000000001",
          "blockHash": "0x6fe73eaa55f526367cdb404f740d1866c91a0993d7241acdce33fc0a3554d288",
          "blockNumber": "0x158754b",
          "blockTimestamp": "0x6835bdbb",
          "transactionHash": "0xd0ed85748e540a761c37c28d28c68e961c30d4b73cbb515d00b3d16f1744369d",
          "transactionIndex": "0x87",
          "logIndex": "0xe5",
          "removed": false
        }
      ],
      "logsBloom": "0x00000000000000000004000000000200000000000000000000000000000008000000000000000040000000000000080000000000000000000000000000000000000000000000000000000000000000000000100000000000000000000000000000000000000000000000000000000000000000000000000000400000000400000000000000000800000000004000000000000000000000000000000000000000000000000000000000000000000000000000000000000000000000000000000000000000000000000000000002000000000000010000000000000000000000000000000000000000000000000000000000000000000000000000000000000000",
      "type": "0x2",
      "transactionHash": "0xd0ed85748e540a761c37c28d28c68e961c30d4b73cbb515d00b3d16f1744369d",
      "transactionIndex": "0x87",
      "blockHash": "0x6fe73eaa55f526367cdb404f740d1866c91a0993d7241acdce33fc0a3554d288",
      "blockNumber": "0x158754b",
      "gasUsed": "0xbf0e",
      "effectiveGasPrice": "0x30fb9cb7a",
      "from": "0xb819a871d20913839c37f316dc914b0570bfc0ee",
      "to": "0x1211d07f0ebea8994f23ec26e1e512929fc8ab08",
      "contractAddress": null
    },
    {
      "status": "0x1",
      "cumulativeGasUsed": "0x9b94f8",
      "logs": [
        {
          "address": "0x1211d07f0ebea8994f23ec26e1e512929fc8ab08",
          "topics": [
            "0xbf768a8bd7016d5df999ce7e5dcbd90856578a89eb68c5a1d5fc1d4a3360107e",
            "0x00000000000000000000000091b945cbb063648c44271868a7a0c7bdff64827d",
            "0x79bb2eff4b96ce24cc809a1642a7365c4980ebeb15be2580a619e03726e41a98"
          ],
          "data": "0x0000000000000000000000000000000000000000000000000000000000000001",
          "blockHash": "0xbb7722e9a97dc6e8123535d6ca79fad1374238ff6ea36201dd21e5dd08a02aad",
          "blockNumber": "0x158754c",
          "blockTimestamp": "0x6835bdc7",
          "transactionHash": "0x885e2287c7b65cd7d241e65b3af2bd19ca030f679322dd2386a9d008acb50c17",
          "transactionIndex": "0xad",
          "logIndex": "0xfb",
          "removed": false
        }
      ],
      "logsBloom": "0x00000000000000000004000000000200000000000000000000000000000000000000000000000040000000000000080000000000000000000000000000000000000000000000000000000000000000000000100000000000000000000000000000000000000000000000000000000000000000000000001000400000000400000000000000000000000000004000000000000000000000000000000000000000000000000000000000000000000000000000000000000000000000000000000000800000000000000000000000000008000000010000000000000000000000000000000000000000000000000000000000000000000000000000000000000000",
      "type": "0x2",
      "transactionHash": "0x885e2287c7b65cd7d241e65b3af2bd19ca030f679322dd2386a9d008acb50c17",
      "transactionIndex": "0xad",
      "blockHash": "0xbb7722e9a97dc6e8123535d6ca79fad1374238ff6ea36201dd21e5dd08a02aad",
      "blockNumber": "0x158754c",
      "gasUsed": "0xbf0e",
      "effectiveGasPrice": "0x2eb9b9ee6",
      "from": "0xb819a871d20913839c37f316dc914b0570bfc0ee",
      "to": "0x1211d07f0ebea8994f23ec26e1e512929fc8ab08",
      "contractAddress": null
    },
    {
      "status": "0x1",
      "cumulativeGasUsed": "0x1633a0f",
      "logs": [
        {
          "address": "0x1211d07f0ebea8994f23ec26e1e512929fc8ab08",
          "topics": [
            "0xbf768a8bd7016d5df999ce7e5dcbd90856578a89eb68c5a1d5fc1d4a3360107e",
            "0x00000000000000000000000091b945cbb063648c44271868a7a0c7bdff64827d",
            "0x3e008573b76fa95febaab72c06ec152363f92f2b27dcaf00fbd0bb77a70593db"
          ],
          "data": "0x0000000000000000000000000000000000000000000000000000000000000001",
          "blockHash": "0xd8cb60fcfeeea8d4ccdbb1ed40da2621c849e0cf4423f123a3dd824b78e8fb9f",
          "blockNumber": "0x158754d",
          "blockTimestamp": "0x6835bdd3",
          "transactionHash": "0xab2ff8bdab4d6e9fb82cfed961bec5009bede20a68ebb48ba03ac22e481ad8d9",
          "transactionIndex": "0xfa",
          "logIndex": "0x229",
          "removed": false
        }
      ],
      "logsBloom": "0x00000000000000000004000000000200000000000000000000000000000000000000000000000040000000000000080000000000000000000000000000000000100000000000000000000000000000000000100000000000000000000000000000000000000000000000000000000000000000000000000000400000000400000000000000000000000000004000000000000000000000000000000000000000000000000000000000000000000000200000000000000000000000000000000000000000000000000000000000000000000000010000000000000000000000000000000000000000000000004000000000000000000000000000000000000000",
      "type": "0x2",
      "transactionHash": "0xab2ff8bdab4d6e9fb82cfed961bec5009bede20a68ebb48ba03ac22e481ad8d9",
      "transactionIndex": "0xfa",
      "blockHash": "0xd8cb60fcfeeea8d4ccdbb1ed40da2621c849e0cf4423f123a3dd824b78e8fb9f",
      "blockNumber": "0x158754d",
      "gasUsed": "0xbef6",
      "effectiveGasPrice": "0x2cf9aed41",
      "from": "0xb819a871d20913839c37f316dc914b0570bfc0ee",
      "to": "0x1211d07f0ebea8994f23ec26e1e512929fc8ab08",
      "contractAddress": null
    },
    {
      "status": "0x1",
      "cumulativeGasUsed": "0xe2e38c",
      "logs": [
        {
          "address": "0x1211d07f0ebea8994f23ec26e1e512929fc8ab08",
          "topics": [
            "0xbf768a8bd7016d5df999ce7e5dcbd90856578a89eb68c5a1d5fc1d4a3360107e",
            "0x00000000000000000000000091b945cbb063648c44271868a7a0c7bdff64827d",
            "0x46c2ab528350fb4f59e61eb6c0382446a3636f13f7846680a2734e5f829735a4"
          ],
          "data": "0x0000000000000000000000000000000000000000000000000000000000000001",
          "blockHash": "0xed0a079261ca083eb095b1b35cfb33bb0611183f58ca7950a73f7ea52f644bdd",
          "blockNumber": "0x158754e",
          "blockTimestamp": "0x6835bddf",
          "transactionHash": "0xc59cb043dba72b4c42e8d38d1a97447bafeb00d71e517efd4c8458cb76d69337",
          "transactionIndex": "0xa7",
          "logIndex": "0x16a",
          "removed": false
        }
      ],
      "logsBloom": "0x00000000000000200004000000000200000000000000000000000000000000000000000000000040000000000000080004000000000000000000000000000000000000000000000000000000000000000000100000000000000000000000000000000000000000000000000000000000000000000000000000400000000400000000000000000000000000004000000000000000000000000000000000000000000000000000000000000000000000000000000000000000000000000000000000000000000000000000000000000000000000010000000000000000000000400000000000000000000000000000000000000000000000000000000000000000",
      "type": "0x2",
      "transactionHash": "0xc59cb043dba72b4c42e8d38d1a97447bafeb00d71e517efd4c8458cb76d69337",
      "transactionIndex": "0xa7",
      "blockHash": "0xed0a079261ca083eb095b1b35cfb33bb0611183f58ca7950a73f7ea52f644bdd",
      "blockNumber": "0x158754e",
      "gasUsed": "0xbf0e",
      "effectiveGasPrice": "0x2fa1f53b7",
      "from": "0xb819a871d20913839c37f316dc914b0570bfc0ee",
      "to": "0x1211d07f0ebea8994f23ec26e1e512929fc8ab08",
      "contractAddress": null
    },
    {
      "status": "0x1",
      "cumulativeGasUsed": "0x10d7fa9",
      "logs": [
        {
          "address": "0x1211d07f0ebea8994f23ec26e1e512929fc8ab08",
          "topics": [
            "0xbf768a8bd7016d5df999ce7e5dcbd90856578a89eb68c5a1d5fc1d4a3360107e",
            "0x00000000000000000000000091b945cbb063648c44271868a7a0c7bdff64827d",
            "0xb0487bdd3330b4d082e49dfc24e1aa23706abcc632f9215fee20a474a9a88457"
          ],
          "data": "0x0000000000000000000000000000000000000000000000000000000000000001",
          "blockHash": "0x1a94fea8ef63bd577277e97016d386988e694b7790b5f08a344857810aa54365",
          "blockNumber": "0x158754f",
          "blockTimestamp": "0x6835bdeb",
          "transactionHash": "0xd4cfc74dd58d2817f787b2e5ba1937e8f2e93f4b6e756503ee4351b2b18724a7",
          "transactionIndex": "0xba",
          "logIndex": "0x1b8",
          "removed": false
        }
      ],
      "logsBloom": "0x00000000000000000004000000000200000000000000000000000000000000000000000000000040000000000000080000000000000000000000000000000000000000000000000000000000000000000000100000000000100000000000000000000000000000000000000000000000000000000000000000400000000400000000000000000000000000004000000000000000000000000000000000040000400000000000000000000000000000000000000000000000000000000000000000000000000000000000000000000000000000010000000000000000000000000000000000000000000000000000000000000000000000000000000000000000",
      "type": "0x2",
      "transactionHash": "0xd4cfc74dd58d2817f787b2e5ba1937e8f2e93f4b6e756503ee4351b2b18724a7",
      "transactionIndex": "0xba",
      "blockHash": "0x1a94fea8ef63bd577277e97016d386988e694b7790b5f08a344857810aa54365",
      "blockNumber": "0x158754f",
      "gasUsed": "0xbf0e",
      "effectiveGasPrice": "0x2f0098632",
      "from": "0xb819a871d20913839c37f316dc914b0570bfc0ee",
      "to": "0x1211d07f0ebea8994f23ec26e1e512929fc8ab08",
      "contractAddress": null
    },
    {
      "status": "0x1",
      "cumulativeGasUsed": "0xb3c38d",
      "logs": [
        {
          "address": "0x1211d07f0ebea8994f23ec26e1e512929fc8ab08",
          "topics": [
            "0xbf768a8bd7016d5df999ce7e5dcbd90856578a89eb68c5a1d5fc1d4a3360107e",
            "0x00000000000000000000000091b945cbb063648c44271868a7a0c7bdff64827d",
            "0xeefbfa32ce9dd99a431be27221a8732bc1e7b3d032ff4cbd56226b17783f7413"
          ],
          "data": "0x0000000000000000000000000000000000000000000000000000000000000001",
          "blockHash": "0x5faf1319e14b5821ef93c5233ef70559a5e7f726a6df27eec7cc6537d2f37821",
          "blockNumber": "0x1587550",
          "blockTimestamp": "0x6835bdf7",
          "transactionHash": "0x29088a269db8ebb7d5c8309741c932d2b34bde963acb4eac39ee029614b6ef15",
          "transactionIndex": "0x85",
          "logIndex": "0x12b",
          "removed": false
        }
      ],
      "logsBloom": "0x00000000000000000004000000000200000000000000000000000000000000000000000000000040000000000000080000000000000000000000000000000000000000000000000000000100000000000000100000000000000000000000000000000000000000000000000000000000000000000000000000400000000400800000000000000000000000004000000000000000000000000000000000000000000000000000000000000000000000000000000000000000000000000000000000000000000000000000000000000000000000010000000000000000000000000000000000000000000000000000000000000000000400000000000000000000",
      "type": "0x2",
      "transactionHash": "0x29088a269db8ebb7d5c8309741c932d2b34bde963acb4eac39ee029614b6ef15",
      "transactionIndex": "0x85",
      "blockHash": "0x5faf1319e14b5821ef93c5233ef70559a5e7f726a6df27eec7cc6537d2f37821",
      "blockNumber": "0x1587550",
      "gasUsed": "0xbf0e",
      "effectiveGasPrice": "0x30485d8ed",
      "from": "0xb819a871d20913839c37f316dc914b0570bfc0ee",
      "to": "0x1211d07f0ebea8994f23ec26e1e512929fc8ab08",
      "contractAddress": null
    },
    {
      "status": "0x1",
      "cumulativeGasUsed": "0xab76da",
      "logs": [
        {
          "address": "0x1211d07f0ebea8994f23ec26e1e512929fc8ab08",
          "topics": [
            "0xbf768a8bd7016d5df999ce7e5dcbd90856578a89eb68c5a1d5fc1d4a3360107e",
            "0x00000000000000000000000091b945cbb063648c44271868a7a0c7bdff64827d",
            "0xaa85d4d7655b58b3177edbbb41bc17f2e2ebffd26ace9d6b56244a5ee16c7806"
          ],
          "data": "0x0000000000000000000000000000000000000000000000000000000000000001",
          "blockHash": "0x1180267a7cc272d04cef4ce86bb82942896dc635b9ab302096d7191e34461e32",
          "blockNumber": "0x1587551",
          "blockTimestamp": "0x6835be03",
          "transactionHash": "0x21975971c6618545bab45db24977cd3f3f8d3bc49f4f70e62c1adee311b6fb6f",
          "transactionIndex": "0x7c",
          "logIndex": "0x12d",
          "removed": false
        }
      ],
      "logsBloom": "0x00000000000000000006000000000200000000000000000000000000000000000000000000000040000000000000080000000000000000000000000000000000000000000000000000000000000000000000100000000000000000000000000000000000000000000000000000000000000000000000000000400000000400000000000000000000000000004000000000000000000000000000000000000000000000000000000000000000000000000000000000000000000000000000000000000000000000000000000000200000000000010000000000000000000000000000000000000000000000000000000000008000000000000000000000000000",
      "type": "0x2",
      "transactionHash": "0x21975971c6618545bab45db24977cd3f3f8d3bc49f4f70e62c1adee311b6fb6f",
      "transactionIndex": "0x7c",
      "blockHash": "0x1180267a7cc272d04cef4ce86bb82942896dc635b9ab302096d7191e34461e32",
      "blockNumber": "0x1587551",
      "gasUsed": "0xbf0e",
      "effectiveGasPrice": "0x2efca45d6",
      "from": "0xb819a871d20913839c37f316dc914b0570bfc0ee",
      "to": "0x1211d07f0ebea8994f23ec26e1e512929fc8ab08",
      "contractAddress": null
    },
    {
      "status": "0x1",
      "cumulativeGasUsed": "0xe97781",
      "logs": [
        {
          "address": "0x1211d07f0ebea8994f23ec26e1e512929fc8ab08",
          "topics": [
            "0xbf768a8bd7016d5df999ce7e5dcbd90856578a89eb68c5a1d5fc1d4a3360107e",
            "0x000000000000000000000000b819a871d20913839c37f316dc914b0570bfc0ee",
            "0x4b1cf52f49d174a2779824195ac83ffb0173882d2de2b8017a7a2ad31efa9bac"
          ],
          "data": "0x0000000000000000000000000000000000000000000000000000000000000000",
          "blockHash": "0xd94fd5933fce33e44c39da8a3ef8678720fa6d452da734a7a282e01bd5016677",
          "blockNumber": "0x1587552",
          "blockTimestamp": "0x6835be0f",
          "transactionHash": "0x6ab5b05d4cd5802d4b93aa2e9fef9e650482ebd11f0c81e736ca9ead19e567e0",
          "transactionIndex": "0xb2",
          "logIndex": "0x179",
          "removed": false
        }
      ],
      "logsBloom": "0x00000000000000000004000000000200000000000000000000000000000000000000000000000040000000000000080000000000000000000000000000000002000000000080000000000000010000000000000000000000000000000000000000000000000000000000000000000000000000000000000000400000000000000000000000000000000000000000000000000000000000000000000000000000000000000000000000000000000002000000000000000000000000000000000000000000000000000000000000000000002000010000000000000200000000000000000000000000000000000000000000000000000000000000000000000000",
      "type": "0x2",
      "transactionHash": "0x6ab5b05d4cd5802d4b93aa2e9fef9e650482ebd11f0c81e736ca9ead19e567e0",
      "transactionIndex": "0xb2",
      "blockHash": "0xd94fd5933fce33e44c39da8a3ef8678720fa6d452da734a7a282e01bd5016677",
      "blockNumber": "0x1587552",
      "gasUsed": "0x6976",
      "effectiveGasPrice": "0x2e5b7efb2",
      "from": "0xb819a871d20913839c37f316dc914b0570bfc0ee",
      "to": "0x1211d07f0ebea8994f23ec26e1e512929fc8ab08",
      "contractAddress": null
    },
    {
      "status": "0x1",
      "cumulativeGasUsed": "0xe135f6",
      "logs": [
        {
          "address": "0x1211d07f0ebea8994f23ec26e1e512929fc8ab08",
          "topics": [
            "0xbf768a8bd7016d5df999ce7e5dcbd90856578a89eb68c5a1d5fc1d4a3360107e",
            "0x000000000000000000000000b819a871d20913839c37f316dc914b0570bfc0ee",
            "0xaeffe8a027d13ff1f9fbecaa8f7fc0ff2c5c5d71561a1a572f6bafeeba68abfd"
          ],
          "data": "0x0000000000000000000000000000000000000000000000000000000000000000",
          "blockHash": "0x07481bf2a33be9eff4bc64572166d034208cf555a58538d5cc3bb262ce233a9d",
          "blockNumber": "0x1587553",
          "blockTimestamp": "0x6835be1b",
          "transactionHash": "0x62d1e1228e1682c7b5648fe9c89570dd66c8b17f08e33c45121e9228b1850f99",
          "transactionIndex": "0x82",
          "logIndex": "0x1b8",
          "removed": false
        }
      ],
      "logsBloom": "0x000000000000000000040000000002000000000000000000000000000000000000000000000000400000000000000800001000000000000000000000000000020000000000c0000000000000000000000000000000400000000000000000000000000000000000000000000000000000000000000000000000400000000000000000000000000000000000000000000000000000000000000000000000000000000000000000000000000000000000000000000000000000000000000000000000000000000000000000000000000000000000010000000000000200000000000000000000000000000000000000000000000000000000000000000000000000",
      "type": "0x2",
      "transactionHash": "0x62d1e1228e1682c7b5648fe9c89570dd66c8b17f08e33c45121e9228b1850f99",
      "transactionIndex": "0x82",
      "blockHash": "0x07481bf2a33be9eff4bc64572166d034208cf555a58538d5cc3bb262ce233a9d",
      "blockNumber": "0x1587553",
      "gasUsed": "0x6976",
      "effectiveGasPrice": "0x2dc6e66e1",
      "from": "0xb819a871d20913839c37f316dc914b0570bfc0ee",
      "to": "0x1211d07f0ebea8994f23ec26e1e512929fc8ab08",
      "contractAddress": null
    },
    {
      "status": "0x1",
      "cumulativeGasUsed": "0xd17463",
      "logs": [
        {
          "address": "0x1211d07f0ebea8994f23ec26e1e512929fc8ab08",
          "topics": [
            "0xbf768a8bd7016d5df999ce7e5dcbd90856578a89eb68c5a1d5fc1d4a3360107e",
            "0x000000000000000000000000b819a871d20913839c37f316dc914b0570bfc0ee",
            "0xc8e17e1f507bc6ac21ffd444ba9d6c9d6ea2defdac21571990ea0eb8bcde3a24"
          ],
          "data": "0x0000000000000000000000000000000000000000000000000000000000000000",
          "blockHash": "0x3732734b859dafb2b9fc86b51c7dad9ea1c911441bf9c5282fb9178775211e1f",
          "blockNumber": "0x1587554",
          "blockTimestamp": "0x6835be27",
          "transactionHash": "0xff67b807ab16fbd3409c4f25cc47eaf482800e7738bb6f7f1e59c03e02313601",
          "transactionIndex": "0x96",
          "logIndex": "0x185",
          "removed": false
        }
      ],
      "logsBloom": "0x00000000000000000004000000000200000000000000000000000000000000000000020000000040000000000000080000000000000000000000000000000002000000000080000000000000000000000000000000000000000000000000000000000000000000000000000000000008000000000000000000400000000000000000000000000000000000000000000000000000000000000000000000000000000000000400000000000000000000000000000000000000000000000000000000000000000000000000000000000000000000010000000000000200000000000000000000000000000000000000000000000000000000000000000000000000",
      "type": "0x2",
      "transactionHash": "0xff67b807ab16fbd3409c4f25cc47eaf482800e7738bb6f7f1e59c03e02313601",
      "transactionIndex": "0x96",
      "blockHash": "0x3732734b859dafb2b9fc86b51c7dad9ea1c911441bf9c5282fb9178775211e1f",
      "blockNumber": "0x1587554",
      "gasUsed": "0x6976",
      "effectiveGasPrice": "0x2d335d2a2",
      "from": "0xb819a871d20913839c37f316dc914b0570bfc0ee",
      "to": "0x1211d07f0ebea8994f23ec26e1e512929fc8ab08",
      "contractAddress": null
    },
    {
      "status": "0x1",
      "cumulativeGasUsed": "0x13e8bd9",
      "logs": [
        {
          "address": "0x1211d07f0ebea8994f23ec26e1e512929fc8ab08",
          "topics": [
            "0xbf768a8bd7016d5df999ce7e5dcbd90856578a89eb68c5a1d5fc1d4a3360107e",
            "0x000000000000000000000000b819a871d20913839c37f316dc914b0570bfc0ee",
            "0xcf3889b3d647b5db8c87e0e05aca2acdd693a72c71726764f2198ee27a21c728"
          ],
          "data": "0x0000000000000000000000000000000000000000000000000000000000000000",
          "blockHash": "0x08a86a76ccf5f5e09262a8d8f8d4e9996ecaaf2044c922b48228cae9e98a2819",
          "blockNumber": "0x1587555",
          "blockTimestamp": "0x6835be33",
          "transactionHash": "0x3d410711034a016eb3b550aca60ced811d6c6a229db39054339d07b98d0a8339",
          "transactionIndex": "0xe0",
          "logIndex": "0x1e2",
          "removed": false
        }
      ],
      "logsBloom": "0x00000000000000000004000000000200000000000000000000000000000008000000000000000040000000000000080000000000000000000000000000000002000000000080000000000000000000000000000000000000000000000000000000000000000000000000000000000000000000000000000000400000000000000000000000000800000000000000000000000000000000000000000000000000000000000000000000000000000000000000000000000000000000000000000000000000000000000000000002000000000000010000000000000200000000000000000000000000000000000000000000000000000000000000000000000000",
      "type": "0x2",
      "transactionHash": "0x3d410711034a016eb3b550aca60ced811d6c6a229db39054339d07b98d0a8339",
      "transactionIndex": "0xe0",
      "blockHash": "0x08a86a76ccf5f5e09262a8d8f8d4e9996ecaaf2044c922b48228cae9e98a2819",
      "blockNumber": "0x1587555",
      "gasUsed": "0x6976",
      "effectiveGasPrice": "0x2c2196c8c",
      "from": "0xb819a871d20913839c37f316dc914b0570bfc0ee",
      "to": "0x1211d07f0ebea8994f23ec26e1e512929fc8ab08",
      "contractAddress": null
    },
    {
      "status": "0x1",
      "cumulativeGasUsed": "0x1297100",
      "logs": [
        {
          "address": "0x1211d07f0ebea8994f23ec26e1e512929fc8ab08",
          "topics": [
            "0xbf768a8bd7016d5df999ce7e5dcbd90856578a89eb68c5a1d5fc1d4a3360107e",
            "0x000000000000000000000000b819a871d20913839c37f316dc914b0570bfc0ee",
            "0x3e008573b76fa95febaab72c06ec152363f92f2b27dcaf00fbd0bb77a70593db"
          ],
          "data": "0x0000000000000000000000000000000000000000000000000000000000000000",
          "blockHash": "0xc1e5f97c4cb7c87e311c502bc40a0b175414fec08ccb4f355879c123e82e3af7",
          "blockNumber": "0x1587556",
          "blockTimestamp": "0x6835be3f",
          "transactionHash": "0x7ba7189238d3ea9f4aef16cde044cfcc975c83218e00d1150b8bb9e0e60b3624",
          "transactionIndex": "0xbc",
          "logIndex": "0x22e",
          "removed": false
        }
      ],
      "logsBloom": "0x00000000000000000004000000000200000000000000000000000000000000000000000000000040000000000000080000000000000000000000000000000002100000000080000000000000000000000000000000000000000000000000000000000000000000000000000000000000000000000000000000400000000000000000000000000000000000000000000000000000000000000000000000000000000000000000000000000000000000200000000000000000000000000000000000000000000000000000000000000000000000010000000000000200000000000000000000000000000000004000000000000000000000000000000000000000",
      "type": "0x2",
      "transactionHash": "0x7ba7189238d3ea9f4aef16cde044cfcc975c83218e00d1150b8bb9e0e60b3624",
      "transactionIndex": "0xbc",
      "blockHash": "0xc1e5f97c4cb7c87e311c502bc40a0b175414fec08ccb4f355879c123e82e3af7",
      "blockNumber": "0x1587556",
      "gasUsed": "0x695e",
      "effectiveGasPrice": "0x2d62c3f67",
      "from": "0xb819a871d20913839c37f316dc914b0570bfc0ee",
      "to": "0x1211d07f0ebea8994f23ec26e1e512929fc8ab08",
      "contractAddress": null
    },
    {
      "status": "0x1",
      "cumulativeGasUsed": "0xe94b22",
      "logs": [
        {
          "address": "0x1211d07f0ebea8994f23ec26e1e512929fc8ab08",
          "topics": [
            "0xbf768a8bd7016d5df999ce7e5dcbd90856578a89eb68c5a1d5fc1d4a3360107e",
            "0x000000000000000000000000b819a871d20913839c37f316dc914b0570bfc0ee",
            "0x46c2ab528350fb4f59e61eb6c0382446a3636f13f7846680a2734e5f829735a4"
          ],
          "data": "0x0000000000000000000000000000000000000000000000000000000000000000",
          "blockHash": "0xe4877d41a705cfa497f9316d386e60b49264a6cee102ea7fc760717b2b54368e",
          "blockNumber": "0x1587557",
          "blockTimestamp": "0x6835be4b",
          "transactionHash": "0x8f40326d6cc60acddb92a8f7643d96ed46df55f3d492a5b1bf247ef7c95c4c91",
          "transactionIndex": "0x94",
          "logIndex": "0x1a4",
          "removed": false
        }
      ],
      "logsBloom": "0x00000000000000200004000000000200000000000000000000000000000000000000000000000040000000000000080004000000000000000000000000000002000000000080000000000000000000000000000000000000000000000000000000000000000000000000000000000000000000000000000000400000000000000000000000000000000000000000000000000000000000000000000000000000000000000000000000000000000000000000000000000000000000000000000000000000000000000000000000000000000000010000000000000200000000400000000000000000000000000000000000000000000000000000000000000000",
      "type": "0x2",
      "transactionHash": "0x8f40326d6cc60acddb92a8f7643d96ed46df55f3d492a5b1bf247ef7c95c4c91",
      "transactionIndex": "0x94",
      "blockHash": "0xe4877d41a705cfa497f9316d386e60b49264a6cee102ea7fc760717b2b54368e",
      "blockNumber": "0x1587557",
      "gasUsed": "0x6976",
      "effectiveGasPrice": "0x2e554d341",
      "from": "0xb819a871d20913839c37f316dc914b0570bfc0ee",
      "to": "0x1211d07f0ebea8994f23ec26e1e512929fc8ab08",
      "contractAddress": null
    },
    {
      "status": "0x1",
      "cumulativeGasUsed": "0x1318b10",
      "logs": [
        {
          "address": "0x1211d07f0ebea8994f23ec26e1e512929fc8ab08",
          "topics": [
            "0xbf768a8bd7016d5df999ce7e5dcbd90856578a89eb68c5a1d5fc1d4a3360107e",
            "0x000000000000000000000000b819a871d20913839c37f316dc914b0570bfc0ee",
            "0xb0487bdd3330b4d082e49dfc24e1aa23706abcc632f9215fee20a474a9a88457"
          ],
          "data": "0x0000000000000000000000000000000000000000000000000000000000000000",
          "blockHash": "0x12000275fa114253177b65694f72e438902997e0a01f9006a8734b67bb2221fd",
          "blockNumber": "0x1587558",
          "blockTimestamp": "0x6835be57",
          "transactionHash": "0x9cf117289769fab10b8685313df11152f1db1bb2322f3d007c1261167159de02",
          "transactionIndex": "0xe2",
          "logIndex": "0x1ba",
          "removed": false
        }
      ],
      "logsBloom": "0x00000000000000000004000000000200000000000000000000000000000000000000000000000040000000000000080000000000000000000000000000000002000000000080000000000000000000000000000000000000100000000000000000000000000000000000000000000000000000000000000000400000000000000000000000000000000000000000000000000000000000000000000000040000400000000000000000000000000000000000000000000000000000000000000000000000000000000000000000000000000000010000000000000200000000000000000000000000000000000000000000000000000000000000000000000000",
      "type": "0x2",
      "transactionHash": "0x9cf117289769fab10b8685313df11152f1db1bb2322f3d007c1261167159de02",
      "transactionIndex": "0xe2",
      "blockHash": "0x12000275fa114253177b65694f72e438902997e0a01f9006a8734b67bb2221fd",
      "blockNumber": "0x1587558",
      "gasUsed": "0x6976",
      "effectiveGasPrice": "0x2dc280054",
      "from": "0xb819a871d20913839c37f316dc914b0570bfc0ee",
      "to": "0x1211d07f0ebea8994f23ec26e1e512929fc8ab08",
      "contractAddress": null
    },
    {
      "status": "0x1",
      "cumulativeGasUsed": "0xcb6ebc",
      "logs": [
        {
          "address": "0x1211d07f0ebea8994f23ec26e1e512929fc8ab08",
          "topics": [
            "0xbf768a8bd7016d5df999ce7e5dcbd90856578a89eb68c5a1d5fc1d4a3360107e",
            "0x000000000000000000000000b819a871d20913839c37f316dc914b0570bfc0ee",
            "0xeefbfa32ce9dd99a431be27221a8732bc1e7b3d032ff4cbd56226b17783f7413"
          ],
          "data": "0x0000000000000000000000000000000000000000000000000000000000000000",
          "blockHash": "0xd27748456324fda37d8301eb5fa998f2530bbf06def8417e6377e42440170d5a",
          "blockNumber": "0x1587559",
          "blockTimestamp": "0x6835be63",
          "transactionHash": "0xe2a384b3026ef515b411e41785ff30abc769a29f34da4a99fcea37ea924f3272",
          "transactionIndex": "0xdb",
          "logIndex": "0x141",
          "removed": false
        }
      ],
      "logsBloom": "0x00000000000000000004000000000200000000000000000000000000000000000000000000000040000000000000080000000000000000000000000000000002000000000080000000000100000000000000000000000000000000000000000000000000000000000000000000000000000000000000000000400000000000800000000000000000000000000000000000000000000000000000000000000000000000000000000000000000000000000000000000000000000000000000000000000000000000000000000000000000000000010000000000000200000000000000000000000000000000000000000000000000000400000000000000000000",
      "type": "0x2",
      "transactionHash": "0xe2a384b3026ef515b411e41785ff30abc769a29f34da4a99fcea37ea924f3272",
      "transactionIndex": "0xdb",
      "blockHash": "0xd27748456324fda37d8301eb5fa998f2530bbf06def8417e6377e42440170d5a",
      "blockNumber": "0x1587559",
      "gasUsed": "0x6976",
      "effectiveGasPrice": "0x2ed7f5ee9",
      "from": "0xb819a871d20913839c37f316dc914b0570bfc0ee",
      "to": "0x1211d07f0ebea8994f23ec26e1e512929fc8ab08",
      "contractAddress": null
    },
    {
      "status": "0x1",
      "cumulativeGasUsed": "0xdc06a5",
      "logs": [
        {
          "address": "0x1211d07f0ebea8994f23ec26e1e512929fc8ab08",
          "topics": [
            "0xbf768a8bd7016d5df999ce7e5dcbd90856578a89eb68c5a1d5fc1d4a3360107e",
            "0x000000000000000000000000b819a871d20913839c37f316dc914b0570bfc0ee",
            "0xaa85d4d7655b58b3177edbbb41bc17f2e2ebffd26ace9d6b56244a5ee16c7806"
          ],
          "data": "0x0000000000000000000000000000000000000000000000000000000000000000",
          "blockHash": "0xb053a098df0f68f831e725831e84f38cd2f76a3612116c13152bd902c437d4ee",
          "blockNumber": "0x158755a",
          "blockTimestamp": "0x6835be6f",
          "transactionHash": "0x7795e7ea6e5433b0917d7f9ca26186c1d34e9178da0b7cc519bc4601a4e2b5da",
          "transactionIndex": "0x9a",
          "logIndex": "0x172",
          "removed": false
        }
      ],
      "logsBloom": "0x00000000000000000006000000000200000000000000000000000000000000000000000000000040000000000000080000000000000000000000000000000002000000000080000000000000000000000000000000000000000000000000000000000000000000000000000000000000000000000000000000400000000000000000000000000000000000000000000000000000000000000000000000000000000000000000000000000000000000000000000000000000000000000000000000000000000000000000000000200000000000010000000000000200000000000000000000000000000000000000000000008000000000000000000000000000",
      "type": "0x2",
      "transactionHash": "0x7795e7ea6e5433b0917d7f9ca26186c1d34e9178da0b7cc519bc4601a4e2b5da",
      "transactionIndex": "0x9a",
      "blockHash": "0xb053a098df0f68f831e725831e84f38cd2f76a3612116c13152bd902c437d4ee",
      "blockNumber": "0x158755a",
      "gasUsed": "0x6976",
      "effectiveGasPrice": "0x2e54aa376",
      "from": "0xb819a871d20913839c37f316dc914b0570bfc0ee",
      "to": "0x1211d07f0ebea8994f23ec26e1e512929fc8ab08",
      "contractAddress": null
    },
    {
      "status": "0x1",
      "cumulativeGasUsed": "0xf40570",
      "logs": [
        {
          "address": "0x269c36a173d881720544fb303e681370158ff1fd",
          "topics": [
            "0x8be0079c531659141344cd1fd0a4f28419497f9722a3daafe3b4186f6b6457e0",
            "0x000000000000000000000000b819a871d20913839c37f316dc914b0570bfc0ee",
            "0x00000000000000000000000091b945cbb063648c44271868a7a0c7bdff64827d"
          ],
          "data": "0x",
          "blockHash": "0x049e5adc1f72ccff1fdf8fe4e20677b12780da979efcf74d5c22695d76ae891c",
          "blockNumber": "0x158755d",
          "blockTimestamp": "0x6835be93",
          "transactionHash": "0x2eab63304329563811e7455afd72620f74b562b590140733aa812171da36d98e",
          "transactionIndex": "0xd4",
          "logIndex": "0x15c",
          "removed": false
        }
      ],
      "logsBloom": "0x00000000000000000000000000000000000000000000000000800000000000000000000000000008000000000000000000000010000000000000000000000002000000000080000000000000000000000001100000000000000000000000000000000000000000000000000000000000000000000000000000000000000400400000000000000000000000004000000000000000000000000000000000000000000000000000000000100000000000000000000000000000000000000000000000000000000000000000000000000000000000000000000000000200000000000000000000000000000000000000000000000000000000000000000000000000",
      "type": "0x2",
      "transactionHash": "0x2eab63304329563811e7455afd72620f74b562b590140733aa812171da36d98e",
      "transactionIndex": "0xd4",
      "blockHash": "0x049e5adc1f72ccff1fdf8fe4e20677b12780da979efcf74d5c22695d76ae891c",
      "blockNumber": "0x158755d",
      "gasUsed": "0x8368",
      "effectiveGasPrice": "0x2d821e72a",
      "from": "0xb819a871d20913839c37f316dc914b0570bfc0ee",
      "to": "0x269c36a173d881720544fb303e681370158ff1fd",
      "contractAddress": null
    },
    {
      "status": "0x1",
      "cumulativeGasUsed": "0x17ed1cb",
      "logs": [
        {
          "address": "0xc7bc6bd45eb84d594f51ced3c5497e6812c7732f",
          "topics": [
            "0x8be0079c531659141344cd1fd0a4f28419497f9722a3daafe3b4186f6b6457e0",
            "0x000000000000000000000000b819a871d20913839c37f316dc914b0570bfc0ee",
            "0x00000000000000000000000091b945cbb063648c44271868a7a0c7bdff64827d"
          ],
          "data": "0x",
          "blockHash": "0x6e5286bf9157b9f3049fe2f1bc147df7d5341dd86dcee4f40dde9bd38e0335be",
          "blockNumber": "0x158755e",
          "blockTimestamp": "0x6835be9f",
          "transactionHash": "0x216b864079395bcc2e244117cab831b9bd4d250ec227e37527201b6939bb978d",
          "transactionIndex": "0xab",
          "logIndex": "0x236",
          "removed": false
        }
      ],
      "logsBloom": "0x00000000000000000000000000000000000000000000000000800000000000000000000000000000000000000000000000000000000000000000000000000002008000000080000000000000000080000001100000000000000000000000000000000000000000000000000040000000000000000000000000000000000400400000000000000000000000004000000000000000000000000000000000000000000000000000000000000000000000000000000000000000000000000000000000000000000000000000000000000000000000000000000000000200000000000000000000000000000000000000000000000000000000000000000000000000",
      "type": "0x2",
      "transactionHash": "0x216b864079395bcc2e244117cab831b9bd4d250ec227e37527201b6939bb978d",
      "transactionIndex": "0xab",
      "blockHash": "0x6e5286bf9157b9f3049fe2f1bc147df7d5341dd86dcee4f40dde9bd38e0335be",
      "blockNumber": "0x158755e",
      "gasUsed": "0x8368",
      "effectiveGasPrice": "0x2df729478",
      "from": "0xb819a871d20913839c37f316dc914b0570bfc0ee",
      "to": "0xc7bc6bd45eb84d594f51ced3c5497e6812c7732f",
      "contractAddress": null
    },
    {
      "status": "0x1",
      "cumulativeGasUsed": "0xb5209e",
      "logs": [
        {
          "address": "0xdf0635c1ecfdf08146150691a97e2ff6a8aa1a90",
          "topics": [
            "0x8be0079c531659141344cd1fd0a4f28419497f9722a3daafe3b4186f6b6457e0",
            "0x000000000000000000000000b819a871d20913839c37f316dc914b0570bfc0ee",
            "0x00000000000000000000000091b945cbb063648c44271868a7a0c7bdff64827d"
          ],
          "data": "0x",
          "blockHash": "0x714f0f2b238a68803050938c2c05f70953e8fb307d52bc60ac19c6a867bd3736",
          "blockNumber": "0x158755f",
          "blockTimestamp": "0x6835beab",
          "transactionHash": "0x457da42468974d472ab0fd38a66b6360c7a5e8555fb1654a48270d2bce832641",
          "transactionIndex": "0xa1",
          "logIndex": "0xfb",
          "removed": false
        }
      ],
      "logsBloom": "0x00000000000001000000000000000000000000000000000000800000000000000000000000000000000000000000002000000000000000000000400000000002000000000080000000000000000000000001100000000000000000000000000000000000000000000000000000000000000000000000000000000000000400400000000000000000000000004000000000000000000000000000000000000000000000000000000000000000000000000000000000000000000000000000000000000000000000000000000000000000000000000000000000000200000000000000000000000000000000000000000000000000000000000000000000000000",
      "type": "0x2",
      "transactionHash": "0x457da42468974d472ab0fd38a66b6360c7a5e8555fb1654a48270d2bce832641",
      "transactionIndex": "0xa1",
      "blockHash": "0x714f0f2b238a68803050938c2c05f70953e8fb307d52bc60ac19c6a867bd3736",
      "blockNumber": "0x158755f",
      "gasUsed": "0x8368",
      "effectiveGasPrice": "0x3204c1bb0",
      "from": "0xb819a871d20913839c37f316dc914b0570bfc0ee",
      "to": "0xdf0635c1ecfdf08146150691a97e2ff6a8aa1a90",
      "contractAddress": null
    },
    {
      "status": "0x1",
      "cumulativeGasUsed": "0x1031673",
      "logs": [
        {
          "address": "0x2b588f7f4832561e46924f3ea54c244569724915",
          "topics": [
            "0x8be0079c531659141344cd1fd0a4f28419497f9722a3daafe3b4186f6b6457e0",
            "0x000000000000000000000000b819a871d20913839c37f316dc914b0570bfc0ee",
            "0x00000000000000000000000091b945cbb063648c44271868a7a0c7bdff64827d"
          ],
          "data": "0x",
          "blockHash": "0xa7e0e2498492a6f652534a6640fc2eb812998e0a24a0f827c4a2dcc3c841e0ee",
          "blockNumber": "0x1587560",
          "blockTimestamp": "0x6835beb7",
          "transactionHash": "0x60e23e1f472a757df362fdb4a285c61c321042ffdcc44d8ee4cf29cc244b31eb",
          "transactionIndex": "0xa6",
          "logIndex": "0x1d6",
          "removed": false
        }
      ],
      "logsBloom": "0x00000000000000000000000000000000000000000000000000800000000000000000000000000000000000000000000000000000000000000000000000020002000000200080000000000000000000000001100000000000000000000000000000000000000000000000000000000000000000000000000000000000000400400000000000000000000000004000000000000000000000000000000000000000000000000000000000000000000000000000000000000000000000000000000000000000000000000000000000000000000000000000000000000200000000000000000000000000000000000000000000000000000000000000000000020000",
      "type": "0x2",
      "transactionHash": "0x60e23e1f472a757df362fdb4a285c61c321042ffdcc44d8ee4cf29cc244b31eb",
      "transactionIndex": "0xa6",
      "blockHash": "0xa7e0e2498492a6f652534a6640fc2eb812998e0a24a0f827c4a2dcc3c841e0ee",
      "blockNumber": "0x1587560",
      "gasUsed": "0x8368",
      "effectiveGasPrice": "0x308665618",
      "from": "0xb819a871d20913839c37f316dc914b0570bfc0ee",
      "to": "0x2b588f7f4832561e46924f3ea54c244569724915",
      "contractAddress": null
    },
    {
      "status": "0x1",
      "cumulativeGasUsed": "0xab4ef4",
      "logs": [
        {
          "address": "0x1d8e8cefeb085f3211ab6a443ad9051b54d1cd1a",
          "topics": [
            "0x8be0079c531659141344cd1fd0a4f28419497f9722a3daafe3b4186f6b6457e0",
            "0x000000000000000000000000b819a871d20913839c37f316dc914b0570bfc0ee",
            "0x00000000000000000000000091b945cbb063648c44271868a7a0c7bdff64827d"
          ],
          "data": "0x",
          "blockHash": "0xc921c990f1997f563d0b87afc9a6f2d867ad7f309769582bc39ed2e4208bdd06",
          "blockNumber": "0x1587561",
          "blockTimestamp": "0x6835bec3",
          "transactionHash": "0x5c3a1065a6aeb7d292bee4afd720ae6339d699f45e2137d5ecd555bb67ec1f43",
          "transactionIndex": "0x7d",
          "logIndex": "0x11f",
          "removed": false
        }
      ],
      "logsBloom": "0x00000000000000000000000002000000000000000800000000800000000000000000000000000000000000000000000000000000000000000000000000000002000000000080000000000000000000000001100000000000000000000000000000000000000000000000000000000000000000000000000000000000000400400000000000000000000000004000000000000000000000000000000000000000000000000000000000000000000000000000000000000000000000000000000000000000000000000000000000000000000000000000000000000200000000000000000000000000000000000000000000000000000000000000000000800000",
      "type": "0x2",
      "transactionHash": "0x5c3a1065a6aeb7d292bee4afd720ae6339d699f45e2137d5ecd555bb67ec1f43",
      "transactionIndex": "0x7d",
      "blockHash": "0xc921c990f1997f563d0b87afc9a6f2d867ad7f309769582bc39ed2e4208bdd06",
      "blockNumber": "0x1587561",
      "gasUsed": "0x8368",
      "effectiveGasPrice": "0x30c03e771",
      "from": "0xb819a871d20913839c37f316dc914b0570bfc0ee",
      "to": "0x1d8e8cefeb085f3211ab6a443ad9051b54d1cd1a",
      "contractAddress": null
    },
    {
      "status": "0x1",
      "cumulativeGasUsed": "0x10b3bc6",
      "logs": [
        {
          "address": "0x8bad0c523516262a439197736fff982f5e0987cc",
          "topics": [
            "0x8be0079c531659141344cd1fd0a4f28419497f9722a3daafe3b4186f6b6457e0",
            "0x000000000000000000000000b819a871d20913839c37f316dc914b0570bfc0ee",
            "0x00000000000000000000000091b945cbb063648c44271868a7a0c7bdff64827d"
          ],
          "data": "0x",
          "blockHash": "0x113a8f5e34babcf8b2913800c7052232ab41de5bd56961f11c3701685935c304",
          "blockNumber": "0x1587562",
          "blockTimestamp": "0x6835becf",
          "transactionHash": "0x80278452d47510a2315507ba43e3fd11ed4aa98de8fa42a5e68eb740515c226c",
          "transactionIndex": "0xc5",
          "logIndex": "0x1d3",
          "removed": false
        }
      ],
      "logsBloom": "0x00000000000000000000000000000000000000000000000000800000000000000000000000000000000000000000000000000000000000000000000000000002000000000088000000000000000000000001100000000000000000000000000000000000000000000000000000000000000000000000000000000020000400400000000000000000000000004000000000000000000000000000000000000000000000000000000000000000000000000000000000000000000000000000000000000000000000000000000000000000010000000000000000000200000000000000000000000000000000000000000000000000000000000000000000000000",
      "type": "0x2",
      "transactionHash": "0x80278452d47510a2315507ba43e3fd11ed4aa98de8fa42a5e68eb740515c226c",
      "transactionIndex": "0xc5",
      "blockHash": "0x113a8f5e34babcf8b2913800c7052232ab41de5bd56961f11c3701685935c304",
      "blockNumber": "0x1587562",
      "gasUsed": "0x8368",
      "effectiveGasPrice": "0x2ea27c720",
      "from": "0xb819a871d20913839c37f316dc914b0570bfc0ee",
      "to": "0x8bad0c523516262a439197736fff982f5e0987cc",
      "contractAddress": null
    },
    {
      "status": "0x1",
      "cumulativeGasUsed": "0xb67a12",
      "logs": [
        {
          "address": "0x4df3dd62db219c47f6a7cb1be02c511afceadf5e",
          "topics": [
            "0x8be0079c531659141344cd1fd0a4f28419497f9722a3daafe3b4186f6b6457e0",
            "0x000000000000000000000000b819a871d20913839c37f316dc914b0570bfc0ee",
            "0x00000000000000000000000091b945cbb063648c44271868a7a0c7bdff64827d"
          ],
          "data": "0x",
          "blockHash": "0xf534fb7adcbeba9349b291b30d596fb76677a6e65a057ec956c196e2c0f2c415",
          "blockNumber": "0x1587563",
          "blockTimestamp": "0x6835bedb",
          "transactionHash": "0xd48abab71aec440bc3a5cdf3181dbcad35b1dce14252baad10a1534846c259cc",
          "transactionIndex": "0x95",
          "logIndex": "0x13a",
          "removed": false
        }
      ],
      "logsBloom": "0x00000000000000000000000000000000000000000000000000800000000000000000000000000000000000000000000000000000000000000000000000000002000000000080000000000000000000000001100000000000000000000000000000000000000000000000000000000004000000000000000000000000000400400000000000000000000000004000000000000000000000000000000000000000000000000000000000000000010000000000000000000000000000000000000000000000000000000000000000000000000000000000000000000200000000000000000000000000000000000000000000000000000000000000002000000000",
      "type": "0x2",
      "transactionHash": "0xd48abab71aec440bc3a5cdf3181dbcad35b1dce14252baad10a1534846c259cc",
      "transactionIndex": "0x95",
      "blockHash": "0xf534fb7adcbeba9349b291b30d596fb76677a6e65a057ec956c196e2c0f2c415",
      "blockNumber": "0x1587563",
      "gasUsed": "0x8368",
      "effectiveGasPrice": "0x2fa87dedf",
      "from": "0xb819a871d20913839c37f316dc914b0570bfc0ee",
      "to": "0x4df3dd62db219c47f6a7cb1be02c511afceadf5e",
      "contractAddress": null
    },
    {
      "status": "0x1",
      "cumulativeGasUsed": "0x132cd29",
      "logs": [
        {
          "address": "0xe32fc580e6e3f6f5947bc2d900062dce019f375f",
          "topics": [
            "0x8be0079c531659141344cd1fd0a4f28419497f9722a3daafe3b4186f6b6457e0",
            "0x000000000000000000000000b819a871d20913839c37f316dc914b0570bfc0ee",
            "0x00000000000000000000000091b945cbb063648c44271868a7a0c7bdff64827d"
          ],
          "data": "0x",
          "blockHash": "0x9e16767896219b9d458531f524118609c390c370ca5c41b29e93576ad367fe7c",
          "blockNumber": "0x1587564",
          "blockTimestamp": "0x6835bee7",
          "transactionHash": "0x2d2055419ddd826d6bc9056fbaaceb1dfafd1c5cad2a41a9288761ac4af1f5d3",
          "transactionIndex": "0xd9",
          "logIndex": "0x1ef",
          "removed": false
        }
      ],
      "logsBloom": "0x00000000000000000000000000000000000000000000000000800000000000000000000000000000000000000000000000000000000000000000000000000002000000000080200000000000000000000001100000000000000000000000000000000000000000000000000000000000000000000000000000000000000400400000000000000000000000004000000000000000000000000000000000000000000000000000000000000000000000000000000000000000000000000000000000000000000000000000000000000000000000000000000000000200000000000000000000000000000000000000000000001000000000000000080000000000",
      "type": "0x2",
      "transactionHash": "0x2d2055419ddd826d6bc9056fbaaceb1dfafd1c5cad2a41a9288761ac4af1f5d3",
      "transactionIndex": "0xd9",
      "blockHash": "0x9e16767896219b9d458531f524118609c390c370ca5c41b29e93576ad367fe7c",
      "blockNumber": "0x1587564",
      "gasUsed": "0x6fb4",
      "effectiveGasPrice": "0x2e76f390c",
      "from": "0xb819a871d20913839c37f316dc914b0570bfc0ee",
      "to": "0xe32fc580e6e3f6f5947bc2d900062dce019f375f",
      "contractAddress": null
    },
    {
      "status": "0x1",
      "cumulativeGasUsed": "0xa5575e",
      "logs": [
        {
          "address": "0xddcca3eda77622b7ff5b7f11b340a8f818a87d2c",
          "topics": [
            "0x8be0079c531659141344cd1fd0a4f28419497f9722a3daafe3b4186f6b6457e0",
            "0x000000000000000000000000b819a871d20913839c37f316dc914b0570bfc0ee",
            "0x00000000000000000000000091b945cbb063648c44271868a7a0c7bdff64827d"
          ],
          "data": "0x",
          "blockHash": "0x45afe2e3fda72880f05877ab8666606a47f29e8ead4fa5b2925bc04cf77e41a5",
          "blockNumber": "0x1587565",
          "blockTimestamp": "0x6835bef3",
          "transactionHash": "0x54d8a61693ccf9889ba4bb260ccd050046223d0e3b88494a08f90357237f4911",
          "transactionIndex": "0x99",
          "logIndex": "0x126",
          "removed": false
        }
      ],
      "logsBloom": "0x00000000000000000000000000000000000000000000000100800000000000000000000000000000000000000000000000000000000000000000000000000002000000000080000000000000000000000001100000000000000000000000000000000000000000000000000000000000000000000000000000000000000400400000000010000000000000004000000000000000000000000000000000000000000000000000000000000000000000000000000000000000000000000001000000000000000000000000000000000000000000000000000000000200000000000000000000000000000000000000000000000000000000000000000000000000",
      "type": "0x2",
      "transactionHash": "0x54d8a61693ccf9889ba4bb260ccd050046223d0e3b88494a08f90357237f4911",
      "transactionIndex": "0x99",
      "blockHash": "0x45afe2e3fda72880f05877ab8666606a47f29e8ead4fa5b2925bc04cf77e41a5",
      "blockNumber": "0x1587565",
      "gasUsed": "0x6fed",
      "effectiveGasPrice": "0x2fbb23946",
      "from": "0xb819a871d20913839c37f316dc914b0570bfc0ee",
      "to": "0xddcca3eda77622b7ff5b7f11b340a8f818a87d2c",
      "contractAddress": null
    },
    {
      "status": "0x1",
      "cumulativeGasUsed": "0x44c976",
      "logs": [
        {
          "address": "0x1211d07f0ebea8994f23ec26e1e512929fc8ab08",
          "topics": [
            "0x8be0079c531659141344cd1fd0a4f28419497f9722a3daafe3b4186f6b6457e0",
            "0x000000000000000000000000b819a871d20913839c37f316dc914b0570bfc0ee",
            "0x00000000000000000000000091b945cbb063648c44271868a7a0c7bdff64827d"
          ],
          "data": "0x",
          "blockHash": "0x29d3ca10492a526838152fa4468c4e833bd62a645baef2d8db58a7c3009cd1b7",
          "blockNumber": "0x1587566",
          "blockTimestamp": "0x6835beff",
          "transactionHash": "0xb3e1249b8bedf9928e907fada4631d2dd2e033c5dabbdc455a51010b5dc7aa2d",
          "transactionIndex": "0x52",
          "logIndex": "0x5a",
          "removed": false
        }
      ],
      "logsBloom": "0x00000000000000000000000000000000000000000000000000800000000000000000000000000040000000000000080000000000000000000000000000000002000000000080000000000000000000000001100000000000000000000000000000000000000000000000000000000000000000000000000000400000000400400000000000000000000000004000000000000000000000000000000000000000000000000000000000000000000000000000000000000000000000000000000000000000000000000000000000000000000000000000000000000200000000000000000000000000000000000000000000000000000000000000000000000000",
      "type": "0x2",
      "transactionHash": "0xb3e1249b8bedf9928e907fada4631d2dd2e033c5dabbdc455a51010b5dc7aa2d",
      "transactionIndex": "0x52",
      "blockHash": "0x29d3ca10492a526838152fa4468c4e833bd62a645baef2d8db58a7c3009cd1b7",
      "blockNumber": "0x1587566",
      "gasUsed": "0x7003",
      "effectiveGasPrice": "0x2dcc318f1",
      "from": "0xb819a871d20913839c37f316dc914b0570bfc0ee",
      "to": "0x1211d07f0ebea8994f23ec26e1e512929fc8ab08",
      "contractAddress": null
    },
    {
      "status": "0x1",
      "cumulativeGasUsed": "0x192d66c",
      "logs": [
        {
          "address": "0x04f0cdc5a215dedf6a1ed5444e07367e20768041",
          "topics": [
            "0x8be0079c531659141344cd1fd0a4f28419497f9722a3daafe3b4186f6b6457e0",
            "0x000000000000000000000000b819a871d20913839c37f316dc914b0570bfc0ee",
            "0x00000000000000000000000091b945cbb063648c44271868a7a0c7bdff64827d"
          ],
          "data": "0x",
          "blockHash": "0x8b8c448a1ae1da3ddd2f732a14afc5e1dbfcad803475ef96f23db89eb9bd507c",
          "blockNumber": "0x1587567",
          "blockTimestamp": "0x6835bf0b",
          "transactionHash": "0xd17e2c26d2022d90d08f5b709e37cc27e9b94ddc8ee47f7e1cb2e674f4fd6102",
          "transactionIndex": "0x123",
          "logIndex": "0x2ca",
          "removed": false
        }
      ],
      "logsBloom": "0x00000000000000000000000000000000000000000000000000800000000000000000000000000000000000000000000000000000000000000000000000000002000000000080000000000000000000100001100000000001000000000000000000000000000000000000000000000000000000000000000000000000000400400000000000000000000000004000000000000000000000000000000400000000000000000000000000000000000000000000000000000000000000000000000000000000000000000000000000000000000000000000000000000200000000000000000000000000000000000000000000000000000000000000000000000000",
      "type": "0x2",
      "transactionHash": "0xd17e2c26d2022d90d08f5b709e37cc27e9b94ddc8ee47f7e1cb2e674f4fd6102",
      "transactionIndex": "0x123",
      "blockHash": "0x8b8c448a1ae1da3ddd2f732a14afc5e1dbfcad803475ef96f23db89eb9bd507c",
      "blockNumber": "0x1587567",
      "gasUsed": "0x6fb4",
      "effectiveGasPrice": "0x29ce14bff",
      "from": "0xb819a871d20913839c37f316dc914b0570bfc0ee",
      "to": "0x04f0cdc5a215dedf6a1ed5444e07367e20768041",
      "contractAddress": null
    }
  ],
  "libraries": [],
  "pending": [],
  "returns": {},
  "timestamp": 1748352782,
  "chain": 1,
  "commit": "9b668a0"
}