{
  "transactions": [
    {
      "hash": "0xe21540b459acfd62e0db527ca07822bd984593cef617267dac989bce675d24c6",
      "transactionType": "CALL",
      "contractName": null,
      "contractAddress": "0xcb4d153604a6f21ff7625e5044e89c3b903599bc",
      "function": "setWhitelistedUser(address,bool)",
      "arguments": [
        "0xf20a8950c368Ec48323092D6e4acF90aADf2BdC6",
        "true"
      ],
      "transaction": {
        "from": "0xb819a871d20913839c37f316dc914b0570bfc0ee",
        "to": "0xcb4d153604a6f21ff7625e5044e89c3b903599bc",
        "gas": "0x11d0b",
        "value": "0x0",
        "input": "0x44710fbe000000000000000000000000f20a8950c368ec48323092d6e4acf90aadf2bdc60000000000000000000000000000000000000000000000000000000000000001",
        "nonce": "0x144",
        "chainId": "0x2105"
      },
      "additionalContracts": [],
      "isFixedGasLimit": false
    },
    {
      "hash": "0xad5a51ceaf421e23ffd99f41d5a5031d7e7a1cfd5e9806b66192c6357710aad5",
      "transactionType": "CALL",
      "contractName": null,
      "contractAddress": "0xcb4d153604a6f21ff7625e5044e89c3b903599bc",
      "function": "setWhitelistedUser(address,bool)",
      "arguments": [
        "0x8E72a24221517E51502f20f387415a06b27A5b51",
        "true"
      ],
      "transaction": {
        "from": "0xb819a871d20913839c37f316dc914b0570bfc0ee",
        "to": "0xcb4d153604a6f21ff7625e5044e89c3b903599bc",
        "gas": "0x11d0b",
        "value": "0x0",
        "input": "0x44710fbe0000000000000000000000008e72a24221517e51502f20f387415a06b27a5b510000000000000000000000000000000000000000000000000000000000000001",
        "nonce": "0x145",
        "chainId": "0x2105"
      },
      "additionalContracts": [],
      "isFixedGasLimit": false
    },
    {
      "hash": "0xc50736eea51045e9fe96008dd8d83546a7e064bb04a7d036280368efb6997b3d",
      "transactionType": "CALL",
      "contractName": null,
      "contractAddress": "0xcb4d153604a6f21ff7625e5044e89c3b903599bc",
      "function": "setWhitelistedUser(address,bool)",
      "arguments": [
        "0x50d8Deadd2b3140B151CaB2C4FB76F1f59b236F8",
        "true"
      ],
      "transaction": {
        "from": "0xb819a871d20913839c37f316dc914b0570bfc0ee",
        "to": "0xcb4d153604a6f21ff7625e5044e89c3b903599bc",
        "gas": "0x11d0b",
        "value": "0x0",
        "input": "0x44710fbe00000000000000000000000050d8deadd2b3140b151cab2c4fb76f1f59b236f80000000000000000000000000000000000000000000000000000000000000001",
        "nonce": "0x146",
        "chainId": "0x2105"
      },
      "additionalContracts": [],
      "isFixedGasLimit": false
    },
    {
      "hash": "0x1162d331ef4f4595e775520c5682964842996b44effc94d7699222fa4d9ab8d5",
      "transactionType": "CALL",
      "contractName": null,
      "contractAddress": "0xcb4d153604a6f21ff7625e5044e89c3b903599bc",
      "function": "setWhitelistedUser(address,bool)",
      "arguments": [
        "0x574582C44e3f1EF2cB29a7131B057FebBCC8244E",
        "true"
      ],
      "transaction": {
        "from": "0xb819a871d20913839c37f316dc914b0570bfc0ee",
        "to": "0xcb4d153604a6f21ff7625e5044e89c3b903599bc",
        "gas": "0x11d0b",
        "value": "0x0",
        "input": "0x44710fbe000000000000000000000000574582c44e3f1ef2cb29a7131b057febbcc8244e0000000000000000000000000000000000000000000000000000000000000001",
        "nonce": "0x147",
        "chainId": "0x2105"
      },
      "additionalContracts": [],
      "isFixedGasLimit": false
    },
    {
      "hash": "0x445cdcb032398c988f2fa953424c7834daf77d4dc96fdf2c9078771fa83b8980",
      "transactionType": "CALL",
      "contractName": null,
      "contractAddress": "0xcb4d153604a6f21ff7625e5044e89c3b903599bc",
      "function": "setWhitelistedUser(address,bool)",
      "arguments": [
        "0x281567fe62b587EC1755f6F33b80160F544Dc5d0",
        "true"
      ],
      "transaction": {
        "from": "0xb819a871d20913839c37f316dc914b0570bfc0ee",
        "to": "0xcb4d153604a6f21ff7625e5044e89c3b903599bc",
        "gas": "0x11d0b",
        "value": "0x0",
        "input": "0x44710fbe000000000000000000000000281567fe62b587ec1755f6f33b80160f544dc5d00000000000000000000000000000000000000000000000000000000000000001",
        "nonce": "0x148",
        "chainId": "0x2105"
      },
      "additionalContracts": [],
      "isFixedGasLimit": false
    },
    {
      "hash": "0xa6565a19b416853a809809e239a0d195e2c0e93b12dc145951705c6013171ec0",
      "transactionType": "CALL",
      "contractName": null,
      "contractAddress": "0xcb4d153604a6f21ff7625e5044e89c3b903599bc",
      "function": "setWhitelistedUser(address,bool)",
      "arguments": [
        "0x2705f6A8F01bd4A805D9FC73151DBe37BB8d1edE",
        "true"
      ],
      "transaction": {
        "from": "0xb819a871d20913839c37f316dc914b0570bfc0ee",
        "to": "0xcb4d153604a6f21ff7625e5044e89c3b903599bc",
        "gas": "0x11d0b",
        "value": "0x0",
        "input": "0x44710fbe0000000000000000000000002705f6a8f01bd4a805d9fc73151dbe37bb8d1ede0000000000000000000000000000000000000000000000000000000000000001",
        "nonce": "0x149",
        "chainId": "0x2105"
      },
      "additionalContracts": [],
      "isFixedGasLimit": false
    },
    {
      "hash": "0xfa1867de7005e5a3f7f09b4cc75e39372de117a293de01703997024803ff74df",
      "transactionType": "CALL",
      "contractName": null,
      "contractAddress": "0xcb4d153604a6f21ff7625e5044e89c3b903599bc",
      "function": "setWhitelistedUser(address,bool)",
      "arguments": [
        "0xc9C9693b6A445D05Add0043662fad9Ac600Ad088",
        "true"
      ],
      "transaction": {
        "from": "0xb819a871d20913839c37f316dc914b0570bfc0ee",
        "to": "0xcb4d153604a6f21ff7625e5044e89c3b903599bc",
        "gas": "0x11d0b",
        "value": "0x0",
        "input": "0x44710fbe000000000000000000000000c9c9693b6a445d05add0043662fad9ac600ad0880000000000000000000000000000000000000000000000000000000000000001",
        "nonce": "0x14a",
        "chainId": "0x2105"
      },
      "additionalContracts": [],
      "isFixedGasLimit": false
    },
    {
      "hash": "0x740e7b9793a37ce1f7c4ed5a3bca0f1025890211b980c84231291e9f9d9dc3b1",
      "transactionType": "CALL",
      "contractName": null,
      "contractAddress": "0xcb4d153604a6f21ff7625e5044e89c3b903599bc",
      "function": "setWhitelistedUser(address,bool)",
      "arguments": [
        "0x7EfE40B2E6dA8b28AaB6Bd2D622B9Cd7f5fE077c",
        "true"
      ],
      "transaction": {
        "from": "0xb819a871d20913839c37f316dc914b0570bfc0ee",
        "to": "0xcb4d153604a6f21ff7625e5044e89c3b903599bc",
        "gas": "0x11d0b",
        "value": "0x0",
        "input": "0x44710fbe0000000000000000000000007efe40b2e6da8b28aab6bd2d622b9cd7f5fe077c0000000000000000000000000000000000000000000000000000000000000001",
        "nonce": "0x14b",
        "chainId": "0x2105"
      },
      "additionalContracts": [],
      "isFixedGasLimit": false
    },
    {
      "hash": "0x37310afce6e969546595f793ca7ee69083234a870e2523769531f651eba56758",
      "transactionType": "CALL",
      "contractName": null,
      "contractAddress": "0xcb4d153604a6f21ff7625e5044e89c3b903599bc",
      "function": "setWhitelistedUser(address,bool)",
      "arguments": [
        "0xa22DCB8F0A2848289124086F35ae9dB2a0006962",
        "true"
      ],
      "transaction": {
        "from": "0xb819a871d20913839c37f316dc914b0570bfc0ee",
        "to": "0xcb4d153604a6f21ff7625e5044e89c3b903599bc",
        "gas": "0x12dbf",
        "value": "0x0",
        "input": "0x44710fbe000000000000000000000000a22dcb8f0a2848289124086f35ae9db2a00069620000000000000000000000000000000000000000000000000000000000000001",
        "nonce": "0x14c",
        "chainId": "0x2105"
      },
      "additionalContracts": [],
      "isFixedGasLimit": false
    },
    {
      "hash": "0x11998a99600437bec102f0b861bedd72f2e9d97ed0e19165c79c94c8683b5dce",
      "transactionType": "CALL",
      "contractName": null,
      "contractAddress": "0xcb4d153604a6f21ff7625e5044e89c3b903599bc",
      "function": "setWhitelistedUser(address,bool)",
      "arguments": [
        "0xB819A871d20913839c37f316Dc914b0570bfc0eE",
        "true"
      ],
      "transaction": {
        "from": "0xb819a871d20913839c37f316dc914b0570bfc0ee",
        "to": "0xcb4d153604a6f21ff7625e5044e89c3b903599bc",
        "gas": "0x11d0b",
        "value": "0x0",
        "input": "0x44710fbe000000000000000000000000b819a871d20913839c37f316dc914b0570bfc0ee0000000000000000000000000000000000000000000000000000000000000001",
        "nonce": "0x14d",
        "chainId": "0x2105"
      },
      "additionalContracts": [],
      "isFixedGasLimit": false
    },
    {
      "hash": "0x41251d820ad34761b7f072fb3e3da6fe7df8f1b7c94af3ff8912bd675d24cc01",
      "transactionType": "CALL",
      "contractName": null,
      "contractAddress": "0xcb4d153604a6f21ff7625e5044e89c3b903599bc",
      "function": "setWhitelistedUser(address,bool)",
      "arguments": [
        "0x40282d3Cf4890D9806BC1853e97a59C93D813653",
        "true"
      ],
      "transaction": {
        "from": "0xb819a871d20913839c37f316dc914b0570bfc0ee",
        "to": "0xcb4d153604a6f21ff7625e5044e89c3b903599bc",
        "gas": "0x11d0b",
        "value": "0x0",
        "input": "0x44710fbe00000000000000000000000040282d3cf4890d9806bc1853e97a59c93d8136530000000000000000000000000000000000000000000000000000000000000001",
        "nonce": "0x14e",
        "chainId": "0x2105"
      },
      "additionalContracts": [],
      "isFixedGasLimit": false
    },
    {
      "hash": "0x44685504d9bb40d71ac19b673a5d2039018c541aaf309abe5f2e3505044ea2ad",
      "transactionType": "CALL",
      "contractName": null,
      "contractAddress": "0xcb4d153604a6f21ff7625e5044e89c3b903599bc",
      "function": "setWhitelistedUser(address,bool)",
      "arguments": [
        "0xB5b901F1BB86421301138b5c45C1D3Fe96663161",
        "true"
      ],
      "transaction": {
        "from": "0xb819a871d20913839c37f316dc914b0570bfc0ee",
        "to": "0xcb4d153604a6f21ff7625e5044e89c3b903599bc",
        "gas": "0x11d0b",
        "value": "0x0",
        "input": "0x44710fbe000000000000000000000000b5b901f1bb86421301138b5c45c1d3fe966631610000000000000000000000000000000000000000000000000000000000000001",
        "nonce": "0x14f",
        "chainId": "0x2105"
      },
      "additionalContracts": [],
      "isFixedGasLimit": false
    },
    {
      "hash": "0x2910ac3f6abaaf9266a57d4346ab446d68e3296082b84cd0ad9ffae092563311",
      "transactionType": "CALL",
      "contractName": null,
      "contractAddress": "0xcb4d153604a6f21ff7625e5044e89c3b903599bc",
      "function": "setWhitelistedUser(address,bool)",
      "arguments": [
        "0xBAec8904499dcdee770c60df15b0C37EAC84Fb62",
        "true"
      ],
      "transaction": {
        "from": "0xb819a871d20913839c37f316dc914b0570bfc0ee",
        "to": "0xcb4d153604a6f21ff7625e5044e89c3b903599bc",
        "gas": "0x11d0b",
        "value": "0x0",
        "input": "0x44710fbe000000000000000000000000baec8904499dcdee770c60df15b0c37eac84fb620000000000000000000000000000000000000000000000000000000000000001",
        "nonce": "0x150",
        "chainId": "0x2105"
      },
      "additionalContracts": [],
      "isFixedGasLimit": false
    },
    {
      "hash": "0xe4dccc8a84388b63f2768ba1c79195182c182590a1625f565a4ae7d7e91c0c76",
      "transactionType": "CALL",
      "contractName": null,
      "contractAddress": "0xcb4d153604a6f21ff7625e5044e89c3b903599bc",
      "function": "setWhitelistedUser(address,bool)",
      "arguments": [
        "0xfC4A23271b60887FC246B060B6931a08E2BC434c",
        "true"
      ],
      "transaction": {
        "from": "0xb819a871d20913839c37f316dc914b0570bfc0ee",
        "to": "0xcb4d153604a6f21ff7625e5044e89c3b903599bc",
        "gas": "0x11d0b",
        "value": "0x0",
        "input": "0x44710fbe000000000000000000000000fc4a23271b60887fc246b060b6931a08e2bc434c0000000000000000000000000000000000000000000000000000000000000001",
        "nonce": "0x151",
        "chainId": "0x2105"
      },
      "additionalContracts": [],
      "isFixedGasLimit": false
    },
    {
      "hash": "0xfead4f18f99220bb6133eba4c08cc6a3de1a820abcfcef03208229bc50adb48b",
      "transactionType": "CALL",
      "contractName": null,
      "contractAddress": "0xcb4d153604a6f21ff7625e5044e89c3b903599bc",
      "function": "setWhitelistedUser(address,bool)",
      "arguments": [
        "0x65b142550aE82f4BB3792E1eEfb2FC35541A3837",
        "true"
      ],
      "transaction": {
        "from": "0xb819a871d20913839c37f316dc914b0570bfc0ee",
        "to": "0xcb4d153604a6f21ff7625e5044e89c3b903599bc",
        "gas": "0x11d0b",
        "value": "0x0",
        "input": "0x44710fbe00000000000000000000000065b142550ae82f4bb3792e1eefb2fc35541a38370000000000000000000000000000000000000000000000000000000000000001",
        "nonce": "0x152",
        "chainId": "0x2105"
      },
      "additionalContracts": [],
      "isFixedGasLimit": false
    },
    {
      "hash": "0xc36e47c217fa24680f2769c236390ecc1dcfde57559c161d74f635f3d7b71bc6",
      "transactionType": "CALL",
      "contractName": null,
      "contractAddress": "0xcb4d153604a6f21ff7625e5044e89c3b903599bc",
      "function": "setWhitelistedUser(address,bool)",
      "arguments": [
        "0x75149feEBb20E1fE5Ddb89302a6d4bACE70c14Ce",
        "true"
      ],
      "transaction": {
        "from": "0xb819a871d20913839c37f316dc914b0570bfc0ee",
        "to": "0xcb4d153604a6f21ff7625e5044e89c3b903599bc",
        "gas": "0x11d0b",
        "value": "0x0",
        "input": "0x44710fbe00000000000000000000000075149feebb20e1fe5ddb89302a6d4bace70c14ce0000000000000000000000000000000000000000000000000000000000000001",
        "nonce": "0x153",
        "chainId": "0x2105"
      },
      "additionalContracts": [],
      "isFixedGasLimit": false
    },
    {
      "hash": "0x95ee8dac3d666aa8357ce594377276c34562edaf29c2c67e9134a529bf540969",
      "transactionType": "CALL",
      "contractName": null,
      "contractAddress": "0xcb4d153604a6f21ff7625e5044e89c3b903599bc",
      "function": "setWhitelistedUser(address,bool)",
      "arguments": [
        "0x65B6D4770DAdcFba6d363dE86aA4D9c76283cea0",
        "true"
      ],
      "transaction": {
        "from": "0xb819a871d20913839c37f316dc914b0570bfc0ee",
        "to": "0xcb4d153604a6f21ff7625e5044e89c3b903599bc",
        "gas": "0x11d0b",
        "value": "0x0",
        "input": "0x44710fbe00000000000000000000000065b6d4770dadcfba6d363de86aa4d9c76283cea00000000000000000000000000000000000000000000000000000000000000001",
        "nonce": "0x154",
        "chainId": "0x2105"
      },
      "additionalContracts": [],
      "isFixedGasLimit": false
    },
    {
      "hash": "0x394bf0bd7cb93cb9b4b31df1c75d5c024e0cfbaee14719e1739f655d036e9613",
      "transactionType": "CALL",
      "contractName": null,
      "contractAddress": "0xcb4d153604a6f21ff7625e5044e89c3b903599bc",
      "function": "setWhitelistedUser(address,bool)",
      "arguments": [
        "0xa6A9fdDC94BB4FE7520A2eA1CC2c433e18683342",
        "true"
      ],
      "transaction": {
        "from": "0xb819a871d20913839c37f316dc914b0570bfc0ee",
        "to": "0xcb4d153604a6f21ff7625e5044e89c3b903599bc",
        "gas": "0x11d0b",
        "value": "0x0",
        "input": "0x44710fbe000000000000000000000000a6a9fddc94bb4fe7520a2ea1cc2c433e186833420000000000000000000000000000000000000000000000000000000000000001",
        "nonce": "0x155",
        "chainId": "0x2105"
      },
      "additionalContracts": [],
      "isFixedGasLimit": false
    },
    {
      "hash": "0xc3c38816b8844dd857f2353e52493a7857f86c837388ac625b8e266b018660b8",
      "transactionType": "CALL",
      "contractName": null,
      "contractAddress": "0xcb4d153604a6f21ff7625e5044e89c3b903599bc",
      "function": "setWhitelistedUser(address,bool)",
      "arguments": [
        "0x18D04F05f80ADE5373849385a1c24E1E0a6d1744",
        "true"
      ],
      "transaction": {
        "from": "0xb819a871d20913839c37f316dc914b0570bfc0ee",
        "to": "0xcb4d153604a6f21ff7625e5044e89c3b903599bc",
        "gas": "0x11d0b",
        "value": "0x0",
        "input": "0x44710fbe00000000000000000000000018d04f05f80ade5373849385a1c24e1e0a6d17440000000000000000000000000000000000000000000000000000000000000001",
        "nonce": "0x156",
        "chainId": "0x2105"
      },
      "additionalContracts": [],
      "isFixedGasLimit": false
    },
    {
      "hash": "0x48d2adf5132924ea885a5600ecc5f481ca9237ad3a2975d7ab5d218ccfd9aab1",
      "transactionType": "CALL",
      "contractName": null,
      "contractAddress": "0xcb4d153604a6f21ff7625e5044e89c3b903599bc",
      "function": "setWhitelistedUser(address,bool)",
      "arguments": [
        "0xBD9C90D6774CB5320B54Bb7998b6Bcc5e4A9071f",
        "true"
      ],
      "transaction": {
        "from": "0xb819a871d20913839c37f316dc914b0570bfc0ee",
        "to": "0xcb4d153604a6f21ff7625e5044e89c3b903599bc",
        "gas": "0x11d0b",
        "value": "0x0",
        "input": "0x44710fbe000000000000000000000000bd9c90d6774cb5320b54bb7998b6bcc5e4a9071f0000000000000000000000000000000000000000000000000000000000000001",
        "nonce": "0x157",
        "chainId": "0x2105"
      },
      "additionalContracts": [],
      "isFixedGasLimit": false
    },
    {
      "hash": "0xf441389d2206188e2eba2ab20a1e2c1e0fdfb2507bf21dc886ffe79618b004d3",
      "transactionType": "CALL",
      "contractName": null,
      "contractAddress": "0xcb4d153604a6f21ff7625e5044e89c3b903599bc",
      "function": "setWhitelistedUser(address,bool)",
      "arguments": [
        "0x8f2eABa31B1b613ca78F2795bA05400F0583c5A4",
        "true"
      ],
      "transaction": {
        "from": "0xb819a871d20913839c37f316dc914b0570bfc0ee",
        "to": "0xcb4d153604a6f21ff7625e5044e89c3b903599bc",
        "gas": "0x11d0b",
        "value": "0x0",
        "input": "0x44710fbe0000000000000000000000008f2eaba31b1b613ca78f2795ba05400f0583c5a40000000000000000000000000000000000000000000000000000000000000001",
        "nonce": "0x158",
        "chainId": "0x2105"
      },
      "additionalContracts": [],
      "isFixedGasLimit": false
    },
    {
      "hash": "0x52eb3b3d91f255e17ad02b022210c72d0db4c6a232be58ce5403a91a3b92a935",
      "transactionType": "CALL",
      "contractName": null,
      "contractAddress": "0xcb4d153604a6f21ff7625e5044e89c3b903599bc",
      "function": "setWhitelistedUser(address,bool)",
      "arguments": [
        "0x8f2eABa31B1b613ca78F2795bA05400F0583c5A4",
        "true"
      ],
      "transaction": {
        "from": "0xb819a871d20913839c37f316dc914b0570bfc0ee",
        "to": "0xcb4d153604a6f21ff7625e5044e89c3b903599bc",
        "gas": "0xbc21",
        "value": "0x0",
        "input": "0x44710fbe0000000000000000000000008f2eaba31b1b613ca78f2795ba05400f0583c5a40000000000000000000000000000000000000000000000000000000000000001",
        "nonce": "0x159",
        "chainId": "0x2105"
      },
      "additionalContracts": [],
      "isFixedGasLimit": false
    },
    {
      "hash": "0xd84e74d136d7f41e1eb1cd29a218dda95780606adfe65b5f71ccb2f6602bad46",
      "transactionType": "CALL",
      "contractName": null,
      "contractAddress": "0xcb4d153604a6f21ff7625e5044e89c3b903599bc",
      "function": "setWhitelistedUser(address,bool)",
      "arguments": [
        "0x50d8Deadd2b3140B151CaB2C4FB76F1f59b236F8",
        "true"
      ],
      "transaction": {
        "from": "0xb819a871d20913839c37f316dc914b0570bfc0ee",
        "to": "0xcb4d153604a6f21ff7625e5044e89c3b903599bc",
        "gas": "0xbc21",
        "value": "0x0",
        "input": "0x44710fbe00000000000000000000000050d8deadd2b3140b151cab2c4fb76f1f59b236f80000000000000000000000000000000000000000000000000000000000000001",
        "nonce": "0x15a",
        "chainId": "0x2105"
      },
      "additionalContracts": [],
      "isFixedGasLimit": false
    },
    {
      "hash": "0x9f7801cbe5de377f622a62ba199d1db3e8fc6736376bd477d07e50e390b8b927",
      "transactionType": "CALL",
      "contractName": null,
      "contractAddress": "0xcb4d153604a6f21ff7625e5044e89c3b903599bc",
      "function": "setWhitelistedUser(address,bool)",
      "arguments": [
        "0x574582C44e3f1EF2cB29a7131B057FebBCC8244E",
        "true"
      ],
      "transaction": {
        "from": "0xb819a871d20913839c37f316dc914b0570bfc0ee",
        "to": "0xcb4d153604a6f21ff7625e5044e89c3b903599bc",
        "gas": "0xbc21",
        "value": "0x0",
        "input": "0x44710fbe000000000000000000000000574582c44e3f1ef2cb29a7131b057febbcc8244e0000000000000000000000000000000000000000000000000000000000000001",
        "nonce": "0x15b",
        "chainId": "0x2105"
      },
      "additionalContracts": [],
      "isFixedGasLimit": false
    },
    {
      "hash": "0xa44252ed0c549fd9c33838c9b1074412d9549399f10cd315202aff86d1170897",
      "transactionType": "CALL",
      "contractName": null,
      "contractAddress": "0xcb4d153604a6f21ff7625e5044e89c3b903599bc",
      "function": "setWhitelistedUser(address,bool)",
      "arguments": [
        "0xBd0Ce952bA069A1e15f3bf3916d4B07bBBdBC8B3",
        "true"
      ],
      "transaction": {
        "from": "0xb819a871d20913839c37f316dc914b0570bfc0ee",
        "to": "0xcb4d153604a6f21ff7625e5044e89c3b903599bc",
        "gas": "0x11d0b",
        "value": "0x0",
        "input": "0x44710fbe000000000000000000000000bd0ce952ba069a1e15f3bf3916d4b07bbbdbc8b30000000000000000000000000000000000000000000000000000000000000001",
        "nonce": "0x15c",
        "chainId": "0x2105"
      },
      "additionalContracts": [],
      "isFixedGasLimit": false
    }
  ],
  "receipts": [
    {
      "status": "0x1",
      "cumulativeGasUsed": "0x2e16d39",
      "logs": [
        {
          "address": "0xcb4d153604a6f21ff7625e5044e89c3b903599bc",
          "topics": [
            "0x4059c608a8f17b9b24a5a29662eb74934d39ea92ae22411868f07fcac29487a0",
            "0x000000000000000000000000f20a8950c368ec48323092d6e4acf90aadf2bdc6"
          ],
          "data": "0x0000000000000000000000000000000000000000000000000000000000000001",
          "blockHash": "0xc36004e36500504f4bad73eeb824b505a40754ba0e03f99e836fc979eaf4db38",
          "blockNumber": "0x1cea49d",
          "blockTimestamp": "0x6827a61d",
          "transactionHash": "0xe21540b459acfd62e0db527ca07822bd984593cef617267dac989bce675d24c6",
          "transactionIndex": "0xa2",
          "logIndex": "0x1bf",
          "removed": false
        }
      ],
      "logsBloom": "0x00000000000000000000000000000000000000000000000000000000000000000000000000000000000000020000000000000000000000000000000000000000000000000000000000000000000000000000000000000000000000000000000000000000000000000000000000000400000000000000000000000000000000000000000000000000000000000000000000000000000000000000000000000000000000000040000000000000000000000000020000000000000000000000000000010000000000000000000000000000000000000000004000001000004000000000000000008000000000000000000000000000000000000000000000000000",
      "type": "0x2",
      "transactionHash": "0xe21540b459acfd62e0db527ca07822bd984593cef617267dac989bce675d24c6",
      "transactionIndex": "0xa2",
      "blockHash": "0xc36004e36500504f4bad73eeb824b505a40754ba0e03f99e836fc979eaf4db38",
      "blockNumber": "0x1cea49d",
      "gasUsed": "0xce5f",
      "effectiveGasPrice": "0x1250e6",
      "from": "0xb819a871d20913839c37f316dc914b0570bfc0ee",
      "to": "0xcb4d153604a6f21ff7625e5044e89c3b903599bc",
      "contractAddress": null,
      "l1BaseFeeScalar": "0x8dd",
      "l1BlobBaseFee": "0x1",
      "l1BlobBaseFeeScalar": "0x101c12",
      "l1Fee": "0x167fad8e5",
      "l1GasPrice": "0x63283671",
      "l1GasUsed": "0x640"
    },
    {
      "status": "0x1",
      "cumulativeGasUsed": "0x1e498f1",
      "logs": [
        {
          "address": "0xcb4d153604a6f21ff7625e5044e89c3b903599bc",
          "topics": [
            "0x4059c608a8f17b9b24a5a29662eb74934d39ea92ae22411868f07fcac29487a0",
            "0x0000000000000000000000008e72a24221517e51502f20f387415a06b27a5b51"
          ],
          "data": "0x0000000000000000000000000000000000000000000000000000000000000001",
          "blockHash": "0x5e9decbc660ce9ca3643fb107bf120e2768d01fec2618389dc319c73db832d6f",
          "blockNumber": "0x1cea49e",
          "blockTimestamp": "0x6827a61f",
          "transactionHash": "0xad5a51ceaf421e23ffd99f41d5a5031d7e7a1cfd5e9806b66192c6357710aad5",
          "transactionIndex": "0x64",
          "logIndex": "0x254",
          "removed": false
        }
      ],
      "logsBloom": "0x00000000000000000000000000000000000000000000000000000000000000000000000000000000000000020000000000000000000000000000000000000000000000000000000000000000000000000000000000000000000000000000000000000000000000000000000000000400000000000000000000000800000000000000000000000000000000000000000000000000000000000000000000020000000000000040000000000000000000000000000000000000000000000000000000010000000000000000000000000000000000000001004000000000000000000000000000008000000000000000000000000000000000000000000000000000",
      "type": "0x2",
      "transactionHash": "0xad5a51ceaf421e23ffd99f41d5a5031d7e7a1cfd5e9806b66192c6357710aad5",
      "transactionIndex": "0x64",
      "blockHash": "0x5e9decbc660ce9ca3643fb107bf120e2768d01fec2618389dc319c73db832d6f",
      "blockNumber": "0x1cea49e",
      "gasUsed": "0xce5f",
      "effectiveGasPrice": "0x125b16",
      "from": "0xb819a871d20913839c37f316dc914b0570bfc0ee",
      "to": "0xcb4d153604a6f21ff7625e5044e89c3b903599bc",
      "contractAddress": null,
      "l1BaseFeeScalar": "0x8dd",
      "l1BlobBaseFee": "0x1",
      "l1BlobBaseFeeScalar": "0x101c12",
      "l1Fee": "0x17619f301",
      "l1GasPrice": "0x670bffb1",
      "l1GasUsed": "0x640"
    },
    {
      "status": "0x1",
      "cumulativeGasUsed": "0x2bf9472",
      "logs": [
        {
          "address": "0xcb4d153604a6f21ff7625e5044e89c3b903599bc",
          "topics": [
            "0x4059c608a8f17b9b24a5a29662eb74934d39ea92ae22411868f07fcac29487a0",
            "0x00000000000000000000000050d8deadd2b3140b151cab2c4fb76f1f59b236f8"
          ],
          "data": "0x0000000000000000000000000000000000000000000000000000000000000001",
          "blockHash": "0x77275503bed476ac3b21c6a7b979d1a0216a4cbc5fc1bcec8dd185221f899bef",
          "blockNumber": "0x1cea4a0",
          "blockTimestamp": "0x6827a623",
          "transactionHash": "0xc50736eea51045e9fe96008dd8d83546a7e064bb04a7d036280368efb6997b3d",
          "transactionIndex": "0x84",
          "logIndex": "0x193",
          "removed": false
        }
      ],
      "logsBloom": "0x00000000000000000000000000000000000000000000200000000000000000000000000000000000000000020000000000000000000000000000000000000000000000000000000000000000000000000000000000000000000000000000000000000000000000000000000000000400000000000000000000000000020000000000000000000000000000000000000000000000000000000000000000000000000000000040000000000000000000000000000000000000000000000000000000010000000000000000000000000000000000000000004000000000000000000000000000808000000000000000000000000000000000000000000000000000",
      "type": "0x2",
      "transactionHash": "0xc50736eea51045e9fe96008dd8d83546a7e064bb04a7d036280368efb6997b3d",
      "transactionIndex": "0x84",
      "blockHash": "0x77275503bed476ac3b21c6a7b979d1a0216a4cbc5fc1bcec8dd185221f899bef",
      "blockNumber": "0x1cea4a0",
      "gasUsed": "0xce5f",
      "effectiveGasPrice": "0x124fd2",
      "from": "0xb819a871d20913839c37f316dc914b0570bfc0ee",
      "to": "0xcb4d153604a6f21ff7625e5044e89c3b903599bc",
      "contractAddress": null,
      "l1BaseFeeScalar": "0x8dd",
      "l1BlobBaseFee": "0x1",
      "l1BlobBaseFeeScalar": "0x101c12",
      "l1Fee": "0x17619f301",
      "l1GasPrice": "0x670bffb1",
      "l1GasUsed": "0x640"
    },
    {
      "status": "0x1",
      "cumulativeGasUsed": "0x5039bfa",
      "logs": [
        {
          "address": "0xcb4d153604a6f21ff7625e5044e89c3b903599bc",
          "topics": [
            "0x4059c608a8f17b9b24a5a29662eb74934d39ea92ae22411868f07fcac29487a0",
            "0x000000000000000000000000574582c44e3f1ef2cb29a7131b057febbcc8244e"
          ],
          "data": "0x0000000000000000000000000000000000000000000000000000000000000001",
          "blockHash": "0xf4753bcb421711463ad3a7ec139bd7f7e593d6a8c4f9affa18bd9deb21e4d9a2",
          "blockNumber": "0x1cea4a3",
          "blockTimestamp": "0x6827a629",
          "transactionHash": "0x1162d331ef4f4595e775520c5682964842996b44effc94d7699222fa4d9ab8d5",
          "transactionIndex": "0x128",
          "logIndex": "0x4a0",
          "removed": false
        }
      ],
      "logsBloom": "0x00000000000000000000000000000000000000000000000000000000000000000000000000000000000000020000000000000000000000000000000000000000000000000000200000000000000000000000000000000000000000000000000000000000000000000000000000000400000000000000000000000000000000000000000000000000000000100000000000000000000000000000000000000000004000000040000000000000000000000000000000000000000000000000000000010000000000000000000000000000000000000000004000000000000000000000000000008000000000000000000000000000000000000000000000000000",
      "type": "0x2",
      "transactionHash": "0x1162d331ef4f4595e775520c5682964842996b44effc94d7699222fa4d9ab8d5",
      "transactionIndex": "0x128",
      "blockHash": "0xf4753bcb421711463ad3a7ec139bd7f7e593d6a8c4f9affa18bd9deb21e4d9a2",
      "blockNumber": "0x1cea4a3",
      "gasUsed": "0xce5f",
      "effectiveGasPrice": "0x124995",
      "from": "0xb819a871d20913839c37f316dc914b0570bfc0ee",
      "to": "0xcb4d153604a6f21ff7625e5044e89c3b903599bc",
      "contractAddress": null,
      "l1BaseFeeScalar": "0x8dd",
      "l1BlobBaseFee": "0x1",
      "l1BlobBaseFeeScalar": "0x101c12",
      "l1Fee": "0x17619f301",
      "l1GasPrice": "0x670bffb1",
      "l1GasUsed": "0x640"
    },
    {
      "status": "0x1",
      "cumulativeGasUsed": "0x30c5ada",
      "logs": [
        {
          "address": "0xcb4d153604a6f21ff7625e5044e89c3b903599bc",
          "topics": [
            "0x4059c608a8f17b9b24a5a29662eb74934d39ea92ae22411868f07fcac29487a0",
            "0x000000000000000000000000281567fe62b587ec1755f6f33b80160f544dc5d0"
          ],
          "data": "0x0000000000000000000000000000000000000000000000000000000000000001",
          "blockHash": "0x455f4985297cdd653eeb9cc694de001fdf5b85ea23472043ab22a2fbdc8f869f",
          "blockNumber": "0x1cea4a5",
          "blockTimestamp": "0x6827a62d",
          "transactionHash": "0x445cdcb032398c988f2fa953424c7834daf77d4dc96fdf2c9078771fa83b8980",
          "transactionIndex": "0x9d",
          "logIndex": "0x2f5",
          "removed": false
        }
      ],
      "logsBloom": "0x00200000000000000000000000000000000000000000000000000000000000000000000000000000000000020000000000000000000000000000000000000000000000000000000000000000000000000000000000000000000000000002000000000000000000000000000000000400000000000000000000000000000000000000000000000000000000000000000000000000800000000000000000000000000000000040000000000000000000000000000000000000000000000000000000010000000000000000000000000000000000000000004000000000000000000000000000008000000000000000000000000000000000000000000000000000",
      "type": "0x2",
      "transactionHash": "0x445cdcb032398c988f2fa953424c7834daf77d4dc96fdf2c9078771fa83b8980",
      "transactionIndex": "0x9d",
      "blockHash": "0x455f4985297cdd653eeb9cc694de001fdf5b85ea23472043ab22a2fbdc8f869f",
      "blockNumber": "0x1cea4a5",
      "gasUsed": "0xce5f",
      "effectiveGasPrice": "0x12493a",
      "from": "0xb819a871d20913839c37f316dc914b0570bfc0ee",
      "to": "0xcb4d153604a6f21ff7625e5044e89c3b903599bc",
      "contractAddress": null,
      "l1BaseFeeScalar": "0x8dd",
      "l1BlobBaseFee": "0x1",
      "l1BlobBaseFeeScalar": "0x101c12",
      "l1Fee": "0x183976c14",
      "l1GasPrice": "0x6ac34391",
      "l1GasUsed": "0x640"
    },
    {
      "status": "0x1",
      "cumulativeGasUsed": "0x4fd54a2",
      "logs": [
        {
          "address": "0xcb4d153604a6f21ff7625e5044e89c3b903599bc",
          "topics": [
            "0x4059c608a8f17b9b24a5a29662eb74934d39ea92ae22411868f07fcac29487a0",
            "0x0000000000000000000000002705f6a8f01bd4a805d9fc73151dbe37bb8d1ede"
          ],
          "data": "0x0000000000000000000000000000000000000000000000000000000000000001",
          "blockHash": "0x911eff27466c0f8e359f14cca8968ad90b754492a15e45e23245ec04f26b8bc8",
          "blockNumber": "0x1cea4a8",
          "blockTimestamp": "0x6827a633",
          "transactionHash": "0xa6565a19b416853a809809e239a0d195e2c0e93b12dc145951705c6013171ec0",
          "transactionIndex": "0xcc",
          "logIndex": "0x43b",
          "removed": false
        }
      ],
      "logsBloom": "0x00000000000000000000000000000000000000000000000000000000000040000000000000000000000000020000000000000000000000000000000000000000000000000000000000000000000000000000000000000040000000000000000000000000000000000000000000000400000000000000000000000040000000000000000000000000000000000000000000000000000000000000000000000000000000000040000000000000000000000000000000000000000000000000000000010000000000000000000000000000000000000000004000000000000000000000000000008000000000000000000000000000000000000000000000000000",
      "type": "0x2",
      "transactionHash": "0xa6565a19b416853a809809e239a0d195e2c0e93b12dc145951705c6013171ec0",
      "transactionIndex": "0xcc",
      "blockHash": "0x911eff27466c0f8e359f14cca8968ad90b754492a15e45e23245ec04f26b8bc8",
      "blockNumber": "0x1cea4a8",
      "gasUsed": "0xce5f",
      "effectiveGasPrice": "0x12363c",
      "from": "0xb819a871d20913839c37f316dc914b0570bfc0ee",
      "to": "0xcb4d153604a6f21ff7625e5044e89c3b903599bc",
      "contractAddress": null,
      "l1BaseFeeScalar": "0x8dd",
      "l1BlobBaseFee": "0x1",
      "l1BlobBaseFeeScalar": "0x101c12",
      "l1Fee": "0x183976c14",
      "l1GasPrice": "0x6ac34391",
      "l1GasUsed": "0x640"
    },
    {
      "status": "0x1",
      "cumulativeGasUsed": "0x2d243b9",
      "logs": [
        {
          "address": "0xcb4d153604a6f21ff7625e5044e89c3b903599bc",
          "topics": [
            "0x4059c608a8f17b9b24a5a29662eb74934d39ea92ae22411868f07fcac29487a0",
            "0x000000000000000000000000c9c9693b6a445d05add0043662fad9ac600ad088"
          ],
          "data": "0x0000000000000000000000000000000000000000000000000000000000000001",
          "blockHash": "0x111d9019acd06838fd869389948d0863a6b1aefdcaf259ab46fc5bc465e2dea0",
          "blockNumber": "0x1cea4aa",
          "blockTimestamp": "0x6827a637",
          "transactionHash": "0xfa1867de7005e5a3f7f09b4cc75e39372de117a293de01703997024803ff74df",
          "transactionIndex": "0xb7",
          "logIndex": "0x3bd",
          "removed": false
        }
      ],
      "logsBloom": "0x00000000000000000000000000000000000000000000000000000000000000000000000010000000000000020000000000000000000000000000000000000000000000000000000000000000000000000000000000000000000000000000000000000000000000000000000000000400000000000000000000000000000000000000000000000000000000000000000000000000000000000000000000000000000000001040000000000000000000000000000000000000000000000000000000010001000000000000000000000000000000000000004000000000000000000000000000008000000000000000000000000000000000000000000000000000",
      "type": "0x2",
      "transactionHash": "0xfa1867de7005e5a3f7f09b4cc75e39372de117a293de01703997024803ff74df",
      "transactionIndex": "0xb7",
      "blockHash": "0x111d9019acd06838fd869389948d0863a6b1aefdcaf259ab46fc5bc465e2dea0",
      "blockNumber": "0x1cea4aa",
      "gasUsed": "0xce5f",
      "effectiveGasPrice": "0x1244e8",
      "from": "0xb819a871d20913839c37f316dc914b0570bfc0ee",
      "to": "0xcb4d153604a6f21ff7625e5044e89c3b903599bc",
      "contractAddress": null,
      "l1BaseFeeScalar": "0x8dd",
      "l1BlobBaseFee": "0x1",
      "l1BlobBaseFeeScalar": "0x101c12",
      "l1Fee": "0x17a1bba45",
      "l1GasPrice": "0x68268d1e",
      "l1GasUsed": "0x640"
    },
    {
      "status": "0x1",
      "cumulativeGasUsed": "0x28c8af9",
      "logs": [
        {
          "address": "0xcb4d153604a6f21ff7625e5044e89c3b903599bc",
          "topics": [
            "0x4059c608a8f17b9b24a5a29662eb74934d39ea92ae22411868f07fcac29487a0",
            "0x0000000000000000000000007efe40b2e6da8b28aab6bd2d622b9cd7f5fe077c"
          ],
          "data": "0x0000000000000000000000000000000000000000000000000000000000000001",
          "blockHash": "0x10be2e1441898bc5fdd0019ef9dd35606d87511c0c2401178cfbafe2612a8224",
          "blockNumber": "0x1cea4ac",
          "blockTimestamp": "0x6827a63b",
          "transactionHash": "0x740e7b9793a37ce1f7c4ed5a3bca0f1025890211b980c84231291e9f9d9dc3b1",
          "transactionIndex": "0x8e",
          "logIndex": "0x18b",
          "removed": false
        }
      ],
      "logsBloom": "0x00000000000000000000000000000000000000000000000000000000000000000000000000000000000000020000000000000000000000000000000000000000000000000000000000080000000000000000000000000000000000000000000000000000000000000000000000000400000000000000000000000000000000000000000200000000000000000000000000000000000000000000000000000000000000000040000000000000000000000000000000000000000000000000000000010000000000000000000000000000000000800000004000000000000000000000000000008000000000000000000000000000000000000000000000000000",
      "type": "0x2",
      "transactionHash": "0x740e7b9793a37ce1f7c4ed5a3bca0f1025890211b980c84231291e9f9d9dc3b1",
      "transactionIndex": "0x8e",
      "blockHash": "0x10be2e1441898bc5fdd0019ef9dd35606d87511c0c2401178cfbafe2612a8224",
      "blockNumber": "0x1cea4ac",
      "gasUsed": "0xce5f",
      "effectiveGasPrice": "0x1240cd",
      "from": "0xb819a871d20913839c37f316dc914b0570bfc0ee",
      "to": "0xcb4d153604a6f21ff7625e5044e89c3b903599bc",
      "contractAddress": null,
      "l1BaseFeeScalar": "0x8dd",
      "l1BlobBaseFee": "0x1",
      "l1BlobBaseFeeScalar": "0x101c12",
      "l1Fee": "0x17a1bba45",
      "l1GasPrice": "0x68268d1e",
      "l1GasUsed": "0x640"
    },
    {
      "status": "0x1",
      "cumulativeGasUsed": "0x35ca1d8",
      "logs": [
        {
          "address": "0xcb4d153604a6f21ff7625e5044e89c3b903599bc",
          "topics": [
            "0x4059c608a8f17b9b24a5a29662eb74934d39ea92ae22411868f07fcac29487a0",
            "0x000000000000000000000000a22dcb8f0a2848289124086f35ae9db2a0006962"
          ],
          "data": "0x0000000000000000000000000000000000000000000000000000000000000001",
          "blockHash": "0x7afe37b629a22243db6ba180a0ef390be1f2d873028635b05944f209484f0c90",
          "blockNumber": "0x1cea4ae",
          "blockTimestamp": "0x6827a63f",
          "transactionHash": "0x37310afce6e969546595f793ca7ee69083234a870e2523769531f651eba56758",
          "transactionIndex": "0x78",
          "logIndex": "0x23f",
          "removed": false
        }
      ],
      "logsBloom": "0x00000000000000000100000000000000000000000000000000000000000000000000000000000000000000020000000000000000000000000000000000000000000000100000000000000000000000000000000000000000000000000000000000000000000000000000000000000400000000000000000000000000000000000000000000000000000000000000000000000000000000200000000000000000000000000040000000000000000000000000000000000000000000000000000000010000000000000000000000000000000000000000004000000000000000000000000000008000000000000000000000000000000000000000000000000000",
      "type": "0x2",
      "transactionHash": "0x37310afce6e969546595f793ca7ee69083234a870e2523769531f651eba56758",
      "transactionIndex": "0x78",
      "blockHash": "0x7afe37b629a22243db6ba180a0ef390be1f2d873028635b05944f209484f0c90",
      "blockNumber": "0x1cea4ae",
      "gasUsed": "0xce53",
      "effectiveGasPrice": "0x1239a7",
      "from": "0xb819a871d20913839c37f316dc914b0570bfc0ee",
      "to": "0xcb4d153604a6f21ff7625e5044e89c3b903599bc",
      "contractAddress": null,
      "l1BaseFeeScalar": "0x8dd",
      "l1BlobBaseFee": "0x1",
      "l1BlobBaseFeeScalar": "0x101c12",
      "l1Fee": "0x17a1bba45",
      "l1GasPrice": "0x68268d1e",
      "l1GasUsed": "0x640"
    },
    {
      "status": "0x1",
      "cumulativeGasUsed": "0x47744c4",
      "logs": [
        {
          "address": "0xcb4d153604a6f21ff7625e5044e89c3b903599bc",
          "topics": [
            "0x4059c608a8f17b9b24a5a29662eb74934d39ea92ae22411868f07fcac29487a0",
            "0x000000000000000000000000b819a871d20913839c37f316dc914b0570bfc0ee"
          ],
          "data": "0x0000000000000000000000000000000000000000000000000000000000000001",
          "blockHash": "0xd85011f354bd0713602905cacb21c5f01c3748055d134f17231b1938d21fb098",
          "blockNumber": "0x1cea4b0",
          "blockTimestamp": "0x6827a643",
          "transactionHash": "0x11998a99600437bec102f0b861bedd72f2e9d97ed0e19165c79c94c8683b5dce",
          "transactionIndex": "0xe7",
          "logIndex": "0x3ab",
          "removed": false
        }
      ],
      "logsBloom": "0x00000000000000000000000000000000000000000000000000000000000000000000000000000000000000020000000000000000000000000000000000000002000000000080000000000000000000000000000000000000000000000000000000000000000000000000000000000400000000000000000000000000000000000000000000000000000000000000000000000000000000000000000000000000000000000040000000000000000000000000000000000000000000000000000000010000000000000000000000000000000000000000004000000200000000000000000000008000000000000000000000000000000000000000000000000000",
      "type": "0x2",
      "transactionHash": "0x11998a99600437bec102f0b861bedd72f2e9d97ed0e19165c79c94c8683b5dce",
      "transactionIndex": "0xe7",
      "blockHash": "0xd85011f354bd0713602905cacb21c5f01c3748055d134f17231b1938d21fb098",
      "blockNumber": "0x1cea4b0",
      "gasUsed": "0xce5f",
      "effectiveGasPrice": "0x1235c0",
      "from": "0xb819a871d20913839c37f316dc914b0570bfc0ee",
      "to": "0xcb4d153604a6f21ff7625e5044e89c3b903599bc",
      "contractAddress": null,
      "l1BaseFeeScalar": "0x8dd",
      "l1BlobBaseFee": "0x1",
      "l1BlobBaseFeeScalar": "0x101c12",
      "l1Fee": "0x168becbae",
      "l1GasPrice": "0x635e2fde",
      "l1GasUsed": "0x640"
    },
    {
      "status": "0x1",
      "cumulativeGasUsed": "0x4085279",
      "logs": [
        {
          "address": "0xcb4d153604a6f21ff7625e5044e89c3b903599bc",
          "topics": [
            "0x4059c608a8f17b9b24a5a29662eb74934d39ea92ae22411868f07fcac29487a0",
            "0x00000000000000000000000040282d3cf4890d9806bc1853e97a59c93d813653"
          ],
          "data": "0x0000000000000000000000000000000000000000000000000000000000000001",
          "blockHash": "0x957e8f5c39e23a47ada3f8f0fb900dceb62a180e8e866028a840f17cc6aad73a",
          "blockNumber": "0x1cea4b2",
          "blockTimestamp": "0x6827a647",
          "transactionHash": "0x41251d820ad34761b7f072fb3e3da6fe7df8f1b7c94af3ff8912bd675d24cc01",
          "transactionIndex": "0xf1",
          "logIndex": "0x515",
          "removed": false
        }
      ],
      "logsBloom": "0x00000000000000000000000000000000000000000000000000000000000000000000004000000000000000020000000000000000000000000000000000000000000000000000000000000000000000000000000000000000000000000000000000000000000000000000000000000400000000000000000000000000000000000000000040000000000000000000000000000000000200000000000000000000000000000040000000000000000000000000000000000000000000000000000000010000000000000000000000000000000000000000004000000000000000000000000000008000000000000000000000000000000000000000000000000000",
      "type": "0x2",
      "transactionHash": "0x41251d820ad34761b7f072fb3e3da6fe7df8f1b7c94af3ff8912bd675d24cc01",
      "transactionIndex": "0xf1",
      "blockHash": "0x957e8f5c39e23a47ada3f8f0fb900dceb62a180e8e866028a840f17cc6aad73a",
      "blockNumber": "0x1cea4b2",
      "gasUsed": "0xce5f",
      "effectiveGasPrice": "0x1235be",
      "from": "0xb819a871d20913839c37f316dc914b0570bfc0ee",
      "to": "0xcb4d153604a6f21ff7625e5044e89c3b903599bc",
      "contractAddress": null,
      "l1BaseFeeScalar": "0x8dd",
      "l1BlobBaseFee": "0x1",
      "l1BlobBaseFeeScalar": "0x101c12",
      "l1Fee": "0x168becbae",
      "l1GasPrice": "0x635e2fde",
      "l1GasUsed": "0x640"
    },
    {
      "status": "0x1",
      "cumulativeGasUsed": "0x3f65f20",
      "logs": [
        {
          "address": "0xcb4d153604a6f21ff7625e5044e89c3b903599bc",
          "topics": [
            "0x4059c608a8f17b9b24a5a29662eb74934d39ea92ae22411868f07fcac29487a0",
            "0x000000000000000000000000b5b901f1bb86421301138b5c45c1d3fe96663161"
          ],
          "data": "0x0000000000000000000000000000000000000000000000000000000000000001",
          "blockHash": "0x84911450f57a8093d6adf013b3e39f515170f0bb73dd8a900ab64dca02ab615b",
          "blockNumber": "0x1cea4b5",
          "blockTimestamp": "0x6827a64d",
          "transactionHash": "0x44685504d9bb40d71ac19b673a5d2039018c541aaf309abe5f2e3505044ea2ad",
          "transactionIndex": "0xc4",
          "logIndex": "0x2e1",
          "removed": false
        }
      ],
      "logsBloom": "0x00000000000000000000000000000000000000000000000000000000000000004000000000000000000000020000000000000000000000000000000000000000000000000000000000000000000000000000000000800000000000000000000000000000000000000000000000000400000000000000000000000000000000000000000000000000000000000000000000000000000000000000000000000000000000000040010000000000000000000000000000000000000000000000000000010000000000000000000000000000000000000000004000000000000000000000000000008000000000000000000000000000000000000000000000000000",
      "type": "0x2",
      "transactionHash": "0x44685504d9bb40d71ac19b673a5d2039018c541aaf309abe5f2e3505044ea2ad",
      "transactionIndex": "0xc4",
      "blockHash": "0x84911450f57a8093d6adf013b3e39f515170f0bb73dd8a900ab64dca02ab615b",
      "blockNumber": "0x1cea4b5",
      "gasUsed": "0xce5f",
      "effectiveGasPrice": "0x122969",
      "from": "0xb819a871d20913839c37f316dc914b0570bfc0ee",
      "to": "0xcb4d153604a6f21ff7625e5044e89c3b903599bc",
      "contractAddress": null,
      "l1BaseFeeScalar": "0x8dd",
      "l1BlobBaseFee": "0x1",
      "l1BlobBaseFeeScalar": "0x101c12",
      "l1Fee": "0x168becbae",
      "l1GasPrice": "0x635e2fde",
      "l1GasUsed": "0x640"
    },
    {
      "status": "0x1",
      "cumulativeGasUsed": "0x4386ca4",
      "logs": [
        {
          "address": "0xcb4d153604a6f21ff7625e5044e89c3b903599bc",
          "topics": [
            "0x4059c608a8f17b9b24a5a29662eb74934d39ea92ae22411868f07fcac29487a0",
            "0x000000000000000000000000baec8904499dcdee770c60df15b0c37eac84fb62"
          ],
          "data": "0x0000000000000000000000000000000000000000000000000000000000000001",
          "blockHash": "0x1690de06e8f77fd3d2e1803303b5c21173d755668bb75e189eaaaec707ddb8c5",
          "blockNumber": "0x1cea4b7",
          "blockTimestamp": "0x6827a651",
          "transactionHash": "0x2910ac3f6abaaf9266a57d4346ab446d68e3296082b84cd0ad9ffae092563311",
          "transactionIndex": "0xdd",
          "logIndex": "0x555",
          "removed": false
        }
      ],
      "logsBloom": "0x00000000000000000000000000000000000000000000000000000000000000000000000000000000000000020000000000000000000000000000000000000000000000000000800000000000000080000000000000000000000000000000000000000000000000000000000000000400000000000000000000000000000000000000000000000000000000000000000000000000000000000000000000000000000000000040000000000000000000000000000000000000000000000000000000010000000000000000000000000000008000000000004000000000000000000000000000008000000000000000000000000000000000000000000000000000",
      "type": "0x2",
      "transactionHash": "0x2910ac3f6abaaf9266a57d4346ab446d68e3296082b84cd0ad9ffae092563311",
      "transactionIndex": "0xdd",
      "blockHash": "0x1690de06e8f77fd3d2e1803303b5c21173d755668bb75e189eaaaec707ddb8c5",
      "blockNumber": "0x1cea4b7",
      "gasUsed": "0xce5f",
      "effectiveGasPrice": "0x1234e6",
      "from": "0xb819a871d20913839c37f316dc914b0570bfc0ee",
      "to": "0xcb4d153604a6f21ff7625e5044e89c3b903599bc",
      "contractAddress": null,
      "l1BaseFeeScalar": "0x8dd",
      "l1BlobBaseFee": "0x1",
      "l1BlobBaseFeeScalar": "0x101c12",
      "l1Fee": "0x1759c7deb",
      "l1GasPrice": "0x66e970fc",
      "l1GasUsed": "0x640"
    },
    {
      "status": "0x1",
      "cumulativeGasUsed": "0x30dd381",
      "logs": [
        {
          "address": "0xcb4d153604a6f21ff7625e5044e89c3b903599bc",
          "topics": [
            "0x4059c608a8f17b9b24a5a29662eb74934d39ea92ae22411868f07fcac29487a0",
            "0x000000000000000000000000fc4a23271b60887fc246b060b6931a08e2bc434c"
          ],
          "data": "0x0000000000000000000000000000000000000000000000000000000000000001",
          "blockHash": "0x23b45071d9943b69c042757eea5efac98275ec76e99effece582d2844c077aca",
          "blockNumber": "0x1cea4b9",
          "blockTimestamp": "0x6827a655",
          "transactionHash": "0xe4dccc8a84388b63f2768ba1c79195182c182590a1625f565a4ae7d7e91c0c76",
          "transactionIndex": "0xa1",
          "logIndex": "0x1cb",
          "removed": false
        }
      ],
      "logsBloom": "0x00000200000000000000000000000000000000000000000000000000000000000000000000000000000000020000000000000000000000000000000000000000000000000000020000000000000000000000000000000000000000004000000000000000000000000000000000000400000000000000000000000000000000000000000000000000000000000000000000000000000000000000000000000000000000000040000000000000000000000000000000000000000000000000000000010000000000000000000000000000000000000000004000000000000000000000000000008000000000000000000000000000000000000000000000000000",
      "type": "0x2",
      "transactionHash": "0xe4dccc8a84388b63f2768ba1c79195182c182590a1625f565a4ae7d7e91c0c76",
      "transactionIndex": "0xa1",
      "blockHash": "0x23b45071d9943b69c042757eea5efac98275ec76e99effece582d2844c077aca",
      "blockNumber": "0x1cea4b9",
      "gasUsed": "0xce5f",
      "effectiveGasPrice": "0x1234d2",
      "from": "0xb819a871d20913839c37f316dc914b0570bfc0ee",
      "to": "0xcb4d153604a6f21ff7625e5044e89c3b903599bc",
      "contractAddress": null,
      "l1BaseFeeScalar": "0x8dd",
      "l1BlobBaseFee": "0x1",
      "l1BlobBaseFeeScalar": "0x101c12",
      "l1Fee": "0x1759c7deb",
      "l1GasPrice": "0x66e970fc",
      "l1GasUsed": "0x640"
    },
    {
      "status": "0x1",
      "cumulativeGasUsed": "0x3463ef8",
      "logs": [
        {
          "address": "0xcb4d153604a6f21ff7625e5044e89c3b903599bc",
          "topics": [
            "0x4059c608a8f17b9b24a5a29662eb74934d39ea92ae22411868f07fcac29487a0",
            "0x00000000000000000000000065b142550ae82f4bb3792e1eefb2fc35541a3837"
          ],
          "data": "0x0000000000000000000000000000000000000000000000000000000000000001",
          "blockHash": "0xc7b36757960da5633b10e2620b76aa9c85daed6e24db826c05954dd6bb552773",
          "blockNumber": "0x1cea4ba",
          "blockTimestamp": "0x6827a657",
          "transactionHash": "0xfead4f18f99220bb6133eba4c08cc6a3de1a820abcfcef03208229bc50adb48b",
          "transactionIndex": "0xa8",
          "logIndex": "0x217",
          "removed": false
        }
      ],
      "logsBloom": "0x00000000000000000000000000000000000000000000000000000000000000000000000000000000000000020000000000000000000000000000000000000000000000000000000000000000000000000000000000000000000000000000000000000000000000000000000000000400000000000000000000000000000000000000000000000000000000000000000000000000000000000000000000000000000040000040000000000000000000080000000000000000000000000000000000010000000000000000000000000000000000000000004000000000008000000000000000008000000000000000000000000000000000000000000000000000",
      "type": "0x2",
      "transactionHash": "0xfead4f18f99220bb6133eba4c08cc6a3de1a820abcfcef03208229bc50adb48b",
      "transactionIndex": "0xa8",
      "blockHash": "0xc7b36757960da5633b10e2620b76aa9c85daed6e24db826c05954dd6bb552773",
      "blockNumber": "0x1cea4ba",
      "gasUsed": "0xce5f",
      "effectiveGasPrice": "0x123386",
      "from": "0xb819a871d20913839c37f316dc914b0570bfc0ee",
      "to": "0xcb4d153604a6f21ff7625e5044e89c3b903599bc",
      "contractAddress": null,
      "l1BaseFeeScalar": "0x8dd",
      "l1BlobBaseFee": "0x1",
      "l1BlobBaseFeeScalar": "0x101c12",
      "l1Fee": "0x1759c7deb",
      "l1GasPrice": "0x66e970fc",
      "l1GasUsed": "0x640"
    },
    {
      "status": "0x1",
      "cumulativeGasUsed": "0x28cd7ea",
      "logs": [
        {
          "address": "0xcb4d153604a6f21ff7625e5044e89c3b903599bc",
          "topics": [
            "0x4059c608a8f17b9b24a5a29662eb74934d39ea92ae22411868f07fcac29487a0",
            "0x00000000000000000000000075149feebb20e1fe5ddb89302a6d4bace70c14ce"
          ],
          "data": "0x0000000000000000000000000000000000000000000000000000000000000001",
          "blockHash": "0xbec206d989970b659b159399be100a2cb14355d487c1a55913c0db5245e70c80",
          "blockNumber": "0x1cea4bc",
          "blockTimestamp": "0x6827a65b",
          "transactionHash": "0xc36e47c217fa24680f2769c236390ecc1dcfde57559c161d74f635f3d7b71bc6",
          "transactionIndex": "0x67",
          "logIndex": "0x220",
          "removed": false
        }
      ],
      "logsBloom": "0x00000000000000200000000000000000000000000000000000000000000000000000000000000000040000020000000000000000000000000000000000000000000000000000000000000000000000000000000000000000000000000000000000000000000000000000000000000400000000000000000000000000000000000000000000000000000000000000000000000000000000000000000000000000000000000040000000000000000010000000000000000000000000000000000000010000000000000000000000000000000000000000004000000000000000000000000000008000000000000000000000000000000000000000000000000000",
      "type": "0x2",
      "transactionHash": "0xc36e47c217fa24680f2769c236390ecc1dcfde57559c161d74f635f3d7b71bc6",
      "transactionIndex": "0x67",
      "blockHash": "0xbec206d989970b659b159399be100a2cb14355d487c1a55913c0db5245e70c80",
      "blockNumber": "0x1cea4bc",
      "gasUsed": "0xce5f",
      "effectiveGasPrice": "0x123c1e",
      "from": "0xb819a871d20913839c37f316dc914b0570bfc0ee",
      "to": "0xcb4d153604a6f21ff7625e5044e89c3b903599bc",
      "contractAddress": null,
      "l1BaseFeeScalar": "0x8dd",
      "l1BlobBaseFee": "0x1",
      "l1BlobBaseFeeScalar": "0x101c12",
      "l1Fee": "0x17171a1a2",
      "l1GasPrice": "0x65c392a1",
      "l1GasUsed": "0x640"
    },
    {
      "status": "0x1",
      "cumulativeGasUsed": "0x324e3fd",
      "logs": [
        {
          "address": "0xcb4d153604a6f21ff7625e5044e89c3b903599bc",
          "topics": [
            "0x4059c608a8f17b9b24a5a29662eb74934d39ea92ae22411868f07fcac29487a0",
            "0x00000000000000000000000065b6d4770dadcfba6d363de86aa4d9c76283cea0"
          ],
          "data": "0x0000000000000000000000000000000000000000000000000000000000000001",
          "blockHash": "0x01556e39f2ca32b1e7f0774347666f3a339242dfd47f2d3b773f2f789463ab7b",
          "blockNumber": "0x1cea4be",
          "blockTimestamp": "0x6827a65f",
          "transactionHash": "0x95ee8dac3d666aa8357ce594377276c34562edaf29c2c67e9134a529bf540969",
          "transactionIndex": "0x72",
          "logIndex": "0x251",
          "removed": false
        }
      ],
      "logsBloom": "0x00000000800000000000000000000000000000000000000000000000000000000000000000000000000002020000000000000000000000000000000000000000000000000000000000000000000000000000000000000000000000000000000000000000000000000000000000000400000000000000000000000000000000000000000000000000000000000000000000000000000000000000000000000000000000000040000000000000000000000000000000000000000000000000000000010000000000000000000000000000002000000000004000000000000000000000000000008000000000000000000000000000000000000000000000000000",
      "type": "0x2",
      "transactionHash": "0x95ee8dac3d666aa8357ce594377276c34562edaf29c2c67e9134a529bf540969",
      "transactionIndex": "0x72",
      "blockHash": "0x01556e39f2ca32b1e7f0774347666f3a339242dfd47f2d3b773f2f789463ab7b",
      "blockNumber": "0x1cea4be",
      "gasUsed": "0xce5f",
      "effectiveGasPrice": "0x123373",
      "from": "0xb819a871d20913839c37f316dc914b0570bfc0ee",
      "to": "0xcb4d153604a6f21ff7625e5044e89c3b903599bc",
      "contractAddress": null,
      "l1BaseFeeScalar": "0x8dd",
      "l1BlobBaseFee": "0x1",
      "l1BlobBaseFeeScalar": "0x101c12",
      "l1Fee": "0x17171a1a2",
      "l1GasPrice": "0x65c392a1",
      "l1GasUsed": "0x640"
    },
    {
      "status": "0x1",
      "cumulativeGasUsed": "0x465620b",
      "logs": [
        {
          "address": "0xcb4d153604a6f21ff7625e5044e89c3b903599bc",
          "topics": [
            "0x4059c608a8f17b9b24a5a29662eb74934d39ea92ae22411868f07fcac29487a0",
            "0x000000000000000000000000a6a9fddc94bb4fe7520a2ea1cc2c433e18683342"
          ],
          "data": "0x0000000000000000000000000000000000000000000000000000000000000001",
          "blockHash": "0xa7eec27913269443a4ecfcea034b9e3e699731023f7445a778bacd290b8de523",
          "blockNumber": "0x1cea4c0",
          "blockTimestamp": "0x6827a663",
          "transactionHash": "0x394bf0bd7cb93cb9b4b31df1c75d5c024e0cfbaee14719e1739f655d036e9613",
          "transactionIndex": "0xa5",
          "logIndex": "0x4b0",
          "removed": false
        }
      ],
      "logsBloom": "0x00000000000040000000000000000000000000000000000000000000000000000000000000000000000000020000000000000000000000000000000000000000000000000000000000000000000000400000000000000000000000000000000000000000000000000000000000000400000000000000000000000000000000000000000000000000000000000000000000000000000000000000000000000000000000000040000002000000000000000000000000000000000000000000000000010000000000000000000000000000000000000000004000000000000000000000000000008000000000000000000000000000000000000000000000000000",
      "type": "0x2",
      "transactionHash": "0x394bf0bd7cb93cb9b4b31df1c75d5c024e0cfbaee14719e1739f655d036e9613",
      "transactionIndex": "0xa5",
      "blockHash": "0xa7eec27913269443a4ecfcea034b9e3e699731023f7445a778bacd290b8de523",
      "blockNumber": "0x1cea4c0",
      "gasUsed": "0xce5f",
      "effectiveGasPrice": "0x123411",
      "from": "0xb819a871d20913839c37f316dc914b0570bfc0ee",
      "to": "0xcb4d153604a6f21ff7625e5044e89c3b903599bc",
      "contractAddress": null,
      "l1BaseFeeScalar": "0x8dd",
      "l1BlobBaseFee": "0x1",
      "l1BlobBaseFeeScalar": "0x101c12",
      "l1Fee": "0x17171a1a2",
      "l1GasPrice": "0x65c392a1",
      "l1GasUsed": "0x640"
    },
    {
      "status": "0x1",
      "cumulativeGasUsed": "0x462e13d",
      "logs": [
        {
          "address": "0xcb4d153604a6f21ff7625e5044e89c3b903599bc",
          "topics": [
            "0x4059c608a8f17b9b24a5a29662eb74934d39ea92ae22411868f07fcac29487a0",
            "0x00000000000000000000000018d04f05f80ade5373849385a1c24e1e0a6d1744"
          ],
          "data": "0x0000000000000000000000000000000000000000000000000000000000000001",
          "blockHash": "0x9edc78096af81b240e88b413470297cec467c3a1030822dbe003a12566516023",
          "blockNumber": "0x1cea4c2",
          "blockTimestamp": "0x6827a667",
          "transactionHash": "0xc3c38816b8844dd857f2353e52493a7857f86c837388ac625b8e266b018660b8",
          "transactionIndex": "0xf2",
          "logIndex": "0x346",
          "removed": false
        }
      ],
      "logsBloom": "0x00000000000000000000000000000000000000000000000000000000000000000000000000000000000000020000000000000000000000000000000000000000000000000000000000000000000100000000000000000000000000000000000000000000000000000000000000000400000000000000000000000000000000000000000000000000000000000000000000000000000000000000000000000000000000000040000000000000000000000000000000000000000000000000000000010000000100000000000000000000000000000000004000000000000000000000000000008000000000000004000000000000000000000000000000000000",
      "type": "0x2",
      "transactionHash": "0xc3c38816b8844dd857f2353e52493a7857f86c837388ac625b8e266b018660b8",
      "transactionIndex": "0xf2",
      "blockHash": "0x9edc78096af81b240e88b413470297cec467c3a1030822dbe003a12566516023",
      "blockNumber": "0x1cea4c2",
      "gasUsed": "0xce5f",
      "effectiveGasPrice": "0x123315",
      "from": "0xb819a871d20913839c37f316dc914b0570bfc0ee",
      "to": "0xcb4d153604a6f21ff7625e5044e89c3b903599bc",
      "contractAddress": null,
      "l1BaseFeeScalar": "0x8dd",
      "l1BlobBaseFee": "0x1",
      "l1BlobBaseFeeScalar": "0x101c12",
      "l1Fee": "0x16224b888",
      "l1GasPrice": "0x618ca727",
      "l1GasUsed": "0x640"
    },
    {
      "status": "0x1",
      "cumulativeGasUsed": "0x31e0532",
      "logs": [
        {
          "address": "0xcb4d153604a6f21ff7625e5044e89c3b903599bc",
          "topics": [
            "0x4059c608a8f17b9b24a5a29662eb74934d39ea92ae22411868f07fcac29487a0",
            "0x000000000000000000000000bd9c90d6774cb5320b54bb7998b6bcc5e4a9071f"
          ],
          "data": "0x0000000000000000000000000000000000000000000000000000000000000001",
          "blockHash": "0x60c049e11f6570f4deac9d7cbf05c390f46b6f539aec463a00de86cf07365a18",
          "blockNumber": "0x1cea4c4",
          "blockTimestamp": "0x6827a66b",
          "transactionHash": "0x48d2adf5132924ea885a5600ecc5f481ca9237ad3a2975d7ab5d218ccfd9aab1",
          "transactionIndex": "0x9f",
          "logIndex": "0x3c4",
          "removed": false
        }
      ],
      "logsBloom": "0x00000000000000000000000000000000000000000000000000000000000000000000000000002000000000020000000000000000000040000000000000000000000000000000000000000000000000000000000000000000000000000000000000000000000000000000000000000400000000000000000000000000000000000000000000000000000000000000000000000000000000000000000000000000000000000040000000000000000000000000000000800000000000000000000000010000000000000000000000000000000000000000004000000000000000000000000000008000000000000000000000000000000000000000000000000000",
      "type": "0x2",
      "transactionHash": "0x48d2adf5132924ea885a5600ecc5f481ca9237ad3a2975d7ab5d218ccfd9aab1",
      "transactionIndex": "0x9f",
      "blockHash": "0x60c049e11f6570f4deac9d7cbf05c390f46b6f539aec463a00de86cf07365a18",
      "blockNumber": "0x1cea4c4",
      "gasUsed": "0xce5f",
      "effectiveGasPrice": "0x1231e6",
      "from": "0xb819a871d20913839c37f316dc914b0570bfc0ee",
      "to": "0xcb4d153604a6f21ff7625e5044e89c3b903599bc",
      "contractAddress": null,
      "l1BaseFeeScalar": "0x8dd",
      "l1BlobBaseFee": "0x1",
      "l1BlobBaseFeeScalar": "0x101c12",
      "l1Fee": "0x16224b888",
      "l1GasPrice": "0x618ca727",
      "l1GasUsed": "0x640"
    },
    {
      "status": "0x1",
      "cumulativeGasUsed": "0x39c7285",
      "logs": [
        {
          "address": "0xcb4d153604a6f21ff7625e5044e89c3b903599bc",
          "topics": [
            "0x4059c608a8f17b9b24a5a29662eb74934d39ea92ae22411868f07fcac29487a0",
            "0x0000000000000000000000008f2eaba31b1b613ca78f2795ba05400f0583c5a4"
          ],
          "data": "0x0000000000000000000000000000000000000000000000000000000000000001",
          "blockHash": "0xb193cd815102bf2e10203b8ae12f71d5888c075ea154429e6d236c7e8e671179",
          "blockNumber": "0x1cea4c6",
          "blockTimestamp": "0x6827a66f",
          "transactionHash": "0xf441389d2206188e2eba2ab20a1e2c1e0fdfb2507bf21dc886ffe79618b004d3",
          "transactionIndex": "0xee",
          "logIndex": "0x240",
          "removed": false
        }
      ],
      "logsBloom": "0x00000000000000000000000000000000000000000000000000000000000000000000000000000000000000020000000000000000000000000000000000000000000000000000000000000000000000000000000000000000000000000000000000000000000000000000001000000400000000000000000000000000000000000000000000000000000000000000000000000000000000000000000000000000000000000040000000000000000000000000000000000000000000000000000000014000000000000000000000002000000000000000004000000000000000000000000000008000000000000000000000000000000000000000000000000000",
      "type": "0x2",
      "transactionHash": "0xf441389d2206188e2eba2ab20a1e2c1e0fdfb2507bf21dc886ffe79618b004d3",
      "transactionIndex": "0xee",
      "blockHash": "0xb193cd815102bf2e10203b8ae12f71d5888c075ea154429e6d236c7e8e671179",
      "blockNumber": "0x1cea4c6",
      "gasUsed": "0xce5f",
      "effectiveGasPrice": "0x1236b3",
      "from": "0xb819a871d20913839c37f316dc914b0570bfc0ee",
      "to": "0xcb4d153604a6f21ff7625e5044e89c3b903599bc",
      "contractAddress": null,
      "l1BaseFeeScalar": "0x8dd",
      "l1BlobBaseFee": "0x1",
      "l1BlobBaseFeeScalar": "0x101c12",
      "l1Fee": "0x16224b888",
      "l1GasPrice": "0x618ca727",
      "l1GasUsed": "0x640"
    },
    {
      "status": "0x1",
      "cumulativeGasUsed": "0x2e9cf32",
      "logs": [
        {
          "address": "0xcb4d153604a6f21ff7625e5044e89c3b903599bc",
          "topics": [
            "0x4059c608a8f17b9b24a5a29662eb74934d39ea92ae22411868f07fcac29487a0",
            "0x0000000000000000000000008f2eaba31b1b613ca78f2795ba05400f0583c5a4"
          ],
          "data": "0x0000000000000000000000000000000000000000000000000000000000000001",
          "blockHash": "0xb4aebbc9b2fceb6cd97c536845c408fdd36828a30ce5c93010e154575caeab26",
          "blockNumber": "0x1cea4c8",
          "blockTimestamp": "0x6827a673",
          "transactionHash": "0x52eb3b3d91f255e17ad02b022210c72d0db4c6a232be58ce5403a91a3b92a935",
          "transactionIndex": "0x92",
          "logIndex": "0x1dd",
          "removed": false
        }
      ],
      "logsBloom": "0x00000000000000000000000000000000000000000000000000000000000000000000000000000000000000020000000000000000000000000000000000000000000000000000000000000000000000000000000000000000000000000000000000000000000000000000001000000400000000000000000000000000000000000000000000000000000000000000000000000000000000000000000000000000000000000040000000000000000000000000000000000000000000000000000000014000000000000000000000002000000000000000004000000000000000000000000000008000000000000000000000000000000000000000000000000000",
      "type": "0x2",
      "transactionHash": "0x52eb3b3d91f255e17ad02b022210c72d0db4c6a232be58ce5403a91a3b92a935",
      "transactionIndex": "0x92",
      "blockHash": "0xb4aebbc9b2fceb6cd97c536845c408fdd36828a30ce5c93010e154575caeab26",
      "blockNumber": "0x1cea4c8",
      "gasUsed": "0x80a3",
      "effectiveGasPrice": "0x12334e",
      "from": "0xb819a871d20913839c37f316dc914b0570bfc0ee",
      "to": "0xcb4d153604a6f21ff7625e5044e89c3b903599bc",
      "contractAddress": null,
      "l1BaseFeeScalar": "0x8dd",
      "l1BlobBaseFee": "0x1",
      "l1BlobBaseFeeScalar": "0x101c12",
      "l1Fee": "0x183aff390",
      "l1GasPrice": "0x6aca0543",
      "l1GasUsed": "0x640"
    },
    {
      "status": "0x1",
      "cumulativeGasUsed": "0x28c78bb",
      "logs": [
        {
          "address": "0xcb4d153604a6f21ff7625e5044e89c3b903599bc",
          "topics": [
            "0x4059c608a8f17b9b24a5a29662eb74934d39ea92ae22411868f07fcac29487a0",
            "0x00000000000000000000000050d8deadd2b3140b151cab2c4fb76f1f59b236f8"
          ],
          "data": "0x0000000000000000000000000000000000000000000000000000000000000001",
          "blockHash": "0x34c744488b038ee02e20bb4fbcdac85fab4cafc0e3ea68e075d2357ec9d9ff4f",
          "blockNumber": "0x1cea4c9",
          "blockTimestamp": "0x6827a675",
          "transactionHash": "0xd84e74d136d7f41e1eb1cd29a218dda95780606adfe65b5f71ccb2f6602bad46",
          "transactionIndex": "0x89",
          "logIndex": "0x2ae",
          "removed": false
        }
      ],
      "logsBloom": "0x00000000000000000000000000000000000000000000200000000000000000000000000000000000000000020000000000000000000000000000000000000000000000000000000000000000000000000000000000000000000000000000000000000000000000000000000000000400000000000000000000000000020000000000000000000000000000000000000000000000000000000000000000000000000000000040000000000000000000000000000000000000000000000000000000010000000000000000000000000000000000000000004000000000000000000000000000808000000000000000000000000000000000000000000000000000",
      "type": "0x2",
      "transactionHash": "0xd84e74d136d7f41e1eb1cd29a218dda95780606adfe65b5f71ccb2f6602bad46",
      "transactionIndex": "0x89",
      "blockHash": "0x34c744488b038ee02e20bb4fbcdac85fab4cafc0e3ea68e075d2357ec9d9ff4f",
      "blockNumber": "0x1cea4c9",
      "gasUsed": "0x80a3",
      "effectiveGasPrice": "0x122f24",
      "from": "0xb819a871d20913839c37f316dc914b0570bfc0ee",
      "to": "0xcb4d153604a6f21ff7625e5044e89c3b903599bc",
      "contractAddress": null,
      "l1BaseFeeScalar": "0x8dd",
      "l1BlobBaseFee": "0x1",
      "l1BlobBaseFeeScalar": "0x101c12",
      "l1Fee": "0x183aff390",
      "l1GasPrice": "0x6aca0543",
      "l1GasUsed": "0x640"
    },
    {
      "status": "0x1",
      "cumulativeGasUsed": "0x3f38963",
      "logs": [
        {
          "address": "0xcb4d153604a6f21ff7625e5044e89c3b903599bc",
          "topics": [
            "0x4059c608a8f17b9b24a5a29662eb74934d39ea92ae22411868f07fcac29487a0",
            "0x000000000000000000000000574582c44e3f1ef2cb29a7131b057febbcc8244e"
          ],
          "data": "0x0000000000000000000000000000000000000000000000000000000000000001",
          "blockHash": "0x1389a45db0c55ab9f015d92d9ad3f59f29369933ec797013c9a9fcd1bc228725",
          "blockNumber": "0x1cea4cb",
          "blockTimestamp": "0x6827a679",
          "transactionHash": "0x9f7801cbe5de377f622a62ba199d1db3e8fc6736376bd477d07e50e390b8b927",
          "transactionIndex": "0xb2",
          "logIndex": "0x2b6",
          "removed": false
        }
      ],
      "logsBloom": "0x00000000000000000000000000000000000000000000000000000000000000000000000000000000000000020000000000000000000000000000000000000000000000000000200000000000000000000000000000000000000000000000000000000000000000000000000000000400000000000000000000000000000000000000000000000000000000100000000000000000000000000000000000000000004000000040000000000000000000000000000000000000000000000000000000010000000000000000000000000000000000000000004000000000000000000000000000008000000000000000000000000000000000000000000000000000",
      "type": "0x2",
      "transactionHash": "0x9f7801cbe5de377f622a62ba199d1db3e8fc6736376bd477d07e50e390b8b927",
      "transactionIndex": "0xb2",
      "blockHash": "0x1389a45db0c55ab9f015d92d9ad3f59f29369933ec797013c9a9fcd1bc228725",
      "blockNumber": "0x1cea4cb",
      "gasUsed": "0x80a3",
      "effectiveGasPrice": "0x12294f",
      "from": "0xb819a871d20913839c37f316dc914b0570bfc0ee",
      "to": "0xcb4d153604a6f21ff7625e5044e89c3b903599bc",
      "contractAddress": null,
      "l1BaseFeeScalar": "0x8dd",
      "l1BlobBaseFee": "0x1",
      "l1BlobBaseFeeScalar": "0x101c12",
      "l1Fee": "0x183aff390",
      "l1GasPrice": "0x6aca0543",
      "l1GasUsed": "0x640"
    },
    {
      "status": "0x1",
      "cumulativeGasUsed": "0x2d1dd80",
      "logs": [
        {
          "address": "0xcb4d153604a6f21ff7625e5044e89c3b903599bc",
          "topics": [
            "0x4059c608a8f17b9b24a5a29662eb74934d39ea92ae22411868f07fcac29487a0",
            "0x000000000000000000000000bd0ce952ba069a1e15f3bf3916d4b07bbbdbc8b3"
          ],
          "data": "0x0000000000000000000000000000000000000000000000000000000000000001",
          "blockHash": "0x2a6717f4e28b77a0b844403dffdbc67ef5faead53858cc3f3a46c64d3004d059",
          "blockNumber": "0x1cea4cd",
          "blockTimestamp": "0x6827a67d",
          "transactionHash": "0xa44252ed0c549fd9c33838c9b1074412d9549399f10cd315202aff86d1170897",
          "transactionIndex": "0x7e",
          "logIndex": "0x3b6",
          "removed": false
        }
      ],
      "logsBloom": "0x00000000000000000000000000000000000000000000000000000000000000000000000000000000000000020000000000000000000000000000000000000000000000000002000000000000000000000000000000000000000000000000000000000000000000000000000000000400000000000000000000000000000000000000000000000000000000000000000000000000000000000000000000000000000000000040000000000000000000000000000000000000000000000000000000010000008000000000010000000000000000000000004000000000000000000000000000008000000000000000000000000000000000000000000000000000",
      "type": "0x2",
      "transactionHash": "0xa44252ed0c549fd9c33838c9b1074412d9549399f10cd315202aff86d1170897",
      "transactionIndex": "0x7e",
      "blockHash": "0x2a6717f4e28b77a0b844403dffdbc67ef5faead53858cc3f3a46c64d3004d059",
      "blockNumber": "0x1cea4cd",
      "gasUsed": "0xce5f",
      "effectiveGasPrice": "0x1231b0",
      "from": "0xb819a871d20913839c37f316dc914b0570bfc0ee",
      "to": "0xcb4d153604a6f21ff7625e5044e89c3b903599bc",
      "contractAddress": null,
      "l1BaseFeeScalar": "0x8dd",
      "l1BlobBaseFee": "0x1",
      "l1BlobBaseFeeScalar": "0x101c12",
      "l1Fee": "0x183aff390",
      "l1GasPrice": "0x6aca0543",
      "l1GasUsed": "0x640"
    }
  ],
  "libraries": [],
  "pending": [],
  "returns": {},
  "timestamp": 1747428992,
  "chain": 8453,
  "commit": "157d7bc"
}