{
  "transactions": [
    {
      "hash": "0xdbad3ffe7dc1f580ce8af73f5c5f83c82225060163ffdab2d4cff80d369f9139",
      "transactionType": "CALL",
      "contractName": null,
      "contractAddress": "0x2b588f7f4832561e46924f3ea54c244569724915",
      "function": "setWhitelistedUser(address,bool)",
      "arguments": [
        "0xf20a8950c368Ec48323092D6e4acF90aADf2BdC6",
        "true"
      ],
      "transaction": {
        "from": "0xb819a871d20913839c37f316dc914b0570bfc0ee",
        "to": "0x2b588f7f4832561e46924f3ea54c244569724915",
        "gas": "0x11d0b",
        "value": "0x0",
        "input": "0x44710fbe000000000000000000000000f20a8950c368ec48323092d6e4acf90aadf2bdc60000000000000000000000000000000000000000000000000000000000000001",
        "nonce": "0xd2",
        "chainId": "0x2105"
      },
      "additionalContracts": [],
      "isFixedGasLimit": false
    },
    {
      "hash": "0xf03af6b21ef10f500878737225070b99daa54c98c40f8bc5604bf44bd7e1d4ea",
      "transactionType": "CALL",
      "contractName": null,
      "contractAddress": "0x2b588f7f4832561e46924f3ea54c244569724915",
      "function": "setWhitelistedUser(address,bool)",
      "arguments": [
        "0x8E72a24221517E51502f20f387415a06b27A5b51",
        "true"
      ],
      "transaction": {
        "from": "0xb819a871d20913839c37f316dc914b0570bfc0ee",
        "to": "0x2b588f7f4832561e46924f3ea54c244569724915",
        "gas": "0x11d0b",
        "value": "0x0",
        "input": "0x44710fbe0000000000000000000000008e72a24221517e51502f20f387415a06b27a5b510000000000000000000000000000000000000000000000000000000000000001",
        "nonce": "0xd3",
        "chainId": "0x2105"
      },
      "additionalContracts": [],
      "isFixedGasLimit": false
    },
    {
      "hash": "0xffac9d38530bb78d1f8b333301516efe6c01ef0e838a825e1fea57838363e4f9",
      "transactionType": "CALL",
      "contractName": null,
      "contractAddress": "0x2b588f7f4832561e46924f3ea54c244569724915",
      "function": "setWhitelistedUser(address,bool)",
      "arguments": [
        "0x50d8Deadd2b3140B151CaB2C4FB76F1f59b236F8",
        "true"
      ],
      "transaction": {
        "from": "0xb819a871d20913839c37f316dc914b0570bfc0ee",
        "to": "0x2b588f7f4832561e46924f3ea54c244569724915",
        "gas": "0x11d0b",
        "value": "0x0",
        "input": "0x44710fbe00000000000000000000000050d8deadd2b3140b151cab2c4fb76f1f59b236f80000000000000000000000000000000000000000000000000000000000000001",
        "nonce": "0xd4",
        "chainId": "0x2105"
      },
      "additionalContracts": [],
      "isFixedGasLimit": false
    },
    {
      "hash": "0x965ea03a74a9e2291ccf61a776d3e7df6bee605c76268e410956af75c16e33ba",
      "transactionType": "CALL",
      "contractName": null,
      "contractAddress": "0x2b588f7f4832561e46924f3ea54c244569724915",
      "function": "setWhitelistedUser(address,bool)",
      "arguments": [
        "0x574582C44e3f1EF2cB29a7131B057FebBCC8244E",
        "true"
      ],
      "transaction": {
        "from": "0xb819a871d20913839c37f316dc914b0570bfc0ee",
        "to": "0x2b588f7f4832561e46924f3ea54c244569724915",
        "gas": "0x11d0b",
        "value": "0x0",
        "input": "0x44710fbe000000000000000000000000574582c44e3f1ef2cb29a7131b057febbcc8244e0000000000000000000000000000000000000000000000000000000000000001",
        "nonce": "0xd5",
        "chainId": "0x2105"
      },
      "additionalContracts": [],
      "isFixedGasLimit": false
    },
    {
      "hash": "0x83637d9b3b8fcb29ae33df42e20ef0ff51d1acb479484410d8258731fe8fbc8f",
      "transactionType": "CALL",
      "contractName": null,
      "contractAddress": "0x2b588f7f4832561e46924f3ea54c244569724915",
      "function": "setWhitelistedUser(address,bool)",
      "arguments": [
        "0x281567fe62b587EC1755f6F33b80160F544Dc5d0",
        "true"
      ],
      "transaction": {
        "from": "0xb819a871d20913839c37f316dc914b0570bfc0ee",
        "to": "0x2b588f7f4832561e46924f3ea54c244569724915",
        "gas": "0x11d0b",
        "value": "0x0",
        "input": "0x44710fbe000000000000000000000000281567fe62b587ec1755f6f33b80160f544dc5d00000000000000000000000000000000000000000000000000000000000000001",
        "nonce": "0xd6",
        "chainId": "0x2105"
      },
      "additionalContracts": [],
      "isFixedGasLimit": false
    },
    {
      "hash": "0xfda274fa4d28cc04b777b8beff718eed15071dd7ab88fa7959a367203b399858",
      "transactionType": "CALL",
      "contractName": null,
      "contractAddress": "0x2b588f7f4832561e46924f3ea54c244569724915",
      "function": "setWhitelistedUser(address,bool)",
      "arguments": [
        "0x2705f6A8F01bd4A805D9FC73151DBe37BB8d1edE",
        "true"
      ],
      "transaction": {
        "from": "0xb819a871d20913839c37f316dc914b0570bfc0ee",
        "to": "0x2b588f7f4832561e46924f3ea54c244569724915",
        "gas": "0x11d0b",
        "value": "0x0",
        "input": "0x44710fbe0000000000000000000000002705f6a8f01bd4a805d9fc73151dbe37bb8d1ede0000000000000000000000000000000000000000000000000000000000000001",
        "nonce": "0xd7",
        "chainId": "0x2105"
      },
      "additionalContracts": [],
      "isFixedGasLimit": false
    },
    {
      "hash": "0xeafb77e4dc25e49fea7834cade69bfec6a4e5fed270de470f6a801df9f3ac68a",
      "transactionType": "CALL",
      "contractName": null,
      "contractAddress": "0x2b588f7f4832561e46924f3ea54c244569724915",
      "function": "setWhitelistedUser(address,bool)",
      "arguments": [
        "0xc9C9693b6A445D05Add0043662fad9Ac600Ad088",
        "true"
      ],
      "transaction": {
        "from": "0xb819a871d20913839c37f316dc914b0570bfc0ee",
        "to": "0x2b588f7f4832561e46924f3ea54c244569724915",
        "gas": "0x11d0b",
        "value": "0x0",
        "input": "0x44710fbe000000000000000000000000c9c9693b6a445d05add0043662fad9ac600ad0880000000000000000000000000000000000000000000000000000000000000001",
        "nonce": "0xd8",
        "chainId": "0x2105"
      },
      "additionalContracts": [],
      "isFixedGasLimit": false
    },
    {
      "hash": "0x604470de6490257e9694cc695f2a9f560038672cb51321157e6713184a32756e",
      "transactionType": "CALL",
      "contractName": null,
      "contractAddress": "0x2b588f7f4832561e46924f3ea54c244569724915",
      "function": "setWhitelistedUser(address,bool)",
      "arguments": [
        "0x7EfE40B2E6dA8b28AaB6Bd2D622B9Cd7f5fE077c",
        "true"
      ],
      "transaction": {
        "from": "0xb819a871d20913839c37f316dc914b0570bfc0ee",
        "to": "0x2b588f7f4832561e46924f3ea54c244569724915",
        "gas": "0x11d0b",
        "value": "0x0",
        "input": "0x44710fbe0000000000000000000000007efe40b2e6da8b28aab6bd2d622b9cd7f5fe077c0000000000000000000000000000000000000000000000000000000000000001",
        "nonce": "0xd9",
        "chainId": "0x2105"
      },
      "additionalContracts": [],
      "isFixedGasLimit": false
    },
    {
      "hash": "0x67339626874dba466edc4b8f48ccb94d110d14f3f984c887efed559d1c3a473c",
      "transactionType": "CALL",
      "contractName": null,
      "contractAddress": "0x2b588f7f4832561e46924f3ea54c244569724915",
      "function": "setWhitelistedUser(address,bool)",
      "arguments": [
        "0xa22DCB8F0A2848289124086F35ae9dB2a0006962",
        "true"
      ],
      "transaction": {
        "from": "0xb819a871d20913839c37f316dc914b0570bfc0ee",
        "to": "0x2b588f7f4832561e46924f3ea54c244569724915",
        "gas": "0x12dbf",
        "value": "0x0",
        "input": "0x44710fbe000000000000000000000000a22dcb8f0a2848289124086f35ae9db2a00069620000000000000000000000000000000000000000000000000000000000000001",
        "nonce": "0xda",
        "chainId": "0x2105"
      },
      "additionalContracts": [],
      "isFixedGasLimit": false
    },
    {
      "hash": "0xeeffa457c49f0ddcde11e2d34fa068000363dbd575b3a942cb63dfebb5aa1125",
      "transactionType": "CALL",
      "contractName": null,
      "contractAddress": "0x2b588f7f4832561e46924f3ea54c244569724915",
      "function": "setWhitelistedUser(address,bool)",
      "arguments": [
        "0xB819A871d20913839c37f316Dc914b0570bfc0eE",
        "true"
      ],
      "transaction": {
        "from": "0xb819a871d20913839c37f316dc914b0570bfc0ee",
        "to": "0x2b588f7f4832561e46924f3ea54c244569724915",
        "gas": "0x11d0b",
        "value": "0x0",
        "input": "0x44710fbe000000000000000000000000b819a871d20913839c37f316dc914b0570bfc0ee0000000000000000000000000000000000000000000000000000000000000001",
        "nonce": "0xdb",
        "chainId": "0x2105"
      },
      "additionalContracts": [],
      "isFixedGasLimit": false
    },
    {
      "hash": "0x6afe285f827a453c3053c64f2fe5171a40d4f92d731e6557feeecb80f2628e36",
      "transactionType": "CALL",
      "contractName": null,
      "contractAddress": "0x2b588f7f4832561e46924f3ea54c244569724915",
      "function": "setWhitelistedUser(address,bool)",
      "arguments": [
        "0x40282d3Cf4890D9806BC1853e97a59C93D813653",
        "true"
      ],
      "transaction": {
        "from": "0xb819a871d20913839c37f316dc914b0570bfc0ee",
        "to": "0x2b588f7f4832561e46924f3ea54c244569724915",
        "gas": "0x11d0b",
        "value": "0x0",
        "input": "0x44710fbe00000000000000000000000040282d3cf4890d9806bc1853e97a59c93d8136530000000000000000000000000000000000000000000000000000000000000001",
        "nonce": "0xdc",
        "chainId": "0x2105"
      },
      "additionalContracts": [],
      "isFixedGasLimit": false
    },
    {
      "hash": "0xa17334c741bd693656efa029d8feee625a081e6e601d0855365eff17c5aae3e3",
      "transactionType": "CALL",
      "contractName": null,
      "contractAddress": "0x2b588f7f4832561e46924f3ea54c244569724915",
      "function": "setWhitelistedUser(address,bool)",
      "arguments": [
        "0xB5b901F1BB86421301138b5c45C1D3Fe96663161",
        "true"
      ],
      "transaction": {
        "from": "0xb819a871d20913839c37f316dc914b0570bfc0ee",
        "to": "0x2b588f7f4832561e46924f3ea54c244569724915",
        "gas": "0x11d0b",
        "value": "0x0",
        "input": "0x44710fbe000000000000000000000000b5b901f1bb86421301138b5c45c1d3fe966631610000000000000000000000000000000000000000000000000000000000000001",
        "nonce": "0xdd",
        "chainId": "0x2105"
      },
      "additionalContracts": [],
      "isFixedGasLimit": false
    },
    {
      "hash": "0x0855b610cc1dc993e722e1bed26da5a10da150f31f3b337ac383713f5af080b8",
      "transactionType": "CALL",
      "contractName": null,
      "contractAddress": "0x2b588f7f4832561e46924f3ea54c244569724915",
      "function": "setWhitelistedUser(address,bool)",
      "arguments": [
        "0xBAec8904499dcdee770c60df15b0C37EAC84Fb62",
        "true"
      ],
      "transaction": {
        "from": "0xb819a871d20913839c37f316dc914b0570bfc0ee",
        "to": "0x2b588f7f4832561e46924f3ea54c244569724915",
        "gas": "0x11d0b",
        "value": "0x0",
        "input": "0x44710fbe000000000000000000000000baec8904499dcdee770c60df15b0c37eac84fb620000000000000000000000000000000000000000000000000000000000000001",
        "nonce": "0xde",
        "chainId": "0x2105"
      },
      "additionalContracts": [],
      "isFixedGasLimit": false
    },
    {
      "hash": "0x59bd1e84d2379e41a32fa0df29fe6d61a7b524e0757d4bc3a3a0d5c26d5a7ec7",
      "transactionType": "CALL",
      "contractName": null,
      "contractAddress": "0x2b588f7f4832561e46924f3ea54c244569724915",
      "function": "setWhitelistedUser(address,bool)",
      "arguments": [
        "0xfC4A23271b60887FC246B060B6931a08E2BC434c",
        "true"
      ],
      "transaction": {
        "from": "0xb819a871d20913839c37f316dc914b0570bfc0ee",
        "to": "0x2b588f7f4832561e46924f3ea54c244569724915",
        "gas": "0x11d0b",
        "value": "0x0",
        "input": "0x44710fbe000000000000000000000000fc4a23271b60887fc246b060b6931a08e2bc434c0000000000000000000000000000000000000000000000000000000000000001",
        "nonce": "0xdf",
        "chainId": "0x2105"
      },
      "additionalContracts": [],
      "isFixedGasLimit": false
    },
    {
      "hash": "0x0dcdd8fa70f4d80c840f00386cfd96edf31576d22d8cb5a8a17c70f5e0380216",
      "transactionType": "CALL",
      "contractName": null,
      "contractAddress": "0x2b588f7f4832561e46924f3ea54c244569724915",
      "function": "setWhitelistedUser(address,bool)",
      "arguments": [
        "0x65b142550aE82f4BB3792E1eEfb2FC35541A3837",
        "true"
      ],
      "transaction": {
        "from": "0xb819a871d20913839c37f316dc914b0570bfc0ee",
        "to": "0x2b588f7f4832561e46924f3ea54c244569724915",
        "gas": "0x11d0b",
        "value": "0x0",
        "input": "0x44710fbe00000000000000000000000065b142550ae82f4bb3792e1eefb2fc35541a38370000000000000000000000000000000000000000000000000000000000000001",
        "nonce": "0xe0",
        "chainId": "0x2105"
      },
      "additionalContracts": [],
      "isFixedGasLimit": false
    },
    {
      "hash": "0xe25f9e5df9589e212633c2bff2d453606277ed9090fd7cf1736b5cd06c48b7d9",
      "transactionType": "CALL",
      "contractName": null,
      "contractAddress": "0x2b588f7f4832561e46924f3ea54c244569724915",
      "function": "setWhitelistedUser(address,bool)",
      "arguments": [
        "0x75149feEBb20E1fE5Ddb89302a6d4bACE70c14Ce",
        "true"
      ],
      "transaction": {
        "from": "0xb819a871d20913839c37f316dc914b0570bfc0ee",
        "to": "0x2b588f7f4832561e46924f3ea54c244569724915",
        "gas": "0x11d0b",
        "value": "0x0",
        "input": "0x44710fbe00000000000000000000000075149feebb20e1fe5ddb89302a6d4bace70c14ce0000000000000000000000000000000000000000000000000000000000000001",
        "nonce": "0xe1",
        "chainId": "0x2105"
      },
      "additionalContracts": [],
      "isFixedGasLimit": false
    },
    {
      "hash": "0x935569b8f2a5a466c338bc0c32e9fd11d92ab51ecf1afad463da0c2b5e3fa962",
      "transactionType": "CALL",
      "contractName": null,
      "contractAddress": "0x2b588f7f4832561e46924f3ea54c244569724915",
      "function": "setWhitelistedUser(address,bool)",
      "arguments": [
        "0x65B6D4770DAdcFba6d363dE86aA4D9c76283cea0",
        "true"
      ],
      "transaction": {
        "from": "0xb819a871d20913839c37f316dc914b0570bfc0ee",
        "to": "0x2b588f7f4832561e46924f3ea54c244569724915",
        "gas": "0x11d0b",
        "value": "0x0",
        "input": "0x44710fbe00000000000000000000000065b6d4770dadcfba6d363de86aa4d9c76283cea00000000000000000000000000000000000000000000000000000000000000001",
        "nonce": "0xe2",
        "chainId": "0x2105"
      },
      "additionalContracts": [],
      "isFixedGasLimit": false
    },
    {
      "hash": "0xc4305d6468c7b39023516924bd5c583fbd1145c1ef968621ffb79f26391e68c0",
      "transactionType": "CALL",
      "contractName": null,
      "contractAddress": "0x2b588f7f4832561e46924f3ea54c244569724915",
      "function": "setWhitelistedUser(address,bool)",
      "arguments": [
        "0xa6A9fdDC94BB4FE7520A2eA1CC2c433e18683342",
        "true"
      ],
      "transaction": {
        "from": "0xb819a871d20913839c37f316dc914b0570bfc0ee",
        "to": "0x2b588f7f4832561e46924f3ea54c244569724915",
        "gas": "0x11d0b",
        "value": "0x0",
        "input": "0x44710fbe000000000000000000000000a6a9fddc94bb4fe7520a2ea1cc2c433e186833420000000000000000000000000000000000000000000000000000000000000001",
        "nonce": "0xe3",
        "chainId": "0x2105"
      },
      "additionalContracts": [],
      "isFixedGasLimit": false
    },
    {
      "hash": "0x37897beb0c2d7ca6c106e7469b189f6ba8bbaf768eba758125742e42ef3b3ae0",
      "transactionType": "CALL",
      "contractName": null,
      "contractAddress": "0x2b588f7f4832561e46924f3ea54c244569724915",
      "function": "setWhitelistedUser(address,bool)",
      "arguments": [
        "0x18D04F05f80ADE5373849385a1c24E1E0a6d1744",
        "true"
      ],
      "transaction": {
        "from": "0xb819a871d20913839c37f316dc914b0570bfc0ee",
        "to": "0x2b588f7f4832561e46924f3ea54c244569724915",
        "gas": "0x11d0b",
        "value": "0x0",
        "input": "0x44710fbe00000000000000000000000018d04f05f80ade5373849385a1c24e1e0a6d17440000000000000000000000000000000000000000000000000000000000000001",
        "nonce": "0xe4",
        "chainId": "0x2105"
      },
      "additionalContracts": [],
      "isFixedGasLimit": false
    },
    {
      "hash": "0xa5b4409518ae0c5076bf6bc1b466a7f49e32c9b3abbedbf492625767a3d52da4",
      "transactionType": "CALL",
      "contractName": null,
      "contractAddress": "0x2b588f7f4832561e46924f3ea54c244569724915",
      "function": "setWhitelistedUser(address,bool)",
      "arguments": [
        "0xBD9C90D6774CB5320B54Bb7998b6Bcc5e4A9071f",
        "true"
      ],
      "transaction": {
        "from": "0xb819a871d20913839c37f316dc914b0570bfc0ee",
        "to": "0x2b588f7f4832561e46924f3ea54c244569724915",
        "gas": "0x11d0b",
        "value": "0x0",
        "input": "0x44710fbe000000000000000000000000bd9c90d6774cb5320b54bb7998b6bcc5e4a9071f0000000000000000000000000000000000000000000000000000000000000001",
        "nonce": "0xe5",
        "chainId": "0x2105"
      },
      "additionalContracts": [],
      "isFixedGasLimit": false
    },
    {
      "hash": "0x29421b368528df329f27d48fefbfc53477bc7869ebe485dc15b455f21a2091c7",
      "transactionType": "CALL",
      "contractName": null,
      "contractAddress": "0x2b588f7f4832561e46924f3ea54c244569724915",
      "function": "setWhitelistedUser(address,bool)",
      "arguments": [
        "0x8f2eABa31B1b613ca78F2795bA05400F0583c5A4",
        "true"
      ],
      "transaction": {
        "from": "0xb819a871d20913839c37f316dc914b0570bfc0ee",
        "to": "0x2b588f7f4832561e46924f3ea54c244569724915",
        "gas": "0x11d0b",
        "value": "0x0",
        "input": "0x44710fbe0000000000000000000000008f2eaba31b1b613ca78f2795ba05400f0583c5a40000000000000000000000000000000000000000000000000000000000000001",
        "nonce": "0xe6",
        "chainId": "0x2105"
      },
      "additionalContracts": [],
      "isFixedGasLimit": false
    },
    {
      "hash": "0x8bdd8b566c4a46900f01d4ce71f87c4ba16203afacff172a56455eb91d71ba03",
      "transactionType": "CALL",
      "contractName": null,
      "contractAddress": "0x2b588f7f4832561e46924f3ea54c244569724915",
      "function": "setWhitelistedUser(address,bool)",
      "arguments": [
        "0x8f2eABa31B1b613ca78F2795bA05400F0583c5A4",
        "true"
      ],
      "transaction": {
        "from": "0xb819a871d20913839c37f316dc914b0570bfc0ee",
        "to": "0x2b588f7f4832561e46924f3ea54c244569724915",
        "gas": "0xbc21",
        "value": "0x0",
        "input": "0x44710fbe0000000000000000000000008f2eaba31b1b613ca78f2795ba05400f0583c5a40000000000000000000000000000000000000000000000000000000000000001",
        "nonce": "0xe7",
        "chainId": "0x2105"
      },
      "additionalContracts": [],
      "isFixedGasLimit": false
    },
    {
      "hash": "0x443b74f6fb2104692b4967a6f84b24ca2c85d56c1f07b7679d5b1097a20bed11",
      "transactionType": "CALL",
      "contractName": null,
      "contractAddress": "0x2b588f7f4832561e46924f3ea54c244569724915",
      "function": "setWhitelistedUser(address,bool)",
      "arguments": [
        "0x50d8Deadd2b3140B151CaB2C4FB76F1f59b236F8",
        "true"
      ],
      "transaction": {
        "from": "0xb819a871d20913839c37f316dc914b0570bfc0ee",
        "to": "0x2b588f7f4832561e46924f3ea54c244569724915",
        "gas": "0xbc21",
        "value": "0x0",
        "input": "0x44710fbe00000000000000000000000050d8deadd2b3140b151cab2c4fb76f1f59b236f80000000000000000000000000000000000000000000000000000000000000001",
        "nonce": "0xe8",
        "chainId": "0x2105"
      },
      "additionalContracts": [],
      "isFixedGasLimit": false
    },
    {
      "hash": "0x81e30baecd89d70924a170554b78cc790fb2c61b0db707a082bd70b5516456cd",
      "transactionType": "CALL",
      "contractName": null,
      "contractAddress": "0x2b588f7f4832561e46924f3ea54c244569724915",
      "function": "setWhitelistedUser(address,bool)",
      "arguments": [
        "0x574582C44e3f1EF2cB29a7131B057FebBCC8244E",
        "true"
      ],
      "transaction": {
        "from": "0xb819a871d20913839c37f316dc914b0570bfc0ee",
        "to": "0x2b588f7f4832561e46924f3ea54c244569724915",
        "gas": "0xbc21",
        "value": "0x0",
        "input": "0x44710fbe000000000000000000000000574582c44e3f1ef2cb29a7131b057febbcc8244e0000000000000000000000000000000000000000000000000000000000000001",
        "nonce": "0xe9",
        "chainId": "0x2105"
      },
      "additionalContracts": [],
      "isFixedGasLimit": false
    },
    {
      "hash": "0x12c6ffaf31f0142a12d5ab975f0599fd53e13d1adfa27fafc9b2f7a75b0e5a0e",
      "transactionType": "CALL",
      "contractName": null,
      "contractAddress": "0x2b588f7f4832561e46924f3ea54c244569724915",
      "function": "setWhitelistedUser(address,bool)",
      "arguments": [
        "0xBd0Ce952bA069A1e15f3bf3916d4B07bBBdBC8B3",
        "true"
      ],
      "transaction": {
        "from": "0xb819a871d20913839c37f316dc914b0570bfc0ee",
        "to": "0x2b588f7f4832561e46924f3ea54c244569724915",
        "gas": "0x11d0b",
        "value": "0x0",
        "input": "0x44710fbe000000000000000000000000bd0ce952ba069a1e15f3bf3916d4b07bbbdbc8b30000000000000000000000000000000000000000000000000000000000000001",
        "nonce": "0xea",
        "chainId": "0x2105"
      },
      "additionalContracts": [],
      "isFixedGasLimit": false
    }
  ],
  "receipts": [
    {
      "status": "0x1",
      "cumulativeGasUsed": "0x3a377f1",
      "logs": [
        {
          "address": "0x2b588f7f4832561e46924f3ea54c244569724915",
          "topics": [
            "0x4059c608a8f17b9b24a5a29662eb74934d39ea92ae22411868f07fcac29487a0",
            "0x000000000000000000000000f20a8950c368ec48323092d6e4acf90aadf2bdc6"
          ],
          "data": "0x0000000000000000000000000000000000000000000000000000000000000001",
          "blockHash": "0xcc77cd1daa65ffdaacb08ef2c2f300b05e8c1d663892f15f0584b3e915941e3a",
          "blockNumber": "0x1cd1193",
          "blockTimestamp": "0x68248009",
          "transactionHash": "0xdbad3ffe7dc1f580ce8af73f5c5f83c82225060163ffdab2d4cff80d369f9139",
          "transactionIndex": "0xb6",
          "logIndex": "0x30c",
          "removed": false
        }
      ],
      "logsBloom": "0x00000000000000000000000000000000000000000000000000000000000000000000000000000000000000020000000000000000000000000000000000020000000000200000000000000000000000000000000000000000000000000000000000000000000000000000000000000000000000000000000000000000000000000000000000000000000000000000000000000000000000000000000000000000000000000040000000000000000000000000020000000000000000000000000000000000000000000000000000000000000000000000000000001000004000000000000000008000000000000000000000000000000000000000000000020000",
      "type": "0x2",
      "transactionHash": "0xdbad3ffe7dc1f580ce8af73f5c5f83c82225060163ffdab2d4cff80d369f9139",
      "transactionIndex": "0xb6",
      "blockHash": "0xcc77cd1daa65ffdaacb08ef2c2f300b05e8c1d663892f15f0584b3e915941e3a",
      "blockNumber": "0x1cd1193",
      "gasUsed": "0xce5f",
      "effectiveGasPrice": "0x119bb3",
      "from": "0xb819a871d20913839c37f316dc914b0570bfc0ee",
      "to": "0x2b588f7f4832561e46924f3ea54c244569724915",
      "contractAddress": null,
      "l1BaseFeeScalar": "0x8dd",
      "l1BlobBaseFee": "0x1",
      "l1BlobBaseFeeScalar": "0x101c12",
      "l1Fee": "0x128898fe7",
      "l1GasPrice": "0x51ae85bc",
      "l1GasUsed": "0x640"
    },
    {
      "status": "0x1",
      "cumulativeGasUsed": "0x21a89d9",
      "logs": [
        {
          "address": "0x2b588f7f4832561e46924f3ea54c244569724915",
          "topics": [
            "0x4059c608a8f17b9b24a5a29662eb74934d39ea92ae22411868f07fcac29487a0",
            "0x0000000000000000000000008e72a24221517e51502f20f387415a06b27a5b51"
          ],
          "data": "0x0000000000000000000000000000000000000000000000000000000000000001",
          "blockHash": "0x839143a7bf4fb4c766501635b6a4da902b73a8a35af1494e5dc5bd981f4895ea",
          "blockNumber": "0x1cd1194",
          "blockTimestamp": "0x6824800b",
          "transactionHash": "0xf03af6b21ef10f500878737225070b99daa54c98c40f8bc5604bf44bd7e1d4ea",
          "transactionIndex": "0xcd",
          "logIndex": "0x1fc",
          "removed": false
        }
      ],
      "logsBloom": "0x00000000000000000000000000000000000000000000000000000000000000000000000000000000000000020000000000000000000000000000000000020000000000200000000000000000000000000000000000000000000000000000000000000000000000000000000000000000000000000000000000000800000000000000000000000000000000000000000000000000000000000000000000020000000000000040000000000000000000000000000000000000000000000000000000000000000000000000000000000000000000000001000000000000000000000000000000008000000000000000000000000000000000000000000000020000",
      "type": "0x2",
      "transactionHash": "0xf03af6b21ef10f500878737225070b99daa54c98c40f8bc5604bf44bd7e1d4ea",
      "transactionIndex": "0xcd",
      "blockHash": "0x839143a7bf4fb4c766501635b6a4da902b73a8a35af1494e5dc5bd981f4895ea",
      "blockNumber": "0x1cd1194",
      "gasUsed": "0xce5f",
      "effectiveGasPrice": "0x11a23a",
      "from": "0xb819a871d20913839c37f316dc914b0570bfc0ee",
      "to": "0x2b588f7f4832561e46924f3ea54c244569724915",
      "contractAddress": null,
      "l1BaseFeeScalar": "0x8dd",
      "l1BlobBaseFee": "0x1",
      "l1BlobBaseFeeScalar": "0x101c12",
      "l1Fee": "0x128898fe7",
      "l1GasPrice": "0x51ae85bc",
      "l1GasUsed": "0x640"
    },
    {
      "status": "0x1",
      "cumulativeGasUsed": "0x3d8baf5",
      "logs": [
        {
          "address": "0x2b588f7f4832561e46924f3ea54c244569724915",
          "topics": [
            "0x4059c608a8f17b9b24a5a29662eb74934d39ea92ae22411868f07fcac29487a0",
            "0x00000000000000000000000050d8deadd2b3140b151cab2c4fb76f1f59b236f8"
          ],
          "data": "0x0000000000000000000000000000000000000000000000000000000000000001",
          "blockHash": "0xd4d53fee436366f7dba67ad23a1e807ecbdc5ceb6f86f4c66adf25141d140125",
          "blockNumber": "0x1cd1196",
          "blockTimestamp": "0x6824800f",
          "transactionHash": "0xffac9d38530bb78d1f8b333301516efe6c01ef0e838a825e1fea57838363e4f9",
          "transactionIndex": "0x9b",
          "logIndex": "0x283",
          "removed": false
        }
      ],
      "logsBloom": "0x00000000000000000000000000000000000000000000200000000000000000000000000000000000000000020000000000000000000000000000000000020000000000200000000000000000000000000000000000000000000000000000000000000000000000000000000000000000000000000000000000000000020000000000000000000000000000000000000000000000000000000000000000000000000000000040000000000000000000000000000000000000000000000000000000000000000000000000000000000000000000000000000000000000000000000000000000808000000000000000000000000000000000000000000000020000",
      "type": "0x2",
      "transactionHash": "0xffac9d38530bb78d1f8b333301516efe6c01ef0e838a825e1fea57838363e4f9",
      "transactionIndex": "0x9b",
      "blockHash": "0xd4d53fee436366f7dba67ad23a1e807ecbdc5ceb6f86f4c66adf25141d140125",
      "blockNumber": "0x1cd1196",
      "gasUsed": "0xce5f",
      "effectiveGasPrice": "0x119939",
      "from": "0xb819a871d20913839c37f316dc914b0570bfc0ee",
      "to": "0x2b588f7f4832561e46924f3ea54c244569724915",
      "contractAddress": null,
      "l1BaseFeeScalar": "0x8dd",
      "l1BlobBaseFee": "0x1",
      "l1BlobBaseFeeScalar": "0x101c12",
      "l1Fee": "0x128898fe7",
      "l1GasPrice": "0x51ae85bc",
      "l1GasUsed": "0x640"
    },
    {
      "status": "0x1",
      "cumulativeGasUsed": "0x3e1720d",
      "logs": [
        {
          "address": "0x2b588f7f4832561e46924f3ea54c244569724915",
          "topics": [
            "0x4059c608a8f17b9b24a5a29662eb74934d39ea92ae22411868f07fcac29487a0",
            "0x000000000000000000000000574582c44e3f1ef2cb29a7131b057febbcc8244e"
          ],
          "data": "0x0000000000000000000000000000000000000000000000000000000000000001",
          "blockHash": "0x1c87da3b23f0c0fa0c99b2b296bc848f8102d5a97ea1947bed8893b81f9ecbea",
          "blockNumber": "0x1cd1198",
          "blockTimestamp": "0x68248013",
          "transactionHash": "0x965ea03a74a9e2291ccf61a776d3e7df6bee605c76268e410956af75c16e33ba",
          "transactionIndex": "0xba",
          "logIndex": "0x250",
          "removed": false
        }
      ],
      "logsBloom": "0x00000000000000000000000000000000000000000000000000000000000000000000000000000000000000020000000000000000000000000000000000020000000000200000200000000000000000000000000000000000000000000000000000000000000000000000000000000000000000000000000000000000000000000000000000000000000000100000000000000000000000000000000000000000004000000040000000000000000000000000000000000000000000000000000000000000000000000000000000000000000000000000000000000000000000000000000000008000000000000000000000000000000000000000000000020000",
      "type": "0x2",
      "transactionHash": "0x965ea03a74a9e2291ccf61a776d3e7df6bee605c76268e410956af75c16e33ba",
      "transactionIndex": "0xba",
      "blockHash": "0x1c87da3b23f0c0fa0c99b2b296bc848f8102d5a97ea1947bed8893b81f9ecbea",
      "blockNumber": "0x1cd1198",
      "gasUsed": "0xce5f",
      "effectiveGasPrice": "0x1199b9",
      "from": "0xb819a871d20913839c37f316dc914b0570bfc0ee",
      "to": "0x2b588f7f4832561e46924f3ea54c244569724915",
      "contractAddress": null,
      "l1BaseFeeScalar": "0x8dd",
      "l1BlobBaseFee": "0x1",
      "l1BlobBaseFeeScalar": "0x101c12",
      "l1Fee": "0x128898fe7",
      "l1GasPrice": "0x51ae85bc",
      "l1GasUsed": "0x640"
    },
    {
      "status": "0x1",
      "cumulativeGasUsed": "0x3c5ba7e",
      "logs": [
        {
          "address": "0x2b588f7f4832561e46924f3ea54c244569724915",
          "topics": [
            "0x4059c608a8f17b9b24a5a29662eb74934d39ea92ae22411868f07fcac29487a0",
            "0x000000000000000000000000281567fe62b587ec1755f6f33b80160f544dc5d0"
          ],
          "data": "0x0000000000000000000000000000000000000000000000000000000000000001",
          "blockHash": "0xd0878cb3a7dc51016d6544bdacbdb246f29c4de61394d38511c01ed18d7f7bdd",
          "blockNumber": "0x1cd119a",
          "blockTimestamp": "0x68248017",
          "transactionHash": "0x83637d9b3b8fcb29ae33df42e20ef0ff51d1acb479484410d8258731fe8fbc8f",
          "transactionIndex": "0xf4",
          "logIndex": "0x2a9",
          "removed": false
        }
      ],
      "logsBloom": "0x00200000000000000000000000000000000000000000000000000000000000000000000000000000000000020000000000000000000000000000000000020000000000200000000000000000000000000000000000000000000000000002000000000000000000000000000000000000000000000000000000000000000000000000000000000000000000000000000000000000800000000000000000000000000000000040000000000000000000000000000000000000000000000000000000000000000000000000000000000000000000000000000000000000000000000000000000008000000000000000000000000000000000000000000000020000",
      "type": "0x2",
      "transactionHash": "0x83637d9b3b8fcb29ae33df42e20ef0ff51d1acb479484410d8258731fe8fbc8f",
      "transactionIndex": "0xf4",
      "blockHash": "0xd0878cb3a7dc51016d6544bdacbdb246f29c4de61394d38511c01ed18d7f7bdd",
      "blockNumber": "0x1cd119a",
      "gasUsed": "0xce5f",
      "effectiveGasPrice": "0x11a3d8",
      "from": "0xb819a871d20913839c37f316dc914b0570bfc0ee",
      "to": "0x2b588f7f4832561e46924f3ea54c244569724915",
      "contractAddress": null,
      "l1BaseFeeScalar": "0x8dd",
      "l1BlobBaseFee": "0x1",
      "l1BlobBaseFeeScalar": "0x101c12",
      "l1Fee": "0x12fcec697",
      "l1GasPrice": "0x53af326a",
      "l1GasUsed": "0x640"
    },
    {
      "status": "0x1",
      "cumulativeGasUsed": "0x2300d67",
      "logs": [
        {
          "address": "0x2b588f7f4832561e46924f3ea54c244569724915",
          "topics": [
            "0x4059c608a8f17b9b24a5a29662eb74934d39ea92ae22411868f07fcac29487a0",
            "0x0000000000000000000000002705f6a8f01bd4a805d9fc73151dbe37bb8d1ede"
          ],
          "data": "0x0000000000000000000000000000000000000000000000000000000000000001",
          "blockHash": "0xb7b2c5160c0970e771f8e67ce22cffdef55b9578f6983c2fc930e47705800d89",
          "blockNumber": "0x1cd119c",
          "blockTimestamp": "0x6824801b",
          "transactionHash": "0xfda274fa4d28cc04b777b8beff718eed15071dd7ab88fa7959a367203b399858",
          "transactionIndex": "0xa3",
          "logIndex": "0x146",
          "removed": false
        }
      ],
      "logsBloom": "0x00000000000000000000000000000000000000000000000000000000000040000000000000000000000000020000000000000000000000000000000000020000000000200000000000000000000000000000000000000040000000000000000000000000000000000000000000000000000000000000000000000040000000000000000000000000000000000000000000000000000000000000000000000000000000000040000000000000000000000000000000000000000000000000000000000000000000000000000000000000000000000000000000000000000000000000000000008000000000000000000000000000000000000000000000020000",
      "type": "0x2",
      "transactionHash": "0xfda274fa4d28cc04b777b8beff718eed15071dd7ab88fa7959a367203b399858",
      "transactionIndex": "0xa3",
      "blockHash": "0xb7b2c5160c0970e771f8e67ce22cffdef55b9578f6983c2fc930e47705800d89",
      "blockNumber": "0x1cd119c",
      "gasUsed": "0xce5f",
      "effectiveGasPrice": "0x11a9c9",
      "from": "0xb819a871d20913839c37f316dc914b0570bfc0ee",
      "to": "0x2b588f7f4832561e46924f3ea54c244569724915",
      "contractAddress": null,
      "l1BaseFeeScalar": "0x8dd",
      "l1BlobBaseFee": "0x1",
      "l1BlobBaseFeeScalar": "0x101c12",
      "l1Fee": "0x12fcec697",
      "l1GasPrice": "0x53af326a",
      "l1GasUsed": "0x640"
    },
    {
      "status": "0x1",
      "cumulativeGasUsed": "0x5dc3b17",
      "logs": [
        {
          "address": "0x2b588f7f4832561e46924f3ea54c244569724915",
          "topics": [
            "0x4059c608a8f17b9b24a5a29662eb74934d39ea92ae22411868f07fcac29487a0",
            "0x000000000000000000000000c9c9693b6a445d05add0043662fad9ac600ad088"
          ],
          "data": "0x0000000000000000000000000000000000000000000000000000000000000001",
          "blockHash": "0xe4f7a51263373da0a1d2c520d54a04a4c66416e4749b77263cf5bbd8c567f989",
          "blockNumber": "0x1cd119e",
          "blockTimestamp": "0x6824801f",
          "transactionHash": "0xeafb77e4dc25e49fea7834cade69bfec6a4e5fed270de470f6a801df9f3ac68a",
          "transactionIndex": "0xb2",
          "logIndex": "0x1b0",
          "removed": false
        }
      ],
      "logsBloom": "0x00000000000000000000000000000000000000000000000000000000000000000000000010000000000000020000000000000000000000000000000000020000000000200000000000000000000000000000000000000000000000000000000000000000000000000000000000000000000000000000000000000000000000000000000000000000000000000000000000000000000000000000000000000000000000001040000000000000000000000000000000000000000000000000000000000001000000000000000000000000000000000000000000000000000000000000000000008000000000000000000000000000000000000000000000020000",
      "type": "0x2",
      "transactionHash": "0xeafb77e4dc25e49fea7834cade69bfec6a4e5fed270de470f6a801df9f3ac68a",
      "transactionIndex": "0xb2",
      "blockHash": "0xe4f7a51263373da0a1d2c520d54a04a4c66416e4749b77263cf5bbd8c567f989",
      "blockNumber": "0x1cd119e",
      "gasUsed": "0xce5f",
      "effectiveGasPrice": "0x11a52a",
      "from": "0xb819a871d20913839c37f316dc914b0570bfc0ee",
      "to": "0x2b588f7f4832561e46924f3ea54c244569724915",
      "contractAddress": null,
      "l1BaseFeeScalar": "0x8dd",
      "l1BlobBaseFee": "0x1",
      "l1BlobBaseFeeScalar": "0x101c12",
      "l1Fee": "0x12fcec697",
      "l1GasPrice": "0x53af326a",
      "l1GasUsed": "0x640"
    },
    {
      "status": "0x1",
      "cumulativeGasUsed": "0x3d9bc7a",
      "logs": [
        {
          "address": "0x2b588f7f4832561e46924f3ea54c244569724915",
          "topics": [
            "0x4059c608a8f17b9b24a5a29662eb74934d39ea92ae22411868f07fcac29487a0",
            "0x0000000000000000000000007efe40b2e6da8b28aab6bd2d622b9cd7f5fe077c"
          ],
          "data": "0x0000000000000000000000000000000000000000000000000000000000000001",
          "blockHash": "0x797f508bd38b8d4fc95324acca725d118f4553099a4d7656a56ef56a17807aeb",
          "blockNumber": "0x1cd119f",
          "blockTimestamp": "0x68248021",
          "transactionHash": "0x604470de6490257e9694cc695f2a9f560038672cb51321157e6713184a32756e",
          "transactionIndex": "0xb6",
          "logIndex": "0x205",
          "removed": false
        }
      ],
      "logsBloom": "0x00000000000000000000000000000000000000000000000000000000000000000000000000000000000000020000000000000000000000000000000000020000000000200000000000080000000000000000000000000000000000000000000000000000000000000000000000000000000000000000000000000000000000000000000200000000000000000000000000000000000000000000000000000000000000000040000000000000000000000000000000000000000000000000000000000000000000000000000000000000000000800000000000000000000000000000000000008000000000000000000000000000000000000000000000020000",
      "type": "0x2",
      "transactionHash": "0x604470de6490257e9694cc695f2a9f560038672cb51321157e6713184a32756e",
      "transactionIndex": "0xb6",
      "blockHash": "0x797f508bd38b8d4fc95324acca725d118f4553099a4d7656a56ef56a17807aeb",
      "blockNumber": "0x1cd119f",
      "gasUsed": "0xce5f",
      "effectiveGasPrice": "0x11ae3e",
      "from": "0xb819a871d20913839c37f316dc914b0570bfc0ee",
      "to": "0x2b588f7f4832561e46924f3ea54c244569724915",
      "contractAddress": null,
      "l1BaseFeeScalar": "0x8dd",
      "l1BlobBaseFee": "0x1",
      "l1BlobBaseFeeScalar": "0x101c12",
      "l1Fee": "0x1381d0b48",
      "l1GasPrice": "0x55f8e199",
      "l1GasUsed": "0x640"
    },
    {
      "status": "0x1",
      "cumulativeGasUsed": "0x2896c1a",
      "logs": [
        {
          "address": "0x2b588f7f4832561e46924f3ea54c244569724915",
          "topics": [
            "0x4059c608a8f17b9b24a5a29662eb74934d39ea92ae22411868f07fcac29487a0",
            "0x000000000000000000000000a22dcb8f0a2848289124086f35ae9db2a0006962"
          ],
          "data": "0x0000000000000000000000000000000000000000000000000000000000000001",
          "blockHash": "0x82f946c2d45f16d5b433366d562487bfea326dc8608211a6bc45e647e3bf6134",
          "blockNumber": "0x1cd11a1",
          "blockTimestamp": "0x68248025",
          "transactionHash": "0x67339626874dba466edc4b8f48ccb94d110d14f3f984c887efed559d1c3a473c",
          "transactionIndex": "0xd4",
          "logIndex": "0x19a",
          "removed": false
        }
      ],
      "logsBloom": "0x00000000000000000100000000000000000000000000000000000000000000000000000000000000000000020000000000000000000000000000000000020000000000300000000000000000000000000000000000000000000000000000000000000000000000000000000000000000000000000000000000000000000000000000000000000000000000000000000000000000000000200000000000000000000000000040000000000000000000000000000000000000000000000000000000000000000000000000000000000000000000000000000000000000000000000000000000008000000000000000000000000000000000000000000000020000",
      "type": "0x2",
      "transactionHash": "0x67339626874dba466edc4b8f48ccb94d110d14f3f984c887efed559d1c3a473c",
      "transactionIndex": "0xd4",
      "blockHash": "0x82f946c2d45f16d5b433366d562487bfea326dc8608211a6bc45e647e3bf6134",
      "blockNumber": "0x1cd11a1",
      "gasUsed": "0xce53",
      "effectiveGasPrice": "0x11b212",
      "from": "0xb819a871d20913839c37f316dc914b0570bfc0ee",
      "to": "0x2b588f7f4832561e46924f3ea54c244569724915",
      "contractAddress": null,
      "l1BaseFeeScalar": "0x8dd",
      "l1BlobBaseFee": "0x1",
      "l1BlobBaseFeeScalar": "0x101c12",
      "l1Fee": "0x1381d0b48",
      "l1GasPrice": "0x55f8e199",
      "l1GasUsed": "0x640"
    },
    {
      "status": "0x1",
      "cumulativeGasUsed": "0x1ca4e39",
      "logs": [
        {
          "address": "0x2b588f7f4832561e46924f3ea54c244569724915",
          "topics": [
            "0x4059c608a8f17b9b24a5a29662eb74934d39ea92ae22411868f07fcac29487a0",
            "0x000000000000000000000000b819a871d20913839c37f316dc914b0570bfc0ee"
          ],
          "data": "0x0000000000000000000000000000000000000000000000000000000000000001",
          "blockHash": "0x974ded74c4ffc9e1cab5d261512061bb3581aec0da99fc8083947809b72f48cb",
          "blockNumber": "0x1cd11a3",
          "blockTimestamp": "0x68248029",
          "transactionHash": "0xeeffa457c49f0ddcde11e2d34fa068000363dbd575b3a942cb63dfebb5aa1125",
          "transactionIndex": "0x63",
          "logIndex": "0x11d",
          "removed": false
        }
      ],
      "logsBloom": "0x00000000000000000000000000000000000000000000000000000000000000000000000000000000000000020000000000000000000000000000000000020002000000200080000000000000000000000000000000000000000000000000000000000000000000000000000000000000000000000000000000000000000000000000000000000000000000000000000000000000000000000000000000000000000000000040000000000000000000000000000000000000000000000000000000000000000000000000000000000000000000000000000000000200000000000000000000008000000000000000000000000000000000000000000000020000",
      "type": "0x2",
      "transactionHash": "0xeeffa457c49f0ddcde11e2d34fa068000363dbd575b3a942cb63dfebb5aa1125",
      "transactionIndex": "0x63",
      "blockHash": "0x974ded74c4ffc9e1cab5d261512061bb3581aec0da99fc8083947809b72f48cb",
      "blockNumber": "0x1cd11a3",
      "gasUsed": "0xce5f",
      "effectiveGasPrice": "0x11b316",
      "from": "0xb819a871d20913839c37f316dc914b0570bfc0ee",
      "to": "0x2b588f7f4832561e46924f3ea54c244569724915",
      "contractAddress": null,
      "l1BaseFeeScalar": "0x8dd",
      "l1BlobBaseFee": "0x1",
      "l1BlobBaseFeeScalar": "0x101c12",
      "l1Fee": "0x1381d0b48",
      "l1GasPrice": "0x55f8e199",
      "l1GasUsed": "0x640"
    },
    {
      "status": "0x1",
      "cumulativeGasUsed": "0x41de5b2",
      "logs": [
        {
          "address": "0x2b588f7f4832561e46924f3ea54c244569724915",
          "topics": [
            "0x4059c608a8f17b9b24a5a29662eb74934d39ea92ae22411868f07fcac29487a0",
            "0x00000000000000000000000040282d3cf4890d9806bc1853e97a59c93d813653"
          ],
          "data": "0x0000000000000000000000000000000000000000000000000000000000000001",
          "blockHash": "0x73860a62549264ed3cd471856fdd4bed4d1941aed5edbafe3e372dda5901991e",
          "blockNumber": "0x1cd11a5",
          "blockTimestamp": "0x6824802d",
          "transactionHash": "0x6afe285f827a453c3053c64f2fe5171a40d4f92d731e6557feeecb80f2628e36",
          "transactionIndex": "0xec",
          "logIndex": "0x2af",
          "removed": false
        }
      ],
      "logsBloom": "0x00000000000000000000000000000000000000000000000000000000000000000000004000000000000000020000000000000000000000000000000000020000000000200000000000000000000000000000000000000000000000000000000000000000000000000000000000000000000000000000000000000000000000000000000040000000000000000000000000000000000200000000000000000000000000000040000000000000000000000000000000000000000000000000000000000000000000000000000000000000000000000000000000000000000000000000000000008000000000000000000000000000000000000000000000020000",
      "type": "0x2",
      "transactionHash": "0x6afe285f827a453c3053c64f2fe5171a40d4f92d731e6557feeecb80f2628e36",
      "transactionIndex": "0xec",
      "blockHash": "0x73860a62549264ed3cd471856fdd4bed4d1941aed5edbafe3e372dda5901991e",
      "blockNumber": "0x1cd11a5",
      "gasUsed": "0xce5f",
      "effectiveGasPrice": "0x11bb60",
      "from": "0xb819a871d20913839c37f316dc914b0570bfc0ee",
      "to": "0x2b588f7f4832561e46924f3ea54c244569724915",
      "contractAddress": null,
      "l1BaseFeeScalar": "0x8dd",
      "l1BlobBaseFee": "0x1",
      "l1BlobBaseFeeScalar": "0x101c12",
      "l1Fee": "0x11c824eb0",
      "l1GasPrice": "0x4e5e5619",
      "l1GasUsed": "0x640"
    },
    {
      "status": "0x1",
      "cumulativeGasUsed": "0x1e95d17",
      "logs": [
        {
          "address": "0x2b588f7f4832561e46924f3ea54c244569724915",
          "topics": [
            "0x4059c608a8f17b9b24a5a29662eb74934d39ea92ae22411868f07fcac29487a0",
            "0x000000000000000000000000b5b901f1bb86421301138b5c45c1d3fe96663161"
          ],
          "data": "0x0000000000000000000000000000000000000000000000000000000000000001",
          "blockHash": "0xfc1ead20732098c71785b215067c4d87ea42b9758a25ea2c3536c8169fd12e9d",
          "blockNumber": "0x1cd11a7",
          "blockTimestamp": "0x68248031",
          "transactionHash": "0xa17334c741bd693656efa029d8feee625a081e6e601d0855365eff17c5aae3e3",
          "transactionIndex": "0x8c",
          "logIndex": "0x155",
          "removed": false
        }
      ],
      "logsBloom": "0x00000000000000000000000000000000000000000000000000000000000000004000000000000000000000020000000000000000000000000000000000020000000000200000000000000000000000000000000000800000000000000000000000000000000000000000000000000000000000000000000000000000000000000000000000000000000000000000000000000000000000000000000000000000000000000040010000000000000000000000000000000000000000000000000000000000000000000000000000000000000000000000000000000000000000000000000000008000000000000000000000000000000000000000000000020000",
      "type": "0x2",
      "transactionHash": "0xa17334c741bd693656efa029d8feee625a081e6e601d0855365eff17c5aae3e3",
      "transactionIndex": "0x8c",
      "blockHash": "0xfc1ead20732098c71785b215067c4d87ea42b9758a25ea2c3536c8169fd12e9d",
      "blockNumber": "0x1cd11a7",
      "gasUsed": "0xce5f",
      "effectiveGasPrice": "0x11bd1a",
      "from": "0xb819a871d20913839c37f316dc914b0570bfc0ee",
      "to": "0x2b588f7f4832561e46924f3ea54c244569724915",
      "contractAddress": null,
      "l1BaseFeeScalar": "0x8dd",
      "l1BlobBaseFee": "0x1",
      "l1BlobBaseFeeScalar": "0x101c12",
      "l1Fee": "0x11c824eb0",
      "l1GasPrice": "0x4e5e5619",
      "l1GasUsed": "0x640"
    },
    {
      "status": "0x1",
      "cumulativeGasUsed": "0x2980759",
      "logs": [
        {
          "address": "0x2b588f7f4832561e46924f3ea54c244569724915",
          "topics": [
            "0x4059c608a8f17b9b24a5a29662eb74934d39ea92ae22411868f07fcac29487a0",
            "0x000000000000000000000000baec8904499dcdee770c60df15b0c37eac84fb62"
          ],
          "data": "0x0000000000000000000000000000000000000000000000000000000000000001",
          "blockHash": "0x3453e4276f5d66e8f049e55405cb1c906f230b657fb627490997a948ab8ef9c2",
          "blockNumber": "0x1cd11a9",
          "blockTimestamp": "0x68248035",
          "transactionHash": "0x0855b610cc1dc993e722e1bed26da5a10da150f31f3b337ac383713f5af080b8",
          "transactionIndex": "0xba",
          "logIndex": "0x24c",
          "removed": false
        }
      ],
      "logsBloom": "0x00000000000000000000000000000000000000000000000000000000000000000000000000000000000000020000000000000000000000000000000000020000000000200000800000000000000080000000000000000000000000000000000000000000000000000000000000000000000000000000000000000000000000000000000000000000000000000000000000000000000000000000000000000000000000000040000000000000000000000000000000000000000000000000000000000000000000000000000000000000008000000000000000000000000000000000000000008000000000000000000000000000000000000000000000020000",
      "type": "0x2",
      "transactionHash": "0x0855b610cc1dc993e722e1bed26da5a10da150f31f3b337ac383713f5af080b8",
      "transactionIndex": "0xba",
      "blockHash": "0x3453e4276f5d66e8f049e55405cb1c906f230b657fb627490997a948ab8ef9c2",
      "blockNumber": "0x1cd11a9",
      "gasUsed": "0xce5f",
      "effectiveGasPrice": "0x11b78a",
      "from": "0xb819a871d20913839c37f316dc914b0570bfc0ee",
      "to": "0x2b588f7f4832561e46924f3ea54c244569724915",
      "contractAddress": null,
      "l1BaseFeeScalar": "0x8dd",
      "l1BlobBaseFee": "0x1",
      "l1BlobBaseFeeScalar": "0x101c12",
      "l1Fee": "0x11c824eb0",
      "l1GasPrice": "0x4e5e5619",
      "l1GasUsed": "0x640"
    },
    {
      "status": "0x1",
      "cumulativeGasUsed": "0x311c3af",
      "logs": [
        {
          "address": "0x2b588f7f4832561e46924f3ea54c244569724915",
          "topics": [
            "0x4059c608a8f17b9b24a5a29662eb74934d39ea92ae22411868f07fcac29487a0",
            "0x000000000000000000000000fc4a23271b60887fc246b060b6931a08e2bc434c"
          ],
          "data": "0x0000000000000000000000000000000000000000000000000000000000000001",
          "blockHash": "0x392827d36154b36b972a3033525a4c1a61c7b7ecf5df4770f8b1fa543af556f9",
          "blockNumber": "0x1cd11ab",
          "blockTimestamp": "0x68248039",
          "transactionHash": "0x59bd1e84d2379e41a32fa0df29fe6d61a7b524e0757d4bc3a3a0d5c26d5a7ec7",
          "transactionIndex": "0xf1",
          "logIndex": "0x2e6",
          "removed": false
        }
      ],
      "logsBloom": "0x00000200000000000000000000000000000000000000000000000000000000000000000000000000000000020000000000000000000000000000000000020000000000200000020000000000000000000000000000000000000000004000000000000000000000000000000000000000000000000000000000000000000000000000000000000000000000000000000000000000000000000000000000000000000000000040000000000000000000000000000000000000000000000000000000000000000000000000000000000000000000000000000000000000000000000000000000008000000000000000000000000000000000000000000000020000",
      "type": "0x2",
      "transactionHash": "0x59bd1e84d2379e41a32fa0df29fe6d61a7b524e0757d4bc3a3a0d5c26d5a7ec7",
      "transactionIndex": "0xf1",
      "blockHash": "0x392827d36154b36b972a3033525a4c1a61c7b7ecf5df4770f8b1fa543af556f9",
      "blockNumber": "0x1cd11ab",
      "gasUsed": "0xce5f",
      "effectiveGasPrice": "0x11b158",
      "from": "0xb819a871d20913839c37f316dc914b0570bfc0ee",
      "to": "0x2b588f7f4832561e46924f3ea54c244569724915",
      "contractAddress": null,
      "l1BaseFeeScalar": "0x8dd",
      "l1BlobBaseFee": "0x1",
      "l1BlobBaseFeeScalar": "0x101c12",
      "l1Fee": "0x1270d718b",
      "l1GasPrice": "0x5145d16d",
      "l1GasUsed": "0x640"
    },
    {
      "status": "0x1",
      "cumulativeGasUsed": "0x4e52593",
      "logs": [
        {
          "address": "0x2b588f7f4832561e46924f3ea54c244569724915",
          "topics": [
            "0x4059c608a8f17b9b24a5a29662eb74934d39ea92ae22411868f07fcac29487a0",
            "0x00000000000000000000000065b142550ae82f4bb3792e1eefb2fc35541a3837"
          ],
          "data": "0x0000000000000000000000000000000000000000000000000000000000000001",
          "blockHash": "0x19a4b98832e4af09130a1a87206777083e9927e5ce2e0b67965c27fd8a1b22c5",
          "blockNumber": "0x1cd11ae",
          "blockTimestamp": "0x6824803f",
          "transactionHash": "0x0dcdd8fa70f4d80c840f00386cfd96edf31576d22d8cb5a8a17c70f5e0380216",
          "transactionIndex": "0xf3",
          "logIndex": "0x302",
          "removed": false
        }
      ],
      "logsBloom": "0x00000000000000000000000000000000000000000000000000000000000000000000000000000000000000020000000000000000000000000000000000020000000000200000000000000000000000000000000000000000000000000000000000000000000000000000000000000000000000000000000000000000000000000000000000000000000000000000000000000000000000000000000000000000000040000040000000000000000000080000000000000000000000000000000000000000000000000000000000000000000000000000000000000000008000000000000000008000000000000000000000000000000000000000000000020000",
      "type": "0x2",
      "transactionHash": "0x0dcdd8fa70f4d80c840f00386cfd96edf31576d22d8cb5a8a17c70f5e0380216",
      "transactionIndex": "0xf3",
      "blockHash": "0x19a4b98832e4af09130a1a87206777083e9927e5ce2e0b67965c27fd8a1b22c5",
      "blockNumber": "0x1cd11ae",
      "gasUsed": "0xce5f",
      "effectiveGasPrice": "0x11bb96",
      "from": "0xb819a871d20913839c37f316dc914b0570bfc0ee",
      "to": "0x2b588f7f4832561e46924f3ea54c244569724915",
      "contractAddress": null,
      "l1BaseFeeScalar": "0x8dd",
      "l1BlobBaseFee": "0x1",
      "l1BlobBaseFeeScalar": "0x101c12",
      "l1Fee": "0x1270d718b",
      "l1GasPrice": "0x5145d16d",
      "l1GasUsed": "0x640"
    },
    {
      "status": "0x1",
      "cumulativeGasUsed": "0x3189a6c",
      "logs": [
        {
          "address": "0x2b588f7f4832561e46924f3ea54c244569724915",
          "topics": [
            "0x4059c608a8f17b9b24a5a29662eb74934d39ea92ae22411868f07fcac29487a0",
            "0x00000000000000000000000075149feebb20e1fe5ddb89302a6d4bace70c14ce"
          ],
          "data": "0x0000000000000000000000000000000000000000000000000000000000000001",
          "blockHash": "0xa4cfff7a2e25bf2d5b8d06ab7786a0e3ea10d1286e076abc8d4ff3299d8da10c",
          "blockNumber": "0x1cd11b0",
          "blockTimestamp": "0x68248043",
          "transactionHash": "0xe25f9e5df9589e212633c2bff2d453606277ed9090fd7cf1736b5cd06c48b7d9",
          "transactionIndex": "0xc4",
          "logIndex": "0x2d2",
          "removed": false
        }
      ],
      "logsBloom": "0x00000000000000200000000000000000000000000000000000000000000000000000000000000000040000020000000000000000000000000000000000020000000000200000000000000000000000000000000000000000000000000000000000000000000000000000000000000000000000000000000000000000000000000000000000000000000000000000000000000000000000000000000000000000000000000040000000000000000010000000000000000000000000000000000000000000000000000000000000000000000000000000000000000000000000000000000000008000000000000000000000000000000000000000000000020000",
      "type": "0x2",
      "transactionHash": "0xe25f9e5df9589e212633c2bff2d453606277ed9090fd7cf1736b5cd06c48b7d9",
      "transactionIndex": "0xc4",
      "blockHash": "0xa4cfff7a2e25bf2d5b8d06ab7786a0e3ea10d1286e076abc8d4ff3299d8da10c",
      "blockNumber": "0x1cd11b0",
      "gasUsed": "0xce5f",
      "effectiveGasPrice": "0x11bed6",
      "from": "0xb819a871d20913839c37f316dc914b0570bfc0ee",
      "to": "0x2b588f7f4832561e46924f3ea54c244569724915",
      "contractAddress": null,
      "l1BaseFeeScalar": "0x8dd",
      "l1BlobBaseFee": "0x1",
      "l1BlobBaseFeeScalar": "0x101c12",
      "l1Fee": "0x1270d718b",
      "l1GasPrice": "0x5145d16d",
      "l1GasUsed": "0x640"
    },
    {
      "status": "0x1",
      "cumulativeGasUsed": "0x41685a0",
      "logs": [
        {
          "address": "0x2b588f7f4832561e46924f3ea54c244569724915",
          "topics": [
            "0x4059c608a8f17b9b24a5a29662eb74934d39ea92ae22411868f07fcac29487a0",
            "0x00000000000000000000000065b6d4770dadcfba6d363de86aa4d9c76283cea0"
          ],
          "data": "0x0000000000000000000000000000000000000000000000000000000000000001",
          "blockHash": "0x7db4025f61a651f289212c045cec380f278a5ae61f22046f8941593fb1fd69a4",
          "blockNumber": "0x1cd11b2",
          "blockTimestamp": "0x68248047",
          "transactionHash": "0x935569b8f2a5a466c338bc0c32e9fd11d92ab51ecf1afad463da0c2b5e3fa962",
          "transactionIndex": "0xa3",
          "logIndex": "0xdbf",
          "removed": false
        }
      ],
      "logsBloom": "0x00000000800000000000000000000000000000000000000000000000000000000000000000000000000002020000000000000000000000000000000000020000000000200000000000000000000000000000000000000000000000000000000000000000000000000000000000000000000000000000000000000000000000000000000000000000000000000000000000000000000000000000000000000000000000000040000000000000000000000000000000000000000000000000000000000000000000000000000000000000002000000000000000000000000000000000000000008000000000000000000000000000000000000000000000020000",
      "type": "0x2",
      "transactionHash": "0x935569b8f2a5a466c338bc0c32e9fd11d92ab51ecf1afad463da0c2b5e3fa962",
      "transactionIndex": "0xa3",
      "blockHash": "0x7db4025f61a651f289212c045cec380f278a5ae61f22046f8941593fb1fd69a4",
      "blockNumber": "0x1cd11b2",
      "gasUsed": "0xce5f",
      "effectiveGasPrice": "0x11baa8",
      "from": "0xb819a871d20913839c37f316dc914b0570bfc0ee",
      "to": "0x2b588f7f4832561e46924f3ea54c244569724915",
      "contractAddress": null,
      "l1BaseFeeScalar": "0x8dd",
      "l1BlobBaseFee": "0x1",
      "l1BlobBaseFeeScalar": "0x101c12",
      "l1Fee": "0x125bb5028",
      "l1GasPrice": "0x50e8adf1",
      "l1GasUsed": "0x640"
    },
    {
      "status": "0x1",
      "cumulativeGasUsed": "0x444ca5f",
      "logs": [
        {
          "address": "0x2b588f7f4832561e46924f3ea54c244569724915",
          "topics": [
            "0x4059c608a8f17b9b24a5a29662eb74934d39ea92ae22411868f07fcac29487a0",
            "0x000000000000000000000000a6a9fddc94bb4fe7520a2ea1cc2c433e18683342"
          ],
          "data": "0x0000000000000000000000000000000000000000000000000000000000000001",
          "blockHash": "0xba593ed2e6c970f45354d54a4c305c686911cba4dc1f75a41603ad32792f701a",
          "blockNumber": "0x1cd11b4",
          "blockTimestamp": "0x6824804b",
          "transactionHash": "0xc4305d6468c7b39023516924bd5c583fbd1145c1ef968621ffb79f26391e68c0",
          "transactionIndex": "0xd7",
          "logIndex": "0x385",
          "removed": false
        }
      ],
      "logsBloom": "0x00000000000040000000000000000000000000000000000000000000000000000000000000000000000000020000000000000000000000000000000000020000000000200000000000000000000000400000000000000000000000000000000000000000000000000000000000000000000000000000000000000000000000000000000000000000000000000000000000000000000000000000000000000000000000000040000002000000000000000000000000000000000000000000000000000000000000000000000000000000000000000000000000000000000000000000000000008000000000000000000000000000000000000000000000020000",
      "type": "0x2",
      "transactionHash": "0xc4305d6468c7b39023516924bd5c583fbd1145c1ef968621ffb79f26391e68c0",
      "transactionIndex": "0xd7",
      "blockHash": "0xba593ed2e6c970f45354d54a4c305c686911cba4dc1f75a41603ad32792f701a",
      "blockNumber": "0x1cd11b4",
      "gasUsed": "0xce5f",
      "effectiveGasPrice": "0x11b31f",
      "from": "0xb819a871d20913839c37f316dc914b0570bfc0ee",
      "to": "0x2b588f7f4832561e46924f3ea54c244569724915",
      "contractAddress": null,
      "l1BaseFeeScalar": "0x8dd",
      "l1BlobBaseFee": "0x1",
      "l1BlobBaseFeeScalar": "0x101c12",
      "l1Fee": "0x125bb5028",
      "l1GasPrice": "0x50e8adf1",
      "l1GasUsed": "0x640"
    },
    {
      "status": "0x1",
      "cumulativeGasUsed": "0x29e52d5",
      "logs": [
        {
          "address": "0x2b588f7f4832561e46924f3ea54c244569724915",
          "topics": [
            "0x4059c608a8f17b9b24a5a29662eb74934d39ea92ae22411868f07fcac29487a0",
            "0x00000000000000000000000018d04f05f80ade5373849385a1c24e1e0a6d1744"
          ],
          "data": "0x0000000000000000000000000000000000000000000000000000000000000001",
          "blockHash": "0x5dd8bdf7691df52c994b3444a3e718c409d7a51c1701a8f62414230e91220e9e",
          "blockNumber": "0x1cd11b6",
          "blockTimestamp": "0x6824804f",
          "transactionHash": "0x37897beb0c2d7ca6c106e7469b189f6ba8bbaf768eba758125742e42ef3b3ae0",
          "transactionIndex": "0x93",
          "logIndex": "0x207",
          "removed": false
        }
      ],
      "logsBloom": "0x00000000000000000000000000000000000000000000000000000000000000000000000000000000000000020000000000000000000000000000000000020000000000200000000000000000000100000000000000000000000000000000000000000000000000000000000000000000000000000000000000000000000000000000000000000000000000000000000000000000000000000000000000000000000000000040000000000000000000000000000000000000000000000000000000000000000100000000000000000000000000000000000000000000000000000000000000008000000000000004000000000000000000000000000000020000",
      "type": "0x2",
      "transactionHash": "0x37897beb0c2d7ca6c106e7469b189f6ba8bbaf768eba758125742e42ef3b3ae0",
      "transactionIndex": "0x93",
      "blockHash": "0x5dd8bdf7691df52c994b3444a3e718c409d7a51c1701a8f62414230e91220e9e",
      "blockNumber": "0x1cd11b6",
      "gasUsed": "0xce5f",
      "effectiveGasPrice": "0x11b311",
      "from": "0xb819a871d20913839c37f316dc914b0570bfc0ee",
      "to": "0x2b588f7f4832561e46924f3ea54c244569724915",
      "contractAddress": null,
      "l1BaseFeeScalar": "0x8dd",
      "l1BlobBaseFee": "0x1",
      "l1BlobBaseFeeScalar": "0x101c12",
      "l1Fee": "0x125bb5028",
      "l1GasPrice": "0x50e8adf1",
      "l1GasUsed": "0x640"
    },
    {
      "status": "0x1",
      "cumulativeGasUsed": "0x2b5b635",
      "logs": [
        {
          "address": "0x2b588f7f4832561e46924f3ea54c244569724915",
          "topics": [
            "0x4059c608a8f17b9b24a5a29662eb74934d39ea92ae22411868f07fcac29487a0",
            "0x000000000000000000000000bd9c90d6774cb5320b54bb7998b6bcc5e4a9071f"
          ],
          "data": "0x0000000000000000000000000000000000000000000000000000000000000001",
          "blockHash": "0xef77f68dfaaaee9558ed75b1af41857c19ad412110214708b466d1b2af05c5f1",
          "blockNumber": "0x1cd11b8",
          "blockTimestamp": "0x68248053",
          "transactionHash": "0xa5b4409518ae0c5076bf6bc1b466a7f49e32c9b3abbedbf492625767a3d52da4",
          "transactionIndex": "0xc8",
          "logIndex": "0x2d4",
          "removed": false
        }
      ],
      "logsBloom": "0x00000000000000000000000000000000000000000000000000000000000000000000000000002000000000020000000000000000000040000000000000020000000000200000000000000000000000000000000000000000000000000000000000000000000000000000000000000000000000000000000000000000000000000000000000000000000000000000000000000000000000000000000000000000000000000040000000000000000000000000000000800000000000000000000000000000000000000000000000000000000000000000000000000000000000000000000000008000000000000000000000000000000000000000000000020000",
      "type": "0x2",
      "transactionHash": "0xa5b4409518ae0c5076bf6bc1b466a7f49e32c9b3abbedbf492625767a3d52da4",
      "transactionIndex": "0xc8",
      "blockHash": "0xef77f68dfaaaee9558ed75b1af41857c19ad412110214708b466d1b2af05c5f1",
      "blockNumber": "0x1cd11b8",
      "gasUsed": "0xce5f",
      "effectiveGasPrice": "0x11af36",
      "from": "0xb819a871d20913839c37f316dc914b0570bfc0ee",
      "to": "0x2b588f7f4832561e46924f3ea54c244569724915",
      "contractAddress": null,
      "l1BaseFeeScalar": "0x8dd",
      "l1BlobBaseFee": "0x1",
      "l1BlobBaseFeeScalar": "0x101c12",
      "l1Fee": "0x118873434",
      "l1GasPrice": "0x4d459f5c",
      "l1GasUsed": "0x640"
    },
    {
      "status": "0x1",
      "cumulativeGasUsed": "0x31b4602",
      "logs": [
        {
          "address": "0x2b588f7f4832561e46924f3ea54c244569724915",
          "topics": [
            "0x4059c608a8f17b9b24a5a29662eb74934d39ea92ae22411868f07fcac29487a0",
            "0x0000000000000000000000008f2eaba31b1b613ca78f2795ba05400f0583c5a4"
          ],
          "data": "0x0000000000000000000000000000000000000000000000000000000000000001",
          "blockHash": "0x434863217977feb1a645369cf1d9a4f540c71b39a83057585670a7822956584f",
          "blockNumber": "0x1cd11ba",
          "blockTimestamp": "0x68248057",
          "transactionHash": "0x29421b368528df329f27d48fefbfc53477bc7869ebe485dc15b455f21a2091c7",
          "transactionIndex": "0xb2",
          "logIndex": "0x34b",
          "removed": false
        }
      ],
      "logsBloom": "0x00000000000000000000000000000000000000000000000000000000000000000000000000000000000000020000000000000000000000000000000000020000000000200000000000000000000000000000000000000000000000000000000000000000000000000000001000000000000000000000000000000000000000000000000000000000000000000000000000000000000000000000000000000000000000000040000000000000000000000000000000000000000000000000000000004000000000000000000000002000000000000000000000000000000000000000000000008000000000000000000000000000000000000000000000020000",
      "type": "0x2",
      "transactionHash": "0x29421b368528df329f27d48fefbfc53477bc7869ebe485dc15b455f21a2091c7",
      "transactionIndex": "0xb2",
      "blockHash": "0x434863217977feb1a645369cf1d9a4f540c71b39a83057585670a7822956584f",
      "blockNumber": "0x1cd11ba",
      "gasUsed": "0xce5f",
      "effectiveGasPrice": "0x11a8fc",
      "from": "0xb819a871d20913839c37f316dc914b0570bfc0ee",
      "to": "0x2b588f7f4832561e46924f3ea54c244569724915",
      "contractAddress": null,
      "l1BaseFeeScalar": "0x8dd",
      "l1BlobBaseFee": "0x1",
      "l1BlobBaseFeeScalar": "0x101c12",
      "l1Fee": "0x118873434",
      "l1GasPrice": "0x4d459f5c",
      "l1GasUsed": "0x640"
    },
    {
      "status": "0x1",
      "cumulativeGasUsed": "0x2f72985",
      "logs": [
        {
          "address": "0x2b588f7f4832561e46924f3ea54c244569724915",
          "topics": [
            "0x4059c608a8f17b9b24a5a29662eb74934d39ea92ae22411868f07fcac29487a0",
            "0x0000000000000000000000008f2eaba31b1b613ca78f2795ba05400f0583c5a4"
          ],
          "data": "0x0000000000000000000000000000000000000000000000000000000000000001",
          "blockHash": "0xb588d7501836f1f917f856f5ae4633116830fb3953ad559f48470748aff53f6c",
          "blockNumber": "0x1cd11bd",
          "blockTimestamp": "0x6824805d",
          "transactionHash": "0x8bdd8b566c4a46900f01d4ce71f87c4ba16203afacff172a56455eb91d71ba03",
          "transactionIndex": "0xac",
          "logIndex": "0x349",
          "removed": false
        }
      ],
      "logsBloom": "0x00000000000000000000000000000000000000000000000000000000000000000000000000000000000000020000000000000000000000000000000000020000000000200000000000000000000000000000000000000000000000000000000000000000000000000000001000000000000000000000000000000000000000000000000000000000000000000000000000000000000000000000000000000000000000000040000000000000000000000000000000000000000000000000000000004000000000000000000000002000000000000000000000000000000000000000000000008000000000000000000000000000000000000000000000020000",
      "type": "0x2",
      "transactionHash": "0x8bdd8b566c4a46900f01d4ce71f87c4ba16203afacff172a56455eb91d71ba03",
      "transactionIndex": "0xac",
      "blockHash": "0xb588d7501836f1f917f856f5ae4633116830fb3953ad559f48470748aff53f6c",
      "blockNumber": "0x1cd11bd",
      "gasUsed": "0x80a3",
      "effectiveGasPrice": "0x11b013",
      "from": "0xb819a871d20913839c37f316dc914b0570bfc0ee",
      "to": "0x2b588f7f4832561e46924f3ea54c244569724915",
      "contractAddress": null,
      "l1BaseFeeScalar": "0x8dd",
      "l1BlobBaseFee": "0x1",
      "l1BlobBaseFeeScalar": "0x101c12",
      "l1Fee": "0x12e06909f",
      "l1GasPrice": "0x5331886a",
      "l1GasUsed": "0x640"
    },
    {
      "status": "0x1",
      "cumulativeGasUsed": "0x179864c",
      "logs": [
        {
          "address": "0x2b588f7f4832561e46924f3ea54c244569724915",
          "topics": [
            "0x4059c608a8f17b9b24a5a29662eb74934d39ea92ae22411868f07fcac29487a0",
            "0x00000000000000000000000050d8deadd2b3140b151cab2c4fb76f1f59b236f8"
          ],
          "data": "0x0000000000000000000000000000000000000000000000000000000000000001",
          "blockHash": "0x65d0f40fefaea9aab6be7c94ad72e9f57b4e7c7dd39d84b78fc95af458ae4808",
          "blockNumber": "0x1cd11bf",
          "blockTimestamp": "0x68248061",
          "transactionHash": "0x443b74f6fb2104692b4967a6f84b24ca2c85d56c1f07b7679d5b1097a20bed11",
          "transactionIndex": "0x80",
          "logIndex": "0x131",
          "removed": false
        }
      ],
      "logsBloom": "0x00000000000000000000000000000000000000000000200000000000000000000000000000000000000000020000000000000000000000000000000000020000000000200000000000000000000000000000000000000000000000000000000000000000000000000000000000000000000000000000000000000000020000000000000000000000000000000000000000000000000000000000000000000000000000000040000000000000000000000000000000000000000000000000000000000000000000000000000000000000000000000000000000000000000000000000000000808000000000000000000000000000000000000000000000020000",
      "type": "0x2",
      "transactionHash": "0x443b74f6fb2104692b4967a6f84b24ca2c85d56c1f07b7679d5b1097a20bed11",
      "transactionIndex": "0x80",
      "blockHash": "0x65d0f40fefaea9aab6be7c94ad72e9f57b4e7c7dd39d84b78fc95af458ae4808",
      "blockNumber": "0x1cd11bf",
      "gasUsed": "0x80a3",
      "effectiveGasPrice": "0x11b8a7",
      "from": "0xb819a871d20913839c37f316dc914b0570bfc0ee",
      "to": "0x2b588f7f4832561e46924f3ea54c244569724915",
      "contractAddress": null,
      "l1BaseFeeScalar": "0x8dd",
      "l1BlobBaseFee": "0x1",
      "l1BlobBaseFeeScalar": "0x101c12",
      "l1Fee": "0x12e06909f",
      "l1GasPrice": "0x5331886a",
      "l1GasUsed": "0x640"
    },
    {
      "status": "0x1",
      "cumulativeGasUsed": "0x2e84571",
      "logs": [
        {
          "address": "0x2b588f7f4832561e46924f3ea54c244569724915",
          "topics": [
            "0x4059c608a8f17b9b24a5a29662eb74934d39ea92ae22411868f07fcac29487a0",
            "0x000000000000000000000000574582c44e3f1ef2cb29a7131b057febbcc8244e"
          ],
          "data": "0x0000000000000000000000000000000000000000000000000000000000000001",
          "blockHash": "0x6e70113845de3a87b2bb843b03ec5c3775f780daa2d7207d7715cfd1be477774",
          "blockNumber": "0x1cd11c1",
          "blockTimestamp": "0x68248065",
          "transactionHash": "0x81e30baecd89d70924a170554b78cc790fb2c61b0db707a082bd70b5516456cd",
          "transactionIndex": "0xc5",
          "logIndex": "0x2d6",
          "removed": false
        }
      ],
      "logsBloom": "0x00000000000000000000000000000000000000000000000000000000000000000000000000000000000000020000000000000000000000000000000000020000000000200000200000000000000000000000000000000000000000000000000000000000000000000000000000000000000000000000000000000000000000000000000000000000000000100000000000000000000000000000000000000000004000000040000000000000000000000000000000000000000000000000000000000000000000000000000000000000000000000000000000000000000000000000000000008000000000000000000000000000000000000000000000020000",
      "type": "0x2",
      "transactionHash": "0x81e30baecd89d70924a170554b78cc790fb2c61b0db707a082bd70b5516456cd",
      "transactionIndex": "0xc5",
      "blockHash": "0x6e70113845de3a87b2bb843b03ec5c3775f780daa2d7207d7715cfd1be477774",
      "blockNumber": "0x1cd11c1",
      "gasUsed": "0x80a3",
      "effectiveGasPrice": "0x11b3fb",
      "from": "0xb819a871d20913839c37f316dc914b0570bfc0ee",
      "to": "0x2b588f7f4832561e46924f3ea54c244569724915",
      "contractAddress": null,
      "l1BaseFeeScalar": "0x8dd",
      "l1BlobBaseFee": "0x1",
      "l1BlobBaseFeeScalar": "0x101c12",
      "l1Fee": "0x12e06909f",
      "l1GasPrice": "0x5331886a",
      "l1GasUsed": "0x640"
    },
    {
      "status": "0x1",
      "cumulativeGasUsed": "0x274d27c",
      "logs": [
        {
          "address": "0x2b588f7f4832561e46924f3ea54c244569724915",
          "topics": [
            "0x4059c608a8f17b9b24a5a29662eb74934d39ea92ae22411868f07fcac29487a0",
            "0x000000000000000000000000bd0ce952ba069a1e15f3bf3916d4b07bbbdbc8b3"
          ],
          "data": "0x0000000000000000000000000000000000000000000000000000000000000001",
          "blockHash": "0x0178b0babc3f7fdb89ae3aca02510fa140703c9b1f82d0b9ca9c623b1297b2d2",
          "blockNumber": "0x1cd11c3",
          "blockTimestamp": "0x68248069",
          "transactionHash": "0x12c6ffaf31f0142a12d5ab975f0599fd53e13d1adfa27fafc9b2f7a75b0e5a0e",
          "transactionIndex": "0xb1",
          "logIndex": "0x2a3",
          "removed": false
        }
      ],
      "logsBloom": "0x00000000000000000000000000000000000000000000000000000000000000000000000000000000000000020000000000000000000000000000000000020000000000200002000000000000000000000000000000000000000000000000000000000000000000000000000000000000000000000000000000000000000000000000000000000000000000000000000000000000000000000000000000000000000000000040000000000000000000000000000000000000000000000000000000000000008000000000010000000000000000000000000000000000000000000000000000008000000000000000000000000000000000000000000000020000",
      "type": "0x2",
      "transactionHash": "0x12c6ffaf31f0142a12d5ab975f0599fd53e13d1adfa27fafc9b2f7a75b0e5a0e",
      "transactionIndex": "0xb1",
      "blockHash": "0x0178b0babc3f7fdb89ae3aca02510fa140703c9b1f82d0b9ca9c623b1297b2d2",
      "blockNumber": "0x1cd11c3",
      "gasUsed": "0xce5f",
      "effectiveGasPrice": "0x11b754",
      "from": "0xb819a871d20913839c37f316dc914b0570bfc0ee",
      "to": "0x2b588f7f4832561e46924f3ea54c244569724915",
      "contractAddress": null,
      "l1BaseFeeScalar": "0x8dd",
      "l1BlobBaseFee": "0x1",
      "l1BlobBaseFeeScalar": "0x101c12",
      "l1Fee": "0x1385c7816",
      "l1GasPrice": "0x560a5a0e",
      "l1GasUsed": "0x640"
    }
  ],
  "libraries": [],
  "pending": [],
  "returns": {},
  "timestamp": 1747222636,
  "chain": 8453,
  "commit": "0b1d1bd"
}