{
  "transactions": [
    {
      "hash": "0x835707e466b4be212404423686b3067e598f786c7044fd4b08946f9b44046c89",
      "transactionType": "CALL",
      "contractName": null,
      "contractAddress": "0x1d8e8cefeb085f3211ab6a443ad9051b54d1cd1a",
      "function": "setWhitelistedUser(address,bool)",
      "arguments": [
        "0xf20a8950c368Ec48323092D6e4acF90aADf2BdC6",
        "true"
      ],
      "transaction": {
        "from": "0xb819a871d20913839c37f316dc914b0570bfc0ee",
        "to": "0x1d8e8cefeb085f3211ab6a443ad9051b54d1cd1a",
        "gas": "0x11d0b",
        "value": "0x0",
        "input": "0x44710fbe000000000000000000000000f20a8950c368ec48323092d6e4acf90aadf2bdc60000000000000000000000000000000000000000000000000000000000000001",
        "nonce": "0xeb",
        "chainId": "0x2105"
      },
      "additionalContracts": [],
      "isFixedGasLimit": false
    },
    {
      "hash": "0xed2a82ab295c03f034a18fa1e512c421f8ccb9026e593b82e2e63f0d2aa93434",
      "transactionType": "CALL",
      "contractName": null,
      "contractAddress": "0x1d8e8cefeb085f3211ab6a443ad9051b54d1cd1a",
      "function": "setWhitelistedUser(address,bool)",
      "arguments": [
        "0x8E72a24221517E51502f20f387415a06b27A5b51",
        "true"
      ],
      "transaction": {
        "from": "0xb819a871d20913839c37f316dc914b0570bfc0ee",
        "to": "0x1d8e8cefeb085f3211ab6a443ad9051b54d1cd1a",
        "gas": "0x11d0b",
        "value": "0x0",
        "input": "0x44710fbe0000000000000000000000008e72a24221517e51502f20f387415a06b27a5b510000000000000000000000000000000000000000000000000000000000000001",
        "nonce": "0xec",
        "chainId": "0x2105"
      },
      "additionalContracts": [],
      "isFixedGasLimit": false
    },
    {
      "hash": "0x3e9bb4a13ab813014533f0d43e91ed1c6f430dc72709fc057abeba2874aa2552",
      "transactionType": "CALL",
      "contractName": null,
      "contractAddress": "0x1d8e8cefeb085f3211ab6a443ad9051b54d1cd1a",
      "function": "setWhitelistedUser(address,bool)",
      "arguments": [
        "0x50d8Deadd2b3140B151CaB2C4FB76F1f59b236F8",
        "true"
      ],
      "transaction": {
        "from": "0xb819a871d20913839c37f316dc914b0570bfc0ee",
        "to": "0x1d8e8cefeb085f3211ab6a443ad9051b54d1cd1a",
        "gas": "0x11d0b",
        "value": "0x0",
        "input": "0x44710fbe00000000000000000000000050d8deadd2b3140b151cab2c4fb76f1f59b236f80000000000000000000000000000000000000000000000000000000000000001",
        "nonce": "0xed",
        "chainId": "0x2105"
      },
      "additionalContracts": [],
      "isFixedGasLimit": false
    },
    {
      "hash": "0xa207ea94600566848aca705ea7e99aaa1b7a27dc5e729a36ff456cd0d4f186b1",
      "transactionType": "CALL",
      "contractName": null,
      "contractAddress": "0x1d8e8cefeb085f3211ab6a443ad9051b54d1cd1a",
      "function": "setWhitelistedUser(address,bool)",
      "arguments": [
        "0x574582C44e3f1EF2cB29a7131B057FebBCC8244E",
        "true"
      ],
      "transaction": {
        "from": "0xb819a871d20913839c37f316dc914b0570bfc0ee",
        "to": "0x1d8e8cefeb085f3211ab6a443ad9051b54d1cd1a",
        "gas": "0x11d0b",
        "value": "0x0",
        "input": "0x44710fbe000000000000000000000000574582c44e3f1ef2cb29a7131b057febbcc8244e0000000000000000000000000000000000000000000000000000000000000001",
        "nonce": "0xee",
        "chainId": "0x2105"
      },
      "additionalContracts": [],
      "isFixedGasLimit": false
    },
    {
      "hash": "0x12c181bea571f16304bdf83ec3702397a92a99522081bfedaabec0a1e611f461",
      "transactionType": "CALL",
      "contractName": null,
      "contractAddress": "0x1d8e8cefeb085f3211ab6a443ad9051b54d1cd1a",
      "function": "setWhitelistedUser(address,bool)",
      "arguments": [
        "0x281567fe62b587EC1755f6F33b80160F544Dc5d0",
        "true"
      ],
      "transaction": {
        "from": "0xb819a871d20913839c37f316dc914b0570bfc0ee",
        "to": "0x1d8e8cefeb085f3211ab6a443ad9051b54d1cd1a",
        "gas": "0x11d0b",
        "value": "0x0",
        "input": "0x44710fbe000000000000000000000000281567fe62b587ec1755f6f33b80160f544dc5d00000000000000000000000000000000000000000000000000000000000000001",
        "nonce": "0xef",
        "chainId": "0x2105"
      },
      "additionalContracts": [],
      "isFixedGasLimit": false
    },
    {
      "hash": "0x6da1ad88b9b1a0ff6ba33fa5e8482d33563e8d3fdca36369895da771336be037",
      "transactionType": "CALL",
      "contractName": null,
      "contractAddress": "0x1d8e8cefeb085f3211ab6a443ad9051b54d1cd1a",
      "function": "setWhitelistedUser(address,bool)",
      "arguments": [
        "0x2705f6A8F01bd4A805D9FC73151DBe37BB8d1edE",
        "true"
      ],
      "transaction": {
        "from": "0xb819a871d20913839c37f316dc914b0570bfc0ee",
        "to": "0x1d8e8cefeb085f3211ab6a443ad9051b54d1cd1a",
        "gas": "0x11d0b",
        "value": "0x0",
        "input": "0x44710fbe0000000000000000000000002705f6a8f01bd4a805d9fc73151dbe37bb8d1ede0000000000000000000000000000000000000000000000000000000000000001",
        "nonce": "0xf0",
        "chainId": "0x2105"
      },
      "additionalContracts": [],
      "isFixedGasLimit": false
    },
    {
      "hash": "0x88762e41f0442c61bc5a36e5b860e99ba8a9b5a37dbc6bbe2de8dc953f97a394",
      "transactionType": "CALL",
      "contractName": null,
      "contractAddress": "0x1d8e8cefeb085f3211ab6a443ad9051b54d1cd1a",
      "function": "setWhitelistedUser(address,bool)",
      "arguments": [
        "0xc9C9693b6A445D05Add0043662fad9Ac600Ad088",
        "true"
      ],
      "transaction": {
        "from": "0xb819a871d20913839c37f316dc914b0570bfc0ee",
        "to": "0x1d8e8cefeb085f3211ab6a443ad9051b54d1cd1a",
        "gas": "0x11d0b",
        "value": "0x0",
        "input": "0x44710fbe000000000000000000000000c9c9693b6a445d05add0043662fad9ac600ad0880000000000000000000000000000000000000000000000000000000000000001",
        "nonce": "0xf1",
        "chainId": "0x2105"
      },
      "additionalContracts": [],
      "isFixedGasLimit": false
    },
    {
      "hash": "0x792a06be3f7ad75861c2d638bdb319ad2d26e64b366666c86f6ba92e04c6a6ea",
      "transactionType": "CALL",
      "contractName": null,
      "contractAddress": "0x1d8e8cefeb085f3211ab6a443ad9051b54d1cd1a",
      "function": "setWhitelistedUser(address,bool)",
      "arguments": [
        "0x7EfE40B2E6dA8b28AaB6Bd2D622B9Cd7f5fE077c",
        "true"
      ],
      "transaction": {
        "from": "0xb819a871d20913839c37f316dc914b0570bfc0ee",
        "to": "0x1d8e8cefeb085f3211ab6a443ad9051b54d1cd1a",
        "gas": "0x11d0b",
        "value": "0x0",
        "input": "0x44710fbe0000000000000000000000007efe40b2e6da8b28aab6bd2d622b9cd7f5fe077c0000000000000000000000000000000000000000000000000000000000000001",
        "nonce": "0xf2",
        "chainId": "0x2105"
      },
      "additionalContracts": [],
      "isFixedGasLimit": false
    },
    {
      "hash": "0xab54eac32864a42954bf51e510cf18b4da96ebc45ba27765f0a0dc7eb359427a",
      "transactionType": "CALL",
      "contractName": null,
      "contractAddress": "0x1d8e8cefeb085f3211ab6a443ad9051b54d1cd1a",
      "function": "setWhitelistedUser(address,bool)",
      "arguments": [
        "0xa22DCB8F0A2848289124086F35ae9dB2a0006962",
        "true"
      ],
      "transaction": {
        "from": "0xb819a871d20913839c37f316dc914b0570bfc0ee",
        "to": "0x1d8e8cefeb085f3211ab6a443ad9051b54d1cd1a",
        "gas": "0x12dbf",
        "value": "0x0",
        "input": "0x44710fbe000000000000000000000000a22dcb8f0a2848289124086f35ae9db2a00069620000000000000000000000000000000000000000000000000000000000000001",
        "nonce": "0xf3",
        "chainId": "0x2105"
      },
      "additionalContracts": [],
      "isFixedGasLimit": false
    },
    {
      "hash": "0x54fd05fe1cae981e8d082cc2a828283564196fb247f88d956568a76669a5f0ab",
      "transactionType": "CALL",
      "contractName": null,
      "contractAddress": "0x1d8e8cefeb085f3211ab6a443ad9051b54d1cd1a",
      "function": "setWhitelistedUser(address,bool)",
      "arguments": [
        "0xB819A871d20913839c37f316Dc914b0570bfc0eE",
        "true"
      ],
      "transaction": {
        "from": "0xb819a871d20913839c37f316dc914b0570bfc0ee",
        "to": "0x1d8e8cefeb085f3211ab6a443ad9051b54d1cd1a",
        "gas": "0x11d0b",
        "value": "0x0",
        "input": "0x44710fbe000000000000000000000000b819a871d20913839c37f316dc914b0570bfc0ee0000000000000000000000000000000000000000000000000000000000000001",
        "nonce": "0xf4",
        "chainId": "0x2105"
      },
      "additionalContracts": [],
      "isFixedGasLimit": false
    },
    {
      "hash": "0xfaf3d87ad0cf7333e8044791c3b64eb98ab32d02bf89474cf07d23627ed251df",
      "transactionType": "CALL",
      "contractName": null,
      "contractAddress": "0x1d8e8cefeb085f3211ab6a443ad9051b54d1cd1a",
      "function": "setWhitelistedUser(address,bool)",
      "arguments": [
        "0x40282d3Cf4890D9806BC1853e97a59C93D813653",
        "true"
      ],
      "transaction": {
        "from": "0xb819a871d20913839c37f316dc914b0570bfc0ee",
        "to": "0x1d8e8cefeb085f3211ab6a443ad9051b54d1cd1a",
        "gas": "0x11d0b",
        "value": "0x0",
        "input": "0x44710fbe00000000000000000000000040282d3cf4890d9806bc1853e97a59c93d8136530000000000000000000000000000000000000000000000000000000000000001",
        "nonce": "0xf5",
        "chainId": "0x2105"
      },
      "additionalContracts": [],
      "isFixedGasLimit": false
    },
    {
      "hash": "0xb3e4e769406f9e701b4f168ab68ea76cfa11bffed85cf3ffa2eb91b0d3543529",
      "transactionType": "CALL",
      "contractName": null,
      "contractAddress": "0x1d8e8cefeb085f3211ab6a443ad9051b54d1cd1a",
      "function": "setWhitelistedUser(address,bool)",
      "arguments": [
        "0xB5b901F1BB86421301138b5c45C1D3Fe96663161",
        "true"
      ],
      "transaction": {
        "from": "0xb819a871d20913839c37f316dc914b0570bfc0ee",
        "to": "0x1d8e8cefeb085f3211ab6a443ad9051b54d1cd1a",
        "gas": "0x11d0b",
        "value": "0x0",
        "input": "0x44710fbe000000000000000000000000b5b901f1bb86421301138b5c45c1d3fe966631610000000000000000000000000000000000000000000000000000000000000001",
        "nonce": "0xf6",
        "chainId": "0x2105"
      },
      "additionalContracts": [],
      "isFixedGasLimit": false
    },
    {
      "hash": "0xa2e9a913970e86c3ad4333193df4e6357ab1b2870aeb50e9cf6dffccdb401943",
      "transactionType": "CALL",
      "contractName": null,
      "contractAddress": "0x1d8e8cefeb085f3211ab6a443ad9051b54d1cd1a",
      "function": "setWhitelistedUser(address,bool)",
      "arguments": [
        "0xBAec8904499dcdee770c60df15b0C37EAC84Fb62",
        "true"
      ],
      "transaction": {
        "from": "0xb819a871d20913839c37f316dc914b0570bfc0ee",
        "to": "0x1d8e8cefeb085f3211ab6a443ad9051b54d1cd1a",
        "gas": "0x11d0b",
        "value": "0x0",
        "input": "0x44710fbe000000000000000000000000baec8904499dcdee770c60df15b0c37eac84fb620000000000000000000000000000000000000000000000000000000000000001",
        "nonce": "0xf7",
        "chainId": "0x2105"
      },
      "additionalContracts": [],
      "isFixedGasLimit": false
    },
    {
      "hash": "0x6130526690f853a9f8e5a1c3d4b80e98721e90cff0c6ff9ece96225ff1a87c30",
      "transactionType": "CALL",
      "contractName": null,
      "contractAddress": "0x1d8e8cefeb085f3211ab6a443ad9051b54d1cd1a",
      "function": "setWhitelistedUser(address,bool)",
      "arguments": [
        "0xfC4A23271b60887FC246B060B6931a08E2BC434c",
        "true"
      ],
      "transaction": {
        "from": "0xb819a871d20913839c37f316dc914b0570bfc0ee",
        "to": "0x1d8e8cefeb085f3211ab6a443ad9051b54d1cd1a",
        "gas": "0x11d0b",
        "value": "0x0",
        "input": "0x44710fbe000000000000000000000000fc4a23271b60887fc246b060b6931a08e2bc434c0000000000000000000000000000000000000000000000000000000000000001",
        "nonce": "0xf8",
        "chainId": "0x2105"
      },
      "additionalContracts": [],
      "isFixedGasLimit": false
    },
    {
      "hash": "0xe95063bbdd631de015bc7e0ccb68c08f316e52471822f8b09070022e8659027b",
      "transactionType": "CALL",
      "contractName": null,
      "contractAddress": "0x1d8e8cefeb085f3211ab6a443ad9051b54d1cd1a",
      "function": "setWhitelistedUser(address,bool)",
      "arguments": [
        "0x65b142550aE82f4BB3792E1eEfb2FC35541A3837",
        "true"
      ],
      "transaction": {
        "from": "0xb819a871d20913839c37f316dc914b0570bfc0ee",
        "to": "0x1d8e8cefeb085f3211ab6a443ad9051b54d1cd1a",
        "gas": "0x11d0b",
        "value": "0x0",
        "input": "0x44710fbe00000000000000000000000065b142550ae82f4bb3792e1eefb2fc35541a38370000000000000000000000000000000000000000000000000000000000000001",
        "nonce": "0xf9",
        "chainId": "0x2105"
      },
      "additionalContracts": [],
      "isFixedGasLimit": false
    },
    {
      "hash": "0xa2f276c7c1e8128ada4ed1cc5be21d21b746fd180bf4ad41dc36fbbc80d58012",
      "transactionType": "CALL",
      "contractName": null,
      "contractAddress": "0x1d8e8cefeb085f3211ab6a443ad9051b54d1cd1a",
      "function": "setWhitelistedUser(address,bool)",
      "arguments": [
        "0x75149feEBb20E1fE5Ddb89302a6d4bACE70c14Ce",
        "true"
      ],
      "transaction": {
        "from": "0xb819a871d20913839c37f316dc914b0570bfc0ee",
        "to": "0x1d8e8cefeb085f3211ab6a443ad9051b54d1cd1a",
        "gas": "0x11d0b",
        "value": "0x0",
        "input": "0x44710fbe00000000000000000000000075149feebb20e1fe5ddb89302a6d4bace70c14ce0000000000000000000000000000000000000000000000000000000000000001",
        "nonce": "0xfa",
        "chainId": "0x2105"
      },
      "additionalContracts": [],
      "isFixedGasLimit": false
    },
    {
      "hash": "0xefa44c83f848b6aba95e3c1327dcdf2f2412155643b27cd2658a15ac291f8abe",
      "transactionType": "CALL",
      "contractName": null,
      "contractAddress": "0x1d8e8cefeb085f3211ab6a443ad9051b54d1cd1a",
      "function": "setWhitelistedUser(address,bool)",
      "arguments": [
        "0x65B6D4770DAdcFba6d363dE86aA4D9c76283cea0",
        "true"
      ],
      "transaction": {
        "from": "0xb819a871d20913839c37f316dc914b0570bfc0ee",
        "to": "0x1d8e8cefeb085f3211ab6a443ad9051b54d1cd1a",
        "gas": "0x11d0b",
        "value": "0x0",
        "input": "0x44710fbe00000000000000000000000065b6d4770dadcfba6d363de86aa4d9c76283cea00000000000000000000000000000000000000000000000000000000000000001",
        "nonce": "0xfb",
        "chainId": "0x2105"
      },
      "additionalContracts": [],
      "isFixedGasLimit": false
    },
    {
      "hash": "0x95d938385d5c789ee2c68348efdc6303ae949038da2ccd5dc02932692fc107a8",
      "transactionType": "CALL",
      "contractName": null,
      "contractAddress": "0x1d8e8cefeb085f3211ab6a443ad9051b54d1cd1a",
      "function": "setWhitelistedUser(address,bool)",
      "arguments": [
        "0xa6A9fdDC94BB4FE7520A2eA1CC2c433e18683342",
        "true"
      ],
      "transaction": {
        "from": "0xb819a871d20913839c37f316dc914b0570bfc0ee",
        "to": "0x1d8e8cefeb085f3211ab6a443ad9051b54d1cd1a",
        "gas": "0x11d0b",
        "value": "0x0",
        "input": "0x44710fbe000000000000000000000000a6a9fddc94bb4fe7520a2ea1cc2c433e186833420000000000000000000000000000000000000000000000000000000000000001",
        "nonce": "0xfc",
        "chainId": "0x2105"
      },
      "additionalContracts": [],
      "isFixedGasLimit": false
    },
    {
      "hash": "0x5fffa083e52751f26a793b6e21a4666e5771ed79dbc13d50c005bc0572039b1b",
      "transactionType": "CALL",
      "contractName": null,
      "contractAddress": "0x1d8e8cefeb085f3211ab6a443ad9051b54d1cd1a",
      "function": "setWhitelistedUser(address,bool)",
      "arguments": [
        "0x18D04F05f80ADE5373849385a1c24E1E0a6d1744",
        "true"
      ],
      "transaction": {
        "from": "0xb819a871d20913839c37f316dc914b0570bfc0ee",
        "to": "0x1d8e8cefeb085f3211ab6a443ad9051b54d1cd1a",
        "gas": "0x11d0b",
        "value": "0x0",
        "input": "0x44710fbe00000000000000000000000018d04f05f80ade5373849385a1c24e1e0a6d17440000000000000000000000000000000000000000000000000000000000000001",
        "nonce": "0xfd",
        "chainId": "0x2105"
      },
      "additionalContracts": [],
      "isFixedGasLimit": false
    },
    {
      "hash": "0xf1ec6f8802c87168b00000dc5821061948ba9320687f44a479bfd4a1ce137026",
      "transactionType": "CALL",
      "contractName": null,
      "contractAddress": "0x1d8e8cefeb085f3211ab6a443ad9051b54d1cd1a",
      "function": "setWhitelistedUser(address,bool)",
      "arguments": [
        "0xBD9C90D6774CB5320B54Bb7998b6Bcc5e4A9071f",
        "true"
      ],
      "transaction": {
        "from": "0xb819a871d20913839c37f316dc914b0570bfc0ee",
        "to": "0x1d8e8cefeb085f3211ab6a443ad9051b54d1cd1a",
        "gas": "0x11d0b",
        "value": "0x0",
        "input": "0x44710fbe000000000000000000000000bd9c90d6774cb5320b54bb7998b6bcc5e4a9071f0000000000000000000000000000000000000000000000000000000000000001",
        "nonce": "0xfe",
        "chainId": "0x2105"
      },
      "additionalContracts": [],
      "isFixedGasLimit": false
    },
    {
      "hash": "0xeee8c5750ef5daea95828973bb95abf0fc1df3378a0c3dbb1118491cb3656d11",
      "transactionType": "CALL",
      "contractName": null,
      "contractAddress": "0x1d8e8cefeb085f3211ab6a443ad9051b54d1cd1a",
      "function": "setWhitelistedUser(address,bool)",
      "arguments": [
        "0x8f2eABa31B1b613ca78F2795bA05400F0583c5A4",
        "true"
      ],
      "transaction": {
        "from": "0xb819a871d20913839c37f316dc914b0570bfc0ee",
        "to": "0x1d8e8cefeb085f3211ab6a443ad9051b54d1cd1a",
        "gas": "0x11d0b",
        "value": "0x0",
        "input": "0x44710fbe0000000000000000000000008f2eaba31b1b613ca78f2795ba05400f0583c5a40000000000000000000000000000000000000000000000000000000000000001",
        "nonce": "0xff",
        "chainId": "0x2105"
      },
      "additionalContracts": [],
      "isFixedGasLimit": false
    },
    {
      "hash": "0x5ca31f45789ca23a75a5495cba337c5f208e76233a7ee383b0242c12d9f363e8",
      "transactionType": "CALL",
      "contractName": null,
      "contractAddress": "0x1d8e8cefeb085f3211ab6a443ad9051b54d1cd1a",
      "function": "setWhitelistedUser(address,bool)",
      "arguments": [
        "0x8f2eABa31B1b613ca78F2795bA05400F0583c5A4",
        "true"
      ],
      "transaction": {
        "from": "0xb819a871d20913839c37f316dc914b0570bfc0ee",
        "to": "0x1d8e8cefeb085f3211ab6a443ad9051b54d1cd1a",
        "gas": "0xbc21",
        "value": "0x0",
        "input": "0x44710fbe0000000000000000000000008f2eaba31b1b613ca78f2795ba05400f0583c5a40000000000000000000000000000000000000000000000000000000000000001",
        "nonce": "0x100",
        "chainId": "0x2105"
      },
      "additionalContracts": [],
      "isFixedGasLimit": false
    },
    {
      "hash": "0x861b4d4b64ed49f222d4495783f2598d59918724bd87519cdda414024bd612bb",
      "transactionType": "CALL",
      "contractName": null,
      "contractAddress": "0x1d8e8cefeb085f3211ab6a443ad9051b54d1cd1a",
      "function": "setWhitelistedUser(address,bool)",
      "arguments": [
        "0x50d8Deadd2b3140B151CaB2C4FB76F1f59b236F8",
        "true"
      ],
      "transaction": {
        "from": "0xb819a871d20913839c37f316dc914b0570bfc0ee",
        "to": "0x1d8e8cefeb085f3211ab6a443ad9051b54d1cd1a",
        "gas": "0xbc21",
        "value": "0x0",
        "input": "0x44710fbe00000000000000000000000050d8deadd2b3140b151cab2c4fb76f1f59b236f80000000000000000000000000000000000000000000000000000000000000001",
        "nonce": "0x101",
        "chainId": "0x2105"
      },
      "additionalContracts": [],
      "isFixedGasLimit": false
    },
    {
      "hash": "0x4a8bf156d1caa58dcc43296f446fdca106f9fd9867a32a0614c617932fc614fd",
      "transactionType": "CALL",
      "contractName": null,
      "contractAddress": "0x1d8e8cefeb085f3211ab6a443ad9051b54d1cd1a",
      "function": "setWhitelistedUser(address,bool)",
      "arguments": [
        "0x574582C44e3f1EF2cB29a7131B057FebBCC8244E",
        "true"
      ],
      "transaction": {
        "from": "0xb819a871d20913839c37f316dc914b0570bfc0ee",
        "to": "0x1d8e8cefeb085f3211ab6a443ad9051b54d1cd1a",
        "gas": "0xbc21",
        "value": "0x0",
        "input": "0x44710fbe000000000000000000000000574582c44e3f1ef2cb29a7131b057febbcc8244e0000000000000000000000000000000000000000000000000000000000000001",
        "nonce": "0x102",
        "chainId": "0x2105"
      },
      "additionalContracts": [],
      "isFixedGasLimit": false
    },
    {
      "hash": "0x9e440cf0d81188656d65d465bc38fe82fba11dd42b598c8b47461dd6b5d4e12a",
      "transactionType": "CALL",
      "contractName": null,
      "contractAddress": "0x1d8e8cefeb085f3211ab6a443ad9051b54d1cd1a",
      "function": "setWhitelistedUser(address,bool)",
      "arguments": [
        "0xBd0Ce952bA069A1e15f3bf3916d4B07bBBdBC8B3",
        "true"
      ],
      "transaction": {
        "from": "0xb819a871d20913839c37f316dc914b0570bfc0ee",
        "to": "0x1d8e8cefeb085f3211ab6a443ad9051b54d1cd1a",
        "gas": "0x11d0b",
        "value": "0x0",
        "input": "0x44710fbe000000000000000000000000bd0ce952ba069a1e15f3bf3916d4b07bbbdbc8b30000000000000000000000000000000000000000000000000000000000000001",
        "nonce": "0x103",
        "chainId": "0x2105"
      },
      "additionalContracts": [],
      "isFixedGasLimit": false
    }
  ],
  "receipts": [
    {
      "status": "0x1",
      "cumulativeGasUsed": "0x1ae066a",
      "logs": [
        {
          "address": "0x1d8e8cefeb085f3211ab6a443ad9051b54d1cd1a",
          "topics": [
            "0x4059c608a8f17b9b24a5a29662eb74934d39ea92ae22411868f07fcac29487a0",
            "0x000000000000000000000000f20a8950c368ec48323092d6e4acf90aadf2bdc6"
          ],
          "data": "0x0000000000000000000000000000000000000000000000000000000000000001",
          "blockHash": "0xce1299e6566dddb17aca19013c94f869568d2fd11027273d1127ab18bfea6c69",
          "blockNumber": "0x1cd11d6",
          "blockTimestamp": "0x6824808f",
          "transactionHash": "0x835707e466b4be212404423686b3067e598f786c7044fd4b08946f9b44046c89",
          "transactionIndex": "0x86",
          "logIndex": "0x195",
          "removed": false
        }
      ],
      "logsBloom": "0x00000000000000000000000002000000000000000800000000000000000000000000000000000000000000020000000000000000000000000000000000000000000000000000000000000000000000000000000000000000000000000000000000000000000000000000000000000000000000000000000000000000000000000000000000000000000000000000000000000000000000000000000000000000000000000040000000000000000000000000020000000000000000000000000000000000000000000000000000000000000000000000000000001000004000000000000000008000000000000000000000000000000000000000000000800000",
      "type": "0x2",
      "transactionHash": "0x835707e466b4be212404423686b3067e598f786c7044fd4b08946f9b44046c89",
      "transactionIndex": "0x86",
      "blockHash": "0xce1299e6566dddb17aca19013c94f869568d2fd11027273d1127ab18bfea6c69",
      "blockNumber": "0x1cd11d6",
      "gasUsed": "0xce5f",
      "effectiveGasPrice": "0x11ced0",
      "from": "0xb819a871d20913839c37f316dc914b0570bfc0ee",
      "to": "0x1d8e8cefeb085f3211ab6a443ad9051b54d1cd1a",
      "contractAddress": null,
      "l1BaseFeeScalar": "0x8dd",
      "l1BlobBaseFee": "0x1",
      "l1BlobBaseFeeScalar": "0x101c12",
      "l1Fee": "0x14733178a",
      "l1GasPrice": "0x5a20b066",
      "l1GasUsed": "0x640"
    },
    {
      "status": "0x1",
      "cumulativeGasUsed": "0x31a9f90",
      "logs": [
        {
          "address": "0x1d8e8cefeb085f3211ab6a443ad9051b54d1cd1a",
          "topics": [
            "0x4059c608a8f17b9b24a5a29662eb74934d39ea92ae22411868f07fcac29487a0",
            "0x0000000000000000000000008e72a24221517e51502f20f387415a06b27a5b51"
          ],
          "data": "0x0000000000000000000000000000000000000000000000000000000000000001",
          "blockHash": "0x5b00d279e98a3763ec03b2a28fec2c88bcc0bfb923f89c2f74287126881982dc",
          "blockNumber": "0x1cd11d8",
          "blockTimestamp": "0x68248093",
          "transactionHash": "0xed2a82ab295c03f034a18fa1e512c421f8ccb9026e593b82e2e63f0d2aa93434",
          "transactionIndex": "0x121",
          "logIndex": "0x39b",
          "removed": false
        }
      ],
      "logsBloom": "0x00000000000000000000000002000000000000000800000000000000000000000000000000000000000000020000000000000000000000000000000000000000000000000000000000000000000000000000000000000000000000000000000000000000000000000000000000000000000000000000000000000800000000000000000000000000000000000000000000000000000000000000000000020000000000000040000000000000000000000000000000000000000000000000000000000000000000000000000000000000000000000001000000000000000000000000000000008000000000000000000000000000000000000000000000800000",
      "type": "0x2",
      "transactionHash": "0xed2a82ab295c03f034a18fa1e512c421f8ccb9026e593b82e2e63f0d2aa93434",
      "transactionIndex": "0x121",
      "blockHash": "0x5b00d279e98a3763ec03b2a28fec2c88bcc0bfb923f89c2f74287126881982dc",
      "blockNumber": "0x1cd11d8",
      "gasUsed": "0xce5f",
      "effectiveGasPrice": "0x11c386",
      "from": "0xb819a871d20913839c37f316dc914b0570bfc0ee",
      "to": "0x1d8e8cefeb085f3211ab6a443ad9051b54d1cd1a",
      "contractAddress": null,
      "l1BaseFeeScalar": "0x8dd",
      "l1BlobBaseFee": "0x1",
      "l1BlobBaseFeeScalar": "0x101c12",
      "l1Fee": "0x14733178a",
      "l1GasPrice": "0x5a20b066",
      "l1GasUsed": "0x640"
    },
    {
      "status": "0x1",
      "cumulativeGasUsed": "0x10d34dd",
      "logs": [
        {
          "address": "0x1d8e8cefeb085f3211ab6a443ad9051b54d1cd1a",
          "topics": [
            "0x4059c608a8f17b9b24a5a29662eb74934d39ea92ae22411868f07fcac29487a0",
            "0x00000000000000000000000050d8deadd2b3140b151cab2c4fb76f1f59b236f8"
          ],
          "data": "0x0000000000000000000000000000000000000000000000000000000000000001",
          "blockHash": "0xf6c965eec70a7c60729838dbda6fcbab23c017286eb3ef41c2bae0fbbf6708d7",
          "blockNumber": "0x1cd11da",
          "blockTimestamp": "0x68248097",
          "transactionHash": "0x3e9bb4a13ab813014533f0d43e91ed1c6f430dc72709fc057abeba2874aa2552",
          "transactionIndex": "0x45",
          "logIndex": "0xdc",
          "removed": false
        }
      ],
      "logsBloom": "0x00000000000000000000000002000000000000000800200000000000000000000000000000000000000000020000000000000000000000000000000000000000000000000000000000000000000000000000000000000000000000000000000000000000000000000000000000000000000000000000000000000000020000000000000000000000000000000000000000000000000000000000000000000000000000000040000000000000000000000000000000000000000000000000000000000000000000000000000000000000000000000000000000000000000000000000000000808000000000000000000000000000000000000000000000800000",
      "type": "0x2",
      "transactionHash": "0x3e9bb4a13ab813014533f0d43e91ed1c6f430dc72709fc057abeba2874aa2552",
      "transactionIndex": "0x45",
      "blockHash": "0xf6c965eec70a7c60729838dbda6fcbab23c017286eb3ef41c2bae0fbbf6708d7",
      "blockNumber": "0x1cd11da",
      "gasUsed": "0xce5f",
      "effectiveGasPrice": "0x11c3ef",
      "from": "0xb819a871d20913839c37f316dc914b0570bfc0ee",
      "to": "0x1d8e8cefeb085f3211ab6a443ad9051b54d1cd1a",
      "contractAddress": null,
      "l1BaseFeeScalar": "0x8dd",
      "l1BlobBaseFee": "0x1",
      "l1BlobBaseFeeScalar": "0x101c12",
      "l1Fee": "0x14733178a",
      "l1GasPrice": "0x5a20b066",
      "l1GasUsed": "0x640"
    },
    {
      "status": "0x1",
      "cumulativeGasUsed": "0x4bc5031",
      "logs": [
        {
          "address": "0x1d8e8cefeb085f3211ab6a443ad9051b54d1cd1a",
          "topics": [
            "0x4059c608a8f17b9b24a5a29662eb74934d39ea92ae22411868f07fcac29487a0",
            "0x000000000000000000000000574582c44e3f1ef2cb29a7131b057febbcc8244e"
          ],
          "data": "0x0000000000000000000000000000000000000000000000000000000000000001",
          "blockHash": "0x0e8b95e918b5981e7b3afa12557767384ee7eb87e99d4641da5ec99aba05d153",
          "blockNumber": "0x1cd11dd",
          "blockTimestamp": "0x6824809d",
          "transactionHash": "0xa207ea94600566848aca705ea7e99aaa1b7a27dc5e729a36ff456cd0d4f186b1",
          "transactionIndex": "0x111",
          "logIndex": "0x367",
          "removed": false
        }
      ],
      "logsBloom": "0x00000000000000000000000002000000000000000800000000000000000000000000000000000000000000020000000000000000000000000000000000000000000000000000200000000000000000000000000000000000000000000000000000000000000000000000000000000000000000000000000000000000000000000000000000000000000000100000000000000000000000000000000000000000004000000040000000000000000000000000000000000000000000000000000000000000000000000000000000000000000000000000000000000000000000000000000000008000000000000000000000000000000000000000000000800000",
      "type": "0x2",
      "transactionHash": "0xa207ea94600566848aca705ea7e99aaa1b7a27dc5e729a36ff456cd0d4f186b1",
      "transactionIndex": "0x111",
      "blockHash": "0x0e8b95e918b5981e7b3afa12557767384ee7eb87e99d4641da5ec99aba05d153",
      "blockNumber": "0x1cd11dd",
      "gasUsed": "0xce5f",
      "effectiveGasPrice": "0x11d774",
      "from": "0xb819a871d20913839c37f316dc914b0570bfc0ee",
      "to": "0x1d8e8cefeb085f3211ab6a443ad9051b54d1cd1a",
      "contractAddress": null,
      "l1BaseFeeScalar": "0x8dd",
      "l1BlobBaseFee": "0x1",
      "l1BlobBaseFeeScalar": "0x101c12",
      "l1Fee": "0x13f006aea",
      "l1GasPrice": "0x57de9b06",
      "l1GasUsed": "0x640"
    },
    {
      "status": "0x1",
      "cumulativeGasUsed": "0x4eef355",
      "logs": [
        {
          "address": "0x1d8e8cefeb085f3211ab6a443ad9051b54d1cd1a",
          "topics": [
            "0x4059c608a8f17b9b24a5a29662eb74934d39ea92ae22411868f07fcac29487a0",
            "0x000000000000000000000000281567fe62b587ec1755f6f33b80160f544dc5d0"
          ],
          "data": "0x0000000000000000000000000000000000000000000000000000000000000001",
          "blockHash": "0xcd00745fab443a0492a1c4e0fe9c8287fdf0e4868ffaa7362b19be9fc5544091",
          "blockNumber": "0x1cd11df",
          "blockTimestamp": "0x682480a1",
          "transactionHash": "0x12c181bea571f16304bdf83ec3702397a92a99522081bfedaabec0a1e611f461",
          "transactionIndex": "0x15f",
          "logIndex": "0x480",
          "removed": false
        }
      ],
      "logsBloom": "0x00200000000000000000000002000000000000000800000000000000000000000000000000000000000000020000000000000000000000000000000000000000000000000000000000000000000000000000000000000000000000000002000000000000000000000000000000000000000000000000000000000000000000000000000000000000000000000000000000000000800000000000000000000000000000000040000000000000000000000000000000000000000000000000000000000000000000000000000000000000000000000000000000000000000000000000000000008000000000000000000000000000000000000000000000800000",
      "type": "0x2",
      "transactionHash": "0x12c181bea571f16304bdf83ec3702397a92a99522081bfedaabec0a1e611f461",
      "transactionIndex": "0x15f",
      "blockHash": "0xcd00745fab443a0492a1c4e0fe9c8287fdf0e4868ffaa7362b19be9fc5544091",
      "blockNumber": "0x1cd11df",
      "gasUsed": "0xce5f",
      "effectiveGasPrice": "0x11d858",
      "from": "0xb819a871d20913839c37f316dc914b0570bfc0ee",
      "to": "0x1d8e8cefeb085f3211ab6a443ad9051b54d1cd1a",
      "contractAddress": null,
      "l1BaseFeeScalar": "0x8dd",
      "l1BlobBaseFee": "0x1",
      "l1BlobBaseFeeScalar": "0x101c12",
      "l1Fee": "0x13f006aea",
      "l1GasPrice": "0x57de9b06",
      "l1GasUsed": "0x640"
    },
    {
      "status": "0x1",
      "cumulativeGasUsed": "0x43e744e",
      "logs": [
        {
          "address": "0x1d8e8cefeb085f3211ab6a443ad9051b54d1cd1a",
          "topics": [
            "0x4059c608a8f17b9b24a5a29662eb74934d39ea92ae22411868f07fcac29487a0",
            "0x0000000000000000000000002705f6a8f01bd4a805d9fc73151dbe37bb8d1ede"
          ],
          "data": "0x0000000000000000000000000000000000000000000000000000000000000001",
          "blockHash": "0xc686557782c84e234b0c423421abecf407ba7d037954cd6c9b14e8bedc63a670",
          "blockNumber": "0x1cd11e1",
          "blockTimestamp": "0x682480a5",
          "transactionHash": "0x6da1ad88b9b1a0ff6ba33fa5e8482d33563e8d3fdca36369895da771336be037",
          "transactionIndex": "0x112",
          "logIndex": "0x455",
          "removed": false
        }
      ],
      "logsBloom": "0x00000000000000000000000002000000000000000800000000000000000040000000000000000000000000020000000000000000000000000000000000000000000000000000000000000000000000000000000000000040000000000000000000000000000000000000000000000000000000000000000000000040000000000000000000000000000000000000000000000000000000000000000000000000000000000040000000000000000000000000000000000000000000000000000000000000000000000000000000000000000000000000000000000000000000000000000000008000000000000000000000000000000000000000000000800000",
      "type": "0x2",
      "transactionHash": "0x6da1ad88b9b1a0ff6ba33fa5e8482d33563e8d3fdca36369895da771336be037",
      "transactionIndex": "0x112",
      "blockHash": "0xc686557782c84e234b0c423421abecf407ba7d037954cd6c9b14e8bedc63a670",
      "blockNumber": "0x1cd11e1",
      "gasUsed": "0xce5f",
      "effectiveGasPrice": "0x11e6f1",
      "from": "0xb819a871d20913839c37f316dc914b0570bfc0ee",
      "to": "0x1d8e8cefeb085f3211ab6a443ad9051b54d1cd1a",
      "contractAddress": null,
      "l1BaseFeeScalar": "0x8dd",
      "l1BlobBaseFee": "0x1",
      "l1BlobBaseFeeScalar": "0x101c12",
      "l1Fee": "0x12cbf732d",
      "l1GasPrice": "0x52d76db0",
      "l1GasUsed": "0x640"
    },
    {
      "status": "0x1",
      "cumulativeGasUsed": "0x55d7d62",
      "logs": [
        {
          "address": "0x1d8e8cefeb085f3211ab6a443ad9051b54d1cd1a",
          "topics": [
            "0x4059c608a8f17b9b24a5a29662eb74934d39ea92ae22411868f07fcac29487a0",
            "0x000000000000000000000000c9c9693b6a445d05add0043662fad9ac600ad088"
          ],
          "data": "0x0000000000000000000000000000000000000000000000000000000000000001",
          "blockHash": "0x9b3edbf1cc23bdd34d8c60ef9767ba24c021f8a61efa21a8438ad3d635ab143a",
          "blockNumber": "0x1cd11e3",
          "blockTimestamp": "0x682480a9",
          "transactionHash": "0x88762e41f0442c61bc5a36e5b860e99ba8a9b5a37dbc6bbe2de8dc953f97a394",
          "transactionIndex": "0x13b",
          "logIndex": "0x4af",
          "removed": false
        }
      ],
      "logsBloom": "0x00000000000000000000000002000000000000000800000000000000000000000000000010000000000000020000000000000000000000000000000000000000000000000000000000000000000000000000000000000000000000000000000000000000000000000000000000000000000000000000000000000000000000000000000000000000000000000000000000000000000000000000000000000000000000001040000000000000000000000000000000000000000000000000000000000001000000000000000000000000000000000000000000000000000000000000000000008000000000000000000000000000000000000000000000800000",
      "type": "0x2",
      "transactionHash": "0x88762e41f0442c61bc5a36e5b860e99ba8a9b5a37dbc6bbe2de8dc953f97a394",
      "transactionIndex": "0x13b",
      "blockHash": "0x9b3edbf1cc23bdd34d8c60ef9767ba24c021f8a61efa21a8438ad3d635ab143a",
      "blockNumber": "0x1cd11e3",
      "gasUsed": "0xce5f",
      "effectiveGasPrice": "0x11ed91",
      "from": "0xb819a871d20913839c37f316dc914b0570bfc0ee",
      "to": "0x1d8e8cefeb085f3211ab6a443ad9051b54d1cd1a",
      "contractAddress": null,
      "l1BaseFeeScalar": "0x8dd",
      "l1BlobBaseFee": "0x1",
      "l1BlobBaseFeeScalar": "0x101c12",
      "l1Fee": "0x12cbf732d",
      "l1GasPrice": "0x52d76db0",
      "l1GasUsed": "0x640"
    },
    {
      "status": "0x1",
      "cumulativeGasUsed": "0x43bc5ad",
      "logs": [
        {
          "address": "0x1d8e8cefeb085f3211ab6a443ad9051b54d1cd1a",
          "topics": [
            "0x4059c608a8f17b9b24a5a29662eb74934d39ea92ae22411868f07fcac29487a0",
            "0x0000000000000000000000007efe40b2e6da8b28aab6bd2d622b9cd7f5fe077c"
          ],
          "data": "0x0000000000000000000000000000000000000000000000000000000000000001",
          "blockHash": "0xde1c691ff5941077d200d1c7af6db97a690b579222d070340a87ad5035f0e88a",
          "blockNumber": "0x1cd11e6",
          "blockTimestamp": "0x682480af",
          "transactionHash": "0x792a06be3f7ad75861c2d638bdb319ad2d26e64b366666c86f6ba92e04c6a6ea",
          "transactionIndex": "0x11a",
          "logIndex": "0x474",
          "removed": false
        }
      ],
      "logsBloom": "0x00000000000000000000000002000000000000000800000000000000000000000000000000000000000000020000000000000000000000000000000000000000000000000000000000080000000000000000000000000000000000000000000000000000000000000000000000000000000000000000000000000000000000000000000200000000000000000000000000000000000000000000000000000000000000000040000000000000000000000000000000000000000000000000000000000000000000000000000000000000000000800000000000000000000000000000000000008000000000000000000000000000000000000000000000800000",
      "type": "0x2",
      "transactionHash": "0x792a06be3f7ad75861c2d638bdb319ad2d26e64b366666c86f6ba92e04c6a6ea",
      "transactionIndex": "0x11a",
      "blockHash": "0xde1c691ff5941077d200d1c7af6db97a690b579222d070340a87ad5035f0e88a",
      "blockNumber": "0x1cd11e6",
      "gasUsed": "0xce5f",
      "effectiveGasPrice": "0x11ef6a",
      "from": "0xb819a871d20913839c37f316dc914b0570bfc0ee",
      "to": "0x1d8e8cefeb085f3211ab6a443ad9051b54d1cd1a",
      "contractAddress": null,
      "l1BaseFeeScalar": "0x8dd",
      "l1BlobBaseFee": "0x1",
      "l1BlobBaseFeeScalar": "0x101c12",
      "l1Fee": "0x12cbf732d",
      "l1GasPrice": "0x52d76db0",
      "l1GasUsed": "0x640"
    },
    {
      "status": "0x1",
      "cumulativeGasUsed": "0x29cdd34",
      "logs": [
        {
          "address": "0x1d8e8cefeb085f3211ab6a443ad9051b54d1cd1a",
          "topics": [
            "0x4059c608a8f17b9b24a5a29662eb74934d39ea92ae22411868f07fcac29487a0",
            "0x000000000000000000000000a22dcb8f0a2848289124086f35ae9db2a0006962"
          ],
          "data": "0x0000000000000000000000000000000000000000000000000000000000000001",
          "blockHash": "0xfe64b7bd71a41fef23fed136c10104bc27dcff01337853d5e4eb8a89cb5fbd29",
          "blockNumber": "0x1cd11e8",
          "blockTimestamp": "0x682480b3",
          "transactionHash": "0xab54eac32864a42954bf51e510cf18b4da96ebc45ba27765f0a0dc7eb359427a",
          "transactionIndex": "0x98",
          "logIndex": "0x27a",
          "removed": false
        }
      ],
      "logsBloom": "0x00000000000000000100000002000000000000000800000000000000000000000000000000000000000000020000000000000000000000000000000000000000000000100000000000000000000000000000000000000000000000000000000000000000000000000000000000000000000000000000000000000000000000000000000000000000000000000000000000000000000000200000000000000000000000000040000000000000000000000000000000000000000000000000000000000000000000000000000000000000000000000000000000000000000000000000000000008000000000000000000000000000000000000000000000800000",
      "type": "0x2",
      "transactionHash": "0xab54eac32864a42954bf51e510cf18b4da96ebc45ba27765f0a0dc7eb359427a",
      "transactionIndex": "0x98",
      "blockHash": "0xfe64b7bd71a41fef23fed136c10104bc27dcff01337853d5e4eb8a89cb5fbd29",
      "blockNumber": "0x1cd11e8",
      "gasUsed": "0xce53",
      "effectiveGasPrice": "0x11fb12",
      "from": "0xb819a871d20913839c37f316dc914b0570bfc0ee",
      "to": "0x1d8e8cefeb085f3211ab6a443ad9051b54d1cd1a",
      "contractAddress": null,
      "l1BaseFeeScalar": "0x8dd",
      "l1BlobBaseFee": "0x1",
      "l1BlobBaseFeeScalar": "0x101c12",
      "l1Fee": "0x12b45b074",
      "l1GasPrice": "0x526f5fa7",
      "l1GasUsed": "0x640"
    },
    {
      "status": "0x1",
      "cumulativeGasUsed": "0x49c6563",
      "logs": [
        {
          "address": "0x1d8e8cefeb085f3211ab6a443ad9051b54d1cd1a",
          "topics": [
            "0x4059c608a8f17b9b24a5a29662eb74934d39ea92ae22411868f07fcac29487a0",
            "0x000000000000000000000000b819a871d20913839c37f316dc914b0570bfc0ee"
          ],
          "data": "0x0000000000000000000000000000000000000000000000000000000000000001",
          "blockHash": "0x9c255950a7d28642b38dfa278ef110a0c914db7af296db65fb743bf8ba0a33fb",
          "blockNumber": "0x1cd11ea",
          "blockTimestamp": "0x682480b7",
          "transactionHash": "0x54fd05fe1cae981e8d082cc2a828283564196fb247f88d956568a76669a5f0ab",
          "transactionIndex": "0x101",
          "logIndex": "0x3e1",
          "removed": false
        }
      ],
      "logsBloom": "0x00000000000000000000000002000000000000000800000000000000000000000000000000000000000000020000000000000000000000000000000000000002000000000080000000000000000000000000000000000000000000000000000000000000000000000000000000000000000000000000000000000000000000000000000000000000000000000000000000000000000000000000000000000000000000000040000000000000000000000000000000000000000000000000000000000000000000000000000000000000000000000000000000000200000000000000000000008000000000000000000000000000000000000000000000800000",
      "type": "0x2",
      "transactionHash": "0x54fd05fe1cae981e8d082cc2a828283564196fb247f88d956568a76669a5f0ab",
      "transactionIndex": "0x101",
      "blockHash": "0x9c255950a7d28642b38dfa278ef110a0c914db7af296db65fb743bf8ba0a33fb",
      "blockNumber": "0x1cd11ea",
      "gasUsed": "0xce5f",
      "effectiveGasPrice": "0x11f5f0",
      "from": "0xb819a871d20913839c37f316dc914b0570bfc0ee",
      "to": "0x1d8e8cefeb085f3211ab6a443ad9051b54d1cd1a",
      "contractAddress": null,
      "l1BaseFeeScalar": "0x8dd",
      "l1BlobBaseFee": "0x1",
      "l1BlobBaseFeeScalar": "0x101c12",
      "l1Fee": "0x12b45b074",
      "l1GasPrice": "0x526f5fa7",
      "l1GasUsed": "0x640"
    },
    {
      "status": "0x1",
      "cumulativeGasUsed": "0x170a1b3",
      "logs": [
        {
          "address": "0x1d8e8cefeb085f3211ab6a443ad9051b54d1cd1a",
          "topics": [
            "0x4059c608a8f17b9b24a5a29662eb74934d39ea92ae22411868f07fcac29487a0",
            "0x00000000000000000000000040282d3cf4890d9806bc1853e97a59c93d813653"
          ],
          "data": "0x0000000000000000000000000000000000000000000000000000000000000001",
          "blockHash": "0xb0037452021b6440fd18143213a7233552f9481504bd1287f810d8a353f14830",
          "blockNumber": "0x1cd11ec",
          "blockTimestamp": "0x682480bb",
          "transactionHash": "0xfaf3d87ad0cf7333e8044791c3b64eb98ab32d02bf89474cf07d23627ed251df",
          "transactionIndex": "0x77",
          "logIndex": "0x172",
          "removed": false
        }
      ],
      "logsBloom": "0x00000000000000000000000002000000000000000800000000000000000000000000004000000000000000020000000000000000000000000000000000000000000000000000000000000000000000000000000000000000000000000000000000000000000000000000000000000000000000000000000000000000000000000000000040000000000000000000000000000000000200000000000000000000000000000040000000000000000000000000000000000000000000000000000000000000000000000000000000000000000000000000000000000000000000000000000000008000000000000000000000000000000000000000000000800000",
      "type": "0x2",
      "transactionHash": "0xfaf3d87ad0cf7333e8044791c3b64eb98ab32d02bf89474cf07d23627ed251df",
      "transactionIndex": "0x77",
      "blockHash": "0xb0037452021b6440fd18143213a7233552f9481504bd1287f810d8a353f14830",
      "blockNumber": "0x1cd11ec",
      "gasUsed": "0xce5f",
      "effectiveGasPrice": "0x11ff23",
      "from": "0xb819a871d20913839c37f316dc914b0570bfc0ee",
      "to": "0x1d8e8cefeb085f3211ab6a443ad9051b54d1cd1a",
      "contractAddress": null,
      "l1BaseFeeScalar": "0x8dd",
      "l1BlobBaseFee": "0x1",
      "l1BlobBaseFeeScalar": "0x101c12",
      "l1Fee": "0x12b45b074",
      "l1GasPrice": "0x526f5fa7",
      "l1GasUsed": "0x640"
    },
    {
      "status": "0x1",
      "cumulativeGasUsed": "0x25fa5c4",
      "logs": [
        {
          "address": "0x1d8e8cefeb085f3211ab6a443ad9051b54d1cd1a",
          "topics": [
            "0x4059c608a8f17b9b24a5a29662eb74934d39ea92ae22411868f07fcac29487a0",
            "0x000000000000000000000000b5b901f1bb86421301138b5c45c1d3fe96663161"
          ],
          "data": "0x0000000000000000000000000000000000000000000000000000000000000001",
          "blockHash": "0x94dd9ea48718fb8de4cf190fc8704cd1df542f4e79b142f007fe574679394b2a",
          "blockNumber": "0x1cd11ee",
          "blockTimestamp": "0x682480bf",
          "transactionHash": "0xb3e4e769406f9e701b4f168ab68ea76cfa11bffed85cf3ffa2eb91b0d3543529",
          "transactionIndex": "0x99",
          "logIndex": "0x328",
          "removed": false
        }
      ],
      "logsBloom": "0x00000000000000000000000002000000000000000800000000000000000000004000000000000000000000020000000000000000000000000000000000000000000000000000000000000000000000000000000000800000000000000000000000000000000000000000000000000000000000000000000000000000000000000000000000000000000000000000000000000000000000000000000000000000000000000040010000000000000000000000000000000000000000000000000000000000000000000000000000000000000000000000000000000000000000000000000000008000000000000000000000000000000000000000000000800000",
      "type": "0x2",
      "transactionHash": "0xb3e4e769406f9e701b4f168ab68ea76cfa11bffed85cf3ffa2eb91b0d3543529",
      "transactionIndex": "0x99",
      "blockHash": "0x94dd9ea48718fb8de4cf190fc8704cd1df542f4e79b142f007fe574679394b2a",
      "blockNumber": "0x1cd11ee",
      "gasUsed": "0xce5f",
      "effectiveGasPrice": "0x120855",
      "from": "0xb819a871d20913839c37f316dc914b0570bfc0ee",
      "to": "0x1d8e8cefeb085f3211ab6a443ad9051b54d1cd1a",
      "contractAddress": null,
      "l1BaseFeeScalar": "0x8dd",
      "l1BlobBaseFee": "0x1",
      "l1BlobBaseFeeScalar": "0x101c12",
      "l1Fee": "0x125c578e6",
      "l1GasPrice": "0x50eb7a52",
      "l1GasUsed": "0x640"
    },
    {
      "status": "0x1",
      "cumulativeGasUsed": "0x2602674",
      "logs": [
        {
          "address": "0x1d8e8cefeb085f3211ab6a443ad9051b54d1cd1a",
          "topics": [
            "0x4059c608a8f17b9b24a5a29662eb74934d39ea92ae22411868f07fcac29487a0",
            "0x000000000000000000000000baec8904499dcdee770c60df15b0c37eac84fb62"
          ],
          "data": "0x0000000000000000000000000000000000000000000000000000000000000001",
          "blockHash": "0xe296e8c47174def07c1bacd808983168e07131c5b4aa2a6526d005889aedb258",
          "blockNumber": "0x1cd11f0",
          "blockTimestamp": "0x682480c3",
          "transactionHash": "0xa2e9a913970e86c3ad4333193df4e6357ab1b2870aeb50e9cf6dffccdb401943",
          "transactionIndex": "0xba",
          "logIndex": "0x1c9",
          "removed": false
        }
      ],
      "logsBloom": "0x00000000000000000000000002000000000000000800000000000000000000000000000000000000000000020000000000000000000000000000000000000000000000000000800000000000000080000000000000000000000000000000000000000000000000000000000000000000000000000000000000000000000000000000000000000000000000000000000000000000000000000000000000000000000000000040000000000000000000000000000000000000000000000000000000000000000000000000000000000000008000000000000000000000000000000000000000008000000000000000000000000000000000000000000000800000",
      "type": "0x2",
      "transactionHash": "0xa2e9a913970e86c3ad4333193df4e6357ab1b2870aeb50e9cf6dffccdb401943",
      "transactionIndex": "0xba",
      "blockHash": "0xe296e8c47174def07c1bacd808983168e07131c5b4aa2a6526d005889aedb258",
      "blockNumber": "0x1cd11f0",
      "gasUsed": "0xce5f",
      "effectiveGasPrice": "0x1207f7",
      "from": "0xb819a871d20913839c37f316dc914b0570bfc0ee",
      "to": "0x1d8e8cefeb085f3211ab6a443ad9051b54d1cd1a",
      "contractAddress": null,
      "l1BaseFeeScalar": "0x8dd",
      "l1BlobBaseFee": "0x1",
      "l1BlobBaseFeeScalar": "0x101c12",
      "l1Fee": "0x125c578e6",
      "l1GasPrice": "0x50eb7a52",
      "l1GasUsed": "0x640"
    },
    {
      "status": "0x1",
      "cumulativeGasUsed": "0x22831f0",
      "logs": [
        {
          "address": "0x1d8e8cefeb085f3211ab6a443ad9051b54d1cd1a",
          "topics": [
            "0x4059c608a8f17b9b24a5a29662eb74934d39ea92ae22411868f07fcac29487a0",
            "0x000000000000000000000000fc4a23271b60887fc246b060b6931a08e2bc434c"
          ],
          "data": "0x0000000000000000000000000000000000000000000000000000000000000001",
          "blockHash": "0xcd15592221011bbddca46cf2eff995ad494c2071247ed14f4c3ceb6e5b0eafab",
          "blockNumber": "0x1cd11f2",
          "blockTimestamp": "0x682480c7",
          "transactionHash": "0x6130526690f853a9f8e5a1c3d4b80e98721e90cff0c6ff9ece96225ff1a87c30",
          "transactionIndex": "0x93",
          "logIndex": "0x220",
          "removed": false
        }
      ],
      "logsBloom": "0x00000200000000000000000002000000000000000800000000000000000000000000000000000000000000020000000000000000000000000000000000000000000000000000020000000000000000000000000000000000000000004000000000000000000000000000000000000000000000000000000000000000000000000000000000000000000000000000000000000000000000000000000000000000000000000040000000000000000000000000000000000000000000000000000000000000000000000000000000000000000000000000000000000000000000000000000000008000000000000000000000000000000000000000000000800000",
      "type": "0x2",
      "transactionHash": "0x6130526690f853a9f8e5a1c3d4b80e98721e90cff0c6ff9ece96225ff1a87c30",
      "transactionIndex": "0x93",
      "blockHash": "0xcd15592221011bbddca46cf2eff995ad494c2071247ed14f4c3ceb6e5b0eafab",
      "blockNumber": "0x1cd11f2",
      "gasUsed": "0xce5f",
      "effectiveGasPrice": "0x1200ac",
      "from": "0xb819a871d20913839c37f316dc914b0570bfc0ee",
      "to": "0x1d8e8cefeb085f3211ab6a443ad9051b54d1cd1a",
      "contractAddress": null,
      "l1BaseFeeScalar": "0x8dd",
      "l1BlobBaseFee": "0x1",
      "l1BlobBaseFeeScalar": "0x101c12",
      "l1Fee": "0x125c578e6",
      "l1GasPrice": "0x50eb7a52",
      "l1GasUsed": "0x640"
    },
    {
      "status": "0x1",
      "cumulativeGasUsed": "0x2aa7333",
      "logs": [
        {
          "address": "0x1d8e8cefeb085f3211ab6a443ad9051b54d1cd1a",
          "topics": [
            "0x4059c608a8f17b9b24a5a29662eb74934d39ea92ae22411868f07fcac29487a0",
            "0x00000000000000000000000065b142550ae82f4bb3792e1eefb2fc35541a3837"
          ],
          "data": "0x0000000000000000000000000000000000000000000000000000000000000001",
          "blockHash": "0x865fc2f67c7ff7b1babab1c74603a8d70bbe69742ce2b152f70422f15f2dbc29",
          "blockNumber": "0x1cd11f4",
          "blockTimestamp": "0x682480cb",
          "transactionHash": "0xe95063bbdd631de015bc7e0ccb68c08f316e52471822f8b09070022e8659027b",
          "transactionIndex": "0xaf",
          "logIndex": "0x239",
          "removed": false
        }
      ],
      "logsBloom": "0x00000000000000000000000002000000000000000800000000000000000000000000000000000000000000020000000000000000000000000000000000000000000000000000000000000000000000000000000000000000000000000000000000000000000000000000000000000000000000000000000000000000000000000000000000000000000000000000000000000000000000000000000000000000000040000040000000000000000000080000000000000000000000000000000000000000000000000000000000000000000000000000000000000000008000000000000000008000000000000000000000000000000000000000000000800000",
      "type": "0x2",
      "transactionHash": "0xe95063bbdd631de015bc7e0ccb68c08f316e52471822f8b09070022e8659027b",
      "transactionIndex": "0xaf",
      "blockHash": "0x865fc2f67c7ff7b1babab1c74603a8d70bbe69742ce2b152f70422f15f2dbc29",
      "blockNumber": "0x1cd11f4",
      "gasUsed": "0xce5f",
      "effectiveGasPrice": "0x12042a",
      "from": "0xb819a871d20913839c37f316dc914b0570bfc0ee",
      "to": "0x1d8e8cefeb085f3211ab6a443ad9051b54d1cd1a",
      "contractAddress": null,
      "l1BaseFeeScalar": "0x8dd",
      "l1BlobBaseFee": "0x1",
      "l1BlobBaseFeeScalar": "0x101c12",
      "l1Fee": "0x135c2448f",
      "l1GasPrice": "0x5552d871",
      "l1GasUsed": "0x640"
    },
    {
      "status": "0x1",
      "cumulativeGasUsed": "0x1968607",
      "logs": [
        {
          "address": "0x1d8e8cefeb085f3211ab6a443ad9051b54d1cd1a",
          "topics": [
            "0x4059c608a8f17b9b24a5a29662eb74934d39ea92ae22411868f07fcac29487a0",
            "0x00000000000000000000000075149feebb20e1fe5ddb89302a6d4bace70c14ce"
          ],
          "data": "0x0000000000000000000000000000000000000000000000000000000000000001",
          "blockHash": "0x9781770de0ce565ab8603d23f61678ac74ad83adab41e6afeb2694630ce4304c",
          "blockNumber": "0x1cd11f8",
          "blockTimestamp": "0x682480d3",
          "transactionHash": "0xa2f276c7c1e8128ada4ed1cc5be21d21b746fd180bf4ad41dc36fbbc80d58012",
          "transactionIndex": "0x66",
          "logIndex": "0x240",
          "removed": false
        }
      ],
      "logsBloom": "0x00000000000000200000000002000000000000000800000000000000000000000000000000000000040000020000000000000000000000000000000000000000000000000000000000000000000000000000000000000000000000000000000000000000000000000000000000000000000000000000000000000000000000000000000000000000000000000000000000000000000000000000000000000000000000000040000000000000000010000000000000000000000000000000000000000000000000000000000000000000000000000000000000000000000000000000000000008000000000000000000000000000000000000000000000800000",
      "type": "0x2",
      "transactionHash": "0xa2f276c7c1e8128ada4ed1cc5be21d21b746fd180bf4ad41dc36fbbc80d58012",
      "transactionIndex": "0x66",
      "blockHash": "0x9781770de0ce565ab8603d23f61678ac74ad83adab41e6afeb2694630ce4304c",
      "blockNumber": "0x1cd11f8",
      "gasUsed": "0xce5f",
      "effectiveGasPrice": "0x12167d",
      "from": "0xb819a871d20913839c37f316dc914b0570bfc0ee",
      "to": "0x1d8e8cefeb085f3211ab6a443ad9051b54d1cd1a",
      "contractAddress": null,
      "l1BaseFeeScalar": "0x8dd",
      "l1BlobBaseFee": "0x1",
      "l1BlobBaseFeeScalar": "0x101c12",
      "l1Fee": "0x135c2448f",
      "l1GasPrice": "0x5552d871",
      "l1GasUsed": "0x640"
    },
    {
      "status": "0x1",
      "cumulativeGasUsed": "0x39c086e",
      "logs": [
        {
          "address": "0x1d8e8cefeb085f3211ab6a443ad9051b54d1cd1a",
          "topics": [
            "0x4059c608a8f17b9b24a5a29662eb74934d39ea92ae22411868f07fcac29487a0",
            "0x00000000000000000000000065b6d4770dadcfba6d363de86aa4d9c76283cea0"
          ],
          "data": "0x0000000000000000000000000000000000000000000000000000000000000001",
          "blockHash": "0x187e2c25a36109fa926337e9bef69868d2b569c67c9ebb2d272f0988f50d74d9",
          "blockNumber": "0x1cd11fa",
          "blockTimestamp": "0x682480d7",
          "transactionHash": "0xefa44c83f848b6aba95e3c1327dcdf2f2412155643b27cd2658a15ac291f8abe",
          "transactionIndex": "0x100",
          "logIndex": "0x465",
          "removed": false
        }
      ],
      "logsBloom": "0x00000000800000000000000002000000000000000800000000000000000000000000000000000000000002020000000000000000000000000000000000000000000000000000000000000000000000000000000000000000000000000000000000000000000000000000000000000000000000000000000000000000000000000000000000000000000000000000000000000000000000000000000000000000000000000040000000000000000000000000000000000000000000000000000000000000000000000000000000000000002000000000000000000000000000000000000000008000000000000000000000000000000000000000000000800000",
      "type": "0x2",
      "transactionHash": "0xefa44c83f848b6aba95e3c1327dcdf2f2412155643b27cd2658a15ac291f8abe",
      "transactionIndex": "0x100",
      "blockHash": "0x187e2c25a36109fa926337e9bef69868d2b569c67c9ebb2d272f0988f50d74d9",
      "blockNumber": "0x1cd11fa",
      "gasUsed": "0xce5f",
      "effectiveGasPrice": "0x1225ae",
      "from": "0xb819a871d20913839c37f316dc914b0570bfc0ee",
      "to": "0x1d8e8cefeb085f3211ab6a443ad9051b54d1cd1a",
      "contractAddress": null,
      "l1BaseFeeScalar": "0x8dd",
      "l1BlobBaseFee": "0x1",
      "l1BlobBaseFeeScalar": "0x101c12",
      "l1Fee": "0x11d54f97c",
      "l1GasPrice": "0x4e985d6e",
      "l1GasUsed": "0x640"
    },
    {
      "status": "0x1",
      "cumulativeGasUsed": "0x2adbb3e",
      "logs": [
        {
          "address": "0x1d8e8cefeb085f3211ab6a443ad9051b54d1cd1a",
          "topics": [
            "0x4059c608a8f17b9b24a5a29662eb74934d39ea92ae22411868f07fcac29487a0",
            "0x000000000000000000000000a6a9fddc94bb4fe7520a2ea1cc2c433e18683342"
          ],
          "data": "0x0000000000000000000000000000000000000000000000000000000000000001",
          "blockHash": "0x31f167710a8e05979ef02598783c4fd84d84af3ed828a1a8047e21201bbbf507",
          "blockNumber": "0x1cd11fc",
          "blockTimestamp": "0x682480db",
          "transactionHash": "0x95d938385d5c789ee2c68348efdc6303ae949038da2ccd5dc02932692fc107a8",
          "transactionIndex": "0xb1",
          "logIndex": "0x2f5",
          "removed": false
        }
      ],
      "logsBloom": "0x00000000000040000000000002000000000000000800000000000000000000000000000000000000000000020000000000000000000000000000000000000000000000000000000000000000000000400000000000000000000000000000000000000000000000000000000000000000000000000000000000000000000000000000000000000000000000000000000000000000000000000000000000000000000000000040000002000000000000000000000000000000000000000000000000000000000000000000000000000000000000000000000000000000000000000000000000008000000000000000000000000000000000000000000000800000",
      "type": "0x2",
      "transactionHash": "0x95d938385d5c789ee2c68348efdc6303ae949038da2ccd5dc02932692fc107a8",
      "transactionIndex": "0xb1",
      "blockHash": "0x31f167710a8e05979ef02598783c4fd84d84af3ed828a1a8047e21201bbbf507",
      "blockNumber": "0x1cd11fc",
      "gasUsed": "0xce5f",
      "effectiveGasPrice": "0x123482",
      "from": "0xb819a871d20913839c37f316dc914b0570bfc0ee",
      "to": "0x1d8e8cefeb085f3211ab6a443ad9051b54d1cd1a",
      "contractAddress": null,
      "l1BaseFeeScalar": "0x8dd",
      "l1BlobBaseFee": "0x1",
      "l1BlobBaseFeeScalar": "0x101c12",
      "l1Fee": "0x11d54f97c",
      "l1GasPrice": "0x4e985d6e",
      "l1GasUsed": "0x640"
    },
    {
      "status": "0x1",
      "cumulativeGasUsed": "0x6e13d5d",
      "logs": [
        {
          "address": "0x1d8e8cefeb085f3211ab6a443ad9051b54d1cd1a",
          "topics": [
            "0x4059c608a8f17b9b24a5a29662eb74934d39ea92ae22411868f07fcac29487a0",
            "0x00000000000000000000000018d04f05f80ade5373849385a1c24e1e0a6d1744"
          ],
          "data": "0x0000000000000000000000000000000000000000000000000000000000000001",
          "blockHash": "0x9e5542ab89fa5a6e62da9c611f0a09300fdb3daf130e50fd03c80c6a58c0bc9a",
          "blockNumber": "0x1cd11fe",
          "blockTimestamp": "0x682480df",
          "transactionHash": "0x5fffa083e52751f26a793b6e21a4666e5771ed79dbc13d50c005bc0572039b1b",
          "transactionIndex": "0x13f",
          "logIndex": "0x679",
          "removed": false
        }
      ],
      "logsBloom": "0x00000000000000000000000002000000000000000800000000000000000000000000000000000000000000020000000000000000000000000000000000000000000000000000000000000000000100000000000000000000000000000000000000000000000000000000000000000000000000000000000000000000000000000000000000000000000000000000000000000000000000000000000000000000000000000040000000000000000000000000000000000000000000000000000000000000000100000000000000000000000000000000000000000000000000000000000000008000000000000004000000000000000000000000000000800000",
      "type": "0x2",
      "transactionHash": "0x5fffa083e52751f26a793b6e21a4666e5771ed79dbc13d50c005bc0572039b1b",
      "transactionIndex": "0x13f",
      "blockHash": "0x9e5542ab89fa5a6e62da9c611f0a09300fdb3daf130e50fd03c80c6a58c0bc9a",
      "blockNumber": "0x1cd11fe",
      "gasUsed": "0xce5f",
      "effectiveGasPrice": "0x1229fe",
      "from": "0xb819a871d20913839c37f316dc914b0570bfc0ee",
      "to": "0x1d8e8cefeb085f3211ab6a443ad9051b54d1cd1a",
      "contractAddress": null,
      "l1BaseFeeScalar": "0x8dd",
      "l1BlobBaseFee": "0x1",
      "l1BlobBaseFeeScalar": "0x101c12",
      "l1Fee": "0x11d54f97c",
      "l1GasPrice": "0x4e985d6e",
      "l1GasUsed": "0x640"
    },
    {
      "status": "0x1",
      "cumulativeGasUsed": "0x33d35d2",
      "logs": [
        {
          "address": "0x1d8e8cefeb085f3211ab6a443ad9051b54d1cd1a",
          "topics": [
            "0x4059c608a8f17b9b24a5a29662eb74934d39ea92ae22411868f07fcac29487a0",
            "0x000000000000000000000000bd9c90d6774cb5320b54bb7998b6bcc5e4a9071f"
          ],
          "data": "0x0000000000000000000000000000000000000000000000000000000000000001",
          "blockHash": "0xc93a62069ea72fd24d2ad6a1f7fc3421d6277662a8e2ccf990a40afe729b0598",
          "blockNumber": "0x1cd1200",
          "blockTimestamp": "0x682480e3",
          "transactionHash": "0xf1ec6f8802c87168b00000dc5821061948ba9320687f44a479bfd4a1ce137026",
          "transactionIndex": "0xf6",
          "logIndex": "0x32d",
          "removed": false
        }
      ],
      "logsBloom": "0x00000000000000000000000002000000000000000800000000000000000000000000000000002000000000020000000000000000000040000000000000000000000000000000000000000000000000000000000000000000000000000000000000000000000000000000000000000000000000000000000000000000000000000000000000000000000000000000000000000000000000000000000000000000000000000040000000000000000000000000000000800000000000000000000000000000000000000000000000000000000000000000000000000000000000000000000000008000000000000000000000000000000000000000000000800000",
      "type": "0x2",
      "transactionHash": "0xf1ec6f8802c87168b00000dc5821061948ba9320687f44a479bfd4a1ce137026",
      "transactionIndex": "0xf6",
      "blockHash": "0xc93a62069ea72fd24d2ad6a1f7fc3421d6277662a8e2ccf990a40afe729b0598",
      "blockNumber": "0x1cd1200",
      "gasUsed": "0xce5f",
      "effectiveGasPrice": "0x123c4d",
      "from": "0xb819a871d20913839c37f316dc914b0570bfc0ee",
      "to": "0x1d8e8cefeb085f3211ab6a443ad9051b54d1cd1a",
      "contractAddress": null,
      "l1BaseFeeScalar": "0x8dd",
      "l1BlobBaseFee": "0x1",
      "l1BlobBaseFeeScalar": "0x101c12",
      "l1Fee": "0x13296e8e2",
      "l1GasPrice": "0x54735b00",
      "l1GasUsed": "0x640"
    },
    {
      "status": "0x1",
      "cumulativeGasUsed": "0x49cbed2",
      "logs": [
        {
          "address": "0x1d8e8cefeb085f3211ab6a443ad9051b54d1cd1a",
          "topics": [
            "0x4059c608a8f17b9b24a5a29662eb74934d39ea92ae22411868f07fcac29487a0",
            "0x0000000000000000000000008f2eaba31b1b613ca78f2795ba05400f0583c5a4"
          ],
          "data": "0x0000000000000000000000000000000000000000000000000000000000000001",
          "blockHash": "0x77a4090447a267f9656a12c6e6c7f86ab97a6ce9f0e5927092ed941f17300101",
          "blockNumber": "0x1cd1202",
          "blockTimestamp": "0x682480e7",
          "transactionHash": "0xeee8c5750ef5daea95828973bb95abf0fc1df3378a0c3dbb1118491cb3656d11",
          "transactionIndex": "0xf4",
          "logIndex": "0x48c",
          "removed": false
        }
      ],
      "logsBloom": "0x00000000000000000000000002000000000000000800000000000000000000000000000000000000000000020000000000000000000000000000000000000000000000000000000000000000000000000000000000000000000000000000000000000000000000000000001000000000000000000000000000000000000000000000000000000000000000000000000000000000000000000000000000000000000000000040000000000000000000000000000000000000000000000000000000004000000000000000000000002000000000000000000000000000000000000000000000008000000000000000000000000000000000000000000000800000",
      "type": "0x2",
      "transactionHash": "0xeee8c5750ef5daea95828973bb95abf0fc1df3378a0c3dbb1118491cb3656d11",
      "transactionIndex": "0xf4",
      "blockHash": "0x77a4090447a267f9656a12c6e6c7f86ab97a6ce9f0e5927092ed941f17300101",
      "blockNumber": "0x1cd1202",
      "gasUsed": "0xce5f",
      "effectiveGasPrice": "0x1246d2",
      "from": "0xb819a871d20913839c37f316dc914b0570bfc0ee",
      "to": "0x1d8e8cefeb085f3211ab6a443ad9051b54d1cd1a",
      "contractAddress": null,
      "l1BaseFeeScalar": "0x8dd",
      "l1BlobBaseFee": "0x1",
      "l1BlobBaseFeeScalar": "0x101c12",
      "l1Fee": "0x13296e8e2",
      "l1GasPrice": "0x54735b00",
      "l1GasUsed": "0x640"
    },
    {
      "status": "0x1",
      "cumulativeGasUsed": "0x29312e8",
      "logs": [
        {
          "address": "0x1d8e8cefeb085f3211ab6a443ad9051b54d1cd1a",
          "topics": [
            "0x4059c608a8f17b9b24a5a29662eb74934d39ea92ae22411868f07fcac29487a0",
            "0x0000000000000000000000008f2eaba31b1b613ca78f2795ba05400f0583c5a4"
          ],
          "data": "0x0000000000000000000000000000000000000000000000000000000000000001",
          "blockHash": "0x6c09a4d5d42861d44cc148153b33f18de37be4a81e9e50542c0337025c6d6a76",
          "blockNumber": "0x1cd1204",
          "blockTimestamp": "0x682480eb",
          "transactionHash": "0x5ca31f45789ca23a75a5495cba337c5f208e76233a7ee383b0242c12d9f363e8",
          "transactionIndex": "0xc2",
          "logIndex": "0x250",
          "removed": false
        }
      ],
      "logsBloom": "0x00000000000000000000000002000000000000000800000000000000000000000000000000000000000000020000000000000000000000000000000000000000000000000000000000000000000000000000000000000000000000000000000000000000000000000000001000000000000000000000000000000000000000000000000000000000000000000000000000000000000000000000000000000000000000000040000000000000000000000000000000000000000000000000000000004000000000000000000000002000000000000000000000000000000000000000000000008000000000000000000000000000000000000000000000800000",
      "type": "0x2",
      "transactionHash": "0x5ca31f45789ca23a75a5495cba337c5f208e76233a7ee383b0242c12d9f363e8",
      "transactionIndex": "0xc2",
      "blockHash": "0x6c09a4d5d42861d44cc148153b33f18de37be4a81e9e50542c0337025c6d6a76",
      "blockNumber": "0x1cd1204",
      "gasUsed": "0x80a3",
      "effectiveGasPrice": "0x124f0e",
      "from": "0xb819a871d20913839c37f316dc914b0570bfc0ee",
      "to": "0x1d8e8cefeb085f3211ab6a443ad9051b54d1cd1a",
      "contractAddress": null,
      "l1BaseFeeScalar": "0x8dd",
      "l1BlobBaseFee": "0x1",
      "l1BlobBaseFeeScalar": "0x101c12",
      "l1Fee": "0x13296e8e2",
      "l1GasPrice": "0x54735b00",
      "l1GasUsed": "0x640"
    },
    {
      "status": "0x1",
      "cumulativeGasUsed": "0x41d018a",
      "logs": [
        {
          "address": "0x1d8e8cefeb085f3211ab6a443ad9051b54d1cd1a",
          "topics": [
            "0x4059c608a8f17b9b24a5a29662eb74934d39ea92ae22411868f07fcac29487a0",
            "0x00000000000000000000000050d8deadd2b3140b151cab2c4fb76f1f59b236f8"
          ],
          "data": "0x0000000000000000000000000000000000000000000000000000000000000001",
          "blockHash": "0xde46b01b753360d9ca5f6ee2d1a62ebf4a09fa65a7cfd76301e26193027da30a",
          "blockNumber": "0x1cd1207",
          "blockTimestamp": "0x682480f1",
          "transactionHash": "0x861b4d4b64ed49f222d4495783f2598d59918724bd87519cdda414024bd612bb",
          "transactionIndex": "0xe7",
          "logIndex": "0xf76",
          "removed": false
        }
      ],
      "logsBloom": "0x00000000000000000000000002000000000000000800200000000000000000000000000000000000000000020000000000000000000000000000000000000000000000000000000000000000000000000000000000000000000000000000000000000000000000000000000000000000000000000000000000000000020000000000000000000000000000000000000000000000000000000000000000000000000000000040000000000000000000000000000000000000000000000000000000000000000000000000000000000000000000000000000000000000000000000000000000808000000000000000000000000000000000000000000000800000",
      "type": "0x2",
      "transactionHash": "0x861b4d4b64ed49f222d4495783f2598d59918724bd87519cdda414024bd612bb",
      "transactionIndex": "0xe7",
      "blockHash": "0xde46b01b753360d9ca5f6ee2d1a62ebf4a09fa65a7cfd76301e26193027da30a",
      "blockNumber": "0x1cd1207",
      "gasUsed": "0x80a3",
      "effectiveGasPrice": "0x125c79",
      "from": "0xb819a871d20913839c37f316dc914b0570bfc0ee",
      "to": "0x1d8e8cefeb085f3211ab6a443ad9051b54d1cd1a",
      "contractAddress": null,
      "l1BaseFeeScalar": "0x8dd",
      "l1BlobBaseFee": "0x1",
      "l1BlobBaseFeeScalar": "0x101c12",
      "l1Fee": "0x12ee89cdf",
      "l1GasPrice": "0x536fcc53",
      "l1GasUsed": "0x640"
    },
    {
      "status": "0x1",
      "cumulativeGasUsed": "0x4a38130",
      "logs": [
        {
          "address": "0x1d8e8cefeb085f3211ab6a443ad9051b54d1cd1a",
          "topics": [
            "0x4059c608a8f17b9b24a5a29662eb74934d39ea92ae22411868f07fcac29487a0",
            "0x000000000000000000000000574582c44e3f1ef2cb29a7131b057febbcc8244e"
          ],
          "data": "0x0000000000000000000000000000000000000000000000000000000000000001",
          "blockHash": "0xb649de512b3f88bdd9f844bad9bccb9322671afbebf49d6a158cfacf11773636",
          "blockNumber": "0x1cd1209",
          "blockTimestamp": "0x682480f5",
          "transactionHash": "0x4a8bf156d1caa58dcc43296f446fdca106f9fd9867a32a0614c617932fc614fd",
          "transactionIndex": "0x82",
          "logIndex": "0x1f5",
          "removed": false
        }
      ],
      "logsBloom": "0x00000000000000000000000002000000000000000800000000000000000000000000000000000000000000020000000000000000000000000000000000000000000000000000200000000000000000000000000000000000000000000000000000000000000000000000000000000000000000000000000000000000000000000000000000000000000000100000000000000000000000000000000000000000004000000040000000000000000000000000000000000000000000000000000000000000000000000000000000000000000000000000000000000000000000000000000000008000000000000000000000000000000000000000000000800000",
      "type": "0x2",
      "transactionHash": "0x4a8bf156d1caa58dcc43296f446fdca106f9fd9867a32a0614c617932fc614fd",
      "transactionIndex": "0x82",
      "blockHash": "0xb649de512b3f88bdd9f844bad9bccb9322671afbebf49d6a158cfacf11773636",
      "blockNumber": "0x1cd1209",
      "gasUsed": "0x80a3",
      "effectiveGasPrice": "0x1260af",
      "from": "0xb819a871d20913839c37f316dc914b0570bfc0ee",
      "to": "0x1d8e8cefeb085f3211ab6a443ad9051b54d1cd1a",
      "contractAddress": null,
      "l1BaseFeeScalar": "0x8dd",
      "l1BlobBaseFee": "0x1",
      "l1BlobBaseFeeScalar": "0x101c12",
      "l1Fee": "0x12ee89cdf",
      "l1GasPrice": "0x536fcc53",
      "l1GasUsed": "0x640"
    },
    {
      "status": "0x1",
      "cumulativeGasUsed": "0x3b5828c",
      "logs": [
        {
          "address": "0x1d8e8cefeb085f3211ab6a443ad9051b54d1cd1a",
          "topics": [
            "0x4059c608a8f17b9b24a5a29662eb74934d39ea92ae22411868f07fcac29487a0",
            "0x000000000000000000000000bd0ce952ba069a1e15f3bf3916d4b07bbbdbc8b3"
          ],
          "data": "0x0000000000000000000000000000000000000000000000000000000000000001",
          "blockHash": "0xc250cd5179155bce71561cbb6b0515ae97dac4e9aea878be8a4af7a551678f1e",
          "blockNumber": "0x1cd120b",
          "blockTimestamp": "0x682480f9",
          "transactionHash": "0x9e440cf0d81188656d65d465bc38fe82fba11dd42b598c8b47461dd6b5d4e12a",
          "transactionIndex": "0xdb",
          "logIndex": "0x38e",
          "removed": false
        }
      ],
      "logsBloom": "0x00000000000000000000000002000000000000000800000000000000000000000000000000000000000000020000000000000000000000000000000000000000000000000002000000000000000000000000000000000000000000000000000000000000000000000000000000000000000000000000000000000000000000000000000000000000000000000000000000000000000000000000000000000000000000000040000000000000000000000000000000000000000000000000000000000000008000000000010000000000000000000000000000000000000000000000000000008000000000000000000000000000000000000000000000800000",
      "type": "0x2",
      "transactionHash": "0x9e440cf0d81188656d65d465bc38fe82fba11dd42b598c8b47461dd6b5d4e12a",
      "transactionIndex": "0xdb",
      "blockHash": "0xc250cd5179155bce71561cbb6b0515ae97dac4e9aea878be8a4af7a551678f1e",
      "blockNumber": "0x1cd120b",
      "gasUsed": "0xce5f",
      "effectiveGasPrice": "0x126ac8",
      "from": "0xb819a871d20913839c37f316dc914b0570bfc0ee",
      "to": "0x1d8e8cefeb085f3211ab6a443ad9051b54d1cd1a",
      "contractAddress": null,
      "l1BaseFeeScalar": "0x8dd",
      "l1BlobBaseFee": "0x1",
      "l1BlobBaseFeeScalar": "0x101c12",
      "l1Fee": "0x137757b2f",
      "l1GasPrice": "0x55cab9cb",
      "l1GasUsed": "0x640"
    }
  ],
  "libraries": [],
  "pending": [],
  "returns": {},
  "timestamp": 1747222781,
  "chain": 8453,
  "commit": "0b1d1bd"
}