{
  "transactions": [
    {
      "hash": "0xdd6d8d1cf6687001165f42f2b43fa1db1676760a227ed1e208971263bbdbfc9f",
      "transactionType": "CALL",
      "contractName": null,
      "contractAddress": "0x4df3dd62db219c47f6a7cb1be02c511afceadf5e",
      "function": "setWhitelistedUser(address,bool)",
      "arguments": [
        "0xf20a8950c368Ec48323092D6e4acF90aADf2BdC6",
        "true"
      ],
      "transaction": {
        "from": "0xb819a871d20913839c37f316dc914b0570bfc0ee",
        "to": "0x4df3dd62db219c47f6a7cb1be02c511afceadf5e",
        "gas": "0x11d0b",
        "value": "0x0",
        "input": "0x44710fbe000000000000000000000000f20a8950c368ec48323092d6e4acf90aadf2bdc60000000000000000000000000000000000000000000000000000000000000001",
        "nonce": "0x11d",
        "chainId": "0x2105"
      },
      "additionalContracts": [],
      "isFixedGasLimit": false
    },
    {
      "hash": "0x69e9fafd6d5d0450f95031112f10453a732dbc798d41699aaf5e7350c39e01db",
      "transactionType": "CALL",
      "contractName": null,
      "contractAddress": "0x4df3dd62db219c47f6a7cb1be02c511afceadf5e",
      "function": "setWhitelistedUser(address,bool)",
      "arguments": [
        "0x8E72a24221517E51502f20f387415a06b27A5b51",
        "true"
      ],
      "transaction": {
        "from": "0xb819a871d20913839c37f316dc914b0570bfc0ee",
        "to": "0x4df3dd62db219c47f6a7cb1be02c511afceadf5e",
        "gas": "0x11d0b",
        "value": "0x0",
        "input": "0x44710fbe0000000000000000000000008e72a24221517e51502f20f387415a06b27a5b510000000000000000000000000000000000000000000000000000000000000001",
        "nonce": "0x11e",
        "chainId": "0x2105"
      },
      "additionalContracts": [],
      "isFixedGasLimit": false
    },
    {
      "hash": "0x66db2b0a7c5e1b61cbb0181441996d50407a7dc011882a030b88e2d19314880b",
      "transactionType": "CALL",
      "contractName": null,
      "contractAddress": "0x4df3dd62db219c47f6a7cb1be02c511afceadf5e",
      "function": "setWhitelistedUser(address,bool)",
      "arguments": [
        "0x50d8Deadd2b3140B151CaB2C4FB76F1f59b236F8",
        "true"
      ],
      "transaction": {
        "from": "0xb819a871d20913839c37f316dc914b0570bfc0ee",
        "to": "0x4df3dd62db219c47f6a7cb1be02c511afceadf5e",
        "gas": "0x11d0b",
        "value": "0x0",
        "input": "0x44710fbe00000000000000000000000050d8deadd2b3140b151cab2c4fb76f1f59b236f80000000000000000000000000000000000000000000000000000000000000001",
        "nonce": "0x11f",
        "chainId": "0x2105"
      },
      "additionalContracts": [],
      "isFixedGasLimit": false
    },
    {
      "hash": "0x5f507fe951dbec8f0ee397356b64768ba79e0c43a51ec3d8d2d745dedeb8028b",
      "transactionType": "CALL",
      "contractName": null,
      "contractAddress": "0x4df3dd62db219c47f6a7cb1be02c511afceadf5e",
      "function": "setWhitelistedUser(address,bool)",
      "arguments": [
        "0x574582C44e3f1EF2cB29a7131B057FebBCC8244E",
        "true"
      ],
      "transaction": {
        "from": "0xb819a871d20913839c37f316dc914b0570bfc0ee",
        "to": "0x4df3dd62db219c47f6a7cb1be02c511afceadf5e",
        "gas": "0x11d0b",
        "value": "0x0",
        "input": "0x44710fbe000000000000000000000000574582c44e3f1ef2cb29a7131b057febbcc8244e0000000000000000000000000000000000000000000000000000000000000001",
        "nonce": "0x120",
        "chainId": "0x2105"
      },
      "additionalContracts": [],
      "isFixedGasLimit": false
    },
    {
      "hash": "0xc811cbfc884927f44864cfa9e3bdd408af9760253c2904700c7a9aa0d92f1a08",
      "transactionType": "CALL",
      "contractName": null,
      "contractAddress": "0x4df3dd62db219c47f6a7cb1be02c511afceadf5e",
      "function": "setWhitelistedUser(address,bool)",
      "arguments": [
        "0x281567fe62b587EC1755f6F33b80160F544Dc5d0",
        "true"
      ],
      "transaction": {
        "from": "0xb819a871d20913839c37f316dc914b0570bfc0ee",
        "to": "0x4df3dd62db219c47f6a7cb1be02c511afceadf5e",
        "gas": "0x11d0b",
        "value": "0x0",
        "input": "0x44710fbe000000000000000000000000281567fe62b587ec1755f6f33b80160f544dc5d00000000000000000000000000000000000000000000000000000000000000001",
        "nonce": "0x121",
        "chainId": "0x2105"
      },
      "additionalContracts": [],
      "isFixedGasLimit": false
    },
    {
      "hash": "0xc91ebea54b104939cccbbddaf937d3e4143b02d4bf4ac5667196dfe1023b33b4",
      "transactionType": "CALL",
      "contractName": null,
      "contractAddress": "0x4df3dd62db219c47f6a7cb1be02c511afceadf5e",
      "function": "setWhitelistedUser(address,bool)",
      "arguments": [
        "0x2705f6A8F01bd4A805D9FC73151DBe37BB8d1edE",
        "true"
      ],
      "transaction": {
        "from": "0xb819a871d20913839c37f316dc914b0570bfc0ee",
        "to": "0x4df3dd62db219c47f6a7cb1be02c511afceadf5e",
        "gas": "0x11d0b",
        "value": "0x0",
        "input": "0x44710fbe0000000000000000000000002705f6a8f01bd4a805d9fc73151dbe37bb8d1ede0000000000000000000000000000000000000000000000000000000000000001",
        "nonce": "0x122",
        "chainId": "0x2105"
      },
      "additionalContracts": [],
      "isFixedGasLimit": false
    },
    {
      "hash": "0x6fadb1b4a338aa63706f1d9c33b842adf714d00c032ad8046ce13905a45bca9d",
      "transactionType": "CALL",
      "contractName": null,
      "contractAddress": "0x4df3dd62db219c47f6a7cb1be02c511afceadf5e",
      "function": "setWhitelistedUser(address,bool)",
      "arguments": [
        "0xc9C9693b6A445D05Add0043662fad9Ac600Ad088",
        "true"
      ],
      "transaction": {
        "from": "0xb819a871d20913839c37f316dc914b0570bfc0ee",
        "to": "0x4df3dd62db219c47f6a7cb1be02c511afceadf5e",
        "gas": "0x11d0b",
        "value": "0x0",
        "input": "0x44710fbe000000000000000000000000c9c9693b6a445d05add0043662fad9ac600ad0880000000000000000000000000000000000000000000000000000000000000001",
        "nonce": "0x123",
        "chainId": "0x2105"
      },
      "additionalContracts": [],
      "isFixedGasLimit": false
    },
    {
      "hash": "0x22a77a3b624c35ae69ae80c0443c8e92b375e11d59dc0f57fb985fff025709b0",
      "transactionType": "CALL",
      "contractName": null,
      "contractAddress": "0x4df3dd62db219c47f6a7cb1be02c511afceadf5e",
      "function": "setWhitelistedUser(address,bool)",
      "arguments": [
        "0x7EfE40B2E6dA8b28AaB6Bd2D622B9Cd7f5fE077c",
        "true"
      ],
      "transaction": {
        "from": "0xb819a871d20913839c37f316dc914b0570bfc0ee",
        "to": "0x4df3dd62db219c47f6a7cb1be02c511afceadf5e",
        "gas": "0x11d0b",
        "value": "0x0",
        "input": "0x44710fbe0000000000000000000000007efe40b2e6da8b28aab6bd2d622b9cd7f5fe077c0000000000000000000000000000000000000000000000000000000000000001",
        "nonce": "0x124",
        "chainId": "0x2105"
      },
      "additionalContracts": [],
      "isFixedGasLimit": false
    },
    {
      "hash": "0xf653e35ab8025b086732c56aca49e30e2218df729d7f0f72a91ef33cd0802d2b",
      "transactionType": "CALL",
      "contractName": null,
      "contractAddress": "0x4df3dd62db219c47f6a7cb1be02c511afceadf5e",
      "function": "setWhitelistedUser(address,bool)",
      "arguments": [
        "0xa22DCB8F0A2848289124086F35ae9dB2a0006962",
        "true"
      ],
      "transaction": {
        "from": "0xb819a871d20913839c37f316dc914b0570bfc0ee",
        "to": "0x4df3dd62db219c47f6a7cb1be02c511afceadf5e",
        "gas": "0x12dbf",
        "value": "0x0",
        "input": "0x44710fbe000000000000000000000000a22dcb8f0a2848289124086f35ae9db2a00069620000000000000000000000000000000000000000000000000000000000000001",
        "nonce": "0x125",
        "chainId": "0x2105"
      },
      "additionalContracts": [],
      "isFixedGasLimit": false
    },
    {
      "hash": "0x7c4c0a1258734c8ac00dc806906a1b0b4b3e262dcd90fed4784d1b99a28279ed",
      "transactionType": "CALL",
      "contractName": null,
      "contractAddress": "0x4df3dd62db219c47f6a7cb1be02c511afceadf5e",
      "function": "setWhitelistedUser(address,bool)",
      "arguments": [
        "0xB819A871d20913839c37f316Dc914b0570bfc0eE",
        "true"
      ],
      "transaction": {
        "from": "0xb819a871d20913839c37f316dc914b0570bfc0ee",
        "to": "0x4df3dd62db219c47f6a7cb1be02c511afceadf5e",
        "gas": "0x11d0b",
        "value": "0x0",
        "input": "0x44710fbe000000000000000000000000b819a871d20913839c37f316dc914b0570bfc0ee0000000000000000000000000000000000000000000000000000000000000001",
        "nonce": "0x126",
        "chainId": "0x2105"
      },
      "additionalContracts": [],
      "isFixedGasLimit": false
    },
    {
      "hash": "0x8881ef90ecacc1506213354002caa3e9b0ef7a1d1f2b255c9a25284d41bc0848",
      "transactionType": "CALL",
      "contractName": null,
      "contractAddress": "0x4df3dd62db219c47f6a7cb1be02c511afceadf5e",
      "function": "setWhitelistedUser(address,bool)",
      "arguments": [
        "0x40282d3Cf4890D9806BC1853e97a59C93D813653",
        "true"
      ],
      "transaction": {
        "from": "0xb819a871d20913839c37f316dc914b0570bfc0ee",
        "to": "0x4df3dd62db219c47f6a7cb1be02c511afceadf5e",
        "gas": "0x11d0b",
        "value": "0x0",
        "input": "0x44710fbe00000000000000000000000040282d3cf4890d9806bc1853e97a59c93d8136530000000000000000000000000000000000000000000000000000000000000001",
        "nonce": "0x127",
        "chainId": "0x2105"
      },
      "additionalContracts": [],
      "isFixedGasLimit": false
    },
    {
      "hash": "0x621ba8e0bbadb749dc07797f38a21c6fede6bc7cf1d7cdaceede4e71d3826cb2",
      "transactionType": "CALL",
      "contractName": null,
      "contractAddress": "0x4df3dd62db219c47f6a7cb1be02c511afceadf5e",
      "function": "setWhitelistedUser(address,bool)",
      "arguments": [
        "0xB5b901F1BB86421301138b5c45C1D3Fe96663161",
        "true"
      ],
      "transaction": {
        "from": "0xb819a871d20913839c37f316dc914b0570bfc0ee",
        "to": "0x4df3dd62db219c47f6a7cb1be02c511afceadf5e",
        "gas": "0x11d0b",
        "value": "0x0",
        "input": "0x44710fbe000000000000000000000000b5b901f1bb86421301138b5c45c1d3fe966631610000000000000000000000000000000000000000000000000000000000000001",
        "nonce": "0x128",
        "chainId": "0x2105"
      },
      "additionalContracts": [],
      "isFixedGasLimit": false
    },
    {
      "hash": "0x856bdf3eb0f88fb1f7d4fb72aa09e12eb5feb2bb1f36cca6c682fc7ca20f1101",
      "transactionType": "CALL",
      "contractName": null,
      "contractAddress": "0x4df3dd62db219c47f6a7cb1be02c511afceadf5e",
      "function": "setWhitelistedUser(address,bool)",
      "arguments": [
        "0xBAec8904499dcdee770c60df15b0C37EAC84Fb62",
        "true"
      ],
      "transaction": {
        "from": "0xb819a871d20913839c37f316dc914b0570bfc0ee",
        "to": "0x4df3dd62db219c47f6a7cb1be02c511afceadf5e",
        "gas": "0x11d0b",
        "value": "0x0",
        "input": "0x44710fbe000000000000000000000000baec8904499dcdee770c60df15b0c37eac84fb620000000000000000000000000000000000000000000000000000000000000001",
        "nonce": "0x129",
        "chainId": "0x2105"
      },
      "additionalContracts": [],
      "isFixedGasLimit": false
    },
    {
      "hash": "0x076d3c8902237d19882f4b5abd44d9fbcf97f42f08b5b094b4e7593e281f04bc",
      "transactionType": "CALL",
      "contractName": null,
      "contractAddress": "0x4df3dd62db219c47f6a7cb1be02c511afceadf5e",
      "function": "setWhitelistedUser(address,bool)",
      "arguments": [
        "0xfC4A23271b60887FC246B060B6931a08E2BC434c",
        "true"
      ],
      "transaction": {
        "from": "0xb819a871d20913839c37f316dc914b0570bfc0ee",
        "to": "0x4df3dd62db219c47f6a7cb1be02c511afceadf5e",
        "gas": "0x11d0b",
        "value": "0x0",
        "input": "0x44710fbe000000000000000000000000fc4a23271b60887fc246b060b6931a08e2bc434c0000000000000000000000000000000000000000000000000000000000000001",
        "nonce": "0x12a",
        "chainId": "0x2105"
      },
      "additionalContracts": [],
      "isFixedGasLimit": false
    },
    {
      "hash": "0xe0846a4c65af770445ced65ec7eed7ec1b3069aea42d06881ba06b7cc280a9b8",
      "transactionType": "CALL",
      "contractName": null,
      "contractAddress": "0x4df3dd62db219c47f6a7cb1be02c511afceadf5e",
      "function": "setWhitelistedUser(address,bool)",
      "arguments": [
        "0x65b142550aE82f4BB3792E1eEfb2FC35541A3837",
        "true"
      ],
      "transaction": {
        "from": "0xb819a871d20913839c37f316dc914b0570bfc0ee",
        "to": "0x4df3dd62db219c47f6a7cb1be02c511afceadf5e",
        "gas": "0x11d0b",
        "value": "0x0",
        "input": "0x44710fbe00000000000000000000000065b142550ae82f4bb3792e1eefb2fc35541a38370000000000000000000000000000000000000000000000000000000000000001",
        "nonce": "0x12b",
        "chainId": "0x2105"
      },
      "additionalContracts": [],
      "isFixedGasLimit": false
    },
    {
      "hash": "0x77479a6c8a8ded1aec692e99d89534a0d04274f3cb3dbdc0983258b567f64b1f",
      "transactionType": "CALL",
      "contractName": null,
      "contractAddress": "0x4df3dd62db219c47f6a7cb1be02c511afceadf5e",
      "function": "setWhitelistedUser(address,bool)",
      "arguments": [
        "0x75149feEBb20E1fE5Ddb89302a6d4bACE70c14Ce",
        "true"
      ],
      "transaction": {
        "from": "0xb819a871d20913839c37f316dc914b0570bfc0ee",
        "to": "0x4df3dd62db219c47f6a7cb1be02c511afceadf5e",
        "gas": "0x11d0b",
        "value": "0x0",
        "input": "0x44710fbe00000000000000000000000075149feebb20e1fe5ddb89302a6d4bace70c14ce0000000000000000000000000000000000000000000000000000000000000001",
        "nonce": "0x12c",
        "chainId": "0x2105"
      },
      "additionalContracts": [],
      "isFixedGasLimit": false
    },
    {
      "hash": "0x10fa84191ff4f9c9b2e03361e8b5f678992ded28bda4452802f08a56d93df795",
      "transactionType": "CALL",
      "contractName": null,
      "contractAddress": "0x4df3dd62db219c47f6a7cb1be02c511afceadf5e",
      "function": "setWhitelistedUser(address,bool)",
      "arguments": [
        "0x65B6D4770DAdcFba6d363dE86aA4D9c76283cea0",
        "true"
      ],
      "transaction": {
        "from": "0xb819a871d20913839c37f316dc914b0570bfc0ee",
        "to": "0x4df3dd62db219c47f6a7cb1be02c511afceadf5e",
        "gas": "0x11d0b",
        "value": "0x0",
        "input": "0x44710fbe00000000000000000000000065b6d4770dadcfba6d363de86aa4d9c76283cea00000000000000000000000000000000000000000000000000000000000000001",
        "nonce": "0x12d",
        "chainId": "0x2105"
      },
      "additionalContracts": [],
      "isFixedGasLimit": false
    },
    {
      "hash": "0x0acab86fa85c872d1c373a52104e73b28b99a7e621a1c633c5459ab8f8bb1b1e",
      "transactionType": "CALL",
      "contractName": null,
      "contractAddress": "0x4df3dd62db219c47f6a7cb1be02c511afceadf5e",
      "function": "setWhitelistedUser(address,bool)",
      "arguments": [
        "0xa6A9fdDC94BB4FE7520A2eA1CC2c433e18683342",
        "true"
      ],
      "transaction": {
        "from": "0xb819a871d20913839c37f316dc914b0570bfc0ee",
        "to": "0x4df3dd62db219c47f6a7cb1be02c511afceadf5e",
        "gas": "0x11d0b",
        "value": "0x0",
        "input": "0x44710fbe000000000000000000000000a6a9fddc94bb4fe7520a2ea1cc2c433e186833420000000000000000000000000000000000000000000000000000000000000001",
        "nonce": "0x12e",
        "chainId": "0x2105"
      },
      "additionalContracts": [],
      "isFixedGasLimit": false
    },
    {
      "hash": "0x1205fe40b0c8950a5936557043eca8b604f3e7892359878ad44d5412c6bb28a9",
      "transactionType": "CALL",
      "contractName": null,
      "contractAddress": "0x4df3dd62db219c47f6a7cb1be02c511afceadf5e",
      "function": "setWhitelistedUser(address,bool)",
      "arguments": [
        "0x18D04F05f80ADE5373849385a1c24E1E0a6d1744",
        "true"
      ],
      "transaction": {
        "from": "0xb819a871d20913839c37f316dc914b0570bfc0ee",
        "to": "0x4df3dd62db219c47f6a7cb1be02c511afceadf5e",
        "gas": "0x11d0b",
        "value": "0x0",
        "input": "0x44710fbe00000000000000000000000018d04f05f80ade5373849385a1c24e1e0a6d17440000000000000000000000000000000000000000000000000000000000000001",
        "nonce": "0x12f",
        "chainId": "0x2105"
      },
      "additionalContracts": [],
      "isFixedGasLimit": false
    },
    {
      "hash": "0x3869acfa338e949e883061a990c2626c45560232bd305adca52931a5ba93c13c",
      "transactionType": "CALL",
      "contractName": null,
      "contractAddress": "0x4df3dd62db219c47f6a7cb1be02c511afceadf5e",
      "function": "setWhitelistedUser(address,bool)",
      "arguments": [
        "0xBD9C90D6774CB5320B54Bb7998b6Bcc5e4A9071f",
        "true"
      ],
      "transaction": {
        "from": "0xb819a871d20913839c37f316dc914b0570bfc0ee",
        "to": "0x4df3dd62db219c47f6a7cb1be02c511afceadf5e",
        "gas": "0x11d0b",
        "value": "0x0",
        "input": "0x44710fbe000000000000000000000000bd9c90d6774cb5320b54bb7998b6bcc5e4a9071f0000000000000000000000000000000000000000000000000000000000000001",
        "nonce": "0x130",
        "chainId": "0x2105"
      },
      "additionalContracts": [],
      "isFixedGasLimit": false
    },
    {
      "hash": "0x452f98efd6505b48199df024b94169b2b8912924b443e08b43ffcba599f1a29a",
      "transactionType": "CALL",
      "contractName": null,
      "contractAddress": "0x4df3dd62db219c47f6a7cb1be02c511afceadf5e",
      "function": "setWhitelistedUser(address,bool)",
      "arguments": [
        "0x8f2eABa31B1b613ca78F2795bA05400F0583c5A4",
        "true"
      ],
      "transaction": {
        "from": "0xb819a871d20913839c37f316dc914b0570bfc0ee",
        "to": "0x4df3dd62db219c47f6a7cb1be02c511afceadf5e",
        "gas": "0x11d0b",
        "value": "0x0",
        "input": "0x44710fbe0000000000000000000000008f2eaba31b1b613ca78f2795ba05400f0583c5a40000000000000000000000000000000000000000000000000000000000000001",
        "nonce": "0x131",
        "chainId": "0x2105"
      },
      "additionalContracts": [],
      "isFixedGasLimit": false
    },
    {
      "hash": "0x0927facedf845333546404be271b698d01ef1f086d6b595b746236beaeb7f1bc",
      "transactionType": "CALL",
      "contractName": null,
      "contractAddress": "0x4df3dd62db219c47f6a7cb1be02c511afceadf5e",
      "function": "setWhitelistedUser(address,bool)",
      "arguments": [
        "0x8f2eABa31B1b613ca78F2795bA05400F0583c5A4",
        "true"
      ],
      "transaction": {
        "from": "0xb819a871d20913839c37f316dc914b0570bfc0ee",
        "to": "0x4df3dd62db219c47f6a7cb1be02c511afceadf5e",
        "gas": "0xbc21",
        "value": "0x0",
        "input": "0x44710fbe0000000000000000000000008f2eaba31b1b613ca78f2795ba05400f0583c5a40000000000000000000000000000000000000000000000000000000000000001",
        "nonce": "0x132",
        "chainId": "0x2105"
      },
      "additionalContracts": [],
      "isFixedGasLimit": false
    },
    {
      "hash": "0xc0979e641c62cecce1965dd115f36a5426750964d04dcf98b6e50d9b51706a17",
      "transactionType": "CALL",
      "contractName": null,
      "contractAddress": "0x4df3dd62db219c47f6a7cb1be02c511afceadf5e",
      "function": "setWhitelistedUser(address,bool)",
      "arguments": [
        "0x50d8Deadd2b3140B151CaB2C4FB76F1f59b236F8",
        "true"
      ],
      "transaction": {
        "from": "0xb819a871d20913839c37f316dc914b0570bfc0ee",
        "to": "0x4df3dd62db219c47f6a7cb1be02c511afceadf5e",
        "gas": "0xbc21",
        "value": "0x0",
        "input": "0x44710fbe00000000000000000000000050d8deadd2b3140b151cab2c4fb76f1f59b236f80000000000000000000000000000000000000000000000000000000000000001",
        "nonce": "0x133",
        "chainId": "0x2105"
      },
      "additionalContracts": [],
      "isFixedGasLimit": false
    },
    {
      "hash": "0xd220b016a7e0ed09d97e0917e59a0ec563a77834c5789824ce154c0b25d1767d",
      "transactionType": "CALL",
      "contractName": null,
      "contractAddress": "0x4df3dd62db219c47f6a7cb1be02c511afceadf5e",
      "function": "setWhitelistedUser(address,bool)",
      "arguments": [
        "0x574582C44e3f1EF2cB29a7131B057FebBCC8244E",
        "true"
      ],
      "transaction": {
        "from": "0xb819a871d20913839c37f316dc914b0570bfc0ee",
        "to": "0x4df3dd62db219c47f6a7cb1be02c511afceadf5e",
        "gas": "0xbc21",
        "value": "0x0",
        "input": "0x44710fbe000000000000000000000000574582c44e3f1ef2cb29a7131b057febbcc8244e0000000000000000000000000000000000000000000000000000000000000001",
        "nonce": "0x134",
        "chainId": "0x2105"
      },
      "additionalContracts": [],
      "isFixedGasLimit": false
    },
    {
      "hash": "0x280c82252b6113dd0bc0df3f36f4dfbe83dc483138298760cfba9b444b4f5037",
      "transactionType": "CALL",
      "contractName": null,
      "contractAddress": "0x4df3dd62db219c47f6a7cb1be02c511afceadf5e",
      "function": "setWhitelistedUser(address,bool)",
      "arguments": [
        "0xBd0Ce952bA069A1e15f3bf3916d4B07bBBdBC8B3",
        "true"
      ],
      "transaction": {
        "from": "0xb819a871d20913839c37f316dc914b0570bfc0ee",
        "to": "0x4df3dd62db219c47f6a7cb1be02c511afceadf5e",
        "gas": "0x11d0b",
        "value": "0x0",
        "input": "0x44710fbe000000000000000000000000bd0ce952ba069a1e15f3bf3916d4b07bbbdbc8b30000000000000000000000000000000000000000000000000000000000000001",
        "nonce": "0x135",
        "chainId": "0x2105"
      },
      "additionalContracts": [],
      "isFixedGasLimit": false
    }
  ],
  "receipts": [
    {
      "status": "0x1",
      "cumulativeGasUsed": "0x3093f5a",
      "logs": [
        {
          "address": "0x4df3dd62db219c47f6a7cb1be02c511afceadf5e",
          "topics": [
            "0x4059c608a8f17b9b24a5a29662eb74934d39ea92ae22411868f07fcac29487a0",
            "0x000000000000000000000000f20a8950c368ec48323092d6e4acf90aadf2bdc6"
          ],
          "data": "0x0000000000000000000000000000000000000000000000000000000000000001",
          "blockHash": "0xe3e9553247607a421afa8797cfe129ad1fb0a1a73f2556201d2d328151475a32",
          "blockNumber": "0x1cd126f",
          "blockTimestamp": "0x682481c1",
          "transactionHash": "0xdd6d8d1cf6687001165f42f2b43fa1db1676760a227ed1e208971263bbdbfc9f",
          "transactionIndex": "0xb7",
          "logIndex": "0x54c",
          "removed": false
        }
      ],
      "logsBloom": "0x00000000000000000000000000000000000000000000000000000000000000000000000000000000000000020000000000000000000000000000000000000000000000000000000000000000000000000000000000000000000000000000000000000000000000000000000000000004000000000000000000000000000000000000000000000000000000000000000000000000000000000000000000000000000000000040000000000000010000000000020000000000000000000000000000000000000000000000000000000000000000000000000000001000004000000000000000008000000000000000000000000000000000000000002000000000",
      "type": "0x2",
      "transactionHash": "0xdd6d8d1cf6687001165f42f2b43fa1db1676760a227ed1e208971263bbdbfc9f",
      "transactionIndex": "0xb7",
      "blockHash": "0xe3e9553247607a421afa8797cfe129ad1fb0a1a73f2556201d2d328151475a32",
      "blockNumber": "0x1cd126f",
      "gasUsed": "0xce5f",
      "effectiveGasPrice": "0x11ebbc",
      "from": "0xb819a871d20913839c37f316dc914b0570bfc0ee",
      "to": "0x4df3dd62db219c47f6a7cb1be02c511afceadf5e",
      "contractAddress": null,
      "l1BaseFeeScalar": "0x8dd",
      "l1BlobBaseFee": "0x1",
      "l1BlobBaseFeeScalar": "0x101c12",
      "l1Fee": "0x148bfe1dd",
      "l1GasPrice": "0x5a8dfc53",
      "l1GasUsed": "0x640"
    },
    {
      "status": "0x1",
      "cumulativeGasUsed": "0x410cf31",
      "logs": [
        {
          "address": "0x4df3dd62db219c47f6a7cb1be02c511afceadf5e",
          "topics": [
            "0x4059c608a8f17b9b24a5a29662eb74934d39ea92ae22411868f07fcac29487a0",
            "0x0000000000000000000000008e72a24221517e51502f20f387415a06b27a5b51"
          ],
          "data": "0x0000000000000000000000000000000000000000000000000000000000000001",
          "blockHash": "0x83172a4496aa6aba6ba81f822d5f0eb45850273d2f3450e83da01db29766f09d",
          "blockNumber": "0x1cd1271",
          "blockTimestamp": "0x682481c5",
          "transactionHash": "0x69e9fafd6d5d0450f95031112f10453a732dbc798d41699aaf5e7350c39e01db",
          "transactionIndex": "0x57",
          "logIndex": "0xe5a",
          "removed": false
        }
      ],
      "logsBloom": "0x00000000000000000000000000000000000000000000000000000000000000000000000000000000000000020000000000000000000000000000000000000000000000000000000000000000000000000000000000000000000000000000000000000000000000000000000000000004000000000000000000000800000000000000000000000000000000000000000000000000000000000000000000020000000000000040000000000000010000000000000000000000000000000000000000000000000000000000000000000000000000000001000000000000000000000000000000008000000000000000000000000000000000000000002000000000",
      "type": "0x2",
      "transactionHash": "0x69e9fafd6d5d0450f95031112f10453a732dbc798d41699aaf5e7350c39e01db",
      "transactionIndex": "0x57",
      "blockHash": "0x83172a4496aa6aba6ba81f822d5f0eb45850273d2f3450e83da01db29766f09d",
      "blockNumber": "0x1cd1271",
      "gasUsed": "0xce5f",
      "effectiveGasPrice": "0x11e8b0",
      "from": "0xb819a871d20913839c37f316dc914b0570bfc0ee",
      "to": "0x4df3dd62db219c47f6a7cb1be02c511afceadf5e",
      "contractAddress": null,
      "l1BaseFeeScalar": "0x8dd",
      "l1BlobBaseFee": "0x1",
      "l1BlobBaseFeeScalar": "0x101c12",
      "l1Fee": "0x146dab426",
      "l1GasPrice": "0x5a0857a5",
      "l1GasUsed": "0x640"
    },
    {
      "status": "0x1",
      "cumulativeGasUsed": "0x29ab31e",
      "logs": [
        {
          "address": "0x4df3dd62db219c47f6a7cb1be02c511afceadf5e",
          "topics": [
            "0x4059c608a8f17b9b24a5a29662eb74934d39ea92ae22411868f07fcac29487a0",
            "0x00000000000000000000000050d8deadd2b3140b151cab2c4fb76f1f59b236f8"
          ],
          "data": "0x0000000000000000000000000000000000000000000000000000000000000001",
          "blockHash": "0xa5bfc326a9c18c69d52d44256a0c66836781a24262eeb397a443c68b599e256d",
          "blockNumber": "0x1cd1273",
          "blockTimestamp": "0x682481c9",
          "transactionHash": "0x66db2b0a7c5e1b61cbb0181441996d50407a7dc011882a030b88e2d19314880b",
          "transactionIndex": "0x98",
          "logIndex": "0x282",
          "removed": false
        }
      ],
      "logsBloom": "0x00000000000000000000000000000000000000000000200000000000000000000000000000000000000000020000000000000000000000000000000000000000000000000000000000000000000000000000000000000000000000000000000000000000000000000000000000000004000000000000000000000000020000000000000000000000000000000000000000000000000000000000000000000000000000000040000000000000010000000000000000000000000000000000000000000000000000000000000000000000000000000000000000000000000000000000000000808000000000000000000000000000000000000000002000000000",
      "type": "0x2",
      "transactionHash": "0x66db2b0a7c5e1b61cbb0181441996d50407a7dc011882a030b88e2d19314880b",
      "transactionIndex": "0x98",
      "blockHash": "0xa5bfc326a9c18c69d52d44256a0c66836781a24262eeb397a443c68b599e256d",
      "blockNumber": "0x1cd1273",
      "gasUsed": "0xce5f",
      "effectiveGasPrice": "0x11e985",
      "from": "0xb819a871d20913839c37f316dc914b0570bfc0ee",
      "to": "0x4df3dd62db219c47f6a7cb1be02c511afceadf5e",
      "contractAddress": null,
      "l1BaseFeeScalar": "0x8dd",
      "l1BlobBaseFee": "0x1",
      "l1BlobBaseFeeScalar": "0x101c12",
      "l1Fee": "0x146dab426",
      "l1GasPrice": "0x5a0857a5",
      "l1GasUsed": "0x640"
    },
    {
      "status": "0x1",
      "cumulativeGasUsed": "0x352ff64",
      "logs": [
        {
          "address": "0x4df3dd62db219c47f6a7cb1be02c511afceadf5e",
          "topics": [
            "0x4059c608a8f17b9b24a5a29662eb74934d39ea92ae22411868f07fcac29487a0",
            "0x000000000000000000000000574582c44e3f1ef2cb29a7131b057febbcc8244e"
          ],
          "data": "0x0000000000000000000000000000000000000000000000000000000000000001",
          "blockHash": "0xb91b5e1f1d644f44b9b15e81448541718a84c9d0b0b0e0d2f6802f17a1d1bdb5",
          "blockNumber": "0x1cd1275",
          "blockTimestamp": "0x682481cd",
          "transactionHash": "0x5f507fe951dbec8f0ee397356b64768ba79e0c43a51ec3d8d2d745dedeb8028b",
          "transactionIndex": "0x4e",
          "logIndex": "0xed",
          "removed": false
        }
      ],
      "logsBloom": "0x00000000000000000000000000000000000000000000000000000000000000000000000000000000000000020000000000000000000000000000000000000000000000000000200000000000000000000000000000000000000000000000000000000000000000000000000000000004000000000000000000000000000000000000000000000000000000100000000000000000000000000000000000000000004000000040000000000000010000000000000000000000000000000000000000000000000000000000000000000000000000000000000000000000000000000000000000008000000000000000000000000000000000000000002000000000",
      "type": "0x2",
      "transactionHash": "0x5f507fe951dbec8f0ee397356b64768ba79e0c43a51ec3d8d2d745dedeb8028b",
      "transactionIndex": "0x4e",
      "blockHash": "0xb91b5e1f1d644f44b9b15e81448541718a84c9d0b0b0e0d2f6802f17a1d1bdb5",
      "blockNumber": "0x1cd1275",
      "gasUsed": "0xce5f",
      "effectiveGasPrice": "0x11e715",
      "from": "0xb819a871d20913839c37f316dc914b0570bfc0ee",
      "to": "0x4df3dd62db219c47f6a7cb1be02c511afceadf5e",
      "contractAddress": null,
      "l1BaseFeeScalar": "0x8dd",
      "l1BlobBaseFee": "0x1",
      "l1BlobBaseFeeScalar": "0x101c12",
      "l1Fee": "0x146dab426",
      "l1GasPrice": "0x5a0857a5",
      "l1GasUsed": "0x640"
    },
    {
      "status": "0x1",
      "cumulativeGasUsed": "0x416f392",
      "logs": [
        {
          "address": "0x4df3dd62db219c47f6a7cb1be02c511afceadf5e",
          "topics": [
            "0x4059c608a8f17b9b24a5a29662eb74934d39ea92ae22411868f07fcac29487a0",
            "0x000000000000000000000000281567fe62b587ec1755f6f33b80160f544dc5d0"
          ],
          "data": "0x0000000000000000000000000000000000000000000000000000000000000001",
          "blockHash": "0xa2b8beced0130fdc1eb0ad6382ef8e52c3aead7e75bc6ee92df6a3a7b64370c9",
          "blockNumber": "0x1cd1277",
          "blockTimestamp": "0x682481d1",
          "transactionHash": "0xc811cbfc884927f44864cfa9e3bdd408af9760253c2904700c7a9aa0d92f1a08",
          "transactionIndex": "0x109",
          "logIndex": "0x384",
          "removed": false
        }
      ],
      "logsBloom": "0x00200000000000000000000000000000000000000000000000000000000000000000000000000000000000020000000000000000000000000000000000000000000000000000000000000000000000000000000000000000000000000002000000000000000000000000000000000004000000000000000000000000000000000000000000000000000000000000000000000000800000000000000000000000000000000040000000000000010000000000000000000000000000000000000000000000000000000000000000000000000000000000000000000000000000000000000000008000000000000000000000000000000000000000002000000000",
      "type": "0x2",
      "transactionHash": "0xc811cbfc884927f44864cfa9e3bdd408af9760253c2904700c7a9aa0d92f1a08",
      "transactionIndex": "0x109",
      "blockHash": "0xa2b8beced0130fdc1eb0ad6382ef8e52c3aead7e75bc6ee92df6a3a7b64370c9",
      "blockNumber": "0x1cd1277",
      "gasUsed": "0xce5f",
      "effectiveGasPrice": "0x11dda2",
      "from": "0xb819a871d20913839c37f316dc914b0570bfc0ee",
      "to": "0x4df3dd62db219c47f6a7cb1be02c511afceadf5e",
      "contractAddress": null,
      "l1BaseFeeScalar": "0x8dd",
      "l1BlobBaseFee": "0x1",
      "l1BlobBaseFeeScalar": "0x101c12",
      "l1Fee": "0x1534b8d4f",
      "l1GasPrice": "0x5d759d47",
      "l1GasUsed": "0x640"
    },
    {
      "status": "0x1",
      "cumulativeGasUsed": "0x5aa7b29",
      "logs": [
        {
          "address": "0x4df3dd62db219c47f6a7cb1be02c511afceadf5e",
          "topics": [
            "0x4059c608a8f17b9b24a5a29662eb74934d39ea92ae22411868f07fcac29487a0",
            "0x0000000000000000000000002705f6a8f01bd4a805d9fc73151dbe37bb8d1ede"
          ],
          "data": "0x0000000000000000000000000000000000000000000000000000000000000001",
          "blockHash": "0xc46fd709f514d4df90e7f7df4d6492d006be1516b44ff762b2953d78234112fe",
          "blockNumber": "0x1cd1279",
          "blockTimestamp": "0x682481d5",
          "transactionHash": "0xc91ebea54b104939cccbbddaf937d3e4143b02d4bf4ac5667196dfe1023b33b4",
          "transactionIndex": "0xfe",
          "logIndex": "0x364",
          "removed": false
        }
      ],
      "logsBloom": "0x00000000000000000000000000000000000000000000000000000000000040000000000000000000000000020000000000000000000000000000000000000000000000000000000000000000000000000000000000000040000000000000000000000000000000000000000000000004000000000000000000000040000000000000000000000000000000000000000000000000000000000000000000000000000000000040000000000000010000000000000000000000000000000000000000000000000000000000000000000000000000000000000000000000000000000000000000008000000000000000000000000000000000000000002000000000",
      "type": "0x2",
      "transactionHash": "0xc91ebea54b104939cccbbddaf937d3e4143b02d4bf4ac5667196dfe1023b33b4",
      "transactionIndex": "0xfe",
      "blockHash": "0xc46fd709f514d4df90e7f7df4d6492d006be1516b44ff762b2953d78234112fe",
      "blockNumber": "0x1cd1279",
      "gasUsed": "0xce5f",
      "effectiveGasPrice": "0x11dc7f",
      "from": "0xb819a871d20913839c37f316dc914b0570bfc0ee",
      "to": "0x4df3dd62db219c47f6a7cb1be02c511afceadf5e",
      "contractAddress": null,
      "l1BaseFeeScalar": "0x8dd",
      "l1BlobBaseFee": "0x1",
      "l1BlobBaseFeeScalar": "0x101c12",
      "l1Fee": "0x1534b8d4f",
      "l1GasPrice": "0x5d759d47",
      "l1GasUsed": "0x640"
    },
    {
      "status": "0x1",
      "cumulativeGasUsed": "0x1d95883",
      "logs": [
        {
          "address": "0x4df3dd62db219c47f6a7cb1be02c511afceadf5e",
          "topics": [
            "0x4059c608a8f17b9b24a5a29662eb74934d39ea92ae22411868f07fcac29487a0",
            "0x000000000000000000000000c9c9693b6a445d05add0043662fad9ac600ad088"
          ],
          "data": "0x0000000000000000000000000000000000000000000000000000000000000001",
          "blockHash": "0xf7b811bc1ba318e804cf17fac424b3366c948b182b911e1d77d143cfd3d9f3c2",
          "blockNumber": "0x1cd127b",
          "blockTimestamp": "0x682481d9",
          "transactionHash": "0x6fadb1b4a338aa63706f1d9c33b842adf714d00c032ad8046ce13905a45bca9d",
          "transactionIndex": "0x5b",
          "logIndex": "0x103",
          "removed": false
        }
      ],
      "logsBloom": "0x00000000000000000000000000000000000000000000000000000000000000000000000010000000000000020000000000000000000000000000000000000000000000000000000000000000000000000000000000000000000000000000000000000000000000000000000000000004000000000000000000000000000000000000000000000000000000000000000000000000000000000000000000000000000000001040000000000000010000000000000000000000000000000000000000000001000000000000000000000000000000000000000000000000000000000000000000008000000000000000000000000000000000000000002000000000",
      "type": "0x2",
      "transactionHash": "0x6fadb1b4a338aa63706f1d9c33b842adf714d00c032ad8046ce13905a45bca9d",
      "transactionIndex": "0x5b",
      "blockHash": "0xf7b811bc1ba318e804cf17fac424b3366c948b182b911e1d77d143cfd3d9f3c2",
      "blockNumber": "0x1cd127b",
      "gasUsed": "0xce5f",
      "effectiveGasPrice": "0x11e8ba",
      "from": "0xb819a871d20913839c37f316dc914b0570bfc0ee",
      "to": "0x4df3dd62db219c47f6a7cb1be02c511afceadf5e",
      "contractAddress": null,
      "l1BaseFeeScalar": "0x8dd",
      "l1BlobBaseFee": "0x1",
      "l1BlobBaseFeeScalar": "0x101c12",
      "l1Fee": "0x1534b8d4f",
      "l1GasPrice": "0x5d759d47",
      "l1GasUsed": "0x640"
    },
    {
      "status": "0x1",
      "cumulativeGasUsed": "0x46e572d",
      "logs": [
        {
          "address": "0x4df3dd62db219c47f6a7cb1be02c511afceadf5e",
          "topics": [
            "0x4059c608a8f17b9b24a5a29662eb74934d39ea92ae22411868f07fcac29487a0",
            "0x0000000000000000000000007efe40b2e6da8b28aab6bd2d622b9cd7f5fe077c"
          ],
          "data": "0x0000000000000000000000000000000000000000000000000000000000000001",
          "blockHash": "0xb0dd523898b032fabc9193935715aeae64648730f8baa51df669d5932decfe82",
          "blockNumber": "0x1cd127d",
          "blockTimestamp": "0x682481dd",
          "transactionHash": "0x22a77a3b624c35ae69ae80c0443c8e92b375e11d59dc0f57fb985fff025709b0",
          "transactionIndex": "0xe5",
          "logIndex": "0x319",
          "removed": false
        }
      ],
      "logsBloom": "0x00000000000000000000000000000000000000000000000000000000000000000000000000000000000000020000000000000000000000000000000000000000000000000000000000080000000000000000000000000000000000000000000000000000000000000000000000000004000000000000000000000000000000000000000200000000000000000000000000000000000000000000000000000000000000000040000000000000010000000000000000000000000000000000000000000000000000000000000000000000000000800000000000000000000000000000000000008000000000000000000000000000000000000000002000000000",
      "type": "0x2",
      "transactionHash": "0x22a77a3b624c35ae69ae80c0443c8e92b375e11d59dc0f57fb985fff025709b0",
      "transactionIndex": "0xe5",
      "blockHash": "0xb0dd523898b032fabc9193935715aeae64648730f8baa51df669d5932decfe82",
      "blockNumber": "0x1cd127d",
      "gasUsed": "0xce5f",
      "effectiveGasPrice": "0x11f629",
      "from": "0xb819a871d20913839c37f316dc914b0570bfc0ee",
      "to": "0x4df3dd62db219c47f6a7cb1be02c511afceadf5e",
      "contractAddress": null,
      "l1BaseFeeScalar": "0x8dd",
      "l1BlobBaseFee": "0x1",
      "l1BlobBaseFeeScalar": "0x101c12",
      "l1Fee": "0x14101ff48",
      "l1GasPrice": "0x586c126b",
      "l1GasUsed": "0x640"
    },
    {
      "status": "0x1",
      "cumulativeGasUsed": "0x3da1320",
      "logs": [
        {
          "address": "0x4df3dd62db219c47f6a7cb1be02c511afceadf5e",
          "topics": [
            "0x4059c608a8f17b9b24a5a29662eb74934d39ea92ae22411868f07fcac29487a0",
            "0x000000000000000000000000a22dcb8f0a2848289124086f35ae9db2a0006962"
          ],
          "data": "0x0000000000000000000000000000000000000000000000000000000000000001",
          "blockHash": "0x2c13ed90cd4d4b96cd8cb13200b42cc1c30868553cf56a512c4b9a7f412d795b",
          "blockNumber": "0x1cd127f",
          "blockTimestamp": "0x682481e1",
          "transactionHash": "0xf653e35ab8025b086732c56aca49e30e2218df729d7f0f72a91ef33cd0802d2b",
          "transactionIndex": "0xe1",
          "logIndex": "0x4d8",
          "removed": false
        }
      ],
      "logsBloom": "0x00000000000000000100000000000000000000000000000000000000000000000000000000000000000000020000000000000000000000000000000000000000000000100000000000000000000000000000000000000000000000000000000000000000000000000000000000000004000000000000000000000000000000000000000000000000000000000000000000000000000000200000000000000000000000000040000000000000010000000000000000000000000000000000000000000000000000000000000000000000000000000000000000000000000000000000000000008000000000000000000000000000000000000000002000000000",
      "type": "0x2",
      "transactionHash": "0xf653e35ab8025b086732c56aca49e30e2218df729d7f0f72a91ef33cd0802d2b",
      "transactionIndex": "0xe1",
      "blockHash": "0x2c13ed90cd4d4b96cd8cb13200b42cc1c30868553cf56a512c4b9a7f412d795b",
      "blockNumber": "0x1cd127f",
      "gasUsed": "0xce53",
      "effectiveGasPrice": "0x11fbd3",
      "from": "0xb819a871d20913839c37f316dc914b0570bfc0ee",
      "to": "0x4df3dd62db219c47f6a7cb1be02c511afceadf5e",
      "contractAddress": null,
      "l1BaseFeeScalar": "0x8dd",
      "l1BlobBaseFee": "0x1",
      "l1BlobBaseFeeScalar": "0x101c12",
      "l1Fee": "0x14101ff48",
      "l1GasPrice": "0x586c126b",
      "l1GasUsed": "0x640"
    },
    {
      "status": "0x1",
      "cumulativeGasUsed": "0x3cb9d3c",
      "logs": [
        {
          "address": "0x4df3dd62db219c47f6a7cb1be02c511afceadf5e",
          "topics": [
            "0x4059c608a8f17b9b24a5a29662eb74934d39ea92ae22411868f07fcac29487a0",
            "0x000000000000000000000000b819a871d20913839c37f316dc914b0570bfc0ee"
          ],
          "data": "0x0000000000000000000000000000000000000000000000000000000000000001",
          "blockHash": "0x6105e5eab503195640ed8c40c216b936106b76793c8242cb2405575b82dd7eb3",
          "blockNumber": "0x1cd1281",
          "blockTimestamp": "0x682481e5",
          "transactionHash": "0x7c4c0a1258734c8ac00dc806906a1b0b4b3e262dcd90fed4784d1b99a28279ed",
          "transactionIndex": "0xc0",
          "logIndex": "0xf2a",
          "removed": false
        }
      ],
      "logsBloom": "0x00000000000000000000000000000000000000000000000000000000000000000000000000000000000000020000000000000000000000000000000000000002000000000080000000000000000000000000000000000000000000000000000000000000000000000000000000000004000000000000000000000000000000000000000000000000000000000000000000000000000000000000000000000000000000000040000000000000010000000000000000000000000000000000000000000000000000000000000000000000000000000000000000000200000000000000000000008000000000000000000000000000000000000000002000000000",
      "type": "0x2",
      "transactionHash": "0x7c4c0a1258734c8ac00dc806906a1b0b4b3e262dcd90fed4784d1b99a28279ed",
      "transactionIndex": "0xc0",
      "blockHash": "0x6105e5eab503195640ed8c40c216b936106b76793c8242cb2405575b82dd7eb3",
      "blockNumber": "0x1cd1281",
      "gasUsed": "0xce5f",
      "effectiveGasPrice": "0x1202b8",
      "from": "0xb819a871d20913839c37f316dc914b0570bfc0ee",
      "to": "0x4df3dd62db219c47f6a7cb1be02c511afceadf5e",
      "contractAddress": null,
      "l1BaseFeeScalar": "0x8dd",
      "l1BlobBaseFee": "0x1",
      "l1BlobBaseFeeScalar": "0x101c12",
      "l1Fee": "0x14101ff48",
      "l1GasPrice": "0x586c126b",
      "l1GasUsed": "0x640"
    },
    {
      "status": "0x1",
      "cumulativeGasUsed": "0x2c86cdb",
      "logs": [
        {
          "address": "0x4df3dd62db219c47f6a7cb1be02c511afceadf5e",
          "topics": [
            "0x4059c608a8f17b9b24a5a29662eb74934d39ea92ae22411868f07fcac29487a0",
            "0x00000000000000000000000040282d3cf4890d9806bc1853e97a59c93d813653"
          ],
          "data": "0x0000000000000000000000000000000000000000000000000000000000000001",
          "blockHash": "0x8bb11a62abcee23517bd3703b681847dd184d0957eb15a1b301e360f9cf20cba",
          "blockNumber": "0x1cd1283",
          "blockTimestamp": "0x682481e9",
          "transactionHash": "0x8881ef90ecacc1506213354002caa3e9b0ef7a1d1f2b255c9a25284d41bc0848",
          "transactionIndex": "0xa8",
          "logIndex": "0x323",
          "removed": false
        }
      ],
      "logsBloom": "0x00000000000000000000000000000000000000000000000000000000000000000000004000000000000000020000000000000000000000000000000000000000000000000000000000000000000000000000000000000000000000000000000000000000000000000000000000000004000000000000000000000000000000000000000040000000000000000000000000000000000200000000000000000000000000000040000000000000010000000000000000000000000000000000000000000000000000000000000000000000000000000000000000000000000000000000000000008000000000000000000000000000000000000000002000000000",
      "type": "0x2",
      "transactionHash": "0x8881ef90ecacc1506213354002caa3e9b0ef7a1d1f2b255c9a25284d41bc0848",
      "transactionIndex": "0xa8",
      "blockHash": "0x8bb11a62abcee23517bd3703b681847dd184d0957eb15a1b301e360f9cf20cba",
      "blockNumber": "0x1cd1283",
      "gasUsed": "0xce5f",
      "effectiveGasPrice": "0x1204ba",
      "from": "0xb819a871d20913839c37f316dc914b0570bfc0ee",
      "to": "0x4df3dd62db219c47f6a7cb1be02c511afceadf5e",
      "contractAddress": null,
      "l1BaseFeeScalar": "0x8dd",
      "l1BlobBaseFee": "0x1",
      "l1BlobBaseFeeScalar": "0x101c12",
      "l1Fee": "0x12cf54cf1",
      "l1GasPrice": "0x52e64300",
      "l1GasUsed": "0x640"
    },
    {
      "status": "0x1",
      "cumulativeGasUsed": "0x263f770",
      "logs": [
        {
          "address": "0x4df3dd62db219c47f6a7cb1be02c511afceadf5e",
          "topics": [
            "0x4059c608a8f17b9b24a5a29662eb74934d39ea92ae22411868f07fcac29487a0",
            "0x000000000000000000000000b5b901f1bb86421301138b5c45c1d3fe96663161"
          ],
          "data": "0x0000000000000000000000000000000000000000000000000000000000000001",
          "blockHash": "0x97c46d5f7d9a472596d3de0e0f44c004363effcd56efef1f73807fdefd87a009",
          "blockNumber": "0x1cd1285",
          "blockTimestamp": "0x682481ed",
          "transactionHash": "0x621ba8e0bbadb749dc07797f38a21c6fede6bc7cf1d7cdaceede4e71d3826cb2",
          "transactionIndex": "0x91",
          "logIndex": "0x22a",
          "removed": false
        }
      ],
      "logsBloom": "0x00000000000000000000000000000000000000000000000000000000000000004000000000000000000000020000000000000000000000000000000000000000000000000000000000000000000000000000000000800000000000000000000000000000000000000000000000000004000000000000000000000000000000000000000000000000000000000000000000000000000000000000000000000000000000000040010000000000010000000000000000000000000000000000000000000000000000000000000000000000000000000000000000000000000000000000000000008000000000000000000000000000000000000000002000000000",
      "type": "0x2",
      "transactionHash": "0x621ba8e0bbadb749dc07797f38a21c6fede6bc7cf1d7cdaceede4e71d3826cb2",
      "transactionIndex": "0x91",
      "blockHash": "0x97c46d5f7d9a472596d3de0e0f44c004363effcd56efef1f73807fdefd87a009",
      "blockNumber": "0x1cd1285",
      "gasUsed": "0xce5f",
      "effectiveGasPrice": "0x1208d5",
      "from": "0xb819a871d20913839c37f316dc914b0570bfc0ee",
      "to": "0x4df3dd62db219c47f6a7cb1be02c511afceadf5e",
      "contractAddress": null,
      "l1BaseFeeScalar": "0x8dd",
      "l1BlobBaseFee": "0x1",
      "l1BlobBaseFeeScalar": "0x101c12",
      "l1Fee": "0x12cf54cf1",
      "l1GasPrice": "0x52e64300",
      "l1GasUsed": "0x640"
    },
    {
      "status": "0x1",
      "cumulativeGasUsed": "0x298cd9d",
      "logs": [
        {
          "address": "0x4df3dd62db219c47f6a7cb1be02c511afceadf5e",
          "topics": [
            "0x4059c608a8f17b9b24a5a29662eb74934d39ea92ae22411868f07fcac29487a0",
            "0x000000000000000000000000baec8904499dcdee770c60df15b0c37eac84fb62"
          ],
          "data": "0x0000000000000000000000000000000000000000000000000000000000000001",
          "blockHash": "0x5d672705aacbe96e1e7f6045bde1aeb58e4ff46895bd864257a18be0d9ecb341",
          "blockNumber": "0x1cd1287",
          "blockTimestamp": "0x682481f1",
          "transactionHash": "0x856bdf3eb0f88fb1f7d4fb72aa09e12eb5feb2bb1f36cca6c682fc7ca20f1101",
          "transactionIndex": "0x87",
          "logIndex": "0x2e3",
          "removed": false
        }
      ],
      "logsBloom": "0x00000000000000000000000000000000000000000000000000000000000000000000000000000000000000020000000000000000000000000000000000000000000000000000800000000000000080000000000000000000000000000000000000000000000000000000000000000004000000000000000000000000000000000000000000000000000000000000000000000000000000000000000000000000000000000040000000000000010000000000000000000000000000000000000000000000000000000000000000000000008000000000000000000000000000000000000000008000000000000000000000000000000000000000002000000000",
      "type": "0x2",
      "transactionHash": "0x856bdf3eb0f88fb1f7d4fb72aa09e12eb5feb2bb1f36cca6c682fc7ca20f1101",
      "transactionIndex": "0x87",
      "blockHash": "0x5d672705aacbe96e1e7f6045bde1aeb58e4ff46895bd864257a18be0d9ecb341",
      "blockNumber": "0x1cd1287",
      "gasUsed": "0xce5f",
      "effectiveGasPrice": "0x120444",
      "from": "0xb819a871d20913839c37f316dc914b0570bfc0ee",
      "to": "0x4df3dd62db219c47f6a7cb1be02c511afceadf5e",
      "contractAddress": null,
      "l1BaseFeeScalar": "0x8dd",
      "l1BlobBaseFee": "0x1",
      "l1BlobBaseFeeScalar": "0x101c12",
      "l1Fee": "0x12cf54cf1",
      "l1GasPrice": "0x52e64300",
      "l1GasUsed": "0x640"
    },
    {
      "status": "0x1",
      "cumulativeGasUsed": "0x271eb5c",
      "logs": [
        {
          "address": "0x4df3dd62db219c47f6a7cb1be02c511afceadf5e",
          "topics": [
            "0x4059c608a8f17b9b24a5a29662eb74934d39ea92ae22411868f07fcac29487a0",
            "0x000000000000000000000000fc4a23271b60887fc246b060b6931a08e2bc434c"
          ],
          "data": "0x0000000000000000000000000000000000000000000000000000000000000001",
          "blockHash": "0x043ef18436b889890a7adef1f4b168b6d7d723439d0cba87d059d1b002c2c832",
          "blockNumber": "0x1cd1289",
          "blockTimestamp": "0x682481f5",
          "transactionHash": "0x076d3c8902237d19882f4b5abd44d9fbcf97f42f08b5b094b4e7593e281f04bc",
          "transactionIndex": "0x9b",
          "logIndex": "0x1d0",
          "removed": false
        }
      ],
      "logsBloom": "0x00000200000000000000000000000000000000000000000000000000000000000000000000000000000000020000000000000000000000000000000000000000000000000000020000000000000000000000000000000000000000004000000000000000000000000000000000000004000000000000000000000000000000000000000000000000000000000000000000000000000000000000000000000000000000000040000000000000010000000000000000000000000000000000000000000000000000000000000000000000000000000000000000000000000000000000000000008000000000000000000000000000000000000000002000000000",
      "type": "0x2",
      "transactionHash": "0x076d3c8902237d19882f4b5abd44d9fbcf97f42f08b5b094b4e7593e281f04bc",
      "transactionIndex": "0x9b",
      "blockHash": "0x043ef18436b889890a7adef1f4b168b6d7d723439d0cba87d059d1b002c2c832",
      "blockNumber": "0x1cd1289",
      "gasUsed": "0xce5f",
      "effectiveGasPrice": "0x1202ad",
      "from": "0xb819a871d20913839c37f316dc914b0570bfc0ee",
      "to": "0x4df3dd62db219c47f6a7cb1be02c511afceadf5e",
      "contractAddress": null,
      "l1BaseFeeScalar": "0x8dd",
      "l1BlobBaseFee": "0x1",
      "l1BlobBaseFeeScalar": "0x101c12",
      "l1Fee": "0x1512a3885",
      "l1GasPrice": "0x5cdf66e5",
      "l1GasUsed": "0x640"
    },
    {
      "status": "0x1",
      "cumulativeGasUsed": "0x3895be5",
      "logs": [
        {
          "address": "0x4df3dd62db219c47f6a7cb1be02c511afceadf5e",
          "topics": [
            "0x4059c608a8f17b9b24a5a29662eb74934d39ea92ae22411868f07fcac29487a0",
            "0x00000000000000000000000065b142550ae82f4bb3792e1eefb2fc35541a3837"
          ],
          "data": "0x0000000000000000000000000000000000000000000000000000000000000001",
          "blockHash": "0x53eea0b03c33d2f64afa3ef86814e0ee07a9787c1e6ab48cde7af8b22a15e954",
          "blockNumber": "0x1cd128b",
          "blockTimestamp": "0x682481f9",
          "transactionHash": "0xe0846a4c65af770445ced65ec7eed7ec1b3069aea42d06881ba06b7cc280a9b8",
          "transactionIndex": "0xe4",
          "logIndex": "0x421",
          "removed": false
        }
      ],
      "logsBloom": "0x00000000000000000000000000000000000000000000000000000000000000000000000000000000000000020000000000000000000000000000000000000000000000000000000000000000000000000000000000000000000000000000000000000000000000000000000000000004000000000000000000000000000000000000000000000000000000000000000000000000000000000000000000000000000040000040000000000000010000080000000000000000000000000000000000000000000000000000000000000000000000000000000000000000008000000000000000008000000000000000000000000000000000000000002000000000",
      "type": "0x2",
      "transactionHash": "0xe0846a4c65af770445ced65ec7eed7ec1b3069aea42d06881ba06b7cc280a9b8",
      "transactionIndex": "0xe4",
      "blockHash": "0x53eea0b03c33d2f64afa3ef86814e0ee07a9787c1e6ab48cde7af8b22a15e954",
      "blockNumber": "0x1cd128b",
      "gasUsed": "0xce5f",
      "effectiveGasPrice": "0x11f6f9",
      "from": "0xb819a871d20913839c37f316dc914b0570bfc0ee",
      "to": "0x4df3dd62db219c47f6a7cb1be02c511afceadf5e",
      "contractAddress": null,
      "l1BaseFeeScalar": "0x8dd",
      "l1BlobBaseFee": "0x1",
      "l1BlobBaseFeeScalar": "0x101c12",
      "l1Fee": "0x1512a3885",
      "l1GasPrice": "0x5cdf66e5",
      "l1GasUsed": "0x640"
    },
    {
      "status": "0x1",
      "cumulativeGasUsed": "0x2abf14c",
      "logs": [
        {
          "address": "0x4df3dd62db219c47f6a7cb1be02c511afceadf5e",
          "topics": [
            "0x4059c608a8f17b9b24a5a29662eb74934d39ea92ae22411868f07fcac29487a0",
            "0x00000000000000000000000075149feebb20e1fe5ddb89302a6d4bace70c14ce"
          ],
          "data": "0x0000000000000000000000000000000000000000000000000000000000000001",
          "blockHash": "0x8747ed5c0400d9192779b01e92f667fe51aec3b2478195eb845d1a4365eb55e0",
          "blockNumber": "0x1cd128d",
          "blockTimestamp": "0x682481fd",
          "transactionHash": "0x77479a6c8a8ded1aec692e99d89534a0d04274f3cb3dbdc0983258b567f64b1f",
          "transactionIndex": "0xb4",
          "logIndex": "0x23c",
          "removed": false
        }
      ],
      "logsBloom": "0x00000000000000200000000000000000000000000000000000000000000000000000000000000000040000020000000000000000000000000000000000000000000000000000000000000000000000000000000000000000000000000000000000000000000000000000000000000004000000000000000000000000000000000000000000000000000000000000000000000000000000000000000000000000000000000040000000000000010010000000000000000000000000000000000000000000000000000000000000000000000000000000000000000000000000000000000000008000000000000000000000000000000000000000002000000000",
      "type": "0x2",
      "transactionHash": "0x77479a6c8a8ded1aec692e99d89534a0d04274f3cb3dbdc0983258b567f64b1f",
      "transactionIndex": "0xb4",
      "blockHash": "0x8747ed5c0400d9192779b01e92f667fe51aec3b2478195eb845d1a4365eb55e0",
      "blockNumber": "0x1cd128d",
      "gasUsed": "0xce5f",
      "effectiveGasPrice": "0x11fa30",
      "from": "0xb819a871d20913839c37f316dc914b0570bfc0ee",
      "to": "0x4df3dd62db219c47f6a7cb1be02c511afceadf5e",
      "contractAddress": null,
      "l1BaseFeeScalar": "0x8dd",
      "l1BlobBaseFee": "0x1",
      "l1BlobBaseFeeScalar": "0x101c12",
      "l1Fee": "0x1512a3885",
      "l1GasPrice": "0x5cdf66e5",
      "l1GasUsed": "0x640"
    },
    {
      "status": "0x1",
      "cumulativeGasUsed": "0x21944b4",
      "logs": [
        {
          "address": "0x4df3dd62db219c47f6a7cb1be02c511afceadf5e",
          "topics": [
            "0x4059c608a8f17b9b24a5a29662eb74934d39ea92ae22411868f07fcac29487a0",
            "0x00000000000000000000000065b6d4770dadcfba6d363de86aa4d9c76283cea0"
          ],
          "data": "0x0000000000000000000000000000000000000000000000000000000000000001",
          "blockHash": "0x0b0ebfaa6a97606b85f0bb78e79a28594661dddb37cf6e4d3ec637d72362d213",
          "blockNumber": "0x1cd128f",
          "blockTimestamp": "0x68248201",
          "transactionHash": "0x10fa84191ff4f9c9b2e03361e8b5f678992ded28bda4452802f08a56d93df795",
          "transactionIndex": "0xa1",
          "logIndex": "0x251",
          "removed": false
        }
      ],
      "logsBloom": "0x00000000800000000000000000000000000000000000000000000000000000000000000000000000000002020000000000000000000000000000000000000000000000000000000000000000000000000000000000000000000000000000000000000000000000000000000000000004000000000000000000000000000000000000000000000000000000000000000000000000000000000000000000000000000000000040000000000000010000000000000000000000000000000000000000000000000000000000000000000000002000000000000000000000000000000000000000008000000000000000000000000000000000000000002000000000",
      "type": "0x2",
      "transactionHash": "0x10fa84191ff4f9c9b2e03361e8b5f678992ded28bda4452802f08a56d93df795",
      "transactionIndex": "0xa1",
      "blockHash": "0x0b0ebfaa6a97606b85f0bb78e79a28594661dddb37cf6e4d3ec637d72362d213",
      "blockNumber": "0x1cd128f",
      "gasUsed": "0xce5f",
      "effectiveGasPrice": "0x11f57d",
      "from": "0xb819a871d20913839c37f316dc914b0570bfc0ee",
      "to": "0x4df3dd62db219c47f6a7cb1be02c511afceadf5e",
      "contractAddress": null,
      "l1BaseFeeScalar": "0x8dd",
      "l1BlobBaseFee": "0x1",
      "l1BlobBaseFeeScalar": "0x101c12",
      "l1Fee": "0x17143183c",
      "l1GasPrice": "0x65b6c110",
      "l1GasUsed": "0x640"
    },
    {
      "status": "0x1",
      "cumulativeGasUsed": "0x34d0eb3",
      "logs": [
        {
          "address": "0x4df3dd62db219c47f6a7cb1be02c511afceadf5e",
          "topics": [
            "0x4059c608a8f17b9b24a5a29662eb74934d39ea92ae22411868f07fcac29487a0",
            "0x000000000000000000000000a6a9fddc94bb4fe7520a2ea1cc2c433e18683342"
          ],
          "data": "0x0000000000000000000000000000000000000000000000000000000000000001",
          "blockHash": "0x0eb31bccc36944a91c7d1797fbd1d252862d8c1455070e2b3567c8d8b375a277",
          "blockNumber": "0x1cd1291",
          "blockTimestamp": "0x68248205",
          "transactionHash": "0x0acab86fa85c872d1c373a52104e73b28b99a7e621a1c633c5459ab8f8bb1b1e",
          "transactionIndex": "0xd4",
          "logIndex": "0x33d",
          "removed": false
        }
      ],
      "logsBloom": "0x00000000000040000000000000000000000000000000000000000000000000000000000000000000000000020000000000000000000000000000000000000000000000000000000000000000000000400000000000000000000000000000000000000000000000000000000000000004000000000000000000000000000000000000000000000000000000000000000000000000000000000000000000000000000000000040000002000000010000000000000000000000000000000000000000000000000000000000000000000000000000000000000000000000000000000000000000008000000000000000000000000000000000000000002000000000",
      "type": "0x2",
      "transactionHash": "0x0acab86fa85c872d1c373a52104e73b28b99a7e621a1c633c5459ab8f8bb1b1e",
      "transactionIndex": "0xd4",
      "blockHash": "0x0eb31bccc36944a91c7d1797fbd1d252862d8c1455070e2b3567c8d8b375a277",
      "blockNumber": "0x1cd1291",
      "gasUsed": "0xce5f",
      "effectiveGasPrice": "0x11ea40",
      "from": "0xb819a871d20913839c37f316dc914b0570bfc0ee",
      "to": "0x4df3dd62db219c47f6a7cb1be02c511afceadf5e",
      "contractAddress": null,
      "l1BaseFeeScalar": "0x8dd",
      "l1BlobBaseFee": "0x1",
      "l1BlobBaseFeeScalar": "0x101c12",
      "l1Fee": "0x17143183c",
      "l1GasPrice": "0x65b6c110",
      "l1GasUsed": "0x640"
    },
    {
      "status": "0x1",
      "cumulativeGasUsed": "0x308c1f8",
      "logs": [
        {
          "address": "0x4df3dd62db219c47f6a7cb1be02c511afceadf5e",
          "topics": [
            "0x4059c608a8f17b9b24a5a29662eb74934d39ea92ae22411868f07fcac29487a0",
            "0x00000000000000000000000018d04f05f80ade5373849385a1c24e1e0a6d1744"
          ],
          "data": "0x0000000000000000000000000000000000000000000000000000000000000001",
          "blockHash": "0x2494f31e91971c8329696a8910eb6e19d7b852e9a44c2b3fcaef238e10bfe4ff",
          "blockNumber": "0x1cd1294",
          "blockTimestamp": "0x6824820b",
          "transactionHash": "0x1205fe40b0c8950a5936557043eca8b604f3e7892359878ad44d5412c6bb28a9",
          "transactionIndex": "0xe9",
          "logIndex": "0x3f9",
          "removed": false
        }
      ],
      "logsBloom": "0x00000000000000000000000000000000000000000000000000000000000000000000000000000000000000020000000000000000000000000000000000000000000000000000000000000000000100000000000000000000000000000000000000000000000000000000000000000004000000000000000000000000000000000000000000000000000000000000000000000000000000000000000000000000000000000040000000000000010000000000000000000000000000000000000000000000000100000000000000000000000000000000000000000000000000000000000000008000000000000004000000000000000000000000002000000000",
      "type": "0x2",
      "transactionHash": "0x1205fe40b0c8950a5936557043eca8b604f3e7892359878ad44d5412c6bb28a9",
      "transactionIndex": "0xe9",
      "blockHash": "0x2494f31e91971c8329696a8910eb6e19d7b852e9a44c2b3fcaef238e10bfe4ff",
      "blockNumber": "0x1cd1294",
      "gasUsed": "0xce5f",
      "effectiveGasPrice": "0x11f52e",
      "from": "0xb819a871d20913839c37f316dc914b0570bfc0ee",
      "to": "0x4df3dd62db219c47f6a7cb1be02c511afceadf5e",
      "contractAddress": null,
      "l1BaseFeeScalar": "0x8dd",
      "l1BlobBaseFee": "0x1",
      "l1BlobBaseFeeScalar": "0x101c12",
      "l1Fee": "0x17143183c",
      "l1GasPrice": "0x65b6c110",
      "l1GasUsed": "0x640"
    },
    {
      "status": "0x1",
      "cumulativeGasUsed": "0x25ff15b",
      "logs": [
        {
          "address": "0x4df3dd62db219c47f6a7cb1be02c511afceadf5e",
          "topics": [
            "0x4059c608a8f17b9b24a5a29662eb74934d39ea92ae22411868f07fcac29487a0",
            "0x000000000000000000000000bd9c90d6774cb5320b54bb7998b6bcc5e4a9071f"
          ],
          "data": "0x0000000000000000000000000000000000000000000000000000000000000001",
          "blockHash": "0xa3d3670eb6af7fea6224811e7f6f5739aee8d9382bb1813dad8214094f98c909",
          "blockNumber": "0x1cd1296",
          "blockTimestamp": "0x6824820f",
          "transactionHash": "0x3869acfa338e949e883061a990c2626c45560232bd305adca52931a5ba93c13c",
          "transactionIndex": "0x97",
          "logIndex": "0x19a",
          "removed": false
        }
      ],
      "logsBloom": "0x00000000000000000000000000000000000000000000000000000000000000000000000000002000000000020000000000000000000040000000000000000000000000000000000000000000000000000000000000000000000000000000000000000000000000000000000000000004000000000000000000000000000000000000000000000000000000000000000000000000000000000000000000000000000000000040000000000000010000000000000000800000000000000000000000000000000000000000000000000000000000000000000000000000000000000000000000008000000000000000000000000000000000000000002000000000",
      "type": "0x2",
      "transactionHash": "0x3869acfa338e949e883061a990c2626c45560232bd305adca52931a5ba93c13c",
      "transactionIndex": "0x97",
      "blockHash": "0xa3d3670eb6af7fea6224811e7f6f5739aee8d9382bb1813dad8214094f98c909",
      "blockNumber": "0x1cd1296",
      "gasUsed": "0xce5f",
      "effectiveGasPrice": "0x11f48e",
      "from": "0xb819a871d20913839c37f316dc914b0570bfc0ee",
      "to": "0x4df3dd62db219c47f6a7cb1be02c511afceadf5e",
      "contractAddress": null,
      "l1BaseFeeScalar": "0x8dd",
      "l1BlobBaseFee": "0x1",
      "l1BlobBaseFeeScalar": "0x101c12",
      "l1Fee": "0x17556bb8e",
      "l1GasPrice": "0x66d639de",
      "l1GasUsed": "0x640"
    },
    {
      "status": "0x1",
      "cumulativeGasUsed": "0x27a45ba",
      "logs": [
        {
          "address": "0x4df3dd62db219c47f6a7cb1be02c511afceadf5e",
          "topics": [
            "0x4059c608a8f17b9b24a5a29662eb74934d39ea92ae22411868f07fcac29487a0",
            "0x0000000000000000000000008f2eaba31b1b613ca78f2795ba05400f0583c5a4"
          ],
          "data": "0x0000000000000000000000000000000000000000000000000000000000000001",
          "blockHash": "0xb1da60d9c755a0b3ab4bf8ca69d59cfef8b4a6011e842173305921e560f36033",
          "blockNumber": "0x1cd1298",
          "blockTimestamp": "0x68248213",
          "transactionHash": "0x452f98efd6505b48199df024b94169b2b8912924b443e08b43ffcba599f1a29a",
          "transactionIndex": "0xa8",
          "logIndex": "0x40f",
          "removed": false
        }
      ],
      "logsBloom": "0x00000000000000000000000000000000000000000000000000000000000000000000000000000000000000020000000000000000000000000000000000000000000000000000000000000000000000000000000000000000000000000000000000000000000000000000001000000004000000000000000000000000000000000000000000000000000000000000000000000000000000000000000000000000000000000040000000000000010000000000000000000000000000000000000000004000000000000000000000002000000000000000000000000000000000000000000000008000000000000000000000000000000000000000002000000000",
      "type": "0x2",
      "transactionHash": "0x452f98efd6505b48199df024b94169b2b8912924b443e08b43ffcba599f1a29a",
      "transactionIndex": "0xa8",
      "blockHash": "0xb1da60d9c755a0b3ab4bf8ca69d59cfef8b4a6011e842173305921e560f36033",
      "blockNumber": "0x1cd1298",
      "gasUsed": "0xce5f",
      "effectiveGasPrice": "0x11f064",
      "from": "0xb819a871d20913839c37f316dc914b0570bfc0ee",
      "to": "0x4df3dd62db219c47f6a7cb1be02c511afceadf5e",
      "contractAddress": null,
      "l1BaseFeeScalar": "0x8dd",
      "l1BlobBaseFee": "0x1",
      "l1BlobBaseFeeScalar": "0x101c12",
      "l1Fee": "0x17556bb8e",
      "l1GasPrice": "0x66d639de",
      "l1GasUsed": "0x640"
    },
    {
      "status": "0x1",
      "cumulativeGasUsed": "0x26bbe4d",
      "logs": [
        {
          "address": "0x4df3dd62db219c47f6a7cb1be02c511afceadf5e",
          "topics": [
            "0x4059c608a8f17b9b24a5a29662eb74934d39ea92ae22411868f07fcac29487a0",
            "0x0000000000000000000000008f2eaba31b1b613ca78f2795ba05400f0583c5a4"
          ],
          "data": "0x0000000000000000000000000000000000000000000000000000000000000001",
          "blockHash": "0xa916e6284eb9302ad75797db6d095395670621f26130242f626b39fd60712bb0",
          "blockNumber": "0x1cd129a",
          "blockTimestamp": "0x68248217",
          "transactionHash": "0x0927facedf845333546404be271b698d01ef1f086d6b595b746236beaeb7f1bc",
          "transactionIndex": "0x87",
          "logIndex": "0x2b4",
          "removed": false
        }
      ],
      "logsBloom": "0x00000000000000000000000000000000000000000000000000000000000000000000000000000000000000020000000000000000000000000000000000000000000000000000000000000000000000000000000000000000000000000000000000000000000000000000001000000004000000000000000000000000000000000000000000000000000000000000000000000000000000000000000000000000000000000040000000000000010000000000000000000000000000000000000000004000000000000000000000002000000000000000000000000000000000000000000000008000000000000000000000000000000000000000002000000000",
      "type": "0x2",
      "transactionHash": "0x0927facedf845333546404be271b698d01ef1f086d6b595b746236beaeb7f1bc",
      "transactionIndex": "0x87",
      "blockHash": "0xa916e6284eb9302ad75797db6d095395670621f26130242f626b39fd60712bb0",
      "blockNumber": "0x1cd129a",
      "gasUsed": "0x80a3",
      "effectiveGasPrice": "0x11f6df",
      "from": "0xb819a871d20913839c37f316dc914b0570bfc0ee",
      "to": "0x4df3dd62db219c47f6a7cb1be02c511afceadf5e",
      "contractAddress": null,
      "l1BaseFeeScalar": "0x8dd",
      "l1BlobBaseFee": "0x1",
      "l1BlobBaseFeeScalar": "0x101c12",
      "l1Fee": "0x17556bb8e",
      "l1GasPrice": "0x66d639de",
      "l1GasUsed": "0x640"
    },
    {
      "status": "0x1",
      "cumulativeGasUsed": "0x233c6b7",
      "logs": [
        {
          "address": "0x4df3dd62db219c47f6a7cb1be02c511afceadf5e",
          "topics": [
            "0x4059c608a8f17b9b24a5a29662eb74934d39ea92ae22411868f07fcac29487a0",
            "0x00000000000000000000000050d8deadd2b3140b151cab2c4fb76f1f59b236f8"
          ],
          "data": "0x0000000000000000000000000000000000000000000000000000000000000001",
          "blockHash": "0x79176f467a520a13c8af49b19614cefcb682e6724f91fe4d333f5f2736a80ab9",
          "blockNumber": "0x1cd129c",
          "blockTimestamp": "0x6824821b",
          "transactionHash": "0xc0979e641c62cecce1965dd115f36a5426750964d04dcf98b6e50d9b51706a17",
          "transactionIndex": "0xb5",
          "logIndex": "0x290",
          "removed": false
        }
      ],
      "logsBloom": "0x00000000000000000000000000000000000000000000200000000000000000000000000000000000000000020000000000000000000000000000000000000000000000000000000000000000000000000000000000000000000000000000000000000000000000000000000000000004000000000000000000000000020000000000000000000000000000000000000000000000000000000000000000000000000000000040000000000000010000000000000000000000000000000000000000000000000000000000000000000000000000000000000000000000000000000000000000808000000000000000000000000000000000000000002000000000",
      "type": "0x2",
      "transactionHash": "0xc0979e641c62cecce1965dd115f36a5426750964d04dcf98b6e50d9b51706a17",
      "transactionIndex": "0xb5",
      "blockHash": "0x79176f467a520a13c8af49b19614cefcb682e6724f91fe4d333f5f2736a80ab9",
      "blockNumber": "0x1cd129c",
      "gasUsed": "0x80a3",
      "effectiveGasPrice": "0x11f3c2",
      "from": "0xb819a871d20913839c37f316dc914b0570bfc0ee",
      "to": "0x4df3dd62db219c47f6a7cb1be02c511afceadf5e",
      "contractAddress": null,
      "l1BaseFeeScalar": "0x8dd",
      "l1BlobBaseFee": "0x1",
      "l1BlobBaseFeeScalar": "0x101c12",
      "l1Fee": "0x1789df0ed",
      "l1GasPrice": "0x67bd6332",
      "l1GasUsed": "0x640"
    },
    {
      "status": "0x1",
      "cumulativeGasUsed": "0x318be0d",
      "logs": [
        {
          "address": "0x4df3dd62db219c47f6a7cb1be02c511afceadf5e",
          "topics": [
            "0x4059c608a8f17b9b24a5a29662eb74934d39ea92ae22411868f07fcac29487a0",
            "0x000000000000000000000000574582c44e3f1ef2cb29a7131b057febbcc8244e"
          ],
          "data": "0x0000000000000000000000000000000000000000000000000000000000000001",
          "blockHash": "0x3a7bb3eb4eb10d3bf2155db7510531f3d8d9f039342f1e40eb46aec27a20f0b8",
          "blockNumber": "0x1cd129e",
          "blockTimestamp": "0x6824821f",
          "transactionHash": "0xd220b016a7e0ed09d97e0917e59a0ec563a77834c5789824ce154c0b25d1767d",
          "transactionIndex": "0xc4",
          "logIndex": "0x2d4",
          "removed": false
        }
      ],
      "logsBloom": "0x00000000000000000000000000000000000000000000000000000000000000000000000000000000000000020000000000000000000000000000000000000000000000000000200000000000000000000000000000000000000000000000000000000000000000000000000000000004000000000000000000000000000000000000000000000000000000100000000000000000000000000000000000000000004000000040000000000000010000000000000000000000000000000000000000000000000000000000000000000000000000000000000000000000000000000000000000008000000000000000000000000000000000000000002000000000",
      "type": "0x2",
      "transactionHash": "0xd220b016a7e0ed09d97e0917e59a0ec563a77834c5789824ce154c0b25d1767d",
      "transactionIndex": "0xc4",
      "blockHash": "0x3a7bb3eb4eb10d3bf2155db7510531f3d8d9f039342f1e40eb46aec27a20f0b8",
      "blockNumber": "0x1cd129e",
      "gasUsed": "0x80a3",
      "effectiveGasPrice": "0x11ea9b",
      "from": "0xb819a871d20913839c37f316dc914b0570bfc0ee",
      "to": "0x4df3dd62db219c47f6a7cb1be02c511afceadf5e",
      "contractAddress": null,
      "l1BaseFeeScalar": "0x8dd",
      "l1BlobBaseFee": "0x1",
      "l1BlobBaseFeeScalar": "0x101c12",
      "l1Fee": "0x1789df0ed",
      "l1GasPrice": "0x67bd6332",
      "l1GasUsed": "0x640"
    },
    {
      "status": "0x1",
      "cumulativeGasUsed": "0x2adc90a",
      "logs": [
        {
          "address": "0x4df3dd62db219c47f6a7cb1be02c511afceadf5e",
          "topics": [
            "0x4059c608a8f17b9b24a5a29662eb74934d39ea92ae22411868f07fcac29487a0",
            "0x000000000000000000000000bd0ce952ba069a1e15f3bf3916d4b07bbbdbc8b3"
          ],
          "data": "0x0000000000000000000000000000000000000000000000000000000000000001",
          "blockHash": "0x418139dcfbd3239bf09bfcbe827ceb4e566d27fe65dff745b4dd8f8395ee05b2",
          "blockNumber": "0x1cd12a0",
          "blockTimestamp": "0x68248223",
          "transactionHash": "0x280c82252b6113dd0bc0df3f36f4dfbe83dc483138298760cfba9b444b4f5037",
          "transactionIndex": "0xbe",
          "logIndex": "0x26a",
          "removed": false
        }
      ],
      "logsBloom": "0x00000000000000000000000000000000000000000000000000000000000000000000000000000000000000020000000000000000000000000000000000000000000000000002000000000000000000000000000000000000000000000000000000000000000000000000000000000004000000000000000000000000000000000000000000000000000000000000000000000000000000000000000000000000000000000040000000000000010000000000000000000000000000000000000000000000008000000000010000000000000000000000000000000000000000000000000000008000000000000000000000000000000000000000002000000000",
      "type": "0x2",
      "transactionHash": "0x280c82252b6113dd0bc0df3f36f4dfbe83dc483138298760cfba9b444b4f5037",
      "transactionIndex": "0xbe",
      "blockHash": "0x418139dcfbd3239bf09bfcbe827ceb4e566d27fe65dff745b4dd8f8395ee05b2",
      "blockNumber": "0x1cd12a0",
      "gasUsed": "0xce5f",
      "effectiveGasPrice": "0x11eba6",
      "from": "0xb819a871d20913839c37f316dc914b0570bfc0ee",
      "to": "0x4df3dd62db219c47f6a7cb1be02c511afceadf5e",
      "contractAddress": null,
      "l1BaseFeeScalar": "0x8dd",
      "l1BlobBaseFee": "0x1",
      "l1BlobBaseFeeScalar": "0x101c12",
      "l1Fee": "0x1789df0ed",
      "l1GasPrice": "0x67bd6332",
      "l1GasUsed": "0x640"
    }
  ],
  "libraries": [],
  "pending": [],
  "returns": {},
  "timestamp": 1747223080,
  "chain": 8453,
  "commit": "0b1d1bd"
}