{
  "transactions": [
    {
      "hash": "0x116b6b8a26fcb26ed0f542197b812de62f5bbe5ed0e418eeea877598d2333e5f",
      "transactionType": "CALL",
      "contractName": null,
      "contractAddress": "0xdf0635c1ecfdf08146150691a97e2ff6a8aa1a90",
      "function": "setWhitelistedUser(address,bool)",
      "arguments": [
        "0xf20a8950c368Ec48323092D6e4acF90aADf2BdC6",
        "true"
      ],
      "transaction": {
        "from": "0xb819a871d20913839c37f316dc914b0570bfc0ee",
        "to": "0xdf0635c1ecfdf08146150691a97e2ff6a8aa1a90",
        "gas": "0x11d0b",
        "value": "0x0",
        "input": "0x44710fbe000000000000000000000000f20a8950c368ec48323092d6e4acf90aadf2bdc60000000000000000000000000000000000000000000000000000000000000001",
        "nonce": "0xb9",
        "chainId": "0x2105"
      },
      "additionalContracts": [],
      "isFixedGasLimit": false
    },
    {
      "hash": "0x3079c38fa62c45fbd2d7503b3e2b96f5de8bf09b2256a878d9dc14573c07e16d",
      "transactionType": "CALL",
      "contractName": null,
      "contractAddress": "0xdf0635c1ecfdf08146150691a97e2ff6a8aa1a90",
      "function": "setWhitelistedUser(address,bool)",
      "arguments": [
        "0x8E72a24221517E51502f20f387415a06b27A5b51",
        "true"
      ],
      "transaction": {
        "from": "0xb819a871d20913839c37f316dc914b0570bfc0ee",
        "to": "0xdf0635c1ecfdf08146150691a97e2ff6a8aa1a90",
        "gas": "0x11d0b",
        "value": "0x0",
        "input": "0x44710fbe0000000000000000000000008e72a24221517e51502f20f387415a06b27a5b510000000000000000000000000000000000000000000000000000000000000001",
        "nonce": "0xba",
        "chainId": "0x2105"
      },
      "additionalContracts": [],
      "isFixedGasLimit": false
    },
    {
      "hash": "0x2219bb690c15cd364e9ed232783a8a41873528049016a0a3ae6968c91071a41b",
      "transactionType": "CALL",
      "contractName": null,
      "contractAddress": "0xdf0635c1ecfdf08146150691a97e2ff6a8aa1a90",
      "function": "setWhitelistedUser(address,bool)",
      "arguments": [
        "0x50d8Deadd2b3140B151CaB2C4FB76F1f59b236F8",
        "true"
      ],
      "transaction": {
        "from": "0xb819a871d20913839c37f316dc914b0570bfc0ee",
        "to": "0xdf0635c1ecfdf08146150691a97e2ff6a8aa1a90",
        "gas": "0x11d0b",
        "value": "0x0",
        "input": "0x44710fbe00000000000000000000000050d8deadd2b3140b151cab2c4fb76f1f59b236f80000000000000000000000000000000000000000000000000000000000000001",
        "nonce": "0xbb",
        "chainId": "0x2105"
      },
      "additionalContracts": [],
      "isFixedGasLimit": false
    },
    {
      "hash": "0x85f73c7ed0074b0d6ffea8cea2376018fdb16cc5ad2d7db867eb10d1d125cf04",
      "transactionType": "CALL",
      "contractName": null,
      "contractAddress": "0xdf0635c1ecfdf08146150691a97e2ff6a8aa1a90",
      "function": "setWhitelistedUser(address,bool)",
      "arguments": [
        "0x574582C44e3f1EF2cB29a7131B057FebBCC8244E",
        "true"
      ],
      "transaction": {
        "from": "0xb819a871d20913839c37f316dc914b0570bfc0ee",
        "to": "0xdf0635c1ecfdf08146150691a97e2ff6a8aa1a90",
        "gas": "0x11d0b",
        "value": "0x0",
        "input": "0x44710fbe000000000000000000000000574582c44e3f1ef2cb29a7131b057febbcc8244e0000000000000000000000000000000000000000000000000000000000000001",
        "nonce": "0xbc",
        "chainId": "0x2105"
      },
      "additionalContracts": [],
      "isFixedGasLimit": false
    },
    {
      "hash": "0xf1665f0db41a5ccd04a61eed11368835a470be253fc770a21bb6173bd26eff39",
      "transactionType": "CALL",
      "contractName": null,
      "contractAddress": "0xdf0635c1ecfdf08146150691a97e2ff6a8aa1a90",
      "function": "setWhitelistedUser(address,bool)",
      "arguments": [
        "0x281567fe62b587EC1755f6F33b80160F544Dc5d0",
        "true"
      ],
      "transaction": {
        "from": "0xb819a871d20913839c37f316dc914b0570bfc0ee",
        "to": "0xdf0635c1ecfdf08146150691a97e2ff6a8aa1a90",
        "gas": "0x11d0b",
        "value": "0x0",
        "input": "0x44710fbe000000000000000000000000281567fe62b587ec1755f6f33b80160f544dc5d00000000000000000000000000000000000000000000000000000000000000001",
        "nonce": "0xbd",
        "chainId": "0x2105"
      },
      "additionalContracts": [],
      "isFixedGasLimit": false
    },
    {
      "hash": "0x9346331a2fc5e819151ffebec5b209f146326d53b344b80f4fca161425138073",
      "transactionType": "CALL",
      "contractName": null,
      "contractAddress": "0xdf0635c1ecfdf08146150691a97e2ff6a8aa1a90",
      "function": "setWhitelistedUser(address,bool)",
      "arguments": [
        "0x2705f6A8F01bd4A805D9FC73151DBe37BB8d1edE",
        "true"
      ],
      "transaction": {
        "from": "0xb819a871d20913839c37f316dc914b0570bfc0ee",
        "to": "0xdf0635c1ecfdf08146150691a97e2ff6a8aa1a90",
        "gas": "0x11d0b",
        "value": "0x0",
        "input": "0x44710fbe0000000000000000000000002705f6a8f01bd4a805d9fc73151dbe37bb8d1ede0000000000000000000000000000000000000000000000000000000000000001",
        "nonce": "0xbe",
        "chainId": "0x2105"
      },
      "additionalContracts": [],
      "isFixedGasLimit": false
    },
    {
      "hash": "0x5d495ff3b1a2d96feae804b7bf509b3ba8b9771fe4f1d7170a0cf64107b32ebe",
      "transactionType": "CALL",
      "contractName": null,
      "contractAddress": "0xdf0635c1ecfdf08146150691a97e2ff6a8aa1a90",
      "function": "setWhitelistedUser(address,bool)",
      "arguments": [
        "0xc9C9693b6A445D05Add0043662fad9Ac600Ad088",
        "true"
      ],
      "transaction": {
        "from": "0xb819a871d20913839c37f316dc914b0570bfc0ee",
        "to": "0xdf0635c1ecfdf08146150691a97e2ff6a8aa1a90",
        "gas": "0x11d0b",
        "value": "0x0",
        "input": "0x44710fbe000000000000000000000000c9c9693b6a445d05add0043662fad9ac600ad0880000000000000000000000000000000000000000000000000000000000000001",
        "nonce": "0xbf",
        "chainId": "0x2105"
      },
      "additionalContracts": [],
      "isFixedGasLimit": false
    },
    {
      "hash": "0xbe7a5095576ef34043fcdc729e24bfcd25f6906526aa6702372f3ed4fe973e84",
      "transactionType": "CALL",
      "contractName": null,
      "contractAddress": "0xdf0635c1ecfdf08146150691a97e2ff6a8aa1a90",
      "function": "setWhitelistedUser(address,bool)",
      "arguments": [
        "0x7EfE40B2E6dA8b28AaB6Bd2D622B9Cd7f5fE077c",
        "true"
      ],
      "transaction": {
        "from": "0xb819a871d20913839c37f316dc914b0570bfc0ee",
        "to": "0xdf0635c1ecfdf08146150691a97e2ff6a8aa1a90",
        "gas": "0x11d0b",
        "value": "0x0",
        "input": "0x44710fbe0000000000000000000000007efe40b2e6da8b28aab6bd2d622b9cd7f5fe077c0000000000000000000000000000000000000000000000000000000000000001",
        "nonce": "0xc0",
        "chainId": "0x2105"
      },
      "additionalContracts": [],
      "isFixedGasLimit": false
    },
    {
      "hash": "0x28cf6772a16ba84091b9d12d32981c828bb94b7072af470f32e7cadfc93f6f13",
      "transactionType": "CALL",
      "contractName": null,
      "contractAddress": "0xdf0635c1ecfdf08146150691a97e2ff6a8aa1a90",
      "function": "setWhitelistedUser(address,bool)",
      "arguments": [
        "0xa22DCB8F0A2848289124086F35ae9dB2a0006962",
        "true"
      ],
      "transaction": {
        "from": "0xb819a871d20913839c37f316dc914b0570bfc0ee",
        "to": "0xdf0635c1ecfdf08146150691a97e2ff6a8aa1a90",
        "gas": "0x12dbf",
        "value": "0x0",
        "input": "0x44710fbe000000000000000000000000a22dcb8f0a2848289124086f35ae9db2a00069620000000000000000000000000000000000000000000000000000000000000001",
        "nonce": "0xc1",
        "chainId": "0x2105"
      },
      "additionalContracts": [],
      "isFixedGasLimit": false
    },
    {
      "hash": "0xc3879cb74bbaff48792a1577ce40e243cdca978a7552eb47094c9374e2b757cf",
      "transactionType": "CALL",
      "contractName": null,
      "contractAddress": "0xdf0635c1ecfdf08146150691a97e2ff6a8aa1a90",
      "function": "setWhitelistedUser(address,bool)",
      "arguments": [
        "0xB819A871d20913839c37f316Dc914b0570bfc0eE",
        "true"
      ],
      "transaction": {
        "from": "0xb819a871d20913839c37f316dc914b0570bfc0ee",
        "to": "0xdf0635c1ecfdf08146150691a97e2ff6a8aa1a90",
        "gas": "0x11d0b",
        "value": "0x0",
        "input": "0x44710fbe000000000000000000000000b819a871d20913839c37f316dc914b0570bfc0ee0000000000000000000000000000000000000000000000000000000000000001",
        "nonce": "0xc2",
        "chainId": "0x2105"
      },
      "additionalContracts": [],
      "isFixedGasLimit": false
    },
    {
      "hash": "0x544a38bea3bfd47d76db852bdeb61b9e1d1d54353d0e78636324412f5cd9bbae",
      "transactionType": "CALL",
      "contractName": null,
      "contractAddress": "0xdf0635c1ecfdf08146150691a97e2ff6a8aa1a90",
      "function": "setWhitelistedUser(address,bool)",
      "arguments": [
        "0x40282d3Cf4890D9806BC1853e97a59C93D813653",
        "true"
      ],
      "transaction": {
        "from": "0xb819a871d20913839c37f316dc914b0570bfc0ee",
        "to": "0xdf0635c1ecfdf08146150691a97e2ff6a8aa1a90",
        "gas": "0x11d0b",
        "value": "0x0",
        "input": "0x44710fbe00000000000000000000000040282d3cf4890d9806bc1853e97a59c93d8136530000000000000000000000000000000000000000000000000000000000000001",
        "nonce": "0xc3",
        "chainId": "0x2105"
      },
      "additionalContracts": [],
      "isFixedGasLimit": false
    },
    {
      "hash": "0x5e4b27b24b9bd6f509205d13141339c3ee8613fbb492191b6040018f0c15c208",
      "transactionType": "CALL",
      "contractName": null,
      "contractAddress": "0xdf0635c1ecfdf08146150691a97e2ff6a8aa1a90",
      "function": "setWhitelistedUser(address,bool)",
      "arguments": [
        "0xB5b901F1BB86421301138b5c45C1D3Fe96663161",
        "true"
      ],
      "transaction": {
        "from": "0xb819a871d20913839c37f316dc914b0570bfc0ee",
        "to": "0xdf0635c1ecfdf08146150691a97e2ff6a8aa1a90",
        "gas": "0x11d0b",
        "value": "0x0",
        "input": "0x44710fbe000000000000000000000000b5b901f1bb86421301138b5c45c1d3fe966631610000000000000000000000000000000000000000000000000000000000000001",
        "nonce": "0xc4",
        "chainId": "0x2105"
      },
      "additionalContracts": [],
      "isFixedGasLimit": false
    },
    {
      "hash": "0xa2822f83c205835a243f3e6d27992161802bcd977381839b134203e05af324a5",
      "transactionType": "CALL",
      "contractName": null,
      "contractAddress": "0xdf0635c1ecfdf08146150691a97e2ff6a8aa1a90",
      "function": "setWhitelistedUser(address,bool)",
      "arguments": [
        "0xBAec8904499dcdee770c60df15b0C37EAC84Fb62",
        "true"
      ],
      "transaction": {
        "from": "0xb819a871d20913839c37f316dc914b0570bfc0ee",
        "to": "0xdf0635c1ecfdf08146150691a97e2ff6a8aa1a90",
        "gas": "0x11d0b",
        "value": "0x0",
        "input": "0x44710fbe000000000000000000000000baec8904499dcdee770c60df15b0c37eac84fb620000000000000000000000000000000000000000000000000000000000000001",
        "nonce": "0xc5",
        "chainId": "0x2105"
      },
      "additionalContracts": [],
      "isFixedGasLimit": false
    },
    {
      "hash": "0xbd66bd594018213ec3cfb094eaf8ce12f913a6ae9539e124d0fb76db6dae7456",
      "transactionType": "CALL",
      "contractName": null,
      "contractAddress": "0xdf0635c1ecfdf08146150691a97e2ff6a8aa1a90",
      "function": "setWhitelistedUser(address,bool)",
      "arguments": [
        "0xfC4A23271b60887FC246B060B6931a08E2BC434c",
        "true"
      ],
      "transaction": {
        "from": "0xb819a871d20913839c37f316dc914b0570bfc0ee",
        "to": "0xdf0635c1ecfdf08146150691a97e2ff6a8aa1a90",
        "gas": "0x11d0b",
        "value": "0x0",
        "input": "0x44710fbe000000000000000000000000fc4a23271b60887fc246b060b6931a08e2bc434c0000000000000000000000000000000000000000000000000000000000000001",
        "nonce": "0xc6",
        "chainId": "0x2105"
      },
      "additionalContracts": [],
      "isFixedGasLimit": false
    },
    {
      "hash": "0x1031f1abd1b81daf0b7ad63e7ea350cf13c2d981433ecb9feadd280bf4db45e6",
      "transactionType": "CALL",
      "contractName": null,
      "contractAddress": "0xdf0635c1ecfdf08146150691a97e2ff6a8aa1a90",
      "function": "setWhitelistedUser(address,bool)",
      "arguments": [
        "0x65b142550aE82f4BB3792E1eEfb2FC35541A3837",
        "true"
      ],
      "transaction": {
        "from": "0xb819a871d20913839c37f316dc914b0570bfc0ee",
        "to": "0xdf0635c1ecfdf08146150691a97e2ff6a8aa1a90",
        "gas": "0x11d0b",
        "value": "0x0",
        "input": "0x44710fbe00000000000000000000000065b142550ae82f4bb3792e1eefb2fc35541a38370000000000000000000000000000000000000000000000000000000000000001",
        "nonce": "0xc7",
        "chainId": "0x2105"
      },
      "additionalContracts": [],
      "isFixedGasLimit": false
    },
    {
      "hash": "0x444f7d6f134038d25fdde08657ce38452777a71965b0afe203b1f2596e1cc3ed",
      "transactionType": "CALL",
      "contractName": null,
      "contractAddress": "0xdf0635c1ecfdf08146150691a97e2ff6a8aa1a90",
      "function": "setWhitelistedUser(address,bool)",
      "arguments": [
        "0x75149feEBb20E1fE5Ddb89302a6d4bACE70c14Ce",
        "true"
      ],
      "transaction": {
        "from": "0xb819a871d20913839c37f316dc914b0570bfc0ee",
        "to": "0xdf0635c1ecfdf08146150691a97e2ff6a8aa1a90",
        "gas": "0x11d0b",
        "value": "0x0",
        "input": "0x44710fbe00000000000000000000000075149feebb20e1fe5ddb89302a6d4bace70c14ce0000000000000000000000000000000000000000000000000000000000000001",
        "nonce": "0xc8",
        "chainId": "0x2105"
      },
      "additionalContracts": [],
      "isFixedGasLimit": false
    },
    {
      "hash": "0xeb3d994f4dba01eb0bc40bf0997241a5971594085124d652c199f3838e4c1682",
      "transactionType": "CALL",
      "contractName": null,
      "contractAddress": "0xdf0635c1ecfdf08146150691a97e2ff6a8aa1a90",
      "function": "setWhitelistedUser(address,bool)",
      "arguments": [
        "0x65B6D4770DAdcFba6d363dE86aA4D9c76283cea0",
        "true"
      ],
      "transaction": {
        "from": "0xb819a871d20913839c37f316dc914b0570bfc0ee",
        "to": "0xdf0635c1ecfdf08146150691a97e2ff6a8aa1a90",
        "gas": "0x11d0b",
        "value": "0x0",
        "input": "0x44710fbe00000000000000000000000065b6d4770dadcfba6d363de86aa4d9c76283cea00000000000000000000000000000000000000000000000000000000000000001",
        "nonce": "0xc9",
        "chainId": "0x2105"
      },
      "additionalContracts": [],
      "isFixedGasLimit": false
    },
    {
      "hash": "0x51a93be5b315c865b75c1b50337d0e180e04c195bab38a87be1f7ad034ee27d9",
      "transactionType": "CALL",
      "contractName": null,
      "contractAddress": "0xdf0635c1ecfdf08146150691a97e2ff6a8aa1a90",
      "function": "setWhitelistedUser(address,bool)",
      "arguments": [
        "0xa6A9fdDC94BB4FE7520A2eA1CC2c433e18683342",
        "true"
      ],
      "transaction": {
        "from": "0xb819a871d20913839c37f316dc914b0570bfc0ee",
        "to": "0xdf0635c1ecfdf08146150691a97e2ff6a8aa1a90",
        "gas": "0x11d0b",
        "value": "0x0",
        "input": "0x44710fbe000000000000000000000000a6a9fddc94bb4fe7520a2ea1cc2c433e186833420000000000000000000000000000000000000000000000000000000000000001",
        "nonce": "0xca",
        "chainId": "0x2105"
      },
      "additionalContracts": [],
      "isFixedGasLimit": false
    },
    {
      "hash": "0x6d839674fa5449631c5ae21a2e6ed014da643e9b2f1208f561d12009066a3f30",
      "transactionType": "CALL",
      "contractName": null,
      "contractAddress": "0xdf0635c1ecfdf08146150691a97e2ff6a8aa1a90",
      "function": "setWhitelistedUser(address,bool)",
      "arguments": [
        "0x18D04F05f80ADE5373849385a1c24E1E0a6d1744",
        "true"
      ],
      "transaction": {
        "from": "0xb819a871d20913839c37f316dc914b0570bfc0ee",
        "to": "0xdf0635c1ecfdf08146150691a97e2ff6a8aa1a90",
        "gas": "0x11d0b",
        "value": "0x0",
        "input": "0x44710fbe00000000000000000000000018d04f05f80ade5373849385a1c24e1e0a6d17440000000000000000000000000000000000000000000000000000000000000001",
        "nonce": "0xcb",
        "chainId": "0x2105"
      },
      "additionalContracts": [],
      "isFixedGasLimit": false
    },
    {
      "hash": "0xe90d69857e36e0d7c2a79fd6dcbdb20293b8206870752bb32e292a7b2872dfa3",
      "transactionType": "CALL",
      "contractName": null,
      "contractAddress": "0xdf0635c1ecfdf08146150691a97e2ff6a8aa1a90",
      "function": "setWhitelistedUser(address,bool)",
      "arguments": [
        "0xBD9C90D6774CB5320B54Bb7998b6Bcc5e4A9071f",
        "true"
      ],
      "transaction": {
        "from": "0xb819a871d20913839c37f316dc914b0570bfc0ee",
        "to": "0xdf0635c1ecfdf08146150691a97e2ff6a8aa1a90",
        "gas": "0x11d0b",
        "value": "0x0",
        "input": "0x44710fbe000000000000000000000000bd9c90d6774cb5320b54bb7998b6bcc5e4a9071f0000000000000000000000000000000000000000000000000000000000000001",
        "nonce": "0xcc",
        "chainId": "0x2105"
      },
      "additionalContracts": [],
      "isFixedGasLimit": false
    },
    {
      "hash": "0x00a114ba910501ef9ec30cbba152b7b04472a49c7b0e864c2c339dff4cb9c375",
      "transactionType": "CALL",
      "contractName": null,
      "contractAddress": "0xdf0635c1ecfdf08146150691a97e2ff6a8aa1a90",
      "function": "setWhitelistedUser(address,bool)",
      "arguments": [
        "0x8f2eABa31B1b613ca78F2795bA05400F0583c5A4",
        "true"
      ],
      "transaction": {
        "from": "0xb819a871d20913839c37f316dc914b0570bfc0ee",
        "to": "0xdf0635c1ecfdf08146150691a97e2ff6a8aa1a90",
        "gas": "0x11d0b",
        "value": "0x0",
        "input": "0x44710fbe0000000000000000000000008f2eaba31b1b613ca78f2795ba05400f0583c5a40000000000000000000000000000000000000000000000000000000000000001",
        "nonce": "0xcd",
        "chainId": "0x2105"
      },
      "additionalContracts": [],
      "isFixedGasLimit": false
    },
    {
      "hash": "0xb809eff85b4fa13752731cc3346344e7ff760ec550d3933ada6deab878c44e9e",
      "transactionType": "CALL",
      "contractName": null,
      "contractAddress": "0xdf0635c1ecfdf08146150691a97e2ff6a8aa1a90",
      "function": "setWhitelistedUser(address,bool)",
      "arguments": [
        "0x8f2eABa31B1b613ca78F2795bA05400F0583c5A4",
        "true"
      ],
      "transaction": {
        "from": "0xb819a871d20913839c37f316dc914b0570bfc0ee",
        "to": "0xdf0635c1ecfdf08146150691a97e2ff6a8aa1a90",
        "gas": "0xbc21",
        "value": "0x0",
        "input": "0x44710fbe0000000000000000000000008f2eaba31b1b613ca78f2795ba05400f0583c5a40000000000000000000000000000000000000000000000000000000000000001",
        "nonce": "0xce",
        "chainId": "0x2105"
      },
      "additionalContracts": [],
      "isFixedGasLimit": false
    },
    {
      "hash": "0x6245da69bc9fb1c6274b531ec05ce5e5c319edd379015b08b8ed3deae2a0e4ee",
      "transactionType": "CALL",
      "contractName": null,
      "contractAddress": "0xdf0635c1ecfdf08146150691a97e2ff6a8aa1a90",
      "function": "setWhitelistedUser(address,bool)",
      "arguments": [
        "0x50d8Deadd2b3140B151CaB2C4FB76F1f59b236F8",
        "true"
      ],
      "transaction": {
        "from": "0xb819a871d20913839c37f316dc914b0570bfc0ee",
        "to": "0xdf0635c1ecfdf08146150691a97e2ff6a8aa1a90",
        "gas": "0xbc21",
        "value": "0x0",
        "input": "0x44710fbe00000000000000000000000050d8deadd2b3140b151cab2c4fb76f1f59b236f80000000000000000000000000000000000000000000000000000000000000001",
        "nonce": "0xcf",
        "chainId": "0x2105"
      },
      "additionalContracts": [],
      "isFixedGasLimit": false
    },
    {
      "hash": "0xdc56c2e618fe7d8ca6c9f3e910a7e934320e4e917b4284483e38b2fba66f4c2c",
      "transactionType": "CALL",
      "contractName": null,
      "contractAddress": "0xdf0635c1ecfdf08146150691a97e2ff6a8aa1a90",
      "function": "setWhitelistedUser(address,bool)",
      "arguments": [
        "0x574582C44e3f1EF2cB29a7131B057FebBCC8244E",
        "true"
      ],
      "transaction": {
        "from": "0xb819a871d20913839c37f316dc914b0570bfc0ee",
        "to": "0xdf0635c1ecfdf08146150691a97e2ff6a8aa1a90",
        "gas": "0xbc21",
        "value": "0x0",
        "input": "0x44710fbe000000000000000000000000574582c44e3f1ef2cb29a7131b057febbcc8244e0000000000000000000000000000000000000000000000000000000000000001",
        "nonce": "0xd0",
        "chainId": "0x2105"
      },
      "additionalContracts": [],
      "isFixedGasLimit": false
    },
    {
      "hash": "0x01d890178d87edc73eddca58cee983aba02363a0509cf0bc8b1b1a63de9f72a1",
      "transactionType": "CALL",
      "contractName": null,
      "contractAddress": "0xdf0635c1ecfdf08146150691a97e2ff6a8aa1a90",
      "function": "setWhitelistedUser(address,bool)",
      "arguments": [
        "0xBd0Ce952bA069A1e15f3bf3916d4B07bBBdBC8B3",
        "true"
      ],
      "transaction": {
        "from": "0xb819a871d20913839c37f316dc914b0570bfc0ee",
        "to": "0xdf0635c1ecfdf08146150691a97e2ff6a8aa1a90",
        "gas": "0x11d0b",
        "value": "0x0",
        "input": "0x44710fbe000000000000000000000000bd0ce952ba069a1e15f3bf3916d4b07bbbdbc8b30000000000000000000000000000000000000000000000000000000000000001",
        "nonce": "0xd1",
        "chainId": "0x2105"
      },
      "additionalContracts": [],
      "isFixedGasLimit": false
    }
  ],
  "receipts": [
    {
      "status": "0x1",
      "cumulativeGasUsed": "0x27d764e",
      "logs": [
        {
          "address": "0xdf0635c1ecfdf08146150691a97e2ff6a8aa1a90",
          "topics": [
            "0x4059c608a8f17b9b24a5a29662eb74934d39ea92ae22411868f07fcac29487a0",
            "0x000000000000000000000000f20a8950c368ec48323092d6e4acf90aadf2bdc6"
          ],
          "data": "0x0000000000000000000000000000000000000000000000000000000000000001",
          "blockHash": "0xb941f025981dd5cbac4ef62e5ed92f0b1e7c8492b6b5799dba8731488a5fe0c7",
          "blockNumber": "0x1cd1157",
          "blockTimestamp": "0x68247f91",
          "transactionHash": "0x116b6b8a26fcb26ed0f542197b812de62f5bbe5ed0e418eeea877598d2333e5f",
          "transactionIndex": "0xab",
          "logIndex": "0x397",
          "removed": false
        }
      ],
      "logsBloom": "0x00000000000001000000000000000000000000000000000000000000000000000000000000000000000000020000002000000000000000000000400000000000000000000000000000000000000000000000000000000000000000000000000000000000000000000000000000000000000000000000000000000000000000000000000000000000000000000000000000000000000000000000000000000000000000000040000000000000000000000000020000000000000000000000000000000000000000000000000000000000000000000000000000001000004000000000000000008000000000000000000000000000000000000000000000000000",
      "type": "0x2",
      "transactionHash": "0x116b6b8a26fcb26ed0f542197b812de62f5bbe5ed0e418eeea877598d2333e5f",
      "transactionIndex": "0xab",
      "blockHash": "0xb941f025981dd5cbac4ef62e5ed92f0b1e7c8492b6b5799dba8731488a5fe0c7",
      "blockNumber": "0x1cd1157",
      "gasUsed": "0xce5f",
      "effectiveGasPrice": "0x11aaca",
      "from": "0xb819a871d20913839c37f316dc914b0570bfc0ee",
      "to": "0xdf0635c1ecfdf08146150691a97e2ff6a8aa1a90",
      "contractAddress": null,
      "l1BaseFeeScalar": "0x8dd",
      "l1BlobBaseFee": "0x1",
      "l1BlobBaseFeeScalar": "0x101c12",
      "l1Fee": "0x13c99ca6a",
      "l1GasPrice": "0x57354e35",
      "l1GasUsed": "0x640"
    },
    {
      "status": "0x1",
      "cumulativeGasUsed": "0x247eba7",
      "logs": [
        {
          "address": "0xdf0635c1ecfdf08146150691a97e2ff6a8aa1a90",
          "topics": [
            "0x4059c608a8f17b9b24a5a29662eb74934d39ea92ae22411868f07fcac29487a0",
            "0x0000000000000000000000008e72a24221517e51502f20f387415a06b27a5b51"
          ],
          "data": "0x0000000000000000000000000000000000000000000000000000000000000001",
          "blockHash": "0x0ac13e3bfb3c6c12848746450df6e95dc490ab9876abac4863ba745235134590",
          "blockNumber": "0x1cd1159",
          "blockTimestamp": "0x68247f95",
          "transactionHash": "0x3079c38fa62c45fbd2d7503b3e2b96f5de8bf09b2256a878d9dc14573c07e16d",
          "transactionIndex": "0xad",
          "logIndex": "0x2ba",
          "removed": false
        }
      ],
      "logsBloom": "0x00000000000001000000000000000000000000000000000000000000000000000000000000000000000000020000002000000000000000000000400000000000000000000000000000000000000000000000000000000000000000000000000000000000000000000000000000000000000000000000000000000800000000000000000000000000000000000000000000000000000000000000000000020000000000000040000000000000000000000000000000000000000000000000000000000000000000000000000000000000000000000001000000000000000000000000000000008000000000000000000000000000000000000000000000000000",
      "type": "0x2",
      "transactionHash": "0x3079c38fa62c45fbd2d7503b3e2b96f5de8bf09b2256a878d9dc14573c07e16d",
      "transactionIndex": "0xad",
      "blockHash": "0x0ac13e3bfb3c6c12848746450df6e95dc490ab9876abac4863ba745235134590",
      "blockNumber": "0x1cd1159",
      "gasUsed": "0xce5f",
      "effectiveGasPrice": "0x11a97a",
      "from": "0xb819a871d20913839c37f316dc914b0570bfc0ee",
      "to": "0xdf0635c1ecfdf08146150691a97e2ff6a8aa1a90",
      "contractAddress": null,
      "l1BaseFeeScalar": "0x8dd",
      "l1BlobBaseFee": "0x1",
      "l1BlobBaseFeeScalar": "0x101c12",
      "l1Fee": "0x13c99ca6a",
      "l1GasPrice": "0x57354e35",
      "l1GasUsed": "0x640"
    },
    {
      "status": "0x1",
      "cumulativeGasUsed": "0x48a2c20",
      "logs": [
        {
          "address": "0xdf0635c1ecfdf08146150691a97e2ff6a8aa1a90",
          "topics": [
            "0x4059c608a8f17b9b24a5a29662eb74934d39ea92ae22411868f07fcac29487a0",
            "0x00000000000000000000000050d8deadd2b3140b151cab2c4fb76f1f59b236f8"
          ],
          "data": "0x0000000000000000000000000000000000000000000000000000000000000001",
          "blockHash": "0x31be140b06b62368503fd5399d218656264624a406e698f4e0bad59ffacd0588",
          "blockNumber": "0x1cd115b",
          "blockTimestamp": "0x68247f99",
          "transactionHash": "0x2219bb690c15cd364e9ed232783a8a41873528049016a0a3ae6968c91071a41b",
          "transactionIndex": "0xe4",
          "logIndex": "0x46b",
          "removed": false
        }
      ],
      "logsBloom": "0x00000000000001000000000000000000000000000000200000000000000000000000000000000000000000020000002000000000000000000000400000000000000000000000000000000000000000000000000000000000000000000000000000000000000000000000000000000000000000000000000000000000020000000000000000000000000000000000000000000000000000000000000000000000000000000040000000000000000000000000000000000000000000000000000000000000000000000000000000000000000000000000000000000000000000000000000000808000000000000000000000000000000000000000000000000000",
      "type": "0x2",
      "transactionHash": "0x2219bb690c15cd364e9ed232783a8a41873528049016a0a3ae6968c91071a41b",
      "transactionIndex": "0xe4",
      "blockHash": "0x31be140b06b62368503fd5399d218656264624a406e698f4e0bad59ffacd0588",
      "blockNumber": "0x1cd115b",
      "gasUsed": "0xce5f",
      "effectiveGasPrice": "0x119f81",
      "from": "0xb819a871d20913839c37f316dc914b0570bfc0ee",
      "to": "0xdf0635c1ecfdf08146150691a97e2ff6a8aa1a90",
      "contractAddress": null,
      "l1BaseFeeScalar": "0x8dd",
      "l1BlobBaseFee": "0x1",
      "l1BlobBaseFeeScalar": "0x101c12",
      "l1Fee": "0x13c99ca6a",
      "l1GasPrice": "0x57354e35",
      "l1GasUsed": "0x640"
    },
    {
      "status": "0x1",
      "cumulativeGasUsed": "0x1fdfecc",
      "logs": [
        {
          "address": "0xdf0635c1ecfdf08146150691a97e2ff6a8aa1a90",
          "topics": [
            "0x4059c608a8f17b9b24a5a29662eb74934d39ea92ae22411868f07fcac29487a0",
            "0x000000000000000000000000574582c44e3f1ef2cb29a7131b057febbcc8244e"
          ],
          "data": "0x0000000000000000000000000000000000000000000000000000000000000001",
          "blockHash": "0x2bd6747930cea3d4145c4a7e6897e6e3ace9c63e0ec883243eef81bf726d4741",
          "blockNumber": "0x1cd115d",
          "blockTimestamp": "0x68247f9d",
          "transactionHash": "0x85f73c7ed0074b0d6ffea8cea2376018fdb16cc5ad2d7db867eb10d1d125cf04",
          "transactionIndex": "0x81",
          "logIndex": "0x11f",
          "removed": false
        }
      ],
      "logsBloom": "0x00000000000001000000000000000000000000000000000000000000000000000000000000000000000000020000002000000000000000000000400000000000000000000000200000000000000000000000000000000000000000000000000000000000000000000000000000000000000000000000000000000000000000000000000000000000000000100000000000000000000000000000000000000000004000000040000000000000000000000000000000000000000000000000000000000000000000000000000000000000000000000000000000000000000000000000000000008000000000000000000000000000000000000000000000000000",
      "type": "0x2",
      "transactionHash": "0x85f73c7ed0074b0d6ffea8cea2376018fdb16cc5ad2d7db867eb10d1d125cf04",
      "transactionIndex": "0x81",
      "blockHash": "0x2bd6747930cea3d4145c4a7e6897e6e3ace9c63e0ec883243eef81bf726d4741",
      "blockNumber": "0x1cd115d",
      "gasUsed": "0xce5f",
      "effectiveGasPrice": "0x119d4a",
      "from": "0xb819a871d20913839c37f316dc914b0570bfc0ee",
      "to": "0xdf0635c1ecfdf08146150691a97e2ff6a8aa1a90",
      "contractAddress": null,
      "l1BaseFeeScalar": "0x8dd",
      "l1BlobBaseFee": "0x1",
      "l1BlobBaseFeeScalar": "0x101c12",
      "l1Fee": "0x13848a2bf",
      "l1GasPrice": "0x5604e37e",
      "l1GasUsed": "0x640"
    },
    {
      "status": "0x1",
      "cumulativeGasUsed": "0x3c1c417",
      "logs": [
        {
          "address": "0xdf0635c1ecfdf08146150691a97e2ff6a8aa1a90",
          "topics": [
            "0x4059c608a8f17b9b24a5a29662eb74934d39ea92ae22411868f07fcac29487a0",
            "0x000000000000000000000000281567fe62b587ec1755f6f33b80160f544dc5d0"
          ],
          "data": "0x0000000000000000000000000000000000000000000000000000000000000001",
          "blockHash": "0xe9d62f5b0d48f7461985048a7662975fb409b1fb85d9d3d6d68e148fd9d82a4a",
          "blockNumber": "0x1cd115f",
          "blockTimestamp": "0x68247fa1",
          "transactionHash": "0xf1665f0db41a5ccd04a61eed11368835a470be253fc770a21bb6173bd26eff39",
          "transactionIndex": "0xf2",
          "logIndex": "0x460",
          "removed": false
        }
      ],
      "logsBloom": "0x00200000000001000000000000000000000000000000000000000000000000000000000000000000000000020000002000000000000000000000400000000000000000000000000000000000000000000000000000000000000000000002000000000000000000000000000000000000000000000000000000000000000000000000000000000000000000000000000000000000800000000000000000000000000000000040000000000000000000000000000000000000000000000000000000000000000000000000000000000000000000000000000000000000000000000000000000008000000000000000000000000000000000000000000000000000",
      "type": "0x2",
      "transactionHash": "0xf1665f0db41a5ccd04a61eed11368835a470be253fc770a21bb6173bd26eff39",
      "transactionIndex": "0xf2",
      "blockHash": "0xe9d62f5b0d48f7461985048a7662975fb409b1fb85d9d3d6d68e148fd9d82a4a",
      "blockNumber": "0x1cd115f",
      "gasUsed": "0xce5f",
      "effectiveGasPrice": "0x11ae8c",
      "from": "0xb819a871d20913839c37f316dc914b0570bfc0ee",
      "to": "0xdf0635c1ecfdf08146150691a97e2ff6a8aa1a90",
      "contractAddress": null,
      "l1BaseFeeScalar": "0x8dd",
      "l1BlobBaseFee": "0x1",
      "l1BlobBaseFeeScalar": "0x101c12",
      "l1Fee": "0x13848a2bf",
      "l1GasPrice": "0x5604e37e",
      "l1GasUsed": "0x640"
    },
    {
      "status": "0x1",
      "cumulativeGasUsed": "0x43a7615",
      "logs": [
        {
          "address": "0xdf0635c1ecfdf08146150691a97e2ff6a8aa1a90",
          "topics": [
            "0x4059c608a8f17b9b24a5a29662eb74934d39ea92ae22411868f07fcac29487a0",
            "0x0000000000000000000000002705f6a8f01bd4a805d9fc73151dbe37bb8d1ede"
          ],
          "data": "0x0000000000000000000000000000000000000000000000000000000000000001",
          "blockHash": "0x00e79b1aa4464cfe515cdfdb88da747e37cc9d75996a6a66ecb026d8fd80b697",
          "blockNumber": "0x1cd1161",
          "blockTimestamp": "0x68247fa5",
          "transactionHash": "0x9346331a2fc5e819151ffebec5b209f146326d53b344b80f4fca161425138073",
          "transactionIndex": "0xc6",
          "logIndex": "0x225",
          "removed": false
        }
      ],
      "logsBloom": "0x00000000000001000000000000000000000000000000000000000000000040000000000000000000000000020000002000000000000000000000400000000000000000000000000000000000000000000000000000000040000000000000000000000000000000000000000000000000000000000000000000000040000000000000000000000000000000000000000000000000000000000000000000000000000000000040000000000000000000000000000000000000000000000000000000000000000000000000000000000000000000000000000000000000000000000000000000008000000000000000000000000000000000000000000000000000",
      "type": "0x2",
      "transactionHash": "0x9346331a2fc5e819151ffebec5b209f146326d53b344b80f4fca161425138073",
      "transactionIndex": "0xc6",
      "blockHash": "0x00e79b1aa4464cfe515cdfdb88da747e37cc9d75996a6a66ecb026d8fd80b697",
      "blockNumber": "0x1cd1161",
      "gasUsed": "0xce5f",
      "effectiveGasPrice": "0x11a6fe",
      "from": "0xb819a871d20913839c37f316dc914b0570bfc0ee",
      "to": "0xdf0635c1ecfdf08146150691a97e2ff6a8aa1a90",
      "contractAddress": null,
      "l1BaseFeeScalar": "0x8dd",
      "l1BlobBaseFee": "0x1",
      "l1BlobBaseFeeScalar": "0x101c12",
      "l1Fee": "0x13848a2bf",
      "l1GasPrice": "0x5604e37e",
      "l1GasUsed": "0x640"
    },
    {
      "status": "0x1",
      "cumulativeGasUsed": "0x2e5f215",
      "logs": [
        {
          "address": "0xdf0635c1ecfdf08146150691a97e2ff6a8aa1a90",
          "topics": [
            "0x4059c608a8f17b9b24a5a29662eb74934d39ea92ae22411868f07fcac29487a0",
            "0x000000000000000000000000c9c9693b6a445d05add0043662fad9ac600ad088"
          ],
          "data": "0x0000000000000000000000000000000000000000000000000000000000000001",
          "blockHash": "0x6963a74943ab2aba7b1416d771d7f218eb2aecfe60e7be0e7531f1fd0ae50b05",
          "blockNumber": "0x1cd1163",
          "blockTimestamp": "0x68247fa9",
          "transactionHash": "0x5d495ff3b1a2d96feae804b7bf509b3ba8b9771fe4f1d7170a0cf64107b32ebe",
          "transactionIndex": "0xb1",
          "logIndex": "0x1b4",
          "removed": false
        }
      ],
      "logsBloom": "0x00000000000001000000000000000000000000000000000000000000000000000000000010000000000000020000002000000000000000000000400000000000000000000000000000000000000000000000000000000000000000000000000000000000000000000000000000000000000000000000000000000000000000000000000000000000000000000000000000000000000000000000000000000000000000001040000000000000000000000000000000000000000000000000000000000001000000000000000000000000000000000000000000000000000000000000000000008000000000000000000000000000000000000000000000000000",
      "type": "0x2",
      "transactionHash": "0x5d495ff3b1a2d96feae804b7bf509b3ba8b9771fe4f1d7170a0cf64107b32ebe",
      "transactionIndex": "0xb1",
      "blockHash": "0x6963a74943ab2aba7b1416d771d7f218eb2aecfe60e7be0e7531f1fd0ae50b05",
      "blockNumber": "0x1cd1163",
      "gasUsed": "0xce5f",
      "effectiveGasPrice": "0x11a745",
      "from": "0xb819a871d20913839c37f316dc914b0570bfc0ee",
      "to": "0xdf0635c1ecfdf08146150691a97e2ff6a8aa1a90",
      "contractAddress": null,
      "l1BaseFeeScalar": "0x8dd",
      "l1BlobBaseFee": "0x1",
      "l1BlobBaseFeeScalar": "0x101c12",
      "l1Fee": "0x130e9a4c2",
      "l1GasPrice": "0x53fd1d06",
      "l1GasUsed": "0x640"
    },
    {
      "status": "0x1",
      "cumulativeGasUsed": "0x2ce82f9",
      "logs": [
        {
          "address": "0xdf0635c1ecfdf08146150691a97e2ff6a8aa1a90",
          "topics": [
            "0x4059c608a8f17b9b24a5a29662eb74934d39ea92ae22411868f07fcac29487a0",
            "0x0000000000000000000000007efe40b2e6da8b28aab6bd2d622b9cd7f5fe077c"
          ],
          "data": "0x0000000000000000000000000000000000000000000000000000000000000001",
          "blockHash": "0x3c8967b554096b5a6e892d3ec4bdb758295ed84786a57541b8a6077cc727cf42",
          "blockNumber": "0x1cd1165",
          "blockTimestamp": "0x68247fad",
          "transactionHash": "0xbe7a5095576ef34043fcdc729e24bfcd25f6906526aa6702372f3ed4fe973e84",
          "transactionIndex": "0xad",
          "logIndex": "0x1d8",
          "removed": false
        }
      ],
      "logsBloom": "0x00000000000001000000000000000000000000000000000000000000000000000000000000000000000000020000002000000000000000000000400000000000000000000000000000080000000000000000000000000000000000000000000000000000000000000000000000000000000000000000000000000000000000000000000200000000000000000000000000000000000000000000000000000000000000000040000000000000000000000000000000000000000000000000000000000000000000000000000000000000000000800000000000000000000000000000000000008000000000000000000000000000000000000000000000000000",
      "type": "0x2",
      "transactionHash": "0xbe7a5095576ef34043fcdc729e24bfcd25f6906526aa6702372f3ed4fe973e84",
      "transactionIndex": "0xad",
      "blockHash": "0x3c8967b554096b5a6e892d3ec4bdb758295ed84786a57541b8a6077cc727cf42",
      "blockNumber": "0x1cd1165",
      "gasUsed": "0xce5f",
      "effectiveGasPrice": "0x11a690",
      "from": "0xb819a871d20913839c37f316dc914b0570bfc0ee",
      "to": "0xdf0635c1ecfdf08146150691a97e2ff6a8aa1a90",
      "contractAddress": null,
      "l1BaseFeeScalar": "0x8dd",
      "l1BlobBaseFee": "0x1",
      "l1BlobBaseFeeScalar": "0x101c12",
      "l1Fee": "0x130e9a4c2",
      "l1GasPrice": "0x53fd1d06",
      "l1GasUsed": "0x640"
    },
    {
      "status": "0x1",
      "cumulativeGasUsed": "0x33c658e",
      "logs": [
        {
          "address": "0xdf0635c1ecfdf08146150691a97e2ff6a8aa1a90",
          "topics": [
            "0x4059c608a8f17b9b24a5a29662eb74934d39ea92ae22411868f07fcac29487a0",
            "0x000000000000000000000000a22dcb8f0a2848289124086f35ae9db2a0006962"
          ],
          "data": "0x0000000000000000000000000000000000000000000000000000000000000001",
          "blockHash": "0xa27bf800dd7d8714553d77490d5e748ff9d453c84e6a36805f4ef1d996ab5330",
          "blockNumber": "0x1cd1166",
          "blockTimestamp": "0x68247faf",
          "transactionHash": "0x28cf6772a16ba84091b9d12d32981c828bb94b7072af470f32e7cadfc93f6f13",
          "transactionIndex": "0x9f",
          "logIndex": "0x193",
          "removed": false
        }
      ],
      "logsBloom": "0x00000000000001000100000000000000000000000000000000000000000000000000000000000000000000020000002000000000000000000000400000000000000000100000000000000000000000000000000000000000000000000000000000000000000000000000000000000000000000000000000000000000000000000000000000000000000000000000000000000000000000200000000000000000000000000040000000000000000000000000000000000000000000000000000000000000000000000000000000000000000000000000000000000000000000000000000000008000000000000000000000000000000000000000000000000000",
      "type": "0x2",
      "transactionHash": "0x28cf6772a16ba84091b9d12d32981c828bb94b7072af470f32e7cadfc93f6f13",
      "transactionIndex": "0x9f",
      "blockHash": "0xa27bf800dd7d8714553d77490d5e748ff9d453c84e6a36805f4ef1d996ab5330",
      "blockNumber": "0x1cd1166",
      "gasUsed": "0xce53",
      "effectiveGasPrice": "0x11a3b2",
      "from": "0xb819a871d20913839c37f316dc914b0570bfc0ee",
      "to": "0xdf0635c1ecfdf08146150691a97e2ff6a8aa1a90",
      "contractAddress": null,
      "l1BaseFeeScalar": "0x8dd",
      "l1BlobBaseFee": "0x1",
      "l1BlobBaseFeeScalar": "0x101c12",
      "l1Fee": "0x130e9a4c2",
      "l1GasPrice": "0x53fd1d06",
      "l1GasUsed": "0x640"
    },
    {
      "status": "0x1",
      "cumulativeGasUsed": "0x423a461",
      "logs": [
        {
          "address": "0xdf0635c1ecfdf08146150691a97e2ff6a8aa1a90",
          "topics": [
            "0x4059c608a8f17b9b24a5a29662eb74934d39ea92ae22411868f07fcac29487a0",
            "0x000000000000000000000000b819a871d20913839c37f316dc914b0570bfc0ee"
          ],
          "data": "0x0000000000000000000000000000000000000000000000000000000000000001",
          "blockHash": "0x9c0272bf7ef67b27e913ed61e7cb5a7f4776c82198fb69dc26fce5e9c8daa0bc",
          "blockNumber": "0x1cd1168",
          "blockTimestamp": "0x68247fb3",
          "transactionHash": "0xc3879cb74bbaff48792a1577ce40e243cdca978a7552eb47094c9374e2b757cf",
          "transactionIndex": "0xa9",
          "logIndex": "0x3ad",
          "removed": false
        }
      ],
      "logsBloom": "0x00000000000001000000000000000000000000000000000000000000000000000000000000000000000000020000002000000000000000000000400000000002000000000080000000000000000000000000000000000000000000000000000000000000000000000000000000000000000000000000000000000000000000000000000000000000000000000000000000000000000000000000000000000000000000000040000000000000000000000000000000000000000000000000000000000000000000000000000000000000000000000000000000000200000000000000000000008000000000000000000000000000000000000000000000000000",
      "type": "0x2",
      "transactionHash": "0xc3879cb74bbaff48792a1577ce40e243cdca978a7552eb47094c9374e2b757cf",
      "transactionIndex": "0xa9",
      "blockHash": "0x9c0272bf7ef67b27e913ed61e7cb5a7f4776c82198fb69dc26fce5e9c8daa0bc",
      "blockNumber": "0x1cd1168",
      "gasUsed": "0xce5f",
      "effectiveGasPrice": "0x119e41",
      "from": "0xb819a871d20913839c37f316dc914b0570bfc0ee",
      "to": "0xdf0635c1ecfdf08146150691a97e2ff6a8aa1a90",
      "contractAddress": null,
      "l1BaseFeeScalar": "0x8dd",
      "l1BlobBaseFee": "0x1",
      "l1BlobBaseFeeScalar": "0x101c12",
      "l1Fee": "0x130e9a4c2",
      "l1GasPrice": "0x53fd1d06",
      "l1GasUsed": "0x640"
    },
    {
      "status": "0x1",
      "cumulativeGasUsed": "0x3ecfa65",
      "logs": [
        {
          "address": "0xdf0635c1ecfdf08146150691a97e2ff6a8aa1a90",
          "topics": [
            "0x4059c608a8f17b9b24a5a29662eb74934d39ea92ae22411868f07fcac29487a0",
            "0x00000000000000000000000040282d3cf4890d9806bc1853e97a59c93d813653"
          ],
          "data": "0x0000000000000000000000000000000000000000000000000000000000000001",
          "blockHash": "0xa49b9d55d8896cc1a89ae7297c664fedc5ff32df517c46cc1e912f2351327893",
          "blockNumber": "0x1cd116a",
          "blockTimestamp": "0x68247fb7",
          "transactionHash": "0x544a38bea3bfd47d76db852bdeb61b9e1d1d54353d0e78636324412f5cd9bbae",
          "transactionIndex": "0xcf",
          "logIndex": "0x349",
          "removed": false
        }
      ],
      "logsBloom": "0x00000000000001000000000000000000000000000000000000000000000000000000004000000000000000020000002000000000000000000000400000000000000000000000000000000000000000000000000000000000000000000000000000000000000000000000000000000000000000000000000000000000000000000000000040000000000000000000000000000000000200000000000000000000000000000040000000000000000000000000000000000000000000000000000000000000000000000000000000000000000000000000000000000000000000000000000000008000000000000000000000000000000000000000000000000000",
      "type": "0x2",
      "transactionHash": "0x544a38bea3bfd47d76db852bdeb61b9e1d1d54353d0e78636324412f5cd9bbae",
      "transactionIndex": "0xcf",
      "blockHash": "0xa49b9d55d8896cc1a89ae7297c664fedc5ff32df517c46cc1e912f2351327893",
      "blockNumber": "0x1cd116a",
      "gasUsed": "0xce5f",
      "effectiveGasPrice": "0x11a0bf",
      "from": "0xb819a871d20913839c37f316dc914b0570bfc0ee",
      "to": "0xdf0635c1ecfdf08146150691a97e2ff6a8aa1a90",
      "contractAddress": null,
      "l1BaseFeeScalar": "0x8dd",
      "l1BlobBaseFee": "0x1",
      "l1BlobBaseFeeScalar": "0x101c12",
      "l1Fee": "0x12fedcbdd",
      "l1GasPrice": "0x53b7bdda",
      "l1GasUsed": "0x640"
    },
    {
      "status": "0x1",
      "cumulativeGasUsed": "0x44b19bf",
      "logs": [
        {
          "address": "0xdf0635c1ecfdf08146150691a97e2ff6a8aa1a90",
          "topics": [
            "0x4059c608a8f17b9b24a5a29662eb74934d39ea92ae22411868f07fcac29487a0",
            "0x000000000000000000000000b5b901f1bb86421301138b5c45c1d3fe96663161"
          ],
          "data": "0x0000000000000000000000000000000000000000000000000000000000000001",
          "blockHash": "0x049b13964248491552d9f2a648cb253d959211d8fff3dfac407846bc4759cd42",
          "blockNumber": "0x1cd116c",
          "blockTimestamp": "0x68247fbb",
          "transactionHash": "0x5e4b27b24b9bd6f509205d13141339c3ee8613fbb492191b6040018f0c15c208",
          "transactionIndex": "0xc7",
          "logIndex": "0x3e8",
          "removed": false
        }
      ],
      "logsBloom": "0x00000000000001000000000000000000000000000000000000000000000000004000000000000000000000020000002000000000000000000000400000000000000000000000000000000000000000000000000000800000000000000000000000000000000000000000000000000000000000000000000000000000000000000000000000000000000000000000000000000000000000000000000000000000000000000040010000000000000000000000000000000000000000000000000000000000000000000000000000000000000000000000000000000000000000000000000000008000000000000000000000000000000000000000000000000000",
      "type": "0x2",
      "transactionHash": "0x5e4b27b24b9bd6f509205d13141339c3ee8613fbb492191b6040018f0c15c208",
      "transactionIndex": "0xc7",
      "blockHash": "0x049b13964248491552d9f2a648cb253d959211d8fff3dfac407846bc4759cd42",
      "blockNumber": "0x1cd116c",
      "gasUsed": "0xce5f",
      "effectiveGasPrice": "0x11a562",
      "from": "0xb819a871d20913839c37f316dc914b0570bfc0ee",
      "to": "0xdf0635c1ecfdf08146150691a97e2ff6a8aa1a90",
      "contractAddress": null,
      "l1BaseFeeScalar": "0x8dd",
      "l1BlobBaseFee": "0x1",
      "l1BlobBaseFeeScalar": "0x101c12",
      "l1Fee": "0x12fedcbdd",
      "l1GasPrice": "0x53b7bdda",
      "l1GasUsed": "0x640"
    },
    {
      "status": "0x1",
      "cumulativeGasUsed": "0x36720b6",
      "logs": [
        {
          "address": "0xdf0635c1ecfdf08146150691a97e2ff6a8aa1a90",
          "topics": [
            "0x4059c608a8f17b9b24a5a29662eb74934d39ea92ae22411868f07fcac29487a0",
            "0x000000000000000000000000baec8904499dcdee770c60df15b0c37eac84fb62"
          ],
          "data": "0x0000000000000000000000000000000000000000000000000000000000000001",
          "blockHash": "0xb6c80e0ef5ad7515b99e4eb99e72d18bf192d274128a813efec74ef36005a532",
          "blockNumber": "0x1cd116e",
          "blockTimestamp": "0x68247fbf",
          "transactionHash": "0xa2822f83c205835a243f3e6d27992161802bcd977381839b134203e05af324a5",
          "transactionIndex": "0x9e",
          "logIndex": "0x20c",
          "removed": false
        }
      ],
      "logsBloom": "0x00000000000001000000000000000000000000000000000000000000000000000000000000000000000000020000002000000000000000000000400000000000000000000000800000000000000080000000000000000000000000000000000000000000000000000000000000000000000000000000000000000000000000000000000000000000000000000000000000000000000000000000000000000000000000000040000000000000000000000000000000000000000000000000000000000000000000000000000000000000008000000000000000000000000000000000000000008000000000000000000000000000000000000000000000000000",
      "type": "0x2",
      "transactionHash": "0xa2822f83c205835a243f3e6d27992161802bcd977381839b134203e05af324a5",
      "transactionIndex": "0x9e",
      "blockHash": "0xb6c80e0ef5ad7515b99e4eb99e72d18bf192d274128a813efec74ef36005a532",
      "blockNumber": "0x1cd116e",
      "gasUsed": "0xce5f",
      "effectiveGasPrice": "0x11a470",
      "from": "0xb819a871d20913839c37f316dc914b0570bfc0ee",
      "to": "0xdf0635c1ecfdf08146150691a97e2ff6a8aa1a90",
      "contractAddress": null,
      "l1BaseFeeScalar": "0x8dd",
      "l1BlobBaseFee": "0x1",
      "l1BlobBaseFeeScalar": "0x101c12",
      "l1Fee": "0x12fedcbdd",
      "l1GasPrice": "0x53b7bdda",
      "l1GasUsed": "0x640"
    },
    {
      "status": "0x1",
      "cumulativeGasUsed": "0x3f54b77",
      "logs": [
        {
          "address": "0xdf0635c1ecfdf08146150691a97e2ff6a8aa1a90",
          "topics": [
            "0x4059c608a8f17b9b24a5a29662eb74934d39ea92ae22411868f07fcac29487a0",
            "0x000000000000000000000000fc4a23271b60887fc246b060b6931a08e2bc434c"
          ],
          "data": "0x0000000000000000000000000000000000000000000000000000000000000001",
          "blockHash": "0x7c757b0efe8f7bd0ac8247eb9dec42ae5071d56e1ad0bf811769da69cd18554e",
          "blockNumber": "0x1cd1170",
          "blockTimestamp": "0x68247fc3",
          "transactionHash": "0xbd66bd594018213ec3cfb094eaf8ce12f913a6ae9539e124d0fb76db6dae7456",
          "transactionIndex": "0xa1",
          "logIndex": "0x359",
          "removed": false
        }
      ],
      "logsBloom": "0x00000200000001000000000000000000000000000000000000000000000000000000000000000000000000020000002000000000000000000000400000000000000000000000020000000000000000000000000000000000000000004000000000000000000000000000000000000000000000000000000000000000000000000000000000000000000000000000000000000000000000000000000000000000000000000040000000000000000000000000000000000000000000000000000000000000000000000000000000000000000000000000000000000000000000000000000000008000000000000000000000000000000000000000000000000000",
      "type": "0x2",
      "transactionHash": "0xbd66bd594018213ec3cfb094eaf8ce12f913a6ae9539e124d0fb76db6dae7456",
      "transactionIndex": "0xa1",
      "blockHash": "0x7c757b0efe8f7bd0ac8247eb9dec42ae5071d56e1ad0bf811769da69cd18554e",
      "blockNumber": "0x1cd1170",
      "gasUsed": "0xce5f",
      "effectiveGasPrice": "0x119dcb",
      "from": "0xb819a871d20913839c37f316dc914b0570bfc0ee",
      "to": "0xdf0635c1ecfdf08146150691a97e2ff6a8aa1a90",
      "contractAddress": null,
      "l1BaseFeeScalar": "0x8dd",
      "l1BlobBaseFee": "0x1",
      "l1BlobBaseFeeScalar": "0x101c12",
      "l1Fee": "0x12297ef05",
      "l1GasPrice": "0x500b631f",
      "l1GasUsed": "0x640"
    },
    {
      "status": "0x1",
      "cumulativeGasUsed": "0x33a4fd3",
      "logs": [
        {
          "address": "0xdf0635c1ecfdf08146150691a97e2ff6a8aa1a90",
          "topics": [
            "0x4059c608a8f17b9b24a5a29662eb74934d39ea92ae22411868f07fcac29487a0",
            "0x00000000000000000000000065b142550ae82f4bb3792e1eefb2fc35541a3837"
          ],
          "data": "0x0000000000000000000000000000000000000000000000000000000000000001",
          "blockHash": "0x9b0ede3df1f8ce0f69f948c2793e727d228a8938c260bf13a43f7d6c9abfb3ea",
          "blockNumber": "0x1cd1172",
          "blockTimestamp": "0x68247fc7",
          "transactionHash": "0x1031f1abd1b81daf0b7ad63e7ea350cf13c2d981433ecb9feadd280bf4db45e6",
          "transactionIndex": "0x83",
          "logIndex": "0x186",
          "removed": false
        }
      ],
      "logsBloom": "0x00000000000001000000000000000000000000000000000000000000000000000000000000000000000000020000002000000000000000000000400000000000000000000000000000000000000000000000000000000000000000000000000000000000000000000000000000000000000000000000000000000000000000000000000000000000000000000000000000000000000000000000000000000000000040000040000000000000000000080000000000000000000000000000000000000000000000000000000000000000000000000000000000000000008000000000000000008000000000000000000000000000000000000000000000000000",
      "type": "0x2",
      "transactionHash": "0x1031f1abd1b81daf0b7ad63e7ea350cf13c2d981433ecb9feadd280bf4db45e6",
      "transactionIndex": "0x83",
      "blockHash": "0x9b0ede3df1f8ce0f69f948c2793e727d228a8938c260bf13a43f7d6c9abfb3ea",
      "blockNumber": "0x1cd1172",
      "gasUsed": "0xce5f",
      "effectiveGasPrice": "0x11986c",
      "from": "0xb819a871d20913839c37f316dc914b0570bfc0ee",
      "to": "0xdf0635c1ecfdf08146150691a97e2ff6a8aa1a90",
      "contractAddress": null,
      "l1BaseFeeScalar": "0x8dd",
      "l1BlobBaseFee": "0x1",
      "l1BlobBaseFeeScalar": "0x101c12",
      "l1Fee": "0x12297ef05",
      "l1GasPrice": "0x500b631f",
      "l1GasUsed": "0x640"
    },
    {
      "status": "0x1",
      "cumulativeGasUsed": "0x451a748",
      "logs": [
        {
          "address": "0xdf0635c1ecfdf08146150691a97e2ff6a8aa1a90",
          "topics": [
            "0x4059c608a8f17b9b24a5a29662eb74934d39ea92ae22411868f07fcac29487a0",
            "0x00000000000000000000000075149feebb20e1fe5ddb89302a6d4bace70c14ce"
          ],
          "data": "0x0000000000000000000000000000000000000000000000000000000000000001",
          "blockHash": "0x0ea0fb7afffafdc872a49c8378c3fbecf966d3742e30a4af2034bf6a8f293ee0",
          "blockNumber": "0x1cd1174",
          "blockTimestamp": "0x68247fcb",
          "transactionHash": "0x444f7d6f134038d25fdde08657ce38452777a71965b0afe203b1f2596e1cc3ed",
          "transactionIndex": "0x10b",
          "logIndex": "0x403",
          "removed": false
        }
      ],
      "logsBloom": "0x00000000000001200000000000000000000000000000000000000000000000000000000000000000040000020000002000000000000000000000400000000000000000000000000000000000000000000000000000000000000000000000000000000000000000000000000000000000000000000000000000000000000000000000000000000000000000000000000000000000000000000000000000000000000000000040000000000000000010000000000000000000000000000000000000000000000000000000000000000000000000000000000000000000000000000000000000008000000000000000000000000000000000000000000000000000",
      "type": "0x2",
      "transactionHash": "0x444f7d6f134038d25fdde08657ce38452777a71965b0afe203b1f2596e1cc3ed",
      "transactionIndex": "0x10b",
      "blockHash": "0x0ea0fb7afffafdc872a49c8378c3fbecf966d3742e30a4af2034bf6a8f293ee0",
      "blockNumber": "0x1cd1174",
      "gasUsed": "0xce5f",
      "effectiveGasPrice": "0x119a1d",
      "from": "0xb819a871d20913839c37f316dc914b0570bfc0ee",
      "to": "0xdf0635c1ecfdf08146150691a97e2ff6a8aa1a90",
      "contractAddress": null,
      "l1BaseFeeScalar": "0x8dd",
      "l1BlobBaseFee": "0x1",
      "l1BlobBaseFeeScalar": "0x101c12",
      "l1Fee": "0x12297ef05",
      "l1GasPrice": "0x500b631f",
      "l1GasUsed": "0x640"
    },
    {
      "status": "0x1",
      "cumulativeGasUsed": "0x3546e6a",
      "logs": [
        {
          "address": "0xdf0635c1ecfdf08146150691a97e2ff6a8aa1a90",
          "topics": [
            "0x4059c608a8f17b9b24a5a29662eb74934d39ea92ae22411868f07fcac29487a0",
            "0x00000000000000000000000065b6d4770dadcfba6d363de86aa4d9c76283cea0"
          ],
          "data": "0x0000000000000000000000000000000000000000000000000000000000000001",
          "blockHash": "0x6d849308d2966428c1d933d19a43549abf388593b4b9db93778ef1a603353396",
          "blockNumber": "0x1cd1176",
          "blockTimestamp": "0x68247fcf",
          "transactionHash": "0xeb3d994f4dba01eb0bc40bf0997241a5971594085124d652c199f3838e4c1682",
          "transactionIndex": "0xb1",
          "logIndex": "0x2d5",
          "removed": false
        }
      ],
      "logsBloom": "0x00000000800001000000000000000000000000000000000000000000000000000000000000000000000002020000002000000000000000000000400000000000000000000000000000000000000000000000000000000000000000000000000000000000000000000000000000000000000000000000000000000000000000000000000000000000000000000000000000000000000000000000000000000000000000000040000000000000000000000000000000000000000000000000000000000000000000000000000000000000002000000000000000000000000000000000000000008000000000000000000000000000000000000000000000000000",
      "type": "0x2",
      "transactionHash": "0xeb3d994f4dba01eb0bc40bf0997241a5971594085124d652c199f3838e4c1682",
      "transactionIndex": "0xb1",
      "blockHash": "0x6d849308d2966428c1d933d19a43549abf388593b4b9db93778ef1a603353396",
      "blockNumber": "0x1cd1176",
      "gasUsed": "0xce5f",
      "effectiveGasPrice": "0x11a7c8",
      "from": "0xb819a871d20913839c37f316dc914b0570bfc0ee",
      "to": "0xdf0635c1ecfdf08146150691a97e2ff6a8aa1a90",
      "contractAddress": null,
      "l1BaseFeeScalar": "0x8dd",
      "l1BlobBaseFee": "0x1",
      "l1BlobBaseFeeScalar": "0x101c12",
      "l1Fee": "0x12f1c1c87",
      "l1GasPrice": "0x537dfbc9",
      "l1GasUsed": "0x640"
    },
    {
      "status": "0x1",
      "cumulativeGasUsed": "0x3171702",
      "logs": [
        {
          "address": "0xdf0635c1ecfdf08146150691a97e2ff6a8aa1a90",
          "topics": [
            "0x4059c608a8f17b9b24a5a29662eb74934d39ea92ae22411868f07fcac29487a0",
            "0x000000000000000000000000a6a9fddc94bb4fe7520a2ea1cc2c433e18683342"
          ],
          "data": "0x0000000000000000000000000000000000000000000000000000000000000001",
          "blockHash": "0xdf09ef1b17089fb78a216151682949ad40277634112771a6c82de449d0820f84",
          "blockNumber": "0x1cd1177",
          "blockTimestamp": "0x68247fd1",
          "transactionHash": "0x51a93be5b315c865b75c1b50337d0e180e04c195bab38a87be1f7ad034ee27d9",
          "transactionIndex": "0xbf",
          "logIndex": "0x1f5",
          "removed": false
        }
      ],
      "logsBloom": "0x00000000000041000000000000000000000000000000000000000000000000000000000000000000000000020000002000000000000000000000400000000000000000000000000000000000000000400000000000000000000000000000000000000000000000000000000000000000000000000000000000000000000000000000000000000000000000000000000000000000000000000000000000000000000000000040000002000000000000000000000000000000000000000000000000000000000000000000000000000000000000000000000000000000000000000000000000008000000000000000000000000000000000000000000000000000",
      "type": "0x2",
      "transactionHash": "0x51a93be5b315c865b75c1b50337d0e180e04c195bab38a87be1f7ad034ee27d9",
      "transactionIndex": "0xbf",
      "blockHash": "0xdf09ef1b17089fb78a216151682949ad40277634112771a6c82de449d0820f84",
      "blockNumber": "0x1cd1177",
      "gasUsed": "0xce5f",
      "effectiveGasPrice": "0x11a9ce",
      "from": "0xb819a871d20913839c37f316dc914b0570bfc0ee",
      "to": "0xdf0635c1ecfdf08146150691a97e2ff6a8aa1a90",
      "contractAddress": null,
      "l1BaseFeeScalar": "0x8dd",
      "l1BlobBaseFee": "0x1",
      "l1BlobBaseFeeScalar": "0x101c12",
      "l1Fee": "0x12f1c1c87",
      "l1GasPrice": "0x537dfbc9",
      "l1GasUsed": "0x640"
    },
    {
      "status": "0x1",
      "cumulativeGasUsed": "0x1ec8526",
      "logs": [
        {
          "address": "0xdf0635c1ecfdf08146150691a97e2ff6a8aa1a90",
          "topics": [
            "0x4059c608a8f17b9b24a5a29662eb74934d39ea92ae22411868f07fcac29487a0",
            "0x00000000000000000000000018d04f05f80ade5373849385a1c24e1e0a6d1744"
          ],
          "data": "0x0000000000000000000000000000000000000000000000000000000000000001",
          "blockHash": "0xfc42809e5376a22a42d71acd72702240ca86a49fa332ba6390218acc840ba48b",
          "blockNumber": "0x1cd1179",
          "blockTimestamp": "0x68247fd5",
          "transactionHash": "0x6d839674fa5449631c5ae21a2e6ed014da643e9b2f1208f561d12009066a3f30",
          "transactionIndex": "0x96",
          "logIndex": "0x266",
          "removed": false
        }
      ],
      "logsBloom": "0x00000000000001000000000000000000000000000000000000000000000000000000000000000000000000020000002000000000000000000000400000000000000000000000000000000000000100000000000000000000000000000000000000000000000000000000000000000000000000000000000000000000000000000000000000000000000000000000000000000000000000000000000000000000000000000040000000000000000000000000000000000000000000000000000000000000000100000000000000000000000000000000000000000000000000000000000000008000000000000004000000000000000000000000000000000000",
      "type": "0x2",
      "transactionHash": "0x6d839674fa5449631c5ae21a2e6ed014da643e9b2f1208f561d12009066a3f30",
      "transactionIndex": "0x96",
      "blockHash": "0xfc42809e5376a22a42d71acd72702240ca86a49fa332ba6390218acc840ba48b",
      "blockNumber": "0x1cd1179",
      "gasUsed": "0xce5f",
      "effectiveGasPrice": "0x11aa7e",
      "from": "0xb819a871d20913839c37f316dc914b0570bfc0ee",
      "to": "0xdf0635c1ecfdf08146150691a97e2ff6a8aa1a90",
      "contractAddress": null,
      "l1BaseFeeScalar": "0x8dd",
      "l1BlobBaseFee": "0x1",
      "l1BlobBaseFeeScalar": "0x101c12",
      "l1Fee": "0x12f1c1c87",
      "l1GasPrice": "0x537dfbc9",
      "l1GasUsed": "0x640"
    },
    {
      "status": "0x1",
      "cumulativeGasUsed": "0x24cf992",
      "logs": [
        {
          "address": "0xdf0635c1ecfdf08146150691a97e2ff6a8aa1a90",
          "topics": [
            "0x4059c608a8f17b9b24a5a29662eb74934d39ea92ae22411868f07fcac29487a0",
            "0x000000000000000000000000bd9c90d6774cb5320b54bb7998b6bcc5e4a9071f"
          ],
          "data": "0x0000000000000000000000000000000000000000000000000000000000000001",
          "blockHash": "0x11a8495ea34ea81f7d5a0117fd091cd664ecab2be7fcea0be96cede848e3a378",
          "blockNumber": "0x1cd117b",
          "blockTimestamp": "0x68247fd9",
          "transactionHash": "0xe90d69857e36e0d7c2a79fd6dcbdb20293b8206870752bb32e292a7b2872dfa3",
          "transactionIndex": "0xa1",
          "logIndex": "0x34e",
          "removed": false
        }
      ],
      "logsBloom": "0x00000000000001000000000000000000000000000000000000000000000000000000000000002000000000020000002000000000000040000000400000000000000000000000000000000000000000000000000000000000000000000000000000000000000000000000000000000000000000000000000000000000000000000000000000000000000000000000000000000000000000000000000000000000000000000040000000000000000000000000000000800000000000000000000000000000000000000000000000000000000000000000000000000000000000000000000000008000000000000000000000000000000000000000000000000000",
      "type": "0x2",
      "transactionHash": "0xe90d69857e36e0d7c2a79fd6dcbdb20293b8206870752bb32e292a7b2872dfa3",
      "transactionIndex": "0xa1",
      "blockHash": "0x11a8495ea34ea81f7d5a0117fd091cd664ecab2be7fcea0be96cede848e3a378",
      "blockNumber": "0x1cd117b",
      "gasUsed": "0xce5f",
      "effectiveGasPrice": "0x11a654",
      "from": "0xb819a871d20913839c37f316dc914b0570bfc0ee",
      "to": "0xdf0635c1ecfdf08146150691a97e2ff6a8aa1a90",
      "contractAddress": null,
      "l1BaseFeeScalar": "0x8dd",
      "l1BlobBaseFee": "0x1",
      "l1BlobBaseFeeScalar": "0x101c12",
      "l1Fee": "0x11ad8146c",
      "l1GasPrice": "0x4de8ee62",
      "l1GasUsed": "0x640"
    },
    {
      "status": "0x1",
      "cumulativeGasUsed": "0xcdc129",
      "logs": [
        {
          "address": "0xdf0635c1ecfdf08146150691a97e2ff6a8aa1a90",
          "topics": [
            "0x4059c608a8f17b9b24a5a29662eb74934d39ea92ae22411868f07fcac29487a0",
            "0x0000000000000000000000008f2eaba31b1b613ca78f2795ba05400f0583c5a4"
          ],
          "data": "0x0000000000000000000000000000000000000000000000000000000000000001",
          "blockHash": "0x73511e4c36dd8a74ab81b25de09bd0a645b664b3362b87e1d50af37a38273616",
          "blockNumber": "0x1cd117d",
          "blockTimestamp": "0x68247fdd",
          "transactionHash": "0x00a114ba910501ef9ec30cbba152b7b04472a49c7b0e864c2c339dff4cb9c375",
          "transactionIndex": "0x39",
          "logIndex": "0x6d",
          "removed": false
        }
      ],
      "logsBloom": "0x00000000000001000000000000000000000000000000000000000000000000000000000000000000000000020000002000000000000000000000400000000000000000000000000000000000000000000000000000000000000000000000000000000000000000000000001000000000000000000000000000000000000000000000000000000000000000000000000000000000000000000000000000000000000000000040000000000000000000000000000000000000000000000000000000004000000000000000000000002000000000000000000000000000000000000000000000008000000000000000000000000000000000000000000000000000",
      "type": "0x2",
      "transactionHash": "0x00a114ba910501ef9ec30cbba152b7b04472a49c7b0e864c2c339dff4cb9c375",
      "transactionIndex": "0x39",
      "blockHash": "0x73511e4c36dd8a74ab81b25de09bd0a645b664b3362b87e1d50af37a38273616",
      "blockNumber": "0x1cd117d",
      "gasUsed": "0xce5f",
      "effectiveGasPrice": "0x11a3b2",
      "from": "0xb819a871d20913839c37f316dc914b0570bfc0ee",
      "to": "0xdf0635c1ecfdf08146150691a97e2ff6a8aa1a90",
      "contractAddress": null,
      "l1BaseFeeScalar": "0x8dd",
      "l1BlobBaseFee": "0x1",
      "l1BlobBaseFeeScalar": "0x101c12",
      "l1Fee": "0x11ad8146c",
      "l1GasPrice": "0x4de8ee62",
      "l1GasUsed": "0x640"
    },
    {
      "status": "0x1",
      "cumulativeGasUsed": "0x33e228d",
      "logs": [
        {
          "address": "0xdf0635c1ecfdf08146150691a97e2ff6a8aa1a90",
          "topics": [
            "0x4059c608a8f17b9b24a5a29662eb74934d39ea92ae22411868f07fcac29487a0",
            "0x0000000000000000000000008f2eaba31b1b613ca78f2795ba05400f0583c5a4"
          ],
          "data": "0x0000000000000000000000000000000000000000000000000000000000000001",
          "blockHash": "0xa453aa4e2964ee64f008c93ca67a7bd4f5c6e0c1b0f589a1623ed8100e8a745a",
          "blockNumber": "0x1cd1180",
          "blockTimestamp": "0x68247fe3",
          "transactionHash": "0xb809eff85b4fa13752731cc3346344e7ff760ec550d3933ada6deab878c44e9e",
          "transactionIndex": "0xba",
          "logIndex": "0x2b5",
          "removed": false
        }
      ],
      "logsBloom": "0x00000000000001000000000000000000000000000000000000000000000000000000000000000000000000020000002000000000000000000000400000000000000000000000000000000000000000000000000000000000000000000000000000000000000000000000001000000000000000000000000000000000000000000000000000000000000000000000000000000000000000000000000000000000000000000040000000000000000000000000000000000000000000000000000000004000000000000000000000002000000000000000000000000000000000000000000000008000000000000000000000000000000000000000000000000000",
      "type": "0x2",
      "transactionHash": "0xb809eff85b4fa13752731cc3346344e7ff760ec550d3933ada6deab878c44e9e",
      "transactionIndex": "0xba",
      "blockHash": "0xa453aa4e2964ee64f008c93ca67a7bd4f5c6e0c1b0f589a1623ed8100e8a745a",
      "blockNumber": "0x1cd1180",
      "gasUsed": "0x80a3",
      "effectiveGasPrice": "0x11ab26",
      "from": "0xb819a871d20913839c37f316dc914b0570bfc0ee",
      "to": "0xdf0635c1ecfdf08146150691a97e2ff6a8aa1a90",
      "contractAddress": null,
      "l1BaseFeeScalar": "0x8dd",
      "l1BlobBaseFee": "0x1",
      "l1BlobBaseFeeScalar": "0x101c12",
      "l1Fee": "0x11ad8146c",
      "l1GasPrice": "0x4de8ee62",
      "l1GasUsed": "0x640"
    },
    {
      "status": "0x1",
      "cumulativeGasUsed": "0x37d8540",
      "logs": [
        {
          "address": "0xdf0635c1ecfdf08146150691a97e2ff6a8aa1a90",
          "topics": [
            "0x4059c608a8f17b9b24a5a29662eb74934d39ea92ae22411868f07fcac29487a0",
            "0x00000000000000000000000050d8deadd2b3140b151cab2c4fb76f1f59b236f8"
          ],
          "data": "0x0000000000000000000000000000000000000000000000000000000000000001",
          "blockHash": "0xeca0174805e15b77bca92fac6521209f03c4082bc8fadc6c8f1c5149a1b843d6",
          "blockNumber": "0x1cd1182",
          "blockTimestamp": "0x68247fe7",
          "transactionHash": "0x6245da69bc9fb1c6274b531ec05ce5e5c319edd379015b08b8ed3deae2a0e4ee",
          "transactionIndex": "0x103",
          "logIndex": "0x294",
          "removed": false
        }
      ],
      "logsBloom": "0x00000000000001000000000000000000000000000000200000000000000000000000000000000000000000020000002000000000000000000000400000000000000000000000000000000000000000000000000000000000000000000000000000000000000000000000000000000000000000000000000000000000020000000000000000000000000000000000000000000000000000000000000000000000000000000040000000000000000000000000000000000000000000000000000000000000000000000000000000000000000000000000000000000000000000000000000000808000000000000000000000000000000000000000000000000000",
      "type": "0x2",
      "transactionHash": "0x6245da69bc9fb1c6274b531ec05ce5e5c319edd379015b08b8ed3deae2a0e4ee",
      "transactionIndex": "0x103",
      "blockHash": "0xeca0174805e15b77bca92fac6521209f03c4082bc8fadc6c8f1c5149a1b843d6",
      "blockNumber": "0x1cd1182",
      "gasUsed": "0x80a3",
      "effectiveGasPrice": "0x11a65f",
      "from": "0xb819a871d20913839c37f316dc914b0570bfc0ee",
      "to": "0xdf0635c1ecfdf08146150691a97e2ff6a8aa1a90",
      "contractAddress": null,
      "l1BaseFeeScalar": "0x8dd",
      "l1BlobBaseFee": "0x1",
      "l1BlobBaseFeeScalar": "0x101c12",
      "l1Fee": "0x12c5f3994",
      "l1GasPrice": "0x52bcec52",
      "l1GasUsed": "0x640"
    },
    {
      "status": "0x1",
      "cumulativeGasUsed": "0x233993d",
      "logs": [
        {
          "address": "0xdf0635c1ecfdf08146150691a97e2ff6a8aa1a90",
          "topics": [
            "0x4059c608a8f17b9b24a5a29662eb74934d39ea92ae22411868f07fcac29487a0",
            "0x000000000000000000000000574582c44e3f1ef2cb29a7131b057febbcc8244e"
          ],
          "data": "0x0000000000000000000000000000000000000000000000000000000000000001",
          "blockHash": "0xbde9d202b1f0210e61fc65b7d3f99474f02c0d058ea0a4ce167d35fb6968d73b",
          "blockNumber": "0x1cd1184",
          "blockTimestamp": "0x68247feb",
          "transactionHash": "0xdc56c2e618fe7d8ca6c9f3e910a7e934320e4e917b4284483e38b2fba66f4c2c",
          "transactionIndex": "0xc0",
          "logIndex": "0x318",
          "removed": false
        }
      ],
      "logsBloom": "0x00000000000001000000000000000000000000000000000000000000000000000000000000000000000000020000002000000000000000000000400000000000000000000000200000000000000000000000000000000000000000000000000000000000000000000000000000000000000000000000000000000000000000000000000000000000000000100000000000000000000000000000000000000000004000000040000000000000000000000000000000000000000000000000000000000000000000000000000000000000000000000000000000000000000000000000000000008000000000000000000000000000000000000000000000000000",
      "type": "0x2",
      "transactionHash": "0xdc56c2e618fe7d8ca6c9f3e910a7e934320e4e917b4284483e38b2fba66f4c2c",
      "transactionIndex": "0xc0",
      "blockHash": "0xbde9d202b1f0210e61fc65b7d3f99474f02c0d058ea0a4ce167d35fb6968d73b",
      "blockNumber": "0x1cd1184",
      "gasUsed": "0x80a3",
      "effectiveGasPrice": "0x11aabc",
      "from": "0xb819a871d20913839c37f316dc914b0570bfc0ee",
      "to": "0xdf0635c1ecfdf08146150691a97e2ff6a8aa1a90",
      "contractAddress": null,
      "l1BaseFeeScalar": "0x8dd",
      "l1BlobBaseFee": "0x1",
      "l1BlobBaseFeeScalar": "0x101c12",
      "l1Fee": "0x12c5f3994",
      "l1GasPrice": "0x52bcec52",
      "l1GasUsed": "0x640"
    },
    {
      "status": "0x1",
      "cumulativeGasUsed": "0x3b50ef9",
      "logs": [
        {
          "address": "0xdf0635c1ecfdf08146150691a97e2ff6a8aa1a90",
          "topics": [
            "0x4059c608a8f17b9b24a5a29662eb74934d39ea92ae22411868f07fcac29487a0",
            "0x000000000000000000000000bd0ce952ba069a1e15f3bf3916d4b07bbbdbc8b3"
          ],
          "data": "0x0000000000000000000000000000000000000000000000000000000000000001",
          "blockHash": "0xbd80603935d1e3e79d2a8e3b0f6bd6a8741f1fe7f7a95bdec15b4f8a6dff5fbd",
          "blockNumber": "0x1cd1186",
          "blockTimestamp": "0x68247fef",
          "transactionHash": "0x01d890178d87edc73eddca58cee983aba02363a0509cf0bc8b1b1a63de9f72a1",
          "transactionIndex": "0xcf",
          "logIndex": "0x23c",
          "removed": false
        }
      ],
      "logsBloom": "0x00000000000001000000000000000000000000000000000000000000000000000000000000000000000000020000002000000000000000000000400000000000000000000002000000000000000000000000000000000000000000000000000000000000000000000000000000000000000000000000000000000000000000000000000000000000000000000000000000000000000000000000000000000000000000000040000000000000000000000000000000000000000000000000000000000000008000000000010000000000000000000000000000000000000000000000000000008000000000000000000000000000000000000000000000000000",
      "type": "0x2",
      "transactionHash": "0x01d890178d87edc73eddca58cee983aba02363a0509cf0bc8b1b1a63de9f72a1",
      "transactionIndex": "0xcf",
      "blockHash": "0xbd80603935d1e3e79d2a8e3b0f6bd6a8741f1fe7f7a95bdec15b4f8a6dff5fbd",
      "blockNumber": "0x1cd1186",
      "gasUsed": "0xce5f",
      "effectiveGasPrice": "0x119f3d",
      "from": "0xb819a871d20913839c37f316dc914b0570bfc0ee",
      "to": "0xdf0635c1ecfdf08146150691a97e2ff6a8aa1a90",
      "contractAddress": null,
      "l1BaseFeeScalar": "0x8dd",
      "l1BlobBaseFee": "0x1",
      "l1BlobBaseFeeScalar": "0x101c12",
      "l1Fee": "0x136931bbf",
      "l1GasPrice": "0x558c5ef8",
      "l1GasUsed": "0x640"
    }
  ],
  "libraries": [],
  "pending": [],
  "returns": {},
  "timestamp": 1747222516,
  "chain": 8453,
  "commit": "0b1d1bd"
}