{
  "transactions": [
    {
      "hash": "0xe9f35131e19b40b26a85ce079043b408010f956542a8fa52094b725be02f1433",
      "transactionType": "CALL",
      "contractName": null,
      "contractAddress": "0xc7bc6bd45eb84d594f51ced3c5497e6812c7732f",
      "function": "setWhitelistedUser(address,bool)",
      "arguments": [
        "0xf20a8950c368Ec48323092D6e4acF90aADf2BdC6",
        "true"
      ],
      "transaction": {
        "from": "0xb819a871d20913839c37f316dc914b0570bfc0ee",
        "to": "0xc7bc6bd45eb84d594f51ced3c5497e6812c7732f",
        "gas": "0x11d0b",
        "value": "0x0",
        "input": "0x44710fbe000000000000000000000000f20a8950c368ec48323092d6e4acf90aadf2bdc60000000000000000000000000000000000000000000000000000000000000001",
        "nonce": "0xa0",
        "chainId": "0x2105"
      },
      "additionalContracts": [],
      "isFixedGasLimit": false
    },
    {
      "hash": "0xda3b97348fdd796408b818e22ad6ea87da25d0148c69bcbdea85a92b10ec0f89",
      "transactionType": "CALL",
      "contractName": null,
      "contractAddress": "0xc7bc6bd45eb84d594f51ced3c5497e6812c7732f",
      "function": "setWhitelistedUser(address,bool)",
      "arguments": [
        "0x8E72a24221517E51502f20f387415a06b27A5b51",
        "true"
      ],
      "transaction": {
        "from": "0xb819a871d20913839c37f316dc914b0570bfc0ee",
        "to": "0xc7bc6bd45eb84d594f51ced3c5497e6812c7732f",
        "gas": "0x11d0b",
        "value": "0x0",
        "input": "0x44710fbe0000000000000000000000008e72a24221517e51502f20f387415a06b27a5b510000000000000000000000000000000000000000000000000000000000000001",
        "nonce": "0xa1",
        "chainId": "0x2105"
      },
      "additionalContracts": [],
      "isFixedGasLimit": false
    },
    {
      "hash": "0xb7126d22886c334905f2e21868ae521352c51196b7a5e0ac1f41aa80b64918b1",
      "transactionType": "CALL",
      "contractName": null,
      "contractAddress": "0xc7bc6bd45eb84d594f51ced3c5497e6812c7732f",
      "function": "setWhitelistedUser(address,bool)",
      "arguments": [
        "0x50d8Deadd2b3140B151CaB2C4FB76F1f59b236F8",
        "true"
      ],
      "transaction": {
        "from": "0xb819a871d20913839c37f316dc914b0570bfc0ee",
        "to": "0xc7bc6bd45eb84d594f51ced3c5497e6812c7732f",
        "gas": "0x11d0b",
        "value": "0x0",
        "input": "0x44710fbe00000000000000000000000050d8deadd2b3140b151cab2c4fb76f1f59b236f80000000000000000000000000000000000000000000000000000000000000001",
        "nonce": "0xa2",
        "chainId": "0x2105"
      },
      "additionalContracts": [],
      "isFixedGasLimit": false
    },
    {
      "hash": "0x46c88a8a1ad9cf5f87513976b2d132e8b6c531f2e2877306de5a5640d6096ac3",
      "transactionType": "CALL",
      "contractName": null,
      "contractAddress": "0xc7bc6bd45eb84d594f51ced3c5497e6812c7732f",
      "function": "setWhitelistedUser(address,bool)",
      "arguments": [
        "0x574582C44e3f1EF2cB29a7131B057FebBCC8244E",
        "true"
      ],
      "transaction": {
        "from": "0xb819a871d20913839c37f316dc914b0570bfc0ee",
        "to": "0xc7bc6bd45eb84d594f51ced3c5497e6812c7732f",
        "gas": "0x11d0b",
        "value": "0x0",
        "input": "0x44710fbe000000000000000000000000574582c44e3f1ef2cb29a7131b057febbcc8244e0000000000000000000000000000000000000000000000000000000000000001",
        "nonce": "0xa3",
        "chainId": "0x2105"
      },
      "additionalContracts": [],
      "isFixedGasLimit": false
    },
    {
      "hash": "0xd3b0bdc7e283ba3abc4ed0a4e79a938de0eee7f695fff49705a56d403f419578",
      "transactionType": "CALL",
      "contractName": null,
      "contractAddress": "0xc7bc6bd45eb84d594f51ced3c5497e6812c7732f",
      "function": "setWhitelistedUser(address,bool)",
      "arguments": [
        "0x281567fe62b587EC1755f6F33b80160F544Dc5d0",
        "true"
      ],
      "transaction": {
        "from": "0xb819a871d20913839c37f316dc914b0570bfc0ee",
        "to": "0xc7bc6bd45eb84d594f51ced3c5497e6812c7732f",
        "gas": "0x11d0b",
        "value": "0x0",
        "input": "0x44710fbe000000000000000000000000281567fe62b587ec1755f6f33b80160f544dc5d00000000000000000000000000000000000000000000000000000000000000001",
        "nonce": "0xa4",
        "chainId": "0x2105"
      },
      "additionalContracts": [],
      "isFixedGasLimit": false
    },
    {
      "hash": "0x54659bb026c1318016369c7bf3dc544fedb40c1592fdcdf8d6240ca603062571",
      "transactionType": "CALL",
      "contractName": null,
      "contractAddress": "0xc7bc6bd45eb84d594f51ced3c5497e6812c7732f",
      "function": "setWhitelistedUser(address,bool)",
      "arguments": [
        "0x2705f6A8F01bd4A805D9FC73151DBe37BB8d1edE",
        "true"
      ],
      "transaction": {
        "from": "0xb819a871d20913839c37f316dc914b0570bfc0ee",
        "to": "0xc7bc6bd45eb84d594f51ced3c5497e6812c7732f",
        "gas": "0x11d0b",
        "value": "0x0",
        "input": "0x44710fbe0000000000000000000000002705f6a8f01bd4a805d9fc73151dbe37bb8d1ede0000000000000000000000000000000000000000000000000000000000000001",
        "nonce": "0xa5",
        "chainId": "0x2105"
      },
      "additionalContracts": [],
      "isFixedGasLimit": false
    },
    {
      "hash": "0x2a05c050406f8b95a7220c757416d959afc78395c5a42908b37ed7a9ca1ca4bd",
      "transactionType": "CALL",
      "contractName": null,
      "contractAddress": "0xc7bc6bd45eb84d594f51ced3c5497e6812c7732f",
      "function": "setWhitelistedUser(address,bool)",
      "arguments": [
        "0xc9C9693b6A445D05Add0043662fad9Ac600Ad088",
        "true"
      ],
      "transaction": {
        "from": "0xb819a871d20913839c37f316dc914b0570bfc0ee",
        "to": "0xc7bc6bd45eb84d594f51ced3c5497e6812c7732f",
        "gas": "0x11d0b",
        "value": "0x0",
        "input": "0x44710fbe000000000000000000000000c9c9693b6a445d05add0043662fad9ac600ad0880000000000000000000000000000000000000000000000000000000000000001",
        "nonce": "0xa6",
        "chainId": "0x2105"
      },
      "additionalContracts": [],
      "isFixedGasLimit": false
    },
    {
      "hash": "0x77894e211b98540f66f4f54750df0551f01a40f3ae8275d1d08bbbb97fa3a563",
      "transactionType": "CALL",
      "contractName": null,
      "contractAddress": "0xc7bc6bd45eb84d594f51ced3c5497e6812c7732f",
      "function": "setWhitelistedUser(address,bool)",
      "arguments": [
        "0x7EfE40B2E6dA8b28AaB6Bd2D622B9Cd7f5fE077c",
        "true"
      ],
      "transaction": {
        "from": "0xb819a871d20913839c37f316dc914b0570bfc0ee",
        "to": "0xc7bc6bd45eb84d594f51ced3c5497e6812c7732f",
        "gas": "0x11d0b",
        "value": "0x0",
        "input": "0x44710fbe0000000000000000000000007efe40b2e6da8b28aab6bd2d622b9cd7f5fe077c0000000000000000000000000000000000000000000000000000000000000001",
        "nonce": "0xa7",
        "chainId": "0x2105"
      },
      "additionalContracts": [],
      "isFixedGasLimit": false
    },
    {
      "hash": "0xcffd75cfadfef8cad54b11d0196c2a9c134784cbd5c2d218f3f6a21a97700b09",
      "transactionType": "CALL",
      "contractName": null,
      "contractAddress": "0xc7bc6bd45eb84d594f51ced3c5497e6812c7732f",
      "function": "setWhitelistedUser(address,bool)",
      "arguments": [
        "0xa22DCB8F0A2848289124086F35ae9dB2a0006962",
        "true"
      ],
      "transaction": {
        "from": "0xb819a871d20913839c37f316dc914b0570bfc0ee",
        "to": "0xc7bc6bd45eb84d594f51ced3c5497e6812c7732f",
        "gas": "0x12dbf",
        "value": "0x0",
        "input": "0x44710fbe000000000000000000000000a22dcb8f0a2848289124086f35ae9db2a00069620000000000000000000000000000000000000000000000000000000000000001",
        "nonce": "0xa8",
        "chainId": "0x2105"
      },
      "additionalContracts": [],
      "isFixedGasLimit": false
    },
    {
      "hash": "0x06d747228174aba50d5f3882a8d99bf5c009951682b032ccab4aed00f6817d5b",
      "transactionType": "CALL",
      "contractName": null,
      "contractAddress": "0xc7bc6bd45eb84d594f51ced3c5497e6812c7732f",
      "function": "setWhitelistedUser(address,bool)",
      "arguments": [
        "0xB819A871d20913839c37f316Dc914b0570bfc0eE",
        "true"
      ],
      "transaction": {
        "from": "0xb819a871d20913839c37f316dc914b0570bfc0ee",
        "to": "0xc7bc6bd45eb84d594f51ced3c5497e6812c7732f",
        "gas": "0x11d0b",
        "value": "0x0",
        "input": "0x44710fbe000000000000000000000000b819a871d20913839c37f316dc914b0570bfc0ee0000000000000000000000000000000000000000000000000000000000000001",
        "nonce": "0xa9",
        "chainId": "0x2105"
      },
      "additionalContracts": [],
      "isFixedGasLimit": false
    },
    {
      "hash": "0xa2c6d1fcb5f90be961dffda222c47f3148c850ba2f12421d770b3e239d8b7e3a",
      "transactionType": "CALL",
      "contractName": null,
      "contractAddress": "0xc7bc6bd45eb84d594f51ced3c5497e6812c7732f",
      "function": "setWhitelistedUser(address,bool)",
      "arguments": [
        "0x40282d3Cf4890D9806BC1853e97a59C93D813653",
        "true"
      ],
      "transaction": {
        "from": "0xb819a871d20913839c37f316dc914b0570bfc0ee",
        "to": "0xc7bc6bd45eb84d594f51ced3c5497e6812c7732f",
        "gas": "0x11d0b",
        "value": "0x0",
        "input": "0x44710fbe00000000000000000000000040282d3cf4890d9806bc1853e97a59c93d8136530000000000000000000000000000000000000000000000000000000000000001",
        "nonce": "0xaa",
        "chainId": "0x2105"
      },
      "additionalContracts": [],
      "isFixedGasLimit": false
    },
    {
      "hash": "0x99ff11f24494890e318f29a9f8eb145dfaabfbf04869a94b0230510f5516d57e",
      "transactionType": "CALL",
      "contractName": null,
      "contractAddress": "0xc7bc6bd45eb84d594f51ced3c5497e6812c7732f",
      "function": "setWhitelistedUser(address,bool)",
      "arguments": [
        "0xB5b901F1BB86421301138b5c45C1D3Fe96663161",
        "true"
      ],
      "transaction": {
        "from": "0xb819a871d20913839c37f316dc914b0570bfc0ee",
        "to": "0xc7bc6bd45eb84d594f51ced3c5497e6812c7732f",
        "gas": "0x11d0b",
        "value": "0x0",
        "input": "0x44710fbe000000000000000000000000b5b901f1bb86421301138b5c45c1d3fe966631610000000000000000000000000000000000000000000000000000000000000001",
        "nonce": "0xab",
        "chainId": "0x2105"
      },
      "additionalContracts": [],
      "isFixedGasLimit": false
    },
    {
      "hash": "0x151ecc261dd6c89cca18e7618541f5c2b684eb469280a7e184a9c1ddc8cc41db",
      "transactionType": "CALL",
      "contractName": null,
      "contractAddress": "0xc7bc6bd45eb84d594f51ced3c5497e6812c7732f",
      "function": "setWhitelistedUser(address,bool)",
      "arguments": [
        "0xBAec8904499dcdee770c60df15b0C37EAC84Fb62",
        "true"
      ],
      "transaction": {
        "from": "0xb819a871d20913839c37f316dc914b0570bfc0ee",
        "to": "0xc7bc6bd45eb84d594f51ced3c5497e6812c7732f",
        "gas": "0x11d0b",
        "value": "0x0",
        "input": "0x44710fbe000000000000000000000000baec8904499dcdee770c60df15b0c37eac84fb620000000000000000000000000000000000000000000000000000000000000001",
        "nonce": "0xac",
        "chainId": "0x2105"
      },
      "additionalContracts": [],
      "isFixedGasLimit": false
    },
    {
      "hash": "0xe9881aef449e84e6ba2308451c9ce2c9fb996ab375e8267b3a8fd13af097f055",
      "transactionType": "CALL",
      "contractName": null,
      "contractAddress": "0xc7bc6bd45eb84d594f51ced3c5497e6812c7732f",
      "function": "setWhitelistedUser(address,bool)",
      "arguments": [
        "0xfC4A23271b60887FC246B060B6931a08E2BC434c",
        "true"
      ],
      "transaction": {
        "from": "0xb819a871d20913839c37f316dc914b0570bfc0ee",
        "to": "0xc7bc6bd45eb84d594f51ced3c5497e6812c7732f",
        "gas": "0x11d0b",
        "value": "0x0",
        "input": "0x44710fbe000000000000000000000000fc4a23271b60887fc246b060b6931a08e2bc434c0000000000000000000000000000000000000000000000000000000000000001",
        "nonce": "0xad",
        "chainId": "0x2105"
      },
      "additionalContracts": [],
      "isFixedGasLimit": false
    },
    {
      "hash": "0xa6021efa4994a764bdbda47f29de9d91a7a56a00d016269e4ebc4c7b32776f78",
      "transactionType": "CALL",
      "contractName": null,
      "contractAddress": "0xc7bc6bd45eb84d594f51ced3c5497e6812c7732f",
      "function": "setWhitelistedUser(address,bool)",
      "arguments": [
        "0x65b142550aE82f4BB3792E1eEfb2FC35541A3837",
        "true"
      ],
      "transaction": {
        "from": "0xb819a871d20913839c37f316dc914b0570bfc0ee",
        "to": "0xc7bc6bd45eb84d594f51ced3c5497e6812c7732f",
        "gas": "0x11d0b",
        "value": "0x0",
        "input": "0x44710fbe00000000000000000000000065b142550ae82f4bb3792e1eefb2fc35541a38370000000000000000000000000000000000000000000000000000000000000001",
        "nonce": "0xae",
        "chainId": "0x2105"
      },
      "additionalContracts": [],
      "isFixedGasLimit": false
    },
    {
      "hash": "0x04188c394cfc737b0acbc270102f8c1a9c569c60553a38ed4c58002cd9d93155",
      "transactionType": "CALL",
      "contractName": null,
      "contractAddress": "0xc7bc6bd45eb84d594f51ced3c5497e6812c7732f",
      "function": "setWhitelistedUser(address,bool)",
      "arguments": [
        "0x75149feEBb20E1fE5Ddb89302a6d4bACE70c14Ce",
        "true"
      ],
      "transaction": {
        "from": "0xb819a871d20913839c37f316dc914b0570bfc0ee",
        "to": "0xc7bc6bd45eb84d594f51ced3c5497e6812c7732f",
        "gas": "0x11d0b",
        "value": "0x0",
        "input": "0x44710fbe00000000000000000000000075149feebb20e1fe5ddb89302a6d4bace70c14ce0000000000000000000000000000000000000000000000000000000000000001",
        "nonce": "0xaf",
        "chainId": "0x2105"
      },
      "additionalContracts": [],
      "isFixedGasLimit": false
    },
    {
      "hash": "0xe091c55e249a91f61414eceefbd6d8743cf7eaea3432a35ce624564d87737434",
      "transactionType": "CALL",
      "contractName": null,
      "contractAddress": "0xc7bc6bd45eb84d594f51ced3c5497e6812c7732f",
      "function": "setWhitelistedUser(address,bool)",
      "arguments": [
        "0x65B6D4770DAdcFba6d363dE86aA4D9c76283cea0",
        "true"
      ],
      "transaction": {
        "from": "0xb819a871d20913839c37f316dc914b0570bfc0ee",
        "to": "0xc7bc6bd45eb84d594f51ced3c5497e6812c7732f",
        "gas": "0x11d0b",
        "value": "0x0",
        "input": "0x44710fbe00000000000000000000000065b6d4770dadcfba6d363de86aa4d9c76283cea00000000000000000000000000000000000000000000000000000000000000001",
        "nonce": "0xb0",
        "chainId": "0x2105"
      },
      "additionalContracts": [],
      "isFixedGasLimit": false
    },
    {
      "hash": "0x4557a68afe7944f20a14cf5f9918c48e56319ec22ca746489ab1ae5bcf6e5f37",
      "transactionType": "CALL",
      "contractName": null,
      "contractAddress": "0xc7bc6bd45eb84d594f51ced3c5497e6812c7732f",
      "function": "setWhitelistedUser(address,bool)",
      "arguments": [
        "0xa6A9fdDC94BB4FE7520A2eA1CC2c433e18683342",
        "true"
      ],
      "transaction": {
        "from": "0xb819a871d20913839c37f316dc914b0570bfc0ee",
        "to": "0xc7bc6bd45eb84d594f51ced3c5497e6812c7732f",
        "gas": "0x11d0b",
        "value": "0x0",
        "input": "0x44710fbe000000000000000000000000a6a9fddc94bb4fe7520a2ea1cc2c433e186833420000000000000000000000000000000000000000000000000000000000000001",
        "nonce": "0xb1",
        "chainId": "0x2105"
      },
      "additionalContracts": [],
      "isFixedGasLimit": false
    },
    {
      "hash": "0x12561411ab0575328b61788180759c2f814e04f459afdd9093775e01384c9a63",
      "transactionType": "CALL",
      "contractName": null,
      "contractAddress": "0xc7bc6bd45eb84d594f51ced3c5497e6812c7732f",
      "function": "setWhitelistedUser(address,bool)",
      "arguments": [
        "0x18D04F05f80ADE5373849385a1c24E1E0a6d1744",
        "true"
      ],
      "transaction": {
        "from": "0xb819a871d20913839c37f316dc914b0570bfc0ee",
        "to": "0xc7bc6bd45eb84d594f51ced3c5497e6812c7732f",
        "gas": "0x11d0b",
        "value": "0x0",
        "input": "0x44710fbe00000000000000000000000018d04f05f80ade5373849385a1c24e1e0a6d17440000000000000000000000000000000000000000000000000000000000000001",
        "nonce": "0xb2",
        "chainId": "0x2105"
      },
      "additionalContracts": [],
      "isFixedGasLimit": false
    },
    {
      "hash": "0x939f600a0a2fc319d303181e521e882eaa59736699525efce1b7282037863167",
      "transactionType": "CALL",
      "contractName": null,
      "contractAddress": "0xc7bc6bd45eb84d594f51ced3c5497e6812c7732f",
      "function": "setWhitelistedUser(address,bool)",
      "arguments": [
        "0xBD9C90D6774CB5320B54Bb7998b6Bcc5e4A9071f",
        "true"
      ],
      "transaction": {
        "from": "0xb819a871d20913839c37f316dc914b0570bfc0ee",
        "to": "0xc7bc6bd45eb84d594f51ced3c5497e6812c7732f",
        "gas": "0x11d0b",
        "value": "0x0",
        "input": "0x44710fbe000000000000000000000000bd9c90d6774cb5320b54bb7998b6bcc5e4a9071f0000000000000000000000000000000000000000000000000000000000000001",
        "nonce": "0xb3",
        "chainId": "0x2105"
      },
      "additionalContracts": [],
      "isFixedGasLimit": false
    },
    {
      "hash": "0x8f4ab2d620b8d1d64e3faf9aaafed2384fa04dee0556cb35fe6784189eb0e1ad",
      "transactionType": "CALL",
      "contractName": null,
      "contractAddress": "0xc7bc6bd45eb84d594f51ced3c5497e6812c7732f",
      "function": "setWhitelistedUser(address,bool)",
      "arguments": [
        "0x8f2eABa31B1b613ca78F2795bA05400F0583c5A4",
        "true"
      ],
      "transaction": {
        "from": "0xb819a871d20913839c37f316dc914b0570bfc0ee",
        "to": "0xc7bc6bd45eb84d594f51ced3c5497e6812c7732f",
        "gas": "0x11d0b",
        "value": "0x0",
        "input": "0x44710fbe0000000000000000000000008f2eaba31b1b613ca78f2795ba05400f0583c5a40000000000000000000000000000000000000000000000000000000000000001",
        "nonce": "0xb4",
        "chainId": "0x2105"
      },
      "additionalContracts": [],
      "isFixedGasLimit": false
    },
    {
      "hash": "0x650370de9d3e46426c5898f8c7979c4548e9bbd3868942f1a2bc05b19ce2fc16",
      "transactionType": "CALL",
      "contractName": null,
      "contractAddress": "0xc7bc6bd45eb84d594f51ced3c5497e6812c7732f",
      "function": "setWhitelistedUser(address,bool)",
      "arguments": [
        "0x8f2eABa31B1b613ca78F2795bA05400F0583c5A4",
        "true"
      ],
      "transaction": {
        "from": "0xb819a871d20913839c37f316dc914b0570bfc0ee",
        "to": "0xc7bc6bd45eb84d594f51ced3c5497e6812c7732f",
        "gas": "0xbc21",
        "value": "0x0",
        "input": "0x44710fbe0000000000000000000000008f2eaba31b1b613ca78f2795ba05400f0583c5a40000000000000000000000000000000000000000000000000000000000000001",
        "nonce": "0xb5",
        "chainId": "0x2105"
      },
      "additionalContracts": [],
      "isFixedGasLimit": false
    },
    {
      "hash": "0xb67e9aa25a1c3e20624d8a2b82df3bba503ec4725a02bab57765662f32cf4275",
      "transactionType": "CALL",
      "contractName": null,
      "contractAddress": "0xc7bc6bd45eb84d594f51ced3c5497e6812c7732f",
      "function": "setWhitelistedUser(address,bool)",
      "arguments": [
        "0x50d8Deadd2b3140B151CaB2C4FB76F1f59b236F8",
        "true"
      ],
      "transaction": {
        "from": "0xb819a871d20913839c37f316dc914b0570bfc0ee",
        "to": "0xc7bc6bd45eb84d594f51ced3c5497e6812c7732f",
        "gas": "0xbc21",
        "value": "0x0",
        "input": "0x44710fbe00000000000000000000000050d8deadd2b3140b151cab2c4fb76f1f59b236f80000000000000000000000000000000000000000000000000000000000000001",
        "nonce": "0xb6",
        "chainId": "0x2105"
      },
      "additionalContracts": [],
      "isFixedGasLimit": false
    },
    {
      "hash": "0x0c913dad6d130de6cbd495e1395ddb7d7d59ad8f201a36acb4e72f6f01efb141",
      "transactionType": "CALL",
      "contractName": null,
      "contractAddress": "0xc7bc6bd45eb84d594f51ced3c5497e6812c7732f",
      "function": "setWhitelistedUser(address,bool)",
      "arguments": [
        "0x574582C44e3f1EF2cB29a7131B057FebBCC8244E",
        "true"
      ],
      "transaction": {
        "from": "0xb819a871d20913839c37f316dc914b0570bfc0ee",
        "to": "0xc7bc6bd45eb84d594f51ced3c5497e6812c7732f",
        "gas": "0xbc21",
        "value": "0x0",
        "input": "0x44710fbe000000000000000000000000574582c44e3f1ef2cb29a7131b057febbcc8244e0000000000000000000000000000000000000000000000000000000000000001",
        "nonce": "0xb7",
        "chainId": "0x2105"
      },
      "additionalContracts": [],
      "isFixedGasLimit": false
    },
    {
      "hash": "0xe082fa8584996ac23863cb5ad120e67b5a6ebcdce6060b63a573f20c05572378",
      "transactionType": "CALL",
      "contractName": null,
      "contractAddress": "0xc7bc6bd45eb84d594f51ced3c5497e6812c7732f",
      "function": "setWhitelistedUser(address,bool)",
      "arguments": [
        "0xBd0Ce952bA069A1e15f3bf3916d4B07bBBdBC8B3",
        "true"
      ],
      "transaction": {
        "from": "0xb819a871d20913839c37f316dc914b0570bfc0ee",
        "to": "0xc7bc6bd45eb84d594f51ced3c5497e6812c7732f",
        "gas": "0x11d0b",
        "value": "0x0",
        "input": "0x44710fbe000000000000000000000000bd0ce952ba069a1e15f3bf3916d4b07bbbdbc8b30000000000000000000000000000000000000000000000000000000000000001",
        "nonce": "0xb8",
        "chainId": "0x2105"
      },
      "additionalContracts": [],
      "isFixedGasLimit": false
    }
  ],
  "receipts": [
    {
      "status": "0x1",
      "cumulativeGasUsed": "0x208d3bc",
      "logs": [
        {
          "address": "0xc7bc6bd45eb84d594f51ced3c5497e6812c7732f",
          "topics": [
            "0x4059c608a8f17b9b24a5a29662eb74934d39ea92ae22411868f07fcac29487a0",
            "0x000000000000000000000000f20a8950c368ec48323092d6e4acf90aadf2bdc6"
          ],
          "data": "0x0000000000000000000000000000000000000000000000000000000000000001",
          "blockHash": "0x8affc2d5c0ac20f56111f717b31255e4d732c5643f54b2450de792536c26474b",
          "blockNumber": "0x1cd10f6",
          "blockTimestamp": "0x68247ecf",
          "transactionHash": "0xe9f35131e19b40b26a85ce079043b408010f956542a8fa52094b725be02f1433",
          "transactionIndex": "0x98",
          "logIndex": "0x20b",
          "removed": false
        }
      ],
      "logsBloom": "0x00000000000000000000000000000000000000000000000000000000000000000000000000000000000000020000000000000000000000000000000000000000008000000000000000000000000080000000000000000000000000000000000000000000000000000000000040000000000000000000000000000000000000000000000000000000000000000000000000000000000000000000000000000000000000000040000000000000000000000000020000000000000000000000000000000000000000000000000000000000000000000000000000001000004000000000000000008000000000000000000000000000000000000000000000000000",
      "type": "0x2",
      "transactionHash": "0xe9f35131e19b40b26a85ce079043b408010f956542a8fa52094b725be02f1433",
      "transactionIndex": "0x98",
      "blockHash": "0x8affc2d5c0ac20f56111f717b31255e4d732c5643f54b2450de792536c26474b",
      "blockNumber": "0x1cd10f6",
      "gasUsed": "0xce5f",
      "effectiveGasPrice": "0x110cc7",
      "from": "0xb819a871d20913839c37f316dc914b0570bfc0ee",
      "to": "0xc7bc6bd45eb84d594f51ced3c5497e6812c7732f",
      "contractAddress": null,
      "l1BaseFeeScalar": "0x8dd",
      "l1BlobBaseFee": "0x1",
      "l1BlobBaseFeeScalar": "0x101c12",
      "l1Fee": "0x150ce9618",
      "l1GasPrice": "0x5cc6293b",
      "l1GasUsed": "0x640"
    },
    {
      "status": "0x1",
      "cumulativeGasUsed": "0x2bcd26e",
      "logs": [
        {
          "address": "0xc7bc6bd45eb84d594f51ced3c5497e6812c7732f",
          "topics": [
            "0x4059c608a8f17b9b24a5a29662eb74934d39ea92ae22411868f07fcac29487a0",
            "0x0000000000000000000000008e72a24221517e51502f20f387415a06b27a5b51"
          ],
          "data": "0x0000000000000000000000000000000000000000000000000000000000000001",
          "blockHash": "0xcaee4908066ed312cc14ffb7d1569b0bb244077aeec8cb4025d32700c3b28af8",
          "blockNumber": "0x1cd10f8",
          "blockTimestamp": "0x68247ed3",
          "transactionHash": "0xda3b97348fdd796408b818e22ad6ea87da25d0148c69bcbdea85a92b10ec0f89",
          "transactionIndex": "0x69",
          "logIndex": "0x230",
          "removed": false
        }
      ],
      "logsBloom": "0x00000000000000000000000000000000000000000000000000000000000000000000000000000000000000020000000000000000000000000000000000000000008000000000000000000000000080000000000000000000000000000000000000000000000000000000000040000000000000000000000000000800000000000000000000000000000000000000000000000000000000000000000000020000000000000040000000000000000000000000000000000000000000000000000000000000000000000000000000000000000000000001000000000000000000000000000000008000000000000000000000000000000000000000000000000000",
      "type": "0x2",
      "transactionHash": "0xda3b97348fdd796408b818e22ad6ea87da25d0148c69bcbdea85a92b10ec0f89",
      "transactionIndex": "0x69",
      "blockHash": "0xcaee4908066ed312cc14ffb7d1569b0bb244077aeec8cb4025d32700c3b28af8",
      "blockNumber": "0x1cd10f8",
      "gasUsed": "0xce5f",
      "effectiveGasPrice": "0x1104d2",
      "from": "0xb819a871d20913839c37f316dc914b0570bfc0ee",
      "to": "0xc7bc6bd45eb84d594f51ced3c5497e6812c7732f",
      "contractAddress": null,
      "l1BaseFeeScalar": "0x8dd",
      "l1BlobBaseFee": "0x1",
      "l1BlobBaseFeeScalar": "0x101c12",
      "l1Fee": "0x150ce9618",
      "l1GasPrice": "0x5cc6293b",
      "l1GasUsed": "0x640"
    },
    {
      "status": "0x1",
      "cumulativeGasUsed": "0x2cb13fa",
      "logs": [
        {
          "address": "0xc7bc6bd45eb84d594f51ced3c5497e6812c7732f",
          "topics": [
            "0x4059c608a8f17b9b24a5a29662eb74934d39ea92ae22411868f07fcac29487a0",
            "0x00000000000000000000000050d8deadd2b3140b151cab2c4fb76f1f59b236f8"
          ],
          "data": "0x0000000000000000000000000000000000000000000000000000000000000001",
          "blockHash": "0xc1f19caeec743ca0c35b7f61fd5923c10c49c69ebbb4b53a638838b4a3f2cfad",
          "blockNumber": "0x1cd10fa",
          "blockTimestamp": "0x68247ed7",
          "transactionHash": "0xb7126d22886c334905f2e21868ae521352c51196b7a5e0ac1f41aa80b64918b1",
          "transactionIndex": "0xd1",
          "logIndex": "0x1da",
          "removed": false
        }
      ],
      "logsBloom": "0x00000000000000000000000000000000000000000000200000000000000000000000000000000000000000020000000000000000000000000000000000000000008000000000000000000000000080000000000000000000000000000000000000000000000000000000000040000000000000000000000000000000020000000000000000000000000000000000000000000000000000000000000000000000000000000040000000000000000000000000000000000000000000000000000000000000000000000000000000000000000000000000000000000000000000000000000000808000000000000000000000000000000000000000000000000000",
      "type": "0x2",
      "transactionHash": "0xb7126d22886c334905f2e21868ae521352c51196b7a5e0ac1f41aa80b64918b1",
      "transactionIndex": "0xd1",
      "blockHash": "0xc1f19caeec743ca0c35b7f61fd5923c10c49c69ebbb4b53a638838b4a3f2cfad",
      "blockNumber": "0x1cd10fa",
      "gasUsed": "0xce5f",
      "effectiveGasPrice": "0x11043d",
      "from": "0xb819a871d20913839c37f316dc914b0570bfc0ee",
      "to": "0xc7bc6bd45eb84d594f51ced3c5497e6812c7732f",
      "contractAddress": null,
      "l1BaseFeeScalar": "0x8dd",
      "l1BlobBaseFee": "0x1",
      "l1BlobBaseFeeScalar": "0x101c12",
      "l1Fee": "0x150ce9618",
      "l1GasPrice": "0x5cc6293b",
      "l1GasUsed": "0x640"
    },
    {
      "status": "0x1",
      "cumulativeGasUsed": "0x2fc49b4",
      "logs": [
        {
          "address": "0xc7bc6bd45eb84d594f51ced3c5497e6812c7732f",
          "topics": [
            "0x4059c608a8f17b9b24a5a29662eb74934d39ea92ae22411868f07fcac29487a0",
            "0x000000000000000000000000574582c44e3f1ef2cb29a7131b057febbcc8244e"
          ],
          "data": "0x0000000000000000000000000000000000000000000000000000000000000001",
          "blockHash": "0xf26df38cd3b2640c8048058f0a68fab81ee7248c295aaba6d914514c001c1904",
          "blockNumber": "0x1cd10fc",
          "blockTimestamp": "0x68247edb",
          "transactionHash": "0x46c88a8a1ad9cf5f87513976b2d132e8b6c531f2e2877306de5a5640d6096ac3",
          "transactionIndex": "0xad",
          "logIndex": "0x2e4",
          "removed": false
        }
      ],
      "logsBloom": "0x00000000000000000000000000000000000000000000000000000000000000000000000000000000000000020000000000000000000000000000000000000000008000000000200000000000000080000000000000000000000000000000000000000000000000000000000040000000000000000000000000000000000000000000000000000000000000100000000000000000000000000000000000000000004000000040000000000000000000000000000000000000000000000000000000000000000000000000000000000000000000000000000000000000000000000000000000008000000000000000000000000000000000000000000000000000",
      "type": "0x2",
      "transactionHash": "0x46c88a8a1ad9cf5f87513976b2d132e8b6c531f2e2877306de5a5640d6096ac3",
      "transactionIndex": "0xad",
      "blockHash": "0xf26df38cd3b2640c8048058f0a68fab81ee7248c295aaba6d914514c001c1904",
      "blockNumber": "0x1cd10fc",
      "gasUsed": "0xce5f",
      "effectiveGasPrice": "0x11019d",
      "from": "0xb819a871d20913839c37f316dc914b0570bfc0ee",
      "to": "0xc7bc6bd45eb84d594f51ced3c5497e6812c7732f",
      "contractAddress": null,
      "l1BaseFeeScalar": "0x8dd",
      "l1BlobBaseFee": "0x1",
      "l1BlobBaseFeeScalar": "0x101c12",
      "l1Fee": "0x150ce9618",
      "l1GasPrice": "0x5cc6293b",
      "l1GasUsed": "0x640"
    },
    {
      "status": "0x1",
      "cumulativeGasUsed": "0x2bf971a",
      "logs": [
        {
          "address": "0xc7bc6bd45eb84d594f51ced3c5497e6812c7732f",
          "topics": [
            "0x4059c608a8f17b9b24a5a29662eb74934d39ea92ae22411868f07fcac29487a0",
            "0x000000000000000000000000281567fe62b587ec1755f6f33b80160f544dc5d0"
          ],
          "data": "0x0000000000000000000000000000000000000000000000000000000000000001",
          "blockHash": "0xc715dcd9d47bd654bdf31aeaf328baf02a5be9ccc0d0b5b8bf7a15afd15d6d51",
          "blockNumber": "0x1cd10fe",
          "blockTimestamp": "0x68247edf",
          "transactionHash": "0xd3b0bdc7e283ba3abc4ed0a4e79a938de0eee7f695fff49705a56d403f419578",
          "transactionIndex": "0xc4",
          "logIndex": "0x22f",
          "removed": false
        }
      ],
      "logsBloom": "0x00200000000000000000000000000000000000000000000000000000000000000000000000000000000000020000000000000000000000000000000000000000008000000000000000000000000080000000000000000000000000000002000000000000000000000000000040000000000000000000000000000000000000000000000000000000000000000000000000000000800000000000000000000000000000000040000000000000000000000000000000000000000000000000000000000000000000000000000000000000000000000000000000000000000000000000000000008000000000000000000000000000000000000000000000000000",
      "type": "0x2",
      "transactionHash": "0xd3b0bdc7e283ba3abc4ed0a4e79a938de0eee7f695fff49705a56d403f419578",
      "transactionIndex": "0xc4",
      "blockHash": "0xc715dcd9d47bd654bdf31aeaf328baf02a5be9ccc0d0b5b8bf7a15afd15d6d51",
      "blockNumber": "0x1cd10fe",
      "gasUsed": "0xce5f",
      "effectiveGasPrice": "0x110aff",
      "from": "0xb819a871d20913839c37f316dc914b0570bfc0ee",
      "to": "0xc7bc6bd45eb84d594f51ced3c5497e6812c7732f",
      "contractAddress": null,
      "l1BaseFeeScalar": "0x8dd",
      "l1BlobBaseFee": "0x1",
      "l1BlobBaseFeeScalar": "0x101c12",
      "l1Fee": "0x159c7896a",
      "l1GasPrice": "0x5f3edc2d",
      "l1GasUsed": "0x640"
    },
    {
      "status": "0x1",
      "cumulativeGasUsed": "0x4b792a9",
      "logs": [
        {
          "address": "0xc7bc6bd45eb84d594f51ced3c5497e6812c7732f",
          "topics": [
            "0x4059c608a8f17b9b24a5a29662eb74934d39ea92ae22411868f07fcac29487a0",
            "0x0000000000000000000000002705f6a8f01bd4a805d9fc73151dbe37bb8d1ede"
          ],
          "data": "0x0000000000000000000000000000000000000000000000000000000000000001",
          "blockHash": "0xa10a0e9f05ab37f1cfede749291451ad9da9375d14ef2e07c73491cca559f230",
          "blockNumber": "0x1cd1100",
          "blockTimestamp": "0x68247ee3",
          "transactionHash": "0x54659bb026c1318016369c7bf3dc544fedb40c1592fdcdf8d6240ca603062571",
          "transactionIndex": "0xe6",
          "logIndex": "0x390",
          "removed": false
        }
      ],
      "logsBloom": "0x00000000000000000000000000000000000000000000000000000000000040000000000000000000000000020000000000000000000000000000000000000000008000000000000000000000000080000000000000000040000000000000000000000000000000000000000040000000000000000000000000000040000000000000000000000000000000000000000000000000000000000000000000000000000000000040000000000000000000000000000000000000000000000000000000000000000000000000000000000000000000000000000000000000000000000000000000008000000000000000000000000000000000000000000000000000",
      "type": "0x2",
      "transactionHash": "0x54659bb026c1318016369c7bf3dc544fedb40c1592fdcdf8d6240ca603062571",
      "transactionIndex": "0xe6",
      "blockHash": "0xa10a0e9f05ab37f1cfede749291451ad9da9375d14ef2e07c73491cca559f230",
      "blockNumber": "0x1cd1100",
      "gasUsed": "0xce5f",
      "effectiveGasPrice": "0x110200",
      "from": "0xb819a871d20913839c37f316dc914b0570bfc0ee",
      "to": "0xc7bc6bd45eb84d594f51ced3c5497e6812c7732f",
      "contractAddress": null,
      "l1BaseFeeScalar": "0x8dd",
      "l1BlobBaseFee": "0x1",
      "l1BlobBaseFeeScalar": "0x101c12",
      "l1Fee": "0x159c7896a",
      "l1GasPrice": "0x5f3edc2d",
      "l1GasUsed": "0x640"
    },
    {
      "status": "0x1",
      "cumulativeGasUsed": "0x585f867",
      "logs": [
        {
          "address": "0xc7bc6bd45eb84d594f51ced3c5497e6812c7732f",
          "topics": [
            "0x4059c608a8f17b9b24a5a29662eb74934d39ea92ae22411868f07fcac29487a0",
            "0x000000000000000000000000c9c9693b6a445d05add0043662fad9ac600ad088"
          ],
          "data": "0x0000000000000000000000000000000000000000000000000000000000000001",
          "blockHash": "0x62eb71e0bcd904aa5ad0335d750b746baa30fc3a5feaf8af5c6b24592bd9a286",
          "blockNumber": "0x1cd1102",
          "blockTimestamp": "0x68247ee7",
          "transactionHash": "0x2a05c050406f8b95a7220c757416d959afc78395c5a42908b37ed7a9ca1ca4bd",
          "transactionIndex": "0xf4",
          "logIndex": "0x5d4",
          "removed": false
        }
      ],
      "logsBloom": "0x00000000000000000000000000000000000000000000000000000000000000000000000010000000000000020000000000000000000000000000000000000000008000000000000000000000000080000000000000000000000000000000000000000000000000000000000040000000000000000000000000000000000000000000000000000000000000000000000000000000000000000000000000000000000000001040000000000000000000000000000000000000000000000000000000000001000000000000000000000000000000000000000000000000000000000000000000008000000000000000000000000000000000000000000000000000",
      "type": "0x2",
      "transactionHash": "0x2a05c050406f8b95a7220c757416d959afc78395c5a42908b37ed7a9ca1ca4bd",
      "transactionIndex": "0xf4",
      "blockHash": "0x62eb71e0bcd904aa5ad0335d750b746baa30fc3a5feaf8af5c6b24592bd9a286",
      "blockNumber": "0x1cd1102",
      "gasUsed": "0xce5f",
      "effectiveGasPrice": "0x10ff40",
      "from": "0xb819a871d20913839c37f316dc914b0570bfc0ee",
      "to": "0xc7bc6bd45eb84d594f51ced3c5497e6812c7732f",
      "contractAddress": null,
      "l1BaseFeeScalar": "0x8dd",
      "l1BlobBaseFee": "0x1",
      "l1BlobBaseFeeScalar": "0x101c12",
      "l1Fee": "0x13835927f",
      "l1GasPrice": "0x55ffa338",
      "l1GasUsed": "0x640"
    },
    {
      "status": "0x1",
      "cumulativeGasUsed": "0x2702066",
      "logs": [
        {
          "address": "0xc7bc6bd45eb84d594f51ced3c5497e6812c7732f",
          "topics": [
            "0x4059c608a8f17b9b24a5a29662eb74934d39ea92ae22411868f07fcac29487a0",
            "0x0000000000000000000000007efe40b2e6da8b28aab6bd2d622b9cd7f5fe077c"
          ],
          "data": "0x0000000000000000000000000000000000000000000000000000000000000001",
          "blockHash": "0xa078e46a35aec2995f6a626ad34f803bac3b7098dd61530a99f7169ce883af11",
          "blockNumber": "0x1cd1104",
          "blockTimestamp": "0x68247eeb",
          "transactionHash": "0x77894e211b98540f66f4f54750df0551f01a40f3ae8275d1d08bbbb97fa3a563",
          "transactionIndex": "0x7f",
          "logIndex": "0x1df",
          "removed": false
        }
      ],
      "logsBloom": "0x00000000000000000000000000000000000000000000000000000000000000000000000000000000000000020000000000000000000000000000000000000000008000000000000000080000000080000000000000000000000000000000000000000000000000000000000040000000000000000000000000000000000000000000000200000000000000000000000000000000000000000000000000000000000000000040000000000000000000000000000000000000000000000000000000000000000000000000000000000000000000800000000000000000000000000000000000008000000000000000000000000000000000000000000000000000",
      "type": "0x2",
      "transactionHash": "0x77894e211b98540f66f4f54750df0551f01a40f3ae8275d1d08bbbb97fa3a563",
      "transactionIndex": "0x7f",
      "blockHash": "0xa078e46a35aec2995f6a626ad34f803bac3b7098dd61530a99f7169ce883af11",
      "blockNumber": "0x1cd1104",
      "gasUsed": "0xce5f",
      "effectiveGasPrice": "0x11051e",
      "from": "0xb819a871d20913839c37f316dc914b0570bfc0ee",
      "to": "0xc7bc6bd45eb84d594f51ced3c5497e6812c7732f",
      "contractAddress": null,
      "l1BaseFeeScalar": "0x8dd",
      "l1BlobBaseFee": "0x1",
      "l1BlobBaseFeeScalar": "0x101c12",
      "l1Fee": "0x13835927f",
      "l1GasPrice": "0x55ffa338",
      "l1GasUsed": "0x640"
    },
    {
      "status": "0x1",
      "cumulativeGasUsed": "0x4aceb2e",
      "logs": [
        {
          "address": "0xc7bc6bd45eb84d594f51ced3c5497e6812c7732f",
          "topics": [
            "0x4059c608a8f17b9b24a5a29662eb74934d39ea92ae22411868f07fcac29487a0",
            "0x000000000000000000000000a22dcb8f0a2848289124086f35ae9db2a0006962"
          ],
          "data": "0x0000000000000000000000000000000000000000000000000000000000000001",
          "blockHash": "0x1ef881484cb665fd3271e57175f4af73c0d7ca5d10ae2a3d4235e6f52e9a2d57",
          "blockNumber": "0x1cd1105",
          "blockTimestamp": "0x68247eed",
          "transactionHash": "0xcffd75cfadfef8cad54b11d0196c2a9c134784cbd5c2d218f3f6a21a97700b09",
          "transactionIndex": "0xd0",
          "logIndex": "0x301",
          "removed": false
        }
      ],
      "logsBloom": "0x00000000000000000100000000000000000000000000000000000000000000000000000000000000000000020000000000000000000000000000000000000000008000100000000000000000000080000000000000000000000000000000000000000000000000000000000040000000000000000000000000000000000000000000000000000000000000000000000000000000000000200000000000000000000000000040000000000000000000000000000000000000000000000000000000000000000000000000000000000000000000000000000000000000000000000000000000008000000000000000000000000000000000000000000000000000",
      "type": "0x2",
      "transactionHash": "0xcffd75cfadfef8cad54b11d0196c2a9c134784cbd5c2d218f3f6a21a97700b09",
      "transactionIndex": "0xd0",
      "blockHash": "0x1ef881484cb665fd3271e57175f4af73c0d7ca5d10ae2a3d4235e6f52e9a2d57",
      "blockNumber": "0x1cd1105",
      "gasUsed": "0xce53",
      "effectiveGasPrice": "0x110000",
      "from": "0xb819a871d20913839c37f316dc914b0570bfc0ee",
      "to": "0xc7bc6bd45eb84d594f51ced3c5497e6812c7732f",
      "contractAddress": null,
      "l1BaseFeeScalar": "0x8dd",
      "l1BlobBaseFee": "0x1",
      "l1BlobBaseFeeScalar": "0x101c12",
      "l1Fee": "0x13835927f",
      "l1GasPrice": "0x55ffa338",
      "l1GasUsed": "0x640"
    },
    {
      "status": "0x1",
      "cumulativeGasUsed": "0x452c60b",
      "logs": [
        {
          "address": "0xc7bc6bd45eb84d594f51ced3c5497e6812c7732f",
          "topics": [
            "0x4059c608a8f17b9b24a5a29662eb74934d39ea92ae22411868f07fcac29487a0",
            "0x000000000000000000000000b819a871d20913839c37f316dc914b0570bfc0ee"
          ],
          "data": "0x0000000000000000000000000000000000000000000000000000000000000001",
          "blockHash": "0x0871a7ebfb9618174fe51a15f402dafa36649ca39ba3bc825b0ee5b73ae90355",
          "blockNumber": "0x1cd1107",
          "blockTimestamp": "0x68247ef1",
          "transactionHash": "0x06d747228174aba50d5f3882a8d99bf5c009951682b032ccab4aed00f6817d5b",
          "transactionIndex": "0xa4",
          "logIndex": "0x327",
          "removed": false
        }
      ],
      "logsBloom": "0x00000000000000000000000000000000000000000000000000000000000000000000000000000000000000020000000000000000000000000000000000000002008000000080000000000000000080000000000000000000000000000000000000000000000000000000000040000000000000000000000000000000000000000000000000000000000000000000000000000000000000000000000000000000000000000040000000000000000000000000000000000000000000000000000000000000000000000000000000000000000000000000000000000200000000000000000000008000000000000000000000000000000000000000000000000000",
      "type": "0x2",
      "transactionHash": "0x06d747228174aba50d5f3882a8d99bf5c009951682b032ccab4aed00f6817d5b",
      "transactionIndex": "0xa4",
      "blockHash": "0x0871a7ebfb9618174fe51a15f402dafa36649ca39ba3bc825b0ee5b73ae90355",
      "blockNumber": "0x1cd1107",
      "gasUsed": "0xce5f",
      "effectiveGasPrice": "0x11059d",
      "from": "0xb819a871d20913839c37f316dc914b0570bfc0ee",
      "to": "0xc7bc6bd45eb84d594f51ced3c5497e6812c7732f",
      "contractAddress": null,
      "l1BaseFeeScalar": "0x8dd",
      "l1BlobBaseFee": "0x1",
      "l1BlobBaseFeeScalar": "0x101c12",
      "l1Fee": "0x13835927f",
      "l1GasPrice": "0x55ffa338",
      "l1GasUsed": "0x640"
    },
    {
      "status": "0x1",
      "cumulativeGasUsed": "0x1f1e0a8",
      "logs": [
        {
          "address": "0xc7bc6bd45eb84d594f51ced3c5497e6812c7732f",
          "topics": [
            "0x4059c608a8f17b9b24a5a29662eb74934d39ea92ae22411868f07fcac29487a0",
            "0x00000000000000000000000040282d3cf4890d9806bc1853e97a59c93d813653"
          ],
          "data": "0x0000000000000000000000000000000000000000000000000000000000000001",
          "blockHash": "0xdd460aa7ce975f610bc8643035bf587ab6cb0daa725cf5a1aba6d54031e7c306",
          "blockNumber": "0x1cd1109",
          "blockTimestamp": "0x68247ef5",
          "transactionHash": "0xa2c6d1fcb5f90be961dffda222c47f3148c850ba2f12421d770b3e239d8b7e3a",
          "transactionIndex": "0x59",
          "logIndex": "0x228",
          "removed": false
        }
      ],
      "logsBloom": "0x00000000000000000000000000000000000000000000000000000000000000000000004000000000000000020000000000000000000000000000000000000000008000000000000000000000000080000000000000000000000000000000000000000000000000000000000040000000000000000000000000000000000000000000000040000000000000000000000000000000000200000000000000000000000000000040000000000000000000000000000000000000000000000000000000000000000000000000000000000000000000000000000000000000000000000000000000008000000000000000000000000000000000000000000000000000",
      "type": "0x2",
      "transactionHash": "0xa2c6d1fcb5f90be961dffda222c47f3148c850ba2f12421d770b3e239d8b7e3a",
      "transactionIndex": "0x59",
      "blockHash": "0xdd460aa7ce975f610bc8643035bf587ab6cb0daa725cf5a1aba6d54031e7c306",
      "blockNumber": "0x1cd1109",
      "gasUsed": "0xce5f",
      "effectiveGasPrice": "0x110a50",
      "from": "0xb819a871d20913839c37f316dc914b0570bfc0ee",
      "to": "0xc7bc6bd45eb84d594f51ced3c5497e6812c7732f",
      "contractAddress": null,
      "l1BaseFeeScalar": "0x8dd",
      "l1BlobBaseFee": "0x1",
      "l1BlobBaseFeeScalar": "0x101c12",
      "l1Fee": "0x141065c9c",
      "l1GasPrice": "0x586d4630",
      "l1GasUsed": "0x640"
    },
    {
      "status": "0x1",
      "cumulativeGasUsed": "0x2bb9353",
      "logs": [
        {
          "address": "0xc7bc6bd45eb84d594f51ced3c5497e6812c7732f",
          "topics": [
            "0x4059c608a8f17b9b24a5a29662eb74934d39ea92ae22411868f07fcac29487a0",
            "0x000000000000000000000000b5b901f1bb86421301138b5c45c1d3fe96663161"
          ],
          "data": "0x0000000000000000000000000000000000000000000000000000000000000001",
          "blockHash": "0x5e8f2bea4b7032847695392d20872806775a4cad85491e25184f85711eb7ff82",
          "blockNumber": "0x1cd110b",
          "blockTimestamp": "0x68247ef9",
          "transactionHash": "0x99ff11f24494890e318f29a9f8eb145dfaabfbf04869a94b0230510f5516d57e",
          "transactionIndex": "0x95",
          "logIndex": "0x2fa",
          "removed": false
        }
      ],
      "logsBloom": "0x00000000000000000000000000000000000000000000000000000000000000004000000000000000000000020000000000000000000000000000000000000000008000000000000000000000000080000000000000800000000000000000000000000000000000000000000040000000000000000000000000000000000000000000000000000000000000000000000000000000000000000000000000000000000000000040010000000000000000000000000000000000000000000000000000000000000000000000000000000000000000000000000000000000000000000000000000008000000000000000000000000000000000000000000000000000",
      "type": "0x2",
      "transactionHash": "0x99ff11f24494890e318f29a9f8eb145dfaabfbf04869a94b0230510f5516d57e",
      "transactionIndex": "0x95",
      "blockHash": "0x5e8f2bea4b7032847695392d20872806775a4cad85491e25184f85711eb7ff82",
      "blockNumber": "0x1cd110b",
      "gasUsed": "0xce5f",
      "effectiveGasPrice": "0x110c2b",
      "from": "0xb819a871d20913839c37f316dc914b0570bfc0ee",
      "to": "0xc7bc6bd45eb84d594f51ced3c5497e6812c7732f",
      "contractAddress": null,
      "l1BaseFeeScalar": "0x8dd",
      "l1BlobBaseFee": "0x1",
      "l1BlobBaseFeeScalar": "0x101c12",
      "l1Fee": "0x141065c9c",
      "l1GasPrice": "0x586d4630",
      "l1GasUsed": "0x640"
    },
    {
      "status": "0x1",
      "cumulativeGasUsed": "0x530eccf",
      "logs": [
        {
          "address": "0xc7bc6bd45eb84d594f51ced3c5497e6812c7732f",
          "topics": [
            "0x4059c608a8f17b9b24a5a29662eb74934d39ea92ae22411868f07fcac29487a0",
            "0x000000000000000000000000baec8904499dcdee770c60df15b0c37eac84fb62"
          ],
          "data": "0x0000000000000000000000000000000000000000000000000000000000000001",
          "blockHash": "0x1d27460bbc2d549469425848a18a6bc1c2e4a98697e32677c8c7209a8bccfd43",
          "blockNumber": "0x1cd110d",
          "blockTimestamp": "0x68247efd",
          "transactionHash": "0x151ecc261dd6c89cca18e7618541f5c2b684eb469280a7e184a9c1ddc8cc41db",
          "transactionIndex": "0x15b",
          "logIndex": "0x405",
          "removed": false
        }
      ],
      "logsBloom": "0x00000000000000000000000000000000000000000000000000000000000000000000000000000000000000020000000000000000000000000000000000000000008000000000800000000000000080000000000000000000000000000000000000000000000000000000000040000000000000000000000000000000000000000000000000000000000000000000000000000000000000000000000000000000000000000040000000000000000000000000000000000000000000000000000000000000000000000000000000000000008000000000000000000000000000000000000000008000000000000000000000000000000000000000000000000000",
      "type": "0x2",
      "transactionHash": "0x151ecc261dd6c89cca18e7618541f5c2b684eb469280a7e184a9c1ddc8cc41db",
      "transactionIndex": "0x15b",
      "blockHash": "0x1d27460bbc2d549469425848a18a6bc1c2e4a98697e32677c8c7209a8bccfd43",
      "blockNumber": "0x1cd110d",
      "gasUsed": "0xce5f",
      "effectiveGasPrice": "0x1101ba",
      "from": "0xb819a871d20913839c37f316dc914b0570bfc0ee",
      "to": "0xc7bc6bd45eb84d594f51ced3c5497e6812c7732f",
      "contractAddress": null,
      "l1BaseFeeScalar": "0x8dd",
      "l1BlobBaseFee": "0x1",
      "l1BlobBaseFeeScalar": "0x101c12",
      "l1Fee": "0x141065c9c",
      "l1GasPrice": "0x586d4630",
      "l1GasUsed": "0x640"
    },
    {
      "status": "0x1",
      "cumulativeGasUsed": "0x367631b",
      "logs": [
        {
          "address": "0xc7bc6bd45eb84d594f51ced3c5497e6812c7732f",
          "topics": [
            "0x4059c608a8f17b9b24a5a29662eb74934d39ea92ae22411868f07fcac29487a0",
            "0x000000000000000000000000fc4a23271b60887fc246b060b6931a08e2bc434c"
          ],
          "data": "0x0000000000000000000000000000000000000000000000000000000000000001",
          "blockHash": "0x3c35c7fbd4946e15a8afe4d714934866226c62d580f5bae5593e8bff1bf03323",
          "blockNumber": "0x1cd110f",
          "blockTimestamp": "0x68247f01",
          "transactionHash": "0xe9881aef449e84e6ba2308451c9ce2c9fb996ab375e8267b3a8fd13af097f055",
          "transactionIndex": "0xd2",
          "logIndex": "0x4a5",
          "removed": false
        }
      ],
      "logsBloom": "0x00000200000000000000000000000000000000000000000000000000000000000000000000000000000000020000000000000000000000000000000000000000008000000000020000000000000080000000000000000000000000004000000000000000000000000000000040000000000000000000000000000000000000000000000000000000000000000000000000000000000000000000000000000000000000000040000000000000000000000000000000000000000000000000000000000000000000000000000000000000000000000000000000000000000000000000000000008000000000000000000000000000000000000000000000000000",
      "type": "0x2",
      "transactionHash": "0xe9881aef449e84e6ba2308451c9ce2c9fb996ab375e8267b3a8fd13af097f055",
      "transactionIndex": "0xd2",
      "blockHash": "0x3c35c7fbd4946e15a8afe4d714934866226c62d580f5bae5593e8bff1bf03323",
      "blockNumber": "0x1cd110f",
      "gasUsed": "0xce5f",
      "effectiveGasPrice": "0x1106e2",
      "from": "0xb819a871d20913839c37f316dc914b0570bfc0ee",
      "to": "0xc7bc6bd45eb84d594f51ced3c5497e6812c7732f",
      "contractAddress": null,
      "l1BaseFeeScalar": "0x8dd",
      "l1BlobBaseFee": "0x1",
      "l1BlobBaseFeeScalar": "0x101c12",
      "l1Fee": "0x1403ea9ed",
      "l1GasPrice": "0x5836445b",
      "l1GasUsed": "0x640"
    },
    {
      "status": "0x1",
      "cumulativeGasUsed": "0x264f61f",
      "logs": [
        {
          "address": "0xc7bc6bd45eb84d594f51ced3c5497e6812c7732f",
          "topics": [
            "0x4059c608a8f17b9b24a5a29662eb74934d39ea92ae22411868f07fcac29487a0",
            "0x00000000000000000000000065b142550ae82f4bb3792e1eefb2fc35541a3837"
          ],
          "data": "0x0000000000000000000000000000000000000000000000000000000000000001",
          "blockHash": "0xb4b3ff0aed413f235ad3ab7fec0930174e9577baebb1e9bbbbaf23380f5e3f7d",
          "blockNumber": "0x1cd1111",
          "blockTimestamp": "0x68247f05",
          "transactionHash": "0xa6021efa4994a764bdbda47f29de9d91a7a56a00d016269e4ebc4c7b32776f78",
          "transactionIndex": "0x9c",
          "logIndex": "0x267",
          "removed": false
        }
      ],
      "logsBloom": "0x00000000000000000000000000000000000000000000000000000000000000000000000000000000000000020000000000000000000000000000000000000000008000000000000000000000000080000000000000000000000000000000000000000000000000000000000040000000000000000000000000000000000000000000000000000000000000000000000000000000000000000000000000000000000040000040000000000000000000080000000000000000000000000000000000000000000000000000000000000000000000000000000000000000008000000000000000008000000000000000000000000000000000000000000000000000",
      "type": "0x2",
      "transactionHash": "0xa6021efa4994a764bdbda47f29de9d91a7a56a00d016269e4ebc4c7b32776f78",
      "transactionIndex": "0x9c",
      "blockHash": "0xb4b3ff0aed413f235ad3ab7fec0930174e9577baebb1e9bbbbaf23380f5e3f7d",
      "blockNumber": "0x1cd1111",
      "gasUsed": "0xce5f",
      "effectiveGasPrice": "0x1106ef",
      "from": "0xb819a871d20913839c37f316dc914b0570bfc0ee",
      "to": "0xc7bc6bd45eb84d594f51ced3c5497e6812c7732f",
      "contractAddress": null,
      "l1BaseFeeScalar": "0x8dd",
      "l1BlobBaseFee": "0x1",
      "l1BlobBaseFeeScalar": "0x101c12",
      "l1Fee": "0x1403ea9ed",
      "l1GasPrice": "0x5836445b",
      "l1GasUsed": "0x640"
    },
    {
      "status": "0x1",
      "cumulativeGasUsed": "0x2105ab6",
      "logs": [
        {
          "address": "0xc7bc6bd45eb84d594f51ced3c5497e6812c7732f",
          "topics": [
            "0x4059c608a8f17b9b24a5a29662eb74934d39ea92ae22411868f07fcac29487a0",
            "0x00000000000000000000000075149feebb20e1fe5ddb89302a6d4bace70c14ce"
          ],
          "data": "0x0000000000000000000000000000000000000000000000000000000000000001",
          "blockHash": "0xddfa3fb6f30c883462e7599831e0aed04f983a5b1b94d839b49bb88188db34d2",
          "blockNumber": "0x1cd1113",
          "blockTimestamp": "0x68247f09",
          "transactionHash": "0x04188c394cfc737b0acbc270102f8c1a9c569c60553a38ed4c58002cd9d93155",
          "transactionIndex": "0x8f",
          "logIndex": "0x342",
          "removed": false
        }
      ],
      "logsBloom": "0x00000000000000200000000000000000000000000000000000000000000000000000000000000000040000020000000000000000000000000000000000000000008000000000000000000000000080000000000000000000000000000000000000000000000000000000000040000000000000000000000000000000000000000000000000000000000000000000000000000000000000000000000000000000000000000040000000000000000010000000000000000000000000000000000000000000000000000000000000000000000000000000000000000000000000000000000000008000000000000000000000000000000000000000000000000000",
      "type": "0x2",
      "transactionHash": "0x04188c394cfc737b0acbc270102f8c1a9c569c60553a38ed4c58002cd9d93155",
      "transactionIndex": "0x8f",
      "blockHash": "0xddfa3fb6f30c883462e7599831e0aed04f983a5b1b94d839b49bb88188db34d2",
      "blockNumber": "0x1cd1113",
      "gasUsed": "0xce5f",
      "effectiveGasPrice": "0x110c6e",
      "from": "0xb819a871d20913839c37f316dc914b0570bfc0ee",
      "to": "0xc7bc6bd45eb84d594f51ced3c5497e6812c7732f",
      "contractAddress": null,
      "l1BaseFeeScalar": "0x8dd",
      "l1BlobBaseFee": "0x1",
      "l1BlobBaseFeeScalar": "0x101c12",
      "l1Fee": "0x1403ea9ed",
      "l1GasPrice": "0x5836445b",
      "l1GasUsed": "0x640"
    },
    {
      "status": "0x1",
      "cumulativeGasUsed": "0x2c89814",
      "logs": [
        {
          "address": "0xc7bc6bd45eb84d594f51ced3c5497e6812c7732f",
          "topics": [
            "0x4059c608a8f17b9b24a5a29662eb74934d39ea92ae22411868f07fcac29487a0",
            "0x00000000000000000000000065b6d4770dadcfba6d363de86aa4d9c76283cea0"
          ],
          "data": "0x0000000000000000000000000000000000000000000000000000000000000001",
          "blockHash": "0xfacd27ae3a9eb8aec658a133c92699bf437feddb8d4a7d1a762b41b66b554a40",
          "blockNumber": "0x1cd1115",
          "blockTimestamp": "0x68247f0d",
          "transactionHash": "0xe091c55e249a91f61414eceefbd6d8743cf7eaea3432a35ce624564d87737434",
          "transactionIndex": "0x95",
          "logIndex": "0x22d",
          "removed": false
        }
      ],
      "logsBloom": "0x00000000800000000000000000000000000000000000000000000000000000000000000000000000000002020000000000000000000000000000000000000000008000000000000000000000000080000000000000000000000000000000000000000000000000000000000040000000000000000000000000000000000000000000000000000000000000000000000000000000000000000000000000000000000000000040000000000000000000000000000000000000000000000000000000000000000000000000000000000000002000000000000000000000000000000000000000008000000000000000000000000000000000000000000000000000",
      "type": "0x2",
      "transactionHash": "0xe091c55e249a91f61414eceefbd6d8743cf7eaea3432a35ce624564d87737434",
      "transactionIndex": "0x95",
      "blockHash": "0xfacd27ae3a9eb8aec658a133c92699bf437feddb8d4a7d1a762b41b66b554a40",
      "blockNumber": "0x1cd1115",
      "gasUsed": "0xce5f",
      "effectiveGasPrice": "0x11091d",
      "from": "0xb819a871d20913839c37f316dc914b0570bfc0ee",
      "to": "0xc7bc6bd45eb84d594f51ced3c5497e6812c7732f",
      "contractAddress": null,
      "l1BaseFeeScalar": "0x8dd",
      "l1BlobBaseFee": "0x1",
      "l1BlobBaseFeeScalar": "0x101c12",
      "l1Fee": "0x13eeada3d",
      "l1GasPrice": "0x57d8aa58",
      "l1GasUsed": "0x640"
    },
    {
      "status": "0x1",
      "cumulativeGasUsed": "0x4e1052e",
      "logs": [
        {
          "address": "0xc7bc6bd45eb84d594f51ced3c5497e6812c7732f",
          "topics": [
            "0x4059c608a8f17b9b24a5a29662eb74934d39ea92ae22411868f07fcac29487a0",
            "0x000000000000000000000000a6a9fddc94bb4fe7520a2ea1cc2c433e18683342"
          ],
          "data": "0x0000000000000000000000000000000000000000000000000000000000000001",
          "blockHash": "0xdcc41830f51d772eedcbe2c367e74de8b07a51063645b1033264c0f88aec15e2",
          "blockNumber": "0x1cd1117",
          "blockTimestamp": "0x68247f11",
          "transactionHash": "0x4557a68afe7944f20a14cf5f9918c48e56319ec22ca746489ab1ae5bcf6e5f37",
          "transactionIndex": "0xd6",
          "logIndex": "0x55b",
          "removed": false
        }
      ],
      "logsBloom": "0x00000000000040000000000000000000000000000000000000000000000000000000000000000000000000020000000000000000000000000000000000000000008000000000000000000000000080400000000000000000000000000000000000000000000000000000000040000000000000000000000000000000000000000000000000000000000000000000000000000000000000000000000000000000000000000040000002000000000000000000000000000000000000000000000000000000000000000000000000000000000000000000000000000000000000000000000000008000000000000000000000000000000000000000000000000000",
      "type": "0x2",
      "transactionHash": "0x4557a68afe7944f20a14cf5f9918c48e56319ec22ca746489ab1ae5bcf6e5f37",
      "transactionIndex": "0xd6",
      "blockHash": "0xdcc41830f51d772eedcbe2c367e74de8b07a51063645b1033264c0f88aec15e2",
      "blockNumber": "0x1cd1117",
      "gasUsed": "0xce5f",
      "effectiveGasPrice": "0x110937",
      "from": "0xb819a871d20913839c37f316dc914b0570bfc0ee",
      "to": "0xc7bc6bd45eb84d594f51ced3c5497e6812c7732f",
      "contractAddress": null,
      "l1BaseFeeScalar": "0x8dd",
      "l1BlobBaseFee": "0x1",
      "l1BlobBaseFeeScalar": "0x101c12",
      "l1Fee": "0x13eeada3d",
      "l1GasPrice": "0x57d8aa58",
      "l1GasUsed": "0x640"
    },
    {
      "status": "0x1",
      "cumulativeGasUsed": "0x1aa283a",
      "logs": [
        {
          "address": "0xc7bc6bd45eb84d594f51ced3c5497e6812c7732f",
          "topics": [
            "0x4059c608a8f17b9b24a5a29662eb74934d39ea92ae22411868f07fcac29487a0",
            "0x00000000000000000000000018d04f05f80ade5373849385a1c24e1e0a6d1744"
          ],
          "data": "0x0000000000000000000000000000000000000000000000000000000000000001",
          "blockHash": "0x30542b2da6a7cf0804f36e9a9222c542ed59b641ab20c889615f10587a36b60b",
          "blockNumber": "0x1cd1119",
          "blockTimestamp": "0x68247f15",
          "transactionHash": "0x12561411ab0575328b61788180759c2f814e04f459afdd9093775e01384c9a63",
          "transactionIndex": "0x43",
          "logIndex": "0x143",
          "removed": false
        }
      ],
      "logsBloom": "0x00000000000000000000000000000000000000000000000000000000000000000000000000000000000000020000000000000000000000000000000000000000008000000000000000000000000180000000000000000000000000000000000000000000000000000000000040000000000000000000000000000000000000000000000000000000000000000000000000000000000000000000000000000000000000000040000000000000000000000000000000000000000000000000000000000000000100000000000000000000000000000000000000000000000000000000000000008000000000000004000000000000000000000000000000000000",
      "type": "0x2",
      "transactionHash": "0x12561411ab0575328b61788180759c2f814e04f459afdd9093775e01384c9a63",
      "transactionIndex": "0x43",
      "blockHash": "0x30542b2da6a7cf0804f36e9a9222c542ed59b641ab20c889615f10587a36b60b",
      "blockNumber": "0x1cd1119",
      "gasUsed": "0xce5f",
      "effectiveGasPrice": "0x1110bc",
      "from": "0xb819a871d20913839c37f316dc914b0570bfc0ee",
      "to": "0xc7bc6bd45eb84d594f51ced3c5497e6812c7732f",
      "contractAddress": null,
      "l1BaseFeeScalar": "0x8dd",
      "l1BlobBaseFee": "0x1",
      "l1BlobBaseFeeScalar": "0x101c12",
      "l1Fee": "0x13eeada3d",
      "l1GasPrice": "0x57d8aa58",
      "l1GasUsed": "0x640"
    },
    {
      "status": "0x1",
      "cumulativeGasUsed": "0x4c894da",
      "logs": [
        {
          "address": "0xc7bc6bd45eb84d594f51ced3c5497e6812c7732f",
          "topics": [
            "0x4059c608a8f17b9b24a5a29662eb74934d39ea92ae22411868f07fcac29487a0",
            "0x000000000000000000000000bd9c90d6774cb5320b54bb7998b6bcc5e4a9071f"
          ],
          "data": "0x0000000000000000000000000000000000000000000000000000000000000001",
          "blockHash": "0x9aa05edb696f769b77194b84965145993d902fbe77cf87dac984107d3bff1753",
          "blockNumber": "0x1cd111c",
          "blockTimestamp": "0x68247f1b",
          "transactionHash": "0x939f600a0a2fc319d303181e521e882eaa59736699525efce1b7282037863167",
          "transactionIndex": "0x8a",
          "logIndex": "0x3f3",
          "removed": false
        }
      ],
      "logsBloom": "0x00000000000000000000000000000000000000000000000000000000000000000000000000002000000000020000000000000000000040000000000000000000008000000000000000000000000080000000000000000000000000000000000000000000000000000000000040000000000000000000000000000000000000000000000000000000000000000000000000000000000000000000000000000000000000000040000000000000000000000000000000800000000000000000000000000000000000000000000000000000000000000000000000000000000000000000000000008000000000000000000000000000000000000000000000000000",
      "type": "0x2",
      "transactionHash": "0x939f600a0a2fc319d303181e521e882eaa59736699525efce1b7282037863167",
      "transactionIndex": "0x8a",
      "blockHash": "0x9aa05edb696f769b77194b84965145993d902fbe77cf87dac984107d3bff1753",
      "blockNumber": "0x1cd111c",
      "gasUsed": "0xce5f",
      "effectiveGasPrice": "0x111b35",
      "from": "0xb819a871d20913839c37f316dc914b0570bfc0ee",
      "to": "0xc7bc6bd45eb84d594f51ced3c5497e6812c7732f",
      "contractAddress": null,
      "l1BaseFeeScalar": "0x8dd",
      "l1BlobBaseFee": "0x1",
      "l1BlobBaseFeeScalar": "0x101c12",
      "l1Fee": "0x140ead909",
      "l1GasPrice": "0x5865b206",
      "l1GasUsed": "0x640"
    },
    {
      "status": "0x1",
      "cumulativeGasUsed": "0x332fa3d",
      "logs": [
        {
          "address": "0xc7bc6bd45eb84d594f51ced3c5497e6812c7732f",
          "topics": [
            "0x4059c608a8f17b9b24a5a29662eb74934d39ea92ae22411868f07fcac29487a0",
            "0x0000000000000000000000008f2eaba31b1b613ca78f2795ba05400f0583c5a4"
          ],
          "data": "0x0000000000000000000000000000000000000000000000000000000000000001",
          "blockHash": "0x65fe4d1985149754ee5eac8ec4b6716f4a62871b489130ccb64a6b3e3b9cd788",
          "blockNumber": "0x1cd111e",
          "blockTimestamp": "0x68247f1f",
          "transactionHash": "0x8f4ab2d620b8d1d64e3faf9aaafed2384fa04dee0556cb35fe6784189eb0e1ad",
          "transactionIndex": "0xd4",
          "logIndex": "0x287",
          "removed": false
        }
      ],
      "logsBloom": "0x00000000000000000000000000000000000000000000000000000000000000000000000000000000000000020000000000000000000000000000000000000000008000000000000000000000000080000000000000000000000000000000000000000000000000000000001040000000000000000000000000000000000000000000000000000000000000000000000000000000000000000000000000000000000000000040000000000000000000000000000000000000000000000000000000004000000000000000000000002000000000000000000000000000000000000000000000008000000000000000000000000000000000000000000000000000",
      "type": "0x2",
      "transactionHash": "0x8f4ab2d620b8d1d64e3faf9aaafed2384fa04dee0556cb35fe6784189eb0e1ad",
      "transactionIndex": "0xd4",
      "blockHash": "0x65fe4d1985149754ee5eac8ec4b6716f4a62871b489130ccb64a6b3e3b9cd788",
      "blockNumber": "0x1cd111e",
      "gasUsed": "0xce5f",
      "effectiveGasPrice": "0x112093",
      "from": "0xb819a871d20913839c37f316dc914b0570bfc0ee",
      "to": "0xc7bc6bd45eb84d594f51ced3c5497e6812c7732f",
      "contractAddress": null,
      "l1BaseFeeScalar": "0x8dd",
      "l1BlobBaseFee": "0x1",
      "l1BlobBaseFeeScalar": "0x101c12",
      "l1Fee": "0x140ead909",
      "l1GasPrice": "0x5865b206",
      "l1GasUsed": "0x640"
    },
    {
      "status": "0x1",
      "cumulativeGasUsed": "0x2fc1664",
      "logs": [
        {
          "address": "0xc7bc6bd45eb84d594f51ced3c5497e6812c7732f",
          "topics": [
            "0x4059c608a8f17b9b24a5a29662eb74934d39ea92ae22411868f07fcac29487a0",
            "0x0000000000000000000000008f2eaba31b1b613ca78f2795ba05400f0583c5a4"
          ],
          "data": "0x0000000000000000000000000000000000000000000000000000000000000001",
          "blockHash": "0x8269002368ca0a7f63991f217e9c9ae7da524953e8a16d32e112ffc9d8d9d7f4",
          "blockNumber": "0x1cd1120",
          "blockTimestamp": "0x68247f23",
          "transactionHash": "0x650370de9d3e46426c5898f8c7979c4548e9bbd3868942f1a2bc05b19ce2fc16",
          "transactionIndex": "0xc2",
          "logIndex": "0x3fb",
          "removed": false
        }
      ],
      "logsBloom": "0x00000000000000000000000000000000000000000000000000000000000000000000000000000000000000020000000000000000000000000000000000000000008000000000000000000000000080000000000000000000000000000000000000000000000000000000001040000000000000000000000000000000000000000000000000000000000000000000000000000000000000000000000000000000000000000040000000000000000000000000000000000000000000000000000000004000000000000000000000002000000000000000000000000000000000000000000000008000000000000000000000000000000000000000000000000000",
      "type": "0x2",
      "transactionHash": "0x650370de9d3e46426c5898f8c7979c4548e9bbd3868942f1a2bc05b19ce2fc16",
      "transactionIndex": "0xc2",
      "blockHash": "0x8269002368ca0a7f63991f217e9c9ae7da524953e8a16d32e112ffc9d8d9d7f4",
      "blockNumber": "0x1cd1120",
      "gasUsed": "0x80a3",
      "effectiveGasPrice": "0x1122b6",
      "from": "0xb819a871d20913839c37f316dc914b0570bfc0ee",
      "to": "0xc7bc6bd45eb84d594f51ced3c5497e6812c7732f",
      "contractAddress": null,
      "l1BaseFeeScalar": "0x8dd",
      "l1BlobBaseFee": "0x1",
      "l1BlobBaseFeeScalar": "0x101c12",
      "l1Fee": "0x140ead909",
      "l1GasPrice": "0x5865b206",
      "l1GasUsed": "0x640"
    },
    {
      "status": "0x1",
      "cumulativeGasUsed": "0x4959206",
      "logs": [
        {
          "address": "0xc7bc6bd45eb84d594f51ced3c5497e6812c7732f",
          "topics": [
            "0x4059c608a8f17b9b24a5a29662eb74934d39ea92ae22411868f07fcac29487a0",
            "0x00000000000000000000000050d8deadd2b3140b151cab2c4fb76f1f59b236f8"
          ],
          "data": "0x0000000000000000000000000000000000000000000000000000000000000001",
          "blockHash": "0xea53c7a1c63c28acecc2b547346326c748a0a6ad6cedd94d2acd853eb757495f",
          "blockNumber": "0x1cd1122",
          "blockTimestamp": "0x68247f27",
          "transactionHash": "0xb67e9aa25a1c3e20624d8a2b82df3bba503ec4725a02bab57765662f32cf4275",
          "transactionIndex": "0xe3",
          "logIndex": "0x326",
          "removed": false
        }
      ],
      "logsBloom": "0x00000000000000000000000000000000000000000000200000000000000000000000000000000000000000020000000000000000000000000000000000000000008000000000000000000000000080000000000000000000000000000000000000000000000000000000000040000000000000000000000000000000020000000000000000000000000000000000000000000000000000000000000000000000000000000040000000000000000000000000000000000000000000000000000000000000000000000000000000000000000000000000000000000000000000000000000000808000000000000000000000000000000000000000000000000000",
      "type": "0x2",
      "transactionHash": "0xb67e9aa25a1c3e20624d8a2b82df3bba503ec4725a02bab57765662f32cf4275",
      "transactionIndex": "0xe3",
      "blockHash": "0xea53c7a1c63c28acecc2b547346326c748a0a6ad6cedd94d2acd853eb757495f",
      "blockNumber": "0x1cd1122",
      "gasUsed": "0x80a3",
      "effectiveGasPrice": "0x111c0b",
      "from": "0xb819a871d20913839c37f316dc914b0570bfc0ee",
      "to": "0xc7bc6bd45eb84d594f51ced3c5497e6812c7732f",
      "contractAddress": null,
      "l1BaseFeeScalar": "0x8dd",
      "l1BlobBaseFee": "0x1",
      "l1BlobBaseFeeScalar": "0x101c12",
      "l1Fee": "0x12c912e6e",
      "l1GasPrice": "0x52caaf08",
      "l1GasUsed": "0x640"
    },
    {
      "status": "0x1",
      "cumulativeGasUsed": "0x2c29ee0",
      "logs": [
        {
          "address": "0xc7bc6bd45eb84d594f51ced3c5497e6812c7732f",
          "topics": [
            "0x4059c608a8f17b9b24a5a29662eb74934d39ea92ae22411868f07fcac29487a0",
            "0x000000000000000000000000574582c44e3f1ef2cb29a7131b057febbcc8244e"
          ],
          "data": "0x0000000000000000000000000000000000000000000000000000000000000001",
          "blockHash": "0xccda84770f46146aacaea9c1c9ba5ca96a8795aa1120ea99d8867a5f41d1f5fa",
          "blockNumber": "0x1cd1125",
          "blockTimestamp": "0x68247f2d",
          "transactionHash": "0x0c913dad6d130de6cbd495e1395ddb7d7d59ad8f201a36acb4e72f6f01efb141",
          "transactionIndex": "0xac",
          "logIndex": "0x2a4",
          "removed": false
        }
      ],
      "logsBloom": "0x00000000000000000000000000000000000000000000000000000000000000000000000000000000000000020000000000000000000000000000000000000000008000000000200000000000000080000000000000000000000000000000000000000000000000000000000040000000000000000000000000000000000000000000000000000000000000100000000000000000000000000000000000000000004000000040000000000000000000000000000000000000000000000000000000000000000000000000000000000000000000000000000000000000000000000000000000008000000000000000000000000000000000000000000000000000",
      "type": "0x2",
      "transactionHash": "0x0c913dad6d130de6cbd495e1395ddb7d7d59ad8f201a36acb4e72f6f01efb141",
      "transactionIndex": "0xac",
      "blockHash": "0xccda84770f46146aacaea9c1c9ba5ca96a8795aa1120ea99d8867a5f41d1f5fa",
      "blockNumber": "0x1cd1125",
      "gasUsed": "0x80a3",
      "effectiveGasPrice": "0x113489",
      "from": "0xb819a871d20913839c37f316dc914b0570bfc0ee",
      "to": "0xc7bc6bd45eb84d594f51ced3c5497e6812c7732f",
      "contractAddress": null,
      "l1BaseFeeScalar": "0x8dd",
      "l1BlobBaseFee": "0x1",
      "l1BlobBaseFeeScalar": "0x101c12",
      "l1Fee": "0x12c912e6e",
      "l1GasPrice": "0x52caaf08",
      "l1GasUsed": "0x640"
    },
    {
      "status": "0x1",
      "cumulativeGasUsed": "0x351d3e8",
      "logs": [
        {
          "address": "0xc7bc6bd45eb84d594f51ced3c5497e6812c7732f",
          "topics": [
            "0x4059c608a8f17b9b24a5a29662eb74934d39ea92ae22411868f07fcac29487a0",
            "0x000000000000000000000000bd0ce952ba069a1e15f3bf3916d4b07bbbdbc8b3"
          ],
          "data": "0x0000000000000000000000000000000000000000000000000000000000000001",
          "blockHash": "0xdae7c01f80f71af5c2491ae6d6b347bf9af7e2b7f73469129994409bc6a734ae",
          "blockNumber": "0x1cd1127",
          "blockTimestamp": "0x68247f31",
          "transactionHash": "0xe082fa8584996ac23863cb5ad120e67b5a6ebcdce6060b63a573f20c05572378",
          "transactionIndex": "0x7c",
          "logIndex": "0x347",
          "removed": false
        }
      ],
      "logsBloom": "0x00000000000000000000000000000000000000000000000000000000000000000000000000000000000000020000000000000000000000000000000000000000008000000002000000000000000080000000000000000000000000000000000000000000000000000000000040000000000000000000000000000000000000000000000000000000000000000000000000000000000000000000000000000000000000000040000000000000000000000000000000000000000000000000000000000000008000000000010000000000000000000000000000000000000000000000000000008000000000000000000000000000000000000000000000000000",
      "type": "0x2",
      "transactionHash": "0xe082fa8584996ac23863cb5ad120e67b5a6ebcdce6060b63a573f20c05572378",
      "transactionIndex": "0x7c",
      "blockHash": "0xdae7c01f80f71af5c2491ae6d6b347bf9af7e2b7f73469129994409bc6a734ae",
      "blockNumber": "0x1cd1127",
      "gasUsed": "0xce5f",
      "effectiveGasPrice": "0x113098",
      "from": "0xb819a871d20913839c37f316dc914b0570bfc0ee",
      "to": "0xc7bc6bd45eb84d594f51ced3c5497e6812c7732f",
      "contractAddress": null,
      "l1BaseFeeScalar": "0x8dd",
      "l1BlobBaseFee": "0x1",
      "l1BlobBaseFeeScalar": "0x101c12",
      "l1Fee": "0x12fcbb1b3",
      "l1GasPrice": "0x53ae591d",
      "l1GasUsed": "0x640"
    }
  ],
  "libraries": [],
  "pending": [],
  "returns": {},
  "timestamp": 1747222326,
  "chain": 8453,
  "commit": "0b1d1bd"
}