{
  "transactions": [
    {
      "hash": "0x509a475225f88f9ebb5c6100145c2a4ee28f07916f124c8907c9b9cacf6f4e30",
      "transactionType": "CREATE",
      "contractName": "Deployer",
      "contractAddress": "0xda26c60d0f98421e8c6dac231e066f8868134368",
      "function": null,
      "arguments": null,
      "transaction": {
        "from": "0x0000e6203db925dbfb9e3d650a80a1e2f4a78e94",
        "gas": "0x6efe4",
        "value": "0x0",
        "input": "0x6080604052348015600e575f5ffd5b506105698061001c5f395ff3fe608060405260043610610028575f3560e01c80635b37e1501461002c5780637587ea9f14610068575b5f5ffd5b61003f61003a36600461040c565b610087565b60405173ffffffffffffffffffffffffffffffffffffffff909116815260200160405180910390f35b348015610073575f5ffd5b5061003f610082366004610506565b61009a565b5f6100938383346100aa565b9392505050565b5f6100a48261027a565b92915050565b5f5f6040518060400160405280601081526020017f67363d3d37363d34f03d5260086018f30000000000000000000000000000000081525090505f858251602084015ff5905073ffffffffffffffffffffffffffffffffffffffff8116610172576040517f08c379a000000000000000000000000000000000000000000000000000000000815260206004820152601160248201527f4445504c4f594d454e545f4641494c454400000000000000000000000000000060448201526064015b60405180910390fd5b61017b8661027a565b92505f8173ffffffffffffffffffffffffffffffffffffffff1685876040516101a4919061051d565b5f6040518083038185875af1925050503d805f81146101de576040519150601f19603f3d011682016040523d82523d5f602084013e6101e3565b606091505b5050905080801561020a575073ffffffffffffffffffffffffffffffffffffffff84163b15155b610270576040517f08c379a000000000000000000000000000000000000000000000000000000000815260206004820152601560248201527f494e495449414c495a4154494f4e5f4641494c454400000000000000000000006044820152606401610169565b5050509392505050565b604080518082018252601081527f67363d3d37363d34f03d5260086018f30000000000000000000000000000000060209182015290517fff00000000000000000000000000000000000000000000000000000000000000918101919091527fffffffffffffffffffffffffffffffffffffffff0000000000000000000000003060601b166021820152603581018290527f21c35dbe1b344a2488cf3321d6ce542f8e9f305544ff09e4993a62319a497c1f60558201525f908190610355906075015b6040516020818303038152906040528051906020012090565b6040517fd69400000000000000000000000000000000000000000000000000000000000060208201527fffffffffffffffffffffffffffffffffffffffff000000000000000000000000606083901b1660228201527f010000000000000000000000000000000000000000000000000000000000000060368201529091506100939060370161033c565b7f4e487b71000000000000000000000000000000000000000000000000000000005f52604160045260245ffd5b5f5f6040838503121561041d575f5ffd5b82359150602083013567ffffffffffffffff81111561043a575f5ffd5b8301601f8101851361044a575f5ffd5b803567ffffffffffffffff811115610464576104646103df565b6040517fffffffffffffffffffffffffffffffffffffffffffffffffffffffffffffffe0603f7fffffffffffffffffffffffffffffffffffffffffffffffffffffffffffffffe0601f8501160116810181811067ffffffffffffffff821117156104d0576104d06103df565b6040528181528282016020018710156104e7575f5ffd5b816020840160208301375f602083830101528093505050509250929050565b5f60208284031215610516575f5ffd5b5035919050565b5f82518060208501845e5f92019182525091905056fea26469706673582212204e1d5ab052497e736816b4fca612d00acc949fb4d60ebaecd90651397836214064736f6c634300081b0033",
        "nonce": "0x54",
        "chainId": "0xaa36a7"
      },
      "additionalContracts": [],
      "isFixedGasLimit": false
    },
    {
      "hash": "0x5e21a4bb7cbf5174940d4db7efa2a36ec38d9b7073087465a4f8d148fe643d8e",
      "transactionType": "CALL",
      "contractName": "Deployer",
      "contractAddress": "0xda26c60d0f98421e8c6dac231e066f8868134368",
      "function": "create(bytes32,bytes)",
      "arguments": [
        "0x6f9b5183e0dad8e05b819edff6721c55406b492f1d4bdcdddfee72e04f93b8bf",
        "0x6080604052348015600e575f5ffd5b506101248061001c5f395ff3fe6080604052348015600e575f5ffd5b5060043610603a575f3560e01c80633fb5c1cb14603e5780638381f58a14604f578063d09de08a146068575b5f5ffd5b604d6049366004607d565b5f55565b005b60565f5481565b60405190815260200160405180910390f35b604d5f805490806076836093565b9190505550565b5f60208284031215608c575f5ffd5b5035919050565b5f7fffffffffffffffffffffffffffffffffffffffffffffffffffffffffffffffff820360e7577f4e487b71000000000000000000000000000000000000000000000000000000005f52601160045260245ffd5b506001019056fea264697066735822122028f8155e9f269d2de2d617fad9f7cbdf5ed56a78a3ccd930ae046c848fa775b264736f6c634300081b0033"
      ],
      "transaction": {
        "from": "0x0000e6203db925dbfb9e3d650a80a1e2f4a78e94",
        "to": "0xda26c60d0f98421e8c6dac231e066f8868134368",
        "gas": "0x337a1",
        "value": "0x0",
        "input": "0x5b37e1506f9b5183e0dad8e05b819edff6721c55406b492f1d4bdcdddfee72e04f93b8bf000000000000000000000000000000000000000000000000000000000000004000000000000000000000000000000000000000000000000000000000000001406080604052348015600e575f5ffd5b506101248061001c5f395ff3fe6080604052348015600e575f5ffd5b5060043610603a575f3560e01c80633fb5c1cb14603e5780638381f58a14604f578063d09de08a146068575b5f5ffd5b604d6049366004607d565b5f55565b005b60565f5481565b60405190815260200160405180910390f35b604d5f805490806076836093565b9190505550565b5f60208284031215608c575f5ffd5b5035919050565b5f7fffffffffffffffffffffffffffffffffffffffffffffffffffffffffffffffff820360e7577f4e487b71000000000000000000000000000000000000000000000000000000005f52601160045260245ffd5b506001019056fea264697066735822122028f8155e9f269d2de2d617fad9f7cbdf5ed56a78a3ccd930ae046c848fa775b264736f6c634300081b0033",
        "nonce": "0x55",
        "chainId": "0xaa36a7"
      },
      "additionalContracts": [
        {
          "transactionType": "CREATE2",
          "address": "0x241ce7c4b2fb8db2bfec9060402e78ada2006022",
          "initCode": "0x67363d3d37363d34f03d5260086018f3"
        },
        {
          "transactionType": "CREATE",
          "address": "0xbdabaeaee63d81bfb297737ca6246cf35678f472",
          "initCode": "0x6080604052348015600e575f5ffd5b506101248061001c5f395ff3fe6080604052348015600e575f5ffd5b5060043610603a575f3560e01c80633fb5c1cb14603e5780638381f58a14604f578063d09de08a146068575b5f5ffd5b604d6049366004607d565b5f55565b005b60565f5481565b60405190815260200160405180910390f35b604d5f805490806076836093565b9190505550565b5f60208284031215608c575f5ffd5b5035919050565b5f7fffffffffffffffffffffffffffffffffffffffffffffffffffffffffffffffff820360e7577f4e487b71000000000000000000000000000000000000000000000000000000005f52601160045260245ffd5b506001019056fea264697066735822122028f8155e9f269d2de2d617fad9f7cbdf5ed56a78a3ccd930ae046c848fa775b264736f6c634300081b0033"
        }
      ],
      "isFixedGasLimit": false
    }
  ],
  "receipts": [
    {
      "status": "0x1",
      "cumulativeGasUsed": "0xb25607",
      "logs": [],
      "logsBloom": "0x00000000000000000000000000000000000000000000000000000000000000000000000000000000000000000000000000000000000000000000000000000000000000000000000000000000000000000000000000000000000000000000000000000000000000000000000000000000000000000000000000000000000000000000000000000000000000000000000000000000000000000000000000000000000000000000000000000000000000000000000000000000000000000000000000000000000000000000000000000000000000000000000000000000000000000000000000000000000000000000000000000000000000000000000000000000",
      "type": "0x2",
      "transactionHash": "0x509a475225f88f9ebb5c6100145c2a4ee28f07916f124c8907c9b9cacf6f4e30",
      "transactionIndex": "0x57",
      "blockHash": "0x72cecb58f4c4531bdf4b07583715fd6cc4ab10dce9a80b63cff74c35058528c3",
      "blockNumber": "0x688278",
      "gasUsed": "0x55612",
      "effectiveGasPrice": "0xf8ceb",
      "from": "0x0000e6203db925dbfb9e3d650a80a1e2f4a78e94",
      "to": null,
      "contractAddress": "0xda26c60d0f98421e8c6dac231e066f8868134368"
    },
    {
      "status": "0x1",
      "cumulativeGasUsed": "0xb4aa53",
      "logs": [],
      "logsBloom": "0x00000000000000000000000000000000000000000000000000000000000000000000000000000000000000000000000000000000000000000000000000000000000000000000000000000000000000000000000000000000000000000000000000000000000000000000000000000000000000000000000000000000000000000000000000000000000000000000000000000000000000000000000000000000000000000000000000000000000000000000000000000000000000000000000000000000000000000000000000000000000000000000000000000000000000000000000000000000000000000000000000000000000000000000000000000000",
      "type": "0x2",
      "transactionHash": "0x5e21a4bb7cbf5174940d4db7efa2a36ec38d9b7073087465a4f8d148fe643d8e",
      "transactionIndex": "0x58",
      "blockHash": "0x72cecb58f4c4531bdf4b07583715fd6cc4ab10dce9a80b63cff74c35058528c3",
      "blockNumber": "0x688278",
      "gasUsed": "0x2544c",
      "effectiveGasPrice": "0xf8ceb",
      "from": "0x0000e6203db925dbfb9e3d650a80a1e2f4a78e94",
      "to": "0xda26c60d0f98421e8c6dac231e066f8868134368",
      "contractAddress": null
    }
  ],
  "libraries": [],
  "pending": [],
  "returns": {},
  "timestamp": 1728547352,
  "chain": 11155111,
  "commit": "3791740"
}