{
  "transactions": [
    {
      "hash": "0xdcf844e1ae8f7ab3ff6a1e6eb32d1b9afebdf1be9289c3cdc94fd601bab80951",
      "transactionType": "CALL",
      "contractName": null,
      "contractAddress": "0x269c36a173d881720544fb303e681370158ff1fd",
      "function": "updateAllowedChain(uint32,bool)",
      "arguments": [
        "1",
        "true"
      ],
      "transaction": {
        "from": "0xb819a871d20913839c37f316dc914b0570bfc0ee",
        "to": "0x269c36a173d881720544fb303e681370158ff1fd",
        "gas": "0x12c6c",
        "value": "0x0",
        "input": "0x99c4383700000000000000000000000000000000000000000000000000000000000000010000000000000000000000000000000000000000000000000000000000000001",
        "nonce": "0x20c",
        "chainId": "0xe708"
      },
      "additionalContracts": [],
      "isFixedGasLimit": false
    },
    {
      "hash": "0xeb7252470d4d14219b97603815cbe426c7b04a25695414a1247ba6da7ac046b5",
      "transactionType": "CALL",
      "contractName": null,
      "contractAddress": "0xc7bc6bd45eb84d594f51ced3c5497e6812c7732f",
      "function": "updateAllowedChain(uint32,bool)",
      "arguments": [
        "1",
        "true"
      ],
      "transaction": {
        "from": "0xb819a871d20913839c37f316dc914b0570bfc0ee",
        "to": "0xc7bc6bd45eb84d594f51ced3c5497e6812c7732f",
        "gas": "0x12c6c",
        "value": "0x0",
        "input": "0x99c4383700000000000000000000000000000000000000000000000000000000000000010000000000000000000000000000000000000000000000000000000000000001",
        "nonce": "0x20d",
        "chainId": "0xe708"
      },
      "additionalContracts": [],
      "isFixedGasLimit": false
    },
    {
      "hash": "0xd510473c87ca71a8a810cd1bb21f41222da8fa9b752ecf1c7ff1f6ff5dbbd63a",
      "transactionType": "CALL",
      "contractName": null,
      "contractAddress": "0xdf0635c1ecfdf08146150691a97e2ff6a8aa1a90",
      "function": "updateAllowedChain(uint32,bool)",
      "arguments": [
        "1",
        "true"
      ],
      "transaction": {
        "from": "0xb819a871d20913839c37f316dc914b0570bfc0ee",
        "to": "0xdf0635c1ecfdf08146150691a97e2ff6a8aa1a90",
        "gas": "0x12c6c",
        "value": "0x0",
        "input": "0x99c4383700000000000000000000000000000000000000000000000000000000000000010000000000000000000000000000000000000000000000000000000000000001",
        "nonce": "0x20e",
        "chainId": "0xe708"
      },
      "additionalContracts": [],
      "isFixedGasLimit": false
    },
    {
      "hash": "0xe2b8d34c1ddd00ca4a104d3b1876394fc6618a8bc086655f46bd196d9ff2ed6b",
      "transactionType": "CALL",
      "contractName": null,
      "contractAddress": "0x2b588f7f4832561e46924f3ea54c244569724915",
      "function": "updateAllowedChain(uint32,bool)",
      "arguments": [
        "1",
        "true"
      ],
      "transaction": {
        "from": "0xb819a871d20913839c37f316dc914b0570bfc0ee",
        "to": "0x2b588f7f4832561e46924f3ea54c244569724915",
        "gas": "0x12c6c",
        "value": "0x0",
        "input": "0x99c4383700000000000000000000000000000000000000000000000000000000000000010000000000000000000000000000000000000000000000000000000000000001",
        "nonce": "0x20f",
        "chainId": "0xe708"
      },
      "additionalContracts": [],
      "isFixedGasLimit": false
    },
    {
      "hash": "0x9467a98e64963a2fb095fa080b55d3ac53b12bb50bb8332d73dd604933ff9903",
      "transactionType": "CALL",
      "contractName": null,
      "contractAddress": "0x1d8e8cefeb085f3211ab6a443ad9051b54d1cd1a",
      "function": "updateAllowedChain(uint32,bool)",
      "arguments": [
        "1",
        "true"
      ],
      "transaction": {
        "from": "0xb819a871d20913839c37f316dc914b0570bfc0ee",
        "to": "0x1d8e8cefeb085f3211ab6a443ad9051b54d1cd1a",
        "gas": "0x12c6c",
        "value": "0x0",
        "input": "0x99c4383700000000000000000000000000000000000000000000000000000000000000010000000000000000000000000000000000000000000000000000000000000001",
        "nonce": "0x210",
        "chainId": "0xe708"
      },
      "additionalContracts": [],
      "isFixedGasLimit": false
    },
    {
      "hash": "0x88dc58d6aec158e1271f7f2d1e7747c58a4f67cec123ae1c409d9e9ab3f184df",
      "transactionType": "CALL",
      "contractName": null,
      "contractAddress": "0x0b3c6645f4f2442ad4bbee2e2273a250461ca6f8",
      "function": "updateAllowedChain(uint32,bool)",
      "arguments": [
        "1",
        "true"
      ],
      "transaction": {
        "from": "0xb819a871d20913839c37f316dc914b0570bfc0ee",
        "to": "0x0b3c6645f4f2442ad4bbee2e2273a250461ca6f8",
        "gas": "0x12c6c",
        "value": "0x0",
        "input": "0x99c4383700000000000000000000000000000000000000000000000000000000000000010000000000000000000000000000000000000000000000000000000000000001",
        "nonce": "0x211",
        "chainId": "0xe708"
      },
      "additionalContracts": [],
      "isFixedGasLimit": false
    },
    {
      "hash": "0xcd58ecc430c17ae003d803e814611b190256bd5e2893b5e7569618816aea3142",
      "transactionType": "CALL",
      "contractName": null,
      "contractAddress": "0x8bad0c523516262a439197736fff982f5e0987cc",
      "function": "updateAllowedChain(uint32,bool)",
      "arguments": [
        "1",
        "true"
      ],
      "transaction": {
        "from": "0xb819a871d20913839c37f316dc914b0570bfc0ee",
        "to": "0x8bad0c523516262a439197736fff982f5e0987cc",
        "gas": "0x12c6c",
        "value": "0x0",
        "input": "0x99c4383700000000000000000000000000000000000000000000000000000000000000010000000000000000000000000000000000000000000000000000000000000001",
        "nonce": "0x212",
        "chainId": "0xe708"
      },
      "additionalContracts": [],
      "isFixedGasLimit": false
    },
    {
      "hash": "0x1cc117f1189b779564e9f39b98f1d9312e99472e83f24848b7112008c59e20c1",
      "transactionType": "CALL",
      "contractName": null,
      "contractAddress": "0x4df3dd62db219c47f6a7cb1be02c511afceadf5e",
      "function": "updateAllowedChain(uint32,bool)",
      "arguments": [
        "1",
        "true"
      ],
      "transaction": {
        "from": "0xb819a871d20913839c37f316dc914b0570bfc0ee",
        "to": "0x4df3dd62db219c47f6a7cb1be02c511afceadf5e",
        "gas": "0x12c6c",
        "value": "0x0",
        "input": "0x99c4383700000000000000000000000000000000000000000000000000000000000000010000000000000000000000000000000000000000000000000000000000000001",
        "nonce": "0x213",
        "chainId": "0xe708"
      },
      "additionalContracts": [],
      "isFixedGasLimit": false
    }
  ],
  "receipts": [
    {
      "status": "0x1",
      "cumulativeGasUsed": "0x12b7b",
      "logs": [
        {
          "address": "0x269c36a173d881720544fb303e681370158ff1fd",
          "topics": [
            "0x3615c8513bc6436318086c0663e19b0334871c8c175a33b9340c3ecab97137cc",
            "0x0000000000000000000000000000000000000000000000000000000000000001"
          ],
          "data": "0x0000000000000000000000000000000000000000000000000000000000000001",
          "blockHash": "0x04886ff9645dc10236907c6e40d23a8928e341e83e89e2691360d5ca20c0f4c5",
          "blockNumber": "0x122d455",
          "transactionHash": "0xdcf844e1ae8f7ab3ff6a1e6eb32d1b9afebdf1be9289c3cdc94fd601bab80951",
          "transactionIndex": "0x1",
          "logIndex": "0x1",
          "removed": false
        }
      ],
      "logsBloom": "0x000000000000000000000000000000000000000000000000000000000000000000000000000000080000000000000000000000120000200000000000000400000000000000000000000000000000000000000000000400000000000000000000000000000000000000000000000000000000000000000000000000000000000000000000000000000000000000000000000000000000000000000000000000000000000000000000001000000000000000000000000000000000000000000000000000000000000000000000000000000000000000000000000000000000c0000000000000000000000000000000000000000000000000000000000000000000",
      "type": "0x2",
      "transactionHash": "0xdcf844e1ae8f7ab3ff6a1e6eb32d1b9afebdf1be9289c3cdc94fd601bab80951",
      "transactionIndex": "0x1",
      "blockHash": "0x04886ff9645dc10236907c6e40d23a8928e341e83e89e2691360d5ca20c0f4c5",
      "blockNumber": "0x122d455",
      "gasUsed": "0xcd6b",
      "effectiveGasPrice": "0x3c56ab3",
      "from": "0xb819a871d20913839c37f316dc914b0570bfc0ee",
      "to": "0x269c36a173d881720544fb303e681370158ff1fd",
      "contractAddress": null
    },
    {
      "status": "0x1",
      "cumulativeGasUsed": "0xcd6b",
      "logs": [
        {
          "address": "0xc7bc6bd45eb84d594f51ced3c5497e6812c7732f",
          "topics": [
            "0x3615c8513bc6436318086c0663e19b0334871c8c175a33b9340c3ecab97137cc",
            "0x0000000000000000000000000000000000000000000000000000000000000001"
          ],
          "data": "0x0000000000000000000000000000000000000000000000000000000000000001",
          "blockHash": "0x00293213020c9528dfa621c3c55de9cda333740b2209d55754c46f6482f763f5",
          "blockNumber": "0x122d457",
          "transactionHash": "0xeb7252470d4d14219b97603815cbe426c7b04a25695414a1247ba6da7ac046b5",
          "transactionIndex": "0x0",
          "logIndex": "0x0",
          "removed": false
        }
      ],
      "logsBloom": "0x000000000000000000000000000000000000000000000000000000000000000000000000000000000000000000000000000000020000200000000000000400000080000000000000000000000000800000000000000400000000000000000000000000000000000000000000400000000000000000000000000000000000000000000000000000000000000000000000000000000000000000000000000000000000000000000000000000000000000000000000000000000000000000000000000000000000000000000000000000000000000000000000000000000000c0000000000000000000000000000000000000000000000000000000000000000000",
      "type": "0x2",
      "transactionHash": "0xeb7252470d4d14219b97603815cbe426c7b04a25695414a1247ba6da7ac046b5",
      "transactionIndex": "0x0",
      "blockHash": "0x00293213020c9528dfa621c3c55de9cda333740b2209d55754c46f6482f763f5",
      "blockNumber": "0x122d457",
      "gasUsed": "0xcd6b",
      "effectiveGasPrice": "0x3c56ab3",
      "from": "0xb819a871d20913839c37f316dc914b0570bfc0ee",
      "to": "0xc7bc6bd45eb84d594f51ced3c5497e6812c7732f",
      "contractAddress": null
    },
    {
      "status": "0x1",
      "cumulativeGasUsed": "0x35968",
      "logs": [
        {
          "address": "0xdf0635c1ecfdf08146150691a97e2ff6a8aa1a90",
          "topics": [
            "0x3615c8513bc6436318086c0663e19b0334871c8c175a33b9340c3ecab97137cc",
            "0x0000000000000000000000000000000000000000000000000000000000000001"
          ],
          "data": "0x0000000000000000000000000000000000000000000000000000000000000001",
          "blockHash": "0x799e8f08c10e442b45a1077a39ed06421cde21dec62bf6127a608d70bd16c634",
          "blockNumber": "0x122d459",
          "transactionHash": "0xd510473c87ca71a8a810cd1bb21f41222da8fa9b752ecf1c7ff1f6ff5dbbd63a",
          "transactionIndex": "0x2",
          "logIndex": "0x4",
          "removed": false
        }
      ],
      "logsBloom": "0x000000000000010000000000000000000000000000000000000000000000000000000000000000000000000000000020000000020000200000004000000400000000000000000000000000000000000000000000000400000000000000000000000000000000000000000000000000000000000000000000000000000000000000000000000000000000000000000000000000000000000000000000000000000000000000000000000000000000000000000000000000000000000000000000000000000000000000000000000000000000000000000000000000000000c0000000000000000000000000000000000000000000000000000000000000000000",
      "type": "0x2",
      "transactionHash": "0xd510473c87ca71a8a810cd1bb21f41222da8fa9b752ecf1c7ff1f6ff5dbbd63a",
      "transactionIndex": "0x2",
      "blockHash": "0x799e8f08c10e442b45a1077a39ed06421cde21dec62bf6127a608d70bd16c634",
      "blockNumber": "0x122d459",
      "gasUsed": "0xcd6b",
      "effectiveGasPrice": "0x3c56ab3",
      "from": "0xb819a871d20913839c37f316dc914b0570bfc0ee",
      "to": "0xdf0635c1ecfdf08146150691a97e2ff6a8aa1a90",
      "contractAddress": null
    },
    {
      "status": "0x1",
      "cumulativeGasUsed": "0xcd6b",
      "logs": [
        {
          "address": "0x2b588f7f4832561e46924f3ea54c244569724915",
          "topics": [
            "0x3615c8513bc6436318086c0663e19b0334871c8c175a33b9340c3ecab97137cc",
            "0x0000000000000000000000000000000000000000000000000000000000000001"
          ],
          "data": "0x0000000000000000000000000000000000000000000000000000000000000001",
          "blockHash": "0x0314cc925caeb21e80d92edab1cfa02c4bfc8c0947f77e5c69d9a2757fa23138",
          "blockNumber": "0x122d45b",
          "transactionHash": "0xe2b8d34c1ddd00ca4a104d3b1876394fc6618a8bc086655f46bd196d9ff2ed6b",
          "transactionIndex": "0x0",
          "logIndex": "0x0",
          "removed": false
        }
      ],
      "logsBloom": "0x000000000000000000000000000000000000000000000000000000000000000000000000000000000000000000000000000000020000200000000000000600000000002000000000000000000000000000000000000400000000000000000000000000000000000000000000000000000000000000000000000000000000000000000000000000000000000000000000000000000000000000000000000000000000000000000000000000000000000000000000000000000000000000000000000000000000000000000000000000000000000000000000000000000000c0000000000000000000000000000000000000000000000000000000000000020000",
      "type": "0x2",
      "transactionHash": "0xe2b8d34c1ddd00ca4a104d3b1876394fc6618a8bc086655f46bd196d9ff2ed6b",
      "transactionIndex": "0x0",
      "blockHash": "0x0314cc925caeb21e80d92edab1cfa02c4bfc8c0947f77e5c69d9a2757fa23138",
      "blockNumber": "0x122d45b",
      "gasUsed": "0xcd6b",
      "effectiveGasPrice": "0x3c56ab3",
      "from": "0xb819a871d20913839c37f316dc914b0570bfc0ee",
      "to": "0x2b588f7f4832561e46924f3ea54c244569724915",
      "contractAddress": null
    },
    {
      "status": "0x1",
      "cumulativeGasUsed": "0x14b83",
      "logs": [
        {
          "address": "0x1d8e8cefeb085f3211ab6a443ad9051b54d1cd1a",
          "topics": [
            "0x3615c8513bc6436318086c0663e19b0334871c8c175a33b9340c3ecab97137cc",
            "0x0000000000000000000000000000000000000000000000000000000000000001"
          ],
          "data": "0x0000000000000000000000000000000000000000000000000000000000000001",
          "blockHash": "0x65c3290eda83500a248bd114a0b3ce2bdaf653be3c278607725d203aac5fd233",
          "blockNumber": "0x122d45d",
          "transactionHash": "0x9467a98e64963a2fb095fa080b55d3ac53b12bb50bb8332d73dd604933ff9903",
          "transactionIndex": "0x1",
          "logIndex": "0x0",
          "removed": false
        }
      ],
      "logsBloom": "0x000000000000000000000000020000000000000008000000000000000000000000000000000000000000000000000000000000020000200000000000000400000000000000000000000000000000000000000000000400000000000000000000000000000000000000000000000000000000000000000000000000000000000000000000000000000000000000000000000000000000000000000000000000000000000000000000000000000000000000000000000000000000000000000000000000000000000000000000000000000000000000000000000000000000c0000000000000000000000000000000000000000000000000000000000000800000",
      "type": "0x2",
      "transactionHash": "0x9467a98e64963a2fb095fa080b55d3ac53b12bb50bb8332d73dd604933ff9903",
      "transactionIndex": "0x1",
      "blockHash": "0x65c3290eda83500a248bd114a0b3ce2bdaf653be3c278607725d203aac5fd233",
      "blockNumber": "0x122d45d",
      "gasUsed": "0xcd6b",
      "effectiveGasPrice": "0x3c56ab3",
      "from": "0xb819a871d20913839c37f316dc914b0570bfc0ee",
      "to": "0x1d8e8cefeb085f3211ab6a443ad9051b54d1cd1a",
      "contractAddress": null
    },
    {
      "status": "0x1",
      "cumulativeGasUsed": "0xcd6b",
      "logs": [
        {
          "address": "0x0b3c6645f4f2442ad4bbee2e2273a250461ca6f8",
          "topics": [
            "0x3615c8513bc6436318086c0663e19b0334871c8c175a33b9340c3ecab97137cc",
            "0x0000000000000000000000000000000000000000000000000000000000000001"
          ],
          "data": "0x0000000000000000000000000000000000000000000000000000000000000001",
          "blockHash": "0xbda11ec609ff37db52f44eb675bbcbf340f9b7bf72b8315bd9f4a07ae3ebcfb6",
          "blockNumber": "0x122d45e",
          "transactionHash": "0x88dc58d6aec158e1271f7f2d1e7747c58a4f67cec123ae1c409d9e9ab3f184df",
          "transactionIndex": "0x0",
          "logIndex": "0x0",
          "removed": false
        }
      ],
      "logsBloom": "0x000000000000000000000000000000000000000000000000000000000000000000000000000000000000010000000000000000020000200000200000000400000000000000000000000000000000000000000000000400000000000000000000000000000000000000000000000000000000000000000000000000000000000000000000000000000000000000000000000000000000000000000000000000000000000000000000000000000000000000000000000000000000000000000000000000000000000000000000000000000000000000000000000000000000c0000000000000000000000000000000000000000000200000000000000000000000",
      "type": "0x2",
      "transactionHash": "0x88dc58d6aec158e1271f7f2d1e7747c58a4f67cec123ae1c409d9e9ab3f184df",
      "transactionIndex": "0x0",
      "blockHash": "0xbda11ec609ff37db52f44eb675bbcbf340f9b7bf72b8315bd9f4a07ae3ebcfb6",
      "blockNumber": "0x122d45e",
      "gasUsed": "0xcd6b",
      "effectiveGasPrice": "0x3c56ab3",
      "from": "0xb819a871d20913839c37f316dc914b0570bfc0ee",
      "to": "0x0b3c6645f4f2442ad4bbee2e2273a250461ca6f8",
      "contractAddress": null
    },
    {
      "status": "0x1",
      "cumulativeGasUsed": "0xcd6b",
      "logs": [
        {
          "address": "0x8bad0c523516262a439197736fff982f5e0987cc",
          "topics": [
            "0x3615c8513bc6436318086c0663e19b0334871c8c175a33b9340c3ecab97137cc",
            "0x0000000000000000000000000000000000000000000000000000000000000001"
          ],
          "data": "0x0000000000000000000000000000000000000000000000000000000000000001",
          "blockHash": "0x7d360eecbe19011f616ec70cc970824f0d97374f1cab801e3df55b2fce0f06d8",
          "blockNumber": "0x122d45f",
          "transactionHash": "0xcd58ecc430c17ae003d803e814611b190256bd5e2893b5e7569618816aea3142",
          "transactionIndex": "0x0",
          "logIndex": "0x0",
          "removed": false
        }
      ],
      "logsBloom": "0x000000000000000000000000000000000000000000000000000000000000000000000000000000000000000000000000000000020000200000000000000400000000000000080000000000000000000000000000000400000000000000000000000000000000000000000000000000000000000000000000000000200000000000000000000000000000000000000000000000000000000000000000000000000000000000000000000000000000000000000000000000000000000000000000000000000000000000000000000000000100000000000000000000000000c0000000000000000000000000000000000000000000000000000000000000000000",
      "type": "0x2",
      "transactionHash": "0xcd58ecc430c17ae003d803e814611b190256bd5e2893b5e7569618816aea3142",
      "transactionIndex": "0x0",
      "blockHash": "0x7d360eecbe19011f616ec70cc970824f0d97374f1cab801e3df55b2fce0f06d8",
      "blockNumber": "0x122d45f",
      "gasUsed": "0xcd6b",
      "effectiveGasPrice": "0x3c56ab3",
      "from": "0xb819a871d20913839c37f316dc914b0570bfc0ee",
      "to": "0x8bad0c523516262a439197736fff982f5e0987cc",
      "contractAddress": null
    },
    {
      "status": "0x1",
      "cumulativeGasUsed": "0xcd6b",
      "logs": [
        {
          "address": "0x4df3dd62db219c47f6a7cb1be02c511afceadf5e",
          "topics": [
            "0x3615c8513bc6436318086c0663e19b0334871c8c175a33b9340c3ecab97137cc",
            "0x0000000000000000000000000000000000000000000000000000000000000001"
          ],
          "data": "0x0000000000000000000000000000000000000000000000000000000000000001",
          "blockHash": "0x06ac8168a8b327c596570bf74db73d99c289693e5544cfaebdbbfb45a5d0aa47",
          "blockNumber": "0x122d460",
          "transactionHash": "0x1cc117f1189b779564e9f39b98f1d9312e99472e83f24848b7112008c59e20c1",
          "transactionIndex": "0x0",
          "logIndex": "0x0",
          "removed": false
        }
      ],
      "logsBloom": "0x000000000000000000000000000000000000000000000000000000000000000000000000000000000000000000000000000000020000200000000000000400000000000000000000000000000000000000000000000400000000000000000000000000000000000000000000000000040000000000000000000000000000000000000000000000000000000000000000000000000000000000000000000000000000000000000000000000000100000000000000000000000000000000000000000000000000000000000000000000000000000000000000000000000000c0000000000000000000000000000000000000000000000000000000002000000000",
      "type": "0x2",
      "transactionHash": "0x1cc117f1189b779564e9f39b98f1d9312e99472e83f24848b7112008c59e20c1",
      "transactionIndex": "0x0",
      "blockHash": "0x06ac8168a8b327c596570bf74db73d99c289693e5544cfaebdbbfb45a5d0aa47",
      "blockNumber": "0x122d460",
      "gasUsed": "0xcd6b",
      "effectiveGasPrice": "0x3c56ab3",
      "from": "0xb819a871d20913839c37f316dc914b0570bfc0ee",
      "to": "0x4df3dd62db219c47f6a7cb1be02c511afceadf5e",
      "contractAddress": null
    }
  ],
  "libraries": [],
  "pending": [],
  "returns": {},
  "timestamp": 1747409864,
  "chain": 59144,
  "commit": "c569661"
}