{
  "transactions": [
    {
      "hash": "0xc221911c996c45165923e1db415983057a3a18505a0023f1a35427150c0fac6f",
      "transactionType": "CALL",
      "contractName": null,
      "contractAddress": "0x8bad0c523516262a439197736fff982f5e0987cc",
      "function": "setWhitelistedUser(address,bool)",
      "arguments": [
        "0xf20a8950c368Ec48323092D6e4acF90aADf2BdC6",
        "true"
      ],
      "transaction": {
        "from": "0xb819a871d20913839c37f316dc914b0570bfc0ee",
        "to": "0x8bad0c523516262a439197736fff982f5e0987cc",
        "gas": "0x11d0b",
        "value": "0x0",
        "input": "0x44710fbe000000000000000000000000f20a8950c368ec48323092d6e4acf90aadf2bdc60000000000000000000000000000000000000000000000000000000000000001",
        "nonce": "0xa9",
        "chainId": "0x1"
      },
      "additionalContracts": [],
      "isFixedGasLimit": false
    },
    {
      "hash": "0x7e337a2153192f78435b02b2217e60f93a5f24ddfea773b60e9ab728ce52fcb2",
      "transactionType": "CALL",
      "contractName": null,
      "contractAddress": "0x8bad0c523516262a439197736fff982f5e0987cc",
      "function": "setWhitelistedUser(address,bool)",
      "arguments": [
        "0x8E72a24221517E51502f20f387415a06b27A5b51",
        "true"
      ],
      "transaction": {
        "from": "0xb819a871d20913839c37f316dc914b0570bfc0ee",
        "to": "0x8bad0c523516262a439197736fff982f5e0987cc",
        "gas": "0x11d0b",
        "value": "0x0",
        "input": "0x44710fbe0000000000000000000000008e72a24221517e51502f20f387415a06b27a5b510000000000000000000000000000000000000000000000000000000000000001",
        "nonce": "0xaa",
        "chainId": "0x1"
      },
      "additionalContracts": [],
      "isFixedGasLimit": false
    },
    {
      "hash": "0xe60babea8821b2f4b4714f51b3752ce797f49600a6cd767625bfe4f836c1df22",
      "transactionType": "CALL",
      "contractName": null,
      "contractAddress": "0x8bad0c523516262a439197736fff982f5e0987cc",
      "function": "setWhitelistedUser(address,bool)",
      "arguments": [
        "0x50d8Deadd2b3140B151CaB2C4FB76F1f59b236F8",
        "true"
      ],
      "transaction": {
        "from": "0xb819a871d20913839c37f316dc914b0570bfc0ee",
        "to": "0x8bad0c523516262a439197736fff982f5e0987cc",
        "gas": "0x11d0b",
        "value": "0x0",
        "input": "0x44710fbe00000000000000000000000050d8deadd2b3140b151cab2c4fb76f1f59b236f80000000000000000000000000000000000000000000000000000000000000001",
        "nonce": "0xab",
        "chainId": "0x1"
      },
      "additionalContracts": [],
      "isFixedGasLimit": false
    },
    {
      "hash": "0x6768ed87dec3f7ee8abc880ef08a9a9dffa421ab253f7c5c4f064db91f82289b",
      "transactionType": "CALL",
      "contractName": null,
      "contractAddress": "0x8bad0c523516262a439197736fff982f5e0987cc",
      "function": "setWhitelistedUser(address,bool)",
      "arguments": [
        "0x574582C44e3f1EF2cB29a7131B057FebBCC8244E",
        "true"
      ],
      "transaction": {
        "from": "0xb819a871d20913839c37f316dc914b0570bfc0ee",
        "to": "0x8bad0c523516262a439197736fff982f5e0987cc",
        "gas": "0x11d0b",
        "value": "0x0",
        "input": "0x44710fbe000000000000000000000000574582c44e3f1ef2cb29a7131b057febbcc8244e0000000000000000000000000000000000000000000000000000000000000001",
        "nonce": "0xac",
        "chainId": "0x1"
      },
      "additionalContracts": [],
      "isFixedGasLimit": false
    },
    {
      "hash": "0x209a869af8661fc8d03001fdcba4070a4c3f024fd2bad9aaa8d0af151db5f4f0",
      "transactionType": "CALL",
      "contractName": null,
      "contractAddress": "0x8bad0c523516262a439197736fff982f5e0987cc",
      "function": "setWhitelistedUser(address,bool)",
      "arguments": [
        "0x281567fe62b587EC1755f6F33b80160F544Dc5d0",
        "true"
      ],
      "transaction": {
        "from": "0xb819a871d20913839c37f316dc914b0570bfc0ee",
        "to": "0x8bad0c523516262a439197736fff982f5e0987cc",
        "gas": "0x11d0b",
        "value": "0x0",
        "input": "0x44710fbe000000000000000000000000281567fe62b587ec1755f6f33b80160f544dc5d00000000000000000000000000000000000000000000000000000000000000001",
        "nonce": "0xad",
        "chainId": "0x1"
      },
      "additionalContracts": [],
      "isFixedGasLimit": false
    },
    {
      "hash": "0x7c23e468e244fe5dec98c3313a5975b9e5e8d04d5a93aa8ff5b36dfa3ffbc945",
      "transactionType": "CALL",
      "contractName": null,
      "contractAddress": "0x8bad0c523516262a439197736fff982f5e0987cc",
      "function": "setWhitelistedUser(address,bool)",
      "arguments": [
        "0x2705f6A8F01bd4A805D9FC73151DBe37BB8d1edE",
        "true"
      ],
      "transaction": {
        "from": "0xb819a871d20913839c37f316dc914b0570bfc0ee",
        "to": "0x8bad0c523516262a439197736fff982f5e0987cc",
        "gas": "0x11d0b",
        "value": "0x0",
        "input": "0x44710fbe0000000000000000000000002705f6a8f01bd4a805d9fc73151dbe37bb8d1ede0000000000000000000000000000000000000000000000000000000000000001",
        "nonce": "0xae",
        "chainId": "0x1"
      },
      "additionalContracts": [],
      "isFixedGasLimit": false
    },
    {
      "hash": "0xf4bfbd49fddca779b8035986829ffa756d15c3babf79349999f21aa2541f9ae2",
      "transactionType": "CALL",
      "contractName": null,
      "contractAddress": "0x8bad0c523516262a439197736fff982f5e0987cc",
      "function": "setWhitelistedUser(address,bool)",
      "arguments": [
        "0xc9C9693b6A445D05Add0043662fad9Ac600Ad088",
        "true"
      ],
      "transaction": {
        "from": "0xb819a871d20913839c37f316dc914b0570bfc0ee",
        "to": "0x8bad0c523516262a439197736fff982f5e0987cc",
        "gas": "0x11d0b",
        "value": "0x0",
        "input": "0x44710fbe000000000000000000000000c9c9693b6a445d05add0043662fad9ac600ad0880000000000000000000000000000000000000000000000000000000000000001",
        "nonce": "0xaf",
        "chainId": "0x1"
      },
      "additionalContracts": [],
      "isFixedGasLimit": false
    },
    {
      "hash": "0x89beec27741c7e7c0aa7f97751293cc9fef02006c61851d68dc92d0e57e4d143",
      "transactionType": "CALL",
      "contractName": null,
      "contractAddress": "0x8bad0c523516262a439197736fff982f5e0987cc",
      "function": "setWhitelistedUser(address,bool)",
      "arguments": [
        "0x7EfE40B2E6dA8b28AaB6Bd2D622B9Cd7f5fE077c",
        "true"
      ],
      "transaction": {
        "from": "0xb819a871d20913839c37f316dc914b0570bfc0ee",
        "to": "0x8bad0c523516262a439197736fff982f5e0987cc",
        "gas": "0x11d0b",
        "value": "0x0",
        "input": "0x44710fbe0000000000000000000000007efe40b2e6da8b28aab6bd2d622b9cd7f5fe077c0000000000000000000000000000000000000000000000000000000000000001",
        "nonce": "0xb0",
        "chainId": "0x1"
      },
      "additionalContracts": [],
      "isFixedGasLimit": false
    },
    {
      "hash": "0x25b0b916eca6c51e0c3b409621bf253760800a82564b732094dde2391ccdbd2f",
      "transactionType": "CALL",
      "contractName": null,
      "contractAddress": "0x8bad0c523516262a439197736fff982f5e0987cc",
      "function": "setWhitelistedUser(address,bool)",
      "arguments": [
        "0xa22DCB8F0A2848289124086F35ae9dB2a0006962",
        "true"
      ],
      "transaction": {
        "from": "0xb819a871d20913839c37f316dc914b0570bfc0ee",
        "to": "0x8bad0c523516262a439197736fff982f5e0987cc",
        "gas": "0x12dbf",
        "value": "0x0",
        "input": "0x44710fbe000000000000000000000000a22dcb8f0a2848289124086f35ae9db2a00069620000000000000000000000000000000000000000000000000000000000000001",
        "nonce": "0xb1",
        "chainId": "0x1"
      },
      "additionalContracts": [],
      "isFixedGasLimit": false
    },
    {
      "hash": "0x9e0eb1f6a6f3b4338158ef4785e8bbf562efc71a032b8c3d8eaff93580f3153a",
      "transactionType": "CALL",
      "contractName": null,
      "contractAddress": "0x8bad0c523516262a439197736fff982f5e0987cc",
      "function": "setWhitelistedUser(address,bool)",
      "arguments": [
        "0xB819A871d20913839c37f316Dc914b0570bfc0eE",
        "true"
      ],
      "transaction": {
        "from": "0xb819a871d20913839c37f316dc914b0570bfc0ee",
        "to": "0x8bad0c523516262a439197736fff982f5e0987cc",
        "gas": "0x11d0b",
        "value": "0x0",
        "input": "0x44710fbe000000000000000000000000b819a871d20913839c37f316dc914b0570bfc0ee0000000000000000000000000000000000000000000000000000000000000001",
        "nonce": "0xb2",
        "chainId": "0x1"
      },
      "additionalContracts": [],
      "isFixedGasLimit": false
    },
    {
      "hash": "0x0d52ed25e86db0e8339b23c27a87ac4abc480cd9b2e372d67cdd3f7a76a3018f",
      "transactionType": "CALL",
      "contractName": null,
      "contractAddress": "0x8bad0c523516262a439197736fff982f5e0987cc",
      "function": "setWhitelistedUser(address,bool)",
      "arguments": [
        "0x40282d3Cf4890D9806BC1853e97a59C93D813653",
        "true"
      ],
      "transaction": {
        "from": "0xb819a871d20913839c37f316dc914b0570bfc0ee",
        "to": "0x8bad0c523516262a439197736fff982f5e0987cc",
        "gas": "0x11d0b",
        "value": "0x0",
        "input": "0x44710fbe00000000000000000000000040282d3cf4890d9806bc1853e97a59c93d8136530000000000000000000000000000000000000000000000000000000000000001",
        "nonce": "0xb3",
        "chainId": "0x1"
      },
      "additionalContracts": [],
      "isFixedGasLimit": false
    },
    {
      "hash": "0xfc626f96a57144d13297b6e163b11d77f69ce72f422416ff6f4d6f4347e7314c",
      "transactionType": "CALL",
      "contractName": null,
      "contractAddress": "0x8bad0c523516262a439197736fff982f5e0987cc",
      "function": "setWhitelistedUser(address,bool)",
      "arguments": [
        "0xB5b901F1BB86421301138b5c45C1D3Fe96663161",
        "true"
      ],
      "transaction": {
        "from": "0xb819a871d20913839c37f316dc914b0570bfc0ee",
        "to": "0x8bad0c523516262a439197736fff982f5e0987cc",
        "gas": "0x11d0b",
        "value": "0x0",
        "input": "0x44710fbe000000000000000000000000b5b901f1bb86421301138b5c45c1d3fe966631610000000000000000000000000000000000000000000000000000000000000001",
        "nonce": "0xb4",
        "chainId": "0x1"
      },
      "additionalContracts": [],
      "isFixedGasLimit": false
    },
    {
      "hash": "0x441f3449f541016729e7ac0b54b1169d30fbfc767878008d4179f65696ace1d9",
      "transactionType": "CALL",
      "contractName": null,
      "contractAddress": "0x8bad0c523516262a439197736fff982f5e0987cc",
      "function": "setWhitelistedUser(address,bool)",
      "arguments": [
        "0xBAec8904499dcdee770c60df15b0C37EAC84Fb62",
        "true"
      ],
      "transaction": {
        "from": "0xb819a871d20913839c37f316dc914b0570bfc0ee",
        "to": "0x8bad0c523516262a439197736fff982f5e0987cc",
        "gas": "0x11d0b",
        "value": "0x0",
        "input": "0x44710fbe000000000000000000000000baec8904499dcdee770c60df15b0c37eac84fb620000000000000000000000000000000000000000000000000000000000000001",
        "nonce": "0xb5",
        "chainId": "0x1"
      },
      "additionalContracts": [],
      "isFixedGasLimit": false
    },
    {
      "hash": "0xe0eab1a31eca16337a4fd4dcf6c602ace3021f5facc951ee8ca2562fd97c138e",
      "transactionType": "CALL",
      "contractName": null,
      "contractAddress": "0x8bad0c523516262a439197736fff982f5e0987cc",
      "function": "setWhitelistedUser(address,bool)",
      "arguments": [
        "0xfC4A23271b60887FC246B060B6931a08E2BC434c",
        "true"
      ],
      "transaction": {
        "from": "0xb819a871d20913839c37f316dc914b0570bfc0ee",
        "to": "0x8bad0c523516262a439197736fff982f5e0987cc",
        "gas": "0x11d0b",
        "value": "0x0",
        "input": "0x44710fbe000000000000000000000000fc4a23271b60887fc246b060b6931a08e2bc434c0000000000000000000000000000000000000000000000000000000000000001",
        "nonce": "0xb6",
        "chainId": "0x1"
      },
      "additionalContracts": [],
      "isFixedGasLimit": false
    },
    {
      "hash": "0x5e9cf51ae581bf56e258bcbce83ef4bc94cb455df5ec4d0abd6eab67a4aa2c96",
      "transactionType": "CALL",
      "contractName": null,
      "contractAddress": "0x8bad0c523516262a439197736fff982f5e0987cc",
      "function": "setWhitelistedUser(address,bool)",
      "arguments": [
        "0x65b142550aE82f4BB3792E1eEfb2FC35541A3837",
        "true"
      ],
      "transaction": {
        "from": "0xb819a871d20913839c37f316dc914b0570bfc0ee",
        "to": "0x8bad0c523516262a439197736fff982f5e0987cc",
        "gas": "0x11d0b",
        "value": "0x0",
        "input": "0x44710fbe00000000000000000000000065b142550ae82f4bb3792e1eefb2fc35541a38370000000000000000000000000000000000000000000000000000000000000001",
        "nonce": "0xb7",
        "chainId": "0x1"
      },
      "additionalContracts": [],
      "isFixedGasLimit": false
    },
    {
      "hash": "0xd7b8a72030f5835395aaca0ddc59e1cd2a32dbcb62c3bf65813d2d366c68de9e",
      "transactionType": "CALL",
      "contractName": null,
      "contractAddress": "0x8bad0c523516262a439197736fff982f5e0987cc",
      "function": "setWhitelistedUser(address,bool)",
      "arguments": [
        "0x75149feEBb20E1fE5Ddb89302a6d4bACE70c14Ce",
        "true"
      ],
      "transaction": {
        "from": "0xb819a871d20913839c37f316dc914b0570bfc0ee",
        "to": "0x8bad0c523516262a439197736fff982f5e0987cc",
        "gas": "0x11d0b",
        "value": "0x0",
        "input": "0x44710fbe00000000000000000000000075149feebb20e1fe5ddb89302a6d4bace70c14ce0000000000000000000000000000000000000000000000000000000000000001",
        "nonce": "0xb8",
        "chainId": "0x1"
      },
      "additionalContracts": [],
      "isFixedGasLimit": false
    },
    {
      "hash": "0x4036e30f2d9b854c7922265669c74c56e8633f4e47de77cc92e0efb4f37138f9",
      "transactionType": "CALL",
      "contractName": null,
      "contractAddress": "0x8bad0c523516262a439197736fff982f5e0987cc",
      "function": "setWhitelistedUser(address,bool)",
      "arguments": [
        "0x65B6D4770DAdcFba6d363dE86aA4D9c76283cea0",
        "true"
      ],
      "transaction": {
        "from": "0xb819a871d20913839c37f316dc914b0570bfc0ee",
        "to": "0x8bad0c523516262a439197736fff982f5e0987cc",
        "gas": "0x11d0b",
        "value": "0x0",
        "input": "0x44710fbe00000000000000000000000065b6d4770dadcfba6d363de86aa4d9c76283cea00000000000000000000000000000000000000000000000000000000000000001",
        "nonce": "0xb9",
        "chainId": "0x1"
      },
      "additionalContracts": [],
      "isFixedGasLimit": false
    },
    {
      "hash": "0x4b7a6ca4bff4d7fc53e2bdf527ac225cdbd3e594dfa58cecfcaeb37099dcf353",
      "transactionType": "CALL",
      "contractName": null,
      "contractAddress": "0x8bad0c523516262a439197736fff982f5e0987cc",
      "function": "setWhitelistedUser(address,bool)",
      "arguments": [
        "0xa6A9fdDC94BB4FE7520A2eA1CC2c433e18683342",
        "true"
      ],
      "transaction": {
        "from": "0xb819a871d20913839c37f316dc914b0570bfc0ee",
        "to": "0x8bad0c523516262a439197736fff982f5e0987cc",
        "gas": "0x11d0b",
        "value": "0x0",
        "input": "0x44710fbe000000000000000000000000a6a9fddc94bb4fe7520a2ea1cc2c433e186833420000000000000000000000000000000000000000000000000000000000000001",
        "nonce": "0xba",
        "chainId": "0x1"
      },
      "additionalContracts": [],
      "isFixedGasLimit": false
    },
    {
      "hash": "0x4f5a9fa1bb77d00dff06ce68f35c29b420a4bed23964625fa5fb817451afdc5b",
      "transactionType": "CALL",
      "contractName": null,
      "contractAddress": "0x8bad0c523516262a439197736fff982f5e0987cc",
      "function": "setWhitelistedUser(address,bool)",
      "arguments": [
        "0x18D04F05f80ADE5373849385a1c24E1E0a6d1744",
        "true"
      ],
      "transaction": {
        "from": "0xb819a871d20913839c37f316dc914b0570bfc0ee",
        "to": "0x8bad0c523516262a439197736fff982f5e0987cc",
        "gas": "0x11d0b",
        "value": "0x0",
        "input": "0x44710fbe00000000000000000000000018d04f05f80ade5373849385a1c24e1e0a6d17440000000000000000000000000000000000000000000000000000000000000001",
        "nonce": "0xbb",
        "chainId": "0x1"
      },
      "additionalContracts": [],
      "isFixedGasLimit": false
    },
    {
      "hash": "0xa347581ac78027946026018cdd60cc104f740b6b605c4e82205cd000ee122038",
      "transactionType": "CALL",
      "contractName": null,
      "contractAddress": "0x8bad0c523516262a439197736fff982f5e0987cc",
      "function": "setWhitelistedUser(address,bool)",
      "arguments": [
        "0xBD9C90D6774CB5320B54Bb7998b6Bcc5e4A9071f",
        "true"
      ],
      "transaction": {
        "from": "0xb819a871d20913839c37f316dc914b0570bfc0ee",
        "to": "0x8bad0c523516262a439197736fff982f5e0987cc",
        "gas": "0x11d0b",
        "value": "0x0",
        "input": "0x44710fbe000000000000000000000000bd9c90d6774cb5320b54bb7998b6bcc5e4a9071f0000000000000000000000000000000000000000000000000000000000000001",
        "nonce": "0xbc",
        "chainId": "0x1"
      },
      "additionalContracts": [],
      "isFixedGasLimit": false
    },
    {
      "hash": "0x091f91f21f03d2312c5692413f0dc1078dffc267750d078243ccbb6c7a013a41",
      "transactionType": "CALL",
      "contractName": null,
      "contractAddress": "0x8bad0c523516262a439197736fff982f5e0987cc",
      "function": "setWhitelistedUser(address,bool)",
      "arguments": [
        "0x8f2eABa31B1b613ca78F2795bA05400F0583c5A4",
        "true"
      ],
      "transaction": {
        "from": "0xb819a871d20913839c37f316dc914b0570bfc0ee",
        "to": "0x8bad0c523516262a439197736fff982f5e0987cc",
        "gas": "0x11d0b",
        "value": "0x0",
        "input": "0x44710fbe0000000000000000000000008f2eaba31b1b613ca78f2795ba05400f0583c5a40000000000000000000000000000000000000000000000000000000000000001",
        "nonce": "0xbd",
        "chainId": "0x1"
      },
      "additionalContracts": [],
      "isFixedGasLimit": false
    },
    {
      "hash": "0x301a2a6759f1466271c07c5af1e229c1d3fa8b6d8a9426a5a8c526ca374fed4d",
      "transactionType": "CALL",
      "contractName": null,
      "contractAddress": "0x8bad0c523516262a439197736fff982f5e0987cc",
      "function": "setWhitelistedUser(address,bool)",
      "arguments": [
        "0x8f2eABa31B1b613ca78F2795bA05400F0583c5A4",
        "true"
      ],
      "transaction": {
        "from": "0xb819a871d20913839c37f316dc914b0570bfc0ee",
        "to": "0x8bad0c523516262a439197736fff982f5e0987cc",
        "gas": "0xbc21",
        "value": "0x0",
        "input": "0x44710fbe0000000000000000000000008f2eaba31b1b613ca78f2795ba05400f0583c5a40000000000000000000000000000000000000000000000000000000000000001",
        "nonce": "0xbe",
        "chainId": "0x1"
      },
      "additionalContracts": [],
      "isFixedGasLimit": false
    },
    {
      "hash": "0xfca594f0704ae8d951129b82e23f6d72301e27a8f05fd5b1b60979dbb3915cbf",
      "transactionType": "CALL",
      "contractName": null,
      "contractAddress": "0x8bad0c523516262a439197736fff982f5e0987cc",
      "function": "setWhitelistedUser(address,bool)",
      "arguments": [
        "0x50d8Deadd2b3140B151CaB2C4FB76F1f59b236F8",
        "true"
      ],
      "transaction": {
        "from": "0xb819a871d20913839c37f316dc914b0570bfc0ee",
        "to": "0x8bad0c523516262a439197736fff982f5e0987cc",
        "gas": "0xbc21",
        "value": "0x0",
        "input": "0x44710fbe00000000000000000000000050d8deadd2b3140b151cab2c4fb76f1f59b236f80000000000000000000000000000000000000000000000000000000000000001",
        "nonce": "0xbf",
        "chainId": "0x1"
      },
      "additionalContracts": [],
      "isFixedGasLimit": false
    },
    {
      "hash": "0xdc4a1279c9eca0434665448427fdbf1ab33862262e30f037179144d15eaf6dc6",
      "transactionType": "CALL",
      "contractName": null,
      "contractAddress": "0x8bad0c523516262a439197736fff982f5e0987cc",
      "function": "setWhitelistedUser(address,bool)",
      "arguments": [
        "0x574582C44e3f1EF2cB29a7131B057FebBCC8244E",
        "true"
      ],
      "transaction": {
        "from": "0xb819a871d20913839c37f316dc914b0570bfc0ee",
        "to": "0x8bad0c523516262a439197736fff982f5e0987cc",
        "gas": "0xbc21",
        "value": "0x0",
        "input": "0x44710fbe000000000000000000000000574582c44e3f1ef2cb29a7131b057febbcc8244e0000000000000000000000000000000000000000000000000000000000000001",
        "nonce": "0xc0",
        "chainId": "0x1"
      },
      "additionalContracts": [],
      "isFixedGasLimit": false
    },
    {
      "hash": "0x218b8dd22df6ced994708ab540142f620a0243b6e9ab4e85e60fece19959f404",
      "transactionType": "CALL",
      "contractName": null,
      "contractAddress": "0x8bad0c523516262a439197736fff982f5e0987cc",
      "function": "setWhitelistedUser(address,bool)",
      "arguments": [
        "0xBd0Ce952bA069A1e15f3bf3916d4B07bBBdBC8B3",
        "true"
      ],
      "transaction": {
        "from": "0xb819a871d20913839c37f316dc914b0570bfc0ee",
        "to": "0x8bad0c523516262a439197736fff982f5e0987cc",
        "gas": "0x11d0b",
        "value": "0x0",
        "input": "0x44710fbe000000000000000000000000bd0ce952ba069a1e15f3bf3916d4b07bbbdbc8b30000000000000000000000000000000000000000000000000000000000000001",
        "nonce": "0xc1",
        "chainId": "0x1"
      },
      "additionalContracts": [],
      "isFixedGasLimit": false
    }
  ],
  "receipts": [
    {
      "status": "0x1",
      "cumulativeGasUsed": "0xbe5b86",
      "logs": [
        {
          "address": "0x8bad0c523516262a439197736fff982f5e0987cc",
          "topics": [
            "0x4059c608a8f17b9b24a5a29662eb74934d39ea92ae22411868f07fcac29487a0",
            "0x000000000000000000000000f20a8950c368ec48323092d6e4acf90aadf2bdc6"
          ],
          "data": "0x0000000000000000000000000000000000000000000000000000000000000001",
          "blockHash": "0xf4ca209e2b30ec6755f5af6af8f72400e21dd49b1390e1eafe5204e5a462b936",
          "blockNumber": "0x1573ece",
          "blockTimestamp": "0x68270db3",
          "transactionHash": "0xc221911c996c45165923e1db415983057a3a18505a0023f1a35427150c0fac6f",
          "transactionIndex": "0x7a",
          "logIndex": "0x166",
          "removed": false
        }
      ],
      "logsBloom": "0x00000000000000000000000000000000000000000000000000000000000000000000000000000000000000020000000000000000000000000000000000000000000000000008000000000000000000000000000000000000000000000000000000000000000000000000000000000000000000000000000000000020000000000000000000000000000000000000000000000000000000000000000000000000000000000040000000000000000000000000020000000000000000000000000000000000000000000000000000000000010000000000000000001000004000000000000000008000000000000000000000000000000000000000000000000000",
      "type": "0x2",
      "transactionHash": "0xc221911c996c45165923e1db415983057a3a18505a0023f1a35427150c0fac6f",
      "transactionIndex": "0x7a",
      "blockHash": "0xf4ca209e2b30ec6755f5af6af8f72400e21dd49b1390e1eafe5204e5a462b936",
      "blockNumber": "0x1573ece",
      "gasUsed": "0xce5f",
      "effectiveGasPrice": "0x7231fdd5",
      "from": "0xb819a871d20913839c37f316dc914b0570bfc0ee",
      "to": "0x8bad0c523516262a439197736fff982f5e0987cc",
      "contractAddress": null
    },
    {
      "status": "0x1",
      "cumulativeGasUsed": "0x112cc93",
      "logs": [
        {
          "address": "0x8bad0c523516262a439197736fff982f5e0987cc",
          "topics": [
            "0x4059c608a8f17b9b24a5a29662eb74934d39ea92ae22411868f07fcac29487a0",
            "0x0000000000000000000000008e72a24221517e51502f20f387415a06b27a5b51"
          ],
          "data": "0x0000000000000000000000000000000000000000000000000000000000000001",
          "blockHash": "0xa7b02919e1373b62df68d27227d8e2713f41288d5439534ed40ab52a03c37f30",
          "blockNumber": "0x1573ecf",
          "blockTimestamp": "0x68270dbf",
          "transactionHash": "0x7e337a2153192f78435b02b2217e60f93a5f24ddfea773b60e9ab728ce52fcb2",
          "transactionIndex": "0xae",
          "logIndex": "0x208",
          "removed": false
        }
      ],
      "logsBloom": "0x00000000000000000000000000000000000000000000000000000000000000000000000000000000000000020000000000000000000000000000000000000000000000000008000000000000000000000000000000000000000000000000000000000000000000000000000000000000000000000000000000000820000000000000000000000000000000000000000000000000000000000000000000020000000000000040000000000000000000000000000000000000000000000000000000000000000000000000000000000000010000000001000000000000000000000000000000008000000000000000000000000000000000000000000000000000",
      "type": "0x2",
      "transactionHash": "0x7e337a2153192f78435b02b2217e60f93a5f24ddfea773b60e9ab728ce52fcb2",
      "transactionIndex": "0xae",
      "blockHash": "0xa7b02919e1373b62df68d27227d8e2713f41288d5439534ed40ab52a03c37f30",
      "blockNumber": "0x1573ecf",
      "gasUsed": "0xce5f",
      "effectiveGasPrice": "0x702d86e6",
      "from": "0xb819a871d20913839c37f316dc914b0570bfc0ee",
      "to": "0x8bad0c523516262a439197736fff982f5e0987cc",
      "contractAddress": null
    },
    {
      "status": "0x1",
      "cumulativeGasUsed": "0x19d47bf",
      "logs": [
        {
          "address": "0x8bad0c523516262a439197736fff982f5e0987cc",
          "topics": [
            "0x4059c608a8f17b9b24a5a29662eb74934d39ea92ae22411868f07fcac29487a0",
            "0x00000000000000000000000050d8deadd2b3140b151cab2c4fb76f1f59b236f8"
          ],
          "data": "0x0000000000000000000000000000000000000000000000000000000000000001",
          "blockHash": "0x0684cbfba7b35d9c4cb7ff17c50695b2884a2d2b913bfc3ee3959fb3d6e71ca5",
          "blockNumber": "0x1573ed1",
          "blockTimestamp": "0x68270def",
          "transactionHash": "0xe60babea8821b2f4b4714f51b3752ce797f49600a6cd767625bfe4f836c1df22",
          "transactionIndex": "0xd4",
          "logIndex": "0x24b",
          "removed": false
        }
      ],
      "logsBloom": "0x00000000000000000000000000000000000000000000200000000000000000000000000000000000000000020000000000000000000000000000000000000000000000000008000000000000000000000000000000000000000000000000000000000000000000000000000000000000000000000000000000000020020000000000000000000000000000000000000000000000000000000000000000000000000000000040000000000000000000000000000000000000000000000000000000000000000000000000000000000000010000000000000000000000000000000000000000808000000000000000000000000000000000000000000000000000",
      "type": "0x2",
      "transactionHash": "0xe60babea8821b2f4b4714f51b3752ce797f49600a6cd767625bfe4f836c1df22",
      "transactionIndex": "0xd4",
      "blockHash": "0x0684cbfba7b35d9c4cb7ff17c50695b2884a2d2b913bfc3ee3959fb3d6e71ca5",
      "blockNumber": "0x1573ed1",
      "gasUsed": "0xce5f",
      "effectiveGasPrice": "0x685e17cc",
      "from": "0xb819a871d20913839c37f316dc914b0570bfc0ee",
      "to": "0x8bad0c523516262a439197736fff982f5e0987cc",
      "contractAddress": null
    },
    {
      "status": "0x1",
      "cumulativeGasUsed": "0x1f498f8",
      "logs": [
        {
          "address": "0x8bad0c523516262a439197736fff982f5e0987cc",
          "topics": [
            "0x4059c608a8f17b9b24a5a29662eb74934d39ea92ae22411868f07fcac29487a0",
            "0x000000000000000000000000574582c44e3f1ef2cb29a7131b057febbcc8244e"
          ],
          "data": "0x0000000000000000000000000000000000000000000000000000000000000001",
          "blockHash": "0x11a887a24dc203acc9f896b4fa4789117108ecf083cff334d62628ba2d470af4",
          "blockNumber": "0x1573ed2",
          "blockTimestamp": "0x68270e07",
          "transactionHash": "0x6768ed87dec3f7ee8abc880ef08a9a9dffa421ab253f7c5c4f064db91f82289b",
          "transactionIndex": "0x130",
          "logIndex": "0x3f4",
          "removed": false
        }
      ],
      "logsBloom": "0x00000000000000000000000000000000000000000000000000000000000000000000000000000000000000020000000000000000000000000000000000000000000000000008200000000000000000000000000000000000000000000000000000000000000000000000000000000000000000000000000000000020000000000000000000000000000000100000000000000000000000000000000000000000004000000040000000000000000000000000000000000000000000000000000000000000000000000000000000000000010000000000000000000000000000000000000000008000000000000000000000000000000000000000000000000000",
      "type": "0x2",
      "transactionHash": "0x6768ed87dec3f7ee8abc880ef08a9a9dffa421ab253f7c5c4f064db91f82289b",
      "transactionIndex": "0x130",
      "blockHash": "0x11a887a24dc203acc9f896b4fa4789117108ecf083cff334d62628ba2d470af4",
      "blockNumber": "0x1573ed2",
      "gasUsed": "0xce5f",
      "effectiveGasPrice": "0x71148303",
      "from": "0xb819a871d20913839c37f316dc914b0570bfc0ee",
      "to": "0x8bad0c523516262a439197736fff982f5e0987cc",
      "contractAddress": null
    },
    {
      "status": "0x1",
      "cumulativeGasUsed": "0xfc4aef",
      "logs": [
        {
          "address": "0x8bad0c523516262a439197736fff982f5e0987cc",
          "topics": [
            "0x4059c608a8f17b9b24a5a29662eb74934d39ea92ae22411868f07fcac29487a0",
            "0x000000000000000000000000281567fe62b587ec1755f6f33b80160f544dc5d0"
          ],
          "data": "0x0000000000000000000000000000000000000000000000000000000000000001",
          "blockHash": "0x0adbfd751d8b1d0e860acd1aa53306849ca81978f8ab84068d619226ccc7051d",
          "blockNumber": "0x1573ed4",
          "blockTimestamp": "0x68270e1f",
          "transactionHash": "0x209a869af8661fc8d03001fdcba4070a4c3f024fd2bad9aaa8d0af151db5f4f0",
          "transactionIndex": "0xae",
          "logIndex": "0x1b0",
          "removed": false
        }
      ],
      "logsBloom": "0x00200000000000000000000000000000000000000000000000000000000000000000000000000000000000020000000000000000000000000000000000000000000000000008000000000000000000000000000000000000000000000002000000000000000000000000000000000000000000000000000000000020000000000000000000000000000000000000000000000000800000000000000000000000000000000040000000000000000000000000000000000000000000000000000000000000000000000000000000000000010000000000000000000000000000000000000000008000000000000000000000000000000000000000000000000000",
      "type": "0x2",
      "transactionHash": "0x209a869af8661fc8d03001fdcba4070a4c3f024fd2bad9aaa8d0af151db5f4f0",
      "transactionIndex": "0xae",
      "blockHash": "0x0adbfd751d8b1d0e860acd1aa53306849ca81978f8ab84068d619226ccc7051d",
      "blockNumber": "0x1573ed4",
      "gasUsed": "0xce5f",
      "effectiveGasPrice": "0x72c2950d",
      "from": "0xb819a871d20913839c37f316dc914b0570bfc0ee",
      "to": "0x8bad0c523516262a439197736fff982f5e0987cc",
      "contractAddress": null
    },
    {
      "status": "0x1",
      "cumulativeGasUsed": "0x1be00cb",
      "logs": [
        {
          "address": "0x8bad0c523516262a439197736fff982f5e0987cc",
          "topics": [
            "0x4059c608a8f17b9b24a5a29662eb74934d39ea92ae22411868f07fcac29487a0",
            "0x0000000000000000000000002705f6a8f01bd4a805d9fc73151dbe37bb8d1ede"
          ],
          "data": "0x0000000000000000000000000000000000000000000000000000000000000001",
          "blockHash": "0xa9291ca3d936ffd350917aaf5612dfbafb6dde53282de7a826e22db926de7903",
          "blockNumber": "0x1573ed5",
          "blockTimestamp": "0x68270e2b",
          "transactionHash": "0x7c23e468e244fe5dec98c3313a5975b9e5e8d04d5a93aa8ff5b36dfa3ffbc945",
          "transactionIndex": "0x108",
          "logIndex": "0x2ca",
          "removed": false
        }
      ],
      "logsBloom": "0x00000000000000000000000000000000000000000000000000000000000040000000000000000000000000020000000000000000000000000000000000000000000000000008000000000000000000000000000000000040000000000000000000000000000000000000000000000000000000000000000000000060000000000000000000000000000000000000000000000000000000000000000000000000000000000040000000000000000000000000000000000000000000000000000000000000000000000000000000000000010000000000000000000000000000000000000000008000000000000000000000000000000000000000000000000000",
      "type": "0x2",
      "transactionHash": "0x7c23e468e244fe5dec98c3313a5975b9e5e8d04d5a93aa8ff5b36dfa3ffbc945",
      "transactionIndex": "0x108",
      "blockHash": "0xa9291ca3d936ffd350917aaf5612dfbafb6dde53282de7a826e22db926de7903",
      "blockNumber": "0x1573ed5",
      "gasUsed": "0xce5f",
      "effectiveGasPrice": "0x7335d0da",
      "from": "0xb819a871d20913839c37f316dc914b0570bfc0ee",
      "to": "0x8bad0c523516262a439197736fff982f5e0987cc",
      "contractAddress": null
    },
    {
      "status": "0x1",
      "cumulativeGasUsed": "0xa427b0",
      "logs": [
        {
          "address": "0x8bad0c523516262a439197736fff982f5e0987cc",
          "topics": [
            "0x4059c608a8f17b9b24a5a29662eb74934d39ea92ae22411868f07fcac29487a0",
            "0x000000000000000000000000c9c9693b6a445d05add0043662fad9ac600ad088"
          ],
          "data": "0x0000000000000000000000000000000000000000000000000000000000000001",
          "blockHash": "0x2f28a9f80b2e4ea2b2a6a0405d7e9d64008113562e7786306b4239cf07257491",
          "blockNumber": "0x1573ed6",
          "blockTimestamp": "0x68270e37",
          "transactionHash": "0xf4bfbd49fddca779b8035986829ffa756d15c3babf79349999f21aa2541f9ae2",
          "transactionIndex": "0x61",
          "logIndex": "0x135",
          "removed": false
        }
      ],
      "logsBloom": "0x00000000000000000000000000000000000000000000000000000000000000000000000010000000000000020000000000000000000000000000000000000000000000000008000000000000000000000000000000000000000000000000000000000000000000000000000000000000000000000000000000000020000000000000000000000000000000000000000000000000000000000000000000000000000000001040000000000000000000000000000000000000000000000000000000000001000000000000000000000000010000000000000000000000000000000000000000008000000000000000000000000000000000000000000000000000",
      "type": "0x2",
      "transactionHash": "0xf4bfbd49fddca779b8035986829ffa756d15c3babf79349999f21aa2541f9ae2",
      "transactionIndex": "0x61",
      "blockHash": "0x2f28a9f80b2e4ea2b2a6a0405d7e9d64008113562e7786306b4239cf07257491",
      "blockNumber": "0x1573ed6",
      "gasUsed": "0xce5f",
      "effectiveGasPrice": "0x7f5d61e0",
      "from": "0xb819a871d20913839c37f316dc914b0570bfc0ee",
      "to": "0x8bad0c523516262a439197736fff982f5e0987cc",
      "contractAddress": null
    },
    {
      "status": "0x1",
      "cumulativeGasUsed": "0xb5b512",
      "logs": [
        {
          "address": "0x8bad0c523516262a439197736fff982f5e0987cc",
          "topics": [
            "0x4059c608a8f17b9b24a5a29662eb74934d39ea92ae22411868f07fcac29487a0",
            "0x0000000000000000000000007efe40b2e6da8b28aab6bd2d622b9cd7f5fe077c"
          ],
          "data": "0x0000000000000000000000000000000000000000000000000000000000000001",
          "blockHash": "0xb1c551a3ee9b38634d8d627f863181f1bac8b987e102641a191c55b88f7210a0",
          "blockNumber": "0x1573ed7",
          "blockTimestamp": "0x68270e43",
          "transactionHash": "0x89beec27741c7e7c0aa7f97751293cc9fef02006c61851d68dc92d0e57e4d143",
          "transactionIndex": "0x89",
          "logIndex": "0x164",
          "removed": false
        }
      ],
      "logsBloom": "0x00000000000000000000000000000000000000000000000000000000000000000000000000000000000000020000000000000000000000000000000000000000000000000008000000080000000000000000000000000000000000000000000000000000000000000000000000000000000000000000000000000020000000000000000200000000000000000000000000000000000000000000000000000000000000000040000000000000000000000000000000000000000000000000000000000000000000000000000000000000010000800000000000000000000000000000000000008000000000000000000000000000000000000000000000000000",
      "type": "0x2",
      "transactionHash": "0x89beec27741c7e7c0aa7f97751293cc9fef02006c61851d68dc92d0e57e4d143",
      "transactionIndex": "0x89",
      "blockHash": "0xb1c551a3ee9b38634d8d627f863181f1bac8b987e102641a191c55b88f7210a0",
      "blockNumber": "0x1573ed7",
      "gasUsed": "0xce5f",
      "effectiveGasPrice": "0x7acc5b23",
      "from": "0xb819a871d20913839c37f316dc914b0570bfc0ee",
      "to": "0x8bad0c523516262a439197736fff982f5e0987cc",
      "contractAddress": null
    },
    {
      "status": "0x1",
      "cumulativeGasUsed": "0x1040509",
      "logs": [
        {
          "address": "0x8bad0c523516262a439197736fff982f5e0987cc",
          "topics": [
            "0x4059c608a8f17b9b24a5a29662eb74934d39ea92ae22411868f07fcac29487a0",
            "0x000000000000000000000000a22dcb8f0a2848289124086f35ae9db2a0006962"
          ],
          "data": "0x0000000000000000000000000000000000000000000000000000000000000001",
          "blockHash": "0x9b8745f0edd19f2e67c3c879f9540f84efb86e25b2fcf15c03cfaf28586e620f",
          "blockNumber": "0x1573ed8",
          "blockTimestamp": "0x68270e4f",
          "transactionHash": "0x25b0b916eca6c51e0c3b409621bf253760800a82564b732094dde2391ccdbd2f",
          "transactionIndex": "0xc9",
          "logIndex": "0x1e6",
          "removed": false
        }
      ],
      "logsBloom": "0x00000000000000000100000000000000000000000000000000000000000000000000000000000000000000020000000000000000000000000000000000000000000000100008000000000000000000000000000000000000000000000000000000000000000000000000000000000000000000000000000000000020000000000000000000000000000000000000000000000000000000200000000000000000000000000040000000000000000000000000000000000000000000000000000000000000000000000000000000000000010000000000000000000000000000000000000000008000000000000000000000000000000000000000000000000000",
      "type": "0x2",
      "transactionHash": "0x25b0b916eca6c51e0c3b409621bf253760800a82564b732094dde2391ccdbd2f",
      "transactionIndex": "0xc9",
      "blockHash": "0x9b8745f0edd19f2e67c3c879f9540f84efb86e25b2fcf15c03cfaf28586e620f",
      "blockNumber": "0x1573ed8",
      "gasUsed": "0xce53",
      "effectiveGasPrice": "0x76e26944",
      "from": "0xb819a871d20913839c37f316dc914b0570bfc0ee",
      "to": "0x8bad0c523516262a439197736fff982f5e0987cc",
      "contractAddress": null
    },
    {
      "status": "0x1",
      "cumulativeGasUsed": "0x83ae77",
      "logs": [
        {
          "address": "0x8bad0c523516262a439197736fff982f5e0987cc",
          "topics": [
            "0x4059c608a8f17b9b24a5a29662eb74934d39ea92ae22411868f07fcac29487a0",
            "0x000000000000000000000000b819a871d20913839c37f316dc914b0570bfc0ee"
          ],
          "data": "0x0000000000000000000000000000000000000000000000000000000000000001",
          "blockHash": "0xd498ddf9a6433ef315988167e55dd36f8c5a2f7f30b528589b228c5490b837d6",
          "blockNumber": "0x1573ed9",
          "blockTimestamp": "0x68270e5b",
          "transactionHash": "0x9e0eb1f6a6f3b4338158ef4785e8bbf562efc71a032b8c3d8eaff93580f3153a",
          "transactionIndex": "0x77",
          "logIndex": "0x104",
          "removed": false
        }
      ],
      "logsBloom": "0x00000000000000000000000000000000000000000000000000000000000000000000000000000000000000020000000000000000000000000000000000000002000000000088000000000000000000000000000000000000000000000000000000000000000000000000000000000000000000000000000000000020000000000000000000000000000000000000000000000000000000000000000000000000000000000040000000000000000000000000000000000000000000000000000000000000000000000000000000000000010000000000000000000200000000000000000000008000000000000000000000000000000000000000000000000000",
      "type": "0x2",
      "transactionHash": "0x9e0eb1f6a6f3b4338158ef4785e8bbf562efc71a032b8c3d8eaff93580f3153a",
      "transactionIndex": "0x77",
      "blockHash": "0xd498ddf9a6433ef315988167e55dd36f8c5a2f7f30b528589b228c5490b837d6",
      "blockNumber": "0x1573ed9",
      "gasUsed": "0xce5f",
      "effectiveGasPrice": "0x794eb42b",
      "from": "0xb819a871d20913839c37f316dc914b0570bfc0ee",
      "to": "0x8bad0c523516262a439197736fff982f5e0987cc",
      "contractAddress": null
    },
    {
      "status": "0x1",
      "cumulativeGasUsed": "0xd6dfbb",
      "logs": [
        {
          "address": "0x8bad0c523516262a439197736fff982f5e0987cc",
          "topics": [
            "0x4059c608a8f17b9b24a5a29662eb74934d39ea92ae22411868f07fcac29487a0",
            "0x00000000000000000000000040282d3cf4890d9806bc1853e97a59c93d813653"
          ],
          "data": "0x0000000000000000000000000000000000000000000000000000000000000001",
          "blockHash": "0x2649d6875d2294df3b941cbd543083098ebb4a00f9337c22f74f63671c9cfdce",
          "blockNumber": "0x1573eda",
          "blockTimestamp": "0x68270e67",
          "transactionHash": "0x0d52ed25e86db0e8339b23c27a87ac4abc480cd9b2e372d67cdd3f7a76a3018f",
          "transactionIndex": "0x78",
          "logIndex": "0x1c0",
          "removed": false
        }
      ],
      "logsBloom": "0x00000000000000000000000000000000000000000000000000000000000000000000004000000000000000020000000000000000000000000000000000000000000000000008000000000000000000000000000000000000000000000000000000000000000000000000000000000000000000000000000000000020000000000000000040000000000000000000000000000000000200000000000000000000000000000040000000000000000000000000000000000000000000000000000000000000000000000000000000000000010000000000000000000000000000000000000000008000000000000000000000000000000000000000000000000000",
      "type": "0x2",
      "transactionHash": "0x0d52ed25e86db0e8339b23c27a87ac4abc480cd9b2e372d67cdd3f7a76a3018f",
      "transactionIndex": "0x78",
      "blockHash": "0x2649d6875d2294df3b941cbd543083098ebb4a00f9337c22f74f63671c9cfdce",
      "blockNumber": "0x1573eda",
      "gasUsed": "0xce5f",
      "effectiveGasPrice": "0x740070b9",
      "from": "0xb819a871d20913839c37f316dc914b0570bfc0ee",
      "to": "0x8bad0c523516262a439197736fff982f5e0987cc",
      "contractAddress": null
    },
    {
      "status": "0x1",
      "cumulativeGasUsed": "0xf45480",
      "logs": [
        {
          "address": "0x8bad0c523516262a439197736fff982f5e0987cc",
          "topics": [
            "0x4059c608a8f17b9b24a5a29662eb74934d39ea92ae22411868f07fcac29487a0",
            "0x000000000000000000000000b5b901f1bb86421301138b5c45c1d3fe96663161"
          ],
          "data": "0x0000000000000000000000000000000000000000000000000000000000000001",
          "blockHash": "0xf924174528a32c004b38d7e12d2d7bdf057b402cdd95f5d924b52ab2b2f2a7a8",
          "blockNumber": "0x1573edb",
          "blockTimestamp": "0x68270e73",
          "transactionHash": "0xfc626f96a57144d13297b6e163b11d77f69ce72f422416ff6f4d6f4347e7314c",
          "transactionIndex": "0xac",
          "logIndex": "0x1ca",
          "removed": false
        }
      ],
      "logsBloom": "0x00000000000000000000000000000000000000000000000000000000000000004000000000000000000000020000000000000000000000000000000000000000000000000008000000000000000000000000000000800000000000000000000000000000000000000000000000000000000000000000000000000020000000000000000000000000000000000000000000000000000000000000000000000000000000000040010000000000000000000000000000000000000000000000000000000000000000000000000000000000010000000000000000000000000000000000000000008000000000000000000000000000000000000000000000000000",
      "type": "0x2",
      "transactionHash": "0xfc626f96a57144d13297b6e163b11d77f69ce72f422416ff6f4d6f4347e7314c",
      "transactionIndex": "0xac",
      "blockHash": "0xf924174528a32c004b38d7e12d2d7bdf057b402cdd95f5d924b52ab2b2f2a7a8",
      "blockNumber": "0x1573edb",
      "gasUsed": "0xce5f",
      "effectiveGasPrice": "0x719e8b4e",
      "from": "0xb819a871d20913839c37f316dc914b0570bfc0ee",
      "to": "0x8bad0c523516262a439197736fff982f5e0987cc",
      "contractAddress": null
    },
    {
      "status": "0x1",
      "cumulativeGasUsed": "0x1124610",
      "logs": [
        {
          "address": "0x8bad0c523516262a439197736fff982f5e0987cc",
          "topics": [
            "0x4059c608a8f17b9b24a5a29662eb74934d39ea92ae22411868f07fcac29487a0",
            "0x000000000000000000000000baec8904499dcdee770c60df15b0c37eac84fb62"
          ],
          "data": "0x0000000000000000000000000000000000000000000000000000000000000001",
          "blockHash": "0x0ae5b620ec587f49d1c8730ed78a24c2d29fb3719cdf8d482d7b3bd16e0e8900",
          "blockNumber": "0x1573edc",
          "blockTimestamp": "0x68270e7f",
          "transactionHash": "0x441f3449f541016729e7ac0b54b1169d30fbfc767878008d4179f65696ace1d9",
          "transactionIndex": "0x82",
          "logIndex": "0x12e",
          "removed": false
        }
      ],
      "logsBloom": "0x00000000000000000000000000000000000000000000000000000000000000000000000000000000000000020000000000000000000000000000000000000000000000000008800000000000000080000000000000000000000000000000000000000000000000000000000000000000000000000000000000000020000000000000000000000000000000000000000000000000000000000000000000000000000000000040000000000000000000000000000000000000000000000000000000000000000000000000000000000000018000000000000000000000000000000000000000008000000000000000000000000000000000000000000000000000",
      "type": "0x2",
      "transactionHash": "0x441f3449f541016729e7ac0b54b1169d30fbfc767878008d4179f65696ace1d9",
      "transactionIndex": "0x82",
      "blockHash": "0x0ae5b620ec587f49d1c8730ed78a24c2d29fb3719cdf8d482d7b3bd16e0e8900",
      "blockNumber": "0x1573edc",
      "gasUsed": "0xce5f",
      "effectiveGasPrice": "0x72b3b53b",
      "from": "0xb819a871d20913839c37f316dc914b0570bfc0ee",
      "to": "0x8bad0c523516262a439197736fff982f5e0987cc",
      "contractAddress": null
    },
    {
      "status": "0x1",
      "cumulativeGasUsed": "0xdf55b1",
      "logs": [
        {
          "address": "0x8bad0c523516262a439197736fff982f5e0987cc",
          "topics": [
            "0x4059c608a8f17b9b24a5a29662eb74934d39ea92ae22411868f07fcac29487a0",
            "0x000000000000000000000000fc4a23271b60887fc246b060b6931a08e2bc434c"
          ],
          "data": "0x0000000000000000000000000000000000000000000000000000000000000001",
          "blockHash": "0x95a38d0e58361144e7e4d15aa705212231cdf30d3a32c5a25a39e17f7daeff02",
          "blockNumber": "0x1573edd",
          "blockTimestamp": "0x68270e8b",
          "transactionHash": "0xe0eab1a31eca16337a4fd4dcf6c602ace3021f5facc951ee8ca2562fd97c138e",
          "transactionIndex": "0xa3",
          "logIndex": "0x16f",
          "removed": false
        }
      ],
      "logsBloom": "0x00000200000000000000000000000000000000000000000000000000000000000000000000000000000000020000000000000000000000000000000000000000000000000008020000000000000000000000000000000000000000004000000000000000000000000000000000000000000000000000000000000020000000000000000000000000000000000000000000000000000000000000000000000000000000000040000000000000000000000000000000000000000000000000000000000000000000000000000000000000010000000000000000000000000000000000000000008000000000000000000000000000000000000000000000000000",
      "type": "0x2",
      "transactionHash": "0xe0eab1a31eca16337a4fd4dcf6c602ace3021f5facc951ee8ca2562fd97c138e",
      "transactionIndex": "0xa3",
      "blockHash": "0x95a38d0e58361144e7e4d15aa705212231cdf30d3a32c5a25a39e17f7daeff02",
      "blockNumber": "0x1573edd",
      "gasUsed": "0xce5f",
      "effectiveGasPrice": "0x74b63bb8",
      "from": "0xb819a871d20913839c37f316dc914b0570bfc0ee",
      "to": "0x8bad0c523516262a439197736fff982f5e0987cc",
      "contractAddress": null
    },
    {
      "status": "0x1",
      "cumulativeGasUsed": "0xc310f2",
      "logs": [
        {
          "address": "0x8bad0c523516262a439197736fff982f5e0987cc",
          "topics": [
            "0x4059c608a8f17b9b24a5a29662eb74934d39ea92ae22411868f07fcac29487a0",
            "0x00000000000000000000000065b142550ae82f4bb3792e1eefb2fc35541a3837"
          ],
          "data": "0x0000000000000000000000000000000000000000000000000000000000000001",
          "blockHash": "0xc652e524173c69c222bf20dbc44a92d8e76674dd89fba0af1bec58b23d0f321a",
          "blockNumber": "0x1573ede",
          "blockTimestamp": "0x68270e97",
          "transactionHash": "0x5e9cf51ae581bf56e258bcbce83ef4bc94cb455df5ec4d0abd6eab67a4aa2c96",
          "transactionIndex": "0x81",
          "logIndex": "0x14d",
          "removed": false
        }
      ],
      "logsBloom": "0x00000000000000000000000000000000000000000000000000000000000000000000000000000000000000020000000000000000000000000000000000000000000000000008000000000000000000000000000000000000000000000000000000000000000000000000000000000000000000000000000000000020000000000000000000000000000000000000000000000000000000000000000000000000000040000040000000000000000000080000000000000000000000000000000000000000000000000000000000000000010000000000000000000000008000000000000000008000000000000000000000000000000000000000000000000000",
      "type": "0x2",
      "transactionHash": "0x5e9cf51ae581bf56e258bcbce83ef4bc94cb455df5ec4d0abd6eab67a4aa2c96",
      "transactionIndex": "0x81",
      "blockHash": "0xc652e524173c69c222bf20dbc44a92d8e76674dd89fba0af1bec58b23d0f321a",
      "blockNumber": "0x1573ede",
      "gasUsed": "0xce5f",
      "effectiveGasPrice": "0x74397d70",
      "from": "0xb819a871d20913839c37f316dc914b0570bfc0ee",
      "to": "0x8bad0c523516262a439197736fff982f5e0987cc",
      "contractAddress": null
    },
    {
      "status": "0x1",
      "cumulativeGasUsed": "0x8cf2b0",
      "logs": [
        {
          "address": "0x8bad0c523516262a439197736fff982f5e0987cc",
          "topics": [
            "0x4059c608a8f17b9b24a5a29662eb74934d39ea92ae22411868f07fcac29487a0",
            "0x00000000000000000000000075149feebb20e1fe5ddb89302a6d4bace70c14ce"
          ],
          "data": "0x0000000000000000000000000000000000000000000000000000000000000001",
          "blockHash": "0x0eb0f2682c92053a05b1fcbb9a0f6d851670dc6c049424d768f7b98c53b96663",
          "blockNumber": "0x1573edf",
          "blockTimestamp": "0x68270ea3",
          "transactionHash": "0xd7b8a72030f5835395aaca0ddc59e1cd2a32dbcb62c3bf65813d2d366c68de9e",
          "transactionIndex": "0x6f",
          "logIndex": "0xf6",
          "removed": false
        }
      ],
      "logsBloom": "0x00000000000000200000000000000000000000000000000000000000000000000000000000000000040000020000000000000000000000000000000000000000000000000008000000000000000000000000000000000000000000000000000000000000000000000000000000000000000000000000000000000020000000000000000000000000000000000000000000000000000000000000000000000000000000000040000000000000000010000000000000000000000000000000000000000000000000000000000000000000010000000000000000000000000000000000000000008000000000000000000000000000000000000000000000000000",
      "type": "0x2",
      "transactionHash": "0xd7b8a72030f5835395aaca0ddc59e1cd2a32dbcb62c3bf65813d2d366c68de9e",
      "transactionIndex": "0x6f",
      "blockHash": "0x0eb0f2682c92053a05b1fcbb9a0f6d851670dc6c049424d768f7b98c53b96663",
      "blockNumber": "0x1573edf",
      "gasUsed": "0xce5f",
      "effectiveGasPrice": "0x7193f61e",
      "from": "0xb819a871d20913839c37f316dc914b0570bfc0ee",
      "to": "0x8bad0c523516262a439197736fff982f5e0987cc",
      "contractAddress": null
    },
    {
      "status": "0x1",
      "cumulativeGasUsed": "0xba596d",
      "logs": [
        {
          "address": "0x8bad0c523516262a439197736fff982f5e0987cc",
          "topics": [
            "0x4059c608a8f17b9b24a5a29662eb74934d39ea92ae22411868f07fcac29487a0",
            "0x00000000000000000000000065b6d4770dadcfba6d363de86aa4d9c76283cea0"
          ],
          "data": "0x0000000000000000000000000000000000000000000000000000000000000001",
          "blockHash": "0x0140a42d8739b60ef46611d5a49b356b76f81e15e6b08be7175028bfc95cf2c2",
          "blockNumber": "0x1573ee0",
          "blockTimestamp": "0x68270eaf",
          "transactionHash": "0x4036e30f2d9b854c7922265669c74c56e8633f4e47de77cc92e0efb4f37138f9",
          "transactionIndex": "0x7d",
          "logIndex": "0x164",
          "removed": false
        }
      ],
      "logsBloom": "0x00000000800000000000000000000000000000000000000000000000000000000000000000000000000002020000000000000000000000000000000000000000000000000008000000000000000000000000000000000000000000000000000000000000000000000000000000000000000000000000000000000020000000000000000000000000000000000000000000000000000000000000000000000000000000000040000000000000000000000000000000000000000000000000000000000000000000000000000000000000012000000000000000000000000000000000000000008000000000000000000000000000000000000000000000000000",
      "type": "0x2",
      "transactionHash": "0x4036e30f2d9b854c7922265669c74c56e8633f4e47de77cc92e0efb4f37138f9",
      "transactionIndex": "0x7d",
      "blockHash": "0x0140a42d8739b60ef46611d5a49b356b76f81e15e6b08be7175028bfc95cf2c2",
      "blockNumber": "0x1573ee0",
      "gasUsed": "0xce5f",
      "effectiveGasPrice": "0x6e41b3e5",
      "from": "0xb819a871d20913839c37f316dc914b0570bfc0ee",
      "to": "0x8bad0c523516262a439197736fff982f5e0987cc",
      "contractAddress": null
    },
    {
      "status": "0x1",
      "cumulativeGasUsed": "0x11a95ac",
      "logs": [
        {
          "address": "0x8bad0c523516262a439197736fff982f5e0987cc",
          "topics": [
            "0x4059c608a8f17b9b24a5a29662eb74934d39ea92ae22411868f07fcac29487a0",
            "0x000000000000000000000000a6a9fddc94bb4fe7520a2ea1cc2c433e18683342"
          ],
          "data": "0x0000000000000000000000000000000000000000000000000000000000000001",
          "blockHash": "0xe580f94831cec4eee6784e29d680cbb803a5d26bb28b0363a48c218dbc117699",
          "blockNumber": "0x1573ee1",
          "blockTimestamp": "0x68270ebb",
          "transactionHash": "0x4b7a6ca4bff4d7fc53e2bdf527ac225cdbd3e594dfa58cecfcaeb37099dcf353",
          "transactionIndex": "0x93",
          "logIndex": "0x188",
          "removed": false
        }
      ],
      "logsBloom": "0x00000000000040000000000000000000000000000000000000000000000000000000000000000000000000020000000000000000000000000000000000000000000000000008000000000000000000400000000000000000000000000000000000000000000000000000000000000000000000000000000000000020000000000000000000000000000000000000000000000000000000000000000000000000000000000040000002000000000000000000000000000000000000000000000000000000000000000000000000000000010000000000000000000000000000000000000000008000000000000000000000000000000000000000000000000000",
      "type": "0x2",
      "transactionHash": "0x4b7a6ca4bff4d7fc53e2bdf527ac225cdbd3e594dfa58cecfcaeb37099dcf353",
      "transactionIndex": "0x93",
      "blockHash": "0xe580f94831cec4eee6784e29d680cbb803a5d26bb28b0363a48c218dbc117699",
      "blockNumber": "0x1573ee1",
      "gasUsed": "0xce5f",
      "effectiveGasPrice": "0x6bc82760",
      "from": "0xb819a871d20913839c37f316dc914b0570bfc0ee",
      "to": "0x8bad0c523516262a439197736fff982f5e0987cc",
      "contractAddress": null
    },
    {
      "status": "0x1",
      "cumulativeGasUsed": "0x9dbd3b",
      "logs": [
        {
          "address": "0x8bad0c523516262a439197736fff982f5e0987cc",
          "topics": [
            "0x4059c608a8f17b9b24a5a29662eb74934d39ea92ae22411868f07fcac29487a0",
            "0x00000000000000000000000018d04f05f80ade5373849385a1c24e1e0a6d1744"
          ],
          "data": "0x0000000000000000000000000000000000000000000000000000000000000001",
          "blockHash": "0x512c319951d4eef61cf4e64b07239ceaac20ebb4443fdd89d1249b88c63a3c63",
          "blockNumber": "0x1573ee2",
          "blockTimestamp": "0x68270ec7",
          "transactionHash": "0x4f5a9fa1bb77d00dff06ce68f35c29b420a4bed23964625fa5fb817451afdc5b",
          "transactionIndex": "0x60",
          "logIndex": "0x10e",
          "removed": false
        }
      ],
      "logsBloom": "0x00000000000000000000000000000000000000000000000000000000000000000000000000000000000000020000000000000000000000000000000000000000000000000008000000000000000100000000000000000000000000000000000000000000000000000000000000000000000000000000000000000020000000000000000000000000000000000000000000000000000000000000000000000000000000000040000000000000000000000000000000000000000000000000000000000000000100000000000000000000010000000000000000000000000000000000000000008000000000000004000000000000000000000000000000000000",
      "type": "0x2",
      "transactionHash": "0x4f5a9fa1bb77d00dff06ce68f35c29b420a4bed23964625fa5fb817451afdc5b",
      "transactionIndex": "0x60",
      "blockHash": "0x512c319951d4eef61cf4e64b07239ceaac20ebb4443fdd89d1249b88c63a3c63",
      "blockNumber": "0x1573ee2",
      "gasUsed": "0xce5f",
      "effectiveGasPrice": "0x6d253677",
      "from": "0xb819a871d20913839c37f316dc914b0570bfc0ee",
      "to": "0x8bad0c523516262a439197736fff982f5e0987cc",
      "contractAddress": null
    },
    {
      "status": "0x1",
      "cumulativeGasUsed": "0xa6aa9b",
      "logs": [
        {
          "address": "0x8bad0c523516262a439197736fff982f5e0987cc",
          "topics": [
            "0x4059c608a8f17b9b24a5a29662eb74934d39ea92ae22411868f07fcac29487a0",
            "0x000000000000000000000000bd9c90d6774cb5320b54bb7998b6bcc5e4a9071f"
          ],
          "data": "0x0000000000000000000000000000000000000000000000000000000000000001",
          "blockHash": "0x49b3a952b8c53c8be3a4fb6741f8adab97793fda713e7aa430f6806fa26bb959",
          "blockNumber": "0x1573ee3",
          "blockTimestamp": "0x68270ed3",
          "transactionHash": "0xa347581ac78027946026018cdd60cc104f740b6b605c4e82205cd000ee122038",
          "transactionIndex": "0x67",
          "logIndex": "0x133",
          "removed": false
        }
      ],
      "logsBloom": "0x00000000000000000000000000000000000000000000000000000000000000000000000000002000000000020000000000000000000040000000000000000000000000000008000000000000000000000000000000000000000000000000000000000000000000000000000000000000000000000000000000000020000000000000000000000000000000000000000000000000000000000000000000000000000000000040000000000000000000000000000000800000000000000000000000000000000000000000000000000000010000000000000000000000000000000000000000008000000000000000000000000000000000000000000000000000",
      "type": "0x2",
      "transactionHash": "0xa347581ac78027946026018cdd60cc104f740b6b605c4e82205cd000ee122038",
      "transactionIndex": "0x67",
      "blockHash": "0x49b3a952b8c53c8be3a4fb6741f8adab97793fda713e7aa430f6806fa26bb959",
      "blockNumber": "0x1573ee3",
      "gasUsed": "0xce5f",
      "effectiveGasPrice": "0x68f750d6",
      "from": "0xb819a871d20913839c37f316dc914b0570bfc0ee",
      "to": "0x8bad0c523516262a439197736fff982f5e0987cc",
      "contractAddress": null
    },
    {
      "status": "0x1",
      "cumulativeGasUsed": "0x106010d",
      "logs": [
        {
          "address": "0x8bad0c523516262a439197736fff982f5e0987cc",
          "topics": [
            "0x4059c608a8f17b9b24a5a29662eb74934d39ea92ae22411868f07fcac29487a0",
            "0x0000000000000000000000008f2eaba31b1b613ca78f2795ba05400f0583c5a4"
          ],
          "data": "0x0000000000000000000000000000000000000000000000000000000000000001",
          "blockHash": "0xbdbfb359a2028416567645771d7d74e3d7c840b8e8775466f29f54e9e092eb06",
          "blockNumber": "0x1573ee4",
          "blockTimestamp": "0x68270edf",
          "transactionHash": "0x091f91f21f03d2312c5692413f0dc1078dffc267750d078243ccbb6c7a013a41",
          "transactionIndex": "0xbd",
          "logIndex": "0x180",
          "removed": false
        }
      ],
      "logsBloom": "0x00000000000000000000000000000000000000000000000000000000000000000000000000000000000000020000000000000000000000000000000000000000000000000008000000000000000000000000000000000000000000000000000000000000000000000000001000000000000000000000000000000020000000000000000000000000000000000000000000000000000000000000000000000000000000000040000000000000000000000000000000000000000000000000000000004000000000000000000000002000010000000000000000000000000000000000000000008000000000000000000000000000000000000000000000000000",
      "type": "0x2",
      "transactionHash": "0x091f91f21f03d2312c5692413f0dc1078dffc267750d078243ccbb6c7a013a41",
      "transactionIndex": "0xbd",
      "blockHash": "0xbdbfb359a2028416567645771d7d74e3d7c840b8e8775466f29f54e9e092eb06",
      "blockNumber": "0x1573ee4",
      "gasUsed": "0xce5f",
      "effectiveGasPrice": "0x668826b4",
      "from": "0xb819a871d20913839c37f316dc914b0570bfc0ee",
      "to": "0x8bad0c523516262a439197736fff982f5e0987cc",
      "contractAddress": null
    },
    {
      "status": "0x1",
      "cumulativeGasUsed": "0x104dd99",
      "logs": [
        {
          "address": "0x8bad0c523516262a439197736fff982f5e0987cc",
          "topics": [
            "0x4059c608a8f17b9b24a5a29662eb74934d39ea92ae22411868f07fcac29487a0",
            "0x0000000000000000000000008f2eaba31b1b613ca78f2795ba05400f0583c5a4"
          ],
          "data": "0x0000000000000000000000000000000000000000000000000000000000000001",
          "blockHash": "0xa630bb5f253678d33341ce92e0c0d4776d51d604f636f6778101133887470283",
          "blockNumber": "0x1573ee5",
          "blockTimestamp": "0x68270eeb",
          "transactionHash": "0x301a2a6759f1466271c07c5af1e229c1d3fa8b6d8a9426a5a8c526ca374fed4d",
          "transactionIndex": "0x106",
          "logIndex": "0x18b",
          "removed": false
        }
      ],
      "logsBloom": "0x00000000000000000000000000000000000000000000000000000000000000000000000000000000000000020000000000000000000000000000000000000000000000000008000000000000000000000000000000000000000000000000000000000000000000000000001000000000000000000000000000000020000000000000000000000000000000000000000000000000000000000000000000000000000000000040000000000000000000000000000000000000000000000000000000004000000000000000000000002000010000000000000000000000000000000000000000008000000000000000000000000000000000000000000000000000",
      "type": "0x2",
      "transactionHash": "0x301a2a6759f1466271c07c5af1e229c1d3fa8b6d8a9426a5a8c526ca374fed4d",
      "transactionIndex": "0x106",
      "blockHash": "0xa630bb5f253678d33341ce92e0c0d4776d51d604f636f6778101133887470283",
      "blockNumber": "0x1573ee5",
      "gasUsed": "0x80a3",
      "effectiveGasPrice": "0x6861265d",
      "from": "0xb819a871d20913839c37f316dc914b0570bfc0ee",
      "to": "0x8bad0c523516262a439197736fff982f5e0987cc",
      "contractAddress": null
    },
    {
      "status": "0x1",
      "cumulativeGasUsed": "0x120b4c0",
      "logs": [
        {
          "address": "0x8bad0c523516262a439197736fff982f5e0987cc",
          "topics": [
            "0x4059c608a8f17b9b24a5a29662eb74934d39ea92ae22411868f07fcac29487a0",
            "0x00000000000000000000000050d8deadd2b3140b151cab2c4fb76f1f59b236f8"
          ],
          "data": "0x0000000000000000000000000000000000000000000000000000000000000001",
          "blockHash": "0x04fcbbf4b041a9f20cf841724ffcc5217d3c9acee52fa31604f19eb32eac8ed9",
          "blockNumber": "0x1573ee6",
          "blockTimestamp": "0x68270ef7",
          "transactionHash": "0xfca594f0704ae8d951129b82e23f6d72301e27a8f05fd5b1b60979dbb3915cbf",
          "transactionIndex": "0xb8",
          "logIndex": "0x1f5",
          "removed": false
        }
      ],
      "logsBloom": "0x00000000000000000000000000000000000000000000200000000000000000000000000000000000000000020000000000000000000000000000000000000000000000000008000000000000000000000000000000000000000000000000000000000000000000000000000000000000000000000000000000000020020000000000000000000000000000000000000000000000000000000000000000000000000000000040000000000000000000000000000000000000000000000000000000000000000000000000000000000000010000000000000000000000000000000000000000808000000000000000000000000000000000000000000000000000",
      "type": "0x2",
      "transactionHash": "0xfca594f0704ae8d951129b82e23f6d72301e27a8f05fd5b1b60979dbb3915cbf",
      "transactionIndex": "0xb8",
      "blockHash": "0x04fcbbf4b041a9f20cf841724ffcc5217d3c9acee52fa31604f19eb32eac8ed9",
      "blockNumber": "0x1573ee6",
      "gasUsed": "0x80a3",
      "effectiveGasPrice": "0x68d55e1c",
      "from": "0xb819a871d20913839c37f316dc914b0570bfc0ee",
      "to": "0x8bad0c523516262a439197736fff982f5e0987cc",
      "contractAddress": null
    },
    {
      "status": "0x1",
      "cumulativeGasUsed": "0x1041c2c",
      "logs": [
        {
          "address": "0x8bad0c523516262a439197736fff982f5e0987cc",
          "topics": [
            "0x4059c608a8f17b9b24a5a29662eb74934d39ea92ae22411868f07fcac29487a0",
            "0x000000000000000000000000574582c44e3f1ef2cb29a7131b057febbcc8244e"
          ],
          "data": "0x0000000000000000000000000000000000000000000000000000000000000001",
          "blockHash": "0xedd45be47377d0e7ac9ba041b9298d91b4ad02c8d2e9d6d0d8851a77e153524f",
          "blockNumber": "0x1573ee7",
          "blockTimestamp": "0x68270f03",
          "transactionHash": "0xdc4a1279c9eca0434665448427fdbf1ab33862262e30f037179144d15eaf6dc6",
          "transactionIndex": "0x92",
          "logIndex": "0x16d",
          "removed": false
        }
      ],
      "logsBloom": "0x00000000000000000000000000000000000000000000000000000000000000000000000000000000000000020000000000000000000000000000000000000000000000000008200000000000000000000000000000000000000000000000000000000000000000000000000000000000000000000000000000000020000000000000000000000000000000100000000000000000000000000000000000000000004000000040000000000000000000000000000000000000000000000000000000000000000000000000000000000000010000000000000000000000000000000000000000008000000000000000000000000000000000000000000000000000",
      "type": "0x2",
      "transactionHash": "0xdc4a1279c9eca0434665448427fdbf1ab33862262e30f037179144d15eaf6dc6",
      "transactionIndex": "0x92",
      "blockHash": "0xedd45be47377d0e7ac9ba041b9298d91b4ad02c8d2e9d6d0d8851a77e153524f",
      "blockNumber": "0x1573ee7",
      "gasUsed": "0x80a3",
      "effectiveGasPrice": "0x6aa3a95c",
      "from": "0xb819a871d20913839c37f316dc914b0570bfc0ee",
      "to": "0x8bad0c523516262a439197736fff982f5e0987cc",
      "contractAddress": null
    },
    {
      "status": "0x1",
      "cumulativeGasUsed": "0xcf25cf",
      "logs": [
        {
          "address": "0x8bad0c523516262a439197736fff982f5e0987cc",
          "topics": [
            "0x4059c608a8f17b9b24a5a29662eb74934d39ea92ae22411868f07fcac29487a0",
            "0x000000000000000000000000bd0ce952ba069a1e15f3bf3916d4b07bbbdbc8b3"
          ],
          "data": "0x0000000000000000000000000000000000000000000000000000000000000001",
          "blockHash": "0x83393c88d11b0f4faf1f8dc0a5c46a0f2f10ae03aa0cd0f9eca8160f084a00a5",
          "blockNumber": "0x1573ee8",
          "blockTimestamp": "0x68270f0f",
          "transactionHash": "0x218b8dd22df6ced994708ab540142f620a0243b6e9ab4e85e60fece19959f404",
          "transactionIndex": "0x108",
          "logIndex": "0xeb",
          "removed": false
        }
      ],
      "logsBloom": "0x0000000000000000000000000000000000000000000000000000000000000000000000000000000000000002000000000000000000000000000000000000000000000000000a000000000000000000000000000000000000000000000000000000000000000000000000000000000000000000000000000000000020000000000000000000000000000000000000000000000000000000000000000000000000000000000040000000000000000000000000000000000000000000000000000000000000008000000000010000000000010000000000000000000000000000000000000000008000000000000000000000000000000000000000000000000000",
      "type": "0x2",
      "transactionHash": "0x218b8dd22df6ced994708ab540142f620a0243b6e9ab4e85e60fece19959f404",
      "transactionIndex": "0x108",
      "blockHash": "0x83393c88d11b0f4faf1f8dc0a5c46a0f2f10ae03aa0cd0f9eca8160f084a00a5",
      "blockNumber": "0x1573ee8",
      "gasUsed": "0xce5f",
      "effectiveGasPrice": "0x6b9405ba",
      "from": "0xb819a871d20913839c37f316dc914b0570bfc0ee",
      "to": "0x8bad0c523516262a439197736fff982f5e0987cc",
      "contractAddress": null
    }
  ],
  "libraries": [],
  "pending": [],
  "returns": {},
  "timestamp": 1747390226,
  "chain": 1,
  "commit": "c569661"
}