{
  "transactions": [
    {
      "hash": "0xf1c14c40059cd132009e5228aafb0df4ef76868f7ea65da3328fda82ef77080f",
      "transactionType": "CALL",
      "contractName": null,
      "contractAddress": "0x4df3dd62db219c47f6a7cb1be02c511afceadf5e",
      "function": "setWhitelistedUser(address,bool)",
      "arguments": [
        "0xf20a8950c368Ec48323092D6e4acF90aADf2BdC6",
        "true"
      ],
      "transaction": {
        "from": "0xb819a871d20913839c37f316dc914b0570bfc0ee",
        "to": "0x4df3dd62db219c47f6a7cb1be02c511afceadf5e",
        "gas": "0x11d0b",
        "value": "0x0",
        "input": "0x44710fbe000000000000000000000000f20a8950c368ec48323092d6e4acf90aadf2bdc60000000000000000000000000000000000000000000000000000000000000001",
        "nonce": "0xc2",
        "chainId": "0x1"
      },
      "additionalContracts": [],
      "isFixedGasLimit": false
    },
    {
      "hash": "0x086b85dd00a96ed6df8046a403180f5b2158215741440da1aa52fba0e762681d",
      "transactionType": "CALL",
      "contractName": null,
      "contractAddress": "0x4df3dd62db219c47f6a7cb1be02c511afceadf5e",
      "function": "setWhitelistedUser(address,bool)",
      "arguments": [
        "0x8E72a24221517E51502f20f387415a06b27A5b51",
        "true"
      ],
      "transaction": {
        "from": "0xb819a871d20913839c37f316dc914b0570bfc0ee",
        "to": "0x4df3dd62db219c47f6a7cb1be02c511afceadf5e",
        "gas": "0x11d0b",
        "value": "0x0",
        "input": "0x44710fbe0000000000000000000000008e72a24221517e51502f20f387415a06b27a5b510000000000000000000000000000000000000000000000000000000000000001",
        "nonce": "0xc3",
        "chainId": "0x1"
      },
      "additionalContracts": [],
      "isFixedGasLimit": false
    },
    {
      "hash": "0x8decfa7b8744b23b8447031cd980d633021fc20d89bb3e6fa20905e537a970c3",
      "transactionType": "CALL",
      "contractName": null,
      "contractAddress": "0x4df3dd62db219c47f6a7cb1be02c511afceadf5e",
      "function": "setWhitelistedUser(address,bool)",
      "arguments": [
        "0x50d8Deadd2b3140B151CaB2C4FB76F1f59b236F8",
        "true"
      ],
      "transaction": {
        "from": "0xb819a871d20913839c37f316dc914b0570bfc0ee",
        "to": "0x4df3dd62db219c47f6a7cb1be02c511afceadf5e",
        "gas": "0x11d0b",
        "value": "0x0",
        "input": "0x44710fbe00000000000000000000000050d8deadd2b3140b151cab2c4fb76f1f59b236f80000000000000000000000000000000000000000000000000000000000000001",
        "nonce": "0xc4",
        "chainId": "0x1"
      },
      "additionalContracts": [],
      "isFixedGasLimit": false
    },
    {
      "hash": "0x0a511b7e478b772b10b5689466d291521f4692ca5faec389a50321a32bf7e849",
      "transactionType": "CALL",
      "contractName": null,
      "contractAddress": "0x4df3dd62db219c47f6a7cb1be02c511afceadf5e",
      "function": "setWhitelistedUser(address,bool)",
      "arguments": [
        "0x574582C44e3f1EF2cB29a7131B057FebBCC8244E",
        "true"
      ],
      "transaction": {
        "from": "0xb819a871d20913839c37f316dc914b0570bfc0ee",
        "to": "0x4df3dd62db219c47f6a7cb1be02c511afceadf5e",
        "gas": "0x11d0b",
        "value": "0x0",
        "input": "0x44710fbe000000000000000000000000574582c44e3f1ef2cb29a7131b057febbcc8244e0000000000000000000000000000000000000000000000000000000000000001",
        "nonce": "0xc5",
        "chainId": "0x1"
      },
      "additionalContracts": [],
      "isFixedGasLimit": false
    },
    {
      "hash": "0x094f3542b5a021b89b731f531b699f2ca4e24c0955ebab1f4f533e1b793e9360",
      "transactionType": "CALL",
      "contractName": null,
      "contractAddress": "0x4df3dd62db219c47f6a7cb1be02c511afceadf5e",
      "function": "setWhitelistedUser(address,bool)",
      "arguments": [
        "0x281567fe62b587EC1755f6F33b80160F544Dc5d0",
        "true"
      ],
      "transaction": {
        "from": "0xb819a871d20913839c37f316dc914b0570bfc0ee",
        "to": "0x4df3dd62db219c47f6a7cb1be02c511afceadf5e",
        "gas": "0x11d0b",
        "value": "0x0",
        "input": "0x44710fbe000000000000000000000000281567fe62b587ec1755f6f33b80160f544dc5d00000000000000000000000000000000000000000000000000000000000000001",
        "nonce": "0xc6",
        "chainId": "0x1"
      },
      "additionalContracts": [],
      "isFixedGasLimit": false
    },
    {
      "hash": "0xe36762ca918e67b8de54ff1188ce23ea9de2a26c369c2dce53839c26bede5e13",
      "transactionType": "CALL",
      "contractName": null,
      "contractAddress": "0x4df3dd62db219c47f6a7cb1be02c511afceadf5e",
      "function": "setWhitelistedUser(address,bool)",
      "arguments": [
        "0x2705f6A8F01bd4A805D9FC73151DBe37BB8d1edE",
        "true"
      ],
      "transaction": {
        "from": "0xb819a871d20913839c37f316dc914b0570bfc0ee",
        "to": "0x4df3dd62db219c47f6a7cb1be02c511afceadf5e",
        "gas": "0x11d0b",
        "value": "0x0",
        "input": "0x44710fbe0000000000000000000000002705f6a8f01bd4a805d9fc73151dbe37bb8d1ede0000000000000000000000000000000000000000000000000000000000000001",
        "nonce": "0xc7",
        "chainId": "0x1"
      },
      "additionalContracts": [],
      "isFixedGasLimit": false
    },
    {
      "hash": "0x0a6cdf13a35cf8730b0f8407da281465e6e85a248cda5f7bb61e79ea7281fff5",
      "transactionType": "CALL",
      "contractName": null,
      "contractAddress": "0x4df3dd62db219c47f6a7cb1be02c511afceadf5e",
      "function": "setWhitelistedUser(address,bool)",
      "arguments": [
        "0xc9C9693b6A445D05Add0043662fad9Ac600Ad088",
        "true"
      ],
      "transaction": {
        "from": "0xb819a871d20913839c37f316dc914b0570bfc0ee",
        "to": "0x4df3dd62db219c47f6a7cb1be02c511afceadf5e",
        "gas": "0x11d0b",
        "value": "0x0",
        "input": "0x44710fbe000000000000000000000000c9c9693b6a445d05add0043662fad9ac600ad0880000000000000000000000000000000000000000000000000000000000000001",
        "nonce": "0xc8",
        "chainId": "0x1"
      },
      "additionalContracts": [],
      "isFixedGasLimit": false
    },
    {
      "hash": "0x17ac9cc16a7d860945eebebf2830d24a027b2cbe77a28345509f3fe7ddd79ed7",
      "transactionType": "CALL",
      "contractName": null,
      "contractAddress": "0x4df3dd62db219c47f6a7cb1be02c511afceadf5e",
      "function": "setWhitelistedUser(address,bool)",
      "arguments": [
        "0x7EfE40B2E6dA8b28AaB6Bd2D622B9Cd7f5fE077c",
        "true"
      ],
      "transaction": {
        "from": "0xb819a871d20913839c37f316dc914b0570bfc0ee",
        "to": "0x4df3dd62db219c47f6a7cb1be02c511afceadf5e",
        "gas": "0x11d0b",
        "value": "0x0",
        "input": "0x44710fbe0000000000000000000000007efe40b2e6da8b28aab6bd2d622b9cd7f5fe077c0000000000000000000000000000000000000000000000000000000000000001",
        "nonce": "0xc9",
        "chainId": "0x1"
      },
      "additionalContracts": [],
      "isFixedGasLimit": false
    },
    {
      "hash": "0x603afc9461bc0b7fe224a1c518dbcc2cd273e5bf33ff6910e674d7f5dc69aa25",
      "transactionType": "CALL",
      "contractName": null,
      "contractAddress": "0x4df3dd62db219c47f6a7cb1be02c511afceadf5e",
      "function": "setWhitelistedUser(address,bool)",
      "arguments": [
        "0xa22DCB8F0A2848289124086F35ae9dB2a0006962",
        "true"
      ],
      "transaction": {
        "from": "0xb819a871d20913839c37f316dc914b0570bfc0ee",
        "to": "0x4df3dd62db219c47f6a7cb1be02c511afceadf5e",
        "gas": "0x12dbf",
        "value": "0x0",
        "input": "0x44710fbe000000000000000000000000a22dcb8f0a2848289124086f35ae9db2a00069620000000000000000000000000000000000000000000000000000000000000001",
        "nonce": "0xca",
        "chainId": "0x1"
      },
      "additionalContracts": [],
      "isFixedGasLimit": false
    },
    {
      "hash": "0xb7e7f5757b4662e11adfc56a10679d44b3ebcaf21f51f9de9a5be4bc668011e9",
      "transactionType": "CALL",
      "contractName": null,
      "contractAddress": "0x4df3dd62db219c47f6a7cb1be02c511afceadf5e",
      "function": "setWhitelistedUser(address,bool)",
      "arguments": [
        "0xB819A871d20913839c37f316Dc914b0570bfc0eE",
        "true"
      ],
      "transaction": {
        "from": "0xb819a871d20913839c37f316dc914b0570bfc0ee",
        "to": "0x4df3dd62db219c47f6a7cb1be02c511afceadf5e",
        "gas": "0x11d0b",
        "value": "0x0",
        "input": "0x44710fbe000000000000000000000000b819a871d20913839c37f316dc914b0570bfc0ee0000000000000000000000000000000000000000000000000000000000000001",
        "nonce": "0xcb",
        "chainId": "0x1"
      },
      "additionalContracts": [],
      "isFixedGasLimit": false
    },
    {
      "hash": "0xb6c7674cb09a4258bee4dd73e838e9fea60366eb13121d6936ec1ac9857c930a",
      "transactionType": "CALL",
      "contractName": null,
      "contractAddress": "0x4df3dd62db219c47f6a7cb1be02c511afceadf5e",
      "function": "setWhitelistedUser(address,bool)",
      "arguments": [
        "0x40282d3Cf4890D9806BC1853e97a59C93D813653",
        "true"
      ],
      "transaction": {
        "from": "0xb819a871d20913839c37f316dc914b0570bfc0ee",
        "to": "0x4df3dd62db219c47f6a7cb1be02c511afceadf5e",
        "gas": "0x11d0b",
        "value": "0x0",
        "input": "0x44710fbe00000000000000000000000040282d3cf4890d9806bc1853e97a59c93d8136530000000000000000000000000000000000000000000000000000000000000001",
        "nonce": "0xcc",
        "chainId": "0x1"
      },
      "additionalContracts": [],
      "isFixedGasLimit": false
    },
    {
      "hash": "0x1a50283484276e22394eeb9fae9e3fa5e1e057647a7c5310432b07623febf533",
      "transactionType": "CALL",
      "contractName": null,
      "contractAddress": "0x4df3dd62db219c47f6a7cb1be02c511afceadf5e",
      "function": "setWhitelistedUser(address,bool)",
      "arguments": [
        "0xB5b901F1BB86421301138b5c45C1D3Fe96663161",
        "true"
      ],
      "transaction": {
        "from": "0xb819a871d20913839c37f316dc914b0570bfc0ee",
        "to": "0x4df3dd62db219c47f6a7cb1be02c511afceadf5e",
        "gas": "0x11d0b",
        "value": "0x0",
        "input": "0x44710fbe000000000000000000000000b5b901f1bb86421301138b5c45c1d3fe966631610000000000000000000000000000000000000000000000000000000000000001",
        "nonce": "0xcd",
        "chainId": "0x1"
      },
      "additionalContracts": [],
      "isFixedGasLimit": false
    },
    {
      "hash": "0x99264d8e8df37053a64e29a01ba3bc6e1dd6f4d6de44147576d291350c2bc223",
      "transactionType": "CALL",
      "contractName": null,
      "contractAddress": "0x4df3dd62db219c47f6a7cb1be02c511afceadf5e",
      "function": "setWhitelistedUser(address,bool)",
      "arguments": [
        "0xBAec8904499dcdee770c60df15b0C37EAC84Fb62",
        "true"
      ],
      "transaction": {
        "from": "0xb819a871d20913839c37f316dc914b0570bfc0ee",
        "to": "0x4df3dd62db219c47f6a7cb1be02c511afceadf5e",
        "gas": "0x11d0b",
        "value": "0x0",
        "input": "0x44710fbe000000000000000000000000baec8904499dcdee770c60df15b0c37eac84fb620000000000000000000000000000000000000000000000000000000000000001",
        "nonce": "0xce",
        "chainId": "0x1"
      },
      "additionalContracts": [],
      "isFixedGasLimit": false
    },
    {
      "hash": "0x7b8837229050c9daf6a510752d7486f1e7ef79d8df21b2f23d73233ba30d40a2",
      "transactionType": "CALL",
      "contractName": null,
      "contractAddress": "0x4df3dd62db219c47f6a7cb1be02c511afceadf5e",
      "function": "setWhitelistedUser(address,bool)",
      "arguments": [
        "0xfC4A23271b60887FC246B060B6931a08E2BC434c",
        "true"
      ],
      "transaction": {
        "from": "0xb819a871d20913839c37f316dc914b0570bfc0ee",
        "to": "0x4df3dd62db219c47f6a7cb1be02c511afceadf5e",
        "gas": "0x11d0b",
        "value": "0x0",
        "input": "0x44710fbe000000000000000000000000fc4a23271b60887fc246b060b6931a08e2bc434c0000000000000000000000000000000000000000000000000000000000000001",
        "nonce": "0xcf",
        "chainId": "0x1"
      },
      "additionalContracts": [],
      "isFixedGasLimit": false
    },
    {
      "hash": "0xe16d385a055fce97503b632fb22295a36ae0992071bde334e33142c8426c7908",
      "transactionType": "CALL",
      "contractName": null,
      "contractAddress": "0x4df3dd62db219c47f6a7cb1be02c511afceadf5e",
      "function": "setWhitelistedUser(address,bool)",
      "arguments": [
        "0x65b142550aE82f4BB3792E1eEfb2FC35541A3837",
        "true"
      ],
      "transaction": {
        "from": "0xb819a871d20913839c37f316dc914b0570bfc0ee",
        "to": "0x4df3dd62db219c47f6a7cb1be02c511afceadf5e",
        "gas": "0x11d0b",
        "value": "0x0",
        "input": "0x44710fbe00000000000000000000000065b142550ae82f4bb3792e1eefb2fc35541a38370000000000000000000000000000000000000000000000000000000000000001",
        "nonce": "0xd0",
        "chainId": "0x1"
      },
      "additionalContracts": [],
      "isFixedGasLimit": false
    },
    {
      "hash": "0x7a74cf57323ac83390c47abf8c0ac6cc259fef2d8a64d3055fae55918e73dee3",
      "transactionType": "CALL",
      "contractName": null,
      "contractAddress": "0x4df3dd62db219c47f6a7cb1be02c511afceadf5e",
      "function": "setWhitelistedUser(address,bool)",
      "arguments": [
        "0x75149feEBb20E1fE5Ddb89302a6d4bACE70c14Ce",
        "true"
      ],
      "transaction": {
        "from": "0xb819a871d20913839c37f316dc914b0570bfc0ee",
        "to": "0x4df3dd62db219c47f6a7cb1be02c511afceadf5e",
        "gas": "0x11d0b",
        "value": "0x0",
        "input": "0x44710fbe00000000000000000000000075149feebb20e1fe5ddb89302a6d4bace70c14ce0000000000000000000000000000000000000000000000000000000000000001",
        "nonce": "0xd1",
        "chainId": "0x1"
      },
      "additionalContracts": [],
      "isFixedGasLimit": false
    },
    {
      "hash": "0x3c1a214d13fb616947ed540183360b5481d7809b150f4e25c4d291d9bf423b81",
      "transactionType": "CALL",
      "contractName": null,
      "contractAddress": "0x4df3dd62db219c47f6a7cb1be02c511afceadf5e",
      "function": "setWhitelistedUser(address,bool)",
      "arguments": [
        "0x65B6D4770DAdcFba6d363dE86aA4D9c76283cea0",
        "true"
      ],
      "transaction": {
        "from": "0xb819a871d20913839c37f316dc914b0570bfc0ee",
        "to": "0x4df3dd62db219c47f6a7cb1be02c511afceadf5e",
        "gas": "0x11d0b",
        "value": "0x0",
        "input": "0x44710fbe00000000000000000000000065b6d4770dadcfba6d363de86aa4d9c76283cea00000000000000000000000000000000000000000000000000000000000000001",
        "nonce": "0xd2",
        "chainId": "0x1"
      },
      "additionalContracts": [],
      "isFixedGasLimit": false
    },
    {
      "hash": "0xdd34008a66149ca3d13e8fb726cdb80d140f4909018ac8f3de49f08ec885e343",
      "transactionType": "CALL",
      "contractName": null,
      "contractAddress": "0x4df3dd62db219c47f6a7cb1be02c511afceadf5e",
      "function": "setWhitelistedUser(address,bool)",
      "arguments": [
        "0xa6A9fdDC94BB4FE7520A2eA1CC2c433e18683342",
        "true"
      ],
      "transaction": {
        "from": "0xb819a871d20913839c37f316dc914b0570bfc0ee",
        "to": "0x4df3dd62db219c47f6a7cb1be02c511afceadf5e",
        "gas": "0x11d0b",
        "value": "0x0",
        "input": "0x44710fbe000000000000000000000000a6a9fddc94bb4fe7520a2ea1cc2c433e186833420000000000000000000000000000000000000000000000000000000000000001",
        "nonce": "0xd3",
        "chainId": "0x1"
      },
      "additionalContracts": [],
      "isFixedGasLimit": false
    },
    {
      "hash": "0x8d77d0f3a56600f08cf7e56cb9b5725e9e50548d780787155d5e9c7448bd5610",
      "transactionType": "CALL",
      "contractName": null,
      "contractAddress": "0x4df3dd62db219c47f6a7cb1be02c511afceadf5e",
      "function": "setWhitelistedUser(address,bool)",
      "arguments": [
        "0x18D04F05f80ADE5373849385a1c24E1E0a6d1744",
        "true"
      ],
      "transaction": {
        "from": "0xb819a871d20913839c37f316dc914b0570bfc0ee",
        "to": "0x4df3dd62db219c47f6a7cb1be02c511afceadf5e",
        "gas": "0x11d0b",
        "value": "0x0",
        "input": "0x44710fbe00000000000000000000000018d04f05f80ade5373849385a1c24e1e0a6d17440000000000000000000000000000000000000000000000000000000000000001",
        "nonce": "0xd4",
        "chainId": "0x1"
      },
      "additionalContracts": [],
      "isFixedGasLimit": false
    },
    {
      "hash": "0xf50b1fa126b64226f1c35e3660eebc18bbe7baa6d512f6923c47f62e03bbe5f4",
      "transactionType": "CALL",
      "contractName": null,
      "contractAddress": "0x4df3dd62db219c47f6a7cb1be02c511afceadf5e",
      "function": "setWhitelistedUser(address,bool)",
      "arguments": [
        "0xBD9C90D6774CB5320B54Bb7998b6Bcc5e4A9071f",
        "true"
      ],
      "transaction": {
        "from": "0xb819a871d20913839c37f316dc914b0570bfc0ee",
        "to": "0x4df3dd62db219c47f6a7cb1be02c511afceadf5e",
        "gas": "0x11d0b",
        "value": "0x0",
        "input": "0x44710fbe000000000000000000000000bd9c90d6774cb5320b54bb7998b6bcc5e4a9071f0000000000000000000000000000000000000000000000000000000000000001",
        "nonce": "0xd5",
        "chainId": "0x1"
      },
      "additionalContracts": [],
      "isFixedGasLimit": false
    },
    {
      "hash": "0x492b87a5255ed5b136d02069404347952ddd367d30fe4ee57f01706f23b5fc6a",
      "transactionType": "CALL",
      "contractName": null,
      "contractAddress": "0x4df3dd62db219c47f6a7cb1be02c511afceadf5e",
      "function": "setWhitelistedUser(address,bool)",
      "arguments": [
        "0x8f2eABa31B1b613ca78F2795bA05400F0583c5A4",
        "true"
      ],
      "transaction": {
        "from": "0xb819a871d20913839c37f316dc914b0570bfc0ee",
        "to": "0x4df3dd62db219c47f6a7cb1be02c511afceadf5e",
        "gas": "0x11d0b",
        "value": "0x0",
        "input": "0x44710fbe0000000000000000000000008f2eaba31b1b613ca78f2795ba05400f0583c5a40000000000000000000000000000000000000000000000000000000000000001",
        "nonce": "0xd6",
        "chainId": "0x1"
      },
      "additionalContracts": [],
      "isFixedGasLimit": false
    },
    {
      "hash": "0x02cfc9325d47fc3be1d5d3a7003fbea2addf6746d193ba207410a068d2046142",
      "transactionType": "CALL",
      "contractName": null,
      "contractAddress": "0x4df3dd62db219c47f6a7cb1be02c511afceadf5e",
      "function": "setWhitelistedUser(address,bool)",
      "arguments": [
        "0x8f2eABa31B1b613ca78F2795bA05400F0583c5A4",
        "true"
      ],
      "transaction": {
        "from": "0xb819a871d20913839c37f316dc914b0570bfc0ee",
        "to": "0x4df3dd62db219c47f6a7cb1be02c511afceadf5e",
        "gas": "0xbc21",
        "value": "0x0",
        "input": "0x44710fbe0000000000000000000000008f2eaba31b1b613ca78f2795ba05400f0583c5a40000000000000000000000000000000000000000000000000000000000000001",
        "nonce": "0xd7",
        "chainId": "0x1"
      },
      "additionalContracts": [],
      "isFixedGasLimit": false
    },
    {
      "hash": "0x43992aa4bb035c58f0c5406ad0043aabeef0610260a2e1e302607d798a68eb6d",
      "transactionType": "CALL",
      "contractName": null,
      "contractAddress": "0x4df3dd62db219c47f6a7cb1be02c511afceadf5e",
      "function": "setWhitelistedUser(address,bool)",
      "arguments": [
        "0x50d8Deadd2b3140B151CaB2C4FB76F1f59b236F8",
        "true"
      ],
      "transaction": {
        "from": "0xb819a871d20913839c37f316dc914b0570bfc0ee",
        "to": "0x4df3dd62db219c47f6a7cb1be02c511afceadf5e",
        "gas": "0xbc21",
        "value": "0x0",
        "input": "0x44710fbe00000000000000000000000050d8deadd2b3140b151cab2c4fb76f1f59b236f80000000000000000000000000000000000000000000000000000000000000001",
        "nonce": "0xd8",
        "chainId": "0x1"
      },
      "additionalContracts": [],
      "isFixedGasLimit": false
    },
    {
      "hash": "0x1aa7f609b19e65f4cfd595ac52be0b1334613b8a21c8d144c1355f786f45444e",
      "transactionType": "CALL",
      "contractName": null,
      "contractAddress": "0x4df3dd62db219c47f6a7cb1be02c511afceadf5e",
      "function": "setWhitelistedUser(address,bool)",
      "arguments": [
        "0x574582C44e3f1EF2cB29a7131B057FebBCC8244E",
        "true"
      ],
      "transaction": {
        "from": "0xb819a871d20913839c37f316dc914b0570bfc0ee",
        "to": "0x4df3dd62db219c47f6a7cb1be02c511afceadf5e",
        "gas": "0xbc21",
        "value": "0x0",
        "input": "0x44710fbe000000000000000000000000574582c44e3f1ef2cb29a7131b057febbcc8244e0000000000000000000000000000000000000000000000000000000000000001",
        "nonce": "0xd9",
        "chainId": "0x1"
      },
      "additionalContracts": [],
      "isFixedGasLimit": false
    },
    {
      "hash": "0xa96094a5cbe7f3339be604befae23eb2b087a3cb5d38d042a3b56f61d5c1e217",
      "transactionType": "CALL",
      "contractName": null,
      "contractAddress": "0x4df3dd62db219c47f6a7cb1be02c511afceadf5e",
      "function": "setWhitelistedUser(address,bool)",
      "arguments": [
        "0xBd0Ce952bA069A1e15f3bf3916d4B07bBBdBC8B3",
        "true"
      ],
      "transaction": {
        "from": "0xb819a871d20913839c37f316dc914b0570bfc0ee",
        "to": "0x4df3dd62db219c47f6a7cb1be02c511afceadf5e",
        "gas": "0x11d0b",
        "value": "0x0",
        "input": "0x44710fbe000000000000000000000000bd0ce952ba069a1e15f3bf3916d4b07bbbdbc8b30000000000000000000000000000000000000000000000000000000000000001",
        "nonce": "0xda",
        "chainId": "0x1"
      },
      "additionalContracts": [],
      "isFixedGasLimit": false
    }
  ],
  "receipts": [
    {
      "status": "0x1",
      "cumulativeGasUsed": "0xda1da5",
      "logs": [
        {
          "address": "0x4df3dd62db219c47f6a7cb1be02c511afceadf5e",
          "topics": [
            "0x4059c608a8f17b9b24a5a29662eb74934d39ea92ae22411868f07fcac29487a0",
            "0x000000000000000000000000f20a8950c368ec48323092d6e4acf90aadf2bdc6"
          ],
          "data": "0x0000000000000000000000000000000000000000000000000000000000000001",
          "blockHash": "0x19797db10ea8f318a6654165e69e1c45c731c0a0afff6f89a66343210629004d",
          "blockNumber": "0x1573eef",
          "blockTimestamp": "0x68270f63",
          "transactionHash": "0xf1c14c40059cd132009e5228aafb0df4ef76868f7ea65da3328fda82ef77080f",
          "transactionIndex": "0x59",
          "logIndex": "0xe1",
          "removed": false
        }
      ],
      "logsBloom": "0x00000000000000000000000000000000000000000000000000000000000000000000000000000000000000020000000000000000000000000000000000000000000000000000000000000000000000000000000000000000000000000000000000000000000000000000000000000004000000000000000000000000000000000000000000000000000000000000000000000000000000000000000000000000000000000040000000000000010000000000020000000000000000000000000000000000000000000000000000000000000000000000000000001000004000000000000000008000000000000000000000000000000000000000002000000000",
      "type": "0x2",
      "transactionHash": "0xf1c14c40059cd132009e5228aafb0df4ef76868f7ea65da3328fda82ef77080f",
      "transactionIndex": "0x59",
      "blockHash": "0x19797db10ea8f318a6654165e69e1c45c731c0a0afff6f89a66343210629004d",
      "blockNumber": "0x1573eef",
      "gasUsed": "0xce5f",
      "effectiveGasPrice": "0x65c0e3a8",
      "from": "0xb819a871d20913839c37f316dc914b0570bfc0ee",
      "to": "0x4df3dd62db219c47f6a7cb1be02c511afceadf5e",
      "contractAddress": null
    },
    {
      "status": "0x1",
      "cumulativeGasUsed": "0x111da56",
      "logs": [
        {
          "address": "0x4df3dd62db219c47f6a7cb1be02c511afceadf5e",
          "topics": [
            "0x4059c608a8f17b9b24a5a29662eb74934d39ea92ae22411868f07fcac29487a0",
            "0x0000000000000000000000008e72a24221517e51502f20f387415a06b27a5b51"
          ],
          "data": "0x0000000000000000000000000000000000000000000000000000000000000001",
          "blockHash": "0xf6c7916fc0caf94594b24d8a7c3c9d274c621f424377d340497af8ad5bac79ea",
          "blockNumber": "0x1573ef0",
          "blockTimestamp": "0x68270f6f",
          "transactionHash": "0x086b85dd00a96ed6df8046a403180f5b2158215741440da1aa52fba0e762681d",
          "transactionIndex": "0xa5",
          "logIndex": "0x169",
          "removed": false
        }
      ],
      "logsBloom": "0x00000000000000000000000000000000000000000000000000000000000000000000000000000000000000020000000000000000000000000000000000000000000000000000000000000000000000000000000000000000000000000000000000000000000000000000000000000004000000000000000000000800000000000000000000000000000000000000000000000000000000000000000000020000000000000040000000000000010000000000000000000000000000000000000000000000000000000000000000000000000000000001000000000000000000000000000000008000000000000000000000000000000000000000002000000000",
      "type": "0x2",
      "transactionHash": "0x086b85dd00a96ed6df8046a403180f5b2158215741440da1aa52fba0e762681d",
      "transactionIndex": "0xa5",
      "blockHash": "0xf6c7916fc0caf94594b24d8a7c3c9d274c621f424377d340497af8ad5bac79ea",
      "blockNumber": "0x1573ef0",
      "gasUsed": "0xce5f",
      "effectiveGasPrice": "0x65b1a0fc",
      "from": "0xb819a871d20913839c37f316dc914b0570bfc0ee",
      "to": "0x4df3dd62db219c47f6a7cb1be02c511afceadf5e",
      "contractAddress": null
    },
    {
      "status": "0x1",
      "cumulativeGasUsed": "0xab7d44",
      "logs": [
        {
          "address": "0x4df3dd62db219c47f6a7cb1be02c511afceadf5e",
          "topics": [
            "0x4059c608a8f17b9b24a5a29662eb74934d39ea92ae22411868f07fcac29487a0",
            "0x00000000000000000000000050d8deadd2b3140b151cab2c4fb76f1f59b236f8"
          ],
          "data": "0x0000000000000000000000000000000000000000000000000000000000000001",
          "blockHash": "0x8546a7555820c280b8e99b8f73348e225e51bc84cc1b7e19248c0948d5e34061",
          "blockNumber": "0x1573ef2",
          "blockTimestamp": "0x68270f87",
          "transactionHash": "0x8decfa7b8744b23b8447031cd980d633021fc20d89bb3e6fa20905e537a970c3",
          "transactionIndex": "0xfd",
          "logIndex": "0xc1",
          "removed": false
        }
      ],
      "logsBloom": "0x00000000000000000000000000000000000000000000200000000000000000000000000000000000000000020000000000000000000000000000000000000000000000000000000000000000000000000000000000000000000000000000000000000000000000000000000000000004000000000000000000000000020000000000000000000000000000000000000000000000000000000000000000000000000000000040000000000000010000000000000000000000000000000000000000000000000000000000000000000000000000000000000000000000000000000000000000808000000000000000000000000000000000000000002000000000",
      "type": "0x2",
      "transactionHash": "0x8decfa7b8744b23b8447031cd980d633021fc20d89bb3e6fa20905e537a970c3",
      "transactionIndex": "0xfd",
      "blockHash": "0x8546a7555820c280b8e99b8f73348e225e51bc84cc1b7e19248c0948d5e34061",
      "blockNumber": "0x1573ef2",
      "gasUsed": "0xce5f",
      "effectiveGasPrice": "0x66897e33",
      "from": "0xb819a871d20913839c37f316dc914b0570bfc0ee",
      "to": "0x4df3dd62db219c47f6a7cb1be02c511afceadf5e",
      "contractAddress": null
    },
    {
      "status": "0x1",
      "cumulativeGasUsed": "0x8d0d29",
      "logs": [
        {
          "address": "0x4df3dd62db219c47f6a7cb1be02c511afceadf5e",
          "topics": [
            "0x4059c608a8f17b9b24a5a29662eb74934d39ea92ae22411868f07fcac29487a0",
            "0x000000000000000000000000574582c44e3f1ef2cb29a7131b057febbcc8244e"
          ],
          "data": "0x0000000000000000000000000000000000000000000000000000000000000001",
          "blockHash": "0x442a3ae6070e64a90539262a1f41c0c2f144985cfddd9f919a71e41fd4700860",
          "blockNumber": "0x1573ef3",
          "blockTimestamp": "0x68270f93",
          "transactionHash": "0x0a511b7e478b772b10b5689466d291521f4692ca5faec389a50321a32bf7e849",
          "transactionIndex": "0x74",
          "logIndex": "0xa7",
          "removed": false
        }
      ],
      "logsBloom": "0x00000000000000000000000000000000000000000000000000000000000000000000000000000000000000020000000000000000000000000000000000000000000000000000200000000000000000000000000000000000000000000000000000000000000000000000000000000004000000000000000000000000000000000000000000000000000000100000000000000000000000000000000000000000004000000040000000000000010000000000000000000000000000000000000000000000000000000000000000000000000000000000000000000000000000000000000000008000000000000000000000000000000000000000002000000000",
      "type": "0x2",
      "transactionHash": "0x0a511b7e478b772b10b5689466d291521f4692ca5faec389a50321a32bf7e849",
      "transactionIndex": "0x74",
      "blockHash": "0x442a3ae6070e64a90539262a1f41c0c2f144985cfddd9f919a71e41fd4700860",
      "blockNumber": "0x1573ef3",
      "gasUsed": "0xce5f",
      "effectiveGasPrice": "0x636b1076",
      "from": "0xb819a871d20913839c37f316dc914b0570bfc0ee",
      "to": "0x4df3dd62db219c47f6a7cb1be02c511afceadf5e",
      "contractAddress": null
    },
    {
      "status": "0x1",
      "cumulativeGasUsed": "0x1825610",
      "logs": [
        {
          "address": "0x4df3dd62db219c47f6a7cb1be02c511afceadf5e",
          "topics": [
            "0x4059c608a8f17b9b24a5a29662eb74934d39ea92ae22411868f07fcac29487a0",
            "0x000000000000000000000000281567fe62b587ec1755f6f33b80160f544dc5d0"
          ],
          "data": "0x0000000000000000000000000000000000000000000000000000000000000001",
          "blockHash": "0x34947a50f8dbcfc0ff587953f8cc9c12e3fd6cea34db5a98d4df9ee7f99eeb53",
          "blockNumber": "0x1573ef5",
          "blockTimestamp": "0x68270fab",
          "transactionHash": "0x094f3542b5a021b89b731f531b699f2ca4e24c0955ebab1f4f533e1b793e9360",
          "transactionIndex": "0x119",
          "logIndex": "0x2c1",
          "removed": false
        }
      ],
      "logsBloom": "0x00200000000000000000000000000000000000000000000000000000000000000000000000000000000000020000000000000000000000000000000000000000000000000000000000000000000000000000000000000000000000000002000000000000000000000000000000000004000000000000000000000000000000000000000000000000000000000000000000000000800000000000000000000000000000000040000000000000010000000000000000000000000000000000000000000000000000000000000000000000000000000000000000000000000000000000000000008000000000000000000000000000000000000000002000000000",
      "type": "0x2",
      "transactionHash": "0x094f3542b5a021b89b731f531b699f2ca4e24c0955ebab1f4f533e1b793e9360",
      "transactionIndex": "0x119",
      "blockHash": "0x34947a50f8dbcfc0ff587953f8cc9c12e3fd6cea34db5a98d4df9ee7f99eeb53",
      "blockNumber": "0x1573ef5",
      "gasUsed": "0xce5f",
      "effectiveGasPrice": "0x6c8689db",
      "from": "0xb819a871d20913839c37f316dc914b0570bfc0ee",
      "to": "0x4df3dd62db219c47f6a7cb1be02c511afceadf5e",
      "contractAddress": null
    },
    {
      "status": "0x1",
      "cumulativeGasUsed": "0xe806d3",
      "logs": [
        {
          "address": "0x4df3dd62db219c47f6a7cb1be02c511afceadf5e",
          "topics": [
            "0x4059c608a8f17b9b24a5a29662eb74934d39ea92ae22411868f07fcac29487a0",
            "0x0000000000000000000000002705f6a8f01bd4a805d9fc73151dbe37bb8d1ede"
          ],
          "data": "0x0000000000000000000000000000000000000000000000000000000000000001",
          "blockHash": "0xf25323614fdf51aa5600d9e071bea53dfb69eda98a9418e69e84613a3d6f3511",
          "blockNumber": "0x1573ef6",
          "blockTimestamp": "0x68270fb7",
          "transactionHash": "0xe36762ca918e67b8de54ff1188ce23ea9de2a26c369c2dce53839c26bede5e13",
          "transactionIndex": "0x8d",
          "logIndex": "0x1a4",
          "removed": false
        }
      ],
      "logsBloom": "0x00000000000000000000000000000000000000000000000000000000000040000000000000000000000000020000000000000000000000000000000000000000000000000000000000000000000000000000000000000040000000000000000000000000000000000000000000000004000000000000000000000040000000000000000000000000000000000000000000000000000000000000000000000000000000000040000000000000010000000000000000000000000000000000000000000000000000000000000000000000000000000000000000000000000000000000000000008000000000000000000000000000000000000000002000000000",
      "type": "0x2",
      "transactionHash": "0xe36762ca918e67b8de54ff1188ce23ea9de2a26c369c2dce53839c26bede5e13",
      "transactionIndex": "0x8d",
      "blockHash": "0xf25323614fdf51aa5600d9e071bea53dfb69eda98a9418e69e84613a3d6f3511",
      "blockNumber": "0x1573ef6",
      "gasUsed": "0xce5f",
      "effectiveGasPrice": "0x73ea0842",
      "from": "0xb819a871d20913839c37f316dc914b0570bfc0ee",
      "to": "0x4df3dd62db219c47f6a7cb1be02c511afceadf5e",
      "contractAddress": null
    },
    {
      "status": "0x1",
      "cumulativeGasUsed": "0x1375888",
      "logs": [
        {
          "address": "0x4df3dd62db219c47f6a7cb1be02c511afceadf5e",
          "topics": [
            "0x4059c608a8f17b9b24a5a29662eb74934d39ea92ae22411868f07fcac29487a0",
            "0x000000000000000000000000c9c9693b6a445d05add0043662fad9ac600ad088"
          ],
          "data": "0x0000000000000000000000000000000000000000000000000000000000000001",
          "blockHash": "0x022ed57182d2b4c6f5e250e046adfd98ba1e2bd513a5b4f3ac95a45d8bdb2843",
          "blockNumber": "0x1573ef7",
          "blockTimestamp": "0x68270fc3",
          "transactionHash": "0x0a6cdf13a35cf8730b0f8407da281465e6e85a248cda5f7bb61e79ea7281fff5",
          "transactionIndex": "0xaa",
          "logIndex": "0x294",
          "removed": false
        }
      ],
      "logsBloom": "0x00000000000000000000000000000000000000000000000000000000000000000000000010000000000000020000000000000000000000000000000000000000000000000000000000000000000000000000000000000000000000000000000000000000000000000000000000000004000000000000000000000000000000000000000000000000000000000000000000000000000000000000000000000000000000001040000000000000010000000000000000000000000000000000000000000001000000000000000000000000000000000000000000000000000000000000000000008000000000000000000000000000000000000000002000000000",
      "type": "0x2",
      "transactionHash": "0x0a6cdf13a35cf8730b0f8407da281465e6e85a248cda5f7bb61e79ea7281fff5",
      "transactionIndex": "0xaa",
      "blockHash": "0x022ed57182d2b4c6f5e250e046adfd98ba1e2bd513a5b4f3ac95a45d8bdb2843",
      "blockNumber": "0x1573ef7",
      "gasUsed": "0xce5f",
      "effectiveGasPrice": "0x72df8606",
      "from": "0xb819a871d20913839c37f316dc914b0570bfc0ee",
      "to": "0x4df3dd62db219c47f6a7cb1be02c511afceadf5e",
      "contractAddress": null
    },
    {
      "status": "0x1",
      "cumulativeGasUsed": "0xab50bf",
      "logs": [
        {
          "address": "0x4df3dd62db219c47f6a7cb1be02c511afceadf5e",
          "topics": [
            "0x4059c608a8f17b9b24a5a29662eb74934d39ea92ae22411868f07fcac29487a0",
            "0x0000000000000000000000007efe40b2e6da8b28aab6bd2d622b9cd7f5fe077c"
          ],
          "data": "0x0000000000000000000000000000000000000000000000000000000000000001",
          "blockHash": "0x6ea32354e2deee28de8e9387a2868bf1e4de875741a82bcf3e766e3a2f96f37b",
          "blockNumber": "0x1573ef8",
          "blockTimestamp": "0x68270fcf",
          "transactionHash": "0x17ac9cc16a7d860945eebebf2830d24a027b2cbe77a28345509f3fe7ddd79ed7",
          "transactionIndex": "0x6f",
          "logIndex": "0x139",
          "removed": false
        }
      ],
      "logsBloom": "0x00000000000000000000000000000000000000000000000000000000000000000000000000000000000000020000000000000000000000000000000000000000000000000000000000080000000000000000000000000000000000000000000000000000000000000000000000000004000000000000000000000000000000000000000200000000000000000000000000000000000000000000000000000000000000000040000000000000010000000000000000000000000000000000000000000000000000000000000000000000000000800000000000000000000000000000000000008000000000000000000000000000000000000000002000000000",
      "type": "0x2",
      "transactionHash": "0x17ac9cc16a7d860945eebebf2830d24a027b2cbe77a28345509f3fe7ddd79ed7",
      "transactionIndex": "0x6f",
      "blockHash": "0x6ea32354e2deee28de8e9387a2868bf1e4de875741a82bcf3e766e3a2f96f37b",
      "blockNumber": "0x1573ef8",
      "gasUsed": "0xce5f",
      "effectiveGasPrice": "0x7945bd78",
      "from": "0xb819a871d20913839c37f316dc914b0570bfc0ee",
      "to": "0x4df3dd62db219c47f6a7cb1be02c511afceadf5e",
      "contractAddress": null
    },
    {
      "status": "0x1",
      "cumulativeGasUsed": "0xe30d00",
      "logs": [
        {
          "address": "0x4df3dd62db219c47f6a7cb1be02c511afceadf5e",
          "topics": [
            "0x4059c608a8f17b9b24a5a29662eb74934d39ea92ae22411868f07fcac29487a0",
            "0x000000000000000000000000a22dcb8f0a2848289124086f35ae9db2a0006962"
          ],
          "data": "0x0000000000000000000000000000000000000000000000000000000000000001",
          "blockHash": "0xb3b2c31382823470bf6e2d524204af8c06763f89048115c716b2d9d1818c2730",
          "blockNumber": "0x1573ef9",
          "blockTimestamp": "0x68270fdb",
          "transactionHash": "0x603afc9461bc0b7fe224a1c518dbcc2cd273e5bf33ff6910e674d7f5dc69aa25",
          "transactionIndex": "0x9d",
          "logIndex": "0x1aa",
          "removed": false
        }
      ],
      "logsBloom": "0x00000000000000000100000000000000000000000000000000000000000000000000000000000000000000020000000000000000000000000000000000000000000000100000000000000000000000000000000000000000000000000000000000000000000000000000000000000004000000000000000000000000000000000000000000000000000000000000000000000000000000200000000000000000000000000040000000000000010000000000000000000000000000000000000000000000000000000000000000000000000000000000000000000000000000000000000000008000000000000000000000000000000000000000002000000000",
      "type": "0x2",
      "transactionHash": "0x603afc9461bc0b7fe224a1c518dbcc2cd273e5bf33ff6910e674d7f5dc69aa25",
      "transactionIndex": "0x9d",
      "blockHash": "0xb3b2c31382823470bf6e2d524204af8c06763f89048115c716b2d9d1818c2730",
      "blockNumber": "0x1573ef9",
      "gasUsed": "0xce53",
      "effectiveGasPrice": "0x75e60d9e",
      "from": "0xb819a871d20913839c37f316dc914b0570bfc0ee",
      "to": "0x4df3dd62db219c47f6a7cb1be02c511afceadf5e",
      "contractAddress": null
    },
    {
      "status": "0x1",
      "cumulativeGasUsed": "0x958da2",
      "logs": [
        {
          "address": "0x4df3dd62db219c47f6a7cb1be02c511afceadf5e",
          "topics": [
            "0x4059c608a8f17b9b24a5a29662eb74934d39ea92ae22411868f07fcac29487a0",
            "0x000000000000000000000000b819a871d20913839c37f316dc914b0570bfc0ee"
          ],
          "data": "0x0000000000000000000000000000000000000000000000000000000000000001",
          "blockHash": "0x4c3cd9c54fed0b73d979138aae79d33b31ad153e501542a97373f11cd316b6b3",
          "blockNumber": "0x1573efa",
          "blockTimestamp": "0x68270fe7",
          "transactionHash": "0xb7e7f5757b4662e11adfc56a10679d44b3ebcaf21f51f9de9a5be4bc668011e9",
          "transactionIndex": "0x75",
          "logIndex": "0x10f",
          "removed": false
        }
      ],
      "logsBloom": "0x00000000000000000000000000000000000000000000000000000000000000000000000000000000000000020000000000000000000000000000000000000002000000000080000000000000000000000000000000000000000000000000000000000000000000000000000000000004000000000000000000000000000000000000000000000000000000000000000000000000000000000000000000000000000000000040000000000000010000000000000000000000000000000000000000000000000000000000000000000000000000000000000000000200000000000000000000008000000000000000000000000000000000000000002000000000",
      "type": "0x2",
      "transactionHash": "0xb7e7f5757b4662e11adfc56a10679d44b3ebcaf21f51f9de9a5be4bc668011e9",
      "transactionIndex": "0x75",
      "blockHash": "0x4c3cd9c54fed0b73d979138aae79d33b31ad153e501542a97373f11cd316b6b3",
      "blockNumber": "0x1573efa",
      "gasUsed": "0xce5f",
      "effectiveGasPrice": "0x75c6b291",
      "from": "0xb819a871d20913839c37f316dc914b0570bfc0ee",
      "to": "0x4df3dd62db219c47f6a7cb1be02c511afceadf5e",
      "contractAddress": null
    },
    {
      "status": "0x1",
      "cumulativeGasUsed": "0xad8ebd",
      "logs": [
        {
          "address": "0x4df3dd62db219c47f6a7cb1be02c511afceadf5e",
          "topics": [
            "0x4059c608a8f17b9b24a5a29662eb74934d39ea92ae22411868f07fcac29487a0",
            "0x00000000000000000000000040282d3cf4890d9806bc1853e97a59c93d813653"
          ],
          "data": "0x0000000000000000000000000000000000000000000000000000000000000001",
          "blockHash": "0x62be88a62cb0a1b321e3a0268e0a9ced2614f5399f4e553db579624ead3dca32",
          "blockNumber": "0x1573efb",
          "blockTimestamp": "0x68270ff3",
          "transactionHash": "0xb6c7674cb09a4258bee4dd73e838e9fea60366eb13121d6936ec1ac9857c930a",
          "transactionIndex": "0x68",
          "logIndex": "0x13b",
          "removed": false
        }
      ],
      "logsBloom": "0x00000000000000000000000000000000000000000000000000000000000000000000004000000000000000020000000000000000000000000000000000000000000000000000000000000000000000000000000000000000000000000000000000000000000000000000000000000004000000000000000000000000000000000000000040000000000000000000000000000000000200000000000000000000000000000040000000000000010000000000000000000000000000000000000000000000000000000000000000000000000000000000000000000000000000000000000000008000000000000000000000000000000000000000002000000000",
      "type": "0x2",
      "transactionHash": "0xb6c7674cb09a4258bee4dd73e838e9fea60366eb13121d6936ec1ac9857c930a",
      "transactionIndex": "0x68",
      "blockHash": "0x62be88a62cb0a1b321e3a0268e0a9ced2614f5399f4e553db579624ead3dca32",
      "blockNumber": "0x1573efb",
      "gasUsed": "0xce5f",
      "effectiveGasPrice": "0x70c73e10",
      "from": "0xb819a871d20913839c37f316dc914b0570bfc0ee",
      "to": "0x4df3dd62db219c47f6a7cb1be02c511afceadf5e",
      "contractAddress": null
    },
    {
      "status": "0x1",
      "cumulativeGasUsed": "0x7213cd",
      "logs": [
        {
          "address": "0x4df3dd62db219c47f6a7cb1be02c511afceadf5e",
          "topics": [
            "0x4059c608a8f17b9b24a5a29662eb74934d39ea92ae22411868f07fcac29487a0",
            "0x000000000000000000000000b5b901f1bb86421301138b5c45c1d3fe96663161"
          ],
          "data": "0x0000000000000000000000000000000000000000000000000000000000000001",
          "blockHash": "0x7349ca2a4adc0800c477a5adfbe1eabba40a537ecf39ead083e6dd7a12bf3432",
          "blockNumber": "0x1573efc",
          "blockTimestamp": "0x68270fff",
          "transactionHash": "0x1a50283484276e22394eeb9fae9e3fa5e1e057647a7c5310432b07623febf533",
          "transactionIndex": "0x3e",
          "logIndex": "0xe3",
          "removed": false
        }
      ],
      "logsBloom": "0x00000000000000000000000000000000000000000000000000000000000000004000000000000000000000020000000000000000000000000000000000000000000000000000000000000000000000000000000000800000000000000000000000000000000000000000000000000004000000000000000000000000000000000000000000000000000000000000000000000000000000000000000000000000000000000040010000000000010000000000000000000000000000000000000000000000000000000000000000000000000000000000000000000000000000000000000000008000000000000000000000000000000000000000002000000000",
      "type": "0x2",
      "transactionHash": "0x1a50283484276e22394eeb9fae9e3fa5e1e057647a7c5310432b07623febf533",
      "transactionIndex": "0x3e",
      "blockHash": "0x7349ca2a4adc0800c477a5adfbe1eabba40a537ecf39ead083e6dd7a12bf3432",
      "blockNumber": "0x1573efc",
      "gasUsed": "0xce5f",
      "effectiveGasPrice": "0x6c608192",
      "from": "0xb819a871d20913839c37f316dc914b0570bfc0ee",
      "to": "0x4df3dd62db219c47f6a7cb1be02c511afceadf5e",
      "contractAddress": null
    },
    {
      "status": "0x1",
      "cumulativeGasUsed": "0xcc82c6",
      "logs": [
        {
          "address": "0x4df3dd62db219c47f6a7cb1be02c511afceadf5e",
          "topics": [
            "0x4059c608a8f17b9b24a5a29662eb74934d39ea92ae22411868f07fcac29487a0",
            "0x000000000000000000000000baec8904499dcdee770c60df15b0c37eac84fb62"
          ],
          "data": "0x0000000000000000000000000000000000000000000000000000000000000001",
          "blockHash": "0x93fbef48b1819d153273b4f394e6ce6838d77f1e95391be27e229e08edd1d833",
          "blockNumber": "0x1573efd",
          "blockTimestamp": "0x6827100b",
          "transactionHash": "0x99264d8e8df37053a64e29a01ba3bc6e1dd6f4d6de44147576d291350c2bc223",
          "transactionIndex": "0xa1",
          "logIndex": "0x16c",
          "removed": false
        }
      ],
      "logsBloom": "0x00000000000000000000000000000000000000000000000000000000000000000000000000000000000000020000000000000000000000000000000000000000000000000000800000000000000080000000000000000000000000000000000000000000000000000000000000000004000000000000000000000000000000000000000000000000000000000000000000000000000000000000000000000000000000000040000000000000010000000000000000000000000000000000000000000000000000000000000000000000008000000000000000000000000000000000000000008000000000000000000000000000000000000000002000000000",
      "type": "0x2",
      "transactionHash": "0x99264d8e8df37053a64e29a01ba3bc6e1dd6f4d6de44147576d291350c2bc223",
      "transactionIndex": "0xa1",
      "blockHash": "0x93fbef48b1819d153273b4f394e6ce6838d77f1e95391be27e229e08edd1d833",
      "blockNumber": "0x1573efd",
      "gasUsed": "0xce5f",
      "effectiveGasPrice": "0x6bdc903c",
      "from": "0xb819a871d20913839c37f316dc914b0570bfc0ee",
      "to": "0x4df3dd62db219c47f6a7cb1be02c511afceadf5e",
      "contractAddress": null
    },
    {
      "status": "0x1",
      "cumulativeGasUsed": "0xe6e5aa",
      "logs": [
        {
          "address": "0x4df3dd62db219c47f6a7cb1be02c511afceadf5e",
          "topics": [
            "0x4059c608a8f17b9b24a5a29662eb74934d39ea92ae22411868f07fcac29487a0",
            "0x000000000000000000000000fc4a23271b60887fc246b060b6931a08e2bc434c"
          ],
          "data": "0x0000000000000000000000000000000000000000000000000000000000000001",
          "blockHash": "0x8f6eac61c0b038dc15e6057fea108ebd947ad1f239d71b8b8c81578ff470156f",
          "blockNumber": "0x1573efe",
          "blockTimestamp": "0x68271017",
          "transactionHash": "0x7b8837229050c9daf6a510752d7486f1e7ef79d8df21b2f23d73233ba30d40a2",
          "transactionIndex": "0x72",
          "logIndex": "0x150",
          "removed": false
        }
      ],
      "logsBloom": "0x00000200000000000000000000000000000000000000000000000000000000000000000000000000000000020000000000000000000000000000000000000000000000000000020000000000000000000000000000000000000000004000000000000000000000000000000000000004000000000000000000000000000000000000000000000000000000000000000000000000000000000000000000000000000000000040000000000000010000000000000000000000000000000000000000000000000000000000000000000000000000000000000000000000000000000000000000008000000000000000000000000000000000000000002000000000",
      "type": "0x2",
      "transactionHash": "0x7b8837229050c9daf6a510752d7486f1e7ef79d8df21b2f23d73233ba30d40a2",
      "transactionIndex": "0x72",
      "blockHash": "0x8f6eac61c0b038dc15e6057fea108ebd947ad1f239d71b8b8c81578ff470156f",
      "blockNumber": "0x1573efe",
      "gasUsed": "0xce5f",
      "effectiveGasPrice": "0x6caccc39",
      "from": "0xb819a871d20913839c37f316dc914b0570bfc0ee",
      "to": "0x4df3dd62db219c47f6a7cb1be02c511afceadf5e",
      "contractAddress": null
    },
    {
      "status": "0x1",
      "cumulativeGasUsed": "0xfc2e0d",
      "logs": [
        {
          "address": "0x4df3dd62db219c47f6a7cb1be02c511afceadf5e",
          "topics": [
            "0x4059c608a8f17b9b24a5a29662eb74934d39ea92ae22411868f07fcac29487a0",
            "0x00000000000000000000000065b142550ae82f4bb3792e1eefb2fc35541a3837"
          ],
          "data": "0x0000000000000000000000000000000000000000000000000000000000000001",
          "blockHash": "0x5d6142ca4948171df55af93eca883bf3bfbc2a94eb95ed457de0824650fe2d5b",
          "blockNumber": "0x1573eff",
          "blockTimestamp": "0x68271023",
          "transactionHash": "0xe16d385a055fce97503b632fb22295a36ae0992071bde334e33142c8426c7908",
          "transactionIndex": "0x83",
          "logIndex": "0x181",
          "removed": false
        }
      ],
      "logsBloom": "0x00000000000000000000000000000000000000000000000000000000000000000000000000000000000000020000000000000000000000000000000000000000000000000000000000000000000000000000000000000000000000000000000000000000000000000000000000000004000000000000000000000000000000000000000000000000000000000000000000000000000000000000000000000000000040000040000000000000010000080000000000000000000000000000000000000000000000000000000000000000000000000000000000000000008000000000000000008000000000000000000000000000000000000000002000000000",
      "type": "0x2",
      "transactionHash": "0xe16d385a055fce97503b632fb22295a36ae0992071bde334e33142c8426c7908",
      "transactionIndex": "0x83",
      "blockHash": "0x5d6142ca4948171df55af93eca883bf3bfbc2a94eb95ed457de0824650fe2d5b",
      "blockNumber": "0x1573eff",
      "gasUsed": "0xce5f",
      "effectiveGasPrice": "0x6b2d2129",
      "from": "0xb819a871d20913839c37f316dc914b0570bfc0ee",
      "to": "0x4df3dd62db219c47f6a7cb1be02c511afceadf5e",
      "contractAddress": null
    },
    {
      "status": "0x1",
      "cumulativeGasUsed": "0x10f4c1f",
      "logs": [
        {
          "address": "0x4df3dd62db219c47f6a7cb1be02c511afceadf5e",
          "topics": [
            "0x4059c608a8f17b9b24a5a29662eb74934d39ea92ae22411868f07fcac29487a0",
            "0x00000000000000000000000075149feebb20e1fe5ddb89302a6d4bace70c14ce"
          ],
          "data": "0x0000000000000000000000000000000000000000000000000000000000000001",
          "blockHash": "0x4580865774a06e4b2a316dc628535a6da24f0081806e5fb6c3bc3f432dc4edd2",
          "blockNumber": "0x1573f00",
          "blockTimestamp": "0x6827102f",
          "transactionHash": "0x7a74cf57323ac83390c47abf8c0ac6cc259fef2d8a64d3055fae55918e73dee3",
          "transactionIndex": "0x121",
          "logIndex": "0x195",
          "removed": false
        }
      ],
      "logsBloom": "0x00000000000000200000000000000000000000000000000000000000000000000000000000000000040000020000000000000000000000000000000000000000000000000000000000000000000000000000000000000000000000000000000000000000000000000000000000000004000000000000000000000000000000000000000000000000000000000000000000000000000000000000000000000000000000000040000000000000010010000000000000000000000000000000000000000000000000000000000000000000000000000000000000000000000000000000000000008000000000000000000000000000000000000000002000000000",
      "type": "0x2",
      "transactionHash": "0x7a74cf57323ac83390c47abf8c0ac6cc259fef2d8a64d3055fae55918e73dee3",
      "transactionIndex": "0x121",
      "blockHash": "0x4580865774a06e4b2a316dc628535a6da24f0081806e5fb6c3bc3f432dc4edd2",
      "blockNumber": "0x1573f00",
      "gasUsed": "0xce5f",
      "effectiveGasPrice": "0x6b8103cb",
      "from": "0xb819a871d20913839c37f316dc914b0570bfc0ee",
      "to": "0x4df3dd62db219c47f6a7cb1be02c511afceadf5e",
      "contractAddress": null
    },
    {
      "status": "0x1",
      "cumulativeGasUsed": "0xe840fe",
      "logs": [
        {
          "address": "0x4df3dd62db219c47f6a7cb1be02c511afceadf5e",
          "topics": [
            "0x4059c608a8f17b9b24a5a29662eb74934d39ea92ae22411868f07fcac29487a0",
            "0x00000000000000000000000065b6d4770dadcfba6d363de86aa4d9c76283cea0"
          ],
          "data": "0x0000000000000000000000000000000000000000000000000000000000000001",
          "blockHash": "0x416a36f8edebcead43a6d056913d6e32cf541bb359beb3f07c431fef9b82576d",
          "blockNumber": "0x1573f01",
          "blockTimestamp": "0x6827103b",
          "transactionHash": "0x3c1a214d13fb616947ed540183360b5481d7809b150f4e25c4d291d9bf423b81",
          "transactionIndex": "0x85",
          "logIndex": "0x1bd",
          "removed": false
        }
      ],
      "logsBloom": "0x00000000800000000000000000000000000000000000000000000000000000000000000000000000000002020000000000000000000000000000000000000000000000000000000000000000000000000000000000000000000000000000000000000000000000000000000000000004000000000000000000000000000000000000000000000000000000000000000000000000000000000000000000000000000000000040000000000000010000000000000000000000000000000000000000000000000000000000000000000000002000000000000000000000000000000000000000008000000000000000000000000000000000000000002000000000",
      "type": "0x2",
      "transactionHash": "0x3c1a214d13fb616947ed540183360b5481d7809b150f4e25c4d291d9bf423b81",
      "transactionIndex": "0x85",
      "blockHash": "0x416a36f8edebcead43a6d056913d6e32cf541bb359beb3f07c431fef9b82576d",
      "blockNumber": "0x1573f01",
      "gasUsed": "0xce5f",
      "effectiveGasPrice": "0x6c137787",
      "from": "0xb819a871d20913839c37f316dc914b0570bfc0ee",
      "to": "0x4df3dd62db219c47f6a7cb1be02c511afceadf5e",
      "contractAddress": null
    },
    {
      "status": "0x1",
      "cumulativeGasUsed": "0xbbb3e8",
      "logs": [
        {
          "address": "0x4df3dd62db219c47f6a7cb1be02c511afceadf5e",
          "topics": [
            "0x4059c608a8f17b9b24a5a29662eb74934d39ea92ae22411868f07fcac29487a0",
            "0x000000000000000000000000a6a9fddc94bb4fe7520a2ea1cc2c433e18683342"
          ],
          "data": "0x0000000000000000000000000000000000000000000000000000000000000001",
          "blockHash": "0xd8caa2673c1b528f8c04bb2921e0c9f40f57c73b7979c29d4770b6d56268078c",
          "blockNumber": "0x1573f02",
          "blockTimestamp": "0x68271047",
          "transactionHash": "0xdd34008a66149ca3d13e8fb726cdb80d140f4909018ac8f3de49f08ec885e343",
          "transactionIndex": "0x86",
          "logIndex": "0x18a",
          "removed": false
        }
      ],
      "logsBloom": "0x00000000000040000000000000000000000000000000000000000000000000000000000000000000000000020000000000000000000000000000000000000000000000000000000000000000000000400000000000000000000000000000000000000000000000000000000000000004000000000000000000000000000000000000000000000000000000000000000000000000000000000000000000000000000000000040000002000000010000000000000000000000000000000000000000000000000000000000000000000000000000000000000000000000000000000000000000008000000000000000000000000000000000000000002000000000",
      "type": "0x2",
      "transactionHash": "0xdd34008a66149ca3d13e8fb726cdb80d140f4909018ac8f3de49f08ec885e343",
      "transactionIndex": "0x86",
      "blockHash": "0xd8caa2673c1b528f8c04bb2921e0c9f40f57c73b7979c29d4770b6d56268078c",
      "blockNumber": "0x1573f02",
      "gasUsed": "0xce5f",
      "effectiveGasPrice": "0x6c555c29",
      "from": "0xb819a871d20913839c37f316dc914b0570bfc0ee",
      "to": "0x4df3dd62db219c47f6a7cb1be02c511afceadf5e",
      "contractAddress": null
    },
    {
      "status": "0x1",
      "cumulativeGasUsed": "0x12b09fa",
      "logs": [
        {
          "address": "0x4df3dd62db219c47f6a7cb1be02c511afceadf5e",
          "topics": [
            "0x4059c608a8f17b9b24a5a29662eb74934d39ea92ae22411868f07fcac29487a0",
            "0x00000000000000000000000018d04f05f80ade5373849385a1c24e1e0a6d1744"
          ],
          "data": "0x0000000000000000000000000000000000000000000000000000000000000001",
          "blockHash": "0x6482a355fcfef91ba376c015051f08180552841de300beef8dbbe52e666f8ea4",
          "blockNumber": "0x1573f03",
          "blockTimestamp": "0x68271053",
          "transactionHash": "0x8d77d0f3a56600f08cf7e56cb9b5725e9e50548d780787155d5e9c7448bd5610",
          "transactionIndex": "0xa9",
          "logIndex": "0x1f8",
          "removed": false
        }
      ],
      "logsBloom": "0x00000000000000000000000000000000000000000000000000000000000000000000000000000000000000020000000000000000000000000000000000000000000000000000000000000000000100000000000000000000000000000000000000000000000000000000000000000004000000000000000000000000000000000000000000000000000000000000000000000000000000000000000000000000000000000040000000000000010000000000000000000000000000000000000000000000000100000000000000000000000000000000000000000000000000000000000000008000000000000004000000000000000000000000002000000000",
      "type": "0x2",
      "transactionHash": "0x8d77d0f3a56600f08cf7e56cb9b5725e9e50548d780787155d5e9c7448bd5610",
      "transactionIndex": "0xa9",
      "blockHash": "0x6482a355fcfef91ba376c015051f08180552841de300beef8dbbe52e666f8ea4",
      "blockNumber": "0x1573f03",
      "gasUsed": "0xce5f",
      "effectiveGasPrice": "0x6a3d0c10",
      "from": "0xb819a871d20913839c37f316dc914b0570bfc0ee",
      "to": "0x4df3dd62db219c47f6a7cb1be02c511afceadf5e",
      "contractAddress": null
    },
    {
      "status": "0x1",
      "cumulativeGasUsed": "0xd4c01e",
      "logs": [
        {
          "address": "0x4df3dd62db219c47f6a7cb1be02c511afceadf5e",
          "topics": [
            "0x4059c608a8f17b9b24a5a29662eb74934d39ea92ae22411868f07fcac29487a0",
            "0x000000000000000000000000bd9c90d6774cb5320b54bb7998b6bcc5e4a9071f"
          ],
          "data": "0x0000000000000000000000000000000000000000000000000000000000000001",
          "blockHash": "0x1c72a619b9b3434f5dd8c17a4864bb348c0cf73890e86e233311e88273bd9002",
          "blockNumber": "0x1573f04",
          "blockTimestamp": "0x6827105f",
          "transactionHash": "0xf50b1fa126b64226f1c35e3660eebc18bbe7baa6d512f6923c47f62e03bbe5f4",
          "transactionIndex": "0xef",
          "logIndex": "0x141",
          "removed": false
        }
      ],
      "logsBloom": "0x00000000000000000000000000000000000000000000000000000000000000000000000000002000000000020000000000000000000040000000000000000000000000000000000000000000000000000000000000000000000000000000000000000000000000000000000000000004000000000000000000000000000000000000000000000000000000000000000000000000000000000000000000000000000000000040000000000000010000000000000000800000000000000000000000000000000000000000000000000000000000000000000000000000000000000000000000008000000000000000000000000000000000000000002000000000",
      "type": "0x2",
      "transactionHash": "0xf50b1fa126b64226f1c35e3660eebc18bbe7baa6d512f6923c47f62e03bbe5f4",
      "transactionIndex": "0xef",
      "blockHash": "0x1c72a619b9b3434f5dd8c17a4864bb348c0cf73890e86e233311e88273bd9002",
      "blockNumber": "0x1573f04",
      "gasUsed": "0xce5f",
      "effectiveGasPrice": "0x702e0262",
      "from": "0xb819a871d20913839c37f316dc914b0570bfc0ee",
      "to": "0x4df3dd62db219c47f6a7cb1be02c511afceadf5e",
      "contractAddress": null
    },
    {
      "status": "0x1",
      "cumulativeGasUsed": "0x9ca18b",
      "logs": [
        {
          "address": "0x4df3dd62db219c47f6a7cb1be02c511afceadf5e",
          "topics": [
            "0x4059c608a8f17b9b24a5a29662eb74934d39ea92ae22411868f07fcac29487a0",
            "0x0000000000000000000000008f2eaba31b1b613ca78f2795ba05400f0583c5a4"
          ],
          "data": "0x0000000000000000000000000000000000000000000000000000000000000001",
          "blockHash": "0x30d2ddae6ed1219694fe2195c26c10df7d40c19bd38144118b23a86d25898ce6",
          "blockNumber": "0x1573f05",
          "blockTimestamp": "0x6827106b",
          "transactionHash": "0x492b87a5255ed5b136d02069404347952ddd367d30fe4ee57f01706f23b5fc6a",
          "transactionIndex": "0x91",
          "logIndex": "0x102",
          "removed": false
        }
      ],
      "logsBloom": "0x00000000000000000000000000000000000000000000000000000000000000000000000000000000000000020000000000000000000000000000000000000000000000000000000000000000000000000000000000000000000000000000000000000000000000000000001000000004000000000000000000000000000000000000000000000000000000000000000000000000000000000000000000000000000000000040000000000000010000000000000000000000000000000000000000004000000000000000000000002000000000000000000000000000000000000000000000008000000000000000000000000000000000000000002000000000",
      "type": "0x2",
      "transactionHash": "0x492b87a5255ed5b136d02069404347952ddd367d30fe4ee57f01706f23b5fc6a",
      "transactionIndex": "0x91",
      "blockHash": "0x30d2ddae6ed1219694fe2195c26c10df7d40c19bd38144118b23a86d25898ce6",
      "blockNumber": "0x1573f05",
      "gasUsed": "0xce5f",
      "effectiveGasPrice": "0x706fb18c",
      "from": "0xb819a871d20913839c37f316dc914b0570bfc0ee",
      "to": "0x4df3dd62db219c47f6a7cb1be02c511afceadf5e",
      "contractAddress": null
    },
    {
      "status": "0x1",
      "cumulativeGasUsed": "0xdd4d79",
      "logs": [
        {
          "address": "0x4df3dd62db219c47f6a7cb1be02c511afceadf5e",
          "topics": [
            "0x4059c608a8f17b9b24a5a29662eb74934d39ea92ae22411868f07fcac29487a0",
            "0x0000000000000000000000008f2eaba31b1b613ca78f2795ba05400f0583c5a4"
          ],
          "data": "0x0000000000000000000000000000000000000000000000000000000000000001",
          "blockHash": "0x93b38f12c916439ef50abc47a3ab7899c2ec01747ac88747ab2640bdf8dc1e41",
          "blockNumber": "0x1573f06",
          "blockTimestamp": "0x68271077",
          "transactionHash": "0x02cfc9325d47fc3be1d5d3a7003fbea2addf6746d193ba207410a068d2046142",
          "transactionIndex": "0x85",
          "logIndex": "0xed",
          "removed": false
        }
      ],
      "logsBloom": "0x00000000000000000000000000000000000000000000000000000000000000000000000000000000000000020000000000000000000000000000000000000000000000000000000000000000000000000000000000000000000000000000000000000000000000000000001000000004000000000000000000000000000000000000000000000000000000000000000000000000000000000000000000000000000000000040000000000000010000000000000000000000000000000000000000004000000000000000000000002000000000000000000000000000000000000000000000008000000000000000000000000000000000000000002000000000",
      "type": "0x2",
      "transactionHash": "0x02cfc9325d47fc3be1d5d3a7003fbea2addf6746d193ba207410a068d2046142",
      "transactionIndex": "0x85",
      "blockHash": "0x93b38f12c916439ef50abc47a3ab7899c2ec01747ac88747ab2640bdf8dc1e41",
      "blockNumber": "0x1573f06",
      "gasUsed": "0x80a3",
      "effectiveGasPrice": "0x6d979130",
      "from": "0xb819a871d20913839c37f316dc914b0570bfc0ee",
      "to": "0x4df3dd62db219c47f6a7cb1be02c511afceadf5e",
      "contractAddress": null
    },
    {
      "status": "0x1",
      "cumulativeGasUsed": "0xa58577",
      "logs": [
        {
          "address": "0x4df3dd62db219c47f6a7cb1be02c511afceadf5e",
          "topics": [
            "0x4059c608a8f17b9b24a5a29662eb74934d39ea92ae22411868f07fcac29487a0",
            "0x00000000000000000000000050d8deadd2b3140b151cab2c4fb76f1f59b236f8"
          ],
          "data": "0x0000000000000000000000000000000000000000000000000000000000000001",
          "blockHash": "0xb2162e07a852837d40e91dfa25bf78c17d965363d77b9c3e5c1d543927808f15",
          "blockNumber": "0x1573f07",
          "blockTimestamp": "0x68271083",
          "transactionHash": "0x43992aa4bb035c58f0c5406ad0043aabeef0610260a2e1e302607d798a68eb6d",
          "transactionIndex": "0x8e",
          "logIndex": "0x123",
          "removed": false
        }
      ],
      "logsBloom": "0x00000000000000000000000000000000000000000000200000000000000000000000000000000000000000020000000000000000000000000000000000000000000000000000000000000000000000000000000000000000000000000000000000000000000000000000000000000004000000000000000000000000020000000000000000000000000000000000000000000000000000000000000000000000000000000040000000000000010000000000000000000000000000000000000000000000000000000000000000000000000000000000000000000000000000000000000000808000000000000000000000000000000000000000002000000000",
      "type": "0x2",
      "transactionHash": "0x43992aa4bb035c58f0c5406ad0043aabeef0610260a2e1e302607d798a68eb6d",
      "transactionIndex": "0x8e",
      "blockHash": "0xb2162e07a852837d40e91dfa25bf78c17d965363d77b9c3e5c1d543927808f15",
      "blockNumber": "0x1573f07",
      "gasUsed": "0x80a3",
      "effectiveGasPrice": "0x6dd60443",
      "from": "0xb819a871d20913839c37f316dc914b0570bfc0ee",
      "to": "0x4df3dd62db219c47f6a7cb1be02c511afceadf5e",
      "contractAddress": null
    },
    {
      "status": "0x1",
      "cumulativeGasUsed": "0x12e1462",
      "logs": [
        {
          "address": "0x4df3dd62db219c47f6a7cb1be02c511afceadf5e",
          "topics": [
            "0x4059c608a8f17b9b24a5a29662eb74934d39ea92ae22411868f07fcac29487a0",
            "0x000000000000000000000000574582c44e3f1ef2cb29a7131b057febbcc8244e"
          ],
          "data": "0x0000000000000000000000000000000000000000000000000000000000000001",
          "blockHash": "0xca1a5ebe21a7574f7e514f618844aaa528498d44c7e32fc6700d1fccfb9e3628",
          "blockNumber": "0x1573f08",
          "blockTimestamp": "0x6827108f",
          "transactionHash": "0x1aa7f609b19e65f4cfd595ac52be0b1334613b8a21c8d144c1355f786f45444e",
          "transactionIndex": "0xb4",
          "logIndex": "0x1db",
          "removed": false
        }
      ],
      "logsBloom": "0x00000000000000000000000000000000000000000000000000000000000000000000000000000000000000020000000000000000000000000000000000000000000000000000200000000000000000000000000000000000000000000000000000000000000000000000000000000004000000000000000000000000000000000000000000000000000000100000000000000000000000000000000000000000004000000040000000000000010000000000000000000000000000000000000000000000000000000000000000000000000000000000000000000000000000000000000000008000000000000000000000000000000000000000002000000000",
      "type": "0x2",
      "transactionHash": "0x1aa7f609b19e65f4cfd595ac52be0b1334613b8a21c8d144c1355f786f45444e",
      "transactionIndex": "0xb4",
      "blockHash": "0xca1a5ebe21a7574f7e514f618844aaa528498d44c7e32fc6700d1fccfb9e3628",
      "blockNumber": "0x1573f08",
      "gasUsed": "0x80a3",
      "effectiveGasPrice": "0x69370105",
      "from": "0xb819a871d20913839c37f316dc914b0570bfc0ee",
      "to": "0x4df3dd62db219c47f6a7cb1be02c511afceadf5e",
      "contractAddress": null
    },
    {
      "status": "0x1",
      "cumulativeGasUsed": "0xde37f3",
      "logs": [
        {
          "address": "0x4df3dd62db219c47f6a7cb1be02c511afceadf5e",
          "topics": [
            "0x4059c608a8f17b9b24a5a29662eb74934d39ea92ae22411868f07fcac29487a0",
            "0x000000000000000000000000bd0ce952ba069a1e15f3bf3916d4b07bbbdbc8b3"
          ],
          "data": "0x0000000000000000000000000000000000000000000000000000000000000001",
          "blockHash": "0x2a6357651135abb89dc30d37fa06ffe613297fca3773df120c8d8df32a853775",
          "blockNumber": "0x1573f09",
          "blockTimestamp": "0x6827109b",
          "transactionHash": "0xa96094a5cbe7f3339be604befae23eb2b087a3cb5d38d042a3b56f61d5c1e217",
          "transactionIndex": "0x13a",
          "logIndex": "0x13a",
          "removed": false
        }
      ],
      "logsBloom": "0x00000000000000000000000000000000000000000000000000000000000000000000000000000000000000020000000000000000000000000000000000000000000000000002000000000000000000000000000000000000000000000000000000000000000000000000000000000004000000000000000000000000000000000000000000000000000000000000000000000000000000000000000000000000000000000040000000000000010000000000000000000000000000000000000000000000008000000000010000000000000000000000000000000000000000000000000000008000000000000000000000000000000000000000002000000000",
      "type": "0x2",
      "transactionHash": "0xa96094a5cbe7f3339be604befae23eb2b087a3cb5d38d042a3b56f61d5c1e217",
      "transactionIndex": "0x13a",
      "blockHash": "0x2a6357651135abb89dc30d37fa06ffe613297fca3773df120c8d8df32a853775",
      "blockNumber": "0x1573f09",
      "gasUsed": "0xce5f",
      "effectiveGasPrice": "0x6c66fe0f",
      "from": "0xb819a871d20913839c37f316dc914b0570bfc0ee",
      "to": "0x4df3dd62db219c47f6a7cb1be02c511afceadf5e",
      "contractAddress": null
    }
  ],
  "libraries": [],
  "pending": [],
  "returns": {},
  "timestamp": 1747390623,
  "chain": 1,
  "commit": "c569661"
}