{
  "transactions": [
    {
      "hash": "0xfea7fe4660d63c1220d871b4dd3572c49c06a7ba46671e41664f0192a855a0bd",
      "transactionType": "CALL",
      "contractName": null,
      "contractAddress": "0x269c36a173d881720544fb303e681370158ff1fd",
      "function": "setWhitelistedUser(address,bool)",
      "arguments": [
        "0xf20a8950c368Ec48323092D6e4acF90aADf2BdC6",
        "true"
      ],
      "transaction": {
        "from": "0xb819a871d20913839c37f316dc914b0570bfc0ee",
        "to": "0x269c36a173d881720544fb303e681370158ff1fd",
        "gas": "0x11d0b",
        "value": "0x0",
        "input": "0x44710fbe000000000000000000000000f20a8950c368ec48323092d6e4acf90aadf2bdc60000000000000000000000000000000000000000000000000000000000000001",
        "nonce": "0x2c",
        "chainId": "0x1"
      },
      "additionalContracts": [],
      "isFixedGasLimit": false
    },
    {
      "hash": "0xe9659855539834460049c922578337f1b64455617bdb1e4faf64fdc4f7ed4385",
      "transactionType": "CALL",
      "contractName": null,
      "contractAddress": "0x269c36a173d881720544fb303e681370158ff1fd",
      "function": "setWhitelistedUser(address,bool)",
      "arguments": [
        "0x8E72a24221517E51502f20f387415a06b27A5b51",
        "true"
      ],
      "transaction": {
        "from": "0xb819a871d20913839c37f316dc914b0570bfc0ee",
        "to": "0x269c36a173d881720544fb303e681370158ff1fd",
        "gas": "0x11d0b",
        "value": "0x0",
        "input": "0x44710fbe0000000000000000000000008e72a24221517e51502f20f387415a06b27a5b510000000000000000000000000000000000000000000000000000000000000001",
        "nonce": "0x2d",
        "chainId": "0x1"
      },
      "additionalContracts": [],
      "isFixedGasLimit": false
    },
    {
      "hash": "0xc7faa9ccb6e9b69d6868aaaf3d783628c2569928234c6289de7199a02d91533e",
      "transactionType": "CALL",
      "contractName": null,
      "contractAddress": "0x269c36a173d881720544fb303e681370158ff1fd",
      "function": "setWhitelistedUser(address,bool)",
      "arguments": [
        "0x50d8Deadd2b3140B151CaB2C4FB76F1f59b236F8",
        "true"
      ],
      "transaction": {
        "from": "0xb819a871d20913839c37f316dc914b0570bfc0ee",
        "to": "0x269c36a173d881720544fb303e681370158ff1fd",
        "gas": "0x11d0b",
        "value": "0x0",
        "input": "0x44710fbe00000000000000000000000050d8deadd2b3140b151cab2c4fb76f1f59b236f80000000000000000000000000000000000000000000000000000000000000001",
        "nonce": "0x2e",
        "chainId": "0x1"
      },
      "additionalContracts": [],
      "isFixedGasLimit": false
    },
    {
      "hash": "0xb4ba1648143b590ab47442def60f4856e7afe4739c928677161a13f9fd5b87e8",
      "transactionType": "CALL",
      "contractName": null,
      "contractAddress": "0x269c36a173d881720544fb303e681370158ff1fd",
      "function": "setWhitelistedUser(address,bool)",
      "arguments": [
        "0x574582C44e3f1EF2cB29a7131B057FebBCC8244E",
        "true"
      ],
      "transaction": {
        "from": "0xb819a871d20913839c37f316dc914b0570bfc0ee",
        "to": "0x269c36a173d881720544fb303e681370158ff1fd",
        "gas": "0x11d0b",
        "value": "0x0",
        "input": "0x44710fbe000000000000000000000000574582c44e3f1ef2cb29a7131b057febbcc8244e0000000000000000000000000000000000000000000000000000000000000001",
        "nonce": "0x2f",
        "chainId": "0x1"
      },
      "additionalContracts": [],
      "isFixedGasLimit": false
    },
    {
      "hash": "0x870a8fbbdc3923cfe196a142f563dc6d2f739a8ebabe4bdc47d388580fd799b9",
      "transactionType": "CALL",
      "contractName": null,
      "contractAddress": "0x269c36a173d881720544fb303e681370158ff1fd",
      "function": "setWhitelistedUser(address,bool)",
      "arguments": [
        "0x281567fe62b587EC1755f6F33b80160F544Dc5d0",
        "true"
      ],
      "transaction": {
        "from": "0xb819a871d20913839c37f316dc914b0570bfc0ee",
        "to": "0x269c36a173d881720544fb303e681370158ff1fd",
        "gas": "0x11d0b",
        "value": "0x0",
        "input": "0x44710fbe000000000000000000000000281567fe62b587ec1755f6f33b80160f544dc5d00000000000000000000000000000000000000000000000000000000000000001",
        "nonce": "0x30",
        "chainId": "0x1"
      },
      "additionalContracts": [],
      "isFixedGasLimit": false
    },
    {
      "hash": "0xc2e0e08e66014197b03fc3c6d5ceb1fd691322f6d3106beb62927eb7da8b6f4f",
      "transactionType": "CALL",
      "contractName": null,
      "contractAddress": "0x269c36a173d881720544fb303e681370158ff1fd",
      "function": "setWhitelistedUser(address,bool)",
      "arguments": [
        "0x2705f6A8F01bd4A805D9FC73151DBe37BB8d1edE",
        "true"
      ],
      "transaction": {
        "from": "0xb819a871d20913839c37f316dc914b0570bfc0ee",
        "to": "0x269c36a173d881720544fb303e681370158ff1fd",
        "gas": "0x11d0b",
        "value": "0x0",
        "input": "0x44710fbe0000000000000000000000002705f6a8f01bd4a805d9fc73151dbe37bb8d1ede0000000000000000000000000000000000000000000000000000000000000001",
        "nonce": "0x31",
        "chainId": "0x1"
      },
      "additionalContracts": [],
      "isFixedGasLimit": false
    },
    {
      "hash": "0x495a83269203900f92de1f0fb5cea4f7a88027b5e7df302f60ea210bef9146e8",
      "transactionType": "CALL",
      "contractName": null,
      "contractAddress": "0x269c36a173d881720544fb303e681370158ff1fd",
      "function": "setWhitelistedUser(address,bool)",
      "arguments": [
        "0xc9C9693b6A445D05Add0043662fad9Ac600Ad088",
        "true"
      ],
      "transaction": {
        "from": "0xb819a871d20913839c37f316dc914b0570bfc0ee",
        "to": "0x269c36a173d881720544fb303e681370158ff1fd",
        "gas": "0x11d0b",
        "value": "0x0",
        "input": "0x44710fbe000000000000000000000000c9c9693b6a445d05add0043662fad9ac600ad0880000000000000000000000000000000000000000000000000000000000000001",
        "nonce": "0x32",
        "chainId": "0x1"
      },
      "additionalContracts": [],
      "isFixedGasLimit": false
    },
    {
      "hash": "0x961c9f2ae990dcbd859a9a693a188110b2ab0a5c4a1f27276d8bf16f4897e1bf",
      "transactionType": "CALL",
      "contractName": null,
      "contractAddress": "0x269c36a173d881720544fb303e681370158ff1fd",
      "function": "setWhitelistedUser(address,bool)",
      "arguments": [
        "0x7EfE40B2E6dA8b28AaB6Bd2D622B9Cd7f5fE077c",
        "true"
      ],
      "transaction": {
        "from": "0xb819a871d20913839c37f316dc914b0570bfc0ee",
        "to": "0x269c36a173d881720544fb303e681370158ff1fd",
        "gas": "0x11d0b",
        "value": "0x0",
        "input": "0x44710fbe0000000000000000000000007efe40b2e6da8b28aab6bd2d622b9cd7f5fe077c0000000000000000000000000000000000000000000000000000000000000001",
        "nonce": "0x33",
        "chainId": "0x1"
      },
      "additionalContracts": [],
      "isFixedGasLimit": false
    },
    {
      "hash": "0x3fb209b606b6438f5f1e0aeafb07bc9f569bb60a3f56e0fb22151ce87c156f44",
      "transactionType": "CALL",
      "contractName": null,
      "contractAddress": "0x269c36a173d881720544fb303e681370158ff1fd",
      "function": "setWhitelistedUser(address,bool)",
      "arguments": [
        "0xa22DCB8F0A2848289124086F35ae9dB2a0006962",
        "true"
      ],
      "transaction": {
        "from": "0xb819a871d20913839c37f316dc914b0570bfc0ee",
        "to": "0x269c36a173d881720544fb303e681370158ff1fd",
        "gas": "0x12dbf",
        "value": "0x0",
        "input": "0x44710fbe000000000000000000000000a22dcb8f0a2848289124086f35ae9db2a00069620000000000000000000000000000000000000000000000000000000000000001",
        "nonce": "0x34",
        "chainId": "0x1"
      },
      "additionalContracts": [],
      "isFixedGasLimit": false
    },
    {
      "hash": "0x4cb29d169f08f5359aa9a7f3d3c2845e143da635684411250fe2c6ecef5f893d",
      "transactionType": "CALL",
      "contractName": null,
      "contractAddress": "0x269c36a173d881720544fb303e681370158ff1fd",
      "function": "setWhitelistedUser(address,bool)",
      "arguments": [
        "0xB819A871d20913839c37f316Dc914b0570bfc0eE",
        "true"
      ],
      "transaction": {
        "from": "0xb819a871d20913839c37f316dc914b0570bfc0ee",
        "to": "0x269c36a173d881720544fb303e681370158ff1fd",
        "gas": "0x11d0b",
        "value": "0x0",
        "input": "0x44710fbe000000000000000000000000b819a871d20913839c37f316dc914b0570bfc0ee0000000000000000000000000000000000000000000000000000000000000001",
        "nonce": "0x35",
        "chainId": "0x1"
      },
      "additionalContracts": [],
      "isFixedGasLimit": false
    },
    {
      "hash": "0xce35abe1a25b12300a7aadd051325abff2ff967d153298138b5c7fc9ff4b10a7",
      "transactionType": "CALL",
      "contractName": null,
      "contractAddress": "0x269c36a173d881720544fb303e681370158ff1fd",
      "function": "setWhitelistedUser(address,bool)",
      "arguments": [
        "0x40282d3Cf4890D9806BC1853e97a59C93D813653",
        "true"
      ],
      "transaction": {
        "from": "0xb819a871d20913839c37f316dc914b0570bfc0ee",
        "to": "0x269c36a173d881720544fb303e681370158ff1fd",
        "gas": "0x11d0b",
        "value": "0x0",
        "input": "0x44710fbe00000000000000000000000040282d3cf4890d9806bc1853e97a59c93d8136530000000000000000000000000000000000000000000000000000000000000001",
        "nonce": "0x36",
        "chainId": "0x1"
      },
      "additionalContracts": [],
      "isFixedGasLimit": false
    },
    {
      "hash": "0x88949321100b657993893f3da40e1f8c57efdb40bcbb2e0397a02efaea467a11",
      "transactionType": "CALL",
      "contractName": null,
      "contractAddress": "0x269c36a173d881720544fb303e681370158ff1fd",
      "function": "setWhitelistedUser(address,bool)",
      "arguments": [
        "0xB5b901F1BB86421301138b5c45C1D3Fe96663161",
        "true"
      ],
      "transaction": {
        "from": "0xb819a871d20913839c37f316dc914b0570bfc0ee",
        "to": "0x269c36a173d881720544fb303e681370158ff1fd",
        "gas": "0x11d0b",
        "value": "0x0",
        "input": "0x44710fbe000000000000000000000000b5b901f1bb86421301138b5c45c1d3fe966631610000000000000000000000000000000000000000000000000000000000000001",
        "nonce": "0x37",
        "chainId": "0x1"
      },
      "additionalContracts": [],
      "isFixedGasLimit": false
    },
    {
      "hash": "0xd658cee89c12633c5bf051949b30ae6e82840af732627e5eba7fec2a977bb05b",
      "transactionType": "CALL",
      "contractName": null,
      "contractAddress": "0x269c36a173d881720544fb303e681370158ff1fd",
      "function": "setWhitelistedUser(address,bool)",
      "arguments": [
        "0xBAec8904499dcdee770c60df15b0C37EAC84Fb62",
        "true"
      ],
      "transaction": {
        "from": "0xb819a871d20913839c37f316dc914b0570bfc0ee",
        "to": "0x269c36a173d881720544fb303e681370158ff1fd",
        "gas": "0x11d0b",
        "value": "0x0",
        "input": "0x44710fbe000000000000000000000000baec8904499dcdee770c60df15b0c37eac84fb620000000000000000000000000000000000000000000000000000000000000001",
        "nonce": "0x38",
        "chainId": "0x1"
      },
      "additionalContracts": [],
      "isFixedGasLimit": false
    },
    {
      "hash": "0x0d6a2c953ec3f15062fc514c5c0b56af2f79d87dcc238fd3d41d884857e27b4d",
      "transactionType": "CALL",
      "contractName": null,
      "contractAddress": "0x269c36a173d881720544fb303e681370158ff1fd",
      "function": "setWhitelistedUser(address,bool)",
      "arguments": [
        "0xfC4A23271b60887FC246B060B6931a08E2BC434c",
        "true"
      ],
      "transaction": {
        "from": "0xb819a871d20913839c37f316dc914b0570bfc0ee",
        "to": "0x269c36a173d881720544fb303e681370158ff1fd",
        "gas": "0x11d0b",
        "value": "0x0",
        "input": "0x44710fbe000000000000000000000000fc4a23271b60887fc246b060b6931a08e2bc434c0000000000000000000000000000000000000000000000000000000000000001",
        "nonce": "0x39",
        "chainId": "0x1"
      },
      "additionalContracts": [],
      "isFixedGasLimit": false
    },
    {
      "hash": "0xf911a7dd17529135ce1e29485f7e00744fb4024f41b2eb0190e19d67eabb414a",
      "transactionType": "CALL",
      "contractName": null,
      "contractAddress": "0x269c36a173d881720544fb303e681370158ff1fd",
      "function": "setWhitelistedUser(address,bool)",
      "arguments": [
        "0x65b142550aE82f4BB3792E1eEfb2FC35541A3837",
        "true"
      ],
      "transaction": {
        "from": "0xb819a871d20913839c37f316dc914b0570bfc0ee",
        "to": "0x269c36a173d881720544fb303e681370158ff1fd",
        "gas": "0x11d0b",
        "value": "0x0",
        "input": "0x44710fbe00000000000000000000000065b142550ae82f4bb3792e1eefb2fc35541a38370000000000000000000000000000000000000000000000000000000000000001",
        "nonce": "0x3a",
        "chainId": "0x1"
      },
      "additionalContracts": [],
      "isFixedGasLimit": false
    },
    {
      "hash": "0xe4905fb981a0804277330bc9c21f91e1be68c9de0cd30dfa980363eeba060bd3",
      "transactionType": "CALL",
      "contractName": null,
      "contractAddress": "0x269c36a173d881720544fb303e681370158ff1fd",
      "function": "setWhitelistedUser(address,bool)",
      "arguments": [
        "0x75149feEBb20E1fE5Ddb89302a6d4bACE70c14Ce",
        "true"
      ],
      "transaction": {
        "from": "0xb819a871d20913839c37f316dc914b0570bfc0ee",
        "to": "0x269c36a173d881720544fb303e681370158ff1fd",
        "gas": "0x11d0b",
        "value": "0x0",
        "input": "0x44710fbe00000000000000000000000075149feebb20e1fe5ddb89302a6d4bace70c14ce0000000000000000000000000000000000000000000000000000000000000001",
        "nonce": "0x3b",
        "chainId": "0x1"
      },
      "additionalContracts": [],
      "isFixedGasLimit": false
    },
    {
      "hash": "0x78d67e6744d1532018cdb912d1ed47df7604ccf779ba4d0b5bd1a3479e7f9f33",
      "transactionType": "CALL",
      "contractName": null,
      "contractAddress": "0x269c36a173d881720544fb303e681370158ff1fd",
      "function": "setWhitelistedUser(address,bool)",
      "arguments": [
        "0x65B6D4770DAdcFba6d363dE86aA4D9c76283cea0",
        "true"
      ],
      "transaction": {
        "from": "0xb819a871d20913839c37f316dc914b0570bfc0ee",
        "to": "0x269c36a173d881720544fb303e681370158ff1fd",
        "gas": "0x11d0b",
        "value": "0x0",
        "input": "0x44710fbe00000000000000000000000065b6d4770dadcfba6d363de86aa4d9c76283cea00000000000000000000000000000000000000000000000000000000000000001",
        "nonce": "0x3c",
        "chainId": "0x1"
      },
      "additionalContracts": [],
      "isFixedGasLimit": false
    },
    {
      "hash": "0x2d6d6bd775faee1316d44b5bc9ce8050134d57ddcefba805ab939fccf31f3c6b",
      "transactionType": "CALL",
      "contractName": null,
      "contractAddress": "0x269c36a173d881720544fb303e681370158ff1fd",
      "function": "setWhitelistedUser(address,bool)",
      "arguments": [
        "0xa6A9fdDC94BB4FE7520A2eA1CC2c433e18683342",
        "true"
      ],
      "transaction": {
        "from": "0xb819a871d20913839c37f316dc914b0570bfc0ee",
        "to": "0x269c36a173d881720544fb303e681370158ff1fd",
        "gas": "0x11d0b",
        "value": "0x0",
        "input": "0x44710fbe000000000000000000000000a6a9fddc94bb4fe7520a2ea1cc2c433e186833420000000000000000000000000000000000000000000000000000000000000001",
        "nonce": "0x3d",
        "chainId": "0x1"
      },
      "additionalContracts": [],
      "isFixedGasLimit": false
    },
    {
      "hash": "0x8a271eacc606ae31cd46fbd7a34472caa573b6bf02b598499261fbe300423f74",
      "transactionType": "CALL",
      "contractName": null,
      "contractAddress": "0x269c36a173d881720544fb303e681370158ff1fd",
      "function": "setWhitelistedUser(address,bool)",
      "arguments": [
        "0x18D04F05f80ADE5373849385a1c24E1E0a6d1744",
        "true"
      ],
      "transaction": {
        "from": "0xb819a871d20913839c37f316dc914b0570bfc0ee",
        "to": "0x269c36a173d881720544fb303e681370158ff1fd",
        "gas": "0x11d0b",
        "value": "0x0",
        "input": "0x44710fbe00000000000000000000000018d04f05f80ade5373849385a1c24e1e0a6d17440000000000000000000000000000000000000000000000000000000000000001",
        "nonce": "0x3e",
        "chainId": "0x1"
      },
      "additionalContracts": [],
      "isFixedGasLimit": false
    },
    {
      "hash": "0x5b6a28807694c69ff82a80b848f59805bd8b04304d9be4e84d3af31eb12280e1",
      "transactionType": "CALL",
      "contractName": null,
      "contractAddress": "0x269c36a173d881720544fb303e681370158ff1fd",
      "function": "setWhitelistedUser(address,bool)",
      "arguments": [
        "0xBD9C90D6774CB5320B54Bb7998b6Bcc5e4A9071f",
        "true"
      ],
      "transaction": {
        "from": "0xb819a871d20913839c37f316dc914b0570bfc0ee",
        "to": "0x269c36a173d881720544fb303e681370158ff1fd",
        "gas": "0x11d0b",
        "value": "0x0",
        "input": "0x44710fbe000000000000000000000000bd9c90d6774cb5320b54bb7998b6bcc5e4a9071f0000000000000000000000000000000000000000000000000000000000000001",
        "nonce": "0x3f",
        "chainId": "0x1"
      },
      "additionalContracts": [],
      "isFixedGasLimit": false
    },
    {
      "hash": "0xc6803145583c02e17ca811f2d65b895839add0f5baa4e1b5356741257d4aaec6",
      "transactionType": "CALL",
      "contractName": null,
      "contractAddress": "0x269c36a173d881720544fb303e681370158ff1fd",
      "function": "setWhitelistedUser(address,bool)",
      "arguments": [
        "0x8f2eABa31B1b613ca78F2795bA05400F0583c5A4",
        "true"
      ],
      "transaction": {
        "from": "0xb819a871d20913839c37f316dc914b0570bfc0ee",
        "to": "0x269c36a173d881720544fb303e681370158ff1fd",
        "gas": "0x11d0b",
        "value": "0x0",
        "input": "0x44710fbe0000000000000000000000008f2eaba31b1b613ca78f2795ba05400f0583c5a40000000000000000000000000000000000000000000000000000000000000001",
        "nonce": "0x40",
        "chainId": "0x1"
      },
      "additionalContracts": [],
      "isFixedGasLimit": false
    },
    {
      "hash": "0xb9debecd631fe2a0fb1df6fadb4e0f0a3c66b583bc25857370c18d22551670fa",
      "transactionType": "CALL",
      "contractName": null,
      "contractAddress": "0x269c36a173d881720544fb303e681370158ff1fd",
      "function": "setWhitelistedUser(address,bool)",
      "arguments": [
        "0x8f2eABa31B1b613ca78F2795bA05400F0583c5A4",
        "true"
      ],
      "transaction": {
        "from": "0xb819a871d20913839c37f316dc914b0570bfc0ee",
        "to": "0x269c36a173d881720544fb303e681370158ff1fd",
        "gas": "0xbc21",
        "value": "0x0",
        "input": "0x44710fbe0000000000000000000000008f2eaba31b1b613ca78f2795ba05400f0583c5a40000000000000000000000000000000000000000000000000000000000000001",
        "nonce": "0x41",
        "chainId": "0x1"
      },
      "additionalContracts": [],
      "isFixedGasLimit": false
    },
    {
      "hash": "0xeeee992ee2a60ff4bd462f658f005646915b9036e68695797f99e4477982d209",
      "transactionType": "CALL",
      "contractName": null,
      "contractAddress": "0x269c36a173d881720544fb303e681370158ff1fd",
      "function": "setWhitelistedUser(address,bool)",
      "arguments": [
        "0x50d8Deadd2b3140B151CaB2C4FB76F1f59b236F8",
        "true"
      ],
      "transaction": {
        "from": "0xb819a871d20913839c37f316dc914b0570bfc0ee",
        "to": "0x269c36a173d881720544fb303e681370158ff1fd",
        "gas": "0xbc21",
        "value": "0x0",
        "input": "0x44710fbe00000000000000000000000050d8deadd2b3140b151cab2c4fb76f1f59b236f80000000000000000000000000000000000000000000000000000000000000001",
        "nonce": "0x42",
        "chainId": "0x1"
      },
      "additionalContracts": [],
      "isFixedGasLimit": false
    },
    {
      "hash": "0xaa532fab58ef16ac219caa35167f27f6a53980304bdaf6f865bb01164573f639",
      "transactionType": "CALL",
      "contractName": null,
      "contractAddress": "0x269c36a173d881720544fb303e681370158ff1fd",
      "function": "setWhitelistedUser(address,bool)",
      "arguments": [
        "0x574582C44e3f1EF2cB29a7131B057FebBCC8244E",
        "true"
      ],
      "transaction": {
        "from": "0xb819a871d20913839c37f316dc914b0570bfc0ee",
        "to": "0x269c36a173d881720544fb303e681370158ff1fd",
        "gas": "0xbc21",
        "value": "0x0",
        "input": "0x44710fbe000000000000000000000000574582c44e3f1ef2cb29a7131b057febbcc8244e0000000000000000000000000000000000000000000000000000000000000001",
        "nonce": "0x43",
        "chainId": "0x1"
      },
      "additionalContracts": [],
      "isFixedGasLimit": false
    },
    {
      "hash": "0x20c08bbaf0ad53da648d6e2d9473947caa19972881a5f3e7ec8a901a535a6882",
      "transactionType": "CALL",
      "contractName": null,
      "contractAddress": "0x269c36a173d881720544fb303e681370158ff1fd",
      "function": "setWhitelistedUser(address,bool)",
      "arguments": [
        "0xBd0Ce952bA069A1e15f3bf3916d4B07bBBdBC8B3",
        "true"
      ],
      "transaction": {
        "from": "0xb819a871d20913839c37f316dc914b0570bfc0ee",
        "to": "0x269c36a173d881720544fb303e681370158ff1fd",
        "gas": "0x11d0b",
        "value": "0x0",
        "input": "0x44710fbe000000000000000000000000bd0ce952ba069a1e15f3bf3916d4b07bbbdbc8b30000000000000000000000000000000000000000000000000000000000000001",
        "nonce": "0x44",
        "chainId": "0x1"
      },
      "additionalContracts": [],
      "isFixedGasLimit": false
    }
  ],
  "receipts": [
    {
      "status": "0x1",
      "cumulativeGasUsed": "0xbb4bc1",
      "logs": [
        {
          "address": "0x269c36a173d881720544fb303e681370158ff1fd",
          "topics": [
            "0x4059c608a8f17b9b24a5a29662eb74934d39ea92ae22411868f07fcac29487a0",
            "0x000000000000000000000000f20a8950c368ec48323092d6e4acf90aadf2bdc6"
          ],
          "data": "0x0000000000000000000000000000000000000000000000000000000000000001",
          "blockHash": "0x10ba3c00b16626011a1bbf028b9bc59f732bb910e101970366d14cf5c22ef372",
          "blockNumber": "0x1573e0f",
          "blockTimestamp": "0x682704b3",
          "transactionHash": "0xfea7fe4660d63c1220d871b4dd3572c49c06a7ba46671e41664f0192a855a0bd",
          "transactionIndex": "0x93",
          "logIndex": "0x12f",
          "removed": false
        }
      ],
      "logsBloom": "0x00000000000000000000000000000000000000000000000000000000000000000000000000000008000000020000000000000010000000000000000000000000000000000000000000000000000000000000000000000000000000000000000000000000000000000000000000000000000000000000000000000000000000000000000000000000000000000000000000000000000000000000000000000000000000000040000000100000000000000000020000000000000000000000000000000000000000000000000000000000000000000000000000001000004000000000000000008000000000000000000000000000000000000000000000000000",
      "type": "0x2",
      "transactionHash": "0xfea7fe4660d63c1220d871b4dd3572c49c06a7ba46671e41664f0192a855a0bd",
      "transactionIndex": "0x93",
      "blockHash": "0x10ba3c00b16626011a1bbf028b9bc59f732bb910e101970366d14cf5c22ef372",
      "blockNumber": "0x1573e0f",
      "gasUsed": "0xce5f",
      "effectiveGasPrice": "0x7191f455",
      "from": "0xb819a871d20913839c37f316dc914b0570bfc0ee",
      "to": "0x269c36a173d881720544fb303e681370158ff1fd",
      "contractAddress": null
    },
    {
      "status": "0x1",
      "cumulativeGasUsed": "0x380370",
      "logs": [
        {
          "address": "0x269c36a173d881720544fb303e681370158ff1fd",
          "topics": [
            "0x4059c608a8f17b9b24a5a29662eb74934d39ea92ae22411868f07fcac29487a0",
            "0x0000000000000000000000008e72a24221517e51502f20f387415a06b27a5b51"
          ],
          "data": "0x0000000000000000000000000000000000000000000000000000000000000001",
          "blockHash": "0x5813675455447ff818c7bc3a084cefde270fff843be1d53e988b6e8a3ed0365e",
          "blockNumber": "0x1573e10",
          "blockTimestamp": "0x682704bf",
          "transactionHash": "0xe9659855539834460049c922578337f1b64455617bdb1e4faf64fdc4f7ed4385",
          "transactionIndex": "0x33",
          "logIndex": "0x82",
          "removed": false
        }
      ],
      "logsBloom": "0x00000000000000000000000000000000000000000000000000000000000000000000000000000008000000020000000000000010000000000000000000000000000000000000000000000000000000000000000000000000000000000000000000000000000000000000000000000000000000000000000000000800000000000000000000000000000000000000000000000000000000000000000000020000000000000040000000100000000000000000000000000000000000000000000000000000000000000000000000000000000000000001000000000000000000000000000000008000000000000000000000000000000000000000000000000000",
      "type": "0x2",
      "transactionHash": "0xe9659855539834460049c922578337f1b64455617bdb1e4faf64fdc4f7ed4385",
      "transactionIndex": "0x33",
      "blockHash": "0x5813675455447ff818c7bc3a084cefde270fff843be1d53e988b6e8a3ed0365e",
      "blockNumber": "0x1573e10",
      "gasUsed": "0xce5f",
      "effectiveGasPrice": "0x6e555dd6",
      "from": "0xb819a871d20913839c37f316dc914b0570bfc0ee",
      "to": "0x269c36a173d881720544fb303e681370158ff1fd",
      "contractAddress": null
    },
    {
      "status": "0x1",
      "cumulativeGasUsed": "0x100f595",
      "logs": [
        {
          "address": "0x269c36a173d881720544fb303e681370158ff1fd",
          "topics": [
            "0x4059c608a8f17b9b24a5a29662eb74934d39ea92ae22411868f07fcac29487a0",
            "0x00000000000000000000000050d8deadd2b3140b151cab2c4fb76f1f59b236f8"
          ],
          "data": "0x0000000000000000000000000000000000000000000000000000000000000001",
          "blockHash": "0x8f922f1a7573389f6b82b038ceb1f2c65eb8b30cbd1d2a30a8096f4ed95a7b58",
          "blockNumber": "0x1573e12",
          "blockTimestamp": "0x682704d7",
          "transactionHash": "0xc7faa9ccb6e9b69d6868aaaf3d783628c2569928234c6289de7199a02d91533e",
          "transactionIndex": "0xc6",
          "logIndex": "0x1d4",
          "removed": false
        }
      ],
      "logsBloom": "0x00000000000000000000000000000000000000000000200000000000000000000000000000000008000000020000000000000010000000000000000000000000000000000000000000000000000000000000000000000000000000000000000000000000000000000000000000000000000000000000000000000000020000000000000000000000000000000000000000000000000000000000000000000000000000000040000000100000000000000000000000000000000000000000000000000000000000000000000000000000000000000000000000000000000000000000000000808000000000000000000000000000000000000000000000000000",
      "type": "0x2",
      "transactionHash": "0xc7faa9ccb6e9b69d6868aaaf3d783628c2569928234c6289de7199a02d91533e",
      "transactionIndex": "0xc6",
      "blockHash": "0x8f922f1a7573389f6b82b038ceb1f2c65eb8b30cbd1d2a30a8096f4ed95a7b58",
      "blockNumber": "0x1573e12",
      "gasUsed": "0xce5f",
      "effectiveGasPrice": "0x6f0ebbfc",
      "from": "0xb819a871d20913839c37f316dc914b0570bfc0ee",
      "to": "0x269c36a173d881720544fb303e681370158ff1fd",
      "contractAddress": null
    },
    {
      "status": "0x1",
      "cumulativeGasUsed": "0xe6835b",
      "logs": [
        {
          "address": "0x269c36a173d881720544fb303e681370158ff1fd",
          "topics": [
            "0x4059c608a8f17b9b24a5a29662eb74934d39ea92ae22411868f07fcac29487a0",
            "0x000000000000000000000000574582c44e3f1ef2cb29a7131b057febbcc8244e"
          ],
          "data": "0x0000000000000000000000000000000000000000000000000000000000000001",
          "blockHash": "0x3e57d5ee9436e200b2035cbabb2bb05de0183256a0c4613473d553558358e6cb",
          "blockNumber": "0x1573e16",
          "blockTimestamp": "0x68270507",
          "transactionHash": "0xb4ba1648143b590ab47442def60f4856e7afe4739c928677161a13f9fd5b87e8",
          "transactionIndex": "0xaa",
          "logIndex": "0x1e0",
          "removed": false
        }
      ],
      "logsBloom": "0x00000000000000000000000000000000000000000000000000000000000000000000000000000008000000020000000000000010000000000000000000000000000000000000200000000000000000000000000000000000000000000000000000000000000000000000000000000000000000000000000000000000000000000000000000000000000000100000000000000000000000000000000000000000004000000040000000100000000000000000000000000000000000000000000000000000000000000000000000000000000000000000000000000000000000000000000000008000000000000000000000000000000000000000000000000000",
      "type": "0x2",
      "transactionHash": "0xb4ba1648143b590ab47442def60f4856e7afe4739c928677161a13f9fd5b87e8",
      "transactionIndex": "0xaa",
      "blockHash": "0x3e57d5ee9436e200b2035cbabb2bb05de0183256a0c4613473d553558358e6cb",
      "blockNumber": "0x1573e16",
      "gasUsed": "0xce5f",
      "effectiveGasPrice": "0x7b21db8b",
      "from": "0xb819a871d20913839c37f316dc914b0570bfc0ee",
      "to": "0x269c36a173d881720544fb303e681370158ff1fd",
      "contractAddress": null
    },
    {
      "status": "0x1",
      "cumulativeGasUsed": "0x17c0369",
      "logs": [
        {
          "address": "0x269c36a173d881720544fb303e681370158ff1fd",
          "topics": [
            "0x4059c608a8f17b9b24a5a29662eb74934d39ea92ae22411868f07fcac29487a0",
            "0x000000000000000000000000281567fe62b587ec1755f6f33b80160f544dc5d0"
          ],
          "data": "0x0000000000000000000000000000000000000000000000000000000000000001",
          "blockHash": "0x17e6ae93e7fa63b75841f0ca1c328bc22ef3b610a9c26f54a9c3381fc2ef0714",
          "blockNumber": "0x1573e17",
          "blockTimestamp": "0x68270513",
          "transactionHash": "0x870a8fbbdc3923cfe196a142f563dc6d2f739a8ebabe4bdc47d388580fd799b9",
          "transactionIndex": "0xfe",
          "logIndex": "0x2e8",
          "removed": false
        }
      ],
      "logsBloom": "0x00200000000000000000000000000000000000000000000000000000000000000000000000000008000000020000000000000010000000000000000000000000000000000000000000000000000000000000000000000000000000000002000000000000000000000000000000000000000000000000000000000000000000000000000000000000000000000000000000000000800000000000000000000000000000000040000000100000000000000000000000000000000000000000000000000000000000000000000000000000000000000000000000000000000000000000000000008000000000000000000000000000000000000000000000000000",
      "type": "0x2",
      "transactionHash": "0x870a8fbbdc3923cfe196a142f563dc6d2f739a8ebabe4bdc47d388580fd799b9",
      "transactionIndex": "0xfe",
      "blockHash": "0x17e6ae93e7fa63b75841f0ca1c328bc22ef3b610a9c26f54a9c3381fc2ef0714",
      "blockNumber": "0x1573e17",
      "gasUsed": "0xce5f",
      "effectiveGasPrice": "0x7dbaf3e6",
      "from": "0xb819a871d20913839c37f316dc914b0570bfc0ee",
      "to": "0x269c36a173d881720544fb303e681370158ff1fd",
      "contractAddress": null
    },
    {
      "status": "0x1",
      "cumulativeGasUsed": "0xd051f4",
      "logs": [
        {
          "address": "0x269c36a173d881720544fb303e681370158ff1fd",
          "topics": [
            "0x4059c608a8f17b9b24a5a29662eb74934d39ea92ae22411868f07fcac29487a0",
            "0x0000000000000000000000002705f6a8f01bd4a805d9fc73151dbe37bb8d1ede"
          ],
          "data": "0x0000000000000000000000000000000000000000000000000000000000000001",
          "blockHash": "0x21777b92f9df7a433b1a83dcbda493540922e5bfa014034e74bbf3839f81c849",
          "blockNumber": "0x1573e18",
          "blockTimestamp": "0x6827051f",
          "transactionHash": "0xc2e0e08e66014197b03fc3c6d5ceb1fd691322f6d3106beb62927eb7da8b6f4f",
          "transactionIndex": "0x96",
          "logIndex": "0x1a1",
          "removed": false
        }
      ],
      "logsBloom": "0x00000000000000000000000000000000000000000000000000000000000040000000000000000008000000020000000000000010000000000000000000000000000000000000000000000000000000000000000000000040000000000000000000000000000000000000000000000000000000000000000000000040000000000000000000000000000000000000000000000000000000000000000000000000000000000040000000100000000000000000000000000000000000000000000000000000000000000000000000000000000000000000000000000000000000000000000000008000000000000000000000000000000000000000000000000000",
      "type": "0x2",
      "transactionHash": "0xc2e0e08e66014197b03fc3c6d5ceb1fd691322f6d3106beb62927eb7da8b6f4f",
      "transactionIndex": "0x96",
      "blockHash": "0x21777b92f9df7a433b1a83dcbda493540922e5bfa014034e74bbf3839f81c849",
      "blockNumber": "0x1573e18",
      "gasUsed": "0xce5f",
      "effectiveGasPrice": "0x8727365d",
      "from": "0xb819a871d20913839c37f316dc914b0570bfc0ee",
      "to": "0x269c36a173d881720544fb303e681370158ff1fd",
      "contractAddress": null
    },
    {
      "status": "0x1",
      "cumulativeGasUsed": "0x11f674f",
      "logs": [
        {
          "address": "0x269c36a173d881720544fb303e681370158ff1fd",
          "topics": [
            "0x4059c608a8f17b9b24a5a29662eb74934d39ea92ae22411868f07fcac29487a0",
            "0x000000000000000000000000c9c9693b6a445d05add0043662fad9ac600ad088"
          ],
          "data": "0x0000000000000000000000000000000000000000000000000000000000000001",
          "blockHash": "0x1981f529b5b9599d863f9388feb2a80cb19eb562c6f84bd8f05f1c403e3089ba",
          "blockNumber": "0x1573e19",
          "blockTimestamp": "0x6827052b",
          "transactionHash": "0x495a83269203900f92de1f0fb5cea4f7a88027b5e7df302f60ea210bef9146e8",
          "transactionIndex": "0xbe",
          "logIndex": "0x216",
          "removed": false
        }
      ],
      "logsBloom": "0x00000000000000000000000000000000000000000000000000000000000000000000000010000008000000020000000000000010000000000000000000000000000000000000000000000000000000000000000000000000000000000000000000000000000000000000000000000000000000000000000000000000000000000000000000000000000000000000000000000000000000000000000000000000000000001040000000100000000000000000000000000000000000000000000000000001000000000000000000000000000000000000000000000000000000000000000000008000000000000000000000000000000000000000000000000000",
      "type": "0x2",
      "transactionHash": "0x495a83269203900f92de1f0fb5cea4f7a88027b5e7df302f60ea210bef9146e8",
      "transactionIndex": "0xbe",
      "blockHash": "0x1981f529b5b9599d863f9388feb2a80cb19eb562c6f84bd8f05f1c403e3089ba",
      "blockNumber": "0x1573e19",
      "gasUsed": "0xce5f",
      "effectiveGasPrice": "0x84b14e00",
      "from": "0xb819a871d20913839c37f316dc914b0570bfc0ee",
      "to": "0x269c36a173d881720544fb303e681370158ff1fd",
      "contractAddress": null
    },
    {
      "status": "0x1",
      "cumulativeGasUsed": "0xebe828",
      "logs": [
        {
          "address": "0x269c36a173d881720544fb303e681370158ff1fd",
          "topics": [
            "0x4059c608a8f17b9b24a5a29662eb74934d39ea92ae22411868f07fcac29487a0",
            "0x0000000000000000000000007efe40b2e6da8b28aab6bd2d622b9cd7f5fe077c"
          ],
          "data": "0x0000000000000000000000000000000000000000000000000000000000000001",
          "blockHash": "0x292d041151c5aa3e4dc069dc43d81af2b889789700bae33589e3134fe0d845e1",
          "blockNumber": "0x1573e1a",
          "blockTimestamp": "0x68270537",
          "transactionHash": "0x961c9f2ae990dcbd859a9a693a188110b2ab0a5c4a1f27276d8bf16f4897e1bf",
          "transactionIndex": "0x98",
          "logIndex": "0x1b2",
          "removed": false
        }
      ],
      "logsBloom": "0x00000000000000000000000000000000000000000000000000000000000000000000000000000008000000020000000000000010000000000000000000000000000000000000000000080000000000000000000000000000000000000000000000000000000000000000000000000000000000000000000000000000000000000000000200000000000000000000000000000000000000000000000000000000000000000040000000100000000000000000000000000000000000000000000000000000000000000000000000000000000000800000000000000000000000000000000000008000000000000000000000000000000000000000000000000000",
      "type": "0x2",
      "transactionHash": "0x961c9f2ae990dcbd859a9a693a188110b2ab0a5c4a1f27276d8bf16f4897e1bf",
      "transactionIndex": "0x98",
      "blockHash": "0x292d041151c5aa3e4dc069dc43d81af2b889789700bae33589e3134fe0d845e1",
      "blockNumber": "0x1573e1a",
      "gasUsed": "0xce5f",
      "effectiveGasPrice": "0x87323c30",
      "from": "0xb819a871d20913839c37f316dc914b0570bfc0ee",
      "to": "0x269c36a173d881720544fb303e681370158ff1fd",
      "contractAddress": null
    },
    {
      "status": "0x1",
      "cumulativeGasUsed": "0x5f5d96",
      "logs": [
        {
          "address": "0x269c36a173d881720544fb303e681370158ff1fd",
          "topics": [
            "0x4059c608a8f17b9b24a5a29662eb74934d39ea92ae22411868f07fcac29487a0",
            "0x000000000000000000000000a22dcb8f0a2848289124086f35ae9db2a0006962"
          ],
          "data": "0x0000000000000000000000000000000000000000000000000000000000000001",
          "blockHash": "0xa5ef21454cebaa18775906c2aa328d4d2fbe5fae70399d4cb7f6487d5d0e30c3",
          "blockNumber": "0x1573e1b",
          "blockTimestamp": "0x68270543",
          "transactionHash": "0x3fb209b606b6438f5f1e0aeafb07bc9f569bb60a3f56e0fb22151ce87c156f44",
          "transactionIndex": "0x4f",
          "logIndex": "0x79",
          "removed": false
        }
      ],
      "logsBloom": "0x00000000000000000100000000000000000000000000000000000000000000000000000000000008000000020000000000000010000000000000000000000000000000100000000000000000000000000000000000000000000000000000000000000000000000000000000000000000000000000000000000000000000000000000000000000000000000000000000000000000000000200000000000000000000000000040000000100000000000000000000000000000000000000000000000000000000000000000000000000000000000000000000000000000000000000000000000008000000000000000000000000000000000000000000000000000",
      "type": "0x2",
      "transactionHash": "0x3fb209b606b6438f5f1e0aeafb07bc9f569bb60a3f56e0fb22151ce87c156f44",
      "transactionIndex": "0x4f",
      "blockHash": "0xa5ef21454cebaa18775906c2aa328d4d2fbe5fae70399d4cb7f6487d5d0e30c3",
      "blockNumber": "0x1573e1b",
      "gasUsed": "0xce53",
      "effectiveGasPrice": "0x86b21f48",
      "from": "0xb819a871d20913839c37f316dc914b0570bfc0ee",
      "to": "0x269c36a173d881720544fb303e681370158ff1fd",
      "contractAddress": null
    },
    {
      "status": "0x1",
      "cumulativeGasUsed": "0x14e5f94",
      "logs": [
        {
          "address": "0x269c36a173d881720544fb303e681370158ff1fd",
          "topics": [
            "0x4059c608a8f17b9b24a5a29662eb74934d39ea92ae22411868f07fcac29487a0",
            "0x000000000000000000000000b819a871d20913839c37f316dc914b0570bfc0ee"
          ],
          "data": "0x0000000000000000000000000000000000000000000000000000000000000001",
          "blockHash": "0x67d80fb492c888e977cc73bcb29ecbc8dc49a93c4f232dbfe1eb1e57124aa664",
          "blockNumber": "0x1573e1c",
          "blockTimestamp": "0x6827054f",
          "transactionHash": "0x4cb29d169f08f5359aa9a7f3d3c2845e143da635684411250fe2c6ecef5f893d",
          "transactionIndex": "0xe1",
          "logIndex": "0x298",
          "removed": false
        }
      ],
      "logsBloom": "0x00000000000000000000000000000000000000000000000000000000000000000000000000000008000000020000000000000010000000000000000000000002000000000080000000000000000000000000000000000000000000000000000000000000000000000000000000000000000000000000000000000000000000000000000000000000000000000000000000000000000000000000000000000000000000000040000000100000000000000000000000000000000000000000000000000000000000000000000000000000000000000000000000000200000000000000000000008000000000000000000000000000000000000000000000000000",
      "type": "0x2",
      "transactionHash": "0x4cb29d169f08f5359aa9a7f3d3c2845e143da635684411250fe2c6ecef5f893d",
      "transactionIndex": "0xe1",
      "blockHash": "0x67d80fb492c888e977cc73bcb29ecbc8dc49a93c4f232dbfe1eb1e57124aa664",
      "blockNumber": "0x1573e1c",
      "gasUsed": "0xce5f",
      "effectiveGasPrice": "0x7c005f25",
      "from": "0xb819a871d20913839c37f316dc914b0570bfc0ee",
      "to": "0x269c36a173d881720544fb303e681370158ff1fd",
      "contractAddress": null
    },
    {
      "status": "0x1",
      "cumulativeGasUsed": "0xed444a",
      "logs": [
        {
          "address": "0x269c36a173d881720544fb303e681370158ff1fd",
          "topics": [
            "0x4059c608a8f17b9b24a5a29662eb74934d39ea92ae22411868f07fcac29487a0",
            "0x00000000000000000000000040282d3cf4890d9806bc1853e97a59c93d813653"
          ],
          "data": "0x0000000000000000000000000000000000000000000000000000000000000001",
          "blockHash": "0x5e182a47019bb7f4a8d86bf47f61008486744a711bfdbb477447ec4b131352bc",
          "blockNumber": "0x1573e1d",
          "blockTimestamp": "0x6827055b",
          "transactionHash": "0xce35abe1a25b12300a7aadd051325abff2ff967d153298138b5c7fc9ff4b10a7",
          "transactionIndex": "0xa3",
          "logIndex": "0x1c5",
          "removed": false
        }
      ],
      "logsBloom": "0x00000000000000000000000000000000000000000000000000000000000000000000004000000008000000020000000000000010000000000000000000000000000000000000000000000000000000000000000000000000000000000000000000000000000000000000000000000000000000000000000000000000000000000000000040000000000000000000000000000000000200000000000000000000000000000040000000100000000000000000000000000000000000000000000000000000000000000000000000000000000000000000000000000000000000000000000000008000000000000000000000000000000000000000000000000000",
      "type": "0x2",
      "transactionHash": "0xce35abe1a25b12300a7aadd051325abff2ff967d153298138b5c7fc9ff4b10a7",
      "transactionIndex": "0xa3",
      "blockHash": "0x5e182a47019bb7f4a8d86bf47f61008486744a711bfdbb477447ec4b131352bc",
      "blockNumber": "0x1573e1d",
      "gasUsed": "0xce5f",
      "effectiveGasPrice": "0x82d9dfe8",
      "from": "0xb819a871d20913839c37f316dc914b0570bfc0ee",
      "to": "0x269c36a173d881720544fb303e681370158ff1fd",
      "contractAddress": null
    },
    {
      "status": "0x1",
      "cumulativeGasUsed": "0x10309fc",
      "logs": [
        {
          "address": "0x269c36a173d881720544fb303e681370158ff1fd",
          "topics": [
            "0x4059c608a8f17b9b24a5a29662eb74934d39ea92ae22411868f07fcac29487a0",
            "0x000000000000000000000000b5b901f1bb86421301138b5c45c1d3fe96663161"
          ],
          "data": "0x0000000000000000000000000000000000000000000000000000000000000001",
          "blockHash": "0xcfaa4de31dda43c86dae899fc35395614485948d4f506ae5a2a4bfff7cdad44e",
          "blockNumber": "0x1573e1e",
          "blockTimestamp": "0x68270567",
          "transactionHash": "0x88949321100b657993893f3da40e1f8c57efdb40bcbb2e0397a02efaea467a11",
          "transactionIndex": "0x8f",
          "logIndex": "0x207",
          "removed": false
        }
      ],
      "logsBloom": "0x00000000000000000000000000000000000000000000000000000000000000004000000000000008000000020000000000000010000000000000000000000000000000000000000000000000000000000000000000800000000000000000000000000000000000000000000000000000000000000000000000000000000000000000000000000000000000000000000000000000000000000000000000000000000000000040010000100000000000000000000000000000000000000000000000000000000000000000000000000000000000000000000000000000000000000000000000008000000000000000000000000000000000000000000000000000",
      "type": "0x2",
      "transactionHash": "0x88949321100b657993893f3da40e1f8c57efdb40bcbb2e0397a02efaea467a11",
      "transactionIndex": "0x8f",
      "blockHash": "0xcfaa4de31dda43c86dae899fc35395614485948d4f506ae5a2a4bfff7cdad44e",
      "blockNumber": "0x1573e1e",
      "gasUsed": "0xce5f",
      "effectiveGasPrice": "0x80b54b81",
      "from": "0xb819a871d20913839c37f316dc914b0570bfc0ee",
      "to": "0x269c36a173d881720544fb303e681370158ff1fd",
      "contractAddress": null
    },
    {
      "status": "0x1",
      "cumulativeGasUsed": "0x186717e",
      "logs": [
        {
          "address": "0x269c36a173d881720544fb303e681370158ff1fd",
          "topics": [
            "0x4059c608a8f17b9b24a5a29662eb74934d39ea92ae22411868f07fcac29487a0",
            "0x000000000000000000000000baec8904499dcdee770c60df15b0c37eac84fb62"
          ],
          "data": "0x0000000000000000000000000000000000000000000000000000000000000001",
          "blockHash": "0x4d8ad49c73bed8da85cefbe967d61d5f99e1b7d4120b81b7e94876fd1907f4cc",
          "blockNumber": "0x1573e1f",
          "blockTimestamp": "0x68270573",
          "transactionHash": "0xd658cee89c12633c5bf051949b30ae6e82840af732627e5eba7fec2a977bb05b",
          "transactionIndex": "0xc7",
          "logIndex": "0x262",
          "removed": false
        }
      ],
      "logsBloom": "0x00000000000000000000000000000000000000000000000000000000000000000000000000000008000000020000000000000010000000000000000000000000000000000000800000000000000080000000000000000000000000000000000000000000000000000000000000000000000000000000000000000000000000000000000000000000000000000000000000000000000000000000000000000000000000000040000000100000000000000000000000000000000000000000000000000000000000000000000000000000008000000000000000000000000000000000000000008000000000000000000000000000000000000000000000000000",
      "type": "0x2",
      "transactionHash": "0xd658cee89c12633c5bf051949b30ae6e82840af732627e5eba7fec2a977bb05b",
      "transactionIndex": "0xc7",
      "blockHash": "0x4d8ad49c73bed8da85cefbe967d61d5f99e1b7d4120b81b7e94876fd1907f4cc",
      "blockNumber": "0x1573e1f",
      "gasUsed": "0xce5f",
      "effectiveGasPrice": "0x832abb34",
      "from": "0xb819a871d20913839c37f316dc914b0570bfc0ee",
      "to": "0x269c36a173d881720544fb303e681370158ff1fd",
      "contractAddress": null
    },
    {
      "status": "0x1",
      "cumulativeGasUsed": "0x9d9adc",
      "logs": [
        {
          "address": "0x269c36a173d881720544fb303e681370158ff1fd",
          "topics": [
            "0x4059c608a8f17b9b24a5a29662eb74934d39ea92ae22411868f07fcac29487a0",
            "0x000000000000000000000000fc4a23271b60887fc246b060b6931a08e2bc434c"
          ],
          "data": "0x0000000000000000000000000000000000000000000000000000000000000001",
          "blockHash": "0x555499889946ca13e1cc04a887ce0fc92b0936bb962ee34a162637dc43f527ca",
          "blockNumber": "0x1573e20",
          "blockTimestamp": "0x6827057f",
          "transactionHash": "0x0d6a2c953ec3f15062fc514c5c0b56af2f79d87dcc238fd3d41d884857e27b4d",
          "transactionIndex": "0x67",
          "logIndex": "0x116",
          "removed": false
        }
      ],
      "logsBloom": "0x00000200000000000000000000000000000000000000000000000000000000000000000000000008000000020000000000000010000000000000000000000000000000000000020000000000000000000000000000000000000000004000000000000000000000000000000000000000000000000000000000000000000000000000000000000000000000000000000000000000000000000000000000000000000000000040000000100000000000000000000000000000000000000000000000000000000000000000000000000000000000000000000000000000000000000000000000008000000000000000000000000000000000000000000000000000",
      "type": "0x2",
      "transactionHash": "0x0d6a2c953ec3f15062fc514c5c0b56af2f79d87dcc238fd3d41d884857e27b4d",
      "transactionIndex": "0x67",
      "blockHash": "0x555499889946ca13e1cc04a887ce0fc92b0936bb962ee34a162637dc43f527ca",
      "blockNumber": "0x1573e20",
      "gasUsed": "0xce5f",
      "effectiveGasPrice": "0x8d7d9cb5",
      "from": "0xb819a871d20913839c37f316dc914b0570bfc0ee",
      "to": "0x269c36a173d881720544fb303e681370158ff1fd",
      "contractAddress": null
    },
    {
      "status": "0x1",
      "cumulativeGasUsed": "0xbcc911",
      "logs": [
        {
          "address": "0x269c36a173d881720544fb303e681370158ff1fd",
          "topics": [
            "0x4059c608a8f17b9b24a5a29662eb74934d39ea92ae22411868f07fcac29487a0",
            "0x00000000000000000000000065b142550ae82f4bb3792e1eefb2fc35541a3837"
          ],
          "data": "0x0000000000000000000000000000000000000000000000000000000000000001",
          "blockHash": "0xcd7ab928936ebcbc9b54278075dcb1b4fa18b951e3b3112212eb6196c99f20ac",
          "blockNumber": "0x1573e21",
          "blockTimestamp": "0x6827058b",
          "transactionHash": "0xf911a7dd17529135ce1e29485f7e00744fb4024f41b2eb0190e19d67eabb414a",
          "transactionIndex": "0x88",
          "logIndex": "0x131",
          "removed": false
        }
      ],
      "logsBloom": "0x00000000000000000000000000000000000000000000000000000000000000000000000000000008000000020000000000000010000000000000000000000000000000000000000000000000000000000000000000000000000000000000000000000000000000000000000000000000000000000000000000000000000000000000000000000000000000000000000000000000000000000000000000000000000040000040000000100000000000080000000000000000000000000000000000000000000000000000000000000000000000000000000000000000008000000000000000008000000000000000000000000000000000000000000000000000",
      "type": "0x2",
      "transactionHash": "0xf911a7dd17529135ce1e29485f7e00744fb4024f41b2eb0190e19d67eabb414a",
      "transactionIndex": "0x88",
      "blockHash": "0xcd7ab928936ebcbc9b54278075dcb1b4fa18b951e3b3112212eb6196c99f20ac",
      "blockNumber": "0x1573e21",
      "gasUsed": "0xce5f",
      "effectiveGasPrice": "0x87063652",
      "from": "0xb819a871d20913839c37f316dc914b0570bfc0ee",
      "to": "0x269c36a173d881720544fb303e681370158ff1fd",
      "contractAddress": null
    },
    {
      "status": "0x1",
      "cumulativeGasUsed": "0xc02809",
      "logs": [
        {
          "address": "0x269c36a173d881720544fb303e681370158ff1fd",
          "topics": [
            "0x4059c608a8f17b9b24a5a29662eb74934d39ea92ae22411868f07fcac29487a0",
            "0x00000000000000000000000075149feebb20e1fe5ddb89302a6d4bace70c14ce"
          ],
          "data": "0x0000000000000000000000000000000000000000000000000000000000000001",
          "blockHash": "0x8f615b3980c7d13be6e453e3c232790952415f5c0620468f9c19d6a1389ff7df",
          "blockNumber": "0x1573e22",
          "blockTimestamp": "0x68270597",
          "transactionHash": "0xe4905fb981a0804277330bc9c21f91e1be68c9de0cd30dfa980363eeba060bd3",
          "transactionIndex": "0x97",
          "logIndex": "0x149",
          "removed": false
        }
      ],
      "logsBloom": "0x00000000000000200000000000000000000000000000000000000000000000000000000000000008040000020000000000000010000000000000000000000000000000000000000000000000000000000000000000000000000000000000000000000000000000000000000000000000000000000000000000000000000000000000000000000000000000000000000000000000000000000000000000000000000000000040000000100000000010000000000000000000000000000000000000000000000000000000000000000000000000000000000000000000000000000000000000008000000000000000000000000000000000000000000000000000",
      "type": "0x2",
      "transactionHash": "0xe4905fb981a0804277330bc9c21f91e1be68c9de0cd30dfa980363eeba060bd3",
      "transactionIndex": "0x97",
      "blockHash": "0x8f615b3980c7d13be6e453e3c232790952415f5c0620468f9c19d6a1389ff7df",
      "blockNumber": "0x1573e22",
      "gasUsed": "0xce5f",
      "effectiveGasPrice": "0x82aecad9",
      "from": "0xb819a871d20913839c37f316dc914b0570bfc0ee",
      "to": "0x269c36a173d881720544fb303e681370158ff1fd",
      "contractAddress": null
    },
    {
      "status": "0x1",
      "cumulativeGasUsed": "0x15401cf",
      "logs": [
        {
          "address": "0x269c36a173d881720544fb303e681370158ff1fd",
          "topics": [
            "0x4059c608a8f17b9b24a5a29662eb74934d39ea92ae22411868f07fcac29487a0",
            "0x00000000000000000000000065b6d4770dadcfba6d363de86aa4d9c76283cea0"
          ],
          "data": "0x0000000000000000000000000000000000000000000000000000000000000001",
          "blockHash": "0x1318007148e7472566364a119415664a7b7201de82cb63e4bdd2352db3f526eb",
          "blockNumber": "0x1573e23",
          "blockTimestamp": "0x682705a3",
          "transactionHash": "0x78d67e6744d1532018cdb912d1ed47df7604ccf779ba4d0b5bd1a3479e7f9f33",
          "transactionIndex": "0x102",
          "logIndex": "0x219",
          "removed": false
        }
      ],
      "logsBloom": "0x00000000800000000000000000000000000000000000000000000000000000000000000000000008000002020000000000000010000000000000000000000000000000000000000000000000000000000000000000000000000000000000000000000000000000000000000000000000000000000000000000000000000000000000000000000000000000000000000000000000000000000000000000000000000000000040000000100000000000000000000000000000000000000000000000000000000000000000000000000000002000000000000000000000000000000000000000008000000000000000000000000000000000000000000000000000",
      "type": "0x2",
      "transactionHash": "0x78d67e6744d1532018cdb912d1ed47df7604ccf779ba4d0b5bd1a3479e7f9f33",
      "transactionIndex": "0x102",
      "blockHash": "0x1318007148e7472566364a119415664a7b7201de82cb63e4bdd2352db3f526eb",
      "blockNumber": "0x1573e23",
      "gasUsed": "0xce5f",
      "effectiveGasPrice": "0x7f949f66",
      "from": "0xb819a871d20913839c37f316dc914b0570bfc0ee",
      "to": "0x269c36a173d881720544fb303e681370158ff1fd",
      "contractAddress": null
    },
    {
      "status": "0x1",
      "cumulativeGasUsed": "0x14e53a3",
      "logs": [
        {
          "address": "0x269c36a173d881720544fb303e681370158ff1fd",
          "topics": [
            "0x4059c608a8f17b9b24a5a29662eb74934d39ea92ae22411868f07fcac29487a0",
            "0x000000000000000000000000a6a9fddc94bb4fe7520a2ea1cc2c433e18683342"
          ],
          "data": "0x0000000000000000000000000000000000000000000000000000000000000001",
          "blockHash": "0xed85fa4b02735ac0d407ca122d454e4705785e03f5eca2c8dac67731f66024bf",
          "blockNumber": "0x1573e24",
          "blockTimestamp": "0x682705af",
          "transactionHash": "0x2d6d6bd775faee1316d44b5bc9ce8050134d57ddcefba805ab939fccf31f3c6b",
          "transactionIndex": "0xa4",
          "logIndex": "0x2b9",
          "removed": false
        }
      ],
      "logsBloom": "0x00000000000040000000000000000000000000000000000000000000000000000000000000000008000000020000000000000010000000000000000000000000000000000000000000000000000000400000000000000000000000000000000000000000000000000000000000000000000000000000000000000000000000000000000000000000000000000000000000000000000000000000000000000000000000000040000002100000000000000000000000000000000000000000000000000000000000000000000000000000000000000000000000000000000000000000000000008000000000000000000000000000000000000000000000000000",
      "type": "0x2",
      "transactionHash": "0x2d6d6bd775faee1316d44b5bc9ce8050134d57ddcefba805ab939fccf31f3c6b",
      "transactionIndex": "0xa4",
      "blockHash": "0xed85fa4b02735ac0d407ca122d454e4705785e03f5eca2c8dac67731f66024bf",
      "blockNumber": "0x1573e24",
      "gasUsed": "0xce5f",
      "effectiveGasPrice": "0x84e48858",
      "from": "0xb819a871d20913839c37f316dc914b0570bfc0ee",
      "to": "0x269c36a173d881720544fb303e681370158ff1fd",
      "contractAddress": null
    },
    {
      "status": "0x1",
      "cumulativeGasUsed": "0xd072dc",
      "logs": [
        {
          "address": "0x269c36a173d881720544fb303e681370158ff1fd",
          "topics": [
            "0x4059c608a8f17b9b24a5a29662eb74934d39ea92ae22411868f07fcac29487a0",
            "0x00000000000000000000000018d04f05f80ade5373849385a1c24e1e0a6d1744"
          ],
          "data": "0x0000000000000000000000000000000000000000000000000000000000000001",
          "blockHash": "0x61e68d92930f5af9ce39614246bc4790df195b9e6c88d01e0ebe0235f40d9b37",
          "blockNumber": "0x1573e25",
          "blockTimestamp": "0x682705bb",
          "transactionHash": "0x8a271eacc606ae31cd46fbd7a34472caa573b6bf02b598499261fbe300423f74",
          "transactionIndex": "0xa2",
          "logIndex": "0x177",
          "removed": false
        }
      ],
      "logsBloom": "0x00000000000000000000000000000000000000000000000000000000000000000000000000000008000000020000000000000010000000000000000000000000000000000000000000000000000100000000000000000000000000000000000000000000000000000000000000000000000000000000000000000000000000000000000000000000000000000000000000000000000000000000000000000000000000000040000000100000000000000000000000000000000000000000000000000000000100000000000000000000000000000000000000000000000000000000000000008000000000000004000000000000000000000000000000000000",
      "type": "0x2",
      "transactionHash": "0x8a271eacc606ae31cd46fbd7a34472caa573b6bf02b598499261fbe300423f74",
      "transactionIndex": "0xa2",
      "blockHash": "0x61e68d92930f5af9ce39614246bc4790df195b9e6c88d01e0ebe0235f40d9b37",
      "blockNumber": "0x1573e25",
      "gasUsed": "0xce5f",
      "effectiveGasPrice": "0x8c9ddac8",
      "from": "0xb819a871d20913839c37f316dc914b0570bfc0ee",
      "to": "0x269c36a173d881720544fb303e681370158ff1fd",
      "contractAddress": null
    },
    {
      "status": "0x1",
      "cumulativeGasUsed": "0xde08c6",
      "logs": [
        {
          "address": "0x269c36a173d881720544fb303e681370158ff1fd",
          "topics": [
            "0x4059c608a8f17b9b24a5a29662eb74934d39ea92ae22411868f07fcac29487a0",
            "0x000000000000000000000000bd9c90d6774cb5320b54bb7998b6bcc5e4a9071f"
          ],
          "data": "0x0000000000000000000000000000000000000000000000000000000000000001",
          "blockHash": "0xbdc6f2b51c559a8b1ef90c2e0392fd534652cf70a998ea9b4db15a48da715335",
          "blockNumber": "0x1573e26",
          "blockTimestamp": "0x682705c7",
          "transactionHash": "0x5b6a28807694c69ff82a80b848f59805bd8b04304d9be4e84d3af31eb12280e1",
          "transactionIndex": "0xa5",
          "logIndex": "0x19b",
          "removed": false
        }
      ],
      "logsBloom": "0x00000000000000000000000000000000000000000000000000000000000000000000000000002008000000020000000000000010000040000000000000000000000000000000000000000000000000000000000000000000000000000000000000000000000000000000000000000000000000000000000000000000000000000000000000000000000000000000000000000000000000000000000000000000000000000040000000100000000000000000000000800000000000000000000000000000000000000000000000000000000000000000000000000000000000000000000000008000000000000000000000000000000000000000000000000000",
      "type": "0x2",
      "transactionHash": "0x5b6a28807694c69ff82a80b848f59805bd8b04304d9be4e84d3af31eb12280e1",
      "transactionIndex": "0xa5",
      "blockHash": "0xbdc6f2b51c559a8b1ef90c2e0392fd534652cf70a998ea9b4db15a48da715335",
      "blockNumber": "0x1573e26",
      "gasUsed": "0xce5f",
      "effectiveGasPrice": "0x8990a19e",
      "from": "0xb819a871d20913839c37f316dc914b0570bfc0ee",
      "to": "0x269c36a173d881720544fb303e681370158ff1fd",
      "contractAddress": null
    },
    {
      "status": "0x1",
      "cumulativeGasUsed": "0xe01a69",
      "logs": [
        {
          "address": "0x269c36a173d881720544fb303e681370158ff1fd",
          "topics": [
            "0x4059c608a8f17b9b24a5a29662eb74934d39ea92ae22411868f07fcac29487a0",
            "0x0000000000000000000000008f2eaba31b1b613ca78f2795ba05400f0583c5a4"
          ],
          "data": "0x0000000000000000000000000000000000000000000000000000000000000001",
          "blockHash": "0x7bb79f0fc61ac156e71d19dcca37ba1c9b2302ec6784ea40e824c641b0f25252",
          "blockNumber": "0x1573e28",
          "blockTimestamp": "0x682705df",
          "transactionHash": "0xc6803145583c02e17ca811f2d65b895839add0f5baa4e1b5356741257d4aaec6",
          "transactionIndex": "0xd4",
          "logIndex": "0x146",
          "removed": false
        }
      ],
      "logsBloom": "0x00000000000000000000000000000000000000000000000000000000000000000000000000000008000000020000000000000010000000000000000000000000000000000000000000000000000000000000000000000000000000000000000000000000000000000000001000000000000000000000000000000000000000000000000000000000000000000000000000000000000000000000000000000000000000000040000000100000000000000000000000000000000000000000000000004000000000000000000000002000000000000000000000000000000000000000000000008000000000000000000000000000000000000000000000000000",
      "type": "0x2",
      "transactionHash": "0xc6803145583c02e17ca811f2d65b895839add0f5baa4e1b5356741257d4aaec6",
      "transactionIndex": "0xd4",
      "blockHash": "0x7bb79f0fc61ac156e71d19dcca37ba1c9b2302ec6784ea40e824c641b0f25252",
      "blockNumber": "0x1573e28",
      "gasUsed": "0xce5f",
      "effectiveGasPrice": "0x7b962f0a",
      "from": "0xb819a871d20913839c37f316dc914b0570bfc0ee",
      "to": "0x269c36a173d881720544fb303e681370158ff1fd",
      "contractAddress": null
    },
    {
      "status": "0x1",
      "cumulativeGasUsed": "0x14a5a1e",
      "logs": [
        {
          "address": "0x269c36a173d881720544fb303e681370158ff1fd",
          "topics": [
            "0x4059c608a8f17b9b24a5a29662eb74934d39ea92ae22411868f07fcac29487a0",
            "0x0000000000000000000000008f2eaba31b1b613ca78f2795ba05400f0583c5a4"
          ],
          "data": "0x0000000000000000000000000000000000000000000000000000000000000001",
          "blockHash": "0x3aa9f95340b2c9b6d53b69c1e806dd8280f9dd867b12eab9c142348e784f7ce6",
          "blockNumber": "0x1573e2a",
          "blockTimestamp": "0x682705f7",
          "transactionHash": "0xb9debecd631fe2a0fb1df6fadb4e0f0a3c66b583bc25857370c18d22551670fa",
          "transactionIndex": "0x118",
          "logIndex": "0x209",
          "removed": false
        }
      ],
      "logsBloom": "0x00000000000000000000000000000000000000000000000000000000000000000000000000000008000000020000000000000010000000000000000000000000000000000000000000000000000000000000000000000000000000000000000000000000000000000000001000000000000000000000000000000000000000000000000000000000000000000000000000000000000000000000000000000000000000000040000000100000000000000000000000000000000000000000000000004000000000000000000000002000000000000000000000000000000000000000000000008000000000000000000000000000000000000000000000000000",
      "type": "0x2",
      "transactionHash": "0xb9debecd631fe2a0fb1df6fadb4e0f0a3c66b583bc25857370c18d22551670fa",
      "transactionIndex": "0x118",
      "blockHash": "0x3aa9f95340b2c9b6d53b69c1e806dd8280f9dd867b12eab9c142348e784f7ce6",
      "blockNumber": "0x1573e2a",
      "gasUsed": "0x80a3",
      "effectiveGasPrice": "0x78c36043",
      "from": "0xb819a871d20913839c37f316dc914b0570bfc0ee",
      "to": "0x269c36a173d881720544fb303e681370158ff1fd",
      "contractAddress": null
    },
    {
      "status": "0x1",
      "cumulativeGasUsed": "0xde478e",
      "logs": [
        {
          "address": "0x269c36a173d881720544fb303e681370158ff1fd",
          "topics": [
            "0x4059c608a8f17b9b24a5a29662eb74934d39ea92ae22411868f07fcac29487a0",
            "0x00000000000000000000000050d8deadd2b3140b151cab2c4fb76f1f59b236f8"
          ],
          "data": "0x0000000000000000000000000000000000000000000000000000000000000001",
          "blockHash": "0x5403d7410cb6f6ca69cc9a58b51801895765b246c1ea2de77687b8c20dc7206e",
          "blockNumber": "0x1573e2b",
          "blockTimestamp": "0x68270603",
          "transactionHash": "0xeeee992ee2a60ff4bd462f658f005646915b9036e68695797f99e4477982d209",
          "transactionIndex": "0x91",
          "logIndex": "0x1b0",
          "removed": false
        }
      ],
      "logsBloom": "0x00000000000000000000000000000000000000000000200000000000000000000000000000000008000000020000000000000010000000000000000000000000000000000000000000000000000000000000000000000000000000000000000000000000000000000000000000000000000000000000000000000000020000000000000000000000000000000000000000000000000000000000000000000000000000000040000000100000000000000000000000000000000000000000000000000000000000000000000000000000000000000000000000000000000000000000000000808000000000000000000000000000000000000000000000000000",
      "type": "0x2",
      "transactionHash": "0xeeee992ee2a60ff4bd462f658f005646915b9036e68695797f99e4477982d209",
      "transactionIndex": "0x91",
      "blockHash": "0x5403d7410cb6f6ca69cc9a58b51801895765b246c1ea2de77687b8c20dc7206e",
      "blockNumber": "0x1573e2b",
      "gasUsed": "0x80a3",
      "effectiveGasPrice": "0x7dcf4f28",
      "from": "0xb819a871d20913839c37f316dc914b0570bfc0ee",
      "to": "0x269c36a173d881720544fb303e681370158ff1fd",
      "contractAddress": null
    },
    {
      "status": "0x1",
      "cumulativeGasUsed": "0x110f9b5",
      "logs": [
        {
          "address": "0x269c36a173d881720544fb303e681370158ff1fd",
          "topics": [
            "0x4059c608a8f17b9b24a5a29662eb74934d39ea92ae22411868f07fcac29487a0",
            "0x000000000000000000000000574582c44e3f1ef2cb29a7131b057febbcc8244e"
          ],
          "data": "0x0000000000000000000000000000000000000000000000000000000000000001",
          "blockHash": "0x2de81575238258fd76740ba75f2a0f302a79aec33a47beec83de9f5aa05c4fc2",
          "blockNumber": "0x1573e2c",
          "blockTimestamp": "0x6827060f",
          "transactionHash": "0xaa532fab58ef16ac219caa35167f27f6a53980304bdaf6f865bb01164573f639",
          "transactionIndex": "0xca",
          "logIndex": "0x21b",
          "removed": false
        }
      ],
      "logsBloom": "0x00000000000000000000000000000000000000000000000000000000000000000000000000000008000000020000000000000010000000000000000000000000000000000000200000000000000000000000000000000000000000000000000000000000000000000000000000000000000000000000000000000000000000000000000000000000000000100000000000000000000000000000000000000000004000000040000000100000000000000000000000000000000000000000000000000000000000000000000000000000000000000000000000000000000000000000000000008000000000000000000000000000000000000000000000000000",
      "type": "0x2",
      "transactionHash": "0xaa532fab58ef16ac219caa35167f27f6a53980304bdaf6f865bb01164573f639",
      "transactionIndex": "0xca",
      "blockHash": "0x2de81575238258fd76740ba75f2a0f302a79aec33a47beec83de9f5aa05c4fc2",
      "blockNumber": "0x1573e2c",
      "gasUsed": "0x80a3",
      "effectiveGasPrice": "0x7d2cfd41",
      "from": "0xb819a871d20913839c37f316dc914b0570bfc0ee",
      "to": "0x269c36a173d881720544fb303e681370158ff1fd",
      "contractAddress": null
    },
    {
      "status": "0x1",
      "cumulativeGasUsed": "0xb13b02",
      "logs": [
        {
          "address": "0x269c36a173d881720544fb303e681370158ff1fd",
          "topics": [
            "0x4059c608a8f17b9b24a5a29662eb74934d39ea92ae22411868f07fcac29487a0",
            "0x000000000000000000000000bd0ce952ba069a1e15f3bf3916d4b07bbbdbc8b3"
          ],
          "data": "0x0000000000000000000000000000000000000000000000000000000000000001",
          "blockHash": "0x91c199c0271daf8824e5cef031b7efcc1190e28815b9d06632a06b0b81890543",
          "blockNumber": "0x1573e2d",
          "blockTimestamp": "0x6827061b",
          "transactionHash": "0x20c08bbaf0ad53da648d6e2d9473947caa19972881a5f3e7ec8a901a535a6882",
          "transactionIndex": "0x8f",
          "logIndex": "0x147",
          "removed": false
        }
      ],
      "logsBloom": "0x00000000000000000000000000000000000000000000000000000000000000000000000000000008000000020000000000000010000000000000000000000000000000000002000000000000000000000000000000000000000000000000000000000000000000000000000000000000000000000000000000000000000000000000000000000000000000000000000000000000000000000000000000000000000000000040000000100000000000000000000000000000000000000000000000000000008000000000010000000000000000000000000000000000000000000000000000008000000000000000000000000000000000000000000000000000",
      "type": "0x2",
      "transactionHash": "0x20c08bbaf0ad53da648d6e2d9473947caa19972881a5f3e7ec8a901a535a6882",
      "transactionIndex": "0x8f",
      "blockHash": "0x91c199c0271daf8824e5cef031b7efcc1190e28815b9d06632a06b0b81890543",
      "blockNumber": "0x1573e2d",
      "gasUsed": "0xce5f",
      "effectiveGasPrice": "0x7ea137cc",
      "from": "0xb819a871d20913839c37f316dc914b0570bfc0ee",
      "to": "0x269c36a173d881720544fb303e681370158ff1fd",
      "contractAddress": null
    }
  ],
  "libraries": [],
  "pending": [],
  "returns": {},
  "timestamp": 1747387935,
  "chain": 1,
  "commit": "c569661"
}