{
  "transactions": [
    {
      "hash": "0x747787aa68c577ad66691b774867423d44ffda8d94f02285b322080f4fe0c460",
      "transactionType": "CALL",
      "contractName": null,
      "contractAddress": "0xcb4d153604a6f21ff7625e5044e89c3b903599bc",
      "function": "setWhitelistedUser(address,bool)",
      "arguments": [
        "0xf20a8950c368Ec48323092D6e4acF90aADf2BdC6",
        "true"
      ],
      "transaction": {
        "from": "0xb819a871d20913839c37f316dc914b0570bfc0ee",
        "to": "0xcb4d153604a6f21ff7625e5044e89c3b903599bc",
        "gas": "0x11d0b",
        "value": "0x0",
        "input": "0x44710fbe000000000000000000000000f20a8950c368ec48323092d6e4acf90aadf2bdc60000000000000000000000000000000000000000000000000000000000000001",
        "nonce": "0xe8",
        "chainId": "0x1"
      },
      "additionalContracts": [],
      "isFixedGasLimit": false
    },
    {
      "hash": "0x15b9091f26feb69dde74bcbb05a4597c88e5b68a6b2bcd0b59606848d95fc645",
      "transactionType": "CALL",
      "contractName": null,
      "contractAddress": "0xcb4d153604a6f21ff7625e5044e89c3b903599bc",
      "function": "setWhitelistedUser(address,bool)",
      "arguments": [
        "0x8E72a24221517E51502f20f387415a06b27A5b51",
        "true"
      ],
      "transaction": {
        "from": "0xb819a871d20913839c37f316dc914b0570bfc0ee",
        "to": "0xcb4d153604a6f21ff7625e5044e89c3b903599bc",
        "gas": "0x11d0b",
        "value": "0x0",
        "input": "0x44710fbe0000000000000000000000008e72a24221517e51502f20f387415a06b27a5b510000000000000000000000000000000000000000000000000000000000000001",
        "nonce": "0xe9",
        "chainId": "0x1"
      },
      "additionalContracts": [],
      "isFixedGasLimit": false
    },
    {
      "hash": "0x0c41d83f934bedc431686b4ae423b5f6d256743381ccb2217798a1dfca2817dd",
      "transactionType": "CALL",
      "contractName": null,
      "contractAddress": "0xcb4d153604a6f21ff7625e5044e89c3b903599bc",
      "function": "setWhitelistedUser(address,bool)",
      "arguments": [
        "0x50d8Deadd2b3140B151CaB2C4FB76F1f59b236F8",
        "true"
      ],
      "transaction": {
        "from": "0xb819a871d20913839c37f316dc914b0570bfc0ee",
        "to": "0xcb4d153604a6f21ff7625e5044e89c3b903599bc",
        "gas": "0x11d0b",
        "value": "0x0",
        "input": "0x44710fbe00000000000000000000000050d8deadd2b3140b151cab2c4fb76f1f59b236f80000000000000000000000000000000000000000000000000000000000000001",
        "nonce": "0xea",
        "chainId": "0x1"
      },
      "additionalContracts": [],
      "isFixedGasLimit": false
    },
    {
      "hash": "0xeb98ecdb67ca78812558976e416b505ce7dcde1d927cc38443f2d5f5ca9769eb",
      "transactionType": "CALL",
      "contractName": null,
      "contractAddress": "0xcb4d153604a6f21ff7625e5044e89c3b903599bc",
      "function": "setWhitelistedUser(address,bool)",
      "arguments": [
        "0x574582C44e3f1EF2cB29a7131B057FebBCC8244E",
        "true"
      ],
      "transaction": {
        "from": "0xb819a871d20913839c37f316dc914b0570bfc0ee",
        "to": "0xcb4d153604a6f21ff7625e5044e89c3b903599bc",
        "gas": "0x11d0b",
        "value": "0x0",
        "input": "0x44710fbe000000000000000000000000574582c44e3f1ef2cb29a7131b057febbcc8244e0000000000000000000000000000000000000000000000000000000000000001",
        "nonce": "0xeb",
        "chainId": "0x1"
      },
      "additionalContracts": [],
      "isFixedGasLimit": false
    },
    {
      "hash": "0xdf4bdcbbb990ffe33739879ff432c8a8a7c438916c81afefa8c3c5663c535df3",
      "transactionType": "CALL",
      "contractName": null,
      "contractAddress": "0xcb4d153604a6f21ff7625e5044e89c3b903599bc",
      "function": "setWhitelistedUser(address,bool)",
      "arguments": [
        "0x281567fe62b587EC1755f6F33b80160F544Dc5d0",
        "true"
      ],
      "transaction": {
        "from": "0xb819a871d20913839c37f316dc914b0570bfc0ee",
        "to": "0xcb4d153604a6f21ff7625e5044e89c3b903599bc",
        "gas": "0x11d0b",
        "value": "0x0",
        "input": "0x44710fbe000000000000000000000000281567fe62b587ec1755f6f33b80160f544dc5d00000000000000000000000000000000000000000000000000000000000000001",
        "nonce": "0xec",
        "chainId": "0x1"
      },
      "additionalContracts": [],
      "isFixedGasLimit": false
    },
    {
      "hash": "0xcc1a9c69710b0313ca9041335360bad0b7fefbafc1b4d6f040d556fc02dc9b27",
      "transactionType": "CALL",
      "contractName": null,
      "contractAddress": "0xcb4d153604a6f21ff7625e5044e89c3b903599bc",
      "function": "setWhitelistedUser(address,bool)",
      "arguments": [
        "0x2705f6A8F01bd4A805D9FC73151DBe37BB8d1edE",
        "true"
      ],
      "transaction": {
        "from": "0xb819a871d20913839c37f316dc914b0570bfc0ee",
        "to": "0xcb4d153604a6f21ff7625e5044e89c3b903599bc",
        "gas": "0x11d0b",
        "value": "0x0",
        "input": "0x44710fbe0000000000000000000000002705f6a8f01bd4a805d9fc73151dbe37bb8d1ede0000000000000000000000000000000000000000000000000000000000000001",
        "nonce": "0xed",
        "chainId": "0x1"
      },
      "additionalContracts": [],
      "isFixedGasLimit": false
    },
    {
      "hash": "0x0de01b4886f6f29226e7b82a653cc1bb9ac7f8c7212d2b75f7776fedef1c9210",
      "transactionType": "CALL",
      "contractName": null,
      "contractAddress": "0xcb4d153604a6f21ff7625e5044e89c3b903599bc",
      "function": "setWhitelistedUser(address,bool)",
      "arguments": [
        "0xc9C9693b6A445D05Add0043662fad9Ac600Ad088",
        "true"
      ],
      "transaction": {
        "from": "0xb819a871d20913839c37f316dc914b0570bfc0ee",
        "to": "0xcb4d153604a6f21ff7625e5044e89c3b903599bc",
        "gas": "0x11d0b",
        "value": "0x0",
        "input": "0x44710fbe000000000000000000000000c9c9693b6a445d05add0043662fad9ac600ad0880000000000000000000000000000000000000000000000000000000000000001",
        "nonce": "0xee",
        "chainId": "0x1"
      },
      "additionalContracts": [],
      "isFixedGasLimit": false
    },
    {
      "hash": "0x80d89d4beaf7e71f0b2ad13eb25e8bc82c0aa59d955843c594f8d96cb97d1815",
      "transactionType": "CALL",
      "contractName": null,
      "contractAddress": "0xcb4d153604a6f21ff7625e5044e89c3b903599bc",
      "function": "setWhitelistedUser(address,bool)",
      "arguments": [
        "0x7EfE40B2E6dA8b28AaB6Bd2D622B9Cd7f5fE077c",
        "true"
      ],
      "transaction": {
        "from": "0xb819a871d20913839c37f316dc914b0570bfc0ee",
        "to": "0xcb4d153604a6f21ff7625e5044e89c3b903599bc",
        "gas": "0x11d0b",
        "value": "0x0",
        "input": "0x44710fbe0000000000000000000000007efe40b2e6da8b28aab6bd2d622b9cd7f5fe077c0000000000000000000000000000000000000000000000000000000000000001",
        "nonce": "0xef",
        "chainId": "0x1"
      },
      "additionalContracts": [],
      "isFixedGasLimit": false
    },
    {
      "hash": "0x869d951c5dcabf670c36b6790beff0007e9c5e41f4dfed0029ecd641e47ea69b",
      "transactionType": "CALL",
      "contractName": null,
      "contractAddress": "0xcb4d153604a6f21ff7625e5044e89c3b903599bc",
      "function": "setWhitelistedUser(address,bool)",
      "arguments": [
        "0xa22DCB8F0A2848289124086F35ae9dB2a0006962",
        "true"
      ],
      "transaction": {
        "from": "0xb819a871d20913839c37f316dc914b0570bfc0ee",
        "to": "0xcb4d153604a6f21ff7625e5044e89c3b903599bc",
        "gas": "0x12dbf",
        "value": "0x0",
        "input": "0x44710fbe000000000000000000000000a22dcb8f0a2848289124086f35ae9db2a00069620000000000000000000000000000000000000000000000000000000000000001",
        "nonce": "0xf0",
        "chainId": "0x1"
      },
      "additionalContracts": [],
      "isFixedGasLimit": false
    },
    {
      "hash": "0xe3ff41d267655abfef66eabc1a586af346f723c7e4d1f6dce588f646c7b22b7b",
      "transactionType": "CALL",
      "contractName": null,
      "contractAddress": "0xcb4d153604a6f21ff7625e5044e89c3b903599bc",
      "function": "setWhitelistedUser(address,bool)",
      "arguments": [
        "0xB819A871d20913839c37f316Dc914b0570bfc0eE",
        "true"
      ],
      "transaction": {
        "from": "0xb819a871d20913839c37f316dc914b0570bfc0ee",
        "to": "0xcb4d153604a6f21ff7625e5044e89c3b903599bc",
        "gas": "0x11d0b",
        "value": "0x0",
        "input": "0x44710fbe000000000000000000000000b819a871d20913839c37f316dc914b0570bfc0ee0000000000000000000000000000000000000000000000000000000000000001",
        "nonce": "0xf1",
        "chainId": "0x1"
      },
      "additionalContracts": [],
      "isFixedGasLimit": false
    },
    {
      "hash": "0x6a567751443cbc1946dde87e7324687a21a0d4d268fc7349a3a8b6f0665dcc79",
      "transactionType": "CALL",
      "contractName": null,
      "contractAddress": "0xcb4d153604a6f21ff7625e5044e89c3b903599bc",
      "function": "setWhitelistedUser(address,bool)",
      "arguments": [
        "0x40282d3Cf4890D9806BC1853e97a59C93D813653",
        "true"
      ],
      "transaction": {
        "from": "0xb819a871d20913839c37f316dc914b0570bfc0ee",
        "to": "0xcb4d153604a6f21ff7625e5044e89c3b903599bc",
        "gas": "0x11d0b",
        "value": "0x0",
        "input": "0x44710fbe00000000000000000000000040282d3cf4890d9806bc1853e97a59c93d8136530000000000000000000000000000000000000000000000000000000000000001",
        "nonce": "0xf2",
        "chainId": "0x1"
      },
      "additionalContracts": [],
      "isFixedGasLimit": false
    },
    {
      "hash": "0xc64713499502ee95710b9b76b2ffed3c5a3d18913f262bf67814dbb6485b70b4",
      "transactionType": "CALL",
      "contractName": null,
      "contractAddress": "0xcb4d153604a6f21ff7625e5044e89c3b903599bc",
      "function": "setWhitelistedUser(address,bool)",
      "arguments": [
        "0xB5b901F1BB86421301138b5c45C1D3Fe96663161",
        "true"
      ],
      "transaction": {
        "from": "0xb819a871d20913839c37f316dc914b0570bfc0ee",
        "to": "0xcb4d153604a6f21ff7625e5044e89c3b903599bc",
        "gas": "0x11d0b",
        "value": "0x0",
        "input": "0x44710fbe000000000000000000000000b5b901f1bb86421301138b5c45c1d3fe966631610000000000000000000000000000000000000000000000000000000000000001",
        "nonce": "0xf3",
        "chainId": "0x1"
      },
      "additionalContracts": [],
      "isFixedGasLimit": false
    },
    {
      "hash": "0x8ff3851ea8374900a7383c0057a9d86fdc089c710de78bff6f102aad161d869c",
      "transactionType": "CALL",
      "contractName": null,
      "contractAddress": "0xcb4d153604a6f21ff7625e5044e89c3b903599bc",
      "function": "setWhitelistedUser(address,bool)",
      "arguments": [
        "0xBAec8904499dcdee770c60df15b0C37EAC84Fb62",
        "true"
      ],
      "transaction": {
        "from": "0xb819a871d20913839c37f316dc914b0570bfc0ee",
        "to": "0xcb4d153604a6f21ff7625e5044e89c3b903599bc",
        "gas": "0x11d0b",
        "value": "0x0",
        "input": "0x44710fbe000000000000000000000000baec8904499dcdee770c60df15b0c37eac84fb620000000000000000000000000000000000000000000000000000000000000001",
        "nonce": "0xf4",
        "chainId": "0x1"
      },
      "additionalContracts": [],
      "isFixedGasLimit": false
    },
    {
      "hash": "0xb555c61be81d1c537d760c0290d75bfd18068939d1dbad7cf8d4ceda4b2165d7",
      "transactionType": "CALL",
      "contractName": null,
      "contractAddress": "0xcb4d153604a6f21ff7625e5044e89c3b903599bc",
      "function": "setWhitelistedUser(address,bool)",
      "arguments": [
        "0xfC4A23271b60887FC246B060B6931a08E2BC434c",
        "true"
      ],
      "transaction": {
        "from": "0xb819a871d20913839c37f316dc914b0570bfc0ee",
        "to": "0xcb4d153604a6f21ff7625e5044e89c3b903599bc",
        "gas": "0x11d0b",
        "value": "0x0",
        "input": "0x44710fbe000000000000000000000000fc4a23271b60887fc246b060b6931a08e2bc434c0000000000000000000000000000000000000000000000000000000000000001",
        "nonce": "0xf5",
        "chainId": "0x1"
      },
      "additionalContracts": [],
      "isFixedGasLimit": false
    },
    {
      "hash": "0x43f922373687b786ed5349b6606788b8bc49ccff22b8498225c60fa8332fa3d7",
      "transactionType": "CALL",
      "contractName": null,
      "contractAddress": "0xcb4d153604a6f21ff7625e5044e89c3b903599bc",
      "function": "setWhitelistedUser(address,bool)",
      "arguments": [
        "0x65b142550aE82f4BB3792E1eEfb2FC35541A3837",
        "true"
      ],
      "transaction": {
        "from": "0xb819a871d20913839c37f316dc914b0570bfc0ee",
        "to": "0xcb4d153604a6f21ff7625e5044e89c3b903599bc",
        "gas": "0x11d0b",
        "value": "0x0",
        "input": "0x44710fbe00000000000000000000000065b142550ae82f4bb3792e1eefb2fc35541a38370000000000000000000000000000000000000000000000000000000000000001",
        "nonce": "0xf6",
        "chainId": "0x1"
      },
      "additionalContracts": [],
      "isFixedGasLimit": false
    },
    {
      "hash": "0x48b794db07e0829d1d6e01e2f312b8c4ee65f3f92219d7291f362b40827ea423",
      "transactionType": "CALL",
      "contractName": null,
      "contractAddress": "0xcb4d153604a6f21ff7625e5044e89c3b903599bc",
      "function": "setWhitelistedUser(address,bool)",
      "arguments": [
        "0x75149feEBb20E1fE5Ddb89302a6d4bACE70c14Ce",
        "true"
      ],
      "transaction": {
        "from": "0xb819a871d20913839c37f316dc914b0570bfc0ee",
        "to": "0xcb4d153604a6f21ff7625e5044e89c3b903599bc",
        "gas": "0x11d0b",
        "value": "0x0",
        "input": "0x44710fbe00000000000000000000000075149feebb20e1fe5ddb89302a6d4bace70c14ce0000000000000000000000000000000000000000000000000000000000000001",
        "nonce": "0xf7",
        "chainId": "0x1"
      },
      "additionalContracts": [],
      "isFixedGasLimit": false
    },
    {
      "hash": "0x3d3716605f8abc066da3b2f334bd6866d3d5b678348f0187ae1c3311b9712787",
      "transactionType": "CALL",
      "contractName": null,
      "contractAddress": "0xcb4d153604a6f21ff7625e5044e89c3b903599bc",
      "function": "setWhitelistedUser(address,bool)",
      "arguments": [
        "0x65B6D4770DAdcFba6d363dE86aA4D9c76283cea0",
        "true"
      ],
      "transaction": {
        "from": "0xb819a871d20913839c37f316dc914b0570bfc0ee",
        "to": "0xcb4d153604a6f21ff7625e5044e89c3b903599bc",
        "gas": "0x11d0b",
        "value": "0x0",
        "input": "0x44710fbe00000000000000000000000065b6d4770dadcfba6d363de86aa4d9c76283cea00000000000000000000000000000000000000000000000000000000000000001",
        "nonce": "0xf8",
        "chainId": "0x1"
      },
      "additionalContracts": [],
      "isFixedGasLimit": false
    },
    {
      "hash": "0x75df6f66cb5f73f272106bed8aa5eed633bfaac666527924936452605e024c0a",
      "transactionType": "CALL",
      "contractName": null,
      "contractAddress": "0xcb4d153604a6f21ff7625e5044e89c3b903599bc",
      "function": "setWhitelistedUser(address,bool)",
      "arguments": [
        "0xa6A9fdDC94BB4FE7520A2eA1CC2c433e18683342",
        "true"
      ],
      "transaction": {
        "from": "0xb819a871d20913839c37f316dc914b0570bfc0ee",
        "to": "0xcb4d153604a6f21ff7625e5044e89c3b903599bc",
        "gas": "0x11d0b",
        "value": "0x0",
        "input": "0x44710fbe000000000000000000000000a6a9fddc94bb4fe7520a2ea1cc2c433e186833420000000000000000000000000000000000000000000000000000000000000001",
        "nonce": "0xf9",
        "chainId": "0x1"
      },
      "additionalContracts": [],
      "isFixedGasLimit": false
    },
    {
      "hash": "0x42d627be57389c7711b88007096196f19609f025307325d701cca9298933c428",
      "transactionType": "CALL",
      "contractName": null,
      "contractAddress": "0xcb4d153604a6f21ff7625e5044e89c3b903599bc",
      "function": "setWhitelistedUser(address,bool)",
      "arguments": [
        "0x18D04F05f80ADE5373849385a1c24E1E0a6d1744",
        "true"
      ],
      "transaction": {
        "from": "0xb819a871d20913839c37f316dc914b0570bfc0ee",
        "to": "0xcb4d153604a6f21ff7625e5044e89c3b903599bc",
        "gas": "0x11d0b",
        "value": "0x0",
        "input": "0x44710fbe00000000000000000000000018d04f05f80ade5373849385a1c24e1e0a6d17440000000000000000000000000000000000000000000000000000000000000001",
        "nonce": "0xfa",
        "chainId": "0x1"
      },
      "additionalContracts": [],
      "isFixedGasLimit": false
    },
    {
      "hash": "0xc0ff999d4254c4a1551e7d939e1652d86faeb322f05a9c920014987f75698f43",
      "transactionType": "CALL",
      "contractName": null,
      "contractAddress": "0xcb4d153604a6f21ff7625e5044e89c3b903599bc",
      "function": "setWhitelistedUser(address,bool)",
      "arguments": [
        "0xBD9C90D6774CB5320B54Bb7998b6Bcc5e4A9071f",
        "true"
      ],
      "transaction": {
        "from": "0xb819a871d20913839c37f316dc914b0570bfc0ee",
        "to": "0xcb4d153604a6f21ff7625e5044e89c3b903599bc",
        "gas": "0x11d0b",
        "value": "0x0",
        "input": "0x44710fbe000000000000000000000000bd9c90d6774cb5320b54bb7998b6bcc5e4a9071f0000000000000000000000000000000000000000000000000000000000000001",
        "nonce": "0xfb",
        "chainId": "0x1"
      },
      "additionalContracts": [],
      "isFixedGasLimit": false
    },
    {
      "hash": "0xcbfd9084908bf5248897707997a17f9da1ffe5eccab6e848dc1a0f7febdf0d50",
      "transactionType": "CALL",
      "contractName": null,
      "contractAddress": "0xcb4d153604a6f21ff7625e5044e89c3b903599bc",
      "function": "setWhitelistedUser(address,bool)",
      "arguments": [
        "0x8f2eABa31B1b613ca78F2795bA05400F0583c5A4",
        "true"
      ],
      "transaction": {
        "from": "0xb819a871d20913839c37f316dc914b0570bfc0ee",
        "to": "0xcb4d153604a6f21ff7625e5044e89c3b903599bc",
        "gas": "0x11d0b",
        "value": "0x0",
        "input": "0x44710fbe0000000000000000000000008f2eaba31b1b613ca78f2795ba05400f0583c5a40000000000000000000000000000000000000000000000000000000000000001",
        "nonce": "0xfc",
        "chainId": "0x1"
      },
      "additionalContracts": [],
      "isFixedGasLimit": false
    },
    {
      "hash": "0x4b4695ff975ee40ac685d5ccc4203749d05e34d6e8ab680c4d737b31d4fc2150",
      "transactionType": "CALL",
      "contractName": null,
      "contractAddress": "0xcb4d153604a6f21ff7625e5044e89c3b903599bc",
      "function": "setWhitelistedUser(address,bool)",
      "arguments": [
        "0x8f2eABa31B1b613ca78F2795bA05400F0583c5A4",
        "true"
      ],
      "transaction": {
        "from": "0xb819a871d20913839c37f316dc914b0570bfc0ee",
        "to": "0xcb4d153604a6f21ff7625e5044e89c3b903599bc",
        "gas": "0xbc21",
        "value": "0x0",
        "input": "0x44710fbe0000000000000000000000008f2eaba31b1b613ca78f2795ba05400f0583c5a40000000000000000000000000000000000000000000000000000000000000001",
        "nonce": "0xfd",
        "chainId": "0x1"
      },
      "additionalContracts": [],
      "isFixedGasLimit": false
    },
    {
      "hash": "0x74f9203cd2293eac23c5a0ec341bb3178b9d17a5874fc56455b033604631d7b6",
      "transactionType": "CALL",
      "contractName": null,
      "contractAddress": "0xcb4d153604a6f21ff7625e5044e89c3b903599bc",
      "function": "setWhitelistedUser(address,bool)",
      "arguments": [
        "0x50d8Deadd2b3140B151CaB2C4FB76F1f59b236F8",
        "true"
      ],
      "transaction": {
        "from": "0xb819a871d20913839c37f316dc914b0570bfc0ee",
        "to": "0xcb4d153604a6f21ff7625e5044e89c3b903599bc",
        "gas": "0xbc21",
        "value": "0x0",
        "input": "0x44710fbe00000000000000000000000050d8deadd2b3140b151cab2c4fb76f1f59b236f80000000000000000000000000000000000000000000000000000000000000001",
        "nonce": "0xfe",
        "chainId": "0x1"
      },
      "additionalContracts": [],
      "isFixedGasLimit": false
    },
    {
      "hash": "0x48ebf2446a348b64c8708121c5cc5f1d3acef5c70670f3042eb6608fe788c6ce",
      "transactionType": "CALL",
      "contractName": null,
      "contractAddress": "0xcb4d153604a6f21ff7625e5044e89c3b903599bc",
      "function": "setWhitelistedUser(address,bool)",
      "arguments": [
        "0x574582C44e3f1EF2cB29a7131B057FebBCC8244E",
        "true"
      ],
      "transaction": {
        "from": "0xb819a871d20913839c37f316dc914b0570bfc0ee",
        "to": "0xcb4d153604a6f21ff7625e5044e89c3b903599bc",
        "gas": "0xbc21",
        "value": "0x0",
        "input": "0x44710fbe000000000000000000000000574582c44e3f1ef2cb29a7131b057febbcc8244e0000000000000000000000000000000000000000000000000000000000000001",
        "nonce": "0xff",
        "chainId": "0x1"
      },
      "additionalContracts": [],
      "isFixedGasLimit": false
    },
    {
      "hash": "0xc89411595ce74be054b77493db2dda0b554f597c1c70f887cd2882d90ad704b9",
      "transactionType": "CALL",
      "contractName": null,
      "contractAddress": "0xcb4d153604a6f21ff7625e5044e89c3b903599bc",
      "function": "setWhitelistedUser(address,bool)",
      "arguments": [
        "0xBd0Ce952bA069A1e15f3bf3916d4B07bBBdBC8B3",
        "true"
      ],
      "transaction": {
        "from": "0xb819a871d20913839c37f316dc914b0570bfc0ee",
        "to": "0xcb4d153604a6f21ff7625e5044e89c3b903599bc",
        "gas": "0x11d0b",
        "value": "0x0",
        "input": "0x44710fbe000000000000000000000000bd0ce952ba069a1e15f3bf3916d4b07bbbdbc8b30000000000000000000000000000000000000000000000000000000000000001",
        "nonce": "0x100",
        "chainId": "0x1"
      },
      "additionalContracts": [],
      "isFixedGasLimit": false
    }
  ],
  "receipts": [
    {
      "status": "0x1",
      "cumulativeGasUsed": "0xf06902",
      "logs": [
        {
          "address": "0xcb4d153604a6f21ff7625e5044e89c3b903599bc",
          "topics": [
            "0x4059c608a8f17b9b24a5a29662eb74934d39ea92ae22411868f07fcac29487a0",
            "0x000000000000000000000000f20a8950c368ec48323092d6e4acf90aadf2bdc6"
          ],
          "data": "0x0000000000000000000000000000000000000000000000000000000000000001",
          "blockHash": "0xb46583b3b67e593172d23ca40ba23ae8edb0062b4ed2abb7ba6931f132e58951",
          "blockNumber": "0x1574b6b",
          "blockTimestamp": "0x6827a71f",
          "transactionHash": "0x747787aa68c577ad66691b774867423d44ffda8d94f02285b322080f4fe0c460",
          "transactionIndex": "0xba",
          "logIndex": "0x18d",
          "removed": false
        }
      ],
      "logsBloom": "0x00000000000000000000000000000000000000000000000000000000000000000000000000000000000000020000000000000000000000000000000000000000000000000000000000000000000000000000000000000000000000000000000000000000000000000000000000000400000000000000000000000000000000000000000000000000000000000000000000000000000000000000000000000000000000000040000000000000000000000000020000000000000000000000000000010000000000000000000000000000000000000000004000001000004000000000000000008000000000000000000000000000000000000000000000000000",
      "type": "0x2",
      "transactionHash": "0x747787aa68c577ad66691b774867423d44ffda8d94f02285b322080f4fe0c460",
      "transactionIndex": "0xba",
      "blockHash": "0xb46583b3b67e593172d23ca40ba23ae8edb0062b4ed2abb7ba6931f132e58951",
      "blockNumber": "0x1574b6b",
      "gasUsed": "0xce5f",
      "effectiveGasPrice": "0x62be551d",
      "from": "0xb819a871d20913839c37f316dc914b0570bfc0ee",
      "to": "0xcb4d153604a6f21ff7625e5044e89c3b903599bc",
      "contractAddress": null
    },
    {
      "status": "0x1",
      "cumulativeGasUsed": "0x1fc06e8",
      "logs": [
        {
          "address": "0xcb4d153604a6f21ff7625e5044e89c3b903599bc",
          "topics": [
            "0x4059c608a8f17b9b24a5a29662eb74934d39ea92ae22411868f07fcac29487a0",
            "0x0000000000000000000000008e72a24221517e51502f20f387415a06b27a5b51"
          ],
          "data": "0x0000000000000000000000000000000000000000000000000000000000000001",
          "blockHash": "0x2379ea6975d8df382cb9a9b623e42f5ce6481cd98e32352f6f276caaafa69eac",
          "blockNumber": "0x1574b6d",
          "blockTimestamp": "0x6827a737",
          "transactionHash": "0x15b9091f26feb69dde74bcbb05a4597c88e5b68a6b2bcd0b59606848d95fc645",
          "transactionIndex": "0x108",
          "logIndex": "0x348",
          "removed": false
        }
      ],
      "logsBloom": "0x00000000000000000000000000000000000000000000000000000000000000000000000000000000000000020000000000000000000000000000000000000000000000000000000000000000000000000000000000000000000000000000000000000000000000000000000000000400000000000000000000000800000000000000000000000000000000000000000000000000000000000000000000020000000000000040000000000000000000000000000000000000000000000000000000010000000000000000000000000000000000000001004000000000000000000000000000008000000000000000000000000000000000000000000000000000",
      "type": "0x2",
      "transactionHash": "0x15b9091f26feb69dde74bcbb05a4597c88e5b68a6b2bcd0b59606848d95fc645",
      "transactionIndex": "0x108",
      "blockHash": "0x2379ea6975d8df382cb9a9b623e42f5ce6481cd98e32352f6f276caaafa69eac",
      "blockNumber": "0x1574b6d",
      "gasUsed": "0xce5f",
      "effectiveGasPrice": "0x5d9b2ffd",
      "from": "0xb819a871d20913839c37f316dc914b0570bfc0ee",
      "to": "0xcb4d153604a6f21ff7625e5044e89c3b903599bc",
      "contractAddress": null
    },
    {
      "status": "0x1",
      "cumulativeGasUsed": "0xe55f90",
      "logs": [
        {
          "address": "0xcb4d153604a6f21ff7625e5044e89c3b903599bc",
          "topics": [
            "0x4059c608a8f17b9b24a5a29662eb74934d39ea92ae22411868f07fcac29487a0",
            "0x00000000000000000000000050d8deadd2b3140b151cab2c4fb76f1f59b236f8"
          ],
          "data": "0x0000000000000000000000000000000000000000000000000000000000000001",
          "blockHash": "0x2bd87a1e00eba379b35e32c6b0926ce0bd774515a5eb6dceb24c1d335a1aabb6",
          "blockNumber": "0x1574b6e",
          "blockTimestamp": "0x6827a743",
          "transactionHash": "0x0c41d83f934bedc431686b4ae423b5f6d256743381ccb2217798a1dfca2817dd",
          "transactionIndex": "0xcf",
          "logIndex": "0x172",
          "removed": false
        }
      ],
      "logsBloom": "0x00000000000000000000000000000000000000000000200000000000000000000000000000000000000000020000000000000000000000000000000000000000000000000000000000000000000000000000000000000000000000000000000000000000000000000000000000000400000000000000000000000000020000000000000000000000000000000000000000000000000000000000000000000000000000000040000000000000000000000000000000000000000000000000000000010000000000000000000000000000000000000000004000000000000000000000000000808000000000000000000000000000000000000000000000000000",
      "type": "0x2",
      "transactionHash": "0x0c41d83f934bedc431686b4ae423b5f6d256743381ccb2217798a1dfca2817dd",
      "transactionIndex": "0xcf",
      "blockHash": "0x2bd87a1e00eba379b35e32c6b0926ce0bd774515a5eb6dceb24c1d335a1aabb6",
      "blockNumber": "0x1574b6e",
      "gasUsed": "0xce5f",
      "effectiveGasPrice": "0x68eca88a",
      "from": "0xb819a871d20913839c37f316dc914b0570bfc0ee",
      "to": "0xcb4d153604a6f21ff7625e5044e89c3b903599bc",
      "contractAddress": null
    },
    {
      "status": "0x1",
      "cumulativeGasUsed": "0xd4d37a",
      "logs": [
        {
          "address": "0xcb4d153604a6f21ff7625e5044e89c3b903599bc",
          "topics": [
            "0x4059c608a8f17b9b24a5a29662eb74934d39ea92ae22411868f07fcac29487a0",
            "0x000000000000000000000000574582c44e3f1ef2cb29a7131b057febbcc8244e"
          ],
          "data": "0x0000000000000000000000000000000000000000000000000000000000000001",
          "blockHash": "0x20d8cba182c051fd5e8d3d2928f36321b9b405f33931bd667e4c3c64f19db780",
          "blockNumber": "0x1574b6f",
          "blockTimestamp": "0x6827a74f",
          "transactionHash": "0xeb98ecdb67ca78812558976e416b505ce7dcde1d927cc38443f2d5f5ca9769eb",
          "transactionIndex": "0x86",
          "logIndex": "0x186",
          "removed": false
        }
      ],
      "logsBloom": "0x00000000000000000000000000000000000000000000000000000000000000000000000000000000000000020000000000000000000000000000000000000000000000000000200000000000000000000000000000000000000000000000000000000000000000000000000000000400000000000000000000000000000000000000000000000000000000100000000000000000000000000000000000000000004000000040000000000000000000000000000000000000000000000000000000010000000000000000000000000000000000000000004000000000000000000000000000008000000000000000000000000000000000000000000000000000",
      "type": "0x2",
      "transactionHash": "0xeb98ecdb67ca78812558976e416b505ce7dcde1d927cc38443f2d5f5ca9769eb",
      "transactionIndex": "0x86",
      "blockHash": "0x20d8cba182c051fd5e8d3d2928f36321b9b405f33931bd667e4c3c64f19db780",
      "blockNumber": "0x1574b6f",
      "gasUsed": "0xce5f",
      "effectiveGasPrice": "0x6a2b418c",
      "from": "0xb819a871d20913839c37f316dc914b0570bfc0ee",
      "to": "0xcb4d153604a6f21ff7625e5044e89c3b903599bc",
      "contractAddress": null
    },
    {
      "status": "0x1",
      "cumulativeGasUsed": "0x164e13c",
      "logs": [
        {
          "address": "0xcb4d153604a6f21ff7625e5044e89c3b903599bc",
          "topics": [
            "0x4059c608a8f17b9b24a5a29662eb74934d39ea92ae22411868f07fcac29487a0",
            "0x000000000000000000000000281567fe62b587ec1755f6f33b80160f544dc5d0"
          ],
          "data": "0x0000000000000000000000000000000000000000000000000000000000000001",
          "blockHash": "0x38679abb56b273e5bb475f8c8f5f05f64bafc5724193f5392edcf26d49e50710",
          "blockNumber": "0x1574b70",
          "blockTimestamp": "0x6827a75b",
          "transactionHash": "0xdf4bdcbbb990ffe33739879ff432c8a8a7c438916c81afefa8c3c5663c535df3",
          "transactionIndex": "0xea",
          "logIndex": "0x24b",
          "removed": false
        }
      ],
      "logsBloom": "0x00200000000000000000000000000000000000000000000000000000000000000000000000000000000000020000000000000000000000000000000000000000000000000000000000000000000000000000000000000000000000000002000000000000000000000000000000000400000000000000000000000000000000000000000000000000000000000000000000000000800000000000000000000000000000000040000000000000000000000000000000000000000000000000000000010000000000000000000000000000000000000000004000000000000000000000000000008000000000000000000000000000000000000000000000000000",
      "type": "0x2",
      "transactionHash": "0xdf4bdcbbb990ffe33739879ff432c8a8a7c438916c81afefa8c3c5663c535df3",
      "transactionIndex": "0xea",
      "blockHash": "0x38679abb56b273e5bb475f8c8f5f05f64bafc5724193f5392edcf26d49e50710",
      "blockNumber": "0x1574b70",
      "gasUsed": "0xce5f",
      "effectiveGasPrice": "0x680951f4",
      "from": "0xb819a871d20913839c37f316dc914b0570bfc0ee",
      "to": "0xcb4d153604a6f21ff7625e5044e89c3b903599bc",
      "contractAddress": null
    },
    {
      "status": "0x1",
      "cumulativeGasUsed": "0xa648a3",
      "logs": [
        {
          "address": "0xcb4d153604a6f21ff7625e5044e89c3b903599bc",
          "topics": [
            "0x4059c608a8f17b9b24a5a29662eb74934d39ea92ae22411868f07fcac29487a0",
            "0x0000000000000000000000002705f6a8f01bd4a805d9fc73151dbe37bb8d1ede"
          ],
          "data": "0x0000000000000000000000000000000000000000000000000000000000000001",
          "blockHash": "0x6700e4f31c004fc6b334e0ad1040435dd30a61b700fffd707493478bd546d848",
          "blockNumber": "0x1574b71",
          "blockTimestamp": "0x6827a767",
          "transactionHash": "0xcc1a9c69710b0313ca9041335360bad0b7fefbafc1b4d6f040d556fc02dc9b27",
          "transactionIndex": "0x8a",
          "logIndex": "0x127",
          "removed": false
        }
      ],
      "logsBloom": "0x00000000000000000000000000000000000000000000000000000000000040000000000000000000000000020000000000000000000000000000000000000000000000000000000000000000000000000000000000000040000000000000000000000000000000000000000000000400000000000000000000000040000000000000000000000000000000000000000000000000000000000000000000000000000000000040000000000000000000000000000000000000000000000000000000010000000000000000000000000000000000000000004000000000000000000000000000008000000000000000000000000000000000000000000000000000",
      "type": "0x2",
      "transactionHash": "0xcc1a9c69710b0313ca9041335360bad0b7fefbafc1b4d6f040d556fc02dc9b27",
      "transactionIndex": "0x8a",
      "blockHash": "0x6700e4f31c004fc6b334e0ad1040435dd30a61b700fffd707493478bd546d848",
      "blockNumber": "0x1574b71",
      "gasUsed": "0xce5f",
      "effectiveGasPrice": "0x74925847",
      "from": "0xb819a871d20913839c37f316dc914b0570bfc0ee",
      "to": "0xcb4d153604a6f21ff7625e5044e89c3b903599bc",
      "contractAddress": null
    },
    {
      "status": "0x1",
      "cumulativeGasUsed": "0xfc48a5",
      "logs": [
        {
          "address": "0xcb4d153604a6f21ff7625e5044e89c3b903599bc",
          "topics": [
            "0x4059c608a8f17b9b24a5a29662eb74934d39ea92ae22411868f07fcac29487a0",
            "0x000000000000000000000000c9c9693b6a445d05add0043662fad9ac600ad088"
          ],
          "data": "0x0000000000000000000000000000000000000000000000000000000000000001",
          "blockHash": "0x215df1730fed9d57ac39f65e260273fae328148261b039c7cbdf6ca107f9544e",
          "blockNumber": "0x1574b72",
          "blockTimestamp": "0x6827a773",
          "transactionHash": "0x0de01b4886f6f29226e7b82a653cc1bb9ac7f8c7212d2b75f7776fedef1c9210",
          "transactionIndex": "0xaa",
          "logIndex": "0x1ea",
          "removed": false
        }
      ],
      "logsBloom": "0x00000000000000000000000000000000000000000000000000000000000000000000000010000000000000020000000000000000000000000000000000000000000000000000000000000000000000000000000000000000000000000000000000000000000000000000000000000400000000000000000000000000000000000000000000000000000000000000000000000000000000000000000000000000000000001040000000000000000000000000000000000000000000000000000000010001000000000000000000000000000000000000004000000000000000000000000000008000000000000000000000000000000000000000000000000000",
      "type": "0x2",
      "transactionHash": "0x0de01b4886f6f29226e7b82a653cc1bb9ac7f8c7212d2b75f7776fedef1c9210",
      "transactionIndex": "0xaa",
      "blockHash": "0x215df1730fed9d57ac39f65e260273fae328148261b039c7cbdf6ca107f9544e",
      "blockNumber": "0x1574b72",
      "gasUsed": "0xce5f",
      "effectiveGasPrice": "0x7081b3dc",
      "from": "0xb819a871d20913839c37f316dc914b0570bfc0ee",
      "to": "0xcb4d153604a6f21ff7625e5044e89c3b903599bc",
      "contractAddress": null
    },
    {
      "status": "0x1",
      "cumulativeGasUsed": "0x85414e",
      "logs": [
        {
          "address": "0xcb4d153604a6f21ff7625e5044e89c3b903599bc",
          "topics": [
            "0x4059c608a8f17b9b24a5a29662eb74934d39ea92ae22411868f07fcac29487a0",
            "0x0000000000000000000000007efe40b2e6da8b28aab6bd2d622b9cd7f5fe077c"
          ],
          "data": "0x0000000000000000000000000000000000000000000000000000000000000001",
          "blockHash": "0x7153ea4f321b0eed30511cb8970186bbe3369e232b1f9b458f12c1c1ed4ae144",
          "blockNumber": "0x1574b73",
          "blockTimestamp": "0x6827a77f",
          "transactionHash": "0x80d89d4beaf7e71f0b2ad13eb25e8bc82c0aa59d955843c594f8d96cb97d1815",
          "transactionIndex": "0x7c",
          "logIndex": "0xdc",
          "removed": false
        }
      ],
      "logsBloom": "0x00000000000000000000000000000000000000000000000000000000000000000000000000000000000000020000000000000000000000000000000000000000000000000000000000080000000000000000000000000000000000000000000000000000000000000000000000000400000000000000000000000000000000000000000200000000000000000000000000000000000000000000000000000000000000000040000000000000000000000000000000000000000000000000000000010000000000000000000000000000000000800000004000000000000000000000000000008000000000000000000000000000000000000000000000000000",
      "type": "0x2",
      "transactionHash": "0x80d89d4beaf7e71f0b2ad13eb25e8bc82c0aa59d955843c594f8d96cb97d1815",
      "transactionIndex": "0x7c",
      "blockHash": "0x7153ea4f321b0eed30511cb8970186bbe3369e232b1f9b458f12c1c1ed4ae144",
      "blockNumber": "0x1574b73",
      "gasUsed": "0xce5f",
      "effectiveGasPrice": "0x72255ec7",
      "from": "0xb819a871d20913839c37f316dc914b0570bfc0ee",
      "to": "0xcb4d153604a6f21ff7625e5044e89c3b903599bc",
      "contractAddress": null
    },
    {
      "status": "0x1",
      "cumulativeGasUsed": "0x53a0f4",
      "logs": [
        {
          "address": "0xcb4d153604a6f21ff7625e5044e89c3b903599bc",
          "topics": [
            "0x4059c608a8f17b9b24a5a29662eb74934d39ea92ae22411868f07fcac29487a0",
            "0x000000000000000000000000a22dcb8f0a2848289124086f35ae9db2a0006962"
          ],
          "data": "0x0000000000000000000000000000000000000000000000000000000000000001",
          "blockHash": "0xd2958b813095a902410b10d85bdc31e5c3160e5841ed43cf687fd5ea707cff02",
          "blockNumber": "0x1574b74",
          "blockTimestamp": "0x6827a78b",
          "transactionHash": "0x869d951c5dcabf670c36b6790beff0007e9c5e41f4dfed0029ecd641e47ea69b",
          "transactionIndex": "0x50",
          "logIndex": "0x7e",
          "removed": false
        }
      ],
      "logsBloom": "0x00000000000000000100000000000000000000000000000000000000000000000000000000000000000000020000000000000000000000000000000000000000000000100000000000000000000000000000000000000000000000000000000000000000000000000000000000000400000000000000000000000000000000000000000000000000000000000000000000000000000000200000000000000000000000000040000000000000000000000000000000000000000000000000000000010000000000000000000000000000000000000000004000000000000000000000000000008000000000000000000000000000000000000000000000000000",
      "type": "0x2",
      "transactionHash": "0x869d951c5dcabf670c36b6790beff0007e9c5e41f4dfed0029ecd641e47ea69b",
      "transactionIndex": "0x50",
      "blockHash": "0xd2958b813095a902410b10d85bdc31e5c3160e5841ed43cf687fd5ea707cff02",
      "blockNumber": "0x1574b74",
      "gasUsed": "0xce53",
      "effectiveGasPrice": "0x6c31a1a0",
      "from": "0xb819a871d20913839c37f316dc914b0570bfc0ee",
      "to": "0xcb4d153604a6f21ff7625e5044e89c3b903599bc",
      "contractAddress": null
    },
    {
      "status": "0x1",
      "cumulativeGasUsed": "0xfaf098",
      "logs": [
        {
          "address": "0xcb4d153604a6f21ff7625e5044e89c3b903599bc",
          "topics": [
            "0x4059c608a8f17b9b24a5a29662eb74934d39ea92ae22411868f07fcac29487a0",
            "0x000000000000000000000000b819a871d20913839c37f316dc914b0570bfc0ee"
          ],
          "data": "0x0000000000000000000000000000000000000000000000000000000000000001",
          "blockHash": "0x18cb8af47cb5fac09fa534dc569da7438d88166a7cb60850b54363959f937ca8",
          "blockNumber": "0x1574b75",
          "blockTimestamp": "0x6827a797",
          "transactionHash": "0xe3ff41d267655abfef66eabc1a586af346f723c7e4d1f6dce588f646c7b22b7b",
          "transactionIndex": "0xc9",
          "logIndex": "0x191",
          "removed": false
        }
      ],
      "logsBloom": "0x00000000000000000000000000000000000000000000000000000000000000000000000000000000000000020000000000000000000000000000000000000002000000000080000000000000000000000000000000000000000000000000000000000000000000000000000000000400000000000000000000000000000000000000000000000000000000000000000000000000000000000000000000000000000000000040000000000000000000000000000000000000000000000000000000010000000000000000000000000000000000000000004000000200000000000000000000008000000000000000000000000000000000000000000000000000",
      "type": "0x2",
      "transactionHash": "0xe3ff41d267655abfef66eabc1a586af346f723c7e4d1f6dce588f646c7b22b7b",
      "transactionIndex": "0xc9",
      "blockHash": "0x18cb8af47cb5fac09fa534dc569da7438d88166a7cb60850b54363959f937ca8",
      "blockNumber": "0x1574b75",
      "gasUsed": "0xce5f",
      "effectiveGasPrice": "0x63668535",
      "from": "0xb819a871d20913839c37f316dc914b0570bfc0ee",
      "to": "0xcb4d153604a6f21ff7625e5044e89c3b903599bc",
      "contractAddress": null
    },
    {
      "status": "0x1",
      "cumulativeGasUsed": "0x1d9a290",
      "logs": [
        {
          "address": "0xcb4d153604a6f21ff7625e5044e89c3b903599bc",
          "topics": [
            "0x4059c608a8f17b9b24a5a29662eb74934d39ea92ae22411868f07fcac29487a0",
            "0x00000000000000000000000040282d3cf4890d9806bc1853e97a59c93d813653"
          ],
          "data": "0x0000000000000000000000000000000000000000000000000000000000000001",
          "blockHash": "0xed99ab72731de918802543d6a2844c6a2b1bebc7318e5b2d6f1278fe0b3dba58",
          "blockNumber": "0x1574b76",
          "blockTimestamp": "0x6827a7a3",
          "transactionHash": "0x6a567751443cbc1946dde87e7324687a21a0d4d268fc7349a3a8b6f0665dcc79",
          "transactionIndex": "0x18e",
          "logIndex": "0x36a",
          "removed": false
        }
      ],
      "logsBloom": "0x00000000000000000000000000000000000000000000000000000000000000000000004000000000000000020000000000000000000000000000000000000000000000000000000000000000000000000000000000000000000000000000000000000000000000000000000000000400000000000000000000000000000000000000000040000000000000000000000000000000000200000000000000000000000000000040000000000000000000000000000000000000000000000000000000010000000000000000000000000000000000000000004000000000000000000000000000008000000000000000000000000000000000000000000000000000",
      "type": "0x2",
      "transactionHash": "0x6a567751443cbc1946dde87e7324687a21a0d4d268fc7349a3a8b6f0665dcc79",
      "transactionIndex": "0x18e",
      "blockHash": "0xed99ab72731de918802543d6a2844c6a2b1bebc7318e5b2d6f1278fe0b3dba58",
      "blockNumber": "0x1574b76",
      "gasUsed": "0xce5f",
      "effectiveGasPrice": "0x6442093a",
      "from": "0xb819a871d20913839c37f316dc914b0570bfc0ee",
      "to": "0xcb4d153604a6f21ff7625e5044e89c3b903599bc",
      "contractAddress": null
    },
    {
      "status": "0x1",
      "cumulativeGasUsed": "0x82f4ed",
      "logs": [
        {
          "address": "0xcb4d153604a6f21ff7625e5044e89c3b903599bc",
          "topics": [
            "0x4059c608a8f17b9b24a5a29662eb74934d39ea92ae22411868f07fcac29487a0",
            "0x000000000000000000000000b5b901f1bb86421301138b5c45c1d3fe96663161"
          ],
          "data": "0x0000000000000000000000000000000000000000000000000000000000000001",
          "blockHash": "0x7c1bf841301ce36f3b00d1e4a4958c3e1aa93d837b9028f3697b6d4bb7937d36",
          "blockNumber": "0x1574b77",
          "blockTimestamp": "0x6827a7af",
          "transactionHash": "0xc64713499502ee95710b9b76b2ffed3c5a3d18913f262bf67814dbb6485b70b4",
          "transactionIndex": "0x6b",
          "logIndex": "0xea",
          "removed": false
        }
      ],
      "logsBloom": "0x00000000000000000000000000000000000000000000000000000000000000004000000000000000000000020000000000000000000000000000000000000000000000000000000000000000000000000000000000800000000000000000000000000000000000000000000000000400000000000000000000000000000000000000000000000000000000000000000000000000000000000000000000000000000000000040010000000000000000000000000000000000000000000000000000010000000000000000000000000000000000000000004000000000000000000000000000008000000000000000000000000000000000000000000000000000",
      "type": "0x2",
      "transactionHash": "0xc64713499502ee95710b9b76b2ffed3c5a3d18913f262bf67814dbb6485b70b4",
      "transactionIndex": "0x6b",
      "blockHash": "0x7c1bf841301ce36f3b00d1e4a4958c3e1aa93d837b9028f3697b6d4bb7937d36",
      "blockNumber": "0x1574b77",
      "gasUsed": "0xce5f",
      "effectiveGasPrice": "0x706a2484",
      "from": "0xb819a871d20913839c37f316dc914b0570bfc0ee",
      "to": "0xcb4d153604a6f21ff7625e5044e89c3b903599bc",
      "contractAddress": null
    },
    {
      "status": "0x1",
      "cumulativeGasUsed": "0xe3d795",
      "logs": [
        {
          "address": "0xcb4d153604a6f21ff7625e5044e89c3b903599bc",
          "topics": [
            "0x4059c608a8f17b9b24a5a29662eb74934d39ea92ae22411868f07fcac29487a0",
            "0x000000000000000000000000baec8904499dcdee770c60df15b0c37eac84fb62"
          ],
          "data": "0x0000000000000000000000000000000000000000000000000000000000000001",
          "blockHash": "0x8926a925c04dbdaa7354f448280094cf9ce9b543134acaf526f8c4f6b3d5c1b6",
          "blockNumber": "0x1574b78",
          "blockTimestamp": "0x6827a7bb",
          "transactionHash": "0x8ff3851ea8374900a7383c0057a9d86fdc089c710de78bff6f102aad161d869c",
          "transactionIndex": "0xc2",
          "logIndex": "0x181",
          "removed": false
        }
      ],
      "logsBloom": "0x00000000000000000000000000000000000000000000000000000000000000000000000000000000000000020000000000000000000000000000000000000000000000000000800000000000000080000000000000000000000000000000000000000000000000000000000000000400000000000000000000000000000000000000000000000000000000000000000000000000000000000000000000000000000000000040000000000000000000000000000000000000000000000000000000010000000000000000000000000000008000000000004000000000000000000000000000008000000000000000000000000000000000000000000000000000",
      "type": "0x2",
      "transactionHash": "0x8ff3851ea8374900a7383c0057a9d86fdc089c710de78bff6f102aad161d869c",
      "transactionIndex": "0xc2",
      "blockHash": "0x8926a925c04dbdaa7354f448280094cf9ce9b543134acaf526f8c4f6b3d5c1b6",
      "blockNumber": "0x1574b78",
      "gasUsed": "0xce5f",
      "effectiveGasPrice": "0x6a2d5825",
      "from": "0xb819a871d20913839c37f316dc914b0570bfc0ee",
      "to": "0xcb4d153604a6f21ff7625e5044e89c3b903599bc",
      "contractAddress": null
    },
    {
      "status": "0x1",
      "cumulativeGasUsed": "0x123595a",
      "logs": [
        {
          "address": "0xcb4d153604a6f21ff7625e5044e89c3b903599bc",
          "topics": [
            "0x4059c608a8f17b9b24a5a29662eb74934d39ea92ae22411868f07fcac29487a0",
            "0x000000000000000000000000fc4a23271b60887fc246b060b6931a08e2bc434c"
          ],
          "data": "0x0000000000000000000000000000000000000000000000000000000000000001",
          "blockHash": "0x4e08a7a6fd009c1f0344ddd638585b5c9de0ebf1b58a96b5cbf84068edd9d20b",
          "blockNumber": "0x1574b79",
          "blockTimestamp": "0x6827a7c7",
          "transactionHash": "0xb555c61be81d1c537d760c0290d75bfd18068939d1dbad7cf8d4ceda4b2165d7",
          "transactionIndex": "0xc7",
          "logIndex": "0x1eb",
          "removed": false
        }
      ],
      "logsBloom": "0x00000200000000000000000000000000000000000000000000000000000000000000000000000000000000020000000000000000000000000000000000000000000000000000020000000000000000000000000000000000000000004000000000000000000000000000000000000400000000000000000000000000000000000000000000000000000000000000000000000000000000000000000000000000000000000040000000000000000000000000000000000000000000000000000000010000000000000000000000000000000000000000004000000000000000000000000000008000000000000000000000000000000000000000000000000000",
      "type": "0x2",
      "transactionHash": "0xb555c61be81d1c537d760c0290d75bfd18068939d1dbad7cf8d4ceda4b2165d7",
      "transactionIndex": "0xc7",
      "blockHash": "0x4e08a7a6fd009c1f0344ddd638585b5c9de0ebf1b58a96b5cbf84068edd9d20b",
      "blockNumber": "0x1574b79",
      "gasUsed": "0xce5f",
      "effectiveGasPrice": "0x6a1f7fb6",
      "from": "0xb819a871d20913839c37f316dc914b0570bfc0ee",
      "to": "0xcb4d153604a6f21ff7625e5044e89c3b903599bc",
      "contractAddress": null
    },
    {
      "status": "0x1",
      "cumulativeGasUsed": "0xe9e3f3",
      "logs": [
        {
          "address": "0xcb4d153604a6f21ff7625e5044e89c3b903599bc",
          "topics": [
            "0x4059c608a8f17b9b24a5a29662eb74934d39ea92ae22411868f07fcac29487a0",
            "0x00000000000000000000000065b142550ae82f4bb3792e1eefb2fc35541a3837"
          ],
          "data": "0x0000000000000000000000000000000000000000000000000000000000000001",
          "blockHash": "0x7b7cd77e05b7d3a98c928e839074c8078237cec3cccacb244df7d18862197a47",
          "blockNumber": "0x1574b7a",
          "blockTimestamp": "0x6827a7d3",
          "transactionHash": "0x43f922373687b786ed5349b6606788b8bc49ccff22b8498225c60fa8332fa3d7",
          "transactionIndex": "0x79",
          "logIndex": "0x149",
          "removed": false
        }
      ],
      "logsBloom": "0x00000000000000000000000000000000000000000000000000000000000000000000000000000000000000020000000000000000000000000000000000000000000000000000000000000000000000000000000000000000000000000000000000000000000000000000000000000400000000000000000000000000000000000000000000000000000000000000000000000000000000000000000000000000000040000040000000000000000000080000000000000000000000000000000000010000000000000000000000000000000000000000004000000000008000000000000000008000000000000000000000000000000000000000000000000000",
      "type": "0x2",
      "transactionHash": "0x43f922373687b786ed5349b6606788b8bc49ccff22b8498225c60fa8332fa3d7",
      "transactionIndex": "0x79",
      "blockHash": "0x7b7cd77e05b7d3a98c928e839074c8078237cec3cccacb244df7d18862197a47",
      "blockNumber": "0x1574b7a",
      "gasUsed": "0xce5f",
      "effectiveGasPrice": "0x6d2360d3",
      "from": "0xb819a871d20913839c37f316dc914b0570bfc0ee",
      "to": "0xcb4d153604a6f21ff7625e5044e89c3b903599bc",
      "contractAddress": null
    },
    {
      "status": "0x1",
      "cumulativeGasUsed": "0xaaec4e",
      "logs": [
        {
          "address": "0xcb4d153604a6f21ff7625e5044e89c3b903599bc",
          "topics": [
            "0x4059c608a8f17b9b24a5a29662eb74934d39ea92ae22411868f07fcac29487a0",
            "0x00000000000000000000000075149feebb20e1fe5ddb89302a6d4bace70c14ce"
          ],
          "data": "0x0000000000000000000000000000000000000000000000000000000000000001",
          "blockHash": "0x354842094436bab009a19fff9b6b2dcc3104dce5648216357b3fb802921a9217",
          "blockNumber": "0x1574b7b",
          "blockTimestamp": "0x6827a7df",
          "transactionHash": "0x48b794db07e0829d1d6e01e2f312b8c4ee65f3f92219d7291f362b40827ea423",
          "transactionIndex": "0x80",
          "logIndex": "0x13f",
          "removed": false
        }
      ],
      "logsBloom": "0x00000000000000200000000000000000000000000000000000000000000000000000000000000000040000020000000000000000000000000000000000000000000000000000000000000000000000000000000000000000000000000000000000000000000000000000000000000400000000000000000000000000000000000000000000000000000000000000000000000000000000000000000000000000000000000040000000000000000010000000000000000000000000000000000000010000000000000000000000000000000000000000004000000000000000000000000000008000000000000000000000000000000000000000000000000000",
      "type": "0x2",
      "transactionHash": "0x48b794db07e0829d1d6e01e2f312b8c4ee65f3f92219d7291f362b40827ea423",
      "transactionIndex": "0x80",
      "blockHash": "0x354842094436bab009a19fff9b6b2dcc3104dce5648216357b3fb802921a9217",
      "blockNumber": "0x1574b7b",
      "gasUsed": "0xce5f",
      "effectiveGasPrice": "0x6b9fb6ff",
      "from": "0xb819a871d20913839c37f316dc914b0570bfc0ee",
      "to": "0xcb4d153604a6f21ff7625e5044e89c3b903599bc",
      "contractAddress": null
    },
    {
      "status": "0x1",
      "cumulativeGasUsed": "0x919c2e",
      "logs": [
        {
          "address": "0xcb4d153604a6f21ff7625e5044e89c3b903599bc",
          "topics": [
            "0x4059c608a8f17b9b24a5a29662eb74934d39ea92ae22411868f07fcac29487a0",
            "0x00000000000000000000000065b6d4770dadcfba6d363de86aa4d9c76283cea0"
          ],
          "data": "0x0000000000000000000000000000000000000000000000000000000000000001",
          "blockHash": "0x97a2edb5866fc7755442a39fef9fdb2d2eb351288ff4831e10a296e38ac9c979",
          "blockNumber": "0x1574b7c",
          "blockTimestamp": "0x6827a7eb",
          "transactionHash": "0x3d3716605f8abc066da3b2f334bd6866d3d5b678348f0187ae1c3311b9712787",
          "transactionIndex": "0x62",
          "logIndex": "0x101",
          "removed": false
        }
      ],
      "logsBloom": "0x00000000800000000000000000000000000000000000000000000000000000000000000000000000000002020000000000000000000000000000000000000000000000000000000000000000000000000000000000000000000000000000000000000000000000000000000000000400000000000000000000000000000000000000000000000000000000000000000000000000000000000000000000000000000000000040000000000000000000000000000000000000000000000000000000010000000000000000000000000000002000000000004000000000000000000000000000008000000000000000000000000000000000000000000000000000",
      "type": "0x2",
      "transactionHash": "0x3d3716605f8abc066da3b2f334bd6866d3d5b678348f0187ae1c3311b9712787",
      "transactionIndex": "0x62",
      "blockHash": "0x97a2edb5866fc7755442a39fef9fdb2d2eb351288ff4831e10a296e38ac9c979",
      "blockNumber": "0x1574b7c",
      "gasUsed": "0xce5f",
      "effectiveGasPrice": "0x69ccd610",
      "from": "0xb819a871d20913839c37f316dc914b0570bfc0ee",
      "to": "0xcb4d153604a6f21ff7625e5044e89c3b903599bc",
      "contractAddress": null
    },
    {
      "status": "0x1",
      "cumulativeGasUsed": "0x1471f0b",
      "logs": [
        {
          "address": "0xcb4d153604a6f21ff7625e5044e89c3b903599bc",
          "topics": [
            "0x4059c608a8f17b9b24a5a29662eb74934d39ea92ae22411868f07fcac29487a0",
            "0x000000000000000000000000a6a9fddc94bb4fe7520a2ea1cc2c433e18683342"
          ],
          "data": "0x0000000000000000000000000000000000000000000000000000000000000001",
          "blockHash": "0x44c9a65c09861d0ebec23482c1e437b93a7fb1b615ebed37ff31865e09023e7d",
          "blockNumber": "0x1574b7d",
          "blockTimestamp": "0x6827a7f7",
          "transactionHash": "0x75df6f66cb5f73f272106bed8aa5eed633bfaac666527924936452605e024c0a",
          "transactionIndex": "0xc6",
          "logIndex": "0x20d",
          "removed": false
        }
      ],
      "logsBloom": "0x00000000000040000000000000000000000000000000000000000000000000000000000000000000000000020000000000000000000000000000000000000000000000000000000000000000000000400000000000000000000000000000000000000000000000000000000000000400000000000000000000000000000000000000000000000000000000000000000000000000000000000000000000000000000000000040000002000000000000000000000000000000000000000000000000010000000000000000000000000000000000000000004000000000000000000000000000008000000000000000000000000000000000000000000000000000",
      "type": "0x2",
      "transactionHash": "0x75df6f66cb5f73f272106bed8aa5eed633bfaac666527924936452605e024c0a",
      "transactionIndex": "0xc6",
      "blockHash": "0x44c9a65c09861d0ebec23482c1e437b93a7fb1b615ebed37ff31865e09023e7d",
      "blockNumber": "0x1574b7d",
      "gasUsed": "0xce5f",
      "effectiveGasPrice": "0x66f11d39",
      "from": "0xb819a871d20913839c37f316dc914b0570bfc0ee",
      "to": "0xcb4d153604a6f21ff7625e5044e89c3b903599bc",
      "contractAddress": null
    },
    {
      "status": "0x1",
      "cumulativeGasUsed": "0xb60922",
      "logs": [
        {
          "address": "0xcb4d153604a6f21ff7625e5044e89c3b903599bc",
          "topics": [
            "0x4059c608a8f17b9b24a5a29662eb74934d39ea92ae22411868f07fcac29487a0",
            "0x00000000000000000000000018d04f05f80ade5373849385a1c24e1e0a6d1744"
          ],
          "data": "0x0000000000000000000000000000000000000000000000000000000000000001",
          "blockHash": "0xcd0e898dfeb1990c31f533df9da6ad2dc136062784928a4ff6f2870d24ef5371",
          "blockNumber": "0x1574b7e",
          "blockTimestamp": "0x6827a803",
          "transactionHash": "0x42d627be57389c7711b88007096196f19609f025307325d701cca9298933c428",
          "transactionIndex": "0x7d",
          "logIndex": "0x149",
          "removed": false
        }
      ],
      "logsBloom": "0x00000000000000000000000000000000000000000000000000000000000000000000000000000000000000020000000000000000000000000000000000000000000000000000000000000000000100000000000000000000000000000000000000000000000000000000000000000400000000000000000000000000000000000000000000000000000000000000000000000000000000000000000000000000000000000040000000000000000000000000000000000000000000000000000000010000000100000000000000000000000000000000004000000000000000000000000000008000000000000004000000000000000000000000000000000000",
      "type": "0x2",
      "transactionHash": "0x42d627be57389c7711b88007096196f19609f025307325d701cca9298933c428",
      "transactionIndex": "0x7d",
      "blockHash": "0xcd0e898dfeb1990c31f533df9da6ad2dc136062784928a4ff6f2870d24ef5371",
      "blockNumber": "0x1574b7e",
      "gasUsed": "0xce5f",
      "effectiveGasPrice": "0x6c8ef2e2",
      "from": "0xb819a871d20913839c37f316dc914b0570bfc0ee",
      "to": "0xcb4d153604a6f21ff7625e5044e89c3b903599bc",
      "contractAddress": null
    },
    {
      "status": "0x1",
      "cumulativeGasUsed": "0x96f9f8",
      "logs": [
        {
          "address": "0xcb4d153604a6f21ff7625e5044e89c3b903599bc",
          "topics": [
            "0x4059c608a8f17b9b24a5a29662eb74934d39ea92ae22411868f07fcac29487a0",
            "0x000000000000000000000000bd9c90d6774cb5320b54bb7998b6bcc5e4a9071f"
          ],
          "data": "0x0000000000000000000000000000000000000000000000000000000000000001",
          "blockHash": "0x92e6369ef20733e596b2ba3f44aaaacf4a341c2b0491a183d139de11b162e309",
          "blockNumber": "0x1574b7f",
          "blockTimestamp": "0x6827a80f",
          "transactionHash": "0xc0ff999d4254c4a1551e7d939e1652d86faeb322f05a9c920014987f75698f43",
          "transactionIndex": "0x82",
          "logIndex": "0x104",
          "removed": false
        }
      ],
      "logsBloom": "0x00000000000000000000000000000000000000000000000000000000000000000000000000002000000000020000000000000000000040000000000000000000000000000000000000000000000000000000000000000000000000000000000000000000000000000000000000000400000000000000000000000000000000000000000000000000000000000000000000000000000000000000000000000000000000000040000000000000000000000000000000800000000000000000000000010000000000000000000000000000000000000000004000000000000000000000000000008000000000000000000000000000000000000000000000000000",
      "type": "0x2",
      "transactionHash": "0xc0ff999d4254c4a1551e7d939e1652d86faeb322f05a9c920014987f75698f43",
      "transactionIndex": "0x82",
      "blockHash": "0x92e6369ef20733e596b2ba3f44aaaacf4a341c2b0491a183d139de11b162e309",
      "blockNumber": "0x1574b7f",
      "gasUsed": "0xce5f",
      "effectiveGasPrice": "0x6b1343c0",
      "from": "0xb819a871d20913839c37f316dc914b0570bfc0ee",
      "to": "0xcb4d153604a6f21ff7625e5044e89c3b903599bc",
      "contractAddress": null
    },
    {
      "status": "0x1",
      "cumulativeGasUsed": "0xd2c76a",
      "logs": [
        {
          "address": "0xcb4d153604a6f21ff7625e5044e89c3b903599bc",
          "topics": [
            "0x4059c608a8f17b9b24a5a29662eb74934d39ea92ae22411868f07fcac29487a0",
            "0x0000000000000000000000008f2eaba31b1b613ca78f2795ba05400f0583c5a4"
          ],
          "data": "0x0000000000000000000000000000000000000000000000000000000000000001",
          "blockHash": "0x37b81e2955180622028d61294e0184b714019f9f3aaf90ef1e6a9517da4d536d",
          "blockNumber": "0x1574b80",
          "blockTimestamp": "0x6827a81b",
          "transactionHash": "0xcbfd9084908bf5248897707997a17f9da1ffe5eccab6e848dc1a0f7febdf0d50",
          "transactionIndex": "0xd3",
          "logIndex": "0x15e",
          "removed": false
        }
      ],
      "logsBloom": "0x00000000000000000000000000000000000000000000000000000000000000000000000000000000000000020000000000000000000000000000000000000000000000000000000000000000000000000000000000000000000000000000000000000000000000000000001000000400000000000000000000000000000000000000000000000000000000000000000000000000000000000000000000000000000000000040000000000000000000000000000000000000000000000000000000014000000000000000000000002000000000000000004000000000000000000000000000008000000000000000000000000000000000000000000000000000",
      "type": "0x2",
      "transactionHash": "0xcbfd9084908bf5248897707997a17f9da1ffe5eccab6e848dc1a0f7febdf0d50",
      "transactionIndex": "0xd3",
      "blockHash": "0x37b81e2955180622028d61294e0184b714019f9f3aaf90ef1e6a9517da4d536d",
      "blockNumber": "0x1574b80",
      "gasUsed": "0xce5f",
      "effectiveGasPrice": "0x69490cd5",
      "from": "0xb819a871d20913839c37f316dc914b0570bfc0ee",
      "to": "0xcb4d153604a6f21ff7625e5044e89c3b903599bc",
      "contractAddress": null
    },
    {
      "status": "0x1",
      "cumulativeGasUsed": "0x1916d61",
      "logs": [
        {
          "address": "0xcb4d153604a6f21ff7625e5044e89c3b903599bc",
          "topics": [
            "0x4059c608a8f17b9b24a5a29662eb74934d39ea92ae22411868f07fcac29487a0",
            "0x0000000000000000000000008f2eaba31b1b613ca78f2795ba05400f0583c5a4"
          ],
          "data": "0x0000000000000000000000000000000000000000000000000000000000000001",
          "blockHash": "0x5721944678dd282c90ba137c4d5c5da57a284eb04efbf83de240b3c96c5c4163",
          "blockNumber": "0x1574b81",
          "blockTimestamp": "0x6827a827",
          "transactionHash": "0x4b4695ff975ee40ac685d5ccc4203749d05e34d6e8ab680c4d737b31d4fc2150",
          "transactionIndex": "0xaf",
          "logIndex": "0x257",
          "removed": false
        }
      ],
      "logsBloom": "0x00000000000000000000000000000000000000000000000000000000000000000000000000000000000000020000000000000000000000000000000000000000000000000000000000000000000000000000000000000000000000000000000000000000000000000000001000000400000000000000000000000000000000000000000000000000000000000000000000000000000000000000000000000000000000000040000000000000000000000000000000000000000000000000000000014000000000000000000000002000000000000000004000000000000000000000000000008000000000000000000000000000000000000000000000000000",
      "type": "0x2",
      "transactionHash": "0x4b4695ff975ee40ac685d5ccc4203749d05e34d6e8ab680c4d737b31d4fc2150",
      "transactionIndex": "0xaf",
      "blockHash": "0x5721944678dd282c90ba137c4d5c5da57a284eb04efbf83de240b3c96c5c4163",
      "blockNumber": "0x1574b81",
      "gasUsed": "0x80a3",
      "effectiveGasPrice": "0x67c32eec",
      "from": "0xb819a871d20913839c37f316dc914b0570bfc0ee",
      "to": "0xcb4d153604a6f21ff7625e5044e89c3b903599bc",
      "contractAddress": null
    },
    {
      "status": "0x1",
      "cumulativeGasUsed": "0x4053a5",
      "logs": [
        {
          "address": "0xcb4d153604a6f21ff7625e5044e89c3b903599bc",
          "topics": [
            "0x4059c608a8f17b9b24a5a29662eb74934d39ea92ae22411868f07fcac29487a0",
            "0x00000000000000000000000050d8deadd2b3140b151cab2c4fb76f1f59b236f8"
          ],
          "data": "0x0000000000000000000000000000000000000000000000000000000000000001",
          "blockHash": "0xcedcd910e776ee3c457d43f310998028ee519655563d47122dc2c26cef0f7717",
          "blockNumber": "0x1574b82",
          "blockTimestamp": "0x6827a833",
          "transactionHash": "0x74f9203cd2293eac23c5a0ec341bb3178b9d17a5874fc56455b033604631d7b6",
          "transactionIndex": "0x41",
          "logIndex": "0x60",
          "removed": false
        }
      ],
      "logsBloom": "0x00000000000000000000000000000000000000000000200000000000000000000000000000000000000000020000000000000000000000000000000000000000000000000000000000000000000000000000000000000000000000000000000000000000000000000000000000000400000000000000000000000000020000000000000000000000000000000000000000000000000000000000000000000000000000000040000000000000000000000000000000000000000000000000000000010000000000000000000000000000000000000000004000000000000000000000000000808000000000000000000000000000000000000000000000000000",
      "type": "0x2",
      "transactionHash": "0x74f9203cd2293eac23c5a0ec341bb3178b9d17a5874fc56455b033604631d7b6",
      "transactionIndex": "0x41",
      "blockHash": "0xcedcd910e776ee3c457d43f310998028ee519655563d47122dc2c26cef0f7717",
      "blockNumber": "0x1574b82",
      "gasUsed": "0x80a3",
      "effectiveGasPrice": "0x6eb6d649",
      "from": "0xb819a871d20913839c37f316dc914b0570bfc0ee",
      "to": "0xcb4d153604a6f21ff7625e5044e89c3b903599bc",
      "contractAddress": null
    },
    {
      "status": "0x1",
      "cumulativeGasUsed": "0xd2d84e",
      "logs": [
        {
          "address": "0xcb4d153604a6f21ff7625e5044e89c3b903599bc",
          "topics": [
            "0x4059c608a8f17b9b24a5a29662eb74934d39ea92ae22411868f07fcac29487a0",
            "0x000000000000000000000000574582c44e3f1ef2cb29a7131b057febbcc8244e"
          ],
          "data": "0x0000000000000000000000000000000000000000000000000000000000000001",
          "blockHash": "0x92ec9854cd8827505fb47a55bd09a8b6225238a366d3dc4b131e4e88441b1d5b",
          "blockNumber": "0x1574b83",
          "blockTimestamp": "0x6827a83f",
          "transactionHash": "0x48ebf2446a348b64c8708121c5cc5f1d3acef5c70670f3042eb6608fe788c6ce",
          "transactionIndex": "0x5f",
          "logIndex": "0x167",
          "removed": false
        }
      ],
      "logsBloom": "0x00000000000000000000000000000000000000000000000000000000000000000000000000000000000000020000000000000000000000000000000000000000000000000000200000000000000000000000000000000000000000000000000000000000000000000000000000000400000000000000000000000000000000000000000000000000000000100000000000000000000000000000000000000000004000000040000000000000000000000000000000000000000000000000000000010000000000000000000000000000000000000000004000000000000000000000000000008000000000000000000000000000000000000000000000000000",
      "type": "0x2",
      "transactionHash": "0x48ebf2446a348b64c8708121c5cc5f1d3acef5c70670f3042eb6608fe788c6ce",
      "transactionIndex": "0x5f",
      "blockHash": "0x92ec9854cd8827505fb47a55bd09a8b6225238a366d3dc4b131e4e88441b1d5b",
      "blockNumber": "0x1574b83",
      "gasUsed": "0x80a3",
      "effectiveGasPrice": "0x6b164ba8",
      "from": "0xb819a871d20913839c37f316dc914b0570bfc0ee",
      "to": "0xcb4d153604a6f21ff7625e5044e89c3b903599bc",
      "contractAddress": null
    },
    {
      "status": "0x1",
      "cumulativeGasUsed": "0x2004638",
      "logs": [
        {
          "address": "0xcb4d153604a6f21ff7625e5044e89c3b903599bc",
          "topics": [
            "0x4059c608a8f17b9b24a5a29662eb74934d39ea92ae22411868f07fcac29487a0",
            "0x000000000000000000000000bd0ce952ba069a1e15f3bf3916d4b07bbbdbc8b3"
          ],
          "data": "0x0000000000000000000000000000000000000000000000000000000000000001",
          "blockHash": "0x91aa4ccebdf99b715d75bfbb1a74f645cc72f73523f7a0caae6ece7b0d8d5abc",
          "blockNumber": "0x1574b84",
          "blockTimestamp": "0x6827a84b",
          "transactionHash": "0xc89411595ce74be054b77493db2dda0b554f597c1c70f887cd2882d90ad704b9",
          "transactionIndex": "0x109",
          "logIndex": "0x2ac",
          "removed": false
        }
      ],
      "logsBloom": "0x00000000000000000000000000000000000000000000000000000000000000000000000000000000000000020000000000000000000000000000000000000000000000000002000000000000000000000000000000000000000000000000000000000000000000000000000000000400000000000000000000000000000000000000000000000000000000000000000000000000000000000000000000000000000000000040000000000000000000000000000000000000000000000000000000010000008000000000010000000000000000000000004000000000000000000000000000008000000000000000000000000000000000000000000000000000",
      "type": "0x2",
      "transactionHash": "0xc89411595ce74be054b77493db2dda0b554f597c1c70f887cd2882d90ad704b9",
      "transactionIndex": "0x109",
      "blockHash": "0x91aa4ccebdf99b715d75bfbb1a74f645cc72f73523f7a0caae6ece7b0d8d5abc",
      "blockNumber": "0x1574b84",
      "gasUsed": "0xce5f",
      "effectiveGasPrice": "0x690cddd7",
      "from": "0xb819a871d20913839c37f316dc914b0570bfc0ee",
      "to": "0xcb4d153604a6f21ff7625e5044e89c3b903599bc",
      "contractAddress": null
    }
  ],
  "libraries": [],
  "pending": [],
  "returns": {},
  "timestamp": 1747429456,
  "chain": 1,
  "commit": "157d7bc"
}