{
  "transactions": [
    {
      "hash": "0x3fd780a7312afa1c043e25921f2a6d10f738758885c679c57f1fb06dec48625f",
      "transactionType": "CALL",
      "contractName": null,
      "contractAddress": "0xdf0635c1ecfdf08146150691a97e2ff6a8aa1a90",
      "function": "setWhitelistedUser(address,bool)",
      "arguments": [
        "0xf20a8950c368Ec48323092D6e4acF90aADf2BdC6",
        "true"
      ],
      "transaction": {
        "from": "0xb819a871d20913839c37f316dc914b0570bfc0ee",
        "to": "0xdf0635c1ecfdf08146150691a97e2ff6a8aa1a90",
        "gas": "0x11d0b",
        "value": "0x0",
        "input": "0x44710fbe000000000000000000000000f20a8950c368ec48323092d6e4acf90aadf2bdc60000000000000000000000000000000000000000000000000000000000000001",
        "nonce": "0x5e",
        "chainId": "0x1"
      },
      "additionalContracts": [],
      "isFixedGasLimit": false
    },
    {
      "hash": "0xe12766a1e7fc4915ae83247d3ea8b0ee7f2bdeb51a709feaa3a18a429c026963",
      "transactionType": "CALL",
      "contractName": null,
      "contractAddress": "0xdf0635c1ecfdf08146150691a97e2ff6a8aa1a90",
      "function": "setWhitelistedUser(address,bool)",
      "arguments": [
        "0x8E72a24221517E51502f20f387415a06b27A5b51",
        "true"
      ],
      "transaction": {
        "from": "0xb819a871d20913839c37f316dc914b0570bfc0ee",
        "to": "0xdf0635c1ecfdf08146150691a97e2ff6a8aa1a90",
        "gas": "0x11d0b",
        "value": "0x0",
        "input": "0x44710fbe0000000000000000000000008e72a24221517e51502f20f387415a06b27a5b510000000000000000000000000000000000000000000000000000000000000001",
        "nonce": "0x5f",
        "chainId": "0x1"
      },
      "additionalContracts": [],
      "isFixedGasLimit": false
    },
    {
      "hash": "0x19a3e595b7d0a9fd54cd2bbfef270f1fa47a7c2b2fd5948f39ee3bc5298c746a",
      "transactionType": "CALL",
      "contractName": null,
      "contractAddress": "0xdf0635c1ecfdf08146150691a97e2ff6a8aa1a90",
      "function": "setWhitelistedUser(address,bool)",
      "arguments": [
        "0x50d8Deadd2b3140B151CaB2C4FB76F1f59b236F8",
        "true"
      ],
      "transaction": {
        "from": "0xb819a871d20913839c37f316dc914b0570bfc0ee",
        "to": "0xdf0635c1ecfdf08146150691a97e2ff6a8aa1a90",
        "gas": "0x11d0b",
        "value": "0x0",
        "input": "0x44710fbe00000000000000000000000050d8deadd2b3140b151cab2c4fb76f1f59b236f80000000000000000000000000000000000000000000000000000000000000001",
        "nonce": "0x60",
        "chainId": "0x1"
      },
      "additionalContracts": [],
      "isFixedGasLimit": false
    },
    {
      "hash": "0x1b6e7539d28fb7b048dd6c47567275b0cf6180f685b66dfd5aa24edb5ba0c840",
      "transactionType": "CALL",
      "contractName": null,
      "contractAddress": "0xdf0635c1ecfdf08146150691a97e2ff6a8aa1a90",
      "function": "setWhitelistedUser(address,bool)",
      "arguments": [
        "0x574582C44e3f1EF2cB29a7131B057FebBCC8244E",
        "true"
      ],
      "transaction": {
        "from": "0xb819a871d20913839c37f316dc914b0570bfc0ee",
        "to": "0xdf0635c1ecfdf08146150691a97e2ff6a8aa1a90",
        "gas": "0x11d0b",
        "value": "0x0",
        "input": "0x44710fbe000000000000000000000000574582c44e3f1ef2cb29a7131b057febbcc8244e0000000000000000000000000000000000000000000000000000000000000001",
        "nonce": "0x61",
        "chainId": "0x1"
      },
      "additionalContracts": [],
      "isFixedGasLimit": false
    },
    {
      "hash": "0xd51e2aa0471436501532bea945b1eedf2975a8bd51d0093ebce4d8ee7825febf",
      "transactionType": "CALL",
      "contractName": null,
      "contractAddress": "0xdf0635c1ecfdf08146150691a97e2ff6a8aa1a90",
      "function": "setWhitelistedUser(address,bool)",
      "arguments": [
        "0x281567fe62b587EC1755f6F33b80160F544Dc5d0",
        "true"
      ],
      "transaction": {
        "from": "0xb819a871d20913839c37f316dc914b0570bfc0ee",
        "to": "0xdf0635c1ecfdf08146150691a97e2ff6a8aa1a90",
        "gas": "0x11d0b",
        "value": "0x0",
        "input": "0x44710fbe000000000000000000000000281567fe62b587ec1755f6f33b80160f544dc5d00000000000000000000000000000000000000000000000000000000000000001",
        "nonce": "0x62",
        "chainId": "0x1"
      },
      "additionalContracts": [],
      "isFixedGasLimit": false
    },
    {
      "hash": "0xae439a622d849cbaa93200401b4eccbc4c33a2282e61f2046226e4d88bfa7150",
      "transactionType": "CALL",
      "contractName": null,
      "contractAddress": "0xdf0635c1ecfdf08146150691a97e2ff6a8aa1a90",
      "function": "setWhitelistedUser(address,bool)",
      "arguments": [
        "0x2705f6A8F01bd4A805D9FC73151DBe37BB8d1edE",
        "true"
      ],
      "transaction": {
        "from": "0xb819a871d20913839c37f316dc914b0570bfc0ee",
        "to": "0xdf0635c1ecfdf08146150691a97e2ff6a8aa1a90",
        "gas": "0x11d0b",
        "value": "0x0",
        "input": "0x44710fbe0000000000000000000000002705f6a8f01bd4a805d9fc73151dbe37bb8d1ede0000000000000000000000000000000000000000000000000000000000000001",
        "nonce": "0x63",
        "chainId": "0x1"
      },
      "additionalContracts": [],
      "isFixedGasLimit": false
    },
    {
      "hash": "0xa4f07314586b878b2f65765de7ba671e141993b2fe8ff484cb938755de4aac3d",
      "transactionType": "CALL",
      "contractName": null,
      "contractAddress": "0xdf0635c1ecfdf08146150691a97e2ff6a8aa1a90",
      "function": "setWhitelistedUser(address,bool)",
      "arguments": [
        "0xc9C9693b6A445D05Add0043662fad9Ac600Ad088",
        "true"
      ],
      "transaction": {
        "from": "0xb819a871d20913839c37f316dc914b0570bfc0ee",
        "to": "0xdf0635c1ecfdf08146150691a97e2ff6a8aa1a90",
        "gas": "0x11d0b",
        "value": "0x0",
        "input": "0x44710fbe000000000000000000000000c9c9693b6a445d05add0043662fad9ac600ad0880000000000000000000000000000000000000000000000000000000000000001",
        "nonce": "0x64",
        "chainId": "0x1"
      },
      "additionalContracts": [],
      "isFixedGasLimit": false
    },
    {
      "hash": "0x98c2a4bfcb054d203d92e3e9d4aa0d62366b5ca5504c8435db26e096eac77aad",
      "transactionType": "CALL",
      "contractName": null,
      "contractAddress": "0xdf0635c1ecfdf08146150691a97e2ff6a8aa1a90",
      "function": "setWhitelistedUser(address,bool)",
      "arguments": [
        "0x7EfE40B2E6dA8b28AaB6Bd2D622B9Cd7f5fE077c",
        "true"
      ],
      "transaction": {
        "from": "0xb819a871d20913839c37f316dc914b0570bfc0ee",
        "to": "0xdf0635c1ecfdf08146150691a97e2ff6a8aa1a90",
        "gas": "0x11d0b",
        "value": "0x0",
        "input": "0x44710fbe0000000000000000000000007efe40b2e6da8b28aab6bd2d622b9cd7f5fe077c0000000000000000000000000000000000000000000000000000000000000001",
        "nonce": "0x65",
        "chainId": "0x1"
      },
      "additionalContracts": [],
      "isFixedGasLimit": false
    },
    {
      "hash": "0x416ce78b887f8e4483f83823df2ee6cf4ac687aa7d19794f85575b638055c2be",
      "transactionType": "CALL",
      "contractName": null,
      "contractAddress": "0xdf0635c1ecfdf08146150691a97e2ff6a8aa1a90",
      "function": "setWhitelistedUser(address,bool)",
      "arguments": [
        "0xa22DCB8F0A2848289124086F35ae9dB2a0006962",
        "true"
      ],
      "transaction": {
        "from": "0xb819a871d20913839c37f316dc914b0570bfc0ee",
        "to": "0xdf0635c1ecfdf08146150691a97e2ff6a8aa1a90",
        "gas": "0x12dbf",
        "value": "0x0",
        "input": "0x44710fbe000000000000000000000000a22dcb8f0a2848289124086f35ae9db2a00069620000000000000000000000000000000000000000000000000000000000000001",
        "nonce": "0x66",
        "chainId": "0x1"
      },
      "additionalContracts": [],
      "isFixedGasLimit": false
    },
    {
      "hash": "0x1331c06b5f83b1feb8e7d9827efd29f09e74d1b1156919fde08e095c8864602e",
      "transactionType": "CALL",
      "contractName": null,
      "contractAddress": "0xdf0635c1ecfdf08146150691a97e2ff6a8aa1a90",
      "function": "setWhitelistedUser(address,bool)",
      "arguments": [
        "0xB819A871d20913839c37f316Dc914b0570bfc0eE",
        "true"
      ],
      "transaction": {
        "from": "0xb819a871d20913839c37f316dc914b0570bfc0ee",
        "to": "0xdf0635c1ecfdf08146150691a97e2ff6a8aa1a90",
        "gas": "0x11d0b",
        "value": "0x0",
        "input": "0x44710fbe000000000000000000000000b819a871d20913839c37f316dc914b0570bfc0ee0000000000000000000000000000000000000000000000000000000000000001",
        "nonce": "0x67",
        "chainId": "0x1"
      },
      "additionalContracts": [],
      "isFixedGasLimit": false
    },
    {
      "hash": "0x1788b4571bd3d6843c85eb56030324012daa690d6f5472a0cd614aa94d72657e",
      "transactionType": "CALL",
      "contractName": null,
      "contractAddress": "0xdf0635c1ecfdf08146150691a97e2ff6a8aa1a90",
      "function": "setWhitelistedUser(address,bool)",
      "arguments": [
        "0x40282d3Cf4890D9806BC1853e97a59C93D813653",
        "true"
      ],
      "transaction": {
        "from": "0xb819a871d20913839c37f316dc914b0570bfc0ee",
        "to": "0xdf0635c1ecfdf08146150691a97e2ff6a8aa1a90",
        "gas": "0x11d0b",
        "value": "0x0",
        "input": "0x44710fbe00000000000000000000000040282d3cf4890d9806bc1853e97a59c93d8136530000000000000000000000000000000000000000000000000000000000000001",
        "nonce": "0x68",
        "chainId": "0x1"
      },
      "additionalContracts": [],
      "isFixedGasLimit": false
    },
    {
      "hash": "0x686e8ed7fce345cfa31d8970b37bb4200da59220e71bf120b03f3847ec2427a2",
      "transactionType": "CALL",
      "contractName": null,
      "contractAddress": "0xdf0635c1ecfdf08146150691a97e2ff6a8aa1a90",
      "function": "setWhitelistedUser(address,bool)",
      "arguments": [
        "0xB5b901F1BB86421301138b5c45C1D3Fe96663161",
        "true"
      ],
      "transaction": {
        "from": "0xb819a871d20913839c37f316dc914b0570bfc0ee",
        "to": "0xdf0635c1ecfdf08146150691a97e2ff6a8aa1a90",
        "gas": "0x11d0b",
        "value": "0x0",
        "input": "0x44710fbe000000000000000000000000b5b901f1bb86421301138b5c45c1d3fe966631610000000000000000000000000000000000000000000000000000000000000001",
        "nonce": "0x69",
        "chainId": "0x1"
      },
      "additionalContracts": [],
      "isFixedGasLimit": false
    },
    {
      "hash": "0x3b6cf0855bd7d010edd9ff92b468e45bea90fc00288d262317938787a4a1ac05",
      "transactionType": "CALL",
      "contractName": null,
      "contractAddress": "0xdf0635c1ecfdf08146150691a97e2ff6a8aa1a90",
      "function": "setWhitelistedUser(address,bool)",
      "arguments": [
        "0xBAec8904499dcdee770c60df15b0C37EAC84Fb62",
        "true"
      ],
      "transaction": {
        "from": "0xb819a871d20913839c37f316dc914b0570bfc0ee",
        "to": "0xdf0635c1ecfdf08146150691a97e2ff6a8aa1a90",
        "gas": "0x11d0b",
        "value": "0x0",
        "input": "0x44710fbe000000000000000000000000baec8904499dcdee770c60df15b0c37eac84fb620000000000000000000000000000000000000000000000000000000000000001",
        "nonce": "0x6a",
        "chainId": "0x1"
      },
      "additionalContracts": [],
      "isFixedGasLimit": false
    },
    {
      "hash": "0x073ab0fa4fd082f152eb15d27e94ad6349442b7cb8b7202886c72dffbe064d9f",
      "transactionType": "CALL",
      "contractName": null,
      "contractAddress": "0xdf0635c1ecfdf08146150691a97e2ff6a8aa1a90",
      "function": "setWhitelistedUser(address,bool)",
      "arguments": [
        "0xfC4A23271b60887FC246B060B6931a08E2BC434c",
        "true"
      ],
      "transaction": {
        "from": "0xb819a871d20913839c37f316dc914b0570bfc0ee",
        "to": "0xdf0635c1ecfdf08146150691a97e2ff6a8aa1a90",
        "gas": "0x11d0b",
        "value": "0x0",
        "input": "0x44710fbe000000000000000000000000fc4a23271b60887fc246b060b6931a08e2bc434c0000000000000000000000000000000000000000000000000000000000000001",
        "nonce": "0x6b",
        "chainId": "0x1"
      },
      "additionalContracts": [],
      "isFixedGasLimit": false
    },
    {
      "hash": "0xe78272ca4b48202deb22b349d81d717cfd2d37730930a67aca920a3d7613122a",
      "transactionType": "CALL",
      "contractName": null,
      "contractAddress": "0xdf0635c1ecfdf08146150691a97e2ff6a8aa1a90",
      "function": "setWhitelistedUser(address,bool)",
      "arguments": [
        "0x65b142550aE82f4BB3792E1eEfb2FC35541A3837",
        "true"
      ],
      "transaction": {
        "from": "0xb819a871d20913839c37f316dc914b0570bfc0ee",
        "to": "0xdf0635c1ecfdf08146150691a97e2ff6a8aa1a90",
        "gas": "0x11d0b",
        "value": "0x0",
        "input": "0x44710fbe00000000000000000000000065b142550ae82f4bb3792e1eefb2fc35541a38370000000000000000000000000000000000000000000000000000000000000001",
        "nonce": "0x6c",
        "chainId": "0x1"
      },
      "additionalContracts": [],
      "isFixedGasLimit": false
    },
    {
      "hash": "0x642f30dbb25086117af5ede7a339fd77d749cdd2354efe657738c8ac571395c4",
      "transactionType": "CALL",
      "contractName": null,
      "contractAddress": "0xdf0635c1ecfdf08146150691a97e2ff6a8aa1a90",
      "function": "setWhitelistedUser(address,bool)",
      "arguments": [
        "0x75149feEBb20E1fE5Ddb89302a6d4bACE70c14Ce",
        "true"
      ],
      "transaction": {
        "from": "0xb819a871d20913839c37f316dc914b0570bfc0ee",
        "to": "0xdf0635c1ecfdf08146150691a97e2ff6a8aa1a90",
        "gas": "0x11d0b",
        "value": "0x0",
        "input": "0x44710fbe00000000000000000000000075149feebb20e1fe5ddb89302a6d4bace70c14ce0000000000000000000000000000000000000000000000000000000000000001",
        "nonce": "0x6d",
        "chainId": "0x1"
      },
      "additionalContracts": [],
      "isFixedGasLimit": false
    },
    {
      "hash": "0x109c8225a1526e9687b34ce2db259201e13a2d0768c75700f8f365d39e55aaa9",
      "transactionType": "CALL",
      "contractName": null,
      "contractAddress": "0xdf0635c1ecfdf08146150691a97e2ff6a8aa1a90",
      "function": "setWhitelistedUser(address,bool)",
      "arguments": [
        "0x65B6D4770DAdcFba6d363dE86aA4D9c76283cea0",
        "true"
      ],
      "transaction": {
        "from": "0xb819a871d20913839c37f316dc914b0570bfc0ee",
        "to": "0xdf0635c1ecfdf08146150691a97e2ff6a8aa1a90",
        "gas": "0x11d0b",
        "value": "0x0",
        "input": "0x44710fbe00000000000000000000000065b6d4770dadcfba6d363de86aa4d9c76283cea00000000000000000000000000000000000000000000000000000000000000001",
        "nonce": "0x6e",
        "chainId": "0x1"
      },
      "additionalContracts": [],
      "isFixedGasLimit": false
    },
    {
      "hash": "0xff24073c65d60746976c9b1be63f2e057d243dfe4b8b1ca82ba1a28cac737aeb",
      "transactionType": "CALL",
      "contractName": null,
      "contractAddress": "0xdf0635c1ecfdf08146150691a97e2ff6a8aa1a90",
      "function": "setWhitelistedUser(address,bool)",
      "arguments": [
        "0xa6A9fdDC94BB4FE7520A2eA1CC2c433e18683342",
        "true"
      ],
      "transaction": {
        "from": "0xb819a871d20913839c37f316dc914b0570bfc0ee",
        "to": "0xdf0635c1ecfdf08146150691a97e2ff6a8aa1a90",
        "gas": "0x11d0b",
        "value": "0x0",
        "input": "0x44710fbe000000000000000000000000a6a9fddc94bb4fe7520a2ea1cc2c433e186833420000000000000000000000000000000000000000000000000000000000000001",
        "nonce": "0x6f",
        "chainId": "0x1"
      },
      "additionalContracts": [],
      "isFixedGasLimit": false
    },
    {
      "hash": "0xa4256a5cad7f1a2d6ec3261e27544a8243da71e489df121e11cfd8c035336071",
      "transactionType": "CALL",
      "contractName": null,
      "contractAddress": "0xdf0635c1ecfdf08146150691a97e2ff6a8aa1a90",
      "function": "setWhitelistedUser(address,bool)",
      "arguments": [
        "0x18D04F05f80ADE5373849385a1c24E1E0a6d1744",
        "true"
      ],
      "transaction": {
        "from": "0xb819a871d20913839c37f316dc914b0570bfc0ee",
        "to": "0xdf0635c1ecfdf08146150691a97e2ff6a8aa1a90",
        "gas": "0x11d0b",
        "value": "0x0",
        "input": "0x44710fbe00000000000000000000000018d04f05f80ade5373849385a1c24e1e0a6d17440000000000000000000000000000000000000000000000000000000000000001",
        "nonce": "0x70",
        "chainId": "0x1"
      },
      "additionalContracts": [],
      "isFixedGasLimit": false
    },
    {
      "hash": "0x486a48c75e60e1997b34f93ba98edacf4b8f17778f4dd42d08b8c1b3c844342b",
      "transactionType": "CALL",
      "contractName": null,
      "contractAddress": "0xdf0635c1ecfdf08146150691a97e2ff6a8aa1a90",
      "function": "setWhitelistedUser(address,bool)",
      "arguments": [
        "0xBD9C90D6774CB5320B54Bb7998b6Bcc5e4A9071f",
        "true"
      ],
      "transaction": {
        "from": "0xb819a871d20913839c37f316dc914b0570bfc0ee",
        "to": "0xdf0635c1ecfdf08146150691a97e2ff6a8aa1a90",
        "gas": "0x11d0b",
        "value": "0x0",
        "input": "0x44710fbe000000000000000000000000bd9c90d6774cb5320b54bb7998b6bcc5e4a9071f0000000000000000000000000000000000000000000000000000000000000001",
        "nonce": "0x71",
        "chainId": "0x1"
      },
      "additionalContracts": [],
      "isFixedGasLimit": false
    },
    {
      "hash": "0xe0166c775a853955713d5795dc59a46398f1c152e7568bf812bb1b603452d070",
      "transactionType": "CALL",
      "contractName": null,
      "contractAddress": "0xdf0635c1ecfdf08146150691a97e2ff6a8aa1a90",
      "function": "setWhitelistedUser(address,bool)",
      "arguments": [
        "0x8f2eABa31B1b613ca78F2795bA05400F0583c5A4",
        "true"
      ],
      "transaction": {
        "from": "0xb819a871d20913839c37f316dc914b0570bfc0ee",
        "to": "0xdf0635c1ecfdf08146150691a97e2ff6a8aa1a90",
        "gas": "0x11d0b",
        "value": "0x0",
        "input": "0x44710fbe0000000000000000000000008f2eaba31b1b613ca78f2795ba05400f0583c5a40000000000000000000000000000000000000000000000000000000000000001",
        "nonce": "0x72",
        "chainId": "0x1"
      },
      "additionalContracts": [],
      "isFixedGasLimit": false
    },
    {
      "hash": "0xaf1886f0568cc143282dc1100f8792425dc41cb593bdf9a483467077712c7c15",
      "transactionType": "CALL",
      "contractName": null,
      "contractAddress": "0xdf0635c1ecfdf08146150691a97e2ff6a8aa1a90",
      "function": "setWhitelistedUser(address,bool)",
      "arguments": [
        "0x8f2eABa31B1b613ca78F2795bA05400F0583c5A4",
        "true"
      ],
      "transaction": {
        "from": "0xb819a871d20913839c37f316dc914b0570bfc0ee",
        "to": "0xdf0635c1ecfdf08146150691a97e2ff6a8aa1a90",
        "gas": "0xbc21",
        "value": "0x0",
        "input": "0x44710fbe0000000000000000000000008f2eaba31b1b613ca78f2795ba05400f0583c5a40000000000000000000000000000000000000000000000000000000000000001",
        "nonce": "0x73",
        "chainId": "0x1"
      },
      "additionalContracts": [],
      "isFixedGasLimit": false
    },
    {
      "hash": "0x4071fb8052759670beb30c683a6be668603f8830996a9bc89a695040c9dcad50",
      "transactionType": "CALL",
      "contractName": null,
      "contractAddress": "0xdf0635c1ecfdf08146150691a97e2ff6a8aa1a90",
      "function": "setWhitelistedUser(address,bool)",
      "arguments": [
        "0x50d8Deadd2b3140B151CaB2C4FB76F1f59b236F8",
        "true"
      ],
      "transaction": {
        "from": "0xb819a871d20913839c37f316dc914b0570bfc0ee",
        "to": "0xdf0635c1ecfdf08146150691a97e2ff6a8aa1a90",
        "gas": "0xbc21",
        "value": "0x0",
        "input": "0x44710fbe00000000000000000000000050d8deadd2b3140b151cab2c4fb76f1f59b236f80000000000000000000000000000000000000000000000000000000000000001",
        "nonce": "0x74",
        "chainId": "0x1"
      },
      "additionalContracts": [],
      "isFixedGasLimit": false
    },
    {
      "hash": "0xed490967a9dfaae489ab5d5eafb2fa8bc3507daaedccc56738c33c426960ddd6",
      "transactionType": "CALL",
      "contractName": null,
      "contractAddress": "0xdf0635c1ecfdf08146150691a97e2ff6a8aa1a90",
      "function": "setWhitelistedUser(address,bool)",
      "arguments": [
        "0x574582C44e3f1EF2cB29a7131B057FebBCC8244E",
        "true"
      ],
      "transaction": {
        "from": "0xb819a871d20913839c37f316dc914b0570bfc0ee",
        "to": "0xdf0635c1ecfdf08146150691a97e2ff6a8aa1a90",
        "gas": "0xbc21",
        "value": "0x0",
        "input": "0x44710fbe000000000000000000000000574582c44e3f1ef2cb29a7131b057febbcc8244e0000000000000000000000000000000000000000000000000000000000000001",
        "nonce": "0x75",
        "chainId": "0x1"
      },
      "additionalContracts": [],
      "isFixedGasLimit": false
    },
    {
      "hash": "0x0ad392419999d4ebe7ba341cb9f6011da1eef9baf2793fd81b37dec5dea1623d",
      "transactionType": "CALL",
      "contractName": null,
      "contractAddress": "0xdf0635c1ecfdf08146150691a97e2ff6a8aa1a90",
      "function": "setWhitelistedUser(address,bool)",
      "arguments": [
        "0xBd0Ce952bA069A1e15f3bf3916d4B07bBBdBC8B3",
        "true"
      ],
      "transaction": {
        "from": "0xb819a871d20913839c37f316dc914b0570bfc0ee",
        "to": "0xdf0635c1ecfdf08146150691a97e2ff6a8aa1a90",
        "gas": "0x11d0b",
        "value": "0x0",
        "input": "0x44710fbe000000000000000000000000bd0ce952ba069a1e15f3bf3916d4b07bbbdbc8b30000000000000000000000000000000000000000000000000000000000000001",
        "nonce": "0x76",
        "chainId": "0x1"
      },
      "additionalContracts": [],
      "isFixedGasLimit": false
    }
  ],
  "receipts": [
    {
      "status": "0x1",
      "cumulativeGasUsed": "0xd55168",
      "logs": [
        {
          "address": "0xdf0635c1ecfdf08146150691a97e2ff6a8aa1a90",
          "topics": [
            "0x4059c608a8f17b9b24a5a29662eb74934d39ea92ae22411868f07fcac29487a0",
            "0x000000000000000000000000f20a8950c368ec48323092d6e4acf90aadf2bdc6"
          ],
          "data": "0x0000000000000000000000000000000000000000000000000000000000000001",
          "blockHash": "0xafa53969ad034afa158d6e19c081df4b1b273eacc8fe874442902a7bb70a1abe",
          "blockNumber": "0x1573e5f",
          "blockTimestamp": "0x6827087f",
          "transactionHash": "0x3fd780a7312afa1c043e25921f2a6d10f738758885c679c57f1fb06dec48625f",
          "transactionIndex": "0x82",
          "logIndex": "0x176",
          "removed": false
        }
      ],
      "logsBloom": "0x00000000000001000000000000000000000000000000000000000000000000000000000000000000000000020000002000000000000000000000400000000000000000000000000000000000000000000000000000000000000000000000000000000000000000000000000000000000000000000000000000000000000000000000000000000000000000000000000000000000000000000000000000000000000000000040000000000000000000000000020000000000000000000000000000000000000000000000000000000000000000000000000000001000004000000000000000008000000000000000000000000000000000000000000000000000",
      "type": "0x2",
      "transactionHash": "0x3fd780a7312afa1c043e25921f2a6d10f738758885c679c57f1fb06dec48625f",
      "transactionIndex": "0x82",
      "blockHash": "0xafa53969ad034afa158d6e19c081df4b1b273eacc8fe874442902a7bb70a1abe",
      "blockNumber": "0x1573e5f",
      "gasUsed": "0xce5f",
      "effectiveGasPrice": "0x7fb58e6d",
      "from": "0xb819a871d20913839c37f316dc914b0570bfc0ee",
      "to": "0xdf0635c1ecfdf08146150691a97e2ff6a8aa1a90",
      "contractAddress": null
    },
    {
      "status": "0x1",
      "cumulativeGasUsed": "0xce212b",
      "logs": [
        {
          "address": "0xdf0635c1ecfdf08146150691a97e2ff6a8aa1a90",
          "topics": [
            "0x4059c608a8f17b9b24a5a29662eb74934d39ea92ae22411868f07fcac29487a0",
            "0x0000000000000000000000008e72a24221517e51502f20f387415a06b27a5b51"
          ],
          "data": "0x0000000000000000000000000000000000000000000000000000000000000001",
          "blockHash": "0x960af39bffe05052e4064e7772af9ffb86413d5e5df0179b47a7df35d21b48c1",
          "blockNumber": "0x1573e60",
          "blockTimestamp": "0x6827088b",
          "transactionHash": "0xe12766a1e7fc4915ae83247d3ea8b0ee7f2bdeb51a709feaa3a18a429c026963",
          "transactionIndex": "0xa5",
          "logIndex": "0x18a",
          "removed": false
        }
      ],
      "logsBloom": "0x00000000000001000000000000000000000000000000000000000000000000000000000000000000000000020000002000000000000000000000400000000000000000000000000000000000000000000000000000000000000000000000000000000000000000000000000000000000000000000000000000000800000000000000000000000000000000000000000000000000000000000000000000020000000000000040000000000000000000000000000000000000000000000000000000000000000000000000000000000000000000000001000000000000000000000000000000008000000000000000000000000000000000000000000000000000",
      "type": "0x2",
      "transactionHash": "0xe12766a1e7fc4915ae83247d3ea8b0ee7f2bdeb51a709feaa3a18a429c026963",
      "transactionIndex": "0xa5",
      "blockHash": "0x960af39bffe05052e4064e7772af9ffb86413d5e5df0179b47a7df35d21b48c1",
      "blockNumber": "0x1573e60",
      "gasUsed": "0xce5f",
      "effectiveGasPrice": "0x7d7d0c79",
      "from": "0xb819a871d20913839c37f316dc914b0570bfc0ee",
      "to": "0xdf0635c1ecfdf08146150691a97e2ff6a8aa1a90",
      "contractAddress": null
    },
    {
      "status": "0x1",
      "cumulativeGasUsed": "0xd7087e",
      "logs": [
        {
          "address": "0xdf0635c1ecfdf08146150691a97e2ff6a8aa1a90",
          "topics": [
            "0x4059c608a8f17b9b24a5a29662eb74934d39ea92ae22411868f07fcac29487a0",
            "0x00000000000000000000000050d8deadd2b3140b151cab2c4fb76f1f59b236f8"
          ],
          "data": "0x0000000000000000000000000000000000000000000000000000000000000001",
          "blockHash": "0x11fc258b72a7a09eb6cf38bd423880f539a9a5b13e36cd26821f97b4b2e434e8",
          "blockNumber": "0x1573e61",
          "blockTimestamp": "0x68270897",
          "transactionHash": "0x19a3e595b7d0a9fd54cd2bbfef270f1fa47a7c2b2fd5948f39ee3bc5298c746a",
          "transactionIndex": "0xa0",
          "logIndex": "0x170",
          "removed": false
        }
      ],
      "logsBloom": "0x00000000000001000000000000000000000000000000200000000000000000000000000000000000000000020000002000000000000000000000400000000000000000000000000000000000000000000000000000000000000000000000000000000000000000000000000000000000000000000000000000000000020000000000000000000000000000000000000000000000000000000000000000000000000000000040000000000000000000000000000000000000000000000000000000000000000000000000000000000000000000000000000000000000000000000000000000808000000000000000000000000000000000000000000000000000",
      "type": "0x2",
      "transactionHash": "0x19a3e595b7d0a9fd54cd2bbfef270f1fa47a7c2b2fd5948f39ee3bc5298c746a",
      "transactionIndex": "0xa0",
      "blockHash": "0x11fc258b72a7a09eb6cf38bd423880f539a9a5b13e36cd26821f97b4b2e434e8",
      "blockNumber": "0x1573e61",
      "gasUsed": "0xce5f",
      "effectiveGasPrice": "0x7d76d785",
      "from": "0xb819a871d20913839c37f316dc914b0570bfc0ee",
      "to": "0xdf0635c1ecfdf08146150691a97e2ff6a8aa1a90",
      "contractAddress": null
    },
    {
      "status": "0x1",
      "cumulativeGasUsed": "0xce2448",
      "logs": [
        {
          "address": "0xdf0635c1ecfdf08146150691a97e2ff6a8aa1a90",
          "topics": [
            "0x4059c608a8f17b9b24a5a29662eb74934d39ea92ae22411868f07fcac29487a0",
            "0x000000000000000000000000574582c44e3f1ef2cb29a7131b057febbcc8244e"
          ],
          "data": "0x0000000000000000000000000000000000000000000000000000000000000001",
          "blockHash": "0x467d8fca36240ec5d1aa0945479bfa7cbeb039c25f1c1d96c2a2a569d7016af1",
          "blockNumber": "0x1573e62",
          "blockTimestamp": "0x682708a3",
          "transactionHash": "0x1b6e7539d28fb7b048dd6c47567275b0cf6180f685b66dfd5aa24edb5ba0c840",
          "transactionIndex": "0xa4",
          "logIndex": "0x17d",
          "removed": false
        }
      ],
      "logsBloom": "0x00000000000001000000000000000000000000000000000000000000000000000000000000000000000000020000002000000000000000000000400000000000000000000000200000000000000000000000000000000000000000000000000000000000000000000000000000000000000000000000000000000000000000000000000000000000000000100000000000000000000000000000000000000000004000000040000000000000000000000000000000000000000000000000000000000000000000000000000000000000000000000000000000000000000000000000000000008000000000000000000000000000000000000000000000000000",
      "type": "0x2",
      "transactionHash": "0x1b6e7539d28fb7b048dd6c47567275b0cf6180f685b66dfd5aa24edb5ba0c840",
      "transactionIndex": "0xa4",
      "blockHash": "0x467d8fca36240ec5d1aa0945479bfa7cbeb039c25f1c1d96c2a2a569d7016af1",
      "blockNumber": "0x1573e62",
      "gasUsed": "0xce5f",
      "effectiveGasPrice": "0x7c9677c7",
      "from": "0xb819a871d20913839c37f316dc914b0570bfc0ee",
      "to": "0xdf0635c1ecfdf08146150691a97e2ff6a8aa1a90",
      "contractAddress": null
    },
    {
      "status": "0x1",
      "cumulativeGasUsed": "0xd134c0",
      "logs": [
        {
          "address": "0xdf0635c1ecfdf08146150691a97e2ff6a8aa1a90",
          "topics": [
            "0x4059c608a8f17b9b24a5a29662eb74934d39ea92ae22411868f07fcac29487a0",
            "0x000000000000000000000000281567fe62b587ec1755f6f33b80160f544dc5d0"
          ],
          "data": "0x0000000000000000000000000000000000000000000000000000000000000001",
          "blockHash": "0x8b1c99f80feb0207808723bd72c334e25ef9731f4174e516d7f8ab068607837c",
          "blockNumber": "0x1573e63",
          "blockTimestamp": "0x682708af",
          "transactionHash": "0xd51e2aa0471436501532bea945b1eedf2975a8bd51d0093ebce4d8ee7825febf",
          "transactionIndex": "0x9a",
          "logIndex": "0x15e",
          "removed": false
        }
      ],
      "logsBloom": "0x00200000000001000000000000000000000000000000000000000000000000000000000000000000000000020000002000000000000000000000400000000000000000000000000000000000000000000000000000000000000000000002000000000000000000000000000000000000000000000000000000000000000000000000000000000000000000000000000000000000800000000000000000000000000000000040000000000000000000000000000000000000000000000000000000000000000000000000000000000000000000000000000000000000000000000000000000008000000000000000000000000000000000000000000000000000",
      "type": "0x2",
      "transactionHash": "0xd51e2aa0471436501532bea945b1eedf2975a8bd51d0093ebce4d8ee7825febf",
      "transactionIndex": "0x9a",
      "blockHash": "0x8b1c99f80feb0207808723bd72c334e25ef9731f4174e516d7f8ab068607837c",
      "blockNumber": "0x1573e63",
      "gasUsed": "0xce5f",
      "effectiveGasPrice": "0x7c14b060",
      "from": "0xb819a871d20913839c37f316dc914b0570bfc0ee",
      "to": "0xdf0635c1ecfdf08146150691a97e2ff6a8aa1a90",
      "contractAddress": null
    },
    {
      "status": "0x1",
      "cumulativeGasUsed": "0x1332c5c",
      "logs": [
        {
          "address": "0xdf0635c1ecfdf08146150691a97e2ff6a8aa1a90",
          "topics": [
            "0x4059c608a8f17b9b24a5a29662eb74934d39ea92ae22411868f07fcac29487a0",
            "0x0000000000000000000000002705f6a8f01bd4a805d9fc73151dbe37bb8d1ede"
          ],
          "data": "0x0000000000000000000000000000000000000000000000000000000000000001",
          "blockHash": "0x7e8177f9fa2b225c568b9c58eb46d0b0fcd6fb0ee838b0a3dfaed640b9fc9986",
          "blockNumber": "0x1573e64",
          "blockTimestamp": "0x682708bb",
          "transactionHash": "0xae439a622d849cbaa93200401b4eccbc4c33a2282e61f2046226e4d88bfa7150",
          "transactionIndex": "0x87",
          "logIndex": "0x17a",
          "removed": false
        }
      ],
      "logsBloom": "0x00000000000001000000000000000000000000000000000000000000000040000000000000000000000000020000002000000000000000000000400000000000000000000000000000000000000000000000000000000040000000000000000000000000000000000000000000000000000000000000000000000040000000000000000000000000000000000000000000000000000000000000000000000000000000000040000000000000000000000000000000000000000000000000000000000000000000000000000000000000000000000000000000000000000000000000000000008000000000000000000000000000000000000000000000000000",
      "type": "0x2",
      "transactionHash": "0xae439a622d849cbaa93200401b4eccbc4c33a2282e61f2046226e4d88bfa7150",
      "transactionIndex": "0x87",
      "blockHash": "0x7e8177f9fa2b225c568b9c58eb46d0b0fcd6fb0ee838b0a3dfaed640b9fc9986",
      "blockNumber": "0x1573e64",
      "gasUsed": "0xce5f",
      "effectiveGasPrice": "0x7a2ff1ab",
      "from": "0xb819a871d20913839c37f316dc914b0570bfc0ee",
      "to": "0xdf0635c1ecfdf08146150691a97e2ff6a8aa1a90",
      "contractAddress": null
    },
    {
      "status": "0x1",
      "cumulativeGasUsed": "0x71b925",
      "logs": [
        {
          "address": "0xdf0635c1ecfdf08146150691a97e2ff6a8aa1a90",
          "topics": [
            "0x4059c608a8f17b9b24a5a29662eb74934d39ea92ae22411868f07fcac29487a0",
            "0x000000000000000000000000c9c9693b6a445d05add0043662fad9ac600ad088"
          ],
          "data": "0x0000000000000000000000000000000000000000000000000000000000000001",
          "blockHash": "0x96b2b9be1c2fbaa187762f91f77693b3cd8c28a00fb9b64f672851afc8ba0d1e",
          "blockNumber": "0x1573e65",
          "blockTimestamp": "0x682708c7",
          "transactionHash": "0xa4f07314586b878b2f65765de7ba671e141993b2fe8ff484cb938755de4aac3d",
          "transactionIndex": "0x51",
          "logIndex": "0xc7",
          "removed": false
        }
      ],
      "logsBloom": "0x00000000000001000000000000000000000000000000000000000000000000000000000010000000000000020000002000000000000000000000400000000000000000000000000000000000000000000000000000000000000000000000000000000000000000000000000000000000000000000000000000000000000000000000000000000000000000000000000000000000000000000000000000000000000000001040000000000000000000000000000000000000000000000000000000000001000000000000000000000000000000000000000000000000000000000000000000008000000000000000000000000000000000000000000000000000",
      "type": "0x2",
      "transactionHash": "0xa4f07314586b878b2f65765de7ba671e141993b2fe8ff484cb938755de4aac3d",
      "transactionIndex": "0x51",
      "blockHash": "0x96b2b9be1c2fbaa187762f91f77693b3cd8c28a00fb9b64f672851afc8ba0d1e",
      "blockNumber": "0x1573e65",
      "gasUsed": "0xce5f",
      "effectiveGasPrice": "0x7f6987b5",
      "from": "0xb819a871d20913839c37f316dc914b0570bfc0ee",
      "to": "0xdf0635c1ecfdf08146150691a97e2ff6a8aa1a90",
      "contractAddress": null
    },
    {
      "status": "0x1",
      "cumulativeGasUsed": "0x1356999",
      "logs": [
        {
          "address": "0xdf0635c1ecfdf08146150691a97e2ff6a8aa1a90",
          "topics": [
            "0x4059c608a8f17b9b24a5a29662eb74934d39ea92ae22411868f07fcac29487a0",
            "0x0000000000000000000000007efe40b2e6da8b28aab6bd2d622b9cd7f5fe077c"
          ],
          "data": "0x0000000000000000000000000000000000000000000000000000000000000001",
          "blockHash": "0x8d9e3e9e777f6b35a784b5581dd9f9114aa7730fb5c99b2a17f1b53b01a66d5f",
          "blockNumber": "0x1573e66",
          "blockTimestamp": "0x682708d3",
          "transactionHash": "0x98c2a4bfcb054d203d92e3e9d4aa0d62366b5ca5504c8435db26e096eac77aad",
          "transactionIndex": "0xce",
          "logIndex": "0x1d0",
          "removed": false
        }
      ],
      "logsBloom": "0x00000000000001000000000000000000000000000000000000000000000000000000000000000000000000020000002000000000000000000000400000000000000000000000000000080000000000000000000000000000000000000000000000000000000000000000000000000000000000000000000000000000000000000000000200000000000000000000000000000000000000000000000000000000000000000040000000000000000000000000000000000000000000000000000000000000000000000000000000000000000000800000000000000000000000000000000000008000000000000000000000000000000000000000000000000000",
      "type": "0x2",
      "transactionHash": "0x98c2a4bfcb054d203d92e3e9d4aa0d62366b5ca5504c8435db26e096eac77aad",
      "transactionIndex": "0xce",
      "blockHash": "0x8d9e3e9e777f6b35a784b5581dd9f9114aa7730fb5c99b2a17f1b53b01a66d5f",
      "blockNumber": "0x1573e66",
      "gasUsed": "0xce5f",
      "effectiveGasPrice": "0x76e6bec7",
      "from": "0xb819a871d20913839c37f316dc914b0570bfc0ee",
      "to": "0xdf0635c1ecfdf08146150691a97e2ff6a8aa1a90",
      "contractAddress": null
    },
    {
      "status": "0x1",
      "cumulativeGasUsed": "0x4e062c",
      "logs": [
        {
          "address": "0xdf0635c1ecfdf08146150691a97e2ff6a8aa1a90",
          "topics": [
            "0x4059c608a8f17b9b24a5a29662eb74934d39ea92ae22411868f07fcac29487a0",
            "0x000000000000000000000000a22dcb8f0a2848289124086f35ae9db2a0006962"
          ],
          "data": "0x0000000000000000000000000000000000000000000000000000000000000001",
          "blockHash": "0xd110e65e0afaaf8cda8487668756ef0d1caaab96948b6332c92f705f5f82fe2a",
          "blockNumber": "0x1573e67",
          "blockTimestamp": "0x682708df",
          "transactionHash": "0x416ce78b887f8e4483f83823df2ee6cf4ac687aa7d19794f85575b638055c2be",
          "transactionIndex": "0x2f",
          "logIndex": "0x41",
          "removed": false
        }
      ],
      "logsBloom": "0x00000000000001000100000000000000000000000000000000000000000000000000000000000000000000020000002000000000000000000000400000000000000000100000000000000000000000000000000000000000000000000000000000000000000000000000000000000000000000000000000000000000000000000000000000000000000000000000000000000000000000200000000000000000000000000040000000000000000000000000000000000000000000000000000000000000000000000000000000000000000000000000000000000000000000000000000000008000000000000000000000000000000000000000000000000000",
      "type": "0x2",
      "transactionHash": "0x416ce78b887f8e4483f83823df2ee6cf4ac687aa7d19794f85575b638055c2be",
      "transactionIndex": "0x2f",
      "blockHash": "0xd110e65e0afaaf8cda8487668756ef0d1caaab96948b6332c92f705f5f82fe2a",
      "blockNumber": "0x1573e67",
      "gasUsed": "0xce53",
      "effectiveGasPrice": "0x7ec4f913",
      "from": "0xb819a871d20913839c37f316dc914b0570bfc0ee",
      "to": "0xdf0635c1ecfdf08146150691a97e2ff6a8aa1a90",
      "contractAddress": null
    },
    {
      "status": "0x1",
      "cumulativeGasUsed": "0x17aacda",
      "logs": [
        {
          "address": "0xdf0635c1ecfdf08146150691a97e2ff6a8aa1a90",
          "topics": [
            "0x4059c608a8f17b9b24a5a29662eb74934d39ea92ae22411868f07fcac29487a0",
            "0x000000000000000000000000b819a871d20913839c37f316dc914b0570bfc0ee"
          ],
          "data": "0x0000000000000000000000000000000000000000000000000000000000000001",
          "blockHash": "0xfc2fba48dbe6428ad42261d1d0e0ef693a6ed7cfc3feb3d9cecca0d4c6c03a59",
          "blockNumber": "0x1573e68",
          "blockTimestamp": "0x682708eb",
          "transactionHash": "0x1331c06b5f83b1feb8e7d9827efd29f09e74d1b1156919fde08e095c8864602e",
          "transactionIndex": "0xfc",
          "logIndex": "0x2f4",
          "removed": false
        }
      ],
      "logsBloom": "0x00000000000001000000000000000000000000000000000000000000000000000000000000000000000000020000002000000000000000000000400000000002000000000080000000000000000000000000000000000000000000000000000000000000000000000000000000000000000000000000000000000000000000000000000000000000000000000000000000000000000000000000000000000000000000000040000000000000000000000000000000000000000000000000000000000000000000000000000000000000000000000000000000000200000000000000000000008000000000000000000000000000000000000000000000000000",
      "type": "0x2",
      "transactionHash": "0x1331c06b5f83b1feb8e7d9827efd29f09e74d1b1156919fde08e095c8864602e",
      "transactionIndex": "0xfc",
      "blockHash": "0xfc2fba48dbe6428ad42261d1d0e0ef693a6ed7cfc3feb3d9cecca0d4c6c03a59",
      "blockNumber": "0x1573e68",
      "gasUsed": "0xce5f",
      "effectiveGasPrice": "0x74213d42",
      "from": "0xb819a871d20913839c37f316dc914b0570bfc0ee",
      "to": "0xdf0635c1ecfdf08146150691a97e2ff6a8aa1a90",
      "contractAddress": null
    },
    {
      "status": "0x1",
      "cumulativeGasUsed": "0x869b0d",
      "logs": [
        {
          "address": "0xdf0635c1ecfdf08146150691a97e2ff6a8aa1a90",
          "topics": [
            "0x4059c608a8f17b9b24a5a29662eb74934d39ea92ae22411868f07fcac29487a0",
            "0x00000000000000000000000040282d3cf4890d9806bc1853e97a59c93d813653"
          ],
          "data": "0x0000000000000000000000000000000000000000000000000000000000000001",
          "blockHash": "0x08f58602cf34b252f400e357488e76e107e5d1f92836277dad92b60c7ea0399b",
          "blockNumber": "0x1573e69",
          "blockTimestamp": "0x682708f7",
          "transactionHash": "0x1788b4571bd3d6843c85eb56030324012daa690d6f5472a0cd614aa94d72657e",
          "transactionIndex": "0x72",
          "logIndex": "0xe6",
          "removed": false
        }
      ],
      "logsBloom": "0x00000000000001000000000000000000000000000000000000000000000000000000004000000000000000020000002000000000000000000000400000000000000000000000000000000000000000000000000000000000000000000000000000000000000000000000000000000000000000000000000000000000000000000000000040000000000000000000000000000000000200000000000000000000000000000040000000000000000000000000000000000000000000000000000000000000000000000000000000000000000000000000000000000000000000000000000000008000000000000000000000000000000000000000000000000000",
      "type": "0x2",
      "transactionHash": "0x1788b4571bd3d6843c85eb56030324012daa690d6f5472a0cd614aa94d72657e",
      "transactionIndex": "0x72",
      "blockHash": "0x08f58602cf34b252f400e357488e76e107e5d1f92836277dad92b60c7ea0399b",
      "blockNumber": "0x1573e69",
      "gasUsed": "0xce5f",
      "effectiveGasPrice": "0x7bee8478",
      "from": "0xb819a871d20913839c37f316dc914b0570bfc0ee",
      "to": "0xdf0635c1ecfdf08146150691a97e2ff6a8aa1a90",
      "contractAddress": null
    },
    {
      "status": "0x1",
      "cumulativeGasUsed": "0x1199172",
      "logs": [
        {
          "address": "0xdf0635c1ecfdf08146150691a97e2ff6a8aa1a90",
          "topics": [
            "0x4059c608a8f17b9b24a5a29662eb74934d39ea92ae22411868f07fcac29487a0",
            "0x000000000000000000000000b5b901f1bb86421301138b5c45c1d3fe96663161"
          ],
          "data": "0x0000000000000000000000000000000000000000000000000000000000000001",
          "blockHash": "0xfb2a93bfa4512a1de8d5a5bd589e946bc7c11f34ba58cc43bff86f466bc1d365",
          "blockNumber": "0x1573e6a",
          "blockTimestamp": "0x68270903",
          "transactionHash": "0x686e8ed7fce345cfa31d8970b37bb4200da59220e71bf120b03f3847ec2427a2",
          "transactionIndex": "0x9d",
          "logIndex": "0x218",
          "removed": false
        }
      ],
      "logsBloom": "0x00000000000001000000000000000000000000000000000000000000000000004000000000000000000000020000002000000000000000000000400000000000000000000000000000000000000000000000000000800000000000000000000000000000000000000000000000000000000000000000000000000000000000000000000000000000000000000000000000000000000000000000000000000000000000000040010000000000000000000000000000000000000000000000000000000000000000000000000000000000000000000000000000000000000000000000000000008000000000000000000000000000000000000000000000000000",
      "type": "0x2",
      "transactionHash": "0x686e8ed7fce345cfa31d8970b37bb4200da59220e71bf120b03f3847ec2427a2",
      "transactionIndex": "0x9d",
      "blockHash": "0xfb2a93bfa4512a1de8d5a5bd589e946bc7c11f34ba58cc43bff86f466bc1d365",
      "blockNumber": "0x1573e6a",
      "gasUsed": "0xce5f",
      "effectiveGasPrice": "0x75cb0cf5",
      "from": "0xb819a871d20913839c37f316dc914b0570bfc0ee",
      "to": "0xdf0635c1ecfdf08146150691a97e2ff6a8aa1a90",
      "contractAddress": null
    },
    {
      "status": "0x1",
      "cumulativeGasUsed": "0xdeba30",
      "logs": [
        {
          "address": "0xdf0635c1ecfdf08146150691a97e2ff6a8aa1a90",
          "topics": [
            "0x4059c608a8f17b9b24a5a29662eb74934d39ea92ae22411868f07fcac29487a0",
            "0x000000000000000000000000baec8904499dcdee770c60df15b0c37eac84fb62"
          ],
          "data": "0x0000000000000000000000000000000000000000000000000000000000000001",
          "blockHash": "0x1ac1826f5739e92ee8111c02ad1805366b885daded4de666759b496bdfcf91bc",
          "blockNumber": "0x1573e6b",
          "blockTimestamp": "0x6827090f",
          "transactionHash": "0x3b6cf0855bd7d010edd9ff92b468e45bea90fc00288d262317938787a4a1ac05",
          "transactionIndex": "0xa2",
          "logIndex": "0x1c6",
          "removed": false
        }
      ],
      "logsBloom": "0x00000000000001000000000000000000000000000000000000000000000000000000000000000000000000020000002000000000000000000000400000000000000000000000800000000000000080000000000000000000000000000000000000000000000000000000000000000000000000000000000000000000000000000000000000000000000000000000000000000000000000000000000000000000000000000040000000000000000000000000000000000000000000000000000000000000000000000000000000000000008000000000000000000000000000000000000000008000000000000000000000000000000000000000000000000000",
      "type": "0x2",
      "transactionHash": "0x3b6cf0855bd7d010edd9ff92b468e45bea90fc00288d262317938787a4a1ac05",
      "transactionIndex": "0xa2",
      "blockHash": "0x1ac1826f5739e92ee8111c02ad1805366b885daded4de666759b496bdfcf91bc",
      "blockNumber": "0x1573e6b",
      "gasUsed": "0xce5f",
      "effectiveGasPrice": "0x782e1111",
      "from": "0xb819a871d20913839c37f316dc914b0570bfc0ee",
      "to": "0xdf0635c1ecfdf08146150691a97e2ff6a8aa1a90",
      "contractAddress": null
    },
    {
      "status": "0x1",
      "cumulativeGasUsed": "0xfb2729",
      "logs": [
        {
          "address": "0xdf0635c1ecfdf08146150691a97e2ff6a8aa1a90",
          "topics": [
            "0x4059c608a8f17b9b24a5a29662eb74934d39ea92ae22411868f07fcac29487a0",
            "0x000000000000000000000000fc4a23271b60887fc246b060b6931a08e2bc434c"
          ],
          "data": "0x0000000000000000000000000000000000000000000000000000000000000001",
          "blockHash": "0xf0a86e49ca244b01dc644268b65834d81077a4f1db4da701289371c9803bb81a",
          "blockNumber": "0x1573e6c",
          "blockTimestamp": "0x6827091b",
          "transactionHash": "0x073ab0fa4fd082f152eb15d27e94ad6349442b7cb8b7202886c72dffbe064d9f",
          "transactionIndex": "0xb0",
          "logIndex": "0x1dc",
          "removed": false
        }
      ],
      "logsBloom": "0x00000200000001000000000000000000000000000000000000000000000000000000000000000000000000020000002000000000000000000000400000000000000000000000020000000000000000000000000000000000000000004000000000000000000000000000000000000000000000000000000000000000000000000000000000000000000000000000000000000000000000000000000000000000000000000040000000000000000000000000000000000000000000000000000000000000000000000000000000000000000000000000000000000000000000000000000000008000000000000000000000000000000000000000000000000000",
      "type": "0x2",
      "transactionHash": "0x073ab0fa4fd082f152eb15d27e94ad6349442b7cb8b7202886c72dffbe064d9f",
      "transactionIndex": "0xb0",
      "blockHash": "0xf0a86e49ca244b01dc644268b65834d81077a4f1db4da701289371c9803bb81a",
      "blockNumber": "0x1573e6c",
      "gasUsed": "0xce5f",
      "effectiveGasPrice": "0x76e10c40",
      "from": "0xb819a871d20913839c37f316dc914b0570bfc0ee",
      "to": "0xdf0635c1ecfdf08146150691a97e2ff6a8aa1a90",
      "contractAddress": null
    },
    {
      "status": "0x1",
      "cumulativeGasUsed": "0x9ba5cd",
      "logs": [
        {
          "address": "0xdf0635c1ecfdf08146150691a97e2ff6a8aa1a90",
          "topics": [
            "0x4059c608a8f17b9b24a5a29662eb74934d39ea92ae22411868f07fcac29487a0",
            "0x00000000000000000000000065b142550ae82f4bb3792e1eefb2fc35541a3837"
          ],
          "data": "0x0000000000000000000000000000000000000000000000000000000000000001",
          "blockHash": "0xda28611971795f929b8db2e5c2f3bcb79ca4e97f8834699ee64ca068e3af8692",
          "blockNumber": "0x1573e6d",
          "blockTimestamp": "0x68270927",
          "transactionHash": "0xe78272ca4b48202deb22b349d81d717cfd2d37730930a67aca920a3d7613122a",
          "transactionIndex": "0x79",
          "logIndex": "0x100",
          "removed": false
        }
      ],
      "logsBloom": "0x00000000000001000000000000000000000000000000000000000000000000000000000000000000000000020000002000000000000000000000400000000000000000000000000000000000000000000000000000000000000000000000000000000000000000000000000000000000000000000000000000000000000000000000000000000000000000000000000000000000000000000000000000000000000040000040000000000000000000080000000000000000000000000000000000000000000000000000000000000000000000000000000000000000008000000000000000008000000000000000000000000000000000000000000000000000",
      "type": "0x2",
      "transactionHash": "0xe78272ca4b48202deb22b349d81d717cfd2d37730930a67aca920a3d7613122a",
      "transactionIndex": "0x79",
      "blockHash": "0xda28611971795f929b8db2e5c2f3bcb79ca4e97f8834699ee64ca068e3af8692",
      "blockNumber": "0x1573e6d",
      "gasUsed": "0xce5f",
      "effectiveGasPrice": "0x780b8650",
      "from": "0xb819a871d20913839c37f316dc914b0570bfc0ee",
      "to": "0xdf0635c1ecfdf08146150691a97e2ff6a8aa1a90",
      "contractAddress": null
    },
    {
      "status": "0x1",
      "cumulativeGasUsed": "0x115abc2",
      "logs": [
        {
          "address": "0xdf0635c1ecfdf08146150691a97e2ff6a8aa1a90",
          "topics": [
            "0x4059c608a8f17b9b24a5a29662eb74934d39ea92ae22411868f07fcac29487a0",
            "0x00000000000000000000000075149feebb20e1fe5ddb89302a6d4bace70c14ce"
          ],
          "data": "0x0000000000000000000000000000000000000000000000000000000000000001",
          "blockHash": "0xc63f10a1292aded4adab283edfb85571b8017a4fb7bd02240a69b75bff6bb36e",
          "blockNumber": "0x1573e6e",
          "blockTimestamp": "0x68270933",
          "transactionHash": "0x642f30dbb25086117af5ede7a339fd77d749cdd2354efe657738c8ac571395c4",
          "transactionIndex": "0xbb",
          "logIndex": "0x20b",
          "removed": false
        }
      ],
      "logsBloom": "0x00000000000001200000000000000000000000000000000000000000000000000000000000000000040000020000002000000000000000000000400000000000000000000000000000000000000000000000000000000000000000000000000000000000000000000000000000000000000000000000000000000000000000000000000000000000000000000000000000000000000000000000000000000000000000000040000000000000000010000000000000000000000000000000000000000000000000000000000000000000000000000000000000000000000000000000000000008000000000000000000000000000000000000000000000000000",
      "type": "0x2",
      "transactionHash": "0x642f30dbb25086117af5ede7a339fd77d749cdd2354efe657738c8ac571395c4",
      "transactionIndex": "0xbb",
      "blockHash": "0xc63f10a1292aded4adab283edfb85571b8017a4fb7bd02240a69b75bff6bb36e",
      "blockNumber": "0x1573e6e",
      "gasUsed": "0xce5f",
      "effectiveGasPrice": "0x735e9dc7",
      "from": "0xb819a871d20913839c37f316dc914b0570bfc0ee",
      "to": "0xdf0635c1ecfdf08146150691a97e2ff6a8aa1a90",
      "contractAddress": null
    },
    {
      "status": "0x1",
      "cumulativeGasUsed": "0xfca989",
      "logs": [
        {
          "address": "0xdf0635c1ecfdf08146150691a97e2ff6a8aa1a90",
          "topics": [
            "0x4059c608a8f17b9b24a5a29662eb74934d39ea92ae22411868f07fcac29487a0",
            "0x00000000000000000000000065b6d4770dadcfba6d363de86aa4d9c76283cea0"
          ],
          "data": "0x0000000000000000000000000000000000000000000000000000000000000001",
          "blockHash": "0xc07536b23cf9ef7162c8fced05469c92f28324a64b47f3c2df1a0a4e066d0b70",
          "blockNumber": "0x1573e6f",
          "blockTimestamp": "0x6827093f",
          "transactionHash": "0x109c8225a1526e9687b34ce2db259201e13a2d0768c75700f8f365d39e55aaa9",
          "transactionIndex": "0xbe",
          "logIndex": "0x1b2",
          "removed": false
        }
      ],
      "logsBloom": "0x00000000800001000000000000000000000000000000000000000000000000000000000000000000000002020000002000000000000000000000400000000000000000000000000000000000000000000000000000000000000000000000000000000000000000000000000000000000000000000000000000000000000000000000000000000000000000000000000000000000000000000000000000000000000000000040000000000000000000000000000000000000000000000000000000000000000000000000000000000000002000000000000000000000000000000000000000008000000000000000000000000000000000000000000000000000",
      "type": "0x2",
      "transactionHash": "0x109c8225a1526e9687b34ce2db259201e13a2d0768c75700f8f365d39e55aaa9",
      "transactionIndex": "0xbe",
      "blockHash": "0xc07536b23cf9ef7162c8fced05469c92f28324a64b47f3c2df1a0a4e066d0b70",
      "blockNumber": "0x1573e6f",
      "gasUsed": "0xce5f",
      "effectiveGasPrice": "0x75ca752b",
      "from": "0xb819a871d20913839c37f316dc914b0570bfc0ee",
      "to": "0xdf0635c1ecfdf08146150691a97e2ff6a8aa1a90",
      "contractAddress": null
    },
    {
      "status": "0x1",
      "cumulativeGasUsed": "0x11a25d7",
      "logs": [
        {
          "address": "0xdf0635c1ecfdf08146150691a97e2ff6a8aa1a90",
          "topics": [
            "0x4059c608a8f17b9b24a5a29662eb74934d39ea92ae22411868f07fcac29487a0",
            "0x000000000000000000000000a6a9fddc94bb4fe7520a2ea1cc2c433e18683342"
          ],
          "data": "0x0000000000000000000000000000000000000000000000000000000000000001",
          "blockHash": "0x4d031d26d21b760e9d9fb9d0978d81d07dac0c03f252aa8b319b65f878df8f6c",
          "blockNumber": "0x1573e70",
          "blockTimestamp": "0x6827094b",
          "transactionHash": "0xff24073c65d60746976c9b1be63f2e057d243dfe4b8b1ca82ba1a28cac737aeb",
          "transactionIndex": "0xa3",
          "logIndex": "0x26d",
          "removed": false
        }
      ],
      "logsBloom": "0x00000000000041000000000000000000000000000000000000000000000000000000000000000000000000020000002000000000000000000000400000000000000000000000000000000000000000400000000000000000000000000000000000000000000000000000000000000000000000000000000000000000000000000000000000000000000000000000000000000000000000000000000000000000000000000040000002000000000000000000000000000000000000000000000000000000000000000000000000000000000000000000000000000000000000000000000000008000000000000000000000000000000000000000000000000000",
      "type": "0x2",
      "transactionHash": "0xff24073c65d60746976c9b1be63f2e057d243dfe4b8b1ca82ba1a28cac737aeb",
      "transactionIndex": "0xa3",
      "blockHash": "0x4d031d26d21b760e9d9fb9d0978d81d07dac0c03f252aa8b319b65f878df8f6c",
      "blockNumber": "0x1573e70",
      "gasUsed": "0xce5f",
      "effectiveGasPrice": "0x75cb8566",
      "from": "0xb819a871d20913839c37f316dc914b0570bfc0ee",
      "to": "0xdf0635c1ecfdf08146150691a97e2ff6a8aa1a90",
      "contractAddress": null
    },
    {
      "status": "0x1",
      "cumulativeGasUsed": "0xe0c14a",
      "logs": [
        {
          "address": "0xdf0635c1ecfdf08146150691a97e2ff6a8aa1a90",
          "topics": [
            "0x4059c608a8f17b9b24a5a29662eb74934d39ea92ae22411868f07fcac29487a0",
            "0x00000000000000000000000018d04f05f80ade5373849385a1c24e1e0a6d1744"
          ],
          "data": "0x0000000000000000000000000000000000000000000000000000000000000001",
          "blockHash": "0xbfb43e94d5e0cc7a27a159f699bf3bb1b18039e02a4078648d60114e6adace43",
          "blockNumber": "0x1573e71",
          "blockTimestamp": "0x68270957",
          "transactionHash": "0xa4256a5cad7f1a2d6ec3261e27544a8243da71e489df121e11cfd8c035336071",
          "transactionIndex": "0xa8",
          "logIndex": "0x1c5",
          "removed": false
        }
      ],
      "logsBloom": "0x00000000000001000000000000000000000000000000000000000000000000000000000000000000000000020000002000000000000000000000400000000000000000000000000000000000000100000000000000000000000000000000000000000000000000000000000000000000000000000000000000000000000000000000000000000000000000000000000000000000000000000000000000000000000000000040000000000000000000000000000000000000000000000000000000000000000100000000000000000000000000000000000000000000000000000000000000008000000000000004000000000000000000000000000000000000",
      "type": "0x2",
      "transactionHash": "0xa4256a5cad7f1a2d6ec3261e27544a8243da71e489df121e11cfd8c035336071",
      "transactionIndex": "0xa8",
      "blockHash": "0xbfb43e94d5e0cc7a27a159f699bf3bb1b18039e02a4078648d60114e6adace43",
      "blockNumber": "0x1573e71",
      "gasUsed": "0xce5f",
      "effectiveGasPrice": "0x78b95ab6",
      "from": "0xb819a871d20913839c37f316dc914b0570bfc0ee",
      "to": "0xdf0635c1ecfdf08146150691a97e2ff6a8aa1a90",
      "contractAddress": null
    },
    {
      "status": "0x1",
      "cumulativeGasUsed": "0xb8bcd1",
      "logs": [
        {
          "address": "0xdf0635c1ecfdf08146150691a97e2ff6a8aa1a90",
          "topics": [
            "0x4059c608a8f17b9b24a5a29662eb74934d39ea92ae22411868f07fcac29487a0",
            "0x000000000000000000000000bd9c90d6774cb5320b54bb7998b6bcc5e4a9071f"
          ],
          "data": "0x0000000000000000000000000000000000000000000000000000000000000001",
          "blockHash": "0xe20cf332bcf044196d9dd8fdf2f679387e8b62d2b4cbcf8ea6d6a568d858782c",
          "blockNumber": "0x1573e72",
          "blockTimestamp": "0x68270963",
          "transactionHash": "0x486a48c75e60e1997b34f93ba98edacf4b8f17778f4dd42d08b8c1b3c844342b",
          "transactionIndex": "0xac",
          "logIndex": "0x13c",
          "removed": false
        }
      ],
      "logsBloom": "0x00000000000001000000000000000000000000000000000000000000000000000000000000002000000000020000002000000000000040000000400000000000000000000000000000000000000000000000000000000000000000000000000000000000000000000000000000000000000000000000000000000000000000000000000000000000000000000000000000000000000000000000000000000000000000000040000000000000000000000000000000800000000000000000000000000000000000000000000000000000000000000000000000000000000000000000000000008000000000000000000000000000000000000000000000000000",
      "type": "0x2",
      "transactionHash": "0x486a48c75e60e1997b34f93ba98edacf4b8f17778f4dd42d08b8c1b3c844342b",
      "transactionIndex": "0xac",
      "blockHash": "0xe20cf332bcf044196d9dd8fdf2f679387e8b62d2b4cbcf8ea6d6a568d858782c",
      "blockNumber": "0x1573e72",
      "gasUsed": "0xce5f",
      "effectiveGasPrice": "0x7798668c",
      "from": "0xb819a871d20913839c37f316dc914b0570bfc0ee",
      "to": "0xdf0635c1ecfdf08146150691a97e2ff6a8aa1a90",
      "contractAddress": null
    },
    {
      "status": "0x1",
      "cumulativeGasUsed": "0x160cd70",
      "logs": [
        {
          "address": "0xdf0635c1ecfdf08146150691a97e2ff6a8aa1a90",
          "topics": [
            "0x4059c608a8f17b9b24a5a29662eb74934d39ea92ae22411868f07fcac29487a0",
            "0x0000000000000000000000008f2eaba31b1b613ca78f2795ba05400f0583c5a4"
          ],
          "data": "0x0000000000000000000000000000000000000000000000000000000000000001",
          "blockHash": "0xaa9d87ee477012cf562791549d697adec5698a77ceadc4828647298c63cf6755",
          "blockNumber": "0x1573e73",
          "blockTimestamp": "0x6827096f",
          "transactionHash": "0xe0166c775a853955713d5795dc59a46398f1c152e7568bf812bb1b603452d070",
          "transactionIndex": "0xd9",
          "logIndex": "0x250",
          "removed": false
        }
      ],
      "logsBloom": "0x00000000000001000000000000000000000000000000000000000000000000000000000000000000000000020000002000000000000000000000400000000000000000000000000000000000000000000000000000000000000000000000000000000000000000000000001000000000000000000000000000000000000000000000000000000000000000000000000000000000000000000000000000000000000000000040000000000000000000000000000000000000000000000000000000004000000000000000000000002000000000000000000000000000000000000000000000008000000000000000000000000000000000000000000000000000",
      "type": "0x2",
      "transactionHash": "0xe0166c775a853955713d5795dc59a46398f1c152e7568bf812bb1b603452d070",
      "transactionIndex": "0xd9",
      "blockHash": "0xaa9d87ee477012cf562791549d697adec5698a77ceadc4828647298c63cf6755",
      "blockNumber": "0x1573e73",
      "gasUsed": "0xce5f",
      "effectiveGasPrice": "0x755ef59f",
      "from": "0xb819a871d20913839c37f316dc914b0570bfc0ee",
      "to": "0xdf0635c1ecfdf08146150691a97e2ff6a8aa1a90",
      "contractAddress": null
    },
    {
      "status": "0x1",
      "cumulativeGasUsed": "0x760b12",
      "logs": [
        {
          "address": "0xdf0635c1ecfdf08146150691a97e2ff6a8aa1a90",
          "topics": [
            "0x4059c608a8f17b9b24a5a29662eb74934d39ea92ae22411868f07fcac29487a0",
            "0x0000000000000000000000008f2eaba31b1b613ca78f2795ba05400f0583c5a4"
          ],
          "data": "0x0000000000000000000000000000000000000000000000000000000000000001",
          "blockHash": "0x2bea19053774b1ed3db92a5930d08868a13e4ff87fdf32e9e1ff61f21ae85477",
          "blockNumber": "0x1573e74",
          "blockTimestamp": "0x6827097b",
          "transactionHash": "0xaf1886f0568cc143282dc1100f8792425dc41cb593bdf9a483467077712c7c15",
          "transactionIndex": "0x62",
          "logIndex": "0xb7",
          "removed": false
        }
      ],
      "logsBloom": "0x00000000000001000000000000000000000000000000000000000000000000000000000000000000000000020000002000000000000000000000400000000000000000000000000000000000000000000000000000000000000000000000000000000000000000000000001000000000000000000000000000000000000000000000000000000000000000000000000000000000000000000000000000000000000000000040000000000000000000000000000000000000000000000000000000004000000000000000000000002000000000000000000000000000000000000000000000008000000000000000000000000000000000000000000000000000",
      "type": "0x2",
      "transactionHash": "0xaf1886f0568cc143282dc1100f8792425dc41cb593bdf9a483467077712c7c15",
      "transactionIndex": "0x62",
      "blockHash": "0x2bea19053774b1ed3db92a5930d08868a13e4ff87fdf32e9e1ff61f21ae85477",
      "blockNumber": "0x1573e74",
      "gasUsed": "0x80a3",
      "effectiveGasPrice": "0x7bb33b41",
      "from": "0xb819a871d20913839c37f316dc914b0570bfc0ee",
      "to": "0xdf0635c1ecfdf08146150691a97e2ff6a8aa1a90",
      "contractAddress": null
    },
    {
      "status": "0x1",
      "cumulativeGasUsed": "0xecbf08",
      "logs": [
        {
          "address": "0xdf0635c1ecfdf08146150691a97e2ff6a8aa1a90",
          "topics": [
            "0x4059c608a8f17b9b24a5a29662eb74934d39ea92ae22411868f07fcac29487a0",
            "0x00000000000000000000000050d8deadd2b3140b151cab2c4fb76f1f59b236f8"
          ],
          "data": "0x0000000000000000000000000000000000000000000000000000000000000001",
          "blockHash": "0xd46da92487fadd04a4b6faef9a7390fb1baf5197639bc7ce70ff7e63f981a856",
          "blockNumber": "0x1573e75",
          "blockTimestamp": "0x68270987",
          "transactionHash": "0x4071fb8052759670beb30c683a6be668603f8830996a9bc89a695040c9dcad50",
          "transactionIndex": "0xd0",
          "logIndex": "0x1db",
          "removed": false
        }
      ],
      "logsBloom": "0x00000000000001000000000000000000000000000000200000000000000000000000000000000000000000020000002000000000000000000000400000000000000000000000000000000000000000000000000000000000000000000000000000000000000000000000000000000000000000000000000000000000020000000000000000000000000000000000000000000000000000000000000000000000000000000040000000000000000000000000000000000000000000000000000000000000000000000000000000000000000000000000000000000000000000000000000000808000000000000000000000000000000000000000000000000000",
      "type": "0x2",
      "transactionHash": "0x4071fb8052759670beb30c683a6be668603f8830996a9bc89a695040c9dcad50",
      "transactionIndex": "0xd0",
      "blockHash": "0xd46da92487fadd04a4b6faef9a7390fb1baf5197639bc7ce70ff7e63f981a856",
      "blockNumber": "0x1573e75",
      "gasUsed": "0x80a3",
      "effectiveGasPrice": "0x73f5ccf9",
      "from": "0xb819a871d20913839c37f316dc914b0570bfc0ee",
      "to": "0xdf0635c1ecfdf08146150691a97e2ff6a8aa1a90",
      "contractAddress": null
    },
    {
      "status": "0x1",
      "cumulativeGasUsed": "0x10ea191",
      "logs": [
        {
          "address": "0xdf0635c1ecfdf08146150691a97e2ff6a8aa1a90",
          "topics": [
            "0x4059c608a8f17b9b24a5a29662eb74934d39ea92ae22411868f07fcac29487a0",
            "0x000000000000000000000000574582c44e3f1ef2cb29a7131b057febbcc8244e"
          ],
          "data": "0x0000000000000000000000000000000000000000000000000000000000000001",
          "blockHash": "0x7033ee199fd8a354a1e8fd16fe074b72363d9d550cd0a35ee133bc9d028da230",
          "blockNumber": "0x1573e76",
          "blockTimestamp": "0x68270993",
          "transactionHash": "0xed490967a9dfaae489ab5d5eafb2fa8bc3507daaedccc56738c33c426960ddd6",
          "transactionIndex": "0xd8",
          "logIndex": "0x1ca",
          "removed": false
        }
      ],
      "logsBloom": "0x00000000000001000000000000000000000000000000000000000000000000000000000000000000000000020000002000000000000000000000400000000000000000000000200000000000000000000000000000000000000000000000000000000000000000000000000000000000000000000000000000000000000000000000000000000000000000100000000000000000000000000000000000000000004000000040000000000000000000000000000000000000000000000000000000000000000000000000000000000000000000000000000000000000000000000000000000008000000000000000000000000000000000000000000000000000",
      "type": "0x2",
      "transactionHash": "0xed490967a9dfaae489ab5d5eafb2fa8bc3507daaedccc56738c33c426960ddd6",
      "transactionIndex": "0xd8",
      "blockHash": "0x7033ee199fd8a354a1e8fd16fe074b72363d9d550cd0a35ee133bc9d028da230",
      "blockNumber": "0x1573e76",
      "gasUsed": "0x80a3",
      "effectiveGasPrice": "0x731099d1",
      "from": "0xb819a871d20913839c37f316dc914b0570bfc0ee",
      "to": "0xdf0635c1ecfdf08146150691a97e2ff6a8aa1a90",
      "contractAddress": null
    },
    {
      "status": "0x1",
      "cumulativeGasUsed": "0x350d41",
      "logs": [
        {
          "address": "0xdf0635c1ecfdf08146150691a97e2ff6a8aa1a90",
          "topics": [
            "0x4059c608a8f17b9b24a5a29662eb74934d39ea92ae22411868f07fcac29487a0",
            "0x000000000000000000000000bd0ce952ba069a1e15f3bf3916d4b07bbbdbc8b3"
          ],
          "data": "0x0000000000000000000000000000000000000000000000000000000000000001",
          "blockHash": "0xa132999f4979d5d85342d52ef786e0f3408782d13b9cb7f6b6c99a7718aac86c",
          "blockNumber": "0x1573e77",
          "blockTimestamp": "0x6827099f",
          "transactionHash": "0x0ad392419999d4ebe7ba341cb9f6011da1eef9baf2793fd81b37dec5dea1623d",
          "transactionIndex": "0x47",
          "logIndex": "0x4a",
          "removed": false
        }
      ],
      "logsBloom": "0x00000000000001000000000000000000000000000000000000000000000000000000000000000000000000020000002000000000000000000000400000000000000000000002000000000000000000000000000000000000000000000000000000000000000000000000000000000000000000000000000000000000000000000000000000000000000000000000000000000000000000000000000000000000000000000040000000000000000000000000000000000000000000000000000000000000008000000000010000000000000000000000000000000000000000000000000000008000000000000000000000000000000000000000000000000000",
      "type": "0x2",
      "transactionHash": "0x0ad392419999d4ebe7ba341cb9f6011da1eef9baf2793fd81b37dec5dea1623d",
      "transactionIndex": "0x47",
      "blockHash": "0xa132999f4979d5d85342d52ef786e0f3408782d13b9cb7f6b6c99a7718aac86c",
      "blockNumber": "0x1573e77",
      "gasUsed": "0xce5f",
      "effectiveGasPrice": "0x7677446a",
      "from": "0xb819a871d20913839c37f316dc914b0570bfc0ee",
      "to": "0xdf0635c1ecfdf08146150691a97e2ff6a8aa1a90",
      "contractAddress": null
    }
  ],
  "libraries": [],
  "pending": [],
  "returns": {},
  "timestamp": 1747388835,
  "chain": 1,
  "commit": "c569661"
}