{
  "transactions": [
    {
      "hash": "0x7bc7875175ee629442d887364684fef83eb4f4a1a35647e403eb6ac5b4875191",
      "transactionType": "CALL",
      "contractName": null,
      "contractAddress": "0x2b588f7f4832561e46924f3ea54c244569724915",
      "function": "setWhitelistedUser(address,bool)",
      "arguments": [
        "0xf20a8950c368Ec48323092D6e4acF90aADf2BdC6",
        "true"
      ],
      "transaction": {
        "from": "0xb819a871d20913839c37f316dc914b0570bfc0ee",
        "to": "0x2b588f7f4832561e46924f3ea54c244569724915",
        "gas": "0x11d0b",
        "value": "0x0",
        "input": "0x44710fbe000000000000000000000000f20a8950c368ec48323092d6e4acf90aadf2bdc60000000000000000000000000000000000000000000000000000000000000001",
        "nonce": "0x77",
        "chainId": "0x1"
      },
      "additionalContracts": [],
      "isFixedGasLimit": false
    },
    {
      "hash": "0x316e3e929632988adb518d07ce66f3ffb71cdb1299fee359e42a12446a7f64ce",
      "transactionType": "CALL",
      "contractName": null,
      "contractAddress": "0x2b588f7f4832561e46924f3ea54c244569724915",
      "function": "setWhitelistedUser(address,bool)",
      "arguments": [
        "0x8E72a24221517E51502f20f387415a06b27A5b51",
        "true"
      ],
      "transaction": {
        "from": "0xb819a871d20913839c37f316dc914b0570bfc0ee",
        "to": "0x2b588f7f4832561e46924f3ea54c244569724915",
        "gas": "0x11d0b",
        "value": "0x0",
        "input": "0x44710fbe0000000000000000000000008e72a24221517e51502f20f387415a06b27a5b510000000000000000000000000000000000000000000000000000000000000001",
        "nonce": "0x78",
        "chainId": "0x1"
      },
      "additionalContracts": [],
      "isFixedGasLimit": false
    },
    {
      "hash": "0x399bfc2ef76aa9a193f787008c05b175665254edac2424f98045ec3d2a61e766",
      "transactionType": "CALL",
      "contractName": null,
      "contractAddress": "0x2b588f7f4832561e46924f3ea54c244569724915",
      "function": "setWhitelistedUser(address,bool)",
      "arguments": [
        "0x50d8Deadd2b3140B151CaB2C4FB76F1f59b236F8",
        "true"
      ],
      "transaction": {
        "from": "0xb819a871d20913839c37f316dc914b0570bfc0ee",
        "to": "0x2b588f7f4832561e46924f3ea54c244569724915",
        "gas": "0x11d0b",
        "value": "0x0",
        "input": "0x44710fbe00000000000000000000000050d8deadd2b3140b151cab2c4fb76f1f59b236f80000000000000000000000000000000000000000000000000000000000000001",
        "nonce": "0x79",
        "chainId": "0x1"
      },
      "additionalContracts": [],
      "isFixedGasLimit": false
    },
    {
      "hash": "0x5d19ea063b771e1d1b2ed1b74b6e6a88108185738f73d0af788ae10393f7e633",
      "transactionType": "CALL",
      "contractName": null,
      "contractAddress": "0x2b588f7f4832561e46924f3ea54c244569724915",
      "function": "setWhitelistedUser(address,bool)",
      "arguments": [
        "0x574582C44e3f1EF2cB29a7131B057FebBCC8244E",
        "true"
      ],
      "transaction": {
        "from": "0xb819a871d20913839c37f316dc914b0570bfc0ee",
        "to": "0x2b588f7f4832561e46924f3ea54c244569724915",
        "gas": "0x11d0b",
        "value": "0x0",
        "input": "0x44710fbe000000000000000000000000574582c44e3f1ef2cb29a7131b057febbcc8244e0000000000000000000000000000000000000000000000000000000000000001",
        "nonce": "0x7a",
        "chainId": "0x1"
      },
      "additionalContracts": [],
      "isFixedGasLimit": false
    },
    {
      "hash": "0x45620c4795770d84ca960a17f825de0f4401baa93ab5f6798d4523ed679efd1d",
      "transactionType": "CALL",
      "contractName": null,
      "contractAddress": "0x2b588f7f4832561e46924f3ea54c244569724915",
      "function": "setWhitelistedUser(address,bool)",
      "arguments": [
        "0x281567fe62b587EC1755f6F33b80160F544Dc5d0",
        "true"
      ],
      "transaction": {
        "from": "0xb819a871d20913839c37f316dc914b0570bfc0ee",
        "to": "0x2b588f7f4832561e46924f3ea54c244569724915",
        "gas": "0x11d0b",
        "value": "0x0",
        "input": "0x44710fbe000000000000000000000000281567fe62b587ec1755f6f33b80160f544dc5d00000000000000000000000000000000000000000000000000000000000000001",
        "nonce": "0x7b",
        "chainId": "0x1"
      },
      "additionalContracts": [],
      "isFixedGasLimit": false
    },
    {
      "hash": "0x848a7938c54acfb076ff4bb5dc4deafa25e2c296388a6abf41de252d6566e8c2",
      "transactionType": "CALL",
      "contractName": null,
      "contractAddress": "0x2b588f7f4832561e46924f3ea54c244569724915",
      "function": "setWhitelistedUser(address,bool)",
      "arguments": [
        "0x2705f6A8F01bd4A805D9FC73151DBe37BB8d1edE",
        "true"
      ],
      "transaction": {
        "from": "0xb819a871d20913839c37f316dc914b0570bfc0ee",
        "to": "0x2b588f7f4832561e46924f3ea54c244569724915",
        "gas": "0x11d0b",
        "value": "0x0",
        "input": "0x44710fbe0000000000000000000000002705f6a8f01bd4a805d9fc73151dbe37bb8d1ede0000000000000000000000000000000000000000000000000000000000000001",
        "nonce": "0x7c",
        "chainId": "0x1"
      },
      "additionalContracts": [],
      "isFixedGasLimit": false
    },
    {
      "hash": "0x2badaa27d06d9b2b7bb342b8334dad1ff22d142677f2a26252d435d9271438d7",
      "transactionType": "CALL",
      "contractName": null,
      "contractAddress": "0x2b588f7f4832561e46924f3ea54c244569724915",
      "function": "setWhitelistedUser(address,bool)",
      "arguments": [
        "0xc9C9693b6A445D05Add0043662fad9Ac600Ad088",
        "true"
      ],
      "transaction": {
        "from": "0xb819a871d20913839c37f316dc914b0570bfc0ee",
        "to": "0x2b588f7f4832561e46924f3ea54c244569724915",
        "gas": "0x11d0b",
        "value": "0x0",
        "input": "0x44710fbe000000000000000000000000c9c9693b6a445d05add0043662fad9ac600ad0880000000000000000000000000000000000000000000000000000000000000001",
        "nonce": "0x7d",
        "chainId": "0x1"
      },
      "additionalContracts": [],
      "isFixedGasLimit": false
    },
    {
      "hash": "0x54b540a38264551b4f07378cd16e73abbe48347ba3150556c3ac8ed963ff8047",
      "transactionType": "CALL",
      "contractName": null,
      "contractAddress": "0x2b588f7f4832561e46924f3ea54c244569724915",
      "function": "setWhitelistedUser(address,bool)",
      "arguments": [
        "0x7EfE40B2E6dA8b28AaB6Bd2D622B9Cd7f5fE077c",
        "true"
      ],
      "transaction": {
        "from": "0xb819a871d20913839c37f316dc914b0570bfc0ee",
        "to": "0x2b588f7f4832561e46924f3ea54c244569724915",
        "gas": "0x11d0b",
        "value": "0x0",
        "input": "0x44710fbe0000000000000000000000007efe40b2e6da8b28aab6bd2d622b9cd7f5fe077c0000000000000000000000000000000000000000000000000000000000000001",
        "nonce": "0x7e",
        "chainId": "0x1"
      },
      "additionalContracts": [],
      "isFixedGasLimit": false
    },
    {
      "hash": "0x907d3f0fb6801845f0f270be752811c755df285a2864552cf44961a369d2cad1",
      "transactionType": "CALL",
      "contractName": null,
      "contractAddress": "0x2b588f7f4832561e46924f3ea54c244569724915",
      "function": "setWhitelistedUser(address,bool)",
      "arguments": [
        "0xa22DCB8F0A2848289124086F35ae9dB2a0006962",
        "true"
      ],
      "transaction": {
        "from": "0xb819a871d20913839c37f316dc914b0570bfc0ee",
        "to": "0x2b588f7f4832561e46924f3ea54c244569724915",
        "gas": "0x12dbf",
        "value": "0x0",
        "input": "0x44710fbe000000000000000000000000a22dcb8f0a2848289124086f35ae9db2a00069620000000000000000000000000000000000000000000000000000000000000001",
        "nonce": "0x7f",
        "chainId": "0x1"
      },
      "additionalContracts": [],
      "isFixedGasLimit": false
    },
    {
      "hash": "0xfc27b68a7f3e5349a03972bc405a10b6ba92f24320facfd2272485bc3715b05f",
      "transactionType": "CALL",
      "contractName": null,
      "contractAddress": "0x2b588f7f4832561e46924f3ea54c244569724915",
      "function": "setWhitelistedUser(address,bool)",
      "arguments": [
        "0xB819A871d20913839c37f316Dc914b0570bfc0eE",
        "true"
      ],
      "transaction": {
        "from": "0xb819a871d20913839c37f316dc914b0570bfc0ee",
        "to": "0x2b588f7f4832561e46924f3ea54c244569724915",
        "gas": "0x11d0b",
        "value": "0x0",
        "input": "0x44710fbe000000000000000000000000b819a871d20913839c37f316dc914b0570bfc0ee0000000000000000000000000000000000000000000000000000000000000001",
        "nonce": "0x80",
        "chainId": "0x1"
      },
      "additionalContracts": [],
      "isFixedGasLimit": false
    },
    {
      "hash": "0x5465065bd9dc7e37de29724ca9f33edb16b7d7fe20ccb96bf0a1082317427a29",
      "transactionType": "CALL",
      "contractName": null,
      "contractAddress": "0x2b588f7f4832561e46924f3ea54c244569724915",
      "function": "setWhitelistedUser(address,bool)",
      "arguments": [
        "0x40282d3Cf4890D9806BC1853e97a59C93D813653",
        "true"
      ],
      "transaction": {
        "from": "0xb819a871d20913839c37f316dc914b0570bfc0ee",
        "to": "0x2b588f7f4832561e46924f3ea54c244569724915",
        "gas": "0x11d0b",
        "value": "0x0",
        "input": "0x44710fbe00000000000000000000000040282d3cf4890d9806bc1853e97a59c93d8136530000000000000000000000000000000000000000000000000000000000000001",
        "nonce": "0x81",
        "chainId": "0x1"
      },
      "additionalContracts": [],
      "isFixedGasLimit": false
    },
    {
      "hash": "0x571302fb1ab7993d8b350f2a0598841657522c77b861f6362df209466902d07e",
      "transactionType": "CALL",
      "contractName": null,
      "contractAddress": "0x2b588f7f4832561e46924f3ea54c244569724915",
      "function": "setWhitelistedUser(address,bool)",
      "arguments": [
        "0xB5b901F1BB86421301138b5c45C1D3Fe96663161",
        "true"
      ],
      "transaction": {
        "from": "0xb819a871d20913839c37f316dc914b0570bfc0ee",
        "to": "0x2b588f7f4832561e46924f3ea54c244569724915",
        "gas": "0x11d0b",
        "value": "0x0",
        "input": "0x44710fbe000000000000000000000000b5b901f1bb86421301138b5c45c1d3fe966631610000000000000000000000000000000000000000000000000000000000000001",
        "nonce": "0x82",
        "chainId": "0x1"
      },
      "additionalContracts": [],
      "isFixedGasLimit": false
    },
    {
      "hash": "0x45f4f6c27abf68f9831d9021b39cb9f5b68d64efeae5e9685616897b8fef9ef1",
      "transactionType": "CALL",
      "contractName": null,
      "contractAddress": "0x2b588f7f4832561e46924f3ea54c244569724915",
      "function": "setWhitelistedUser(address,bool)",
      "arguments": [
        "0xBAec8904499dcdee770c60df15b0C37EAC84Fb62",
        "true"
      ],
      "transaction": {
        "from": "0xb819a871d20913839c37f316dc914b0570bfc0ee",
        "to": "0x2b588f7f4832561e46924f3ea54c244569724915",
        "gas": "0x11d0b",
        "value": "0x0",
        "input": "0x44710fbe000000000000000000000000baec8904499dcdee770c60df15b0c37eac84fb620000000000000000000000000000000000000000000000000000000000000001",
        "nonce": "0x83",
        "chainId": "0x1"
      },
      "additionalContracts": [],
      "isFixedGasLimit": false
    },
    {
      "hash": "0x430282e63d19d6794078e57d5d02e3bfd66f455c394be8d89084d1d73a37bdf4",
      "transactionType": "CALL",
      "contractName": null,
      "contractAddress": "0x2b588f7f4832561e46924f3ea54c244569724915",
      "function": "setWhitelistedUser(address,bool)",
      "arguments": [
        "0xfC4A23271b60887FC246B060B6931a08E2BC434c",
        "true"
      ],
      "transaction": {
        "from": "0xb819a871d20913839c37f316dc914b0570bfc0ee",
        "to": "0x2b588f7f4832561e46924f3ea54c244569724915",
        "gas": "0x11d0b",
        "value": "0x0",
        "input": "0x44710fbe000000000000000000000000fc4a23271b60887fc246b060b6931a08e2bc434c0000000000000000000000000000000000000000000000000000000000000001",
        "nonce": "0x84",
        "chainId": "0x1"
      },
      "additionalContracts": [],
      "isFixedGasLimit": false
    },
    {
      "hash": "0xf35b9aaa4c42d2afc5339986c67a49ec1fb6079258435d00d3fb6b15aa62fcde",
      "transactionType": "CALL",
      "contractName": null,
      "contractAddress": "0x2b588f7f4832561e46924f3ea54c244569724915",
      "function": "setWhitelistedUser(address,bool)",
      "arguments": [
        "0x65b142550aE82f4BB3792E1eEfb2FC35541A3837",
        "true"
      ],
      "transaction": {
        "from": "0xb819a871d20913839c37f316dc914b0570bfc0ee",
        "to": "0x2b588f7f4832561e46924f3ea54c244569724915",
        "gas": "0x11d0b",
        "value": "0x0",
        "input": "0x44710fbe00000000000000000000000065b142550ae82f4bb3792e1eefb2fc35541a38370000000000000000000000000000000000000000000000000000000000000001",
        "nonce": "0x85",
        "chainId": "0x1"
      },
      "additionalContracts": [],
      "isFixedGasLimit": false
    },
    {
      "hash": "0xf22876bcff1d6bdc87af3295e916e7f3decc0a135312b8da1cc567b6384daffd",
      "transactionType": "CALL",
      "contractName": null,
      "contractAddress": "0x2b588f7f4832561e46924f3ea54c244569724915",
      "function": "setWhitelistedUser(address,bool)",
      "arguments": [
        "0x75149feEBb20E1fE5Ddb89302a6d4bACE70c14Ce",
        "true"
      ],
      "transaction": {
        "from": "0xb819a871d20913839c37f316dc914b0570bfc0ee",
        "to": "0x2b588f7f4832561e46924f3ea54c244569724915",
        "gas": "0x11d0b",
        "value": "0x0",
        "input": "0x44710fbe00000000000000000000000075149feebb20e1fe5ddb89302a6d4bace70c14ce0000000000000000000000000000000000000000000000000000000000000001",
        "nonce": "0x86",
        "chainId": "0x1"
      },
      "additionalContracts": [],
      "isFixedGasLimit": false
    },
    {
      "hash": "0x7ee2f80c248140bc374a283aeef2351e04881da3b11f7e38e25263550e598aee",
      "transactionType": "CALL",
      "contractName": null,
      "contractAddress": "0x2b588f7f4832561e46924f3ea54c244569724915",
      "function": "setWhitelistedUser(address,bool)",
      "arguments": [
        "0x65B6D4770DAdcFba6d363dE86aA4D9c76283cea0",
        "true"
      ],
      "transaction": {
        "from": "0xb819a871d20913839c37f316dc914b0570bfc0ee",
        "to": "0x2b588f7f4832561e46924f3ea54c244569724915",
        "gas": "0x11d0b",
        "value": "0x0",
        "input": "0x44710fbe00000000000000000000000065b6d4770dadcfba6d363de86aa4d9c76283cea00000000000000000000000000000000000000000000000000000000000000001",
        "nonce": "0x87",
        "chainId": "0x1"
      },
      "additionalContracts": [],
      "isFixedGasLimit": false
    },
    {
      "hash": "0x09aa98a176b7bf10cf127c764f1230ba835c67cf707d6ec75bbf9de497bdcae7",
      "transactionType": "CALL",
      "contractName": null,
      "contractAddress": "0x2b588f7f4832561e46924f3ea54c244569724915",
      "function": "setWhitelistedUser(address,bool)",
      "arguments": [
        "0xa6A9fdDC94BB4FE7520A2eA1CC2c433e18683342",
        "true"
      ],
      "transaction": {
        "from": "0xb819a871d20913839c37f316dc914b0570bfc0ee",
        "to": "0x2b588f7f4832561e46924f3ea54c244569724915",
        "gas": "0x11d0b",
        "value": "0x0",
        "input": "0x44710fbe000000000000000000000000a6a9fddc94bb4fe7520a2ea1cc2c433e186833420000000000000000000000000000000000000000000000000000000000000001",
        "nonce": "0x88",
        "chainId": "0x1"
      },
      "additionalContracts": [],
      "isFixedGasLimit": false
    },
    {
      "hash": "0x80efcfcc137e786a48c81190528c3f807d74fe42166174b198530c4d467832db",
      "transactionType": "CALL",
      "contractName": null,
      "contractAddress": "0x2b588f7f4832561e46924f3ea54c244569724915",
      "function": "setWhitelistedUser(address,bool)",
      "arguments": [
        "0x18D04F05f80ADE5373849385a1c24E1E0a6d1744",
        "true"
      ],
      "transaction": {
        "from": "0xb819a871d20913839c37f316dc914b0570bfc0ee",
        "to": "0x2b588f7f4832561e46924f3ea54c244569724915",
        "gas": "0x11d0b",
        "value": "0x0",
        "input": "0x44710fbe00000000000000000000000018d04f05f80ade5373849385a1c24e1e0a6d17440000000000000000000000000000000000000000000000000000000000000001",
        "nonce": "0x89",
        "chainId": "0x1"
      },
      "additionalContracts": [],
      "isFixedGasLimit": false
    },
    {
      "hash": "0xb80768f9ac38bedbda3d2ef287be74a8ec494cc703884a4bee241192ef372821",
      "transactionType": "CALL",
      "contractName": null,
      "contractAddress": "0x2b588f7f4832561e46924f3ea54c244569724915",
      "function": "setWhitelistedUser(address,bool)",
      "arguments": [
        "0xBD9C90D6774CB5320B54Bb7998b6Bcc5e4A9071f",
        "true"
      ],
      "transaction": {
        "from": "0xb819a871d20913839c37f316dc914b0570bfc0ee",
        "to": "0x2b588f7f4832561e46924f3ea54c244569724915",
        "gas": "0x11d0b",
        "value": "0x0",
        "input": "0x44710fbe000000000000000000000000bd9c90d6774cb5320b54bb7998b6bcc5e4a9071f0000000000000000000000000000000000000000000000000000000000000001",
        "nonce": "0x8a",
        "chainId": "0x1"
      },
      "additionalContracts": [],
      "isFixedGasLimit": false
    },
    {
      "hash": "0x668580462c43e37ae227ed8302bbf28b78047ff016db8ab5cd36fd21c8500b5a",
      "transactionType": "CALL",
      "contractName": null,
      "contractAddress": "0x2b588f7f4832561e46924f3ea54c244569724915",
      "function": "setWhitelistedUser(address,bool)",
      "arguments": [
        "0x8f2eABa31B1b613ca78F2795bA05400F0583c5A4",
        "true"
      ],
      "transaction": {
        "from": "0xb819a871d20913839c37f316dc914b0570bfc0ee",
        "to": "0x2b588f7f4832561e46924f3ea54c244569724915",
        "gas": "0x11d0b",
        "value": "0x0",
        "input": "0x44710fbe0000000000000000000000008f2eaba31b1b613ca78f2795ba05400f0583c5a40000000000000000000000000000000000000000000000000000000000000001",
        "nonce": "0x8b",
        "chainId": "0x1"
      },
      "additionalContracts": [],
      "isFixedGasLimit": false
    },
    {
      "hash": "0xe2b3c753fdb008549df20165d77680d7225ce82ffa7ef7b702cc60ed53c2dfa3",
      "transactionType": "CALL",
      "contractName": null,
      "contractAddress": "0x2b588f7f4832561e46924f3ea54c244569724915",
      "function": "setWhitelistedUser(address,bool)",
      "arguments": [
        "0x8f2eABa31B1b613ca78F2795bA05400F0583c5A4",
        "true"
      ],
      "transaction": {
        "from": "0xb819a871d20913839c37f316dc914b0570bfc0ee",
        "to": "0x2b588f7f4832561e46924f3ea54c244569724915",
        "gas": "0xbc21",
        "value": "0x0",
        "input": "0x44710fbe0000000000000000000000008f2eaba31b1b613ca78f2795ba05400f0583c5a40000000000000000000000000000000000000000000000000000000000000001",
        "nonce": "0x8c",
        "chainId": "0x1"
      },
      "additionalContracts": [],
      "isFixedGasLimit": false
    },
    {
      "hash": "0x8ddf2ef126b1a1403ed1c9d235279149e2e73560598b4f33f1e860bc1769112b",
      "transactionType": "CALL",
      "contractName": null,
      "contractAddress": "0x2b588f7f4832561e46924f3ea54c244569724915",
      "function": "setWhitelistedUser(address,bool)",
      "arguments": [
        "0x50d8Deadd2b3140B151CaB2C4FB76F1f59b236F8",
        "true"
      ],
      "transaction": {
        "from": "0xb819a871d20913839c37f316dc914b0570bfc0ee",
        "to": "0x2b588f7f4832561e46924f3ea54c244569724915",
        "gas": "0xbc21",
        "value": "0x0",
        "input": "0x44710fbe00000000000000000000000050d8deadd2b3140b151cab2c4fb76f1f59b236f80000000000000000000000000000000000000000000000000000000000000001",
        "nonce": "0x8d",
        "chainId": "0x1"
      },
      "additionalContracts": [],
      "isFixedGasLimit": false
    },
    {
      "hash": "0x2ae12b42772dc46ce117d17fcdc72bef9999177bffbfc7c91cf9ff190737770f",
      "transactionType": "CALL",
      "contractName": null,
      "contractAddress": "0x2b588f7f4832561e46924f3ea54c244569724915",
      "function": "setWhitelistedUser(address,bool)",
      "arguments": [
        "0x574582C44e3f1EF2cB29a7131B057FebBCC8244E",
        "true"
      ],
      "transaction": {
        "from": "0xb819a871d20913839c37f316dc914b0570bfc0ee",
        "to": "0x2b588f7f4832561e46924f3ea54c244569724915",
        "gas": "0xbc21",
        "value": "0x0",
        "input": "0x44710fbe000000000000000000000000574582c44e3f1ef2cb29a7131b057febbcc8244e0000000000000000000000000000000000000000000000000000000000000001",
        "nonce": "0x8e",
        "chainId": "0x1"
      },
      "additionalContracts": [],
      "isFixedGasLimit": false
    },
    {
      "hash": "0xb557152092dbd8d6c5d80d12ef3979e2cc52f442a6e77059c95d4edb093fc5db",
      "transactionType": "CALL",
      "contractName": null,
      "contractAddress": "0x2b588f7f4832561e46924f3ea54c244569724915",
      "function": "setWhitelistedUser(address,bool)",
      "arguments": [
        "0xBd0Ce952bA069A1e15f3bf3916d4B07bBBdBC8B3",
        "true"
      ],
      "transaction": {
        "from": "0xb819a871d20913839c37f316dc914b0570bfc0ee",
        "to": "0x2b588f7f4832561e46924f3ea54c244569724915",
        "gas": "0x11d0b",
        "value": "0x0",
        "input": "0x44710fbe000000000000000000000000bd0ce952ba069a1e15f3bf3916d4b07bbbdbc8b30000000000000000000000000000000000000000000000000000000000000001",
        "nonce": "0x8f",
        "chainId": "0x1"
      },
      "additionalContracts": [],
      "isFixedGasLimit": false
    }
  ],
  "receipts": [
    {
      "status": "0x1",
      "cumulativeGasUsed": "0xf31f04",
      "logs": [
        {
          "address": "0x2b588f7f4832561e46924f3ea54c244569724915",
          "topics": [
            "0x4059c608a8f17b9b24a5a29662eb74934d39ea92ae22411868f07fcac29487a0",
            "0x000000000000000000000000f20a8950c368ec48323092d6e4acf90aadf2bdc6"
          ],
          "data": "0x0000000000000000000000000000000000000000000000000000000000000001",
          "blockHash": "0x5fbd70a08a32bbe44978f58709bdcb3277d0fe02fa9f31531011c4e947339523",
          "blockNumber": "0x1573e89",
          "blockTimestamp": "0x68270a77",
          "transactionHash": "0x7bc7875175ee629442d887364684fef83eb4f4a1a35647e403eb6ac5b4875191",
          "transactionIndex": "0x115",
          "logIndex": "0x19e",
          "removed": false
        }
      ],
      "logsBloom": "0x00000000000000000000000000000000000000000000000000000000000000000000000000000000000000020000000000000000000000000000000000020000000000200000000000000000000000000000000000000000000000000000000000000000000000000000000000000000000000000000000000000000000000000000000000000000000000000000000000000000000000000000000000000000000000000040000000000000000000000000020000000000000000000000000000000000000000000000000000000000000000000000000000001000004000000000000000008000000000000000000000000000000000000000000000020000",
      "type": "0x2",
      "transactionHash": "0x7bc7875175ee629442d887364684fef83eb4f4a1a35647e403eb6ac5b4875191",
      "transactionIndex": "0x115",
      "blockHash": "0x5fbd70a08a32bbe44978f58709bdcb3277d0fe02fa9f31531011c4e947339523",
      "blockNumber": "0x1573e89",
      "gasUsed": "0xce5f",
      "effectiveGasPrice": "0x76176373",
      "from": "0xb819a871d20913839c37f316dc914b0570bfc0ee",
      "to": "0x2b588f7f4832561e46924f3ea54c244569724915",
      "contractAddress": null
    },
    {
      "status": "0x1",
      "cumulativeGasUsed": "0xb36f9b",
      "logs": [
        {
          "address": "0x2b588f7f4832561e46924f3ea54c244569724915",
          "topics": [
            "0x4059c608a8f17b9b24a5a29662eb74934d39ea92ae22411868f07fcac29487a0",
            "0x0000000000000000000000008e72a24221517e51502f20f387415a06b27a5b51"
          ],
          "data": "0x0000000000000000000000000000000000000000000000000000000000000001",
          "blockHash": "0xaa6723b6548270c660356dd0724df192c543309eb499e7941d374d67f2c21675",
          "blockNumber": "0x1573e8a",
          "blockTimestamp": "0x68270a83",
          "transactionHash": "0x316e3e929632988adb518d07ce66f3ffb71cdb1299fee359e42a12446a7f64ce",
          "transactionIndex": "0x99",
          "logIndex": "0x116",
          "removed": false
        }
      ],
      "logsBloom": "0x00000000000000000000000000000000000000000000000000000000000000000000000000000000000000020000000000000000000000000000000000020000000000200000000000000000000000000000000000000000000000000000000000000000000000000000000000000000000000000000000000000800000000000000000000000000000000000000000000000000000000000000000000020000000000000040000000000000000000000000000000000000000000000000000000000000000000000000000000000000000000000001000000000000000000000000000000008000000000000000000000000000000000000000000000020000",
      "type": "0x2",
      "transactionHash": "0x316e3e929632988adb518d07ce66f3ffb71cdb1299fee359e42a12446a7f64ce",
      "transactionIndex": "0x99",
      "blockHash": "0xaa6723b6548270c660356dd0724df192c543309eb499e7941d374d67f2c21675",
      "blockNumber": "0x1573e8a",
      "gasUsed": "0xce5f",
      "effectiveGasPrice": "0x763287ba",
      "from": "0xb819a871d20913839c37f316dc914b0570bfc0ee",
      "to": "0x2b588f7f4832561e46924f3ea54c244569724915",
      "contractAddress": null
    },
    {
      "status": "0x1",
      "cumulativeGasUsed": "0xca5875",
      "logs": [
        {
          "address": "0x2b588f7f4832561e46924f3ea54c244569724915",
          "topics": [
            "0x4059c608a8f17b9b24a5a29662eb74934d39ea92ae22411868f07fcac29487a0",
            "0x00000000000000000000000050d8deadd2b3140b151cab2c4fb76f1f59b236f8"
          ],
          "data": "0x0000000000000000000000000000000000000000000000000000000000000001",
          "blockHash": "0xf781b37dc10d43b90fa1c93f00a4bca138908ebb6f6ba26afc7ac4b664b0a1ef",
          "blockNumber": "0x1573e8b",
          "blockTimestamp": "0x68270a8f",
          "transactionHash": "0x399bfc2ef76aa9a193f787008c05b175665254edac2424f98045ec3d2a61e766",
          "transactionIndex": "0x8c",
          "logIndex": "0x19f",
          "removed": false
        }
      ],
      "logsBloom": "0x00000000000000000000000000000000000000000000200000000000000000000000000000000000000000020000000000000000000000000000000000020000000000200000000000000000000000000000000000000000000000000000000000000000000000000000000000000000000000000000000000000000020000000000000000000000000000000000000000000000000000000000000000000000000000000040000000000000000000000000000000000000000000000000000000000000000000000000000000000000000000000000000000000000000000000000000000808000000000000000000000000000000000000000000000020000",
      "type": "0x2",
      "transactionHash": "0x399bfc2ef76aa9a193f787008c05b175665254edac2424f98045ec3d2a61e766",
      "transactionIndex": "0x8c",
      "blockHash": "0xf781b37dc10d43b90fa1c93f00a4bca138908ebb6f6ba26afc7ac4b664b0a1ef",
      "blockNumber": "0x1573e8b",
      "gasUsed": "0xce5f",
      "effectiveGasPrice": "0x744780de",
      "from": "0xb819a871d20913839c37f316dc914b0570bfc0ee",
      "to": "0x2b588f7f4832561e46924f3ea54c244569724915",
      "contractAddress": null
    },
    {
      "status": "0x1",
      "cumulativeGasUsed": "0x984532",
      "logs": [
        {
          "address": "0x2b588f7f4832561e46924f3ea54c244569724915",
          "topics": [
            "0x4059c608a8f17b9b24a5a29662eb74934d39ea92ae22411868f07fcac29487a0",
            "0x000000000000000000000000574582c44e3f1ef2cb29a7131b057febbcc8244e"
          ],
          "data": "0x0000000000000000000000000000000000000000000000000000000000000001",
          "blockHash": "0xbf53c5362ba5ec214bba2e3af3085da6ea53dfadcd566ddc69614ee3bf88ea4d",
          "blockNumber": "0x1573e8c",
          "blockTimestamp": "0x68270a9b",
          "transactionHash": "0x5d19ea063b771e1d1b2ed1b74b6e6a88108185738f73d0af788ae10393f7e633",
          "transactionIndex": "0x8a",
          "logIndex": "0x114",
          "removed": false
        }
      ],
      "logsBloom": "0x00000000000000000000000000000000000000000000000000000000000000000000000000000000000000020000000000000000000000000000000000020000000000200000200000000000000000000000000000000000000000000000000000000000000000000000000000000000000000000000000000000000000000000000000000000000000000100000000000000000000000000000000000000000004000000040000000000000000000000000000000000000000000000000000000000000000000000000000000000000000000000000000000000000000000000000000000008000000000000000000000000000000000000000000000020000",
      "type": "0x2",
      "transactionHash": "0x5d19ea063b771e1d1b2ed1b74b6e6a88108185738f73d0af788ae10393f7e633",
      "transactionIndex": "0x8a",
      "blockHash": "0xbf53c5362ba5ec214bba2e3af3085da6ea53dfadcd566ddc69614ee3bf88ea4d",
      "blockNumber": "0x1573e8c",
      "gasUsed": "0xce5f",
      "effectiveGasPrice": "0x72041c3c",
      "from": "0xb819a871d20913839c37f316dc914b0570bfc0ee",
      "to": "0x2b588f7f4832561e46924f3ea54c244569724915",
      "contractAddress": null
    },
    {
      "status": "0x1",
      "cumulativeGasUsed": "0x123d23b",
      "logs": [
        {
          "address": "0x2b588f7f4832561e46924f3ea54c244569724915",
          "topics": [
            "0x4059c608a8f17b9b24a5a29662eb74934d39ea92ae22411868f07fcac29487a0",
            "0x000000000000000000000000281567fe62b587ec1755f6f33b80160f544dc5d0"
          ],
          "data": "0x0000000000000000000000000000000000000000000000000000000000000001",
          "blockHash": "0x5da2d32ca7137a27c400edf89678f67218681a90230718dcc4ea06f732b748b6",
          "blockNumber": "0x1573e8d",
          "blockTimestamp": "0x68270aa7",
          "transactionHash": "0x45620c4795770d84ca960a17f825de0f4401baa93ab5f6798d4523ed679efd1d",
          "transactionIndex": "0xcc",
          "logIndex": "0x23e",
          "removed": false
        }
      ],
      "logsBloom": "0x00200000000000000000000000000000000000000000000000000000000000000000000000000000000000020000000000000000000000000000000000020000000000200000000000000000000000000000000000000000000000000002000000000000000000000000000000000000000000000000000000000000000000000000000000000000000000000000000000000000800000000000000000000000000000000040000000000000000000000000000000000000000000000000000000000000000000000000000000000000000000000000000000000000000000000000000000008000000000000000000000000000000000000000000000020000",
      "type": "0x2",
      "transactionHash": "0x45620c4795770d84ca960a17f825de0f4401baa93ab5f6798d4523ed679efd1d",
      "transactionIndex": "0xcc",
      "blockHash": "0x5da2d32ca7137a27c400edf89678f67218681a90230718dcc4ea06f732b748b6",
      "blockNumber": "0x1573e8d",
      "gasUsed": "0xce5f",
      "effectiveGasPrice": "0x6d952ebd",
      "from": "0xb819a871d20913839c37f316dc914b0570bfc0ee",
      "to": "0x2b588f7f4832561e46924f3ea54c244569724915",
      "contractAddress": null
    },
    {
      "status": "0x1",
      "cumulativeGasUsed": "0x62d458",
      "logs": [
        {
          "address": "0x2b588f7f4832561e46924f3ea54c244569724915",
          "topics": [
            "0x4059c608a8f17b9b24a5a29662eb74934d39ea92ae22411868f07fcac29487a0",
            "0x0000000000000000000000002705f6a8f01bd4a805d9fc73151dbe37bb8d1ede"
          ],
          "data": "0x0000000000000000000000000000000000000000000000000000000000000001",
          "blockHash": "0xd68774e24ee726a9d64b892bf3b77528316be6b3b47420c5ef98c75643b8bd58",
          "blockNumber": "0x1573e8e",
          "blockTimestamp": "0x68270ab3",
          "transactionHash": "0x848a7938c54acfb076ff4bb5dc4deafa25e2c296388a6abf41de252d6566e8c2",
          "transactionIndex": "0x78",
          "logIndex": "0x79",
          "removed": false
        }
      ],
      "logsBloom": "0x00000000000000000000000000000000000000000000000000000000000040000000000000000000000000020000000000000000000000000000000000020000000000200000000000000000000000000000000000000040000000000000000000000000000000000000000000000000000000000000000000000040000000000000000000000000000000000000000000000000000000000000000000000000000000000040000000000000000000000000000000000000000000000000000000000000000000000000000000000000000000000000000000000000000000000000000000008000000000000000000000000000000000000000000000020000",
      "type": "0x2",
      "transactionHash": "0x848a7938c54acfb076ff4bb5dc4deafa25e2c296388a6abf41de252d6566e8c2",
      "transactionIndex": "0x78",
      "blockHash": "0xd68774e24ee726a9d64b892bf3b77528316be6b3b47420c5ef98c75643b8bd58",
      "blockNumber": "0x1573e8e",
      "gasUsed": "0xce5f",
      "effectiveGasPrice": "0x71bc95cf",
      "from": "0xb819a871d20913839c37f316dc914b0570bfc0ee",
      "to": "0x2b588f7f4832561e46924f3ea54c244569724915",
      "contractAddress": null
    },
    {
      "status": "0x1",
      "cumulativeGasUsed": "0x18407d2",
      "logs": [
        {
          "address": "0x2b588f7f4832561e46924f3ea54c244569724915",
          "topics": [
            "0x4059c608a8f17b9b24a5a29662eb74934d39ea92ae22411868f07fcac29487a0",
            "0x000000000000000000000000c9c9693b6a445d05add0043662fad9ac600ad088"
          ],
          "data": "0x0000000000000000000000000000000000000000000000000000000000000001",
          "blockHash": "0xbe8ef3be5bff1bad5043b5d995c56a895fde56535017a5eeb45813f332d9a784",
          "blockNumber": "0x1573e8f",
          "blockTimestamp": "0x68270abf",
          "transactionHash": "0x2badaa27d06d9b2b7bb342b8334dad1ff22d142677f2a26252d435d9271438d7",
          "transactionIndex": "0xd1",
          "logIndex": "0x2f2",
          "removed": false
        }
      ],
      "logsBloom": "0x00000000000000000000000000000000000000000000000000000000000000000000000010000000000000020000000000000000000000000000000000020000000000200000000000000000000000000000000000000000000000000000000000000000000000000000000000000000000000000000000000000000000000000000000000000000000000000000000000000000000000000000000000000000000000001040000000000000000000000000000000000000000000000000000000000001000000000000000000000000000000000000000000000000000000000000000000008000000000000000000000000000000000000000000000020000",
      "type": "0x2",
      "transactionHash": "0x2badaa27d06d9b2b7bb342b8334dad1ff22d142677f2a26252d435d9271438d7",
      "transactionIndex": "0xd1",
      "blockHash": "0xbe8ef3be5bff1bad5043b5d995c56a895fde56535017a5eeb45813f332d9a784",
      "blockNumber": "0x1573e8f",
      "gasUsed": "0xce5f",
      "effectiveGasPrice": "0x69e3cc99",
      "from": "0xb819a871d20913839c37f316dc914b0570bfc0ee",
      "to": "0x2b588f7f4832561e46924f3ea54c244569724915",
      "contractAddress": null
    },
    {
      "status": "0x1",
      "cumulativeGasUsed": "0x10bb7ac",
      "logs": [
        {
          "address": "0x2b588f7f4832561e46924f3ea54c244569724915",
          "topics": [
            "0x4059c608a8f17b9b24a5a29662eb74934d39ea92ae22411868f07fcac29487a0",
            "0x0000000000000000000000007efe40b2e6da8b28aab6bd2d622b9cd7f5fe077c"
          ],
          "data": "0x0000000000000000000000000000000000000000000000000000000000000001",
          "blockHash": "0xe305250d42b2ed97aee634dd2e99261d500785e7aa9880f765c215cebff5d52f",
          "blockNumber": "0x1573e90",
          "blockTimestamp": "0x68270acb",
          "transactionHash": "0x54b540a38264551b4f07378cd16e73abbe48347ba3150556c3ac8ed963ff8047",
          "transactionIndex": "0xb6",
          "logIndex": "0x1e7",
          "removed": false
        }
      ],
      "logsBloom": "0x00000000000000000000000000000000000000000000000000000000000000000000000000000000000000020000000000000000000000000000000000020000000000200000000000080000000000000000000000000000000000000000000000000000000000000000000000000000000000000000000000000000000000000000000200000000000000000000000000000000000000000000000000000000000000000040000000000000000000000000000000000000000000000000000000000000000000000000000000000000000000800000000000000000000000000000000000008000000000000000000000000000000000000000000000020000",
      "type": "0x2",
      "transactionHash": "0x54b540a38264551b4f07378cd16e73abbe48347ba3150556c3ac8ed963ff8047",
      "transactionIndex": "0xb6",
      "blockHash": "0xe305250d42b2ed97aee634dd2e99261d500785e7aa9880f765c215cebff5d52f",
      "blockNumber": "0x1573e90",
      "gasUsed": "0xce5f",
      "effectiveGasPrice": "0x7090d17a",
      "from": "0xb819a871d20913839c37f316dc914b0570bfc0ee",
      "to": "0x2b588f7f4832561e46924f3ea54c244569724915",
      "contractAddress": null
    },
    {
      "status": "0x1",
      "cumulativeGasUsed": "0x83e17a",
      "logs": [
        {
          "address": "0x2b588f7f4832561e46924f3ea54c244569724915",
          "topics": [
            "0x4059c608a8f17b9b24a5a29662eb74934d39ea92ae22411868f07fcac29487a0",
            "0x000000000000000000000000a22dcb8f0a2848289124086f35ae9db2a0006962"
          ],
          "data": "0x0000000000000000000000000000000000000000000000000000000000000001",
          "blockHash": "0xe009a583e401d4a26a502631455d9d33e536573813e8f4ccde76b2f4abdee31d",
          "blockNumber": "0x1573e91",
          "blockTimestamp": "0x68270ad7",
          "transactionHash": "0x907d3f0fb6801845f0f270be752811c755df285a2864552cf44961a369d2cad1",
          "transactionIndex": "0x6a",
          "logIndex": "0xf9",
          "removed": false
        }
      ],
      "logsBloom": "0x00000000000000000100000000000000000000000000000000000000000000000000000000000000000000020000000000000000000000000000000000020000000000300000000000000000000000000000000000000000000000000000000000000000000000000000000000000000000000000000000000000000000000000000000000000000000000000000000000000000000000200000000000000000000000000040000000000000000000000000000000000000000000000000000000000000000000000000000000000000000000000000000000000000000000000000000000008000000000000000000000000000000000000000000000020000",
      "type": "0x2",
      "transactionHash": "0x907d3f0fb6801845f0f270be752811c755df285a2864552cf44961a369d2cad1",
      "transactionIndex": "0x6a",
      "blockHash": "0xe009a583e401d4a26a502631455d9d33e536573813e8f4ccde76b2f4abdee31d",
      "blockNumber": "0x1573e91",
      "gasUsed": "0xce53",
      "effectiveGasPrice": "0x71c1dd9b",
      "from": "0xb819a871d20913839c37f316dc914b0570bfc0ee",
      "to": "0x2b588f7f4832561e46924f3ea54c244569724915",
      "contractAddress": null
    },
    {
      "status": "0x1",
      "cumulativeGasUsed": "0xf800fc",
      "logs": [
        {
          "address": "0x2b588f7f4832561e46924f3ea54c244569724915",
          "topics": [
            "0x4059c608a8f17b9b24a5a29662eb74934d39ea92ae22411868f07fcac29487a0",
            "0x000000000000000000000000b819a871d20913839c37f316dc914b0570bfc0ee"
          ],
          "data": "0x0000000000000000000000000000000000000000000000000000000000000001",
          "blockHash": "0x06627f3a9507ebeb591ae40694cfd80ccf9a32ccd432b78164f4e1aa8f12d8db",
          "blockNumber": "0x1573e92",
          "blockTimestamp": "0x68270ae3",
          "transactionHash": "0xfc27b68a7f3e5349a03972bc405a10b6ba92f24320facfd2272485bc3715b05f",
          "transactionIndex": "0xa1",
          "logIndex": "0x270",
          "removed": false
        }
      ],
      "logsBloom": "0x00000000000000000000000000000000000000000000000000000000000000000000000000000000000000020000000000000000000000000000000000020002000000200080000000000000000000000000000000000000000000000000000000000000000000000000000000000000000000000000000000000000000000000000000000000000000000000000000000000000000000000000000000000000000000000040000000000000000000000000000000000000000000000000000000000000000000000000000000000000000000000000000000000200000000000000000000008000000000000000000000000000000000000000000000020000",
      "type": "0x2",
      "transactionHash": "0xfc27b68a7f3e5349a03972bc405a10b6ba92f24320facfd2272485bc3715b05f",
      "transactionIndex": "0xa1",
      "blockHash": "0x06627f3a9507ebeb591ae40694cfd80ccf9a32ccd432b78164f4e1aa8f12d8db",
      "blockNumber": "0x1573e92",
      "gasUsed": "0xce5f",
      "effectiveGasPrice": "0x6bb9d42e",
      "from": "0xb819a871d20913839c37f316dc914b0570bfc0ee",
      "to": "0x2b588f7f4832561e46924f3ea54c244569724915",
      "contractAddress": null
    },
    {
      "status": "0x1",
      "cumulativeGasUsed": "0x11a070c",
      "logs": [
        {
          "address": "0x2b588f7f4832561e46924f3ea54c244569724915",
          "topics": [
            "0x4059c608a8f17b9b24a5a29662eb74934d39ea92ae22411868f07fcac29487a0",
            "0x00000000000000000000000040282d3cf4890d9806bc1853e97a59c93d813653"
          ],
          "data": "0x0000000000000000000000000000000000000000000000000000000000000001",
          "blockHash": "0x1b18682087439f2819975b9161661113975a1306b1075f4607f8996acfa49114",
          "blockNumber": "0x1573e93",
          "blockTimestamp": "0x68270aef",
          "transactionHash": "0x5465065bd9dc7e37de29724ca9f33edb16b7d7fe20ccb96bf0a1082317427a29",
          "transactionIndex": "0x131",
          "logIndex": "0x1bf",
          "removed": false
        }
      ],
      "logsBloom": "0x00000000000000000000000000000000000000000000000000000000000000000000004000000000000000020000000000000000000000000000000000020000000000200000000000000000000000000000000000000000000000000000000000000000000000000000000000000000000000000000000000000000000000000000000040000000000000000000000000000000000200000000000000000000000000000040000000000000000000000000000000000000000000000000000000000000000000000000000000000000000000000000000000000000000000000000000000008000000000000000000000000000000000000000000000020000",
      "type": "0x2",
      "transactionHash": "0x5465065bd9dc7e37de29724ca9f33edb16b7d7fe20ccb96bf0a1082317427a29",
      "transactionIndex": "0x131",
      "blockHash": "0x1b18682087439f2819975b9161661113975a1306b1075f4607f8996acfa49114",
      "blockNumber": "0x1573e93",
      "gasUsed": "0xce5f",
      "effectiveGasPrice": "0x6c6c511a",
      "from": "0xb819a871d20913839c37f316dc914b0570bfc0ee",
      "to": "0x2b588f7f4832561e46924f3ea54c244569724915",
      "contractAddress": null
    },
    {
      "status": "0x1",
      "cumulativeGasUsed": "0x10a5df8",
      "logs": [
        {
          "address": "0x2b588f7f4832561e46924f3ea54c244569724915",
          "topics": [
            "0x4059c608a8f17b9b24a5a29662eb74934d39ea92ae22411868f07fcac29487a0",
            "0x000000000000000000000000b5b901f1bb86421301138b5c45c1d3fe96663161"
          ],
          "data": "0x0000000000000000000000000000000000000000000000000000000000000001",
          "blockHash": "0x4a419e9c65a17dcb7c4ad49b17929b0fcc2ad9c92e5e172678e783f2ffa6007b",
          "blockNumber": "0x1573e94",
          "blockTimestamp": "0x68270afb",
          "transactionHash": "0x571302fb1ab7993d8b350f2a0598841657522c77b861f6362df209466902d07e",
          "transactionIndex": "0xf1",
          "logIndex": "0x1fc",
          "removed": false
        }
      ],
      "logsBloom": "0x00000000000000000000000000000000000000000000000000000000000000004000000000000000000000020000000000000000000000000000000000020000000000200000000000000000000000000000000000800000000000000000000000000000000000000000000000000000000000000000000000000000000000000000000000000000000000000000000000000000000000000000000000000000000000000040010000000000000000000000000000000000000000000000000000000000000000000000000000000000000000000000000000000000000000000000000000008000000000000000000000000000000000000000000000020000",
      "type": "0x2",
      "transactionHash": "0x571302fb1ab7993d8b350f2a0598841657522c77b861f6362df209466902d07e",
      "transactionIndex": "0xf1",
      "blockHash": "0x4a419e9c65a17dcb7c4ad49b17929b0fcc2ad9c92e5e172678e783f2ffa6007b",
      "blockNumber": "0x1573e94",
      "gasUsed": "0xce5f",
      "effectiveGasPrice": "0x6d6e6aca",
      "from": "0xb819a871d20913839c37f316dc914b0570bfc0ee",
      "to": "0x2b588f7f4832561e46924f3ea54c244569724915",
      "contractAddress": null
    },
    {
      "status": "0x1",
      "cumulativeGasUsed": "0x11113a7",
      "logs": [
        {
          "address": "0x2b588f7f4832561e46924f3ea54c244569724915",
          "topics": [
            "0x4059c608a8f17b9b24a5a29662eb74934d39ea92ae22411868f07fcac29487a0",
            "0x000000000000000000000000baec8904499dcdee770c60df15b0c37eac84fb62"
          ],
          "data": "0x0000000000000000000000000000000000000000000000000000000000000001",
          "blockHash": "0xb3b9ed18fddb7a81fd4eb282687141118fa059389e2754d3287e4e5813b55c19",
          "blockNumber": "0x1573e95",
          "blockTimestamp": "0x68270b07",
          "transactionHash": "0x45f4f6c27abf68f9831d9021b39cb9f5b68d64efeae5e9685616897b8fef9ef1",
          "transactionIndex": "0xa9",
          "logIndex": "0x222",
          "removed": false
        }
      ],
      "logsBloom": "0x00000000000000000000000000000000000000000000000000000000000000000000000000000000000000020000000000000000000000000000000000020000000000200000800000000000000080000000000000000000000000000000000000000000000000000000000000000000000000000000000000000000000000000000000000000000000000000000000000000000000000000000000000000000000000000040000000000000000000000000000000000000000000000000000000000000000000000000000000000000008000000000000000000000000000000000000000008000000000000000000000000000000000000000000000020000",
      "type": "0x2",
      "transactionHash": "0x45f4f6c27abf68f9831d9021b39cb9f5b68d64efeae5e9685616897b8fef9ef1",
      "transactionIndex": "0xa9",
      "blockHash": "0xb3b9ed18fddb7a81fd4eb282687141118fa059389e2754d3287e4e5813b55c19",
      "blockNumber": "0x1573e95",
      "gasUsed": "0xce5f",
      "effectiveGasPrice": "0x70c83aed",
      "from": "0xb819a871d20913839c37f316dc914b0570bfc0ee",
      "to": "0x2b588f7f4832561e46924f3ea54c244569724915",
      "contractAddress": null
    },
    {
      "status": "0x1",
      "cumulativeGasUsed": "0x9826b7",
      "logs": [
        {
          "address": "0x2b588f7f4832561e46924f3ea54c244569724915",
          "topics": [
            "0x4059c608a8f17b9b24a5a29662eb74934d39ea92ae22411868f07fcac29487a0",
            "0x000000000000000000000000fc4a23271b60887fc246b060b6931a08e2bc434c"
          ],
          "data": "0x0000000000000000000000000000000000000000000000000000000000000001",
          "blockHash": "0xa5c5a40b8d0a3346555d227e7739d2918c5d3cfcda0314c644c05e6b0ede1cb8",
          "blockNumber": "0x1573e96",
          "blockTimestamp": "0x68270b13",
          "transactionHash": "0x430282e63d19d6794078e57d5d02e3bfd66f455c394be8d89084d1d73a37bdf4",
          "transactionIndex": "0x7d",
          "logIndex": "0x13a",
          "removed": false
        }
      ],
      "logsBloom": "0x00000200000000000000000000000000000000000000000000000000000000000000000000000000000000020000000000000000000000000000000000020000000000200000020000000000000000000000000000000000000000004000000000000000000000000000000000000000000000000000000000000000000000000000000000000000000000000000000000000000000000000000000000000000000000000040000000000000000000000000000000000000000000000000000000000000000000000000000000000000000000000000000000000000000000000000000000008000000000000000000000000000000000000000000000020000",
      "type": "0x2",
      "transactionHash": "0x430282e63d19d6794078e57d5d02e3bfd66f455c394be8d89084d1d73a37bdf4",
      "transactionIndex": "0x7d",
      "blockHash": "0xa5c5a40b8d0a3346555d227e7739d2918c5d3cfcda0314c644c05e6b0ede1cb8",
      "blockNumber": "0x1573e96",
      "gasUsed": "0xce5f",
      "effectiveGasPrice": "0x72508b76",
      "from": "0xb819a871d20913839c37f316dc914b0570bfc0ee",
      "to": "0x2b588f7f4832561e46924f3ea54c244569724915",
      "contractAddress": null
    },
    {
      "status": "0x1",
      "cumulativeGasUsed": "0x1471647",
      "logs": [
        {
          "address": "0x2b588f7f4832561e46924f3ea54c244569724915",
          "topics": [
            "0x4059c608a8f17b9b24a5a29662eb74934d39ea92ae22411868f07fcac29487a0",
            "0x00000000000000000000000065b142550ae82f4bb3792e1eefb2fc35541a3837"
          ],
          "data": "0x0000000000000000000000000000000000000000000000000000000000000001",
          "blockHash": "0xf336c7e15c91b81950605ad9670b269feb774170699c549f8a8720ab2e8c9c89",
          "blockNumber": "0x1573e98",
          "blockTimestamp": "0x68270b2b",
          "transactionHash": "0xf35b9aaa4c42d2afc5339986c67a49ec1fb6079258435d00d3fb6b15aa62fcde",
          "transactionIndex": "0xa7",
          "logIndex": "0x237",
          "removed": false
        }
      ],
      "logsBloom": "0x00000000000000000000000000000000000000000000000000000000000000000000000000000000000000020000000000000000000000000000000000020000000000200000000000000000000000000000000000000000000000000000000000000000000000000000000000000000000000000000000000000000000000000000000000000000000000000000000000000000000000000000000000000000000040000040000000000000000000080000000000000000000000000000000000000000000000000000000000000000000000000000000000000000008000000000000000008000000000000000000000000000000000000000000000020000",
      "type": "0x2",
      "transactionHash": "0xf35b9aaa4c42d2afc5339986c67a49ec1fb6079258435d00d3fb6b15aa62fcde",
      "transactionIndex": "0xa7",
      "blockHash": "0xf336c7e15c91b81950605ad9670b269feb774170699c549f8a8720ab2e8c9c89",
      "blockNumber": "0x1573e98",
      "gasUsed": "0xce5f",
      "effectiveGasPrice": "0x6b25d0f7",
      "from": "0xb819a871d20913839c37f316dc914b0570bfc0ee",
      "to": "0x2b588f7f4832561e46924f3ea54c244569724915",
      "contractAddress": null
    },
    {
      "status": "0x1",
      "cumulativeGasUsed": "0x11cd3b7",
      "logs": [
        {
          "address": "0x2b588f7f4832561e46924f3ea54c244569724915",
          "topics": [
            "0x4059c608a8f17b9b24a5a29662eb74934d39ea92ae22411868f07fcac29487a0",
            "0x00000000000000000000000075149feebb20e1fe5ddb89302a6d4bace70c14ce"
          ],
          "data": "0x0000000000000000000000000000000000000000000000000000000000000001",
          "blockHash": "0x8b368a99838ebb3922658c0ef835d737613ffc832a4d39e1de5370cdaf12be32",
          "blockNumber": "0x1573e99",
          "blockTimestamp": "0x68270b37",
          "transactionHash": "0xf22876bcff1d6bdc87af3295e916e7f3decc0a135312b8da1cc567b6384daffd",
          "transactionIndex": "0x13f",
          "logIndex": "0x218",
          "removed": false
        }
      ],
      "logsBloom": "0x00000000000000200000000000000000000000000000000000000000000000000000000000000000040000020000000000000000000000000000000000020000000000200000000000000000000000000000000000000000000000000000000000000000000000000000000000000000000000000000000000000000000000000000000000000000000000000000000000000000000000000000000000000000000000000040000000000000000010000000000000000000000000000000000000000000000000000000000000000000000000000000000000000000000000000000000000008000000000000000000000000000000000000000000000020000",
      "type": "0x2",
      "transactionHash": "0xf22876bcff1d6bdc87af3295e916e7f3decc0a135312b8da1cc567b6384daffd",
      "transactionIndex": "0x13f",
      "blockHash": "0x8b368a99838ebb3922658c0ef835d737613ffc832a4d39e1de5370cdaf12be32",
      "blockNumber": "0x1573e99",
      "gasUsed": "0xce5f",
      "effectiveGasPrice": "0x70ce8e12",
      "from": "0xb819a871d20913839c37f316dc914b0570bfc0ee",
      "to": "0x2b588f7f4832561e46924f3ea54c244569724915",
      "contractAddress": null
    },
    {
      "status": "0x1",
      "cumulativeGasUsed": "0xadcc18",
      "logs": [
        {
          "address": "0x2b588f7f4832561e46924f3ea54c244569724915",
          "topics": [
            "0x4059c608a8f17b9b24a5a29662eb74934d39ea92ae22411868f07fcac29487a0",
            "0x00000000000000000000000065b6d4770dadcfba6d363de86aa4d9c76283cea0"
          ],
          "data": "0x0000000000000000000000000000000000000000000000000000000000000001",
          "blockHash": "0x9c12cc8449ce7081f4409e893f659f0775d14ce2032859a0b27e9e4b0b56192f",
          "blockNumber": "0x1573e9a",
          "blockTimestamp": "0x68270b43",
          "transactionHash": "0x7ee2f80c248140bc374a283aeef2351e04881da3b11f7e38e25263550e598aee",
          "transactionIndex": "0x85",
          "logIndex": "0x144",
          "removed": false
        }
      ],
      "logsBloom": "0x00000000800000000000000000000000000000000000000000000000000000000000000000000000000002020000000000000000000000000000000000020000000000200000000000000000000000000000000000000000000000000000000000000000000000000000000000000000000000000000000000000000000000000000000000000000000000000000000000000000000000000000000000000000000000000040000000000000000000000000000000000000000000000000000000000000000000000000000000000000002000000000000000000000000000000000000000008000000000000000000000000000000000000000000000020000",
      "type": "0x2",
      "transactionHash": "0x7ee2f80c248140bc374a283aeef2351e04881da3b11f7e38e25263550e598aee",
      "transactionIndex": "0x85",
      "blockHash": "0x9c12cc8449ce7081f4409e893f659f0775d14ce2032859a0b27e9e4b0b56192f",
      "blockNumber": "0x1573e9a",
      "gasUsed": "0xce5f",
      "effectiveGasPrice": "0x722696bc",
      "from": "0xb819a871d20913839c37f316dc914b0570bfc0ee",
      "to": "0x2b588f7f4832561e46924f3ea54c244569724915",
      "contractAddress": null
    },
    {
      "status": "0x1",
      "cumulativeGasUsed": "0x9f8df8",
      "logs": [
        {
          "address": "0x2b588f7f4832561e46924f3ea54c244569724915",
          "topics": [
            "0x4059c608a8f17b9b24a5a29662eb74934d39ea92ae22411868f07fcac29487a0",
            "0x000000000000000000000000a6a9fddc94bb4fe7520a2ea1cc2c433e18683342"
          ],
          "data": "0x0000000000000000000000000000000000000000000000000000000000000001",
          "blockHash": "0x8da4eed1ff4ff917793084d4f668423f9f23fb019466a7d7d28daee41ca39b8d",
          "blockNumber": "0x1573e9b",
          "blockTimestamp": "0x68270b4f",
          "transactionHash": "0x09aa98a176b7bf10cf127c764f1230ba835c67cf707d6ec75bbf9de497bdcae7",
          "transactionIndex": "0x7c",
          "logIndex": "0x113",
          "removed": false
        }
      ],
      "logsBloom": "0x00000000000040000000000000000000000000000000000000000000000000000000000000000000000000020000000000000000000000000000000000020000000000200000000000000000000000400000000000000000000000000000000000000000000000000000000000000000000000000000000000000000000000000000000000000000000000000000000000000000000000000000000000000000000000000040000002000000000000000000000000000000000000000000000000000000000000000000000000000000000000000000000000000000000000000000000000008000000000000000000000000000000000000000000000020000",
      "type": "0x2",
      "transactionHash": "0x09aa98a176b7bf10cf127c764f1230ba835c67cf707d6ec75bbf9de497bdcae7",
      "transactionIndex": "0x7c",
      "blockHash": "0x8da4eed1ff4ff917793084d4f668423f9f23fb019466a7d7d28daee41ca39b8d",
      "blockNumber": "0x1573e9b",
      "gasUsed": "0xce5f",
      "effectiveGasPrice": "0x6fa46d10",
      "from": "0xb819a871d20913839c37f316dc914b0570bfc0ee",
      "to": "0x2b588f7f4832561e46924f3ea54c244569724915",
      "contractAddress": null
    },
    {
      "status": "0x1",
      "cumulativeGasUsed": "0xcc1455",
      "logs": [
        {
          "address": "0x2b588f7f4832561e46924f3ea54c244569724915",
          "topics": [
            "0x4059c608a8f17b9b24a5a29662eb74934d39ea92ae22411868f07fcac29487a0",
            "0x00000000000000000000000018d04f05f80ade5373849385a1c24e1e0a6d1744"
          ],
          "data": "0x0000000000000000000000000000000000000000000000000000000000000001",
          "blockHash": "0x2875d1f2d36590586d7b3333a4b35a8d9d3819ffb01fbf47d41e9a5ecba31f5e",
          "blockNumber": "0x1573e9c",
          "blockTimestamp": "0x68270b5b",
          "transactionHash": "0x80efcfcc137e786a48c81190528c3f807d74fe42166174b198530c4d467832db",
          "transactionIndex": "0x83",
          "logIndex": "0x182",
          "removed": false
        }
      ],
      "logsBloom": "0x00000000000000000000000000000000000000000000000000000000000000000000000000000000000000020000000000000000000000000000000000020000000000200000000000000000000100000000000000000000000000000000000000000000000000000000000000000000000000000000000000000000000000000000000000000000000000000000000000000000000000000000000000000000000000000040000000000000000000000000000000000000000000000000000000000000000100000000000000000000000000000000000000000000000000000000000000008000000000000004000000000000000000000000000000020000",
      "type": "0x2",
      "transactionHash": "0x80efcfcc137e786a48c81190528c3f807d74fe42166174b198530c4d467832db",
      "transactionIndex": "0x83",
      "blockHash": "0x2875d1f2d36590586d7b3333a4b35a8d9d3819ffb01fbf47d41e9a5ecba31f5e",
      "blockNumber": "0x1573e9c",
      "gasUsed": "0xce5f",
      "effectiveGasPrice": "0x6d3e1cb3",
      "from": "0xb819a871d20913839c37f316dc914b0570bfc0ee",
      "to": "0x2b588f7f4832561e46924f3ea54c244569724915",
      "contractAddress": null
    },
    {
      "status": "0x1",
      "cumulativeGasUsed": "0x8f1902",
      "logs": [
        {
          "address": "0x2b588f7f4832561e46924f3ea54c244569724915",
          "topics": [
            "0x4059c608a8f17b9b24a5a29662eb74934d39ea92ae22411868f07fcac29487a0",
            "0x000000000000000000000000bd9c90d6774cb5320b54bb7998b6bcc5e4a9071f"
          ],
          "data": "0x0000000000000000000000000000000000000000000000000000000000000001",
          "blockHash": "0xa3336a7d2b841effcfb5b5e44ea11e039c15015b02e6f6ad7dcba94c777d2ed5",
          "blockNumber": "0x1573e9d",
          "blockTimestamp": "0x68270b67",
          "transactionHash": "0xb80768f9ac38bedbda3d2ef287be74a8ec494cc703884a4bee241192ef372821",
          "transactionIndex": "0x61",
          "logIndex": "0xfb",
          "removed": false
        }
      ],
      "logsBloom": "0x00000000000000000000000000000000000000000000000000000000000000000000000000002000000000020000000000000000000040000000000000020000000000200000000000000000000000000000000000000000000000000000000000000000000000000000000000000000000000000000000000000000000000000000000000000000000000000000000000000000000000000000000000000000000000000040000000000000000000000000000000800000000000000000000000000000000000000000000000000000000000000000000000000000000000000000000000008000000000000000000000000000000000000000000000020000",
      "type": "0x2",
      "transactionHash": "0xb80768f9ac38bedbda3d2ef287be74a8ec494cc703884a4bee241192ef372821",
      "transactionIndex": "0x61",
      "blockHash": "0xa3336a7d2b841effcfb5b5e44ea11e039c15015b02e6f6ad7dcba94c777d2ed5",
      "blockNumber": "0x1573e9d",
      "gasUsed": "0xce5f",
      "effectiveGasPrice": "0x6c9af1f3",
      "from": "0xb819a871d20913839c37f316dc914b0570bfc0ee",
      "to": "0x2b588f7f4832561e46924f3ea54c244569724915",
      "contractAddress": null
    },
    {
      "status": "0x1",
      "cumulativeGasUsed": "0xd00419",
      "logs": [
        {
          "address": "0x2b588f7f4832561e46924f3ea54c244569724915",
          "topics": [
            "0x4059c608a8f17b9b24a5a29662eb74934d39ea92ae22411868f07fcac29487a0",
            "0x0000000000000000000000008f2eaba31b1b613ca78f2795ba05400f0583c5a4"
          ],
          "data": "0x0000000000000000000000000000000000000000000000000000000000000001",
          "blockHash": "0xe58ef8f9a47262ff88db3b9fcc3af53f476918a9e5d4acb61cfbeb7e10358e8f",
          "blockNumber": "0x1573e9e",
          "blockTimestamp": "0x68270b73",
          "transactionHash": "0x668580462c43e37ae227ed8302bbf28b78047ff016db8ab5cd36fd21c8500b5a",
          "transactionIndex": "0x88",
          "logIndex": "0x1a0",
          "removed": false
        }
      ],
      "logsBloom": "0x00000000000000000000000000000000000000000000000000000000000000000000000000000000000000020000000000000000000000000000000000020000000000200000000000000000000000000000000000000000000000000000000000000000000000000000001000000000000000000000000000000000000000000000000000000000000000000000000000000000000000000000000000000000000000000040000000000000000000000000000000000000000000000000000000004000000000000000000000002000000000000000000000000000000000000000000000008000000000000000000000000000000000000000000000020000",
      "type": "0x2",
      "transactionHash": "0x668580462c43e37ae227ed8302bbf28b78047ff016db8ab5cd36fd21c8500b5a",
      "transactionIndex": "0x88",
      "blockHash": "0xe58ef8f9a47262ff88db3b9fcc3af53f476918a9e5d4acb61cfbeb7e10358e8f",
      "blockNumber": "0x1573e9e",
      "gasUsed": "0xce5f",
      "effectiveGasPrice": "0x6b0551de",
      "from": "0xb819a871d20913839c37f316dc914b0570bfc0ee",
      "to": "0x2b588f7f4832561e46924f3ea54c244569724915",
      "contractAddress": null
    },
    {
      "status": "0x1",
      "cumulativeGasUsed": "0x1212fcc",
      "logs": [
        {
          "address": "0x2b588f7f4832561e46924f3ea54c244569724915",
          "topics": [
            "0x4059c608a8f17b9b24a5a29662eb74934d39ea92ae22411868f07fcac29487a0",
            "0x0000000000000000000000008f2eaba31b1b613ca78f2795ba05400f0583c5a4"
          ],
          "data": "0x0000000000000000000000000000000000000000000000000000000000000001",
          "blockHash": "0xdd6a0bf96512031740fd18dd4868e514d7ad0860358bc70cda43d5401f258e5c",
          "blockNumber": "0x1573e9f",
          "blockTimestamp": "0x68270b7f",
          "transactionHash": "0xe2b3c753fdb008549df20165d77680d7225ce82ffa7ef7b702cc60ed53c2dfa3",
          "transactionIndex": "0x154",
          "logIndex": "0x19b",
          "removed": false
        }
      ],
      "logsBloom": "0x00000000000000000000000000000000000000000000000000000000000000000000000000000000000000020000000000000000000000000000000000020000000000200000000000000000000000000000000000000000000000000000000000000000000000000000001000000000000000000000000000000000000000000000000000000000000000000000000000000000000000000000000000000000000000000040000000000000000000000000000000000000000000000000000000004000000000000000000000002000000000000000000000000000000000000000000000008000000000000000000000000000000000000000000000020000",
      "type": "0x2",
      "transactionHash": "0xe2b3c753fdb008549df20165d77680d7225ce82ffa7ef7b702cc60ed53c2dfa3",
      "transactionIndex": "0x154",
      "blockHash": "0xdd6a0bf96512031740fd18dd4868e514d7ad0860358bc70cda43d5401f258e5c",
      "blockNumber": "0x1573e9f",
      "gasUsed": "0x80a3",
      "effectiveGasPrice": "0x6c99482f",
      "from": "0xb819a871d20913839c37f316dc914b0570bfc0ee",
      "to": "0x2b588f7f4832561e46924f3ea54c244569724915",
      "contractAddress": null
    },
    {
      "status": "0x1",
      "cumulativeGasUsed": "0xec89a1",
      "logs": [
        {
          "address": "0x2b588f7f4832561e46924f3ea54c244569724915",
          "topics": [
            "0x4059c608a8f17b9b24a5a29662eb74934d39ea92ae22411868f07fcac29487a0",
            "0x00000000000000000000000050d8deadd2b3140b151cab2c4fb76f1f59b236f8"
          ],
          "data": "0x0000000000000000000000000000000000000000000000000000000000000001",
          "blockHash": "0x93f0bd24a807d573e1b23773967a3913c0ba5871e5dc54b3e55a40b3d2bfa6c5",
          "blockNumber": "0x1573ea0",
          "blockTimestamp": "0x68270b8b",
          "transactionHash": "0x8ddf2ef126b1a1403ed1c9d235279149e2e73560598b4f33f1e860bc1769112b",
          "transactionIndex": "0xb4",
          "logIndex": "0x1db",
          "removed": false
        }
      ],
      "logsBloom": "0x00000000000000000000000000000000000000000000200000000000000000000000000000000000000000020000000000000000000000000000000000020000000000200000000000000000000000000000000000000000000000000000000000000000000000000000000000000000000000000000000000000000020000000000000000000000000000000000000000000000000000000000000000000000000000000040000000000000000000000000000000000000000000000000000000000000000000000000000000000000000000000000000000000000000000000000000000808000000000000000000000000000000000000000000000020000",
      "type": "0x2",
      "transactionHash": "0x8ddf2ef126b1a1403ed1c9d235279149e2e73560598b4f33f1e860bc1769112b",
      "transactionIndex": "0xb4",
      "blockHash": "0x93f0bd24a807d573e1b23773967a3913c0ba5871e5dc54b3e55a40b3d2bfa6c5",
      "blockNumber": "0x1573ea0",
      "gasUsed": "0x80a3",
      "effectiveGasPrice": "0x6f6bd220",
      "from": "0xb819a871d20913839c37f316dc914b0570bfc0ee",
      "to": "0x2b588f7f4832561e46924f3ea54c244569724915",
      "contractAddress": null
    },
    {
      "status": "0x1",
      "cumulativeGasUsed": "0x7e1029",
      "logs": [
        {
          "address": "0x2b588f7f4832561e46924f3ea54c244569724915",
          "topics": [
            "0x4059c608a8f17b9b24a5a29662eb74934d39ea92ae22411868f07fcac29487a0",
            "0x000000000000000000000000574582c44e3f1ef2cb29a7131b057febbcc8244e"
          ],
          "data": "0x0000000000000000000000000000000000000000000000000000000000000001",
          "blockHash": "0xb51b124de08ea4d72eeceb3d2592f97e9004be8198fe783748dfeb9ca9866c7b",
          "blockNumber": "0x1573ea1",
          "blockTimestamp": "0x68270b97",
          "transactionHash": "0x2ae12b42772dc46ce117d17fcdc72bef9999177bffbfc7c91cf9ff190737770f",
          "transactionIndex": "0x5b",
          "logIndex": "0xd0",
          "removed": false
        }
      ],
      "logsBloom": "0x00000000000000000000000000000000000000000000000000000000000000000000000000000000000000020000000000000000000000000000000000020000000000200000200000000000000000000000000000000000000000000000000000000000000000000000000000000000000000000000000000000000000000000000000000000000000000100000000000000000000000000000000000000000004000000040000000000000000000000000000000000000000000000000000000000000000000000000000000000000000000000000000000000000000000000000000000008000000000000000000000000000000000000000000000020000",
      "type": "0x2",
      "transactionHash": "0x2ae12b42772dc46ce117d17fcdc72bef9999177bffbfc7c91cf9ff190737770f",
      "transactionIndex": "0x5b",
      "blockHash": "0xb51b124de08ea4d72eeceb3d2592f97e9004be8198fe783748dfeb9ca9866c7b",
      "blockNumber": "0x1573ea1",
      "gasUsed": "0x80a3",
      "effectiveGasPrice": "0x6f540c11",
      "from": "0xb819a871d20913839c37f316dc914b0570bfc0ee",
      "to": "0x2b588f7f4832561e46924f3ea54c244569724915",
      "contractAddress": null
    },
    {
      "status": "0x1",
      "cumulativeGasUsed": "0x17c2c29",
      "logs": [
        {
          "address": "0x2b588f7f4832561e46924f3ea54c244569724915",
          "topics": [
            "0x4059c608a8f17b9b24a5a29662eb74934d39ea92ae22411868f07fcac29487a0",
            "0x000000000000000000000000bd0ce952ba069a1e15f3bf3916d4b07bbbdbc8b3"
          ],
          "data": "0x0000000000000000000000000000000000000000000000000000000000000001",
          "blockHash": "0x7c7426c61f18d16f212d51add8682c34e4c0ae3131cb724b0616702aa7773644",
          "blockNumber": "0x1573ea2",
          "blockTimestamp": "0x68270ba3",
          "transactionHash": "0xb557152092dbd8d6c5d80d12ef3979e2cc52f442a6e77059c95d4edb093fc5db",
          "transactionIndex": "0xca",
          "logIndex": "0x26f",
          "removed": false
        }
      ],
      "logsBloom": "0x00000000000000000000000000000000000000000000000000000000000000000000000000000000000000020000000000000000000000000000000000020000000000200002000000000000000000000000000000000000000000000000000000000000000000000000000000000000000000000000000000000000000000000000000000000000000000000000000000000000000000000000000000000000000000000040000000000000000000000000000000000000000000000000000000000000008000000000010000000000000000000000000000000000000000000000000000008000000000000000000000000000000000000000000000020000",
      "type": "0x2",
      "transactionHash": "0xb557152092dbd8d6c5d80d12ef3979e2cc52f442a6e77059c95d4edb093fc5db",
      "transactionIndex": "0xca",
      "blockHash": "0x7c7426c61f18d16f212d51add8682c34e4c0ae3131cb724b0616702aa7773644",
      "blockNumber": "0x1573ea2",
      "gasUsed": "0xce5f",
      "effectiveGasPrice": "0x691aa8b7",
      "from": "0xb819a871d20913839c37f316dc914b0570bfc0ee",
      "to": "0x2b588f7f4832561e46924f3ea54c244569724915",
      "contractAddress": null
    }
  ],
  "libraries": [],
  "pending": [],
  "returns": {},
  "timestamp": 1747389350,
  "chain": 1,
  "commit": "c569661"
}