{
  "transactions": [
    {
      "hash": "0x84df5221e6ccfd4a58ddcae1df3fac03a0bafeb51ad797f5814a7a2b61a9b6af",
      "transactionType": "CALL",
      "contractName": null,
      "contractAddress": "0x1d8e8cefeb085f3211ab6a443ad9051b54d1cd1a",
      "function": "setWhitelistedUser(address,bool)",
      "arguments": [
        "0xf20a8950c368Ec48323092D6e4acF90aADf2BdC6",
        "true"
      ],
      "transaction": {
        "from": "0xb819a871d20913839c37f316dc914b0570bfc0ee",
        "to": "0x1d8e8cefeb085f3211ab6a443ad9051b54d1cd1a",
        "gas": "0x11d0b",
        "value": "0x0",
        "input": "0x44710fbe000000000000000000000000f20a8950c368ec48323092d6e4acf90aadf2bdc60000000000000000000000000000000000000000000000000000000000000001",
        "nonce": "0x90",
        "chainId": "0x1"
      },
      "additionalContracts": [],
      "isFixedGasLimit": false
    },
    {
      "hash": "0x10e2d30758cf22a74c0f29e18708f0d0399225b324e45654f4f039da6a3a54df",
      "transactionType": "CALL",
      "contractName": null,
      "contractAddress": "0x1d8e8cefeb085f3211ab6a443ad9051b54d1cd1a",
      "function": "setWhitelistedUser(address,bool)",
      "arguments": [
        "0x8E72a24221517E51502f20f387415a06b27A5b51",
        "true"
      ],
      "transaction": {
        "from": "0xb819a871d20913839c37f316dc914b0570bfc0ee",
        "to": "0x1d8e8cefeb085f3211ab6a443ad9051b54d1cd1a",
        "gas": "0x11d0b",
        "value": "0x0",
        "input": "0x44710fbe0000000000000000000000008e72a24221517e51502f20f387415a06b27a5b510000000000000000000000000000000000000000000000000000000000000001",
        "nonce": "0x91",
        "chainId": "0x1"
      },
      "additionalContracts": [],
      "isFixedGasLimit": false
    },
    {
      "hash": "0x10138b408829ea589b331f2dbcb23f2beb2356e7607da06ff97dcfba6769883f",
      "transactionType": "CALL",
      "contractName": null,
      "contractAddress": "0x1d8e8cefeb085f3211ab6a443ad9051b54d1cd1a",
      "function": "setWhitelistedUser(address,bool)",
      "arguments": [
        "0x50d8Deadd2b3140B151CaB2C4FB76F1f59b236F8",
        "true"
      ],
      "transaction": {
        "from": "0xb819a871d20913839c37f316dc914b0570bfc0ee",
        "to": "0x1d8e8cefeb085f3211ab6a443ad9051b54d1cd1a",
        "gas": "0x11d0b",
        "value": "0x0",
        "input": "0x44710fbe00000000000000000000000050d8deadd2b3140b151cab2c4fb76f1f59b236f80000000000000000000000000000000000000000000000000000000000000001",
        "nonce": "0x92",
        "chainId": "0x1"
      },
      "additionalContracts": [],
      "isFixedGasLimit": false
    },
    {
      "hash": "0x6b3e69bfde82969603558ae8efddc79604c2830a1fef360b225f588afa67a74a",
      "transactionType": "CALL",
      "contractName": null,
      "contractAddress": "0x1d8e8cefeb085f3211ab6a443ad9051b54d1cd1a",
      "function": "setWhitelistedUser(address,bool)",
      "arguments": [
        "0x574582C44e3f1EF2cB29a7131B057FebBCC8244E",
        "true"
      ],
      "transaction": {
        "from": "0xb819a871d20913839c37f316dc914b0570bfc0ee",
        "to": "0x1d8e8cefeb085f3211ab6a443ad9051b54d1cd1a",
        "gas": "0x11d0b",
        "value": "0x0",
        "input": "0x44710fbe000000000000000000000000574582c44e3f1ef2cb29a7131b057febbcc8244e0000000000000000000000000000000000000000000000000000000000000001",
        "nonce": "0x93",
        "chainId": "0x1"
      },
      "additionalContracts": [],
      "isFixedGasLimit": false
    },
    {
      "hash": "0xe4821df8c2a3176ed8e0fb746561635b66df81ac035b659e8bd000f0600f3cde",
      "transactionType": "CALL",
      "contractName": null,
      "contractAddress": "0x1d8e8cefeb085f3211ab6a443ad9051b54d1cd1a",
      "function": "setWhitelistedUser(address,bool)",
      "arguments": [
        "0x281567fe62b587EC1755f6F33b80160F544Dc5d0",
        "true"
      ],
      "transaction": {
        "from": "0xb819a871d20913839c37f316dc914b0570bfc0ee",
        "to": "0x1d8e8cefeb085f3211ab6a443ad9051b54d1cd1a",
        "gas": "0x11d0b",
        "value": "0x0",
        "input": "0x44710fbe000000000000000000000000281567fe62b587ec1755f6f33b80160f544dc5d00000000000000000000000000000000000000000000000000000000000000001",
        "nonce": "0x94",
        "chainId": "0x1"
      },
      "additionalContracts": [],
      "isFixedGasLimit": false
    },
    {
      "hash": "0xdd5e3327238a92016a6c1a34478c1619c3cdc1b59093f747b8a7e57e4fa4837b",
      "transactionType": "CALL",
      "contractName": null,
      "contractAddress": "0x1d8e8cefeb085f3211ab6a443ad9051b54d1cd1a",
      "function": "setWhitelistedUser(address,bool)",
      "arguments": [
        "0x2705f6A8F01bd4A805D9FC73151DBe37BB8d1edE",
        "true"
      ],
      "transaction": {
        "from": "0xb819a871d20913839c37f316dc914b0570bfc0ee",
        "to": "0x1d8e8cefeb085f3211ab6a443ad9051b54d1cd1a",
        "gas": "0x11d0b",
        "value": "0x0",
        "input": "0x44710fbe0000000000000000000000002705f6a8f01bd4a805d9fc73151dbe37bb8d1ede0000000000000000000000000000000000000000000000000000000000000001",
        "nonce": "0x95",
        "chainId": "0x1"
      },
      "additionalContracts": [],
      "isFixedGasLimit": false
    },
    {
      "hash": "0x4e49ba5e1a8334b829ff307c35f5dc6e43c0b4e9d7ba8d31fb2a8f081dfb28bf",
      "transactionType": "CALL",
      "contractName": null,
      "contractAddress": "0x1d8e8cefeb085f3211ab6a443ad9051b54d1cd1a",
      "function": "setWhitelistedUser(address,bool)",
      "arguments": [
        "0xc9C9693b6A445D05Add0043662fad9Ac600Ad088",
        "true"
      ],
      "transaction": {
        "from": "0xb819a871d20913839c37f316dc914b0570bfc0ee",
        "to": "0x1d8e8cefeb085f3211ab6a443ad9051b54d1cd1a",
        "gas": "0x11d0b",
        "value": "0x0",
        "input": "0x44710fbe000000000000000000000000c9c9693b6a445d05add0043662fad9ac600ad0880000000000000000000000000000000000000000000000000000000000000001",
        "nonce": "0x96",
        "chainId": "0x1"
      },
      "additionalContracts": [],
      "isFixedGasLimit": false
    },
    {
      "hash": "0x71a885c7bd57d7c3d5bf65c9dfdf39c9af89959590aaa7c8dcd1c25b0f2607a1",
      "transactionType": "CALL",
      "contractName": null,
      "contractAddress": "0x1d8e8cefeb085f3211ab6a443ad9051b54d1cd1a",
      "function": "setWhitelistedUser(address,bool)",
      "arguments": [
        "0x7EfE40B2E6dA8b28AaB6Bd2D622B9Cd7f5fE077c",
        "true"
      ],
      "transaction": {
        "from": "0xb819a871d20913839c37f316dc914b0570bfc0ee",
        "to": "0x1d8e8cefeb085f3211ab6a443ad9051b54d1cd1a",
        "gas": "0x11d0b",
        "value": "0x0",
        "input": "0x44710fbe0000000000000000000000007efe40b2e6da8b28aab6bd2d622b9cd7f5fe077c0000000000000000000000000000000000000000000000000000000000000001",
        "nonce": "0x97",
        "chainId": "0x1"
      },
      "additionalContracts": [],
      "isFixedGasLimit": false
    },
    {
      "hash": "0xac2070eecd4e173293de84ecaaf924ecd674b6a329616fb47bd072afc79f7d57",
      "transactionType": "CALL",
      "contractName": null,
      "contractAddress": "0x1d8e8cefeb085f3211ab6a443ad9051b54d1cd1a",
      "function": "setWhitelistedUser(address,bool)",
      "arguments": [
        "0xa22DCB8F0A2848289124086F35ae9dB2a0006962",
        "true"
      ],
      "transaction": {
        "from": "0xb819a871d20913839c37f316dc914b0570bfc0ee",
        "to": "0x1d8e8cefeb085f3211ab6a443ad9051b54d1cd1a",
        "gas": "0x12dbf",
        "value": "0x0",
        "input": "0x44710fbe000000000000000000000000a22dcb8f0a2848289124086f35ae9db2a00069620000000000000000000000000000000000000000000000000000000000000001",
        "nonce": "0x98",
        "chainId": "0x1"
      },
      "additionalContracts": [],
      "isFixedGasLimit": false
    },
    {
      "hash": "0x391d2ef0f80e21aa8b91e4d38c565b889891c6f4fe1284bfb1034a0c343f22f3",
      "transactionType": "CALL",
      "contractName": null,
      "contractAddress": "0x1d8e8cefeb085f3211ab6a443ad9051b54d1cd1a",
      "function": "setWhitelistedUser(address,bool)",
      "arguments": [
        "0xB819A871d20913839c37f316Dc914b0570bfc0eE",
        "true"
      ],
      "transaction": {
        "from": "0xb819a871d20913839c37f316dc914b0570bfc0ee",
        "to": "0x1d8e8cefeb085f3211ab6a443ad9051b54d1cd1a",
        "gas": "0x11d0b",
        "value": "0x0",
        "input": "0x44710fbe000000000000000000000000b819a871d20913839c37f316dc914b0570bfc0ee0000000000000000000000000000000000000000000000000000000000000001",
        "nonce": "0x99",
        "chainId": "0x1"
      },
      "additionalContracts": [],
      "isFixedGasLimit": false
    },
    {
      "hash": "0x557a4bf8753cc71a46b3d72dcb36d345e503a82fe76bba25b4596d2bb91e008b",
      "transactionType": "CALL",
      "contractName": null,
      "contractAddress": "0x1d8e8cefeb085f3211ab6a443ad9051b54d1cd1a",
      "function": "setWhitelistedUser(address,bool)",
      "arguments": [
        "0x40282d3Cf4890D9806BC1853e97a59C93D813653",
        "true"
      ],
      "transaction": {
        "from": "0xb819a871d20913839c37f316dc914b0570bfc0ee",
        "to": "0x1d8e8cefeb085f3211ab6a443ad9051b54d1cd1a",
        "gas": "0x11d0b",
        "value": "0x0",
        "input": "0x44710fbe00000000000000000000000040282d3cf4890d9806bc1853e97a59c93d8136530000000000000000000000000000000000000000000000000000000000000001",
        "nonce": "0x9a",
        "chainId": "0x1"
      },
      "additionalContracts": [],
      "isFixedGasLimit": false
    },
    {
      "hash": "0xc5ab9aa2a6afc83eb6e61441e4b86789109f0b95bc5139577674bcd8d1e392b5",
      "transactionType": "CALL",
      "contractName": null,
      "contractAddress": "0x1d8e8cefeb085f3211ab6a443ad9051b54d1cd1a",
      "function": "setWhitelistedUser(address,bool)",
      "arguments": [
        "0xB5b901F1BB86421301138b5c45C1D3Fe96663161",
        "true"
      ],
      "transaction": {
        "from": "0xb819a871d20913839c37f316dc914b0570bfc0ee",
        "to": "0x1d8e8cefeb085f3211ab6a443ad9051b54d1cd1a",
        "gas": "0x11d0b",
        "value": "0x0",
        "input": "0x44710fbe000000000000000000000000b5b901f1bb86421301138b5c45c1d3fe966631610000000000000000000000000000000000000000000000000000000000000001",
        "nonce": "0x9b",
        "chainId": "0x1"
      },
      "additionalContracts": [],
      "isFixedGasLimit": false
    },
    {
      "hash": "0x8cfe333af3a769a94111523ed8a4346da0b79e38a86849263d79031b7873b48c",
      "transactionType": "CALL",
      "contractName": null,
      "contractAddress": "0x1d8e8cefeb085f3211ab6a443ad9051b54d1cd1a",
      "function": "setWhitelistedUser(address,bool)",
      "arguments": [
        "0xBAec8904499dcdee770c60df15b0C37EAC84Fb62",
        "true"
      ],
      "transaction": {
        "from": "0xb819a871d20913839c37f316dc914b0570bfc0ee",
        "to": "0x1d8e8cefeb085f3211ab6a443ad9051b54d1cd1a",
        "gas": "0x11d0b",
        "value": "0x0",
        "input": "0x44710fbe000000000000000000000000baec8904499dcdee770c60df15b0c37eac84fb620000000000000000000000000000000000000000000000000000000000000001",
        "nonce": "0x9c",
        "chainId": "0x1"
      },
      "additionalContracts": [],
      "isFixedGasLimit": false
    },
    {
      "hash": "0x0448587d245f22831ec4e4160a83dbb348a13ea405628ee5d807ef7ec0ac80fa",
      "transactionType": "CALL",
      "contractName": null,
      "contractAddress": "0x1d8e8cefeb085f3211ab6a443ad9051b54d1cd1a",
      "function": "setWhitelistedUser(address,bool)",
      "arguments": [
        "0xfC4A23271b60887FC246B060B6931a08E2BC434c",
        "true"
      ],
      "transaction": {
        "from": "0xb819a871d20913839c37f316dc914b0570bfc0ee",
        "to": "0x1d8e8cefeb085f3211ab6a443ad9051b54d1cd1a",
        "gas": "0x11d0b",
        "value": "0x0",
        "input": "0x44710fbe000000000000000000000000fc4a23271b60887fc246b060b6931a08e2bc434c0000000000000000000000000000000000000000000000000000000000000001",
        "nonce": "0x9d",
        "chainId": "0x1"
      },
      "additionalContracts": [],
      "isFixedGasLimit": false
    },
    {
      "hash": "0x56a4f48b8f375f969f4a8b596b64a22c7986488c3af824529473a0a9cd08b076",
      "transactionType": "CALL",
      "contractName": null,
      "contractAddress": "0x1d8e8cefeb085f3211ab6a443ad9051b54d1cd1a",
      "function": "setWhitelistedUser(address,bool)",
      "arguments": [
        "0x65b142550aE82f4BB3792E1eEfb2FC35541A3837",
        "true"
      ],
      "transaction": {
        "from": "0xb819a871d20913839c37f316dc914b0570bfc0ee",
        "to": "0x1d8e8cefeb085f3211ab6a443ad9051b54d1cd1a",
        "gas": "0x11d0b",
        "value": "0x0",
        "input": "0x44710fbe00000000000000000000000065b142550ae82f4bb3792e1eefb2fc35541a38370000000000000000000000000000000000000000000000000000000000000001",
        "nonce": "0x9e",
        "chainId": "0x1"
      },
      "additionalContracts": [],
      "isFixedGasLimit": false
    },
    {
      "hash": "0x21be8dda522fcead6c134f25a95a96b932757dd22d237f36b27a7793d6cf39fd",
      "transactionType": "CALL",
      "contractName": null,
      "contractAddress": "0x1d8e8cefeb085f3211ab6a443ad9051b54d1cd1a",
      "function": "setWhitelistedUser(address,bool)",
      "arguments": [
        "0x75149feEBb20E1fE5Ddb89302a6d4bACE70c14Ce",
        "true"
      ],
      "transaction": {
        "from": "0xb819a871d20913839c37f316dc914b0570bfc0ee",
        "to": "0x1d8e8cefeb085f3211ab6a443ad9051b54d1cd1a",
        "gas": "0x11d0b",
        "value": "0x0",
        "input": "0x44710fbe00000000000000000000000075149feebb20e1fe5ddb89302a6d4bace70c14ce0000000000000000000000000000000000000000000000000000000000000001",
        "nonce": "0x9f",
        "chainId": "0x1"
      },
      "additionalContracts": [],
      "isFixedGasLimit": false
    },
    {
      "hash": "0xc3f65053e36bcd3e40fe756c462895ff3a5b29c51b9fc3c97f670a4036806368",
      "transactionType": "CALL",
      "contractName": null,
      "contractAddress": "0x1d8e8cefeb085f3211ab6a443ad9051b54d1cd1a",
      "function": "setWhitelistedUser(address,bool)",
      "arguments": [
        "0x65B6D4770DAdcFba6d363dE86aA4D9c76283cea0",
        "true"
      ],
      "transaction": {
        "from": "0xb819a871d20913839c37f316dc914b0570bfc0ee",
        "to": "0x1d8e8cefeb085f3211ab6a443ad9051b54d1cd1a",
        "gas": "0x11d0b",
        "value": "0x0",
        "input": "0x44710fbe00000000000000000000000065b6d4770dadcfba6d363de86aa4d9c76283cea00000000000000000000000000000000000000000000000000000000000000001",
        "nonce": "0xa0",
        "chainId": "0x1"
      },
      "additionalContracts": [],
      "isFixedGasLimit": false
    },
    {
      "hash": "0x3794138398e37f96e41445c3fd136f4c4a0b75fd809c98c17512e846ae80ce2a",
      "transactionType": "CALL",
      "contractName": null,
      "contractAddress": "0x1d8e8cefeb085f3211ab6a443ad9051b54d1cd1a",
      "function": "setWhitelistedUser(address,bool)",
      "arguments": [
        "0xa6A9fdDC94BB4FE7520A2eA1CC2c433e18683342",
        "true"
      ],
      "transaction": {
        "from": "0xb819a871d20913839c37f316dc914b0570bfc0ee",
        "to": "0x1d8e8cefeb085f3211ab6a443ad9051b54d1cd1a",
        "gas": "0x11d0b",
        "value": "0x0",
        "input": "0x44710fbe000000000000000000000000a6a9fddc94bb4fe7520a2ea1cc2c433e186833420000000000000000000000000000000000000000000000000000000000000001",
        "nonce": "0xa1",
        "chainId": "0x1"
      },
      "additionalContracts": [],
      "isFixedGasLimit": false
    },
    {
      "hash": "0x32c329951771ad87d1536423166d85b77d899d38ab0f42011ea65fad2123752c",
      "transactionType": "CALL",
      "contractName": null,
      "contractAddress": "0x1d8e8cefeb085f3211ab6a443ad9051b54d1cd1a",
      "function": "setWhitelistedUser(address,bool)",
      "arguments": [
        "0x18D04F05f80ADE5373849385a1c24E1E0a6d1744",
        "true"
      ],
      "transaction": {
        "from": "0xb819a871d20913839c37f316dc914b0570bfc0ee",
        "to": "0x1d8e8cefeb085f3211ab6a443ad9051b54d1cd1a",
        "gas": "0x11d0b",
        "value": "0x0",
        "input": "0x44710fbe00000000000000000000000018d04f05f80ade5373849385a1c24e1e0a6d17440000000000000000000000000000000000000000000000000000000000000001",
        "nonce": "0xa2",
        "chainId": "0x1"
      },
      "additionalContracts": [],
      "isFixedGasLimit": false
    },
    {
      "hash": "0x186614ca2337034de2a197a12013e38adbd4b3442424e72b7f11e65c8294a2eb",
      "transactionType": "CALL",
      "contractName": null,
      "contractAddress": "0x1d8e8cefeb085f3211ab6a443ad9051b54d1cd1a",
      "function": "setWhitelistedUser(address,bool)",
      "arguments": [
        "0xBD9C90D6774CB5320B54Bb7998b6Bcc5e4A9071f",
        "true"
      ],
      "transaction": {
        "from": "0xb819a871d20913839c37f316dc914b0570bfc0ee",
        "to": "0x1d8e8cefeb085f3211ab6a443ad9051b54d1cd1a",
        "gas": "0x11d0b",
        "value": "0x0",
        "input": "0x44710fbe000000000000000000000000bd9c90d6774cb5320b54bb7998b6bcc5e4a9071f0000000000000000000000000000000000000000000000000000000000000001",
        "nonce": "0xa3",
        "chainId": "0x1"
      },
      "additionalContracts": [],
      "isFixedGasLimit": false
    },
    {
      "hash": "0xa61912bd1bf5e3d926b5689269d4063c66fea2a7f96cbf8de19eca465ca9592f",
      "transactionType": "CALL",
      "contractName": null,
      "contractAddress": "0x1d8e8cefeb085f3211ab6a443ad9051b54d1cd1a",
      "function": "setWhitelistedUser(address,bool)",
      "arguments": [
        "0x8f2eABa31B1b613ca78F2795bA05400F0583c5A4",
        "true"
      ],
      "transaction": {
        "from": "0xb819a871d20913839c37f316dc914b0570bfc0ee",
        "to": "0x1d8e8cefeb085f3211ab6a443ad9051b54d1cd1a",
        "gas": "0x11d0b",
        "value": "0x0",
        "input": "0x44710fbe0000000000000000000000008f2eaba31b1b613ca78f2795ba05400f0583c5a40000000000000000000000000000000000000000000000000000000000000001",
        "nonce": "0xa4",
        "chainId": "0x1"
      },
      "additionalContracts": [],
      "isFixedGasLimit": false
    },
    {
      "hash": "0x3bd0d4ef2a2680ccd4b3c031bdfad28f6df08d2e687ae92d8e5381cfb0006cfd",
      "transactionType": "CALL",
      "contractName": null,
      "contractAddress": "0x1d8e8cefeb085f3211ab6a443ad9051b54d1cd1a",
      "function": "setWhitelistedUser(address,bool)",
      "arguments": [
        "0x8f2eABa31B1b613ca78F2795bA05400F0583c5A4",
        "true"
      ],
      "transaction": {
        "from": "0xb819a871d20913839c37f316dc914b0570bfc0ee",
        "to": "0x1d8e8cefeb085f3211ab6a443ad9051b54d1cd1a",
        "gas": "0xbc21",
        "value": "0x0",
        "input": "0x44710fbe0000000000000000000000008f2eaba31b1b613ca78f2795ba05400f0583c5a40000000000000000000000000000000000000000000000000000000000000001",
        "nonce": "0xa5",
        "chainId": "0x1"
      },
      "additionalContracts": [],
      "isFixedGasLimit": false
    },
    {
      "hash": "0xd071f53266e24f0b208ec1f2a721f52698888fefcb09367e2f9f963c4e36bef4",
      "transactionType": "CALL",
      "contractName": null,
      "contractAddress": "0x1d8e8cefeb085f3211ab6a443ad9051b54d1cd1a",
      "function": "setWhitelistedUser(address,bool)",
      "arguments": [
        "0x50d8Deadd2b3140B151CaB2C4FB76F1f59b236F8",
        "true"
      ],
      "transaction": {
        "from": "0xb819a871d20913839c37f316dc914b0570bfc0ee",
        "to": "0x1d8e8cefeb085f3211ab6a443ad9051b54d1cd1a",
        "gas": "0xbc21",
        "value": "0x0",
        "input": "0x44710fbe00000000000000000000000050d8deadd2b3140b151cab2c4fb76f1f59b236f80000000000000000000000000000000000000000000000000000000000000001",
        "nonce": "0xa6",
        "chainId": "0x1"
      },
      "additionalContracts": [],
      "isFixedGasLimit": false
    },
    {
      "hash": "0x431aa893a140bf7762f3aff2dc27b245f6ba931f90a7dba1b8d7d23e89a95a0a",
      "transactionType": "CALL",
      "contractName": null,
      "contractAddress": "0x1d8e8cefeb085f3211ab6a443ad9051b54d1cd1a",
      "function": "setWhitelistedUser(address,bool)",
      "arguments": [
        "0x574582C44e3f1EF2cB29a7131B057FebBCC8244E",
        "true"
      ],
      "transaction": {
        "from": "0xb819a871d20913839c37f316dc914b0570bfc0ee",
        "to": "0x1d8e8cefeb085f3211ab6a443ad9051b54d1cd1a",
        "gas": "0xbc21",
        "value": "0x0",
        "input": "0x44710fbe000000000000000000000000574582c44e3f1ef2cb29a7131b057febbcc8244e0000000000000000000000000000000000000000000000000000000000000001",
        "nonce": "0xa7",
        "chainId": "0x1"
      },
      "additionalContracts": [],
      "isFixedGasLimit": false
    },
    {
      "hash": "0xbf6c87d6786f16a0a2144757f49dac7f0fd0e2d8462de313e4822d2698a8ab49",
      "transactionType": "CALL",
      "contractName": null,
      "contractAddress": "0x1d8e8cefeb085f3211ab6a443ad9051b54d1cd1a",
      "function": "setWhitelistedUser(address,bool)",
      "arguments": [
        "0xBd0Ce952bA069A1e15f3bf3916d4B07bBBdBC8B3",
        "true"
      ],
      "transaction": {
        "from": "0xb819a871d20913839c37f316dc914b0570bfc0ee",
        "to": "0x1d8e8cefeb085f3211ab6a443ad9051b54d1cd1a",
        "gas": "0x11d0b",
        "value": "0x0",
        "input": "0x44710fbe000000000000000000000000bd0ce952ba069a1e15f3bf3916d4b07bbbdbc8b30000000000000000000000000000000000000000000000000000000000000001",
        "nonce": "0xa8",
        "chainId": "0x1"
      },
      "additionalContracts": [],
      "isFixedGasLimit": false
    }
  ],
  "receipts": [
    {
      "status": "0x1",
      "cumulativeGasUsed": "0xcf3abd",
      "logs": [
        {
          "address": "0x1d8e8cefeb085f3211ab6a443ad9051b54d1cd1a",
          "topics": [
            "0x4059c608a8f17b9b24a5a29662eb74934d39ea92ae22411868f07fcac29487a0",
            "0x000000000000000000000000f20a8950c368ec48323092d6e4acf90aadf2bdc6"
          ],
          "data": "0x0000000000000000000000000000000000000000000000000000000000000001",
          "blockHash": "0xc21300d7e33452bec69874a710360f24efd62a687430683eccd8d6ba908e0481",
          "blockNumber": "0x1573eb0",
          "blockTimestamp": "0x68270c4b",
          "transactionHash": "0x84df5221e6ccfd4a58ddcae1df3fac03a0bafeb51ad797f5814a7a2b61a9b6af",
          "transactionIndex": "0x91",
          "logIndex": "0x178",
          "removed": false
        }
      ],
      "logsBloom": "0x00000000000000000000000002000000000000000800000000000000000000000000000000000000000000020000000000000000000000000000000000000000000000000000000000000000000000000000000000000000000000000000000000000000000000000000000000000000000000000000000000000000000000000000000000000000000000000000000000000000000000000000000000000000000000000040000000000000000000000000020000000000000000000000000000000000000000000000000000000000000000000000000000001000004000000000000000008000000000000000000000000000000000000000000000800000",
      "type": "0x2",
      "transactionHash": "0x84df5221e6ccfd4a58ddcae1df3fac03a0bafeb51ad797f5814a7a2b61a9b6af",
      "transactionIndex": "0x91",
      "blockHash": "0xc21300d7e33452bec69874a710360f24efd62a687430683eccd8d6ba908e0481",
      "blockNumber": "0x1573eb0",
      "gasUsed": "0xce5f",
      "effectiveGasPrice": "0x767d7292",
      "from": "0xb819a871d20913839c37f316dc914b0570bfc0ee",
      "to": "0x1d8e8cefeb085f3211ab6a443ad9051b54d1cd1a",
      "contractAddress": null
    },
    {
      "status": "0x1",
      "cumulativeGasUsed": "0xe97187",
      "logs": [
        {
          "address": "0x1d8e8cefeb085f3211ab6a443ad9051b54d1cd1a",
          "topics": [
            "0x4059c608a8f17b9b24a5a29662eb74934d39ea92ae22411868f07fcac29487a0",
            "0x0000000000000000000000008e72a24221517e51502f20f387415a06b27a5b51"
          ],
          "data": "0x0000000000000000000000000000000000000000000000000000000000000001",
          "blockHash": "0x02196b2b159ce485c96a050e998b78509829a0d2f0dddca9b36e26161717785a",
          "blockNumber": "0x1573eb1",
          "blockTimestamp": "0x68270c57",
          "transactionHash": "0x10e2d30758cf22a74c0f29e18708f0d0399225b324e45654f4f039da6a3a54df",
          "transactionIndex": "0x80",
          "logIndex": "0x1c2",
          "removed": false
        }
      ],
      "logsBloom": "0x00000000000000000000000002000000000000000800000000000000000000000000000000000000000000020000000000000000000000000000000000000000000000000000000000000000000000000000000000000000000000000000000000000000000000000000000000000000000000000000000000000800000000000000000000000000000000000000000000000000000000000000000000020000000000000040000000000000000000000000000000000000000000000000000000000000000000000000000000000000000000000001000000000000000000000000000000008000000000000000000000000000000000000000000000800000",
      "type": "0x2",
      "transactionHash": "0x10e2d30758cf22a74c0f29e18708f0d0399225b324e45654f4f039da6a3a54df",
      "transactionIndex": "0x80",
      "blockHash": "0x02196b2b159ce485c96a050e998b78509829a0d2f0dddca9b36e26161717785a",
      "blockNumber": "0x1573eb1",
      "gasUsed": "0xce5f",
      "effectiveGasPrice": "0x74ed0c27",
      "from": "0xb819a871d20913839c37f316dc914b0570bfc0ee",
      "to": "0x1d8e8cefeb085f3211ab6a443ad9051b54d1cd1a",
      "contractAddress": null
    },
    {
      "status": "0x1",
      "cumulativeGasUsed": "0xf0e229",
      "logs": [
        {
          "address": "0x1d8e8cefeb085f3211ab6a443ad9051b54d1cd1a",
          "topics": [
            "0x4059c608a8f17b9b24a5a29662eb74934d39ea92ae22411868f07fcac29487a0",
            "0x00000000000000000000000050d8deadd2b3140b151cab2c4fb76f1f59b236f8"
          ],
          "data": "0x0000000000000000000000000000000000000000000000000000000000000001",
          "blockHash": "0x48b39c88628736471b5ef36397dd62921acd0a020f3d5358f25e8d114323cdfa",
          "blockNumber": "0x1573eb2",
          "blockTimestamp": "0x68270c63",
          "transactionHash": "0x10138b408829ea589b331f2dbcb23f2beb2356e7607da06ff97dcfba6769883f",
          "transactionIndex": "0x9d",
          "logIndex": "0x19e",
          "removed": false
        }
      ],
      "logsBloom": "0x00000000000000000000000002000000000000000800200000000000000000000000000000000000000000020000000000000000000000000000000000000000000000000000000000000000000000000000000000000000000000000000000000000000000000000000000000000000000000000000000000000000020000000000000000000000000000000000000000000000000000000000000000000000000000000040000000000000000000000000000000000000000000000000000000000000000000000000000000000000000000000000000000000000000000000000000000808000000000000000000000000000000000000000000000800000",
      "type": "0x2",
      "transactionHash": "0x10138b408829ea589b331f2dbcb23f2beb2356e7607da06ff97dcfba6769883f",
      "transactionIndex": "0x9d",
      "blockHash": "0x48b39c88628736471b5ef36397dd62921acd0a020f3d5358f25e8d114323cdfa",
      "blockNumber": "0x1573eb2",
      "gasUsed": "0xce5f",
      "effectiveGasPrice": "0x7538fc95",
      "from": "0xb819a871d20913839c37f316dc914b0570bfc0ee",
      "to": "0x1d8e8cefeb085f3211ab6a443ad9051b54d1cd1a",
      "contractAddress": null
    },
    {
      "status": "0x1",
      "cumulativeGasUsed": "0xddf030",
      "logs": [
        {
          "address": "0x1d8e8cefeb085f3211ab6a443ad9051b54d1cd1a",
          "topics": [
            "0x4059c608a8f17b9b24a5a29662eb74934d39ea92ae22411868f07fcac29487a0",
            "0x000000000000000000000000574582c44e3f1ef2cb29a7131b057febbcc8244e"
          ],
          "data": "0x0000000000000000000000000000000000000000000000000000000000000001",
          "blockHash": "0x8cffeb2164d662708df88abe822fe1acf5fe0f9d18c3f561747e5e54bdaf5f80",
          "blockNumber": "0x1573eb3",
          "blockTimestamp": "0x68270c6f",
          "transactionHash": "0x6b3e69bfde82969603558ae8efddc79604c2830a1fef360b225f588afa67a74a",
          "transactionIndex": "0xa5",
          "logIndex": "0x178",
          "removed": false
        }
      ],
      "logsBloom": "0x00000000000000000000000002000000000000000800000000000000000000000000000000000000000000020000000000000000000000000000000000000000000000000000200000000000000000000000000000000000000000000000000000000000000000000000000000000000000000000000000000000000000000000000000000000000000000100000000000000000000000000000000000000000004000000040000000000000000000000000000000000000000000000000000000000000000000000000000000000000000000000000000000000000000000000000000000008000000000000000000000000000000000000000000000800000",
      "type": "0x2",
      "transactionHash": "0x6b3e69bfde82969603558ae8efddc79604c2830a1fef360b225f588afa67a74a",
      "transactionIndex": "0xa5",
      "blockHash": "0x8cffeb2164d662708df88abe822fe1acf5fe0f9d18c3f561747e5e54bdaf5f80",
      "blockNumber": "0x1573eb3",
      "gasUsed": "0xce5f",
      "effectiveGasPrice": "0x7647515b",
      "from": "0xb819a871d20913839c37f316dc914b0570bfc0ee",
      "to": "0x1d8e8cefeb085f3211ab6a443ad9051b54d1cd1a",
      "contractAddress": null
    },
    {
      "status": "0x1",
      "cumulativeGasUsed": "0xd297cf",
      "logs": [
        {
          "address": "0x1d8e8cefeb085f3211ab6a443ad9051b54d1cd1a",
          "topics": [
            "0x4059c608a8f17b9b24a5a29662eb74934d39ea92ae22411868f07fcac29487a0",
            "0x000000000000000000000000281567fe62b587ec1755f6f33b80160f544dc5d0"
          ],
          "data": "0x0000000000000000000000000000000000000000000000000000000000000001",
          "blockHash": "0xa92e6a7635d18d7f2c5151f9be0486b00b9fe3f050b40978544176ee4cce9c25",
          "blockNumber": "0x1573eb4",
          "blockTimestamp": "0x68270c7b",
          "transactionHash": "0xe4821df8c2a3176ed8e0fb746561635b66df81ac035b659e8bd000f0600f3cde",
          "transactionIndex": "0x9a",
          "logIndex": "0x18c",
          "removed": false
        }
      ],
      "logsBloom": "0x00200000000000000000000002000000000000000800000000000000000000000000000000000000000000020000000000000000000000000000000000000000000000000000000000000000000000000000000000000000000000000002000000000000000000000000000000000000000000000000000000000000000000000000000000000000000000000000000000000000800000000000000000000000000000000040000000000000000000000000000000000000000000000000000000000000000000000000000000000000000000000000000000000000000000000000000000008000000000000000000000000000000000000000000000800000",
      "type": "0x2",
      "transactionHash": "0xe4821df8c2a3176ed8e0fb746561635b66df81ac035b659e8bd000f0600f3cde",
      "transactionIndex": "0x9a",
      "blockHash": "0xa92e6a7635d18d7f2c5151f9be0486b00b9fe3f050b40978544176ee4cce9c25",
      "blockNumber": "0x1573eb4",
      "gasUsed": "0xce5f",
      "effectiveGasPrice": "0x74fd1053",
      "from": "0xb819a871d20913839c37f316dc914b0570bfc0ee",
      "to": "0x1d8e8cefeb085f3211ab6a443ad9051b54d1cd1a",
      "contractAddress": null
    },
    {
      "status": "0x1",
      "cumulativeGasUsed": "0x888233",
      "logs": [
        {
          "address": "0x1d8e8cefeb085f3211ab6a443ad9051b54d1cd1a",
          "topics": [
            "0x4059c608a8f17b9b24a5a29662eb74934d39ea92ae22411868f07fcac29487a0",
            "0x0000000000000000000000002705f6a8f01bd4a805d9fc73151dbe37bb8d1ede"
          ],
          "data": "0x0000000000000000000000000000000000000000000000000000000000000001",
          "blockHash": "0xe85d1fe946d0525e55df68c79c79b993aa36cab67024f9cd32faa68281557064",
          "blockNumber": "0x1573eb5",
          "blockTimestamp": "0x68270c87",
          "transactionHash": "0xdd5e3327238a92016a6c1a34478c1619c3cdc1b59093f747b8a7e57e4fa4837b",
          "transactionIndex": "0x5e",
          "logIndex": "0x107",
          "removed": false
        }
      ],
      "logsBloom": "0x00000000000000000000000002000000000000000800000000000000000040000000000000000000000000020000000000000000000000000000000000000000000000000000000000000000000000000000000000000040000000000000000000000000000000000000000000000000000000000000000000000040000000000000000000000000000000000000000000000000000000000000000000000000000000000040000000000000000000000000000000000000000000000000000000000000000000000000000000000000000000000000000000000000000000000000000000008000000000000000000000000000000000000000000000800000",
      "type": "0x2",
      "transactionHash": "0xdd5e3327238a92016a6c1a34478c1619c3cdc1b59093f747b8a7e57e4fa4837b",
      "transactionIndex": "0x5e",
      "blockHash": "0xe85d1fe946d0525e55df68c79c79b993aa36cab67024f9cd32faa68281557064",
      "blockNumber": "0x1573eb5",
      "gasUsed": "0xce5f",
      "effectiveGasPrice": "0x73588fc8",
      "from": "0xb819a871d20913839c37f316dc914b0570bfc0ee",
      "to": "0x1d8e8cefeb085f3211ab6a443ad9051b54d1cd1a",
      "contractAddress": null
    },
    {
      "status": "0x1",
      "cumulativeGasUsed": "0x106e3f3",
      "logs": [
        {
          "address": "0x1d8e8cefeb085f3211ab6a443ad9051b54d1cd1a",
          "topics": [
            "0x4059c608a8f17b9b24a5a29662eb74934d39ea92ae22411868f07fcac29487a0",
            "0x000000000000000000000000c9c9693b6a445d05add0043662fad9ac600ad088"
          ],
          "data": "0x0000000000000000000000000000000000000000000000000000000000000001",
          "blockHash": "0x4b6cbc249ced06705850e88d44a5001d501270ded391aa591d90af7debd0ff04",
          "blockNumber": "0x1573eb6",
          "blockTimestamp": "0x68270c93",
          "transactionHash": "0x4e49ba5e1a8334b829ff307c35f5dc6e43c0b4e9d7ba8d31fb2a8f081dfb28bf",
          "transactionIndex": "0xbe",
          "logIndex": "0x1e4",
          "removed": false
        }
      ],
      "logsBloom": "0x00000000000000000000000002000000000000000800000000000000000000000000000010000000000000020000000000000000000000000000000000000000000000000000000000000000000000000000000000000000000000000000000000000000000000000000000000000000000000000000000000000000000000000000000000000000000000000000000000000000000000000000000000000000000000001040000000000000000000000000000000000000000000000000000000000001000000000000000000000000000000000000000000000000000000000000000000008000000000000000000000000000000000000000000000800000",
      "type": "0x2",
      "transactionHash": "0x4e49ba5e1a8334b829ff307c35f5dc6e43c0b4e9d7ba8d31fb2a8f081dfb28bf",
      "transactionIndex": "0xbe",
      "blockHash": "0x4b6cbc249ced06705850e88d44a5001d501270ded391aa591d90af7debd0ff04",
      "blockNumber": "0x1573eb6",
      "gasUsed": "0xce5f",
      "effectiveGasPrice": "0x6d5d384d",
      "from": "0xb819a871d20913839c37f316dc914b0570bfc0ee",
      "to": "0x1d8e8cefeb085f3211ab6a443ad9051b54d1cd1a",
      "contractAddress": null
    },
    {
      "status": "0x1",
      "cumulativeGasUsed": "0xb82ebc",
      "logs": [
        {
          "address": "0x1d8e8cefeb085f3211ab6a443ad9051b54d1cd1a",
          "topics": [
            "0x4059c608a8f17b9b24a5a29662eb74934d39ea92ae22411868f07fcac29487a0",
            "0x0000000000000000000000007efe40b2e6da8b28aab6bd2d622b9cd7f5fe077c"
          ],
          "data": "0x0000000000000000000000000000000000000000000000000000000000000001",
          "blockHash": "0x1541261d8e059fd81add3abe5264b421418d4cd394a21506fa7a1787d4ddca82",
          "blockNumber": "0x1573eb7",
          "blockTimestamp": "0x68270c9f",
          "transactionHash": "0x71a885c7bd57d7c3d5bf65c9dfdf39c9af89959590aaa7c8dcd1c25b0f2607a1",
          "transactionIndex": "0x88",
          "logIndex": "0x175",
          "removed": false
        }
      ],
      "logsBloom": "0x00000000000000000000000002000000000000000800000000000000000000000000000000000000000000020000000000000000000000000000000000000000000000000000000000080000000000000000000000000000000000000000000000000000000000000000000000000000000000000000000000000000000000000000000200000000000000000000000000000000000000000000000000000000000000000040000000000000000000000000000000000000000000000000000000000000000000000000000000000000000000800000000000000000000000000000000000008000000000000000000000000000000000000000000000800000",
      "type": "0x2",
      "transactionHash": "0x71a885c7bd57d7c3d5bf65c9dfdf39c9af89959590aaa7c8dcd1c25b0f2607a1",
      "transactionIndex": "0x88",
      "blockHash": "0x1541261d8e059fd81add3abe5264b421418d4cd394a21506fa7a1787d4ddca82",
      "blockNumber": "0x1573eb7",
      "gasUsed": "0xce5f",
      "effectiveGasPrice": "0x6f126761",
      "from": "0xb819a871d20913839c37f316dc914b0570bfc0ee",
      "to": "0x1d8e8cefeb085f3211ab6a443ad9051b54d1cd1a",
      "contractAddress": null
    },
    {
      "status": "0x1",
      "cumulativeGasUsed": "0x1216c77",
      "logs": [
        {
          "address": "0x1d8e8cefeb085f3211ab6a443ad9051b54d1cd1a",
          "topics": [
            "0x4059c608a8f17b9b24a5a29662eb74934d39ea92ae22411868f07fcac29487a0",
            "0x000000000000000000000000a22dcb8f0a2848289124086f35ae9db2a0006962"
          ],
          "data": "0x0000000000000000000000000000000000000000000000000000000000000001",
          "blockHash": "0x76288f10484d926a7540d56ad639a3acd711a58947fc9d4ce6a096c3a6f0d67c",
          "blockNumber": "0x1573eb8",
          "blockTimestamp": "0x68270cab",
          "transactionHash": "0xac2070eecd4e173293de84ecaaf924ecd674b6a329616fb47bd072afc79f7d57",
          "transactionIndex": "0xd4",
          "logIndex": "0x1ea",
          "removed": false
        }
      ],
      "logsBloom": "0x00000000000000000100000002000000000000000800000000000000000000000000000000000000000000020000000000000000000000000000000000000000000000100000000000000000000000000000000000000000000000000000000000000000000000000000000000000000000000000000000000000000000000000000000000000000000000000000000000000000000000200000000000000000000000000040000000000000000000000000000000000000000000000000000000000000000000000000000000000000000000000000000000000000000000000000000000008000000000000000000000000000000000000000000000800000",
      "type": "0x2",
      "transactionHash": "0xac2070eecd4e173293de84ecaaf924ecd674b6a329616fb47bd072afc79f7d57",
      "transactionIndex": "0xd4",
      "blockHash": "0x76288f10484d926a7540d56ad639a3acd711a58947fc9d4ce6a096c3a6f0d67c",
      "blockNumber": "0x1573eb8",
      "gasUsed": "0xce53",
      "effectiveGasPrice": "0x6cbc2cf5",
      "from": "0xb819a871d20913839c37f316dc914b0570bfc0ee",
      "to": "0x1d8e8cefeb085f3211ab6a443ad9051b54d1cd1a",
      "contractAddress": null
    },
    {
      "status": "0x1",
      "cumulativeGasUsed": "0x49b700",
      "logs": [
        {
          "address": "0x1d8e8cefeb085f3211ab6a443ad9051b54d1cd1a",
          "topics": [
            "0x4059c608a8f17b9b24a5a29662eb74934d39ea92ae22411868f07fcac29487a0",
            "0x000000000000000000000000b819a871d20913839c37f316dc914b0570bfc0ee"
          ],
          "data": "0x0000000000000000000000000000000000000000000000000000000000000001",
          "blockHash": "0x669af54e8f5c90a66d7db436dc251c082627d1e25c31b90a28a29c267160f760",
          "blockNumber": "0x1573eb9",
          "blockTimestamp": "0x68270cb7",
          "transactionHash": "0x391d2ef0f80e21aa8b91e4d38c565b889891c6f4fe1284bfb1034a0c343f22f3",
          "transactionIndex": "0x53",
          "logIndex": "0x5f",
          "removed": false
        }
      ],
      "logsBloom": "0x00000000000000000000000002000000000000000800000000000000000000000000000000000000000000020000000000000000000000000000000000000002000000000080000000000000000000000000000000000000000000000000000000000000000000000000000000000000000000000000000000000000000000000000000000000000000000000000000000000000000000000000000000000000000000000040000000000000000000000000000000000000000000000000000000000000000000000000000000000000000000000000000000000200000000000000000000008000000000000000000000000000000000000000000000800000",
      "type": "0x2",
      "transactionHash": "0x391d2ef0f80e21aa8b91e4d38c565b889891c6f4fe1284bfb1034a0c343f22f3",
      "transactionIndex": "0x53",
      "blockHash": "0x669af54e8f5c90a66d7db436dc251c082627d1e25c31b90a28a29c267160f760",
      "blockNumber": "0x1573eb9",
      "gasUsed": "0xce5f",
      "effectiveGasPrice": "0x6ef48409",
      "from": "0xb819a871d20913839c37f316dc914b0570bfc0ee",
      "to": "0x1d8e8cefeb085f3211ab6a443ad9051b54d1cd1a",
      "contractAddress": null
    },
    {
      "status": "0x1",
      "cumulativeGasUsed": "0x15f64da",
      "logs": [
        {
          "address": "0x1d8e8cefeb085f3211ab6a443ad9051b54d1cd1a",
          "topics": [
            "0x4059c608a8f17b9b24a5a29662eb74934d39ea92ae22411868f07fcac29487a0",
            "0x00000000000000000000000040282d3cf4890d9806bc1853e97a59c93d813653"
          ],
          "data": "0x0000000000000000000000000000000000000000000000000000000000000001",
          "blockHash": "0xec5a0426a1e7cc0aee92eadcdca04a01e6e68aadd4f210be80c781d015d01601",
          "blockNumber": "0x1573eba",
          "blockTimestamp": "0x68270cc3",
          "transactionHash": "0x557a4bf8753cc71a46b3d72dcb36d345e503a82fe76bba25b4596d2bb91e008b",
          "transactionIndex": "0xd0",
          "logIndex": "0x2b1",
          "removed": false
        }
      ],
      "logsBloom": "0x00000000000000000000000002000000000000000800000000000000000000000000004000000000000000020000000000000000000000000000000000000000000000000000000000000000000000000000000000000000000000000000000000000000000000000000000000000000000000000000000000000000000000000000000040000000000000000000000000000000000200000000000000000000000000000040000000000000000000000000000000000000000000000000000000000000000000000000000000000000000000000000000000000000000000000000000000008000000000000000000000000000000000000000000000800000",
      "type": "0x2",
      "transactionHash": "0x557a4bf8753cc71a46b3d72dcb36d345e503a82fe76bba25b4596d2bb91e008b",
      "transactionIndex": "0xd0",
      "blockHash": "0xec5a0426a1e7cc0aee92eadcdca04a01e6e68aadd4f210be80c781d015d01601",
      "blockNumber": "0x1573eba",
      "gasUsed": "0xce5f",
      "effectiveGasPrice": "0x6733575c",
      "from": "0xb819a871d20913839c37f316dc914b0570bfc0ee",
      "to": "0x1d8e8cefeb085f3211ab6a443ad9051b54d1cd1a",
      "contractAddress": null
    },
    {
      "status": "0x1",
      "cumulativeGasUsed": "0x183bdab",
      "logs": [
        {
          "address": "0x1d8e8cefeb085f3211ab6a443ad9051b54d1cd1a",
          "topics": [
            "0x4059c608a8f17b9b24a5a29662eb74934d39ea92ae22411868f07fcac29487a0",
            "0x000000000000000000000000b5b901f1bb86421301138b5c45c1d3fe96663161"
          ],
          "data": "0x0000000000000000000000000000000000000000000000000000000000000001",
          "blockHash": "0xa81a7a71ce493e8a63b90cc3152efbb91cb2c0470cf29bf915eb9d774292c21d",
          "blockNumber": "0x1573ebb",
          "blockTimestamp": "0x68270ccf",
          "transactionHash": "0xc5ab9aa2a6afc83eb6e61441e4b86789109f0b95bc5139577674bcd8d1e392b5",
          "transactionIndex": "0x10f",
          "logIndex": "0x254",
          "removed": false
        }
      ],
      "logsBloom": "0x00000000000000000000000002000000000000000800000000000000000000004000000000000000000000020000000000000000000000000000000000000000000000000000000000000000000000000000000000800000000000000000000000000000000000000000000000000000000000000000000000000000000000000000000000000000000000000000000000000000000000000000000000000000000000000040010000000000000000000000000000000000000000000000000000000000000000000000000000000000000000000000000000000000000000000000000000008000000000000000000000000000000000000000000000800000",
      "type": "0x2",
      "transactionHash": "0xc5ab9aa2a6afc83eb6e61441e4b86789109f0b95bc5139577674bcd8d1e392b5",
      "transactionIndex": "0x10f",
      "blockHash": "0xa81a7a71ce493e8a63b90cc3152efbb91cb2c0470cf29bf915eb9d774292c21d",
      "blockNumber": "0x1573ebb",
      "gasUsed": "0xce5f",
      "effectiveGasPrice": "0x6dfc76aa",
      "from": "0xb819a871d20913839c37f316dc914b0570bfc0ee",
      "to": "0x1d8e8cefeb085f3211ab6a443ad9051b54d1cd1a",
      "contractAddress": null
    },
    {
      "status": "0x1",
      "cumulativeGasUsed": "0xeae1e8",
      "logs": [
        {
          "address": "0x1d8e8cefeb085f3211ab6a443ad9051b54d1cd1a",
          "topics": [
            "0x4059c608a8f17b9b24a5a29662eb74934d39ea92ae22411868f07fcac29487a0",
            "0x000000000000000000000000baec8904499dcdee770c60df15b0c37eac84fb62"
          ],
          "data": "0x0000000000000000000000000000000000000000000000000000000000000001",
          "blockHash": "0x40edf83ad9fd4fdbf91c414c8db2fc75d73c4deba523085654a7ba921b6f6a94",
          "blockNumber": "0x1573ebc",
          "blockTimestamp": "0x68270cdb",
          "transactionHash": "0x8cfe333af3a769a94111523ed8a4346da0b79e38a86849263d79031b7873b48c",
          "transactionIndex": "0xa9",
          "logIndex": "0x19b",
          "removed": false
        }
      ],
      "logsBloom": "0x00000000000000000000000002000000000000000800000000000000000000000000000000000000000000020000000000000000000000000000000000000000000000000000800000000000000080000000000000000000000000000000000000000000000000000000000000000000000000000000000000000000000000000000000000000000000000000000000000000000000000000000000000000000000000000040000000000000000000000000000000000000000000000000000000000000000000000000000000000000008000000000000000000000000000000000000000008000000000000000000000000000000000000000000000800000",
      "type": "0x2",
      "transactionHash": "0x8cfe333af3a769a94111523ed8a4346da0b79e38a86849263d79031b7873b48c",
      "transactionIndex": "0xa9",
      "blockHash": "0x40edf83ad9fd4fdbf91c414c8db2fc75d73c4deba523085654a7ba921b6f6a94",
      "blockNumber": "0x1573ebc",
      "gasUsed": "0xce5f",
      "effectiveGasPrice": "0x76a2bacf",
      "from": "0xb819a871d20913839c37f316dc914b0570bfc0ee",
      "to": "0x1d8e8cefeb085f3211ab6a443ad9051b54d1cd1a",
      "contractAddress": null
    },
    {
      "status": "0x1",
      "cumulativeGasUsed": "0x1049437",
      "logs": [
        {
          "address": "0x1d8e8cefeb085f3211ab6a443ad9051b54d1cd1a",
          "topics": [
            "0x4059c608a8f17b9b24a5a29662eb74934d39ea92ae22411868f07fcac29487a0",
            "0x000000000000000000000000fc4a23271b60887fc246b060b6931a08e2bc434c"
          ],
          "data": "0x0000000000000000000000000000000000000000000000000000000000000001",
          "blockHash": "0x285ad226aa7fb6ade36be91b519ee881e548aa910db09f33e632502fcac02f8b",
          "blockNumber": "0x1573ebd",
          "blockTimestamp": "0x68270ce7",
          "transactionHash": "0x0448587d245f22831ec4e4160a83dbb348a13ea405628ee5d807ef7ec0ac80fa",
          "transactionIndex": "0xc3",
          "logIndex": "0x1bc",
          "removed": false
        }
      ],
      "logsBloom": "0x00000200000000000000000002000000000000000800000000000000000000000000000000000000000000020000000000000000000000000000000000000000000000000000020000000000000000000000000000000000000000004000000000000000000000000000000000000000000000000000000000000000000000000000000000000000000000000000000000000000000000000000000000000000000000000040000000000000000000000000000000000000000000000000000000000000000000000000000000000000000000000000000000000000000000000000000000008000000000000000000000000000000000000000000000800000",
      "type": "0x2",
      "transactionHash": "0x0448587d245f22831ec4e4160a83dbb348a13ea405628ee5d807ef7ec0ac80fa",
      "transactionIndex": "0xc3",
      "blockHash": "0x285ad226aa7fb6ade36be91b519ee881e548aa910db09f33e632502fcac02f8b",
      "blockNumber": "0x1573ebd",
      "gasUsed": "0xce5f",
      "effectiveGasPrice": "0x76e0dc59",
      "from": "0xb819a871d20913839c37f316dc914b0570bfc0ee",
      "to": "0x1d8e8cefeb085f3211ab6a443ad9051b54d1cd1a",
      "contractAddress": null
    },
    {
      "status": "0x1",
      "cumulativeGasUsed": "0x960314",
      "logs": [
        {
          "address": "0x1d8e8cefeb085f3211ab6a443ad9051b54d1cd1a",
          "topics": [
            "0x4059c608a8f17b9b24a5a29662eb74934d39ea92ae22411868f07fcac29487a0",
            "0x00000000000000000000000065b142550ae82f4bb3792e1eefb2fc35541a3837"
          ],
          "data": "0x0000000000000000000000000000000000000000000000000000000000000001",
          "blockHash": "0x5a24363d40ba99529e3fed47fc16a067d65b6871844584c9312b830085f313db",
          "blockNumber": "0x1573ebe",
          "blockTimestamp": "0x68270cf3",
          "transactionHash": "0x56a4f48b8f375f969f4a8b596b64a22c7986488c3af824529473a0a9cd08b076",
          "transactionIndex": "0x71",
          "logIndex": "0x10d",
          "removed": false
        }
      ],
      "logsBloom": "0x00000000000000000000000002000000000000000800000000000000000000000000000000000000000000020000000000000000000000000000000000000000000000000000000000000000000000000000000000000000000000000000000000000000000000000000000000000000000000000000000000000000000000000000000000000000000000000000000000000000000000000000000000000000000040000040000000000000000000080000000000000000000000000000000000000000000000000000000000000000000000000000000000000000008000000000000000008000000000000000000000000000000000000000000000800000",
      "type": "0x2",
      "transactionHash": "0x56a4f48b8f375f969f4a8b596b64a22c7986488c3af824529473a0a9cd08b076",
      "transactionIndex": "0x71",
      "blockHash": "0x5a24363d40ba99529e3fed47fc16a067d65b6871844584c9312b830085f313db",
      "blockNumber": "0x1573ebe",
      "gasUsed": "0xce5f",
      "effectiveGasPrice": "0x797c5786",
      "from": "0xb819a871d20913839c37f316dc914b0570bfc0ee",
      "to": "0x1d8e8cefeb085f3211ab6a443ad9051b54d1cd1a",
      "contractAddress": null
    },
    {
      "status": "0x1",
      "cumulativeGasUsed": "0x10baabb",
      "logs": [
        {
          "address": "0x1d8e8cefeb085f3211ab6a443ad9051b54d1cd1a",
          "topics": [
            "0x4059c608a8f17b9b24a5a29662eb74934d39ea92ae22411868f07fcac29487a0",
            "0x00000000000000000000000075149feebb20e1fe5ddb89302a6d4bace70c14ce"
          ],
          "data": "0x0000000000000000000000000000000000000000000000000000000000000001",
          "blockHash": "0x29cab6d7f170ea6fc858d3e14d97f55cb8e98414de4db2d5430352e991882d2d",
          "blockNumber": "0x1573ebf",
          "blockTimestamp": "0x68270cff",
          "transactionHash": "0x21be8dda522fcead6c134f25a95a96b932757dd22d237f36b27a7793d6cf39fd",
          "transactionIndex": "0xae",
          "logIndex": "0x1c6",
          "removed": false
        }
      ],
      "logsBloom": "0x00000000000000200000000002000000000000000800000000000000000000000000000000000000040000020000000000000000000000000000000000000000000000000000000000000000000000000000000000000000000000000000000000000000000000000000000000000000000000000000000000000000000000000000000000000000000000000000000000000000000000000000000000000000000000000040000000000000000010000000000000000000000000000000000000000000000000000000000000000000000000000000000000000000000000000000000000008000000000000000000000000000000000000000000000800000",
      "type": "0x2",
      "transactionHash": "0x21be8dda522fcead6c134f25a95a96b932757dd22d237f36b27a7793d6cf39fd",
      "transactionIndex": "0xae",
      "blockHash": "0x29cab6d7f170ea6fc858d3e14d97f55cb8e98414de4db2d5430352e991882d2d",
      "blockNumber": "0x1573ebf",
      "gasUsed": "0xce5f",
      "effectiveGasPrice": "0x75d7c71f",
      "from": "0xb819a871d20913839c37f316dc914b0570bfc0ee",
      "to": "0x1d8e8cefeb085f3211ab6a443ad9051b54d1cd1a",
      "contractAddress": null
    },
    {
      "status": "0x1",
      "cumulativeGasUsed": "0x9e5745",
      "logs": [
        {
          "address": "0x1d8e8cefeb085f3211ab6a443ad9051b54d1cd1a",
          "topics": [
            "0x4059c608a8f17b9b24a5a29662eb74934d39ea92ae22411868f07fcac29487a0",
            "0x00000000000000000000000065b6d4770dadcfba6d363de86aa4d9c76283cea0"
          ],
          "data": "0x0000000000000000000000000000000000000000000000000000000000000001",
          "blockHash": "0x175bdd1dc95bd491cebaa96f226fc50cb0c2b863c7a45fb21c00680338c4b890",
          "blockNumber": "0x1573ec0",
          "blockTimestamp": "0x68270d0b",
          "transactionHash": "0xc3f65053e36bcd3e40fe756c462895ff3a5b29c51b9fc3c97f670a4036806368",
          "transactionIndex": "0x72",
          "logIndex": "0x11e",
          "removed": false
        }
      ],
      "logsBloom": "0x00000000800000000000000002000000000000000800000000000000000000000000000000000000000002020000000000000000000000000000000000000000000000000000000000000000000000000000000000000000000000000000000000000000000000000000000000000000000000000000000000000000000000000000000000000000000000000000000000000000000000000000000000000000000000000040000000000000000000000000000000000000000000000000000000000000000000000000000000000000002000000000000000000000000000000000000000008000000000000000000000000000000000000000000000800000",
      "type": "0x2",
      "transactionHash": "0xc3f65053e36bcd3e40fe756c462895ff3a5b29c51b9fc3c97f670a4036806368",
      "transactionIndex": "0x72",
      "blockHash": "0x175bdd1dc95bd491cebaa96f226fc50cb0c2b863c7a45fb21c00680338c4b890",
      "blockNumber": "0x1573ec0",
      "gasUsed": "0xce5f",
      "effectiveGasPrice": "0x79fb52a6",
      "from": "0xb819a871d20913839c37f316dc914b0570bfc0ee",
      "to": "0x1d8e8cefeb085f3211ab6a443ad9051b54d1cd1a",
      "contractAddress": null
    },
    {
      "status": "0x1",
      "cumulativeGasUsed": "0x103cfd6",
      "logs": [
        {
          "address": "0x1d8e8cefeb085f3211ab6a443ad9051b54d1cd1a",
          "topics": [
            "0x4059c608a8f17b9b24a5a29662eb74934d39ea92ae22411868f07fcac29487a0",
            "0x000000000000000000000000a6a9fddc94bb4fe7520a2ea1cc2c433e18683342"
          ],
          "data": "0x0000000000000000000000000000000000000000000000000000000000000001",
          "blockHash": "0x9002ee60200600c77a6a8c154d3b2c0b003f75f42cbb15a81007d1ab9138ef00",
          "blockNumber": "0x1573ec1",
          "blockTimestamp": "0x68270d17",
          "transactionHash": "0x3794138398e37f96e41445c3fd136f4c4a0b75fd809c98c17512e846ae80ce2a",
          "transactionIndex": "0x83",
          "logIndex": "0x1af",
          "removed": false
        }
      ],
      "logsBloom": "0x00000000000040000000000002000000000000000800000000000000000000000000000000000000000000020000000000000000000000000000000000000000000000000000000000000000000000400000000000000000000000000000000000000000000000000000000000000000000000000000000000000000000000000000000000000000000000000000000000000000000000000000000000000000000000000040000002000000000000000000000000000000000000000000000000000000000000000000000000000000000000000000000000000000000000000000000000008000000000000000000000000000000000000000000000800000",
      "type": "0x2",
      "transactionHash": "0x3794138398e37f96e41445c3fd136f4c4a0b75fd809c98c17512e846ae80ce2a",
      "transactionIndex": "0x83",
      "blockHash": "0x9002ee60200600c77a6a8c154d3b2c0b003f75f42cbb15a81007d1ab9138ef00",
      "blockNumber": "0x1573ec1",
      "gasUsed": "0xce5f",
      "effectiveGasPrice": "0x75cb4ca7",
      "from": "0xb819a871d20913839c37f316dc914b0570bfc0ee",
      "to": "0x1d8e8cefeb085f3211ab6a443ad9051b54d1cd1a",
      "contractAddress": null
    },
    {
      "status": "0x1",
      "cumulativeGasUsed": "0xab4d09",
      "logs": [
        {
          "address": "0x1d8e8cefeb085f3211ab6a443ad9051b54d1cd1a",
          "topics": [
            "0x4059c608a8f17b9b24a5a29662eb74934d39ea92ae22411868f07fcac29487a0",
            "0x00000000000000000000000018d04f05f80ade5373849385a1c24e1e0a6d1744"
          ],
          "data": "0x0000000000000000000000000000000000000000000000000000000000000001",
          "blockHash": "0x26d28693be1d122b188ab7a9406ef65a4f4d0012942386a2d400942478043b70",
          "blockNumber": "0x1573ec2",
          "blockTimestamp": "0x68270d23",
          "transactionHash": "0x32c329951771ad87d1536423166d85b77d899d38ab0f42011ea65fad2123752c",
          "transactionIndex": "0x77",
          "logIndex": "0xfa",
          "removed": false
        }
      ],
      "logsBloom": "0x00000000000000000000000002000000000000000800000000000000000000000000000000000000000000020000000000000000000000000000000000000000000000000000000000000000000100000000000000000000000000000000000000000000000000000000000000000000000000000000000000000000000000000000000000000000000000000000000000000000000000000000000000000000000000000040000000000000000000000000000000000000000000000000000000000000000100000000000000000000000000000000000000000000000000000000000000008000000000000004000000000000000000000000000000800000",
      "type": "0x2",
      "transactionHash": "0x32c329951771ad87d1536423166d85b77d899d38ab0f42011ea65fad2123752c",
      "transactionIndex": "0x77",
      "blockHash": "0x26d28693be1d122b188ab7a9406ef65a4f4d0012942386a2d400942478043b70",
      "blockNumber": "0x1573ec2",
      "gasUsed": "0xce5f",
      "effectiveGasPrice": "0x77330c32",
      "from": "0xb819a871d20913839c37f316dc914b0570bfc0ee",
      "to": "0x1d8e8cefeb085f3211ab6a443ad9051b54d1cd1a",
      "contractAddress": null
    },
    {
      "status": "0x1",
      "cumulativeGasUsed": "0xe5bad4",
      "logs": [
        {
          "address": "0x1d8e8cefeb085f3211ab6a443ad9051b54d1cd1a",
          "topics": [
            "0x4059c608a8f17b9b24a5a29662eb74934d39ea92ae22411868f07fcac29487a0",
            "0x000000000000000000000000bd9c90d6774cb5320b54bb7998b6bcc5e4a9071f"
          ],
          "data": "0x0000000000000000000000000000000000000000000000000000000000000001",
          "blockHash": "0xa9c92751f353823d803b5f164a54aa6c155084a25706497aea8a23b45861ddf7",
          "blockNumber": "0x1573ec3",
          "blockTimestamp": "0x68270d2f",
          "transactionHash": "0x186614ca2337034de2a197a12013e38adbd4b3442424e72b7f11e65c8294a2eb",
          "transactionIndex": "0x93",
          "logIndex": "0x190",
          "removed": false
        }
      ],
      "logsBloom": "0x00000000000000000000000002000000000000000800000000000000000000000000000000002000000000020000000000000000000040000000000000000000000000000000000000000000000000000000000000000000000000000000000000000000000000000000000000000000000000000000000000000000000000000000000000000000000000000000000000000000000000000000000000000000000000000040000000000000000000000000000000800000000000000000000000000000000000000000000000000000000000000000000000000000000000000000000000008000000000000000000000000000000000000000000000800000",
      "type": "0x2",
      "transactionHash": "0x186614ca2337034de2a197a12013e38adbd4b3442424e72b7f11e65c8294a2eb",
      "transactionIndex": "0x93",
      "blockHash": "0xa9c92751f353823d803b5f164a54aa6c155084a25706497aea8a23b45861ddf7",
      "blockNumber": "0x1573ec3",
      "gasUsed": "0xce5f",
      "effectiveGasPrice": "0x73635f85",
      "from": "0xb819a871d20913839c37f316dc914b0570bfc0ee",
      "to": "0x1d8e8cefeb085f3211ab6a443ad9051b54d1cd1a",
      "contractAddress": null
    },
    {
      "status": "0x1",
      "cumulativeGasUsed": "0x9335c9",
      "logs": [
        {
          "address": "0x1d8e8cefeb085f3211ab6a443ad9051b54d1cd1a",
          "topics": [
            "0x4059c608a8f17b9b24a5a29662eb74934d39ea92ae22411868f07fcac29487a0",
            "0x0000000000000000000000008f2eaba31b1b613ca78f2795ba05400f0583c5a4"
          ],
          "data": "0x0000000000000000000000000000000000000000000000000000000000000001",
          "blockHash": "0x1926f915885fa9caa0f2820ad955719e8397ae7f50949df55a1e5d83fc68e87f",
          "blockNumber": "0x1573ec4",
          "blockTimestamp": "0x68270d3b",
          "transactionHash": "0xa61912bd1bf5e3d926b5689269d4063c66fea2a7f96cbf8de19eca465ca9592f",
          "transactionIndex": "0x5e",
          "logIndex": "0x119",
          "removed": false
        }
      ],
      "logsBloom": "0x00000000000000000000000002000000000000000800000000000000000000000000000000000000000000020000000000000000000000000000000000000000000000000000000000000000000000000000000000000000000000000000000000000000000000000000001000000000000000000000000000000000000000000000000000000000000000000000000000000000000000000000000000000000000000000040000000000000000000000000000000000000000000000000000000004000000000000000000000002000000000000000000000000000000000000000000000008000000000000000000000000000000000000000000000800000",
      "type": "0x2",
      "transactionHash": "0xa61912bd1bf5e3d926b5689269d4063c66fea2a7f96cbf8de19eca465ca9592f",
      "transactionIndex": "0x5e",
      "blockHash": "0x1926f915885fa9caa0f2820ad955719e8397ae7f50949df55a1e5d83fc68e87f",
      "blockNumber": "0x1573ec4",
      "gasUsed": "0xce5f",
      "effectiveGasPrice": "0x73c466e5",
      "from": "0xb819a871d20913839c37f316dc914b0570bfc0ee",
      "to": "0x1d8e8cefeb085f3211ab6a443ad9051b54d1cd1a",
      "contractAddress": null
    },
    {
      "status": "0x1",
      "cumulativeGasUsed": "0x1614814",
      "logs": [
        {
          "address": "0x1d8e8cefeb085f3211ab6a443ad9051b54d1cd1a",
          "topics": [
            "0x4059c608a8f17b9b24a5a29662eb74934d39ea92ae22411868f07fcac29487a0",
            "0x0000000000000000000000008f2eaba31b1b613ca78f2795ba05400f0583c5a4"
          ],
          "data": "0x0000000000000000000000000000000000000000000000000000000000000001",
          "blockHash": "0xcbfb963606001508aee5fedecddb98a29d174e43bb2517debf554cf7250a68aa",
          "blockNumber": "0x1573ec5",
          "blockTimestamp": "0x68270d47",
          "transactionHash": "0x3bd0d4ef2a2680ccd4b3c031bdfad28f6df08d2e687ae92d8e5381cfb0006cfd",
          "transactionIndex": "0xe2",
          "logIndex": "0x243",
          "removed": false
        }
      ],
      "logsBloom": "0x00000000000000000000000002000000000000000800000000000000000000000000000000000000000000020000000000000000000000000000000000000000000000000000000000000000000000000000000000000000000000000000000000000000000000000000001000000000000000000000000000000000000000000000000000000000000000000000000000000000000000000000000000000000000000000040000000000000000000000000000000000000000000000000000000004000000000000000000000002000000000000000000000000000000000000000000000008000000000000000000000000000000000000000000000800000",
      "type": "0x2",
      "transactionHash": "0x3bd0d4ef2a2680ccd4b3c031bdfad28f6df08d2e687ae92d8e5381cfb0006cfd",
      "transactionIndex": "0xe2",
      "blockHash": "0xcbfb963606001508aee5fedecddb98a29d174e43bb2517debf554cf7250a68aa",
      "blockNumber": "0x1573ec5",
      "gasUsed": "0x80a3",
      "effectiveGasPrice": "0x6eaf13e3",
      "from": "0xb819a871d20913839c37f316dc914b0570bfc0ee",
      "to": "0x1d8e8cefeb085f3211ab6a443ad9051b54d1cd1a",
      "contractAddress": null
    },
    {
      "status": "0x1",
      "cumulativeGasUsed": "0xc42b7e",
      "logs": [
        {
          "address": "0x1d8e8cefeb085f3211ab6a443ad9051b54d1cd1a",
          "topics": [
            "0x4059c608a8f17b9b24a5a29662eb74934d39ea92ae22411868f07fcac29487a0",
            "0x00000000000000000000000050d8deadd2b3140b151cab2c4fb76f1f59b236f8"
          ],
          "data": "0x0000000000000000000000000000000000000000000000000000000000000001",
          "blockHash": "0xd4603c56a0830f3119c84b7374e8ad0ffbc18629f68fe9e3086d9f7d898426cb",
          "blockNumber": "0x1573ec6",
          "blockTimestamp": "0x68270d53",
          "transactionHash": "0xd071f53266e24f0b208ec1f2a721f52698888fefcb09367e2f9f963c4e36bef4",
          "transactionIndex": "0x89",
          "logIndex": "0x167",
          "removed": false
        }
      ],
      "logsBloom": "0x00000000000000000000000002000000000000000800200000000000000000000000000000000000000000020000000000000000000000000000000000000000000000000000000000000000000000000000000000000000000000000000000000000000000000000000000000000000000000000000000000000000020000000000000000000000000000000000000000000000000000000000000000000000000000000040000000000000000000000000000000000000000000000000000000000000000000000000000000000000000000000000000000000000000000000000000000808000000000000000000000000000000000000000000000800000",
      "type": "0x2",
      "transactionHash": "0xd071f53266e24f0b208ec1f2a721f52698888fefcb09367e2f9f963c4e36bef4",
      "transactionIndex": "0x89",
      "blockHash": "0xd4603c56a0830f3119c84b7374e8ad0ffbc18629f68fe9e3086d9f7d898426cb",
      "blockNumber": "0x1573ec6",
      "gasUsed": "0x80a3",
      "effectiveGasPrice": "0x771c906a",
      "from": "0xb819a871d20913839c37f316dc914b0570bfc0ee",
      "to": "0x1d8e8cefeb085f3211ab6a443ad9051b54d1cd1a",
      "contractAddress": null
    },
    {
      "status": "0x1",
      "cumulativeGasUsed": "0x1173501",
      "logs": [
        {
          "address": "0x1d8e8cefeb085f3211ab6a443ad9051b54d1cd1a",
          "topics": [
            "0x4059c608a8f17b9b24a5a29662eb74934d39ea92ae22411868f07fcac29487a0",
            "0x000000000000000000000000574582c44e3f1ef2cb29a7131b057febbcc8244e"
          ],
          "data": "0x0000000000000000000000000000000000000000000000000000000000000001",
          "blockHash": "0x38ca8f8bf83996f4a1c5ce5bb36548a09cbfa5387a61940057b6b68a971ba3f3",
          "blockNumber": "0x1573ec7",
          "blockTimestamp": "0x68270d5f",
          "transactionHash": "0x431aa893a140bf7762f3aff2dc27b245f6ba931f90a7dba1b8d7d23e89a95a0a",
          "transactionIndex": "0x9f",
          "logIndex": "0x1bf",
          "removed": false
        }
      ],
      "logsBloom": "0x00000000000000000000000002000000000000000800000000000000000000000000000000000000000000020000000000000000000000000000000000000000000000000000200000000000000000000000000000000000000000000000000000000000000000000000000000000000000000000000000000000000000000000000000000000000000000100000000000000000000000000000000000000000004000000040000000000000000000000000000000000000000000000000000000000000000000000000000000000000000000000000000000000000000000000000000000008000000000000000000000000000000000000000000000800000",
      "type": "0x2",
      "transactionHash": "0x431aa893a140bf7762f3aff2dc27b245f6ba931f90a7dba1b8d7d23e89a95a0a",
      "transactionIndex": "0x9f",
      "blockHash": "0x38ca8f8bf83996f4a1c5ce5bb36548a09cbfa5387a61940057b6b68a971ba3f3",
      "blockNumber": "0x1573ec7",
      "gasUsed": "0x80a3",
      "effectiveGasPrice": "0x753a12de",
      "from": "0xb819a871d20913839c37f316dc914b0570bfc0ee",
      "to": "0x1d8e8cefeb085f3211ab6a443ad9051b54d1cd1a",
      "contractAddress": null
    },
    {
      "status": "0x1",
      "cumulativeGasUsed": "0xf7073a",
      "logs": [
        {
          "address": "0x1d8e8cefeb085f3211ab6a443ad9051b54d1cd1a",
          "topics": [
            "0x4059c608a8f17b9b24a5a29662eb74934d39ea92ae22411868f07fcac29487a0",
            "0x000000000000000000000000bd0ce952ba069a1e15f3bf3916d4b07bbbdbc8b3"
          ],
          "data": "0x0000000000000000000000000000000000000000000000000000000000000001",
          "blockHash": "0xea65d33e16aa8cb9288ce506ec08cd77282510f38d30dfe8f84f45898f9a6d6f",
          "blockNumber": "0x1573ec8",
          "blockTimestamp": "0x68270d6b",
          "transactionHash": "0xbf6c87d6786f16a0a2144757f49dac7f0fd0e2d8462de313e4822d2698a8ab49",
          "transactionIndex": "0x83",
          "logIndex": "0x163",
          "removed": false
        }
      ],
      "logsBloom": "0x00000000000000000000000002000000000000000800000000000000000000000000000000000000000000020000000000000000000000000000000000000000000000000002000000000000000000000000000000000000000000000000000000000000000000000000000000000000000000000000000000000000000000000000000000000000000000000000000000000000000000000000000000000000000000000040000000000000000000000000000000000000000000000000000000000000008000000000010000000000000000000000000000000000000000000000000000008000000000000000000000000000000000000000000000800000",
      "type": "0x2",
      "transactionHash": "0xbf6c87d6786f16a0a2144757f49dac7f0fd0e2d8462de313e4822d2698a8ab49",
      "transactionIndex": "0x83",
      "blockHash": "0xea65d33e16aa8cb9288ce506ec08cd77282510f38d30dfe8f84f45898f9a6d6f",
      "blockNumber": "0x1573ec8",
      "gasUsed": "0xce5f",
      "effectiveGasPrice": "0x78647aab",
      "from": "0xb819a871d20913839c37f316dc914b0570bfc0ee",
      "to": "0x1d8e8cefeb085f3211ab6a443ad9051b54d1cd1a",
      "contractAddress": null
    }
  ],
  "libraries": [],
  "pending": [],
  "returns": {},
  "timestamp": 1747389807,
  "chain": 1,
  "commit": "c569661"
}