{
  "transactions": [
    {
      "hash": "0xe010c86860786899e483d3fdb1330f6d2e3294e5c58714f08db47a83f7f5d7fd",
      "transactionType": "CALL",
      "contractName": null,
      "contractAddress": "0x1211d07f0ebea8994f23ec26e1e512929fc8ab08",
      "function": "allowFor(address,bytes32,bool)",
      "arguments": [
        "0xF8B6314e66EA3e4b62e229fa5F5F052058618404",
        "0x4b1cf52f49d174a2779824195ac83ffb0173882d2de2b8017a7a2ad31efa9bac",
        "true"
      ],
      "transaction": {
        "from": "0xb819a871d20913839c37f316dc914b0570bfc0ee",
        "to": "0x1211d07f0ebea8994f23ec26e1e512929fc8ab08",
        "gas": "0x107e3",
        "value": "0x0",
        "input": "0xec3a4613000000000000000000000000f8b6314e66ea3e4b62e229fa5f5f0520586184044b1cf52f49d174a2779824195ac83ffb0173882d2de2b8017a7a2ad31efa9bac0000000000000000000000000000000000000000000000000000000000000001",
        "nonce": "0x295",
        "chainId": "0xe708"
      },
      "additionalContracts": [],
      "isFixedGasLimit": false
    },
    {
      "hash": "0x39f28400cfdc04dde111f7fcc2b0c44e109cf501370ec86da076c0a0a2574467",
      "transactionType": "CALL",
      "contractName": null,
      "contractAddress": "0x1211d07f0ebea8994f23ec26e1e512929fc8ab08",
      "function": "allowFor(address,bytes32,bool)",
      "arguments": [
        "0x91B945CbB063648C44271868a7A0c7BdFf64827D",
        "0x4b1cf52f49d174a2779824195ac83ffb0173882d2de2b8017a7a2ad31efa9bac",
        "true"
      ],
      "transaction": {
        "from": "0xb819a871d20913839c37f316dc914b0570bfc0ee",
        "to": "0x1211d07f0ebea8994f23ec26e1e512929fc8ab08",
        "gas": "0x107e3",
        "value": "0x0",
        "input": "0xec3a461300000000000000000000000091b945cbb063648c44271868a7a0c7bdff64827d4b1cf52f49d174a2779824195ac83ffb0173882d2de2b8017a7a2ad31efa9bac0000000000000000000000000000000000000000000000000000000000000001",
        "nonce": "0x296",
        "chainId": "0xe708"
      },
      "additionalContracts": [],
      "isFixedGasLimit": false
    },
    {
      "hash": "0xbaa0458c6c2b7fa5dac38276122a01021963e9dfcd9089aa819c4378b0b7f1c1",
      "transactionType": "CALL",
      "contractName": null,
      "contractAddress": "0x1211d07f0ebea8994f23ec26e1e512929fc8ab08",
      "function": "allowFor(address,bytes32,bool)",
      "arguments": [
        "0x91B945CbB063648C44271868a7A0c7BdFf64827D",
        "0xaeffe8a027d13ff1f9fbecaa8f7fc0ff2c5c5d71561a1a572f6bafeeba68abfd",
        "true"
      ],
      "transaction": {
        "from": "0xb819a871d20913839c37f316dc914b0570bfc0ee",
        "to": "0x1211d07f0ebea8994f23ec26e1e512929fc8ab08",
        "gas": "0x107e3",
        "value": "0x0",
        "input": "0xec3a461300000000000000000000000091b945cbb063648c44271868a7a0c7bdff64827daeffe8a027d13ff1f9fbecaa8f7fc0ff2c5c5d71561a1a572f6bafeeba68abfd0000000000000000000000000000000000000000000000000000000000000001",
        "nonce": "0x297",
        "chainId": "0xe708"
      },
      "additionalContracts": [],
      "isFixedGasLimit": false
    },
    {
      "hash": "0xffa9c4e96e4c7db6973da48fa9232c0a370660d5b2b4c63d3813dcc002d6df58",
      "transactionType": "CALL",
      "contractName": null,
      "contractAddress": "0x1211d07f0ebea8994f23ec26e1e512929fc8ab08",
      "function": "allowFor(address,bytes32,bool)",
      "arguments": [
        "0x91B945CbB063648C44271868a7A0c7BdFf64827D",
        "0xc8e17e1f507bc6ac21ffd444ba9d6c9d6ea2defdac21571990ea0eb8bcde3a24",
        "true"
      ],
      "transaction": {
        "from": "0xb819a871d20913839c37f316dc914b0570bfc0ee",
        "to": "0x1211d07f0ebea8994f23ec26e1e512929fc8ab08",
        "gas": "0x107e3",
        "value": "0x0",
        "input": "0xec3a461300000000000000000000000091b945cbb063648c44271868a7a0c7bdff64827dc8e17e1f507bc6ac21ffd444ba9d6c9d6ea2defdac21571990ea0eb8bcde3a240000000000000000000000000000000000000000000000000000000000000001",
        "nonce": "0x298",
        "chainId": "0xe708"
      },
      "additionalContracts": [],
      "isFixedGasLimit": false
    },
    {
      "hash": "0xede97a4788c2c510842b447705292704af6dd71254b9ee66b7ccdcc2ded37336",
      "transactionType": "CALL",
      "contractName": null,
      "contractAddress": "0x1211d07f0ebea8994f23ec26e1e512929fc8ab08",
      "function": "allowFor(address,bytes32,bool)",
      "arguments": [
        "0x91B945CbB063648C44271868a7A0c7BdFf64827D",
        "0xcf3889b3d647b5db8c87e0e05aca2acdd693a72c71726764f2198ee27a21c728",
        "true"
      ],
      "transaction": {
        "from": "0xb819a871d20913839c37f316dc914b0570bfc0ee",
        "to": "0x1211d07f0ebea8994f23ec26e1e512929fc8ab08",
        "gas": "0x107e3",
        "value": "0x0",
        "input": "0xec3a461300000000000000000000000091b945cbb063648c44271868a7a0c7bdff64827dcf3889b3d647b5db8c87e0e05aca2acdd693a72c71726764f2198ee27a21c7280000000000000000000000000000000000000000000000000000000000000001",
        "nonce": "0x299",
        "chainId": "0xe708"
      },
      "additionalContracts": [],
      "isFixedGasLimit": false
    },
    {
      "hash": "0xc7608d3343b89488bcb13075db96b5af59e82b6e9f9f97a56aa1a9c721c83fc3",
      "transactionType": "CALL",
      "contractName": null,
      "contractAddress": "0x1211d07f0ebea8994f23ec26e1e512929fc8ab08",
      "function": "allowFor(address,bytes32,bool)",
      "arguments": [
        "0x91B945CbB063648C44271868a7A0c7BdFf64827D",
        "0x79bb2eff4b96ce24cc809a1642a7365c4980ebeb15be2580a619e03726e41a98",
        "true"
      ],
      "transaction": {
        "from": "0xb819a871d20913839c37f316dc914b0570bfc0ee",
        "to": "0x1211d07f0ebea8994f23ec26e1e512929fc8ab08",
        "gas": "0x107e3",
        "value": "0x0",
        "input": "0xec3a461300000000000000000000000091b945cbb063648c44271868a7a0c7bdff64827d79bb2eff4b96ce24cc809a1642a7365c4980ebeb15be2580a619e03726e41a980000000000000000000000000000000000000000000000000000000000000001",
        "nonce": "0x29a",
        "chainId": "0xe708"
      },
      "additionalContracts": [],
      "isFixedGasLimit": false
    },
    {
      "hash": "0x17f56bc25807fa7a871d0c01be050cdc7282f49e4381cc9abe3dc100975162f9",
      "transactionType": "CALL",
      "contractName": null,
      "contractAddress": "0x1211d07f0ebea8994f23ec26e1e512929fc8ab08",
      "function": "allowFor(address,bytes32,bool)",
      "arguments": [
        "0x91B945CbB063648C44271868a7A0c7BdFf64827D",
        "0x3e008573b76fa95febaab72c06ec152363f92f2b27dcaf00fbd0bb77a70593db",
        "true"
      ],
      "transaction": {
        "from": "0xb819a871d20913839c37f316dc914b0570bfc0ee",
        "to": "0x1211d07f0ebea8994f23ec26e1e512929fc8ab08",
        "gas": "0x107c3",
        "value": "0x0",
        "input": "0xec3a461300000000000000000000000091b945cbb063648c44271868a7a0c7bdff64827d3e008573b76fa95febaab72c06ec152363f92f2b27dcaf00fbd0bb77a70593db0000000000000000000000000000000000000000000000000000000000000001",
        "nonce": "0x29b",
        "chainId": "0xe708"
      },
      "additionalContracts": [],
      "isFixedGasLimit": false
    },
    {
      "hash": "0xe6d9ff4ce21ab1d1005ece77009b16797c64d2897892c1548f97d00d8878d092",
      "transactionType": "CALL",
      "contractName": null,
      "contractAddress": "0x1211d07f0ebea8994f23ec26e1e512929fc8ab08",
      "function": "allowFor(address,bytes32,bool)",
      "arguments": [
        "0x91B945CbB063648C44271868a7A0c7BdFf64827D",
        "0x46c2ab528350fb4f59e61eb6c0382446a3636f13f7846680a2734e5f829735a4",
        "true"
      ],
      "transaction": {
        "from": "0xb819a871d20913839c37f316dc914b0570bfc0ee",
        "to": "0x1211d07f0ebea8994f23ec26e1e512929fc8ab08",
        "gas": "0x107e3",
        "value": "0x0",
        "input": "0xec3a461300000000000000000000000091b945cbb063648c44271868a7a0c7bdff64827d46c2ab528350fb4f59e61eb6c0382446a3636f13f7846680a2734e5f829735a40000000000000000000000000000000000000000000000000000000000000001",
        "nonce": "0x29c",
        "chainId": "0xe708"
      },
      "additionalContracts": [],
      "isFixedGasLimit": false
    },
    {
      "hash": "0xef4efc928acbd8acd139f6e01038bb3e408116e8ffdd8ed62d85490c1ee40025",
      "transactionType": "CALL",
      "contractName": null,
      "contractAddress": "0x1211d07f0ebea8994f23ec26e1e512929fc8ab08",
      "function": "allowFor(address,bytes32,bool)",
      "arguments": [
        "0x91B945CbB063648C44271868a7A0c7BdFf64827D",
        "0xb0487bdd3330b4d082e49dfc24e1aa23706abcc632f9215fee20a474a9a88457",
        "true"
      ],
      "transaction": {
        "from": "0xb819a871d20913839c37f316dc914b0570bfc0ee",
        "to": "0x1211d07f0ebea8994f23ec26e1e512929fc8ab08",
        "gas": "0x107e3",
        "value": "0x0",
        "input": "0xec3a461300000000000000000000000091b945cbb063648c44271868a7a0c7bdff64827db0487bdd3330b4d082e49dfc24e1aa23706abcc632f9215fee20a474a9a884570000000000000000000000000000000000000000000000000000000000000001",
        "nonce": "0x29d",
        "chainId": "0xe708"
      },
      "additionalContracts": [],
      "isFixedGasLimit": false
    },
    {
      "hash": "0xcd25c3e340800a90838a0db068668c941767316e61a799b30822b848e871a374",
      "transactionType": "CALL",
      "contractName": null,
      "contractAddress": "0x1211d07f0ebea8994f23ec26e1e512929fc8ab08",
      "function": "allowFor(address,bytes32,bool)",
      "arguments": [
        "0x91B945CbB063648C44271868a7A0c7BdFf64827D",
        "0xeefbfa32ce9dd99a431be27221a8732bc1e7b3d032ff4cbd56226b17783f7413",
        "true"
      ],
      "transaction": {
        "from": "0xb819a871d20913839c37f316dc914b0570bfc0ee",
        "to": "0x1211d07f0ebea8994f23ec26e1e512929fc8ab08",
        "gas": "0x107e3",
        "value": "0x0",
        "input": "0xec3a461300000000000000000000000091b945cbb063648c44271868a7a0c7bdff64827deefbfa32ce9dd99a431be27221a8732bc1e7b3d032ff4cbd56226b17783f74130000000000000000000000000000000000000000000000000000000000000001",
        "nonce": "0x29e",
        "chainId": "0xe708"
      },
      "additionalContracts": [],
      "isFixedGasLimit": false
    },
    {
      "hash": "0xc63bc4df3f9928d41936c5ca110dde0227f7e5c33b3e3af3a7f1a05069479dde",
      "transactionType": "CALL",
      "contractName": null,
      "contractAddress": "0x1211d07f0ebea8994f23ec26e1e512929fc8ab08",
      "function": "allowFor(address,bytes32,bool)",
      "arguments": [
        "0x91B945CbB063648C44271868a7A0c7BdFf64827D",
        "0xaa85d4d7655b58b3177edbbb41bc17f2e2ebffd26ace9d6b56244a5ee16c7806",
        "true"
      ],
      "transaction": {
        "from": "0xb819a871d20913839c37f316dc914b0570bfc0ee",
        "to": "0x1211d07f0ebea8994f23ec26e1e512929fc8ab08",
        "gas": "0x107e3",
        "value": "0x0",
        "input": "0xec3a461300000000000000000000000091b945cbb063648c44271868a7a0c7bdff64827daa85d4d7655b58b3177edbbb41bc17f2e2ebffd26ace9d6b56244a5ee16c78060000000000000000000000000000000000000000000000000000000000000001",
        "nonce": "0x29f",
        "chainId": "0xe708"
      },
      "additionalContracts": [],
      "isFixedGasLimit": false
    },
    {
      "hash": "0xd4498302be9e63ec51c3fcca7513d533924327daf98a7f4907314df0e2afe041",
      "transactionType": "CALL",
      "contractName": null,
      "contractAddress": "0x1211d07f0ebea8994f23ec26e1e512929fc8ab08",
      "function": "allowFor(address,bytes32,bool)",
      "arguments": [
        "0xB819A871d20913839c37f316Dc914b0570bfc0eE",
        "0x4b1cf52f49d174a2779824195ac83ffb0173882d2de2b8017a7a2ad31efa9bac",
        "false"
      ],
      "transaction": {
        "from": "0xb819a871d20913839c37f316dc914b0570bfc0ee",
        "to": "0x1211d07f0ebea8994f23ec26e1e512929fc8ab08",
        "gas": "0x91aa",
        "value": "0x0",
        "input": "0xec3a4613000000000000000000000000b819a871d20913839c37f316dc914b0570bfc0ee4b1cf52f49d174a2779824195ac83ffb0173882d2de2b8017a7a2ad31efa9bac0000000000000000000000000000000000000000000000000000000000000000",
        "nonce": "0x2a0",
        "chainId": "0xe708"
      },
      "additionalContracts": [],
      "isFixedGasLimit": false
    },
    {
      "hash": "0xb77a479cc5fb90d2cf0ecd847f5f077b5a06ae1b4a129193b44265a54bc26d5c",
      "transactionType": "CALL",
      "contractName": null,
      "contractAddress": "0x1211d07f0ebea8994f23ec26e1e512929fc8ab08",
      "function": "allowFor(address,bytes32,bool)",
      "arguments": [
        "0xB819A871d20913839c37f316Dc914b0570bfc0eE",
        "0xaeffe8a027d13ff1f9fbecaa8f7fc0ff2c5c5d71561a1a572f6bafeeba68abfd",
        "false"
      ],
      "transaction": {
        "from": "0xb819a871d20913839c37f316dc914b0570bfc0ee",
        "to": "0x1211d07f0ebea8994f23ec26e1e512929fc8ab08",
        "gas": "0x91aa",
        "value": "0x0",
        "input": "0xec3a4613000000000000000000000000b819a871d20913839c37f316dc914b0570bfc0eeaeffe8a027d13ff1f9fbecaa8f7fc0ff2c5c5d71561a1a572f6bafeeba68abfd0000000000000000000000000000000000000000000000000000000000000000",
        "nonce": "0x2a1",
        "chainId": "0xe708"
      },
      "additionalContracts": [],
      "isFixedGasLimit": false
    },
    {
      "hash": "0xa54f811d24532decde4e3d3014230dca69455b7793a65b4f8efed229522df428",
      "transactionType": "CALL",
      "contractName": null,
      "contractAddress": "0x1211d07f0ebea8994f23ec26e1e512929fc8ab08",
      "function": "allowFor(address,bytes32,bool)",
      "arguments": [
        "0xB819A871d20913839c37f316Dc914b0570bfc0eE",
        "0xc8e17e1f507bc6ac21ffd444ba9d6c9d6ea2defdac21571990ea0eb8bcde3a24",
        "false"
      ],
      "transaction": {
        "from": "0xb819a871d20913839c37f316dc914b0570bfc0ee",
        "to": "0x1211d07f0ebea8994f23ec26e1e512929fc8ab08",
        "gas": "0x91aa",
        "value": "0x0",
        "input": "0xec3a4613000000000000000000000000b819a871d20913839c37f316dc914b0570bfc0eec8e17e1f507bc6ac21ffd444ba9d6c9d6ea2defdac21571990ea0eb8bcde3a240000000000000000000000000000000000000000000000000000000000000000",
        "nonce": "0x2a2",
        "chainId": "0xe708"
      },
      "additionalContracts": [],
      "isFixedGasLimit": false
    },
    {
      "hash": "0xf210c17dd4d33950ef82e0b8066373966a161bbbf40490a3593322b1ca1f955c",
      "transactionType": "CALL",
      "contractName": null,
      "contractAddress": "0x1211d07f0ebea8994f23ec26e1e512929fc8ab08",
      "function": "allowFor(address,bytes32,bool)",
      "arguments": [
        "0xB819A871d20913839c37f316Dc914b0570bfc0eE",
        "0x3e008573b76fa95febaab72c06ec152363f92f2b27dcaf00fbd0bb77a70593db",
        "false"
      ],
      "transaction": {
        "from": "0xb819a871d20913839c37f316dc914b0570bfc0ee",
        "to": "0x1211d07f0ebea8994f23ec26e1e512929fc8ab08",
        "gas": "0x9188",
        "value": "0x0",
        "input": "0xec3a4613000000000000000000000000b819a871d20913839c37f316dc914b0570bfc0ee3e008573b76fa95febaab72c06ec152363f92f2b27dcaf00fbd0bb77a70593db0000000000000000000000000000000000000000000000000000000000000000",
        "nonce": "0x2a3",
        "chainId": "0xe708"
      },
      "additionalContracts": [],
      "isFixedGasLimit": false
    },
    {
      "hash": "0xf8b4176fde463b7f43df7b685abf5a19ac82fc96073b30ad83fa667b395d178f",
      "transactionType": "CALL",
      "contractName": null,
      "contractAddress": "0x1211d07f0ebea8994f23ec26e1e512929fc8ab08",
      "function": "allowFor(address,bytes32,bool)",
      "arguments": [
        "0xB819A871d20913839c37f316Dc914b0570bfc0eE",
        "0x46c2ab528350fb4f59e61eb6c0382446a3636f13f7846680a2734e5f829735a4",
        "false"
      ],
      "transaction": {
        "from": "0xb819a871d20913839c37f316dc914b0570bfc0ee",
        "to": "0x1211d07f0ebea8994f23ec26e1e512929fc8ab08",
        "gas": "0x91aa",
        "value": "0x0",
        "input": "0xec3a4613000000000000000000000000b819a871d20913839c37f316dc914b0570bfc0ee46c2ab528350fb4f59e61eb6c0382446a3636f13f7846680a2734e5f829735a40000000000000000000000000000000000000000000000000000000000000000",
        "nonce": "0x2a4",
        "chainId": "0xe708"
      },
      "additionalContracts": [],
      "isFixedGasLimit": false
    },
    {
      "hash": "0xd67ae7a602fd8d99acc6887ca9ad2a0fd221bd80a9f5dc9ad98c1f91301ae792",
      "transactionType": "CALL",
      "contractName": null,
      "contractAddress": "0x1211d07f0ebea8994f23ec26e1e512929fc8ab08",
      "function": "allowFor(address,bytes32,bool)",
      "arguments": [
        "0xB819A871d20913839c37f316Dc914b0570bfc0eE",
        "0xb0487bdd3330b4d082e49dfc24e1aa23706abcc632f9215fee20a474a9a88457",
        "false"
      ],
      "transaction": {
        "from": "0xb819a871d20913839c37f316dc914b0570bfc0ee",
        "to": "0x1211d07f0ebea8994f23ec26e1e512929fc8ab08",
        "gas": "0x91aa",
        "value": "0x0",
        "input": "0xec3a4613000000000000000000000000b819a871d20913839c37f316dc914b0570bfc0eeb0487bdd3330b4d082e49dfc24e1aa23706abcc632f9215fee20a474a9a884570000000000000000000000000000000000000000000000000000000000000000",
        "nonce": "0x2a5",
        "chainId": "0xe708"
      },
      "additionalContracts": [],
      "isFixedGasLimit": false
    },
    {
      "hash": "0xc5bcc3fc26e91aa44ca5867ce9b553185b7595afe34681f8d05abacd9b449850",
      "transactionType": "CALL",
      "contractName": null,
      "contractAddress": "0x1211d07f0ebea8994f23ec26e1e512929fc8ab08",
      "function": "allowFor(address,bytes32,bool)",
      "arguments": [
        "0xB819A871d20913839c37f316Dc914b0570bfc0eE",
        "0xeefbfa32ce9dd99a431be27221a8732bc1e7b3d032ff4cbd56226b17783f7413",
        "false"
      ],
      "transaction": {
        "from": "0xb819a871d20913839c37f316dc914b0570bfc0ee",
        "to": "0x1211d07f0ebea8994f23ec26e1e512929fc8ab08",
        "gas": "0x91aa",
        "value": "0x0",
        "input": "0xec3a4613000000000000000000000000b819a871d20913839c37f316dc914b0570bfc0eeeefbfa32ce9dd99a431be27221a8732bc1e7b3d032ff4cbd56226b17783f74130000000000000000000000000000000000000000000000000000000000000000",
        "nonce": "0x2a6",
        "chainId": "0xe708"
      },
      "additionalContracts": [],
      "isFixedGasLimit": false
    },
    {
      "hash": "0x6889bd97d26af85d44c1a748472d238108d8a40eddd1c64cff51489f097931e1",
      "transactionType": "CALL",
      "contractName": null,
      "contractAddress": "0x1211d07f0ebea8994f23ec26e1e512929fc8ab08",
      "function": "allowFor(address,bytes32,bool)",
      "arguments": [
        "0xB819A871d20913839c37f316Dc914b0570bfc0eE",
        "0xaa85d4d7655b58b3177edbbb41bc17f2e2ebffd26ace9d6b56244a5ee16c7806",
        "false"
      ],
      "transaction": {
        "from": "0xb819a871d20913839c37f316dc914b0570bfc0ee",
        "to": "0x1211d07f0ebea8994f23ec26e1e512929fc8ab08",
        "gas": "0x91aa",
        "value": "0x0",
        "input": "0xec3a4613000000000000000000000000b819a871d20913839c37f316dc914b0570bfc0eeaa85d4d7655b58b3177edbbb41bc17f2e2ebffd26ace9d6b56244a5ee16c78060000000000000000000000000000000000000000000000000000000000000000",
        "nonce": "0x2a7",
        "chainId": "0xe708"
      },
      "additionalContracts": [],
      "isFixedGasLimit": false
    },
    {
      "hash": "0xff65aa57c227e05ed0685cc3c3a789ae9dbee8c0a726febc1ff607e5cad2c726",
      "transactionType": "CALL",
      "contractName": null,
      "contractAddress": "0x269c36a173d881720544fb303e681370158ff1fd",
      "function": "setPendingAdmin(address)",
      "arguments": [
        "0x91B945CbB063648C44271868a7A0c7BdFf64827D"
      ],
      "transaction": {
        "from": "0xb819a871d20913839c37f316dc914b0570bfc0ee",
        "to": "0x269c36a173d881720544fb303e681370158ff1fd",
        "gas": "0x11c99",
        "value": "0x0",
        "input": "0x4dd18bf500000000000000000000000091b945cbb063648c44271868a7a0c7bdff64827d",
        "nonce": "0x2a8",
        "chainId": "0xe708"
      },
      "additionalContracts": [],
      "isFixedGasLimit": false
    },
    {
      "hash": "0x6aaeed725f558c672b38ffe8b5dfa5ba7599cbf398f85d9fb4d4d51d3eead9cf",
      "transactionType": "CALL",
      "contractName": null,
      "contractAddress": "0xc7bc6bd45eb84d594f51ced3c5497e6812c7732f",
      "function": "setPendingAdmin(address)",
      "arguments": [
        "0x91B945CbB063648C44271868a7A0c7BdFf64827D"
      ],
      "transaction": {
        "from": "0xb819a871d20913839c37f316dc914b0570bfc0ee",
        "to": "0xc7bc6bd45eb84d594f51ced3c5497e6812c7732f",
        "gas": "0x11c99",
        "value": "0x0",
        "input": "0x4dd18bf500000000000000000000000091b945cbb063648c44271868a7a0c7bdff64827d",
        "nonce": "0x2a9",
        "chainId": "0xe708"
      },
      "additionalContracts": [],
      "isFixedGasLimit": false
    },
    {
      "hash": "0x1bf02744b4b2269c85ee8fdc656ab286e7cd6a12f80b03a3c34a2c0cd7ea4cf3",
      "transactionType": "CALL",
      "contractName": null,
      "contractAddress": "0xdf0635c1ecfdf08146150691a97e2ff6a8aa1a90",
      "function": "setPendingAdmin(address)",
      "arguments": [
        "0x91B945CbB063648C44271868a7A0c7BdFf64827D"
      ],
      "transaction": {
        "from": "0xb819a871d20913839c37f316dc914b0570bfc0ee",
        "to": "0xdf0635c1ecfdf08146150691a97e2ff6a8aa1a90",
        "gas": "0x11c99",
        "value": "0x0",
        "input": "0x4dd18bf500000000000000000000000091b945cbb063648c44271868a7a0c7bdff64827d",
        "nonce": "0x2aa",
        "chainId": "0xe708"
      },
      "additionalContracts": [],
      "isFixedGasLimit": false
    },
    {
      "hash": "0x4fe63ce1fd5d6a34417d999dea3d8b857959952e693ddb76d49bd637619e9935",
      "transactionType": "CALL",
      "contractName": null,
      "contractAddress": "0x2b588f7f4832561e46924f3ea54c244569724915",
      "function": "setPendingAdmin(address)",
      "arguments": [
        "0x91B945CbB063648C44271868a7A0c7BdFf64827D"
      ],
      "transaction": {
        "from": "0xb819a871d20913839c37f316dc914b0570bfc0ee",
        "to": "0x2b588f7f4832561e46924f3ea54c244569724915",
        "gas": "0x11c99",
        "value": "0x0",
        "input": "0x4dd18bf500000000000000000000000091b945cbb063648c44271868a7a0c7bdff64827d",
        "nonce": "0x2ab",
        "chainId": "0xe708"
      },
      "additionalContracts": [],
      "isFixedGasLimit": false
    },
    {
      "hash": "0x880fd5b41eac52e98356255185b3300a5029308eca763a4fe287ac5d14fdd8ef",
      "transactionType": "CALL",
      "contractName": null,
      "contractAddress": "0x1d8e8cefeb085f3211ab6a443ad9051b54d1cd1a",
      "function": "setPendingAdmin(address)",
      "arguments": [
        "0x91B945CbB063648C44271868a7A0c7BdFf64827D"
      ],
      "transaction": {
        "from": "0xb819a871d20913839c37f316dc914b0570bfc0ee",
        "to": "0x1d8e8cefeb085f3211ab6a443ad9051b54d1cd1a",
        "gas": "0x11c99",
        "value": "0x0",
        "input": "0x4dd18bf500000000000000000000000091b945cbb063648c44271868a7a0c7bdff64827d",
        "nonce": "0x2ac",
        "chainId": "0xe708"
      },
      "additionalContracts": [],
      "isFixedGasLimit": false
    },
    {
      "hash": "0xcfdd7bf2d6ce03d7aa6e6930bab2427b1ad680a9f3f3b0da4b6d40fbc81d1cf8",
      "transactionType": "CALL",
      "contractName": null,
      "contractAddress": "0x0b3c6645f4f2442ad4bbee2e2273a250461ca6f8",
      "function": "setPendingAdmin(address)",
      "arguments": [
        "0x91B945CbB063648C44271868a7A0c7BdFf64827D"
      ],
      "transaction": {
        "from": "0xb819a871d20913839c37f316dc914b0570bfc0ee",
        "to": "0x0b3c6645f4f2442ad4bbee2e2273a250461ca6f8",
        "gas": "0x11c99",
        "value": "0x0",
        "input": "0x4dd18bf500000000000000000000000091b945cbb063648c44271868a7a0c7bdff64827d",
        "nonce": "0x2ad",
        "chainId": "0xe708"
      },
      "additionalContracts": [],
      "isFixedGasLimit": false
    },
    {
      "hash": "0x6869dbd294e08b047d221c5fbbf12664f22722cea15c23b4378c8543098df9e5",
      "transactionType": "CALL",
      "contractName": null,
      "contractAddress": "0x8bad0c523516262a439197736fff982f5e0987cc",
      "function": "setPendingAdmin(address)",
      "arguments": [
        "0x91B945CbB063648C44271868a7A0c7BdFf64827D"
      ],
      "transaction": {
        "from": "0xb819a871d20913839c37f316dc914b0570bfc0ee",
        "to": "0x8bad0c523516262a439197736fff982f5e0987cc",
        "gas": "0x11c99",
        "value": "0x0",
        "input": "0x4dd18bf500000000000000000000000091b945cbb063648c44271868a7a0c7bdff64827d",
        "nonce": "0x2ae",
        "chainId": "0xe708"
      },
      "additionalContracts": [],
      "isFixedGasLimit": false
    },
    {
      "hash": "0x29338808c72bffa1b3a760ffb1df78e60d27b99c2fc7ce77a75180899410e9b6",
      "transactionType": "CALL",
      "contractName": null,
      "contractAddress": "0x4df3dd62db219c47f6a7cb1be02c511afceadf5e",
      "function": "setPendingAdmin(address)",
      "arguments": [
        "0x91B945CbB063648C44271868a7A0c7BdFf64827D"
      ],
      "transaction": {
        "from": "0xb819a871d20913839c37f316dc914b0570bfc0ee",
        "to": "0x4df3dd62db219c47f6a7cb1be02c511afceadf5e",
        "gas": "0x11c99",
        "value": "0x0",
        "input": "0x4dd18bf500000000000000000000000091b945cbb063648c44271868a7a0c7bdff64827d",
        "nonce": "0x2af",
        "chainId": "0xe708"
      },
      "additionalContracts": [],
      "isFixedGasLimit": false
    },
    {
      "hash": "0x11082c7eac7a0851612b2952c13114954e4e9024951566c00d6bb3e4b3ecf612",
      "transactionType": "CALL",
      "contractName": null,
      "contractAddress": "0xe32fc580e6e3f6f5947bc2d900062dce019f375f",
      "function": "transferOwnership(address)",
      "arguments": [
        "0x91B945CbB063648C44271868a7A0c7BdFf64827D"
      ],
      "transaction": {
        "from": "0xb819a871d20913839c37f316dc914b0570bfc0ee",
        "to": "0xe32fc580e6e3f6f5947bc2d900062dce019f375f",
        "gas": "0x9a49",
        "value": "0x0",
        "input": "0xf2fde38b00000000000000000000000091b945cbb063648c44271868a7a0c7bdff64827d",
        "nonce": "0x2b0",
        "chainId": "0xe708"
      },
      "additionalContracts": [],
      "isFixedGasLimit": false
    },
    {
      "hash": "0x6acf45bacb8d4c574199d184451fc980239fb86d1bbad8389b6e2ce770ae3759",
      "transactionType": "CALL",
      "contractName": null,
      "contractAddress": "0xddcca3eda77622b7ff5b7f11b340a8f818a87d2c",
      "function": "transferOwnership(address)",
      "arguments": [
        "0x91B945CbB063648C44271868a7A0c7BdFf64827D"
      ],
      "transaction": {
        "from": "0xb819a871d20913839c37f316dc914b0570bfc0ee",
        "to": "0xddcca3eda77622b7ff5b7f11b340a8f818a87d2c",
        "gas": "0x9a97",
        "value": "0x0",
        "input": "0xf2fde38b00000000000000000000000091b945cbb063648c44271868a7a0c7bdff64827d",
        "nonce": "0x2b1",
        "chainId": "0xe708"
      },
      "additionalContracts": [],
      "isFixedGasLimit": false
    },
    {
      "hash": "0x11db721c3eaf8aae34876bf589ee812c1b34928672dce48739ac843ac631dab9",
      "transactionType": "CALL",
      "contractName": null,
      "contractAddress": "0x1211d07f0ebea8994f23ec26e1e512929fc8ab08",
      "function": "transferOwnership(address)",
      "arguments": [
        "0x91B945CbB063648C44271868a7A0c7BdFf64827D"
      ],
      "transaction": {
        "from": "0xb819a871d20913839c37f316dc914b0570bfc0ee",
        "to": "0x1211d07f0ebea8994f23ec26e1e512929fc8ab08",
        "gas": "0xa3d0",
        "value": "0x0",
        "input": "0xf2fde38b00000000000000000000000091b945cbb063648c44271868a7a0c7bdff64827d",
        "nonce": "0x2b2",
        "chainId": "0xe708"
      },
      "additionalContracts": [],
      "isFixedGasLimit": false
    },
    {
      "hash": "0x17db3745562ddeaecffc9be1fd6f3315855d7c4f7445801ae8226c3238e70f88",
      "transactionType": "CALL",
      "contractName": null,
      "contractAddress": "0x04f0cdc5a215dedf6a1ed5444e07367e20768041",
      "function": "transferOwnership(address)",
      "arguments": [
        "0x91B945CbB063648C44271868a7A0c7BdFf64827D"
      ],
      "transaction": {
        "from": "0xb819a871d20913839c37f316dc914b0570bfc0ee",
        "to": "0x04f0cdc5a215dedf6a1ed5444e07367e20768041",
        "gas": "0x9a49",
        "value": "0x0",
        "input": "0xf2fde38b00000000000000000000000091b945cbb063648c44271868a7a0c7bdff64827d",
        "nonce": "0x2b3",
        "chainId": "0xe708"
      },
      "additionalContracts": [],
      "isFixedGasLimit": false
    },
    {
      "hash": "0x42f4cb1695fd202759694bf4255f450b2eff37b5ede1caf34032408d3d7be31a",
      "transactionType": "CALL",
      "contractName": null,
      "contractAddress": "0x05bd298c0c3f34b541b42f867baf6707911be437",
      "function": "transferOwnership(address)",
      "arguments": [
        "0x91B945CbB063648C44271868a7A0c7BdFf64827D"
      ],
      "transaction": {
        "from": "0xb819a871d20913839c37f316dc914b0570bfc0ee",
        "to": "0x05bd298c0c3f34b541b42f867baf6707911be437",
        "gas": "0xb57f",
        "value": "0x0",
        "input": "0xf2fde38b00000000000000000000000091b945cbb063648c44271868a7a0c7bdff64827d",
        "nonce": "0x2b4",
        "chainId": "0xe708"
      },
      "additionalContracts": [],
      "isFixedGasLimit": false
    },
    {
      "hash": "0x1c91c3b97963fdfd92def12c0b120f54f67724b66a67a34457c0f397d999fbf7",
      "transactionType": "CALL",
      "contractName": null,
      "contractAddress": "0xe4165fa4231c0c41f71b93db464e1f31937e3302",
      "function": "transferOwnership(address)",
      "arguments": [
        "0x91B945CbB063648C44271868a7A0c7BdFf64827D"
      ],
      "transaction": {
        "from": "0xb819a871d20913839c37f316dc914b0570bfc0ee",
        "to": "0xe4165fa4231c0c41f71b93db464e1f31937e3302",
        "gas": "0x9a49",
        "value": "0x0",
        "input": "0xf2fde38b00000000000000000000000091b945cbb063648c44271868a7a0c7bdff64827d",
        "nonce": "0x2b5",
        "chainId": "0xe708"
      },
      "additionalContracts": [],
      "isFixedGasLimit": false
    },
    {
      "hash": "0xe1a3e8f23df9c2c52daad45d0f76a64bce664af46986e7c64445dd69ea4eb452",
      "transactionType": "CALL",
      "contractName": null,
      "contractAddress": "0x56310b8f82f3709b41adf971ecc82f7e04e65eea",
      "function": "transferOwnership(address)",
      "arguments": [
        "0x91B945CbB063648C44271868a7A0c7BdFf64827D"
      ],
      "transaction": {
        "from": "0xb819a871d20913839c37f316dc914b0570bfc0ee",
        "to": "0x56310b8f82f3709b41adf971ecc82f7e04e65eea",
        "gas": "0x9a49",
        "value": "0x0",
        "input": "0xf2fde38b00000000000000000000000091b945cbb063648c44271868a7a0c7bdff64827d",
        "nonce": "0x2b6",
        "chainId": "0xe708"
      },
      "additionalContracts": [],
      "isFixedGasLimit": false
    },
    {
      "hash": "0xe4023174952c4fc6363c8a47d2981d9d6c27553db29eccbf53ae76f5b50b98e7",
      "transactionType": "CALL",
      "contractName": null,
      "contractAddress": "0x74eb5ebcb998a227eae8c2a5aaf594072da2100a",
      "function": "transferOwnership(address)",
      "arguments": [
        "0x91B945CbB063648C44271868a7A0c7BdFf64827D"
      ],
      "transaction": {
        "from": "0xb819a871d20913839c37f316dc914b0570bfc0ee",
        "to": "0x74eb5ebcb998a227eae8c2a5aaf594072da2100a",
        "gas": "0x9a49",
        "value": "0x0",
        "input": "0xf2fde38b00000000000000000000000091b945cbb063648c44271868a7a0c7bdff64827d",
        "nonce": "0x2b7",
        "chainId": "0xe708"
      },
      "additionalContracts": [],
      "isFixedGasLimit": false
    },
    {
      "hash": "0x2d0d481a76192db55a7f8d4a1f61733b87cc0bd50951b2625175277e3d08162f",
      "transactionType": "CALL",
      "contractName": null,
      "contractAddress": "0x9b330aea1a68bde41fc81c1ba280098f09c969c3",
      "function": "transferOwnership(address)",
      "arguments": [
        "0x91B945CbB063648C44271868a7A0c7BdFf64827D"
      ],
      "transaction": {
        "from": "0xb819a871d20913839c37f316dc914b0570bfc0ee",
        "to": "0x9b330aea1a68bde41fc81c1ba280098f09c969c3",
        "gas": "0x9a49",
        "value": "0x0",
        "input": "0xf2fde38b00000000000000000000000091b945cbb063648c44271868a7a0c7bdff64827d",
        "nonce": "0x2b8",
        "chainId": "0xe708"
      },
      "additionalContracts": [],
      "isFixedGasLimit": false
    },
    {
      "hash": "0x11bae026cff5d5714bf29085dc47c7bd65e536418873e63bcd47a8ddd7fe76d4",
      "transactionType": "CALL",
      "contractName": null,
      "contractAddress": "0xc552cd2c7a4fe618e63c42438b1108361a568009",
      "function": "transferOwnership(address)",
      "arguments": [
        "0x91B945CbB063648C44271868a7A0c7BdFf64827D"
      ],
      "transaction": {
        "from": "0xb819a871d20913839c37f316dc914b0570bfc0ee",
        "to": "0xc552cd2c7a4fe618e63c42438b1108361a568009",
        "gas": "0x9a49",
        "value": "0x0",
        "input": "0xf2fde38b00000000000000000000000091b945cbb063648c44271868a7a0c7bdff64827d",
        "nonce": "0x2b9",
        "chainId": "0xe708"
      },
      "additionalContracts": [],
      "isFixedGasLimit": false
    },
    {
      "hash": "0xd22a2895e1e3899638110a2efadbeeb93e11c0b5334a430c9db5fc4653b40fc9",
      "transactionType": "CALL",
      "contractName": null,
      "contractAddress": "0x7574fa32896ece5b5127f6b44b087f4387344ef4",
      "function": "transferOwnership(address)",
      "arguments": [
        "0x91B945CbB063648C44271868a7A0c7BdFf64827D"
      ],
      "transaction": {
        "from": "0xb819a871d20913839c37f316dc914b0570bfc0ee",
        "to": "0x7574fa32896ece5b5127f6b44b087f4387344ef4",
        "gas": "0x9a49",
        "value": "0x0",
        "input": "0xf2fde38b00000000000000000000000091b945cbb063648c44271868a7a0c7bdff64827d",
        "nonce": "0x2ba",
        "chainId": "0xe708"
      },
      "additionalContracts": [],
      "isFixedGasLimit": false
    },
    {
      "hash": "0xb48091a587677870b389bc54eb40801d3b8c25060f49274bf3b575e98f01b770",
      "transactionType": "CALL",
      "contractName": null,
      "contractAddress": "0x1f0c88a6ff8dab04307fc9d6203542583db9f336",
      "function": "transferOwnership(address)",
      "arguments": [
        "0x91B945CbB063648C44271868a7A0c7BdFf64827D"
      ],
      "transaction": {
        "from": "0xb819a871d20913839c37f316dc914b0570bfc0ee",
        "to": "0x1f0c88a6ff8dab04307fc9d6203542583db9f336",
        "gas": "0x9a49",
        "value": "0x0",
        "input": "0xf2fde38b00000000000000000000000091b945cbb063648c44271868a7a0c7bdff64827d",
        "nonce": "0x2bb",
        "chainId": "0xe708"
      },
      "additionalContracts": [],
      "isFixedGasLimit": false
    },
    {
      "hash": "0xb1c156ae2edb18f1eeb3e83277529d90b16e3ee565257e2a46de210829920ffb",
      "transactionType": "CALL",
      "contractName": null,
      "contractAddress": "0xabee4794832eaeae25ee972d47c0ac540d8bbb2f",
      "function": "transferOwnership(address)",
      "arguments": [
        "0x91B945CbB063648C44271868a7A0c7BdFf64827D"
      ],
      "transaction": {
        "from": "0xb819a871d20913839c37f316dc914b0570bfc0ee",
        "to": "0xabee4794832eaeae25ee972d47c0ac540d8bbb2f",
        "gas": "0x9a49",
        "value": "0x0",
        "input": "0xf2fde38b00000000000000000000000091b945cbb063648c44271868a7a0c7bdff64827d",
        "nonce": "0x2bc",
        "chainId": "0xe708"
      },
      "additionalContracts": [],
      "isFixedGasLimit": false
    }
  ],
  "receipts": [
    {
      "status": "0x1",
      "cumulativeGasUsed": "0x38d8f",
      "logs": [
        {
          "address": "0x1211d07f0ebea8994f23ec26e1e512929fc8ab08",
          "topics": [
            "0xbf768a8bd7016d5df999ce7e5dcbd90856578a89eb68c5a1d5fc1d4a3360107e",
            "0x000000000000000000000000f8b6314e66ea3e4b62e229fa5f5f052058618404",
            "0x4b1cf52f49d174a2779824195ac83ffb0173882d2de2b8017a7a2ad31efa9bac"
          ],
          "data": "0x0000000000000000000000000000000000000000000000000000000000000001",
          "blockHash": "0xdb8911cf6daa51e288658c32a5d3fa6fb0ff5a2ec63f236fd457d3b214fbb408",
          "blockNumber": "0x1282618",
          "transactionHash": "0xe010c86860786899e483d3fdb1330f6d2e3294e5c58714f08db47a83f7f5d7fd",
          "transactionIndex": "0x3",
          "logIndex": "0x6",
          "removed": false
        }
      ],
      "logsBloom": "0x00000000000000000004000000000200000000000000000000000000000000000000000000000040000000000000080000000000002000000000000000000000000000000000000000000000010000000000000000000000000000000000000000008000000000000000000000000000000000000000000000400000000000000000000000000000000000000000000000000000000000000000000000000000000000000000000000000000000002000000000000000000000000000000000000000000000000002000000000000000002000010000000000000000000000000000000000000000000000000000000000000000000000000000000000000000",
      "type": "0x2",
      "transactionHash": "0xe010c86860786899e483d3fdb1330f6d2e3294e5c58714f08db47a83f7f5d7fd",
      "transactionIndex": "0x3",
      "blockHash": "0xdb8911cf6daa51e288658c32a5d3fa6fb0ff5a2ec63f236fd457d3b214fbb408",
      "blockNumber": "0x1282618",
      "gasUsed": "0xbf0e",
      "effectiveGasPrice": "0x3681bc2",
      "from": "0xb819a871d20913839c37f316dc914b0570bfc0ee",
      "to": "0x1211d07f0ebea8994f23ec26e1e512929fc8ab08",
      "contractAddress": null
    },
    {
      "status": "0x1",
      "cumulativeGasUsed": "0x2ab2f1",
      "logs": [
        {
          "address": "0x1211d07f0ebea8994f23ec26e1e512929fc8ab08",
          "topics": [
            "0xbf768a8bd7016d5df999ce7e5dcbd90856578a89eb68c5a1d5fc1d4a3360107e",
            "0x00000000000000000000000091b945cbb063648c44271868a7a0c7bdff64827d",
            "0x4b1cf52f49d174a2779824195ac83ffb0173882d2de2b8017a7a2ad31efa9bac"
          ],
          "data": "0x0000000000000000000000000000000000000000000000000000000000000001",
          "blockHash": "0x4f492a43d9f286008f5b356441dc23354ca57f7b98114aa4cb1e2c5a0912853c",
          "blockNumber": "0x128261a",
          "transactionHash": "0x39f28400cfdc04dde111f7fcc2b0c44e109cf501370ec86da076c0a0a2574467",
          "transactionIndex": "0xc",
          "logIndex": "0x30",
          "removed": false
        }
      ],
      "logsBloom": "0x00000000000000000004000000000200000000000000000000000000000000000000000000000040000000000000080000000000000000000000000000000000000000000000000000000000010000000000100000000000000000000000000000000000000000000000000000000000000000000000000000400000000400000000000000000000000000004000000000000000000000000000000000000000000000000000000000000000000002000000000000000000000000000000000000000000000000000000000000000000002000010000000000000000000000000000000000000000000000000000000000000000000000000000000000000000",
      "type": "0x2",
      "transactionHash": "0x39f28400cfdc04dde111f7fcc2b0c44e109cf501370ec86da076c0a0a2574467",
      "transactionIndex": "0xc",
      "blockHash": "0x4f492a43d9f286008f5b356441dc23354ca57f7b98114aa4cb1e2c5a0912853c",
      "blockNumber": "0x128261a",
      "gasUsed": "0xbf0e",
      "effectiveGasPrice": "0x3681bc2",
      "from": "0xb819a871d20913839c37f316dc914b0570bfc0ee",
      "to": "0x1211d07f0ebea8994f23ec26e1e512929fc8ab08",
      "contractAddress": null
    },
    {
      "status": "0x1",
      "cumulativeGasUsed": "0x42b28",
      "logs": [
        {
          "address": "0x1211d07f0ebea8994f23ec26e1e512929fc8ab08",
          "topics": [
            "0xbf768a8bd7016d5df999ce7e5dcbd90856578a89eb68c5a1d5fc1d4a3360107e",
            "0x00000000000000000000000091b945cbb063648c44271868a7a0c7bdff64827d",
            "0xaeffe8a027d13ff1f9fbecaa8f7fc0ff2c5c5d71561a1a572f6bafeeba68abfd"
          ],
          "data": "0x0000000000000000000000000000000000000000000000000000000000000001",
          "blockHash": "0x48ac1c587a4f39dad33aa6900ce0f5308c2456500be354cce49caf7cd0adec62",
          "blockNumber": "0x128261d",
          "transactionHash": "0xbaa0458c6c2b7fa5dac38276122a01021963e9dfcd9089aa819c4378b0b7f1c1",
          "transactionIndex": "0x4",
          "logIndex": "0x3",
          "removed": false
        }
      ],
      "logsBloom": "0x00000000000000000004000000000200000000000000000000000000000000000000000000000040000000000000080000100000000000000000000000000000000000000040000000000000000000000000100000400000000000000000000000000000000000000000000000000000000000000000000000400000000400000000000000000000000000004000000000000000000000000000000000000000000000000000000000000000000000000000000000000000000000000000000000000000000000000000000000000000000000010000000000000000000000000000000000000000000000000000000000000000000000000000000000000000",
      "type": "0x2",
      "transactionHash": "0xbaa0458c6c2b7fa5dac38276122a01021963e9dfcd9089aa819c4378b0b7f1c1",
      "transactionIndex": "0x4",
      "blockHash": "0x48ac1c587a4f39dad33aa6900ce0f5308c2456500be354cce49caf7cd0adec62",
      "blockNumber": "0x128261d",
      "gasUsed": "0xbf0e",
      "effectiveGasPrice": "0x3681bc2",
      "from": "0xb819a871d20913839c37f316dc914b0570bfc0ee",
      "to": "0x1211d07f0ebea8994f23ec26e1e512929fc8ab08",
      "contractAddress": null
    },
    {
      "status": "0x1",
      "cumulativeGasUsed": "0x8b3e7",
      "logs": [
        {
          "address": "0x1211d07f0ebea8994f23ec26e1e512929fc8ab08",
          "topics": [
            "0xbf768a8bd7016d5df999ce7e5dcbd90856578a89eb68c5a1d5fc1d4a3360107e",
            "0x00000000000000000000000091b945cbb063648c44271868a7a0c7bdff64827d",
            "0xc8e17e1f507bc6ac21ffd444ba9d6c9d6ea2defdac21571990ea0eb8bcde3a24"
          ],
          "data": "0x0000000000000000000000000000000000000000000000000000000000000001",
          "blockHash": "0x0f03584b95b36f0cf32b5cd0dfec50ac514193a55ccf91c6946f239f8d41cb84",
          "blockNumber": "0x1282620",
          "transactionHash": "0xffa9c4e96e4c7db6973da48fa9232c0a370660d5b2b4c63d3813dcc002d6df58",
          "transactionIndex": "0x6",
          "logIndex": "0x6",
          "removed": false
        }
      ],
      "logsBloom": "0x00000000000000000004000000000200000000000000000000000000000000000000020000000040000000000000080000000000000000000000000000000000000000000000000000000000000000000000100000000000000000000000000000000000000000000000000000000008000000000000000000400000000400000000000000000000000000004000000000000000000000000000000000000000000000000400000000000000000000000000000000000000000000000000000000000000000000000000000000000000000000010000000000000000000000000000000000000000000000000000000000000000000000000000000000000000",
      "type": "0x2",
      "transactionHash": "0xffa9c4e96e4c7db6973da48fa9232c0a370660d5b2b4c63d3813dcc002d6df58",
      "transactionIndex": "0x6",
      "blockHash": "0x0f03584b95b36f0cf32b5cd0dfec50ac514193a55ccf91c6946f239f8d41cb84",
      "blockNumber": "0x1282620",
      "gasUsed": "0xbf0e",
      "effectiveGasPrice": "0x3681bc2",
      "from": "0xb819a871d20913839c37f316dc914b0570bfc0ee",
      "to": "0x1211d07f0ebea8994f23ec26e1e512929fc8ab08",
      "contractAddress": null
    },
    {
      "status": "0x1",
      "cumulativeGasUsed": "0x4e7e0",
      "logs": [
        {
          "address": "0x1211d07f0ebea8994f23ec26e1e512929fc8ab08",
          "topics": [
            "0xbf768a8bd7016d5df999ce7e5dcbd90856578a89eb68c5a1d5fc1d4a3360107e",
            "0x00000000000000000000000091b945cbb063648c44271868a7a0c7bdff64827d",
            "0xcf3889b3d647b5db8c87e0e05aca2acdd693a72c71726764f2198ee27a21c728"
          ],
          "data": "0x0000000000000000000000000000000000000000000000000000000000000001",
          "blockHash": "0xfca44b875cd7013c9655b9498a76bf59cbaca8aabe8f87bbedbf68ff2df5ca33",
          "blockNumber": "0x1282622",
          "transactionHash": "0xede97a4788c2c510842b447705292704af6dd71254b9ee66b7ccdcc2ded37336",
          "transactionIndex": "0x1",
          "logIndex": "0x5",
          "removed": false
        }
      ],
      "logsBloom": "0x00000000000000000004000000000200000000000000000000000000000008000000000000000040000000000000080000000000000000000000000000000000000000000000000000000000000000000000100000000000000000000000000000000000000000000000000000000000000000000000000000400000000400000000000000000800000000004000000000000000000000000000000000000000000000000000000000000000000000000000000000000000000000000000000000000000000000000000000002000000000000010000000000000000000000000000000000000000000000000000000000000000000000000000000000000000",
      "type": "0x2",
      "transactionHash": "0xede97a4788c2c510842b447705292704af6dd71254b9ee66b7ccdcc2ded37336",
      "transactionIndex": "0x1",
      "blockHash": "0xfca44b875cd7013c9655b9498a76bf59cbaca8aabe8f87bbedbf68ff2df5ca33",
      "blockNumber": "0x1282622",
      "gasUsed": "0xbf0e",
      "effectiveGasPrice": "0x3681bc2",
      "from": "0xb819a871d20913839c37f316dc914b0570bfc0ee",
      "to": "0x1211d07f0ebea8994f23ec26e1e512929fc8ab08",
      "contractAddress": null
    },
    {
      "status": "0x1",
      "cumulativeGasUsed": "0xbf0e",
      "logs": [
        {
          "address": "0x1211d07f0ebea8994f23ec26e1e512929fc8ab08",
          "topics": [
            "0xbf768a8bd7016d5df999ce7e5dcbd90856578a89eb68c5a1d5fc1d4a3360107e",
            "0x00000000000000000000000091b945cbb063648c44271868a7a0c7bdff64827d",
            "0x79bb2eff4b96ce24cc809a1642a7365c4980ebeb15be2580a619e03726e41a98"
          ],
          "data": "0x0000000000000000000000000000000000000000000000000000000000000001",
          "blockHash": "0xbe038b5310707a59cdb64c62f9e19f1053cb214aaedfc521eb73b4e7e932971f",
          "blockNumber": "0x1282624",
          "transactionHash": "0xc7608d3343b89488bcb13075db96b5af59e82b6e9f9f97a56aa1a9c721c83fc3",
          "transactionIndex": "0x0",
          "logIndex": "0x0",
          "removed": false
        }
      ],
      "logsBloom": "0x00000000000000000004000000000200000000000000000000000000000000000000000000000040000000000000080000000000000000000000000000000000000000000000000000000000000000000000100000000000000000000000000000000000000000000000000000000000000000000000001000400000000400000000000000000000000000004000000000000000000000000000000000000000000000000000000000000000000000000000000000000000000000000000000000800000000000000000000000000008000000010000000000000000000000000000000000000000000000000000000000000000000000000000000000000000",
      "type": "0x2",
      "transactionHash": "0xc7608d3343b89488bcb13075db96b5af59e82b6e9f9f97a56aa1a9c721c83fc3",
      "transactionIndex": "0x0",
      "blockHash": "0xbe038b5310707a59cdb64c62f9e19f1053cb214aaedfc521eb73b4e7e932971f",
      "blockNumber": "0x1282624",
      "gasUsed": "0xbf0e",
      "effectiveGasPrice": "0x3681bc2",
      "from": "0xb819a871d20913839c37f316dc914b0570bfc0ee",
      "to": "0x1211d07f0ebea8994f23ec26e1e512929fc8ab08",
      "contractAddress": null
    },
    {
      "status": "0x1",
      "cumulativeGasUsed": "0x260ec",
      "logs": [
        {
          "address": "0x1211d07f0ebea8994f23ec26e1e512929fc8ab08",
          "topics": [
            "0xbf768a8bd7016d5df999ce7e5dcbd90856578a89eb68c5a1d5fc1d4a3360107e",
            "0x00000000000000000000000091b945cbb063648c44271868a7a0c7bdff64827d",
            "0x3e008573b76fa95febaab72c06ec152363f92f2b27dcaf00fbd0bb77a70593db"
          ],
          "data": "0x0000000000000000000000000000000000000000000000000000000000000001",
          "blockHash": "0x9f4f988a489273baab0f0c7c7268f1485930040eb82d8a218f23803f876958e5",
          "blockNumber": "0x1282626",
          "transactionHash": "0x17f56bc25807fa7a871d0c01be050cdc7282f49e4381cc9abe3dc100975162f9",
          "transactionIndex": "0x2",
          "logIndex": "0x8",
          "removed": false
        }
      ],
      "logsBloom": "0x00000000000000000004000000000200000000000000000000000000000000000000000000000040000000000000080000000000000000000000000000000000100000000000000000000000000000000000100000000000000000000000000000000000000000000000000000000000000000000000000000400000000400000000000000000000000000004000000000000000000000000000000000000000000000000000000000000000000000200000000000000000000000000000000000000000000000000000000000000000000000010000000000000000000000000000000000000000000000004000000000000000000000000000000000000000",
      "type": "0x2",
      "transactionHash": "0x17f56bc25807fa7a871d0c01be050cdc7282f49e4381cc9abe3dc100975162f9",
      "transactionIndex": "0x2",
      "blockHash": "0x9f4f988a489273baab0f0c7c7268f1485930040eb82d8a218f23803f876958e5",
      "blockNumber": "0x1282626",
      "gasUsed": "0xbef6",
      "effectiveGasPrice": "0x3681bc2",
      "from": "0xb819a871d20913839c37f316dc914b0570bfc0ee",
      "to": "0x1211d07f0ebea8994f23ec26e1e512929fc8ab08",
      "contractAddress": null
    },
    {
      "status": "0x1",
      "cumulativeGasUsed": "0x2072e",
      "logs": [
        {
          "address": "0x1211d07f0ebea8994f23ec26e1e512929fc8ab08",
          "topics": [
            "0xbf768a8bd7016d5df999ce7e5dcbd90856578a89eb68c5a1d5fc1d4a3360107e",
            "0x00000000000000000000000091b945cbb063648c44271868a7a0c7bdff64827d",
            "0x46c2ab528350fb4f59e61eb6c0382446a3636f13f7846680a2734e5f829735a4"
          ],
          "data": "0x0000000000000000000000000000000000000000000000000000000000000001",
          "blockHash": "0xdff4cf54e0656baff877a780b0d1fcbbdac2591cb09cb94decb78ab3ea5a9b0a",
          "blockNumber": "0x1282629",
          "transactionHash": "0xe6d9ff4ce21ab1d1005ece77009b16797c64d2897892c1548f97d00d8878d092",
          "transactionIndex": "0x4",
          "logIndex": "0x0",
          "removed": false
        }
      ],
      "logsBloom": "0x00000000000000200004000000000200000000000000000000000000000000000000000000000040000000000000080004000000000000000000000000000000000000000000000000000000000000000000100000000000000000000000000000000000000000000000000000000000000000000000000000400000000400000000000000000000000000004000000000000000000000000000000000000000000000000000000000000000000000000000000000000000000000000000000000000000000000000000000000000000000000010000000000000000000000400000000000000000000000000000000000000000000000000000000000000000",
      "type": "0x2",
      "transactionHash": "0xe6d9ff4ce21ab1d1005ece77009b16797c64d2897892c1548f97d00d8878d092",
      "transactionIndex": "0x4",
      "blockHash": "0xdff4cf54e0656baff877a780b0d1fcbbdac2591cb09cb94decb78ab3ea5a9b0a",
      "blockNumber": "0x1282629",
      "gasUsed": "0xbf0e",
      "effectiveGasPrice": "0x3681bc2",
      "from": "0xb819a871d20913839c37f316dc914b0570bfc0ee",
      "to": "0x1211d07f0ebea8994f23ec26e1e512929fc8ab08",
      "contractAddress": null
    },
    {
      "status": "0x1",
      "cumulativeGasUsed": "0x64a85",
      "logs": [
        {
          "address": "0x1211d07f0ebea8994f23ec26e1e512929fc8ab08",
          "topics": [
            "0xbf768a8bd7016d5df999ce7e5dcbd90856578a89eb68c5a1d5fc1d4a3360107e",
            "0x00000000000000000000000091b945cbb063648c44271868a7a0c7bdff64827d",
            "0xb0487bdd3330b4d082e49dfc24e1aa23706abcc632f9215fee20a474a9a88457"
          ],
          "data": "0x0000000000000000000000000000000000000000000000000000000000000001",
          "blockHash": "0xf4445161854ac7e062a24084110da05f1055a856798c089e4d5059e2b622aed1",
          "blockNumber": "0x128262c",
          "transactionHash": "0xef4efc928acbd8acd139f6e01038bb3e408116e8ffdd8ed62d85490c1ee40025",
          "transactionIndex": "0x2",
          "logIndex": "0xc",
          "removed": false
        }
      ],
      "logsBloom": "0x00000000000000000004000000000200000000000000000000000000000000000000000000000040000000000000080000000000000000000000000000000000000000000000000000000000000000000000100000000000100000000000000000000000000000000000000000000000000000000000000000400000000400000000000000000000000000004000000000000000000000000000000000040000400000000000000000000000000000000000000000000000000000000000000000000000000000000000000000000000000000010000000000000000000000000000000000000000000000000000000000000000000000000000000000000000",
      "type": "0x2",
      "transactionHash": "0xef4efc928acbd8acd139f6e01038bb3e408116e8ffdd8ed62d85490c1ee40025",
      "transactionIndex": "0x2",
      "blockHash": "0xf4445161854ac7e062a24084110da05f1055a856798c089e4d5059e2b622aed1",
      "blockNumber": "0x128262c",
      "gasUsed": "0xbf0e",
      "effectiveGasPrice": "0x3681bc2",
      "from": "0xb819a871d20913839c37f316dc914b0570bfc0ee",
      "to": "0x1211d07f0ebea8994f23ec26e1e512929fc8ab08",
      "contractAddress": null
    },
    {
      "status": "0x1",
      "cumulativeGasUsed": "0x52ed7",
      "logs": [
        {
          "address": "0x1211d07f0ebea8994f23ec26e1e512929fc8ab08",
          "topics": [
            "0xbf768a8bd7016d5df999ce7e5dcbd90856578a89eb68c5a1d5fc1d4a3360107e",
            "0x00000000000000000000000091b945cbb063648c44271868a7a0c7bdff64827d",
            "0xeefbfa32ce9dd99a431be27221a8732bc1e7b3d032ff4cbd56226b17783f7413"
          ],
          "data": "0x0000000000000000000000000000000000000000000000000000000000000001",
          "blockHash": "0xc5a51624c008210221c8f1f3f70d9f70df5e80cefacd79b8221a8eeab996c9fa",
          "blockNumber": "0x128262f",
          "transactionHash": "0xcd25c3e340800a90838a0db068668c941767316e61a799b30822b848e871a374",
          "transactionIndex": "0x3",
          "logIndex": "0xb",
          "removed": false
        }
      ],
      "logsBloom": "0x00000000000000000004000000000200000000000000000000000000000000000000000000000040000000000000080000000000000000000000000000000000000000000000000000000100000000000000100000000000000000000000000000000000000000000000000000000000000000000000000000400000000400800000000000000000000000004000000000000000000000000000000000000000000000000000000000000000000000000000000000000000000000000000000000000000000000000000000000000000000000010000000000000000000000000000000000000000000000000000000000000000000400000000000000000000",
      "type": "0x2",
      "transactionHash": "0xcd25c3e340800a90838a0db068668c941767316e61a799b30822b848e871a374",
      "transactionIndex": "0x3",
      "blockHash": "0xc5a51624c008210221c8f1f3f70d9f70df5e80cefacd79b8221a8eeab996c9fa",
      "blockNumber": "0x128262f",
      "gasUsed": "0xbf0e",
      "effectiveGasPrice": "0x3681bc2",
      "from": "0xb819a871d20913839c37f316dc914b0570bfc0ee",
      "to": "0x1211d07f0ebea8994f23ec26e1e512929fc8ab08",
      "contractAddress": null
    },
    {
      "status": "0x1",
      "cumulativeGasUsed": "0xbf0e",
      "logs": [
        {
          "address": "0x1211d07f0ebea8994f23ec26e1e512929fc8ab08",
          "topics": [
            "0xbf768a8bd7016d5df999ce7e5dcbd90856578a89eb68c5a1d5fc1d4a3360107e",
            "0x00000000000000000000000091b945cbb063648c44271868a7a0c7bdff64827d",
            "0xaa85d4d7655b58b3177edbbb41bc17f2e2ebffd26ace9d6b56244a5ee16c7806"
          ],
          "data": "0x0000000000000000000000000000000000000000000000000000000000000001",
          "blockHash": "0x7af8c62bda34a141cd7b0a6bd885b45146a147ec9ea6b5b8569d4b0752fd889a",
          "blockNumber": "0x1282631",
          "transactionHash": "0xc63bc4df3f9928d41936c5ca110dde0227f7e5c33b3e3af3a7f1a05069479dde",
          "transactionIndex": "0x0",
          "logIndex": "0x0",
          "removed": false
        }
      ],
      "logsBloom": "0x00000000000000000006000000000200000000000000000000000000000000000000000000000040000000000000080000000000000000000000000000000000000000000000000000000000000000000000100000000000000000000000000000000000000000000000000000000000000000000000000000400000000400000000000000000000000000004000000000000000000000000000000000000000000000000000000000000000000000000000000000000000000000000000000000000000000000000000000000200000000000010000000000000000000000000000000000000000000000000000000000008000000000000000000000000000",
      "type": "0x2",
      "transactionHash": "0xc63bc4df3f9928d41936c5ca110dde0227f7e5c33b3e3af3a7f1a05069479dde",
      "transactionIndex": "0x0",
      "blockHash": "0x7af8c62bda34a141cd7b0a6bd885b45146a147ec9ea6b5b8569d4b0752fd889a",
      "blockNumber": "0x1282631",
      "gasUsed": "0xbf0e",
      "effectiveGasPrice": "0x3681bc2",
      "from": "0xb819a871d20913839c37f316dc914b0570bfc0ee",
      "to": "0x1211d07f0ebea8994f23ec26e1e512929fc8ab08",
      "contractAddress": null
    },
    {
      "status": "0x1",
      "cumulativeGasUsed": "0xbb7e",
      "logs": [
        {
          "address": "0x1211d07f0ebea8994f23ec26e1e512929fc8ab08",
          "topics": [
            "0xbf768a8bd7016d5df999ce7e5dcbd90856578a89eb68c5a1d5fc1d4a3360107e",
            "0x000000000000000000000000b819a871d20913839c37f316dc914b0570bfc0ee",
            "0x4b1cf52f49d174a2779824195ac83ffb0173882d2de2b8017a7a2ad31efa9bac"
          ],
          "data": "0x0000000000000000000000000000000000000000000000000000000000000000",
          "blockHash": "0x3eec99e925c8a568e6721bb12c97502e914ea7dc653767822f173a475b9448b0",
          "blockNumber": "0x1282634",
          "transactionHash": "0xd4498302be9e63ec51c3fcca7513d533924327daf98a7f4907314df0e2afe041",
          "transactionIndex": "0x1",
          "logIndex": "0x0",
          "removed": false
        }
      ],
      "logsBloom": "0x00000000000000000004000000000200000000000000000000000000000000000000000000000040000000000000080000000000000000000000000000000002000000000080000000000000010000000000000000000000000000000000000000000000000000000000000000000000000000000000000000400000000000000000000000000000000000000000000000000000000000000000000000000000000000000000000000000000000002000000000000000000000000000000000000000000000000000000000000000000002000010000000000000200000000000000000000000000000000000000000000000000000000000000000000000000",
      "type": "0x2",
      "transactionHash": "0xd4498302be9e63ec51c3fcca7513d533924327daf98a7f4907314df0e2afe041",
      "transactionIndex": "0x1",
      "blockHash": "0x3eec99e925c8a568e6721bb12c97502e914ea7dc653767822f173a475b9448b0",
      "blockNumber": "0x1282634",
      "gasUsed": "0x6976",
      "effectiveGasPrice": "0x3681bc2",
      "from": "0xb819a871d20913839c37f316dc914b0570bfc0ee",
      "to": "0x1211d07f0ebea8994f23ec26e1e512929fc8ab08",
      "contractAddress": null
    },
    {
      "status": "0x1",
      "cumulativeGasUsed": "0x190050",
      "logs": [
        {
          "address": "0x1211d07f0ebea8994f23ec26e1e512929fc8ab08",
          "topics": [
            "0xbf768a8bd7016d5df999ce7e5dcbd90856578a89eb68c5a1d5fc1d4a3360107e",
            "0x000000000000000000000000b819a871d20913839c37f316dc914b0570bfc0ee",
            "0xaeffe8a027d13ff1f9fbecaa8f7fc0ff2c5c5d71561a1a572f6bafeeba68abfd"
          ],
          "data": "0x0000000000000000000000000000000000000000000000000000000000000000",
          "blockHash": "0x2650928fc945a1c169e749b374218d96e095a2063cc8a82949e44d8cc3616d10",
          "blockNumber": "0x1282636",
          "transactionHash": "0xb77a479cc5fb90d2cf0ecd847f5f077b5a06ae1b4a129193b44265a54bc26d5c",
          "transactionIndex": "0x8",
          "logIndex": "0x18",
          "removed": false
        }
      ],
      "logsBloom": "0x000000000000000000040000000002000000000000000000000000000000000000000000000000400000000000000800001000000000000000000000000000020000000000c0000000000000000000000000000000400000000000000000000000000000000000000000000000000000000000000000000000400000000000000000000000000000000000000000000000000000000000000000000000000000000000000000000000000000000000000000000000000000000000000000000000000000000000000000000000000000000000010000000000000200000000000000000000000000000000000000000000000000000000000000000000000000",
      "type": "0x2",
      "transactionHash": "0xb77a479cc5fb90d2cf0ecd847f5f077b5a06ae1b4a129193b44265a54bc26d5c",
      "transactionIndex": "0x8",
      "blockHash": "0x2650928fc945a1c169e749b374218d96e095a2063cc8a82949e44d8cc3616d10",
      "blockNumber": "0x1282636",
      "gasUsed": "0x6976",
      "effectiveGasPrice": "0x3681bc2",
      "from": "0xb819a871d20913839c37f316dc914b0570bfc0ee",
      "to": "0x1211d07f0ebea8994f23ec26e1e512929fc8ab08",
      "contractAddress": null
    },
    {
      "status": "0x1",
      "cumulativeGasUsed": "0x6976",
      "logs": [
        {
          "address": "0x1211d07f0ebea8994f23ec26e1e512929fc8ab08",
          "topics": [
            "0xbf768a8bd7016d5df999ce7e5dcbd90856578a89eb68c5a1d5fc1d4a3360107e",
            "0x000000000000000000000000b819a871d20913839c37f316dc914b0570bfc0ee",
            "0xc8e17e1f507bc6ac21ffd444ba9d6c9d6ea2defdac21571990ea0eb8bcde3a24"
          ],
          "data": "0x0000000000000000000000000000000000000000000000000000000000000000",
          "blockHash": "0x565636ee74f5765ccb4314cdf872b3476b24c2fc97ba1cc1873371ccf8e9e351",
          "blockNumber": "0x1282638",
          "transactionHash": "0xa54f811d24532decde4e3d3014230dca69455b7793a65b4f8efed229522df428",
          "transactionIndex": "0x0",
          "logIndex": "0x0",
          "removed": false
        }
      ],
      "logsBloom": "0x00000000000000000004000000000200000000000000000000000000000000000000020000000040000000000000080000000000000000000000000000000002000000000080000000000000000000000000000000000000000000000000000000000000000000000000000000000008000000000000000000400000000000000000000000000000000000000000000000000000000000000000000000000000000000000400000000000000000000000000000000000000000000000000000000000000000000000000000000000000000000010000000000000200000000000000000000000000000000000000000000000000000000000000000000000000",
      "type": "0x2",
      "transactionHash": "0xa54f811d24532decde4e3d3014230dca69455b7793a65b4f8efed229522df428",
      "transactionIndex": "0x0",
      "blockHash": "0x565636ee74f5765ccb4314cdf872b3476b24c2fc97ba1cc1873371ccf8e9e351",
      "blockNumber": "0x1282638",
      "gasUsed": "0x6976",
      "effectiveGasPrice": "0x3681bc2",
      "from": "0xb819a871d20913839c37f316dc914b0570bfc0ee",
      "to": "0x1211d07f0ebea8994f23ec26e1e512929fc8ab08",
      "contractAddress": null
    },
    {
      "status": "0x1",
      "cumulativeGasUsed": "0x90ee5",
      "logs": [
        {
          "address": "0x1211d07f0ebea8994f23ec26e1e512929fc8ab08",
          "topics": [
            "0xbf768a8bd7016d5df999ce7e5dcbd90856578a89eb68c5a1d5fc1d4a3360107e",
            "0x000000000000000000000000b819a871d20913839c37f316dc914b0570bfc0ee",
            "0x3e008573b76fa95febaab72c06ec152363f92f2b27dcaf00fbd0bb77a70593db"
          ],
          "data": "0x0000000000000000000000000000000000000000000000000000000000000000",
          "blockHash": "0x04b1375f06da93ff67ecff01368ed4fca1a50e9c460a8f9446ebc5d84b921fe1",
          "blockNumber": "0x128263a",
          "transactionHash": "0xf210c17dd4d33950ef82e0b8066373966a161bbbf40490a3593322b1ca1f955c",
          "transactionIndex": "0x2",
          "logIndex": "0xf",
          "removed": false
        }
      ],
      "logsBloom": "0x00000000000000000004000000000200000000000000000000000000000000000000000000000040000000000000080000000000000000000000000000000002100000000080000000000000000000000000000000000000000000000000000000000000000000000000000000000000000000000000000000400000000000000000000000000000000000000000000000000000000000000000000000000000000000000000000000000000000000200000000000000000000000000000000000000000000000000000000000000000000000010000000000000200000000000000000000000000000000004000000000000000000000000000000000000000",
      "type": "0x2",
      "transactionHash": "0xf210c17dd4d33950ef82e0b8066373966a161bbbf40490a3593322b1ca1f955c",
      "transactionIndex": "0x2",
      "blockHash": "0x04b1375f06da93ff67ecff01368ed4fca1a50e9c460a8f9446ebc5d84b921fe1",
      "blockNumber": "0x128263a",
      "gasUsed": "0x695e",
      "effectiveGasPrice": "0x3681bc2",
      "from": "0xb819a871d20913839c37f316dc914b0570bfc0ee",
      "to": "0x1211d07f0ebea8994f23ec26e1e512929fc8ab08",
      "contractAddress": null
    },
    {
      "status": "0x1",
      "cumulativeGasUsed": "0x6976",
      "logs": [
        {
          "address": "0x1211d07f0ebea8994f23ec26e1e512929fc8ab08",
          "topics": [
            "0xbf768a8bd7016d5df999ce7e5dcbd90856578a89eb68c5a1d5fc1d4a3360107e",
            "0x000000000000000000000000b819a871d20913839c37f316dc914b0570bfc0ee",
            "0x46c2ab528350fb4f59e61eb6c0382446a3636f13f7846680a2734e5f829735a4"
          ],
          "data": "0x0000000000000000000000000000000000000000000000000000000000000000",
          "blockHash": "0x2343350c39ec2ccdc0e1e011d0b0e73201ccaa910618f70a69213c8fb230d0d8",
          "blockNumber": "0x128263c",
          "transactionHash": "0xf8b4176fde463b7f43df7b685abf5a19ac82fc96073b30ad83fa667b395d178f",
          "transactionIndex": "0x0",
          "logIndex": "0x0",
          "removed": false
        }
      ],
      "logsBloom": "0x00000000000000200004000000000200000000000000000000000000000000000000000000000040000000000000080004000000000000000000000000000002000000000080000000000000000000000000000000000000000000000000000000000000000000000000000000000000000000000000000000400000000000000000000000000000000000000000000000000000000000000000000000000000000000000000000000000000000000000000000000000000000000000000000000000000000000000000000000000000000000010000000000000200000000400000000000000000000000000000000000000000000000000000000000000000",
      "type": "0x2",
      "transactionHash": "0xf8b4176fde463b7f43df7b685abf5a19ac82fc96073b30ad83fa667b395d178f",
      "transactionIndex": "0x0",
      "blockHash": "0x2343350c39ec2ccdc0e1e011d0b0e73201ccaa910618f70a69213c8fb230d0d8",
      "blockNumber": "0x128263c",
      "gasUsed": "0x6976",
      "effectiveGasPrice": "0x3681bc2",
      "from": "0xb819a871d20913839c37f316dc914b0570bfc0ee",
      "to": "0x1211d07f0ebea8994f23ec26e1e512929fc8ab08",
      "contractAddress": null
    },
    {
      "status": "0x1",
      "cumulativeGasUsed": "0x10d86",
      "logs": [
        {
          "address": "0x1211d07f0ebea8994f23ec26e1e512929fc8ab08",
          "topics": [
            "0xbf768a8bd7016d5df999ce7e5dcbd90856578a89eb68c5a1d5fc1d4a3360107e",
            "0x000000000000000000000000b819a871d20913839c37f316dc914b0570bfc0ee",
            "0xb0487bdd3330b4d082e49dfc24e1aa23706abcc632f9215fee20a474a9a88457"
          ],
          "data": "0x0000000000000000000000000000000000000000000000000000000000000000",
          "blockHash": "0x07fa64e5d140d5a76a5e09a87b82dd931e934609907b798416a4c53c50a126d7",
          "blockNumber": "0x128263f",
          "transactionHash": "0xd67ae7a602fd8d99acc6887ca9ad2a0fd221bd80a9f5dc9ad98c1f91301ae792",
          "transactionIndex": "0x2",
          "logIndex": "0x0",
          "removed": false
        }
      ],
      "logsBloom": "0x00000000000000000004000000000200000000000000000000000000000000000000000000000040000000000000080000000000000000000000000000000002000000000080000000000000000000000000000000000000100000000000000000000000000000000000000000000000000000000000000000400000000000000000000000000000000000000000000000000000000000000000000000040000400000000000000000000000000000000000000000000000000000000000000000000000000000000000000000000000000000010000000000000200000000000000000000000000000000000000000000000000000000000000000000000000",
      "type": "0x2",
      "transactionHash": "0xd67ae7a602fd8d99acc6887ca9ad2a0fd221bd80a9f5dc9ad98c1f91301ae792",
      "transactionIndex": "0x2",
      "blockHash": "0x07fa64e5d140d5a76a5e09a87b82dd931e934609907b798416a4c53c50a126d7",
      "blockNumber": "0x128263f",
      "gasUsed": "0x6976",
      "effectiveGasPrice": "0x3681bc2",
      "from": "0xb819a871d20913839c37f316dc914b0570bfc0ee",
      "to": "0x1211d07f0ebea8994f23ec26e1e512929fc8ab08",
      "contractAddress": null
    },
    {
      "status": "0x1",
      "cumulativeGasUsed": "0x1a75c",
      "logs": [
        {
          "address": "0x1211d07f0ebea8994f23ec26e1e512929fc8ab08",
          "topics": [
            "0xbf768a8bd7016d5df999ce7e5dcbd90856578a89eb68c5a1d5fc1d4a3360107e",
            "0x000000000000000000000000b819a871d20913839c37f316dc914b0570bfc0ee",
            "0xeefbfa32ce9dd99a431be27221a8732bc1e7b3d032ff4cbd56226b17783f7413"
          ],
          "data": "0x0000000000000000000000000000000000000000000000000000000000000000",
          "blockHash": "0x23e3656cdc617e8916a868fe0814831ace7c101ebb3426412589e3cdfc85dfd0",
          "blockNumber": "0x1282642",
          "transactionHash": "0xc5bcc3fc26e91aa44ca5867ce9b553185b7595afe34681f8d05abacd9b449850",
          "transactionIndex": "0x2",
          "logIndex": "0x1",
          "removed": false
        }
      ],
      "logsBloom": "0x00000000000000000004000000000200000000000000000000000000000000000000000000000040000000000000080000000000000000000000000000000002000000000080000000000100000000000000000000000000000000000000000000000000000000000000000000000000000000000000000000400000000000800000000000000000000000000000000000000000000000000000000000000000000000000000000000000000000000000000000000000000000000000000000000000000000000000000000000000000000000010000000000000200000000000000000000000000000000000000000000000000000400000000000000000000",
      "type": "0x2",
      "transactionHash": "0xc5bcc3fc26e91aa44ca5867ce9b553185b7595afe34681f8d05abacd9b449850",
      "transactionIndex": "0x2",
      "blockHash": "0x23e3656cdc617e8916a868fe0814831ace7c101ebb3426412589e3cdfc85dfd0",
      "blockNumber": "0x1282642",
      "gasUsed": "0x6976",
      "effectiveGasPrice": "0x3681bc2",
      "from": "0xb819a871d20913839c37f316dc914b0570bfc0ee",
      "to": "0x1211d07f0ebea8994f23ec26e1e512929fc8ab08",
      "contractAddress": null
    },
    {
      "status": "0x1",
      "cumulativeGasUsed": "0x6976",
      "logs": [
        {
          "address": "0x1211d07f0ebea8994f23ec26e1e512929fc8ab08",
          "topics": [
            "0xbf768a8bd7016d5df999ce7e5dcbd90856578a89eb68c5a1d5fc1d4a3360107e",
            "0x000000000000000000000000b819a871d20913839c37f316dc914b0570bfc0ee",
            "0xaa85d4d7655b58b3177edbbb41bc17f2e2ebffd26ace9d6b56244a5ee16c7806"
          ],
          "data": "0x0000000000000000000000000000000000000000000000000000000000000000",
          "blockHash": "0xb8950ff52533d3d9cb782f6c33f75be144aba2c0f0922655d5f21b8557fb1b79",
          "blockNumber": "0x1282645",
          "transactionHash": "0x6889bd97d26af85d44c1a748472d238108d8a40eddd1c64cff51489f097931e1",
          "transactionIndex": "0x0",
          "logIndex": "0x0",
          "removed": false
        }
      ],
      "logsBloom": "0x00000000000000000006000000000200000000000000000000000000000000000000000000000040000000000000080000000000000000000000000000000002000000000080000000000000000000000000000000000000000000000000000000000000000000000000000000000000000000000000000000400000000000000000000000000000000000000000000000000000000000000000000000000000000000000000000000000000000000000000000000000000000000000000000000000000000000000000000000200000000000010000000000000200000000000000000000000000000000000000000000008000000000000000000000000000",
      "type": "0x2",
      "transactionHash": "0x6889bd97d26af85d44c1a748472d238108d8a40eddd1c64cff51489f097931e1",
      "transactionIndex": "0x0",
      "blockHash": "0xb8950ff52533d3d9cb782f6c33f75be144aba2c0f0922655d5f21b8557fb1b79",
      "blockNumber": "0x1282645",
      "gasUsed": "0x6976",
      "effectiveGasPrice": "0x3681bc2",
      "from": "0xb819a871d20913839c37f316dc914b0570bfc0ee",
      "to": "0x1211d07f0ebea8994f23ec26e1e512929fc8ab08",
      "contractAddress": null
    },
    {
      "status": "0x1",
      "cumulativeGasUsed": "0x442fd",
      "logs": [
        {
          "address": "0x269c36a173d881720544fb303e681370158ff1fd",
          "topics": [
            "0xca4f2f25d0898edd99413412fb94012f9e54ec8142f9b093e7720646a95b16a9",
            "0x0000000000000000000000000000000000000000000000000000000000000000",
            "0x00000000000000000000000091b945cbb063648c44271868a7a0c7bdff64827d"
          ],
          "data": "0x",
          "blockHash": "0x1cbeadf9674b21c8b224b03a4444fe500a6a56bb3754e564db86b8083217b49c",
          "blockNumber": "0x1282648",
          "transactionHash": "0xff65aa57c227e05ed0685cc3c3a789ae9dbee8c0a726febc1ff607e5cad2c726",
          "transactionIndex": "0x2",
          "logIndex": "0x5",
          "removed": false
        }
      ],
      "logsBloom": "0x00000000000000000000000000000000000000000000000000000020000000000000000000000008000000000000000000000010000000000000000000000000000000000000000000000000000000000000100000000000000000000000000000000000020000000000000000000800000000000000000000000000000400000000000000000000000000004000000000000000000000000000000000000000000000000000000000100000000000000000000000000000000002000000000000000000000040000000000000000000000000000000000000000000000020000000000000000000000000000000000000000000000000000000000000000000",
      "type": "0x2",
      "transactionHash": "0xff65aa57c227e05ed0685cc3c3a789ae9dbee8c0a726febc1ff607e5cad2c726",
      "transactionIndex": "0x2",
      "blockHash": "0x1cbeadf9674b21c8b224b03a4444fe500a6a56bb3754e564db86b8083217b49c",
      "blockNumber": "0x1282648",
      "gasUsed": "0xce0c",
      "effectiveGasPrice": "0x3681bc2",
      "from": "0xb819a871d20913839c37f316dc914b0570bfc0ee",
      "to": "0x269c36a173d881720544fb303e681370158ff1fd",
      "contractAddress": null
    },
    {
      "status": "0x1",
      "cumulativeGasUsed": "0x57123",
      "logs": [
        {
          "address": "0xc7bc6bd45eb84d594f51ced3c5497e6812c7732f",
          "topics": [
            "0xca4f2f25d0898edd99413412fb94012f9e54ec8142f9b093e7720646a95b16a9",
            "0x0000000000000000000000000000000000000000000000000000000000000000",
            "0x00000000000000000000000091b945cbb063648c44271868a7a0c7bdff64827d"
          ],
          "data": "0x",
          "blockHash": "0x5730e1546edc675a7cbb342b900ad4958f9f226c4e8c108c1d066276c2673424",
          "blockNumber": "0x128264a",
          "transactionHash": "0x6aaeed725f558c672b38ffe8b5dfa5ba7599cbf398f85d9fb4d4d51d3eead9cf",
          "transactionIndex": "0x2",
          "logIndex": "0x4",
          "removed": false
        }
      ],
      "logsBloom": "0x00000000000000000000000000000000000000000000000000000020000000000000000000000000000000000000000000000000000000000000000000000000008000000000000000000000000080000000100000000000000000000000000000000000020000000000000040000800000000000000000000000000000400000000000000000000000000004000000000000000000000000000000000000000000000000000000000000000000000000000000000000000000002000000000000000000000040000000000000000000000000000000000000000000000020000000000000000000000000000000000000000000000000000000000000000000",
      "type": "0x2",
      "transactionHash": "0x6aaeed725f558c672b38ffe8b5dfa5ba7599cbf398f85d9fb4d4d51d3eead9cf",
      "transactionIndex": "0x2",
      "blockHash": "0x5730e1546edc675a7cbb342b900ad4958f9f226c4e8c108c1d066276c2673424",
      "blockNumber": "0x128264a",
      "gasUsed": "0xce0c",
      "effectiveGasPrice": "0x3681bc2",
      "from": "0xb819a871d20913839c37f316dc914b0570bfc0ee",
      "to": "0xc7bc6bd45eb84d594f51ced3c5497e6812c7732f",
      "contractAddress": null
    },
    {
      "status": "0x1",
      "cumulativeGasUsed": "0x4d7556",
      "logs": [
        {
          "address": "0xdf0635c1ecfdf08146150691a97e2ff6a8aa1a90",
          "topics": [
            "0xca4f2f25d0898edd99413412fb94012f9e54ec8142f9b093e7720646a95b16a9",
            "0x0000000000000000000000000000000000000000000000000000000000000000",
            "0x00000000000000000000000091b945cbb063648c44271868a7a0c7bdff64827d"
          ],
          "data": "0x",
          "blockHash": "0x79136f44be1d7cdcfb39f591cad9f96735d187ead40e9854cc543480f7f073b9",
          "blockNumber": "0x128264c",
          "transactionHash": "0x1bf02744b4b2269c85ee8fdc656ab286e7cd6a12f80b03a3c34a2c0cd7ea4cf3",
          "transactionIndex": "0x2",
          "logIndex": "0x34",
          "removed": false
        }
      ],
      "logsBloom": "0x00000000000001000000000000000000000000000000000000000020000000000000000000000000000000000000002000000000000000000000400000000000000000000000000000000000000000000000100000000000000000000000000000000000020000000000000000000800000000000000000000000000000400000000000000000000000000004000000000000000000000000000000000000000000000000000000000000000000000000000000000000000000002000000000000000000000040000000000000000000000000000000000000000000000020000000000000000000000000000000000000000000000000000000000000000000",
      "type": "0x2",
      "transactionHash": "0x1bf02744b4b2269c85ee8fdc656ab286e7cd6a12f80b03a3c34a2c0cd7ea4cf3",
      "transactionIndex": "0x2",
      "blockHash": "0x79136f44be1d7cdcfb39f591cad9f96735d187ead40e9854cc543480f7f073b9",
      "blockNumber": "0x128264c",
      "gasUsed": "0xce0c",
      "effectiveGasPrice": "0x3681bc2",
      "from": "0xb819a871d20913839c37f316dc914b0570bfc0ee",
      "to": "0xdf0635c1ecfdf08146150691a97e2ff6a8aa1a90",
      "contractAddress": null
    },
    {
      "status": "0x1",
      "cumulativeGasUsed": "0x3406c",
      "logs": [
        {
          "address": "0x2b588f7f4832561e46924f3ea54c244569724915",
          "topics": [
            "0xca4f2f25d0898edd99413412fb94012f9e54ec8142f9b093e7720646a95b16a9",
            "0x0000000000000000000000000000000000000000000000000000000000000000",
            "0x00000000000000000000000091b945cbb063648c44271868a7a0c7bdff64827d"
          ],
          "data": "0x",
          "blockHash": "0xe0f090657a9801f21314d3abb1fe841e9f257d196450e7cbe4680588fbbaf878",
          "blockNumber": "0x128264e",
          "transactionHash": "0x4fe63ce1fd5d6a34417d999dea3d8b857959952e693ddb76d49bd637619e9935",
          "transactionIndex": "0x3",
          "logIndex": "0x2",
          "removed": false
        }
      ],
      "logsBloom": "0x00000000000000000000000000000000000000000000000000000020000000000000000000000000000000000000000000000000000000000000000000020000000000200000000000000000000000000000100000000000000000000000000000000000020000000000000000000800000000000000000000000000000400000000000000000000000000004000000000000000000000000000000000000000000000000000000000000000000000000000000000000000000002000000000000000000000040000000000000000000000000000000000000000000000020000000000000000000000000000000000000000000000000000000000000020000",
      "type": "0x2",
      "transactionHash": "0x4fe63ce1fd5d6a34417d999dea3d8b857959952e693ddb76d49bd637619e9935",
      "transactionIndex": "0x3",
      "blockHash": "0xe0f090657a9801f21314d3abb1fe841e9f257d196450e7cbe4680588fbbaf878",
      "blockNumber": "0x128264e",
      "gasUsed": "0xce0c",
      "effectiveGasPrice": "0x3681bc2",
      "from": "0xb819a871d20913839c37f316dc914b0570bfc0ee",
      "to": "0x2b588f7f4832561e46924f3ea54c244569724915",
      "contractAddress": null
    },
    {
      "status": "0x1",
      "cumulativeGasUsed": "0x4000c",
      "logs": [
        {
          "address": "0x1d8e8cefeb085f3211ab6a443ad9051b54d1cd1a",
          "topics": [
            "0xca4f2f25d0898edd99413412fb94012f9e54ec8142f9b093e7720646a95b16a9",
            "0x0000000000000000000000000000000000000000000000000000000000000000",
            "0x00000000000000000000000091b945cbb063648c44271868a7a0c7bdff64827d"
          ],
          "data": "0x",
          "blockHash": "0xc37b4e9c71c6b37c438a85c54c184240440376b13c43d1e395cff3f0b08df835",
          "blockNumber": "0x1282650",
          "transactionHash": "0x880fd5b41eac52e98356255185b3300a5029308eca763a4fe287ac5d14fdd8ef",
          "transactionIndex": "0x2",
          "logIndex": "0xa",
          "removed": false
        }
      ],
      "logsBloom": "0x00000000000000000000000002000000000000000800000000000020000000000000000000000000000000000000000000000000000000000000000000000000000000000000000000000000000000000000100000000000000000000000000000000000020000000000000000000800000000000000000000000000000400000000000000000000000000004000000000000000000000000000000000000000000000000000000000000000000000000000000000000000000002000000000000000000000040000000000000000000000000000000000000000000000020000000000000000000000000000000000000000000000000000000000000800000",
      "type": "0x2",
      "transactionHash": "0x880fd5b41eac52e98356255185b3300a5029308eca763a4fe287ac5d14fdd8ef",
      "transactionIndex": "0x2",
      "blockHash": "0xc37b4e9c71c6b37c438a85c54c184240440376b13c43d1e395cff3f0b08df835",
      "blockNumber": "0x1282650",
      "gasUsed": "0xce0c",
      "effectiveGasPrice": "0x3681bc2",
      "from": "0xb819a871d20913839c37f316dc914b0570bfc0ee",
      "to": "0x1d8e8cefeb085f3211ab6a443ad9051b54d1cd1a",
      "contractAddress": null
    },
    {
      "status": "0x1",
      "cumulativeGasUsed": "0xd9b73",
      "logs": [
        {
          "address": "0x0b3c6645f4f2442ad4bbee2e2273a250461ca6f8",
          "topics": [
            "0xca4f2f25d0898edd99413412fb94012f9e54ec8142f9b093e7720646a95b16a9",
            "0x0000000000000000000000000000000000000000000000000000000000000000",
            "0x00000000000000000000000091b945cbb063648c44271868a7a0c7bdff64827d"
          ],
          "data": "0x",
          "blockHash": "0x61ec122d95927eb526f72bfdf8f89b00811e0d38865d0c3919757024bfc7229c",
          "blockNumber": "0x1282652",
          "transactionHash": "0xcfdd7bf2d6ce03d7aa6e6930bab2427b1ad680a9f3f3b0da4b6d40fbc81d1cf8",
          "transactionIndex": "0x4",
          "logIndex": "0x10",
          "removed": false
        }
      ],
      "logsBloom": "0x00000000000000000000000000000000000000000000000000000020000000000000000000000000000001000000000000000000000000000020000000000000000000000000000000000000000000000000100000000000000000000000000000000000020000000000000000000800000000000000000000000000000400000000000000000000000000004000000000000000000000000000000000000000000000000000000000000000000000000000000000000000000002000000000000000000000040000000000000000000000000000000000000000000000020000000000000000000000000000000000000000000200000000000000000000000",
      "type": "0x2",
      "transactionHash": "0xcfdd7bf2d6ce03d7aa6e6930bab2427b1ad680a9f3f3b0da4b6d40fbc81d1cf8",
      "transactionIndex": "0x4",
      "blockHash": "0x61ec122d95927eb526f72bfdf8f89b00811e0d38865d0c3919757024bfc7229c",
      "blockNumber": "0x1282652",
      "gasUsed": "0xce0c",
      "effectiveGasPrice": "0x3681bc2",
      "from": "0xb819a871d20913839c37f316dc914b0570bfc0ee",
      "to": "0x0b3c6645f4f2442ad4bbee2e2273a250461ca6f8",
      "contractAddress": null
    },
    {
      "status": "0x1",
      "cumulativeGasUsed": "0x17698",
      "logs": [
        {
          "address": "0x8bad0c523516262a439197736fff982f5e0987cc",
          "topics": [
            "0xca4f2f25d0898edd99413412fb94012f9e54ec8142f9b093e7720646a95b16a9",
            "0x0000000000000000000000000000000000000000000000000000000000000000",
            "0x00000000000000000000000091b945cbb063648c44271868a7a0c7bdff64827d"
          ],
          "data": "0x",
          "blockHash": "0x064803ef267e7f2cb6102390b6bca34113bdadb13e594c49fa88635dda7884d6",
          "blockNumber": "0x1282655",
          "transactionHash": "0x6869dbd294e08b047d221c5fbbf12664f22722cea15c23b4378c8543098df9e5",
          "transactionIndex": "0x1",
          "logIndex": "0x1",
          "removed": false
        }
      ],
      "logsBloom": "0x00000000000000000000000000000000000000000000000000000020000000000000000000000000000000000000000000000000000000000000000000000000000000000008000000000000000000000000100000000000000000000000000000000000020000000000000000000800000000000000000000000020000400000000000000000000000000004000000000000000000000000000000000000000000000000000000000000000000000000000000000000000000002000000000000000000000040000000000000000000010000000000000000000000000020000000000000000000000000000000000000000000000000000000000000000000",
      "type": "0x2",
      "transactionHash": "0x6869dbd294e08b047d221c5fbbf12664f22722cea15c23b4378c8543098df9e5",
      "transactionIndex": "0x1",
      "blockHash": "0x064803ef267e7f2cb6102390b6bca34113bdadb13e594c49fa88635dda7884d6",
      "blockNumber": "0x1282655",
      "gasUsed": "0xce0c",
      "effectiveGasPrice": "0x3681bc2",
      "from": "0xb819a871d20913839c37f316dc914b0570bfc0ee",
      "to": "0x8bad0c523516262a439197736fff982f5e0987cc",
      "contractAddress": null
    },
    {
      "status": "0x1",
      "cumulativeGasUsed": "0x1ee44",
      "logs": [
        {
          "address": "0x4df3dd62db219c47f6a7cb1be02c511afceadf5e",
          "topics": [
            "0xca4f2f25d0898edd99413412fb94012f9e54ec8142f9b093e7720646a95b16a9",
            "0x0000000000000000000000000000000000000000000000000000000000000000",
            "0x00000000000000000000000091b945cbb063648c44271868a7a0c7bdff64827d"
          ],
          "data": "0x",
          "blockHash": "0x6bc209289b2e5e379e4ad5127809ebfef8aec4b90f9b728bb468eb5ffbdad6d4",
          "blockNumber": "0x1282658",
          "transactionHash": "0x29338808c72bffa1b3a760ffb1df78e60d27b99c2fc7ce77a75180899410e9b6",
          "transactionIndex": "0x3",
          "logIndex": "0x1",
          "removed": false
        }
      ],
      "logsBloom": "0x00000000000000000000000000000000000000000000000000000020000000000000000000000000000000000000000000000000000000000000000000000000000000000000000000000000000000000000100000000000000000000000000000000000020000000000000000000804000000000000000000000000000400000000000000000000000000004000000000000000000000000000000000000000000000000000000000000000010000000000000000000000000002000000000000000000000040000000000000000000000000000000000000000000000020000000000000000000000000000000000000000000000000000000002000000000",
      "type": "0x2",
      "transactionHash": "0x29338808c72bffa1b3a760ffb1df78e60d27b99c2fc7ce77a75180899410e9b6",
      "transactionIndex": "0x3",
      "blockHash": "0x6bc209289b2e5e379e4ad5127809ebfef8aec4b90f9b728bb468eb5ffbdad6d4",
      "blockNumber": "0x1282658",
      "gasUsed": "0xce0c",
      "effectiveGasPrice": "0x3681bc2",
      "from": "0xb819a871d20913839c37f316dc914b0570bfc0ee",
      "to": "0x4df3dd62db219c47f6a7cb1be02c511afceadf5e",
      "contractAddress": null
    },
    {
      "status": "0x1",
      "cumulativeGasUsed": "0x238ef",
      "logs": [
        {
          "address": "0xe32fc580e6e3f6f5947bc2d900062dce019f375f",
          "topics": [
            "0x8be0079c531659141344cd1fd0a4f28419497f9722a3daafe3b4186f6b6457e0",
            "0x000000000000000000000000b819a871d20913839c37f316dc914b0570bfc0ee",
            "0x00000000000000000000000091b945cbb063648c44271868a7a0c7bdff64827d"
          ],
          "data": "0x",
          "blockHash": "0x74e63000c7c579049531513568fd88d7d162d68486e8957f81dc940193d531ef",
          "blockNumber": "0x128265a",
          "transactionHash": "0x11082c7eac7a0851612b2952c13114954e4e9024951566c00d6bb3e4b3ecf612",
          "transactionIndex": "0x1",
          "logIndex": "0x2",
          "removed": false
        }
      ],
      "logsBloom": "0x00000000000000000000000000000000000000000000000000800000000000000000000000000000000000000000000000000000000000000000000000000002000000000080200000000000000000000001100000000000000000000000000000000000000000000000000000000000000000000000000000000000000400400000000000000000000000004000000000000000000000000000000000000000000000000000000000000000000000000000000000000000000000000000000000000000000000000000000000000000000000000000000000000200000000000000000000000000000000000000000000001000000000000000080000000000",
      "type": "0x2",
      "transactionHash": "0x11082c7eac7a0851612b2952c13114954e4e9024951566c00d6bb3e4b3ecf612",
      "transactionIndex": "0x1",
      "blockHash": "0x74e63000c7c579049531513568fd88d7d162d68486e8957f81dc940193d531ef",
      "blockNumber": "0x128265a",
      "gasUsed": "0x6fb4",
      "effectiveGasPrice": "0x3681bc2",
      "from": "0xb819a871d20913839c37f316dc914b0570bfc0ee",
      "to": "0xe32fc580e6e3f6f5947bc2d900062dce019f375f",
      "contractAddress": null
    },
    {
      "status": "0x1",
      "cumulativeGasUsed": "0x30dad",
      "logs": [
        {
          "address": "0xddcca3eda77622b7ff5b7f11b340a8f818a87d2c",
          "topics": [
            "0x8be0079c531659141344cd1fd0a4f28419497f9722a3daafe3b4186f6b6457e0",
            "0x000000000000000000000000b819a871d20913839c37f316dc914b0570bfc0ee",
            "0x00000000000000000000000091b945cbb063648c44271868a7a0c7bdff64827d"
          ],
          "data": "0x",
          "blockHash": "0x42b1fce65d1ef60dd0f93fcb172b1e98702e27bdb6b7d40fd85f993c2782d2a4",
          "blockNumber": "0x128265c",
          "transactionHash": "0x6acf45bacb8d4c574199d184451fc980239fb86d1bbad8389b6e2ce770ae3759",
          "transactionIndex": "0x2",
          "logIndex": "0x3",
          "removed": false
        }
      ],
      "logsBloom": "0x00000000000000000000000000000000000000000000000100800000000000000000000000000000000000000000000000000000000000000000000000000002000000000080000000000000000000000001100000000000000000000000000000000000000000000000000000000000000000000000000000000000000400400000000010000000000000004000000000000000000000000000000000000000000000000000000000000000000000000000000000000000000000000001000000000000000000000000000000000000000000000000000000000200000000000000000000000000000000000000000000000000000000000000000000000000",
      "type": "0x2",
      "transactionHash": "0x6acf45bacb8d4c574199d184451fc980239fb86d1bbad8389b6e2ce770ae3759",
      "transactionIndex": "0x2",
      "blockHash": "0x42b1fce65d1ef60dd0f93fcb172b1e98702e27bdb6b7d40fd85f993c2782d2a4",
      "blockNumber": "0x128265c",
      "gasUsed": "0x6fed",
      "effectiveGasPrice": "0x3681bc2",
      "from": "0xb819a871d20913839c37f316dc914b0570bfc0ee",
      "to": "0xddcca3eda77622b7ff5b7f11b340a8f818a87d2c",
      "contractAddress": null
    },
    {
      "status": "0x1",
      "cumulativeGasUsed": "0xbd0fd",
      "logs": [
        {
          "address": "0x1211d07f0ebea8994f23ec26e1e512929fc8ab08",
          "topics": [
            "0x8be0079c531659141344cd1fd0a4f28419497f9722a3daafe3b4186f6b6457e0",
            "0x000000000000000000000000b819a871d20913839c37f316dc914b0570bfc0ee",
            "0x00000000000000000000000091b945cbb063648c44271868a7a0c7bdff64827d"
          ],
          "data": "0x",
          "blockHash": "0xbf3165a53c4c615741f302a24351d3d158a4fbd9d3c690dbbf251aed90034b32",
          "blockNumber": "0x128265e",
          "transactionHash": "0x11db721c3eaf8aae34876bf589ee812c1b34928672dce48739ac843ac631dab9",
          "transactionIndex": "0x2",
          "logIndex": "0x17",
          "removed": false
        }
      ],
      "logsBloom": "0x00000000000000000000000000000000000000000000000000800000000000000000000000000040000000000000080000000000000000000000000000000002000000000080000000000000000000000001100000000000000000000000000000000000000000000000000000000000000000000000000000400000000400400000000000000000000000004000000000000000000000000000000000000000000000000000000000000000000000000000000000000000000000000000000000000000000000000000000000000000000000000000000000000200000000000000000000000000000000000000000000000000000000000000000000000000",
      "type": "0x2",
      "transactionHash": "0x11db721c3eaf8aae34876bf589ee812c1b34928672dce48739ac843ac631dab9",
      "transactionIndex": "0x2",
      "blockHash": "0xbf3165a53c4c615741f302a24351d3d158a4fbd9d3c690dbbf251aed90034b32",
      "blockNumber": "0x128265e",
      "gasUsed": "0x7003",
      "effectiveGasPrice": "0x3681bc2",
      "from": "0xb819a871d20913839c37f316dc914b0570bfc0ee",
      "to": "0x1211d07f0ebea8994f23ec26e1e512929fc8ab08",
      "contractAddress": null
    },
    {
      "status": "0x1",
      "cumulativeGasUsed": "0x238f9",
      "logs": [
        {
          "address": "0x04f0cdc5a215dedf6a1ed5444e07367e20768041",
          "topics": [
            "0x8be0079c531659141344cd1fd0a4f28419497f9722a3daafe3b4186f6b6457e0",
            "0x000000000000000000000000b819a871d20913839c37f316dc914b0570bfc0ee",
            "0x00000000000000000000000091b945cbb063648c44271868a7a0c7bdff64827d"
          ],
          "data": "0x",
          "blockHash": "0xa2f074b3fd4c472d5d71f13655b50c7316c6c0b194486035263dad564775cff6",
          "blockNumber": "0x1282661",
          "transactionHash": "0x17db3745562ddeaecffc9be1fd6f3315855d7c4f7445801ae8226c3238e70f88",
          "transactionIndex": "0x5",
          "logIndex": "0x0",
          "removed": false
        }
      ],
      "logsBloom": "0x00000000000000000000000000000000000000000000000000800000000000000000000000000000000000000000000000000000000000000000000000000002000000000080000000000000000000100001100000000001000000000000000000000000000000000000000000000000000000000000000000000000000400400000000000000000000000004000000000000000000000000000000400000000000000000000000000000000000000000000000000000000000000000000000000000000000000000000000000000000000000000000000000000200000000000000000000000000000000000000000000000000000000000000000000000000",
      "type": "0x2",
      "transactionHash": "0x17db3745562ddeaecffc9be1fd6f3315855d7c4f7445801ae8226c3238e70f88",
      "transactionIndex": "0x5",
      "blockHash": "0xa2f074b3fd4c472d5d71f13655b50c7316c6c0b194486035263dad564775cff6",
      "blockNumber": "0x1282661",
      "gasUsed": "0x6fb4",
      "effectiveGasPrice": "0x3681bc2",
      "from": "0xb819a871d20913839c37f316dc914b0570bfc0ee",
      "to": "0x04f0cdc5a215dedf6a1ed5444e07367e20768041",
      "contractAddress": null
    },
    {
      "status": "0x1",
      "cumulativeGasUsed": "0x8367",
      "logs": [
        {
          "address": "0x05bd298c0c3f34b541b42f867baf6707911be437",
          "topics": [
            "0x8be0079c531659141344cd1fd0a4f28419497f9722a3daafe3b4186f6b6457e0",
            "0x000000000000000000000000b819a871d20913839c37f316dc914b0570bfc0ee",
            "0x00000000000000000000000091b945cbb063648c44271868a7a0c7bdff64827d"
          ],
          "data": "0x",
          "blockHash": "0x019100a2b7d235bcfdf6e32b97aead05732cc87496dcb58686cc64faf02b2b95",
          "blockNumber": "0x1282664",
          "transactionHash": "0x42f4cb1695fd202759694bf4255f450b2eff37b5ede1caf34032408d3d7be31a",
          "transactionIndex": "0x0",
          "logIndex": "0x0",
          "removed": false
        }
      ],
      "logsBloom": "0x00000000000000000000000000000000000000000000000000800000000000000000000000000000000000000000000000000000000000000000000000000002000000000080000000000000000000000001100000000000000000000000000000000000000000000000000000000000000000000000000000000000000400400000000000000000000000004000000000000000000000000000000000000000000000001000000000000000000000000000000000000000000000000000000000000000000000000000000000000000000000000000000000010200000000000000000000000000000000000000000000000000000002000000000000000000",
      "type": "0x2",
      "transactionHash": "0x42f4cb1695fd202759694bf4255f450b2eff37b5ede1caf34032408d3d7be31a",
      "transactionIndex": "0x0",
      "blockHash": "0x019100a2b7d235bcfdf6e32b97aead05732cc87496dcb58686cc64faf02b2b95",
      "blockNumber": "0x1282664",
      "gasUsed": "0x8367",
      "effectiveGasPrice": "0x3681bc2",
      "from": "0xb819a871d20913839c37f316dc914b0570bfc0ee",
      "to": "0x05bd298c0c3f34b541b42f867baf6707911be437",
      "contractAddress": null
    },
    {
      "status": "0x1",
      "cumulativeGasUsed": "0x7a943",
      "logs": [
        {
          "address": "0xe4165fa4231c0c41f71b93db464e1f31937e3302",
          "topics": [
            "0x8be0079c531659141344cd1fd0a4f28419497f9722a3daafe3b4186f6b6457e0",
            "0x000000000000000000000000b819a871d20913839c37f316dc914b0570bfc0ee",
            "0x00000000000000000000000091b945cbb063648c44271868a7a0c7bdff64827d"
          ],
          "data": "0x",
          "blockHash": "0x0654aead02dda8a1d3239e6f9cfc4ebfe4e68cc7452e55a9484d872c34befc1a",
          "blockNumber": "0x1282666",
          "transactionHash": "0x1c91c3b97963fdfd92def12c0b120f54f67724b66a67a34457c0f397d999fbf7",
          "transactionIndex": "0x5",
          "logIndex": "0x9",
          "removed": false
        }
      ],
      "logsBloom": "0x00000000000000000000000000000000000000000000000000800000000000000000000000000000000000000000000000000000000000000000000000000002000000000080000000000000000000000001100000000000000000000000000000000000000000000000000000000000000000000000000000000000020400400000000000000000000000004000000000000100000000000000000000000000000080000000000000000000000000000000000000000000000000000000000000000000000000000000000000000000000000000000000000000200000000000000000000000000000000000000000000000000000000000000000000000000",
      "type": "0x2",
      "transactionHash": "0x1c91c3b97963fdfd92def12c0b120f54f67724b66a67a34457c0f397d999fbf7",
      "transactionIndex": "0x5",
      "blockHash": "0x0654aead02dda8a1d3239e6f9cfc4ebfe4e68cc7452e55a9484d872c34befc1a",
      "blockNumber": "0x1282666",
      "gasUsed": "0x6fb4",
      "effectiveGasPrice": "0x3681bc2",
      "from": "0xb819a871d20913839c37f316dc914b0570bfc0ee",
      "to": "0xe4165fa4231c0c41f71b93db464e1f31937e3302",
      "contractAddress": null
    },
    {
      "status": "0x1",
      "cumulativeGasUsed": "0xc1bc",
      "logs": [
        {
          "address": "0x56310b8f82f3709b41adf971ecc82f7e04e65eea",
          "topics": [
            "0x8be0079c531659141344cd1fd0a4f28419497f9722a3daafe3b4186f6b6457e0",
            "0x000000000000000000000000b819a871d20913839c37f316dc914b0570bfc0ee",
            "0x00000000000000000000000091b945cbb063648c44271868a7a0c7bdff64827d"
          ],
          "data": "0x",
          "blockHash": "0x597c0f22c3d4338fdd2aa4dfe79ef38ff3bc00f0cc5b9aaa4e474714d47fa9c1",
          "blockNumber": "0x1282668",
          "transactionHash": "0xe1a3e8f23df9c2c52daad45d0f76a64bce664af46986e7c64445dd69ea4eb452",
          "transactionIndex": "0x1",
          "logIndex": "0x0",
          "removed": false
        }
      ],
      "logsBloom": "0x00000000000000000000000000000000000000000000000000800000002000000000000000000000000000000000000000000000000000000000000000000002000000000080000000000000000000000001100000000000000000000000000800000000000000000000000000000000000000000000000000000000000400400000000000000000000000004000000000000000000000000000000000000000000000000000000000000000000000000000000000000000000000000000000000000000000000000000000000000000000000000000000000000200040000000000000000000000000000000000000000000000000000000000000000000000",
      "type": "0x2",
      "transactionHash": "0xe1a3e8f23df9c2c52daad45d0f76a64bce664af46986e7c64445dd69ea4eb452",
      "transactionIndex": "0x1",
      "blockHash": "0x597c0f22c3d4338fdd2aa4dfe79ef38ff3bc00f0cc5b9aaa4e474714d47fa9c1",
      "blockNumber": "0x1282668",
      "gasUsed": "0x6fb4",
      "effectiveGasPrice": "0x3681bc2",
      "from": "0xb819a871d20913839c37f316dc914b0570bfc0ee",
      "to": "0x56310b8f82f3709b41adf971ecc82f7e04e65eea",
      "contractAddress": null
    },
    {
      "status": "0x1",
      "cumulativeGasUsed": "0x1c891c",
      "logs": [
        {
          "address": "0x74eb5ebcb998a227eae8c2a5aaf594072da2100a",
          "topics": [
            "0x8be0079c531659141344cd1fd0a4f28419497f9722a3daafe3b4186f6b6457e0",
            "0x000000000000000000000000b819a871d20913839c37f316dc914b0570bfc0ee",
            "0x00000000000000000000000091b945cbb063648c44271868a7a0c7bdff64827d"
          ],
          "data": "0x",
          "blockHash": "0xec84feaebe81733c1311922329c61a21331d2348c8a70b0dbfcb45665a7eec6e",
          "blockNumber": "0x128266a",
          "transactionHash": "0xe4023174952c4fc6363c8a47d2981d9d6c27553db29eccbf53ae76f5b50b98e7",
          "transactionIndex": "0x6",
          "logIndex": "0x28",
          "removed": false
        }
      ],
      "logsBloom": "0x00000000000000000000000000000000000000000000000000800000000000000000000000000000000000000000000000000000000000000000400000000002000000000080000000000000000000000001100000000000000000000000000000000000000000000000000000000000000000000000000000000000000400400000000000000000000000004000000000000000000000000000000000000000000000000000000000000000000000000000000000000000000000000000000000000002000000000000000000000000000000000000000002000200000000000000000000000000000000000000000000000000000000000000000000000000",
      "type": "0x2",
      "transactionHash": "0xe4023174952c4fc6363c8a47d2981d9d6c27553db29eccbf53ae76f5b50b98e7",
      "transactionIndex": "0x6",
      "blockHash": "0xec84feaebe81733c1311922329c61a21331d2348c8a70b0dbfcb45665a7eec6e",
      "blockNumber": "0x128266a",
      "gasUsed": "0x6fb4",
      "effectiveGasPrice": "0x3681bc2",
      "from": "0xb819a871d20913839c37f316dc914b0570bfc0ee",
      "to": "0x74eb5ebcb998a227eae8c2a5aaf594072da2100a",
      "contractAddress": null
    },
    {
      "status": "0x1",
      "cumulativeGasUsed": "0x244c5",
      "logs": [
        {
          "address": "0x9b330aea1a68bde41fc81c1ba280098f09c969c3",
          "topics": [
            "0x8be0079c531659141344cd1fd0a4f28419497f9722a3daafe3b4186f6b6457e0",
            "0x000000000000000000000000b819a871d20913839c37f316dc914b0570bfc0ee",
            "0x00000000000000000000000091b945cbb063648c44271868a7a0c7bdff64827d"
          ],
          "data": "0x",
          "blockHash": "0xbb8e3402ab6825c0782247368dbabb6ab1f6dfe74bd8f9fa27a5fba103e515b4",
          "blockNumber": "0x128266d",
          "transactionHash": "0x2d0d481a76192db55a7f8d4a1f61733b87cc0bd50951b2625175277e3d08162f",
          "transactionIndex": "0x2",
          "logIndex": "0x0",
          "removed": false
        }
      ],
      "logsBloom": "0x00000000000000000800000000000000000000000000000000800000000000000000000000000000000000000000000000000000000000000000000000000002000000000080000000000000000000000001100000000000000000008000000000000000000000000000000000000000000000000000000000000000000400400000000000000000000000004000000000000000000000000000000000000000000000000000000000000000000008000000000000000000000000000000000000000000000000000000000000000000000000000000000000000200000000000000000000000000000000000000000000000000000000000000000000000000",
      "type": "0x2",
      "transactionHash": "0x2d0d481a76192db55a7f8d4a1f61733b87cc0bd50951b2625175277e3d08162f",
      "transactionIndex": "0x2",
      "blockHash": "0xbb8e3402ab6825c0782247368dbabb6ab1f6dfe74bd8f9fa27a5fba103e515b4",
      "blockNumber": "0x128266d",
      "gasUsed": "0x6fb4",
      "effectiveGasPrice": "0x3681bc2",
      "from": "0xb819a871d20913839c37f316dc914b0570bfc0ee",
      "to": "0x9b330aea1a68bde41fc81c1ba280098f09c969c3",
      "contractAddress": null
    },
    {
      "status": "0x1",
      "cumulativeGasUsed": "0xfba28",
      "logs": [
        {
          "address": "0xc552cd2c7a4fe618e63c42438b1108361a568009",
          "topics": [
            "0x8be0079c531659141344cd1fd0a4f28419497f9722a3daafe3b4186f6b6457e0",
            "0x000000000000000000000000b819a871d20913839c37f316dc914b0570bfc0ee",
            "0x00000000000000000000000091b945cbb063648c44271868a7a0c7bdff64827d"
          ],
          "data": "0x",
          "blockHash": "0xa83daa5f196748ac90720f6b0cd8e9c3396372b890652fc63c3ecc38b05caf08",
          "blockNumber": "0x1282670",
          "transactionHash": "0x11bae026cff5d5714bf29085dc47c7bd65e536418873e63bcd47a8ddd7fe76d4",
          "transactionIndex": "0x4",
          "logIndex": "0x4",
          "removed": false
        }
      ],
      "logsBloom": "0x00000000000000000000000000000000000000000000000000800000000000000000000000000020000000000000000008000000000000000000000000000002000000000080000000000000000000000001100000000000000000000000000000000000000000000000000000000000000000000000000000000000000400400000000000000000000000004000000000000000000000000000000000000000000000000000000000000000000000000000000000000010000000000000000000000000000000000000000000000000000000000000000000000200000000000000000000000000000000000000000000000000000000000000000000000000",
      "type": "0x2",
      "transactionHash": "0x11bae026cff5d5714bf29085dc47c7bd65e536418873e63bcd47a8ddd7fe76d4",
      "transactionIndex": "0x4",
      "blockHash": "0xa83daa5f196748ac90720f6b0cd8e9c3396372b890652fc63c3ecc38b05caf08",
      "blockNumber": "0x1282670",
      "gasUsed": "0x6fb4",
      "effectiveGasPrice": "0x3681bc2",
      "from": "0xb819a871d20913839c37f316dc914b0570bfc0ee",
      "to": "0xc552cd2c7a4fe618e63c42438b1108361a568009",
      "contractAddress": null
    },
    {
      "status": "0x1",
      "cumulativeGasUsed": "0xc009f",
      "logs": [
        {
          "address": "0x7574fa32896ece5b5127f6b44b087f4387344ef4",
          "topics": [
            "0x8be0079c531659141344cd1fd0a4f28419497f9722a3daafe3b4186f6b6457e0",
            "0x000000000000000000000000b819a871d20913839c37f316dc914b0570bfc0ee",
            "0x00000000000000000000000091b945cbb063648c44271868a7a0c7bdff64827d"
          ],
          "data": "0x",
          "blockHash": "0x19fcc9396638e80d976d0bd3de6add2c1270c711024eaedf7987de907a5b6fcb",
          "blockNumber": "0x1282673",
          "transactionHash": "0xd22a2895e1e3899638110a2efadbeeb93e11c0b5334a430c9db5fc4653b40fc9",
          "transactionIndex": "0x4",
          "logIndex": "0xc",
          "removed": false
        }
      ],
      "logsBloom": "0x00000000000000000000000000000000010000000000000000800000000000000000000000000000000000000000000000000000000000000000000000000002000000000080000000000000000000000001100000000000000000002000000040000000000000000000000000000000000000000000000000000000000400400000000000000000000000004000000000000000000000000000000000000000000000000000000000000000000000000000000000000000000000000000000000000000000000000000000000000000000000000000000000000200000000000000000000000000000000000000000000000000000000000000000000000000",
      "type": "0x2",
      "transactionHash": "0xd22a2895e1e3899638110a2efadbeeb93e11c0b5334a430c9db5fc4653b40fc9",
      "transactionIndex": "0x4",
      "blockHash": "0x19fcc9396638e80d976d0bd3de6add2c1270c711024eaedf7987de907a5b6fcb",
      "blockNumber": "0x1282673",
      "gasUsed": "0x6fb4",
      "effectiveGasPrice": "0x3681bc2",
      "from": "0xb819a871d20913839c37f316dc914b0570bfc0ee",
      "to": "0x7574fa32896ece5b5127f6b44b087f4387344ef4",
      "contractAddress": null
    },
    {
      "status": "0x1",
      "cumulativeGasUsed": "0x6fb4",
      "logs": [
        {
          "address": "0x1f0c88a6ff8dab04307fc9d6203542583db9f336",
          "topics": [
            "0x8be0079c531659141344cd1fd0a4f28419497f9722a3daafe3b4186f6b6457e0",
            "0x000000000000000000000000b819a871d20913839c37f316dc914b0570bfc0ee",
            "0x00000000000000000000000091b945cbb063648c44271868a7a0c7bdff64827d"
          ],
          "data": "0x",
          "blockHash": "0x5e38e1b95ba9c0315c30cd565b7939635efb7fa452bfc15164b00cec6e357b9a",
          "blockNumber": "0x1282676",
          "transactionHash": "0xb48091a587677870b389bc54eb40801d3b8c25060f49274bf3b575e98f01b770",
          "transactionIndex": "0x0",
          "logIndex": "0x0",
          "removed": false
        }
      ],
      "logsBloom": "0x00000000000000000000000000000000000000000000000000800000000000000000000000000000000000000000000000000000000000000000000000000002000000000080000000000000000000000001100000000000000000000000000000000000000000000000000000000000000000000000000000000004000400400000000000000000000000004000000000000000000000000000000000000000000000000000000000000000000000000000000000000000000000000000000000000000000000000000000000000000000000000000000400000200000000000000000000000000000000000000000000000000002000000000000000000000",
      "type": "0x2",
      "transactionHash": "0xb48091a587677870b389bc54eb40801d3b8c25060f49274bf3b575e98f01b770",
      "transactionIndex": "0x0",
      "blockHash": "0x5e38e1b95ba9c0315c30cd565b7939635efb7fa452bfc15164b00cec6e357b9a",
      "blockNumber": "0x1282676",
      "gasUsed": "0x6fb4",
      "effectiveGasPrice": "0x3681bc2",
      "from": "0xb819a871d20913839c37f316dc914b0570bfc0ee",
      "to": "0x1f0c88a6ff8dab04307fc9d6203542583db9f336",
      "contractAddress": null
    },
    {
      "status": "0x1",
      "cumulativeGasUsed": "0x6fb4",
      "logs": [
        {
          "address": "0xabee4794832eaeae25ee972d47c0ac540d8bbb2f",
          "topics": [
            "0x8be0079c531659141344cd1fd0a4f28419497f9722a3daafe3b4186f6b6457e0",
            "0x000000000000000000000000b819a871d20913839c37f316dc914b0570bfc0ee",
            "0x00000000000000000000000091b945cbb063648c44271868a7a0c7bdff64827d"
          ],
          "data": "0x",
          "blockHash": "0x0d5981c88cf28d9d62cf54d1f5c73422d3c031734412926ba87d74eb446c682e",
          "blockNumber": "0x1282679",
          "transactionHash": "0xb1c156ae2edb18f1eeb3e83277529d90b16e3ee565257e2a46de210829920ffb",
          "transactionIndex": "0x0",
          "logIndex": "0x0",
          "removed": false
        }
      ],
      "logsBloom": "0x00000000000000000000000000000000000000000000000000800000000000000000000000000000000000000000000000000000000000000000000000000002000000000080000000000000000000000001100000000000000000000000000000000000000000000000000000000000000000000000000000040000000400400000000000000000000000004000000000000000000000000000000000000000000000000000000000000000000000000000000000000000000000000000000000010000000000000000000000000000000000000000000000000200000000000000000000000000000000000000000000008000000000000000000000000000",
      "type": "0x2",
      "transactionHash": "0xb1c156ae2edb18f1eeb3e83277529d90b16e3ee565257e2a46de210829920ffb",
      "transactionIndex": "0x0",
      "blockHash": "0x0d5981c88cf28d9d62cf54d1f5c73422d3c031734412926ba87d74eb446c682e",
      "blockNumber": "0x1282679",
      "gasUsed": "0x6fb4",
      "effectiveGasPrice": "0x3681bc2",
      "from": "0xb819a871d20913839c37f316dc914b0570bfc0ee",
      "to": "0xabee4794832eaeae25ee972d47c0ac540d8bbb2f",
      "contractAddress": null
    }
  ],
  "libraries": [],
  "pending": [],
  "returns": {},
  "timestamp": 1748353072,
  "chain": 59144,
  "commit": "9b668a0"
}