{
  "transactions": [
    {
      "hash": "0x39971f327a0445eb96b8522cfc7369526fd6da06211fc8a6a85fa18cc9eb47fa",
      "transactionType": "CALL",
      "contractName": null,
      "contractAddress": "0x1211d07f0ebea8994f23ec26e1e512929fc8ab08",
      "function": "allowFor(address,bytes32,bool)",
      "arguments": [
        "0xF8B6314e66EA3e4b62e229fa5F5F052058618404",
        "0x4b1cf52f49d174a2779824195ac83ffb0173882d2de2b8017a7a2ad31efa9bac",
        "true"
      ],
      "transaction": {
        "from": "0xb819a871d20913839c37f316dc914b0570bfc0ee",
        "to": "0x1211d07f0ebea8994f23ec26e1e512929fc8ab08",
        "gas": "0x107e3",
        "value": "0x0",
        "input": "0xec3a4613000000000000000000000000f8b6314e66ea3e4b62e229fa5f5f0520586184044b1cf52f49d174a2779824195ac83ffb0173882d2de2b8017a7a2ad31efa9bac0000000000000000000000000000000000000000000000000000000000000001",
        "nonce": "0x19f",
        "chainId": "0x2105"
      },
      "additionalContracts": [],
      "isFixedGasLimit": false
    },
    {
      "hash": "0xeea62cc36608daf9ebcbbf546063895c493a7238c0688c491f05c61c18ea0807",
      "transactionType": "CALL",
      "contractName": null,
      "contractAddress": "0x1211d07f0ebea8994f23ec26e1e512929fc8ab08",
      "function": "allowFor(address,bytes32,bool)",
      "arguments": [
        "0x91B945CbB063648C44271868a7A0c7BdFf64827D",
        "0x4b1cf52f49d174a2779824195ac83ffb0173882d2de2b8017a7a2ad31efa9bac",
        "true"
      ],
      "transaction": {
        "from": "0xb819a871d20913839c37f316dc914b0570bfc0ee",
        "to": "0x1211d07f0ebea8994f23ec26e1e512929fc8ab08",
        "gas": "0x107e3",
        "value": "0x0",
        "input": "0xec3a461300000000000000000000000091b945cbb063648c44271868a7a0c7bdff64827d4b1cf52f49d174a2779824195ac83ffb0173882d2de2b8017a7a2ad31efa9bac0000000000000000000000000000000000000000000000000000000000000001",
        "nonce": "0x1a0",
        "chainId": "0x2105"
      },
      "additionalContracts": [],
      "isFixedGasLimit": false
    },
    {
      "hash": "0x047a149f4a119ecf2706771ee88f42651440002a7d5d8656ac78e48df6e9f047",
      "transactionType": "CALL",
      "contractName": null,
      "contractAddress": "0x1211d07f0ebea8994f23ec26e1e512929fc8ab08",
      "function": "allowFor(address,bytes32,bool)",
      "arguments": [
        "0x91B945CbB063648C44271868a7A0c7BdFf64827D",
        "0xaeffe8a027d13ff1f9fbecaa8f7fc0ff2c5c5d71561a1a572f6bafeeba68abfd",
        "true"
      ],
      "transaction": {
        "from": "0xb819a871d20913839c37f316dc914b0570bfc0ee",
        "to": "0x1211d07f0ebea8994f23ec26e1e512929fc8ab08",
        "gas": "0x107e3",
        "value": "0x0",
        "input": "0xec3a461300000000000000000000000091b945cbb063648c44271868a7a0c7bdff64827daeffe8a027d13ff1f9fbecaa8f7fc0ff2c5c5d71561a1a572f6bafeeba68abfd0000000000000000000000000000000000000000000000000000000000000001",
        "nonce": "0x1a1",
        "chainId": "0x2105"
      },
      "additionalContracts": [],
      "isFixedGasLimit": false
    },
    {
      "hash": "0x5681ecabe1b77e69b53e325862502a7313c591128ff955dd294ba95595d22a1c",
      "transactionType": "CALL",
      "contractName": null,
      "contractAddress": "0x1211d07f0ebea8994f23ec26e1e512929fc8ab08",
      "function": "allowFor(address,bytes32,bool)",
      "arguments": [
        "0x91B945CbB063648C44271868a7A0c7BdFf64827D",
        "0xc8e17e1f507bc6ac21ffd444ba9d6c9d6ea2defdac21571990ea0eb8bcde3a24",
        "true"
      ],
      "transaction": {
        "from": "0xb819a871d20913839c37f316dc914b0570bfc0ee",
        "to": "0x1211d07f0ebea8994f23ec26e1e512929fc8ab08",
        "gas": "0x107e3",
        "value": "0x0",
        "input": "0xec3a461300000000000000000000000091b945cbb063648c44271868a7a0c7bdff64827dc8e17e1f507bc6ac21ffd444ba9d6c9d6ea2defdac21571990ea0eb8bcde3a240000000000000000000000000000000000000000000000000000000000000001",
        "nonce": "0x1a2",
        "chainId": "0x2105"
      },
      "additionalContracts": [],
      "isFixedGasLimit": false
    },
    {
      "hash": "0x43e72b3d91b46de06ac41d727d12b8a08600dd2918ece8edf983712cbaa391f0",
      "transactionType": "CALL",
      "contractName": null,
      "contractAddress": "0x1211d07f0ebea8994f23ec26e1e512929fc8ab08",
      "function": "allowFor(address,bytes32,bool)",
      "arguments": [
        "0x91B945CbB063648C44271868a7A0c7BdFf64827D",
        "0xcf3889b3d647b5db8c87e0e05aca2acdd693a72c71726764f2198ee27a21c728",
        "true"
      ],
      "transaction": {
        "from": "0xb819a871d20913839c37f316dc914b0570bfc0ee",
        "to": "0x1211d07f0ebea8994f23ec26e1e512929fc8ab08",
        "gas": "0x107e3",
        "value": "0x0",
        "input": "0xec3a461300000000000000000000000091b945cbb063648c44271868a7a0c7bdff64827dcf3889b3d647b5db8c87e0e05aca2acdd693a72c71726764f2198ee27a21c7280000000000000000000000000000000000000000000000000000000000000001",
        "nonce": "0x1a3",
        "chainId": "0x2105"
      },
      "additionalContracts": [],
      "isFixedGasLimit": false
    },
    {
      "hash": "0x841ddc92bd0b640ba861913ac37b44ad3791842eeb667e58069a382ce43288f4",
      "transactionType": "CALL",
      "contractName": null,
      "contractAddress": "0x1211d07f0ebea8994f23ec26e1e512929fc8ab08",
      "function": "allowFor(address,bytes32,bool)",
      "arguments": [
        "0x91B945CbB063648C44271868a7A0c7BdFf64827D",
        "0x79bb2eff4b96ce24cc809a1642a7365c4980ebeb15be2580a619e03726e41a98",
        "true"
      ],
      "transaction": {
        "from": "0xb819a871d20913839c37f316dc914b0570bfc0ee",
        "to": "0x1211d07f0ebea8994f23ec26e1e512929fc8ab08",
        "gas": "0x107e3",
        "value": "0x0",
        "input": "0xec3a461300000000000000000000000091b945cbb063648c44271868a7a0c7bdff64827d79bb2eff4b96ce24cc809a1642a7365c4980ebeb15be2580a619e03726e41a980000000000000000000000000000000000000000000000000000000000000001",
        "nonce": "0x1a4",
        "chainId": "0x2105"
      },
      "additionalContracts": [],
      "isFixedGasLimit": false
    },
    {
      "hash": "0x117b6917aa4aaa5ab7491f00d4d3158eb7d6f5e7629210a03b7dc514c7b6f7fb",
      "transactionType": "CALL",
      "contractName": null,
      "contractAddress": "0x1211d07f0ebea8994f23ec26e1e512929fc8ab08",
      "function": "allowFor(address,bytes32,bool)",
      "arguments": [
        "0x91B945CbB063648C44271868a7A0c7BdFf64827D",
        "0x3e008573b76fa95febaab72c06ec152363f92f2b27dcaf00fbd0bb77a70593db",
        "true"
      ],
      "transaction": {
        "from": "0xb819a871d20913839c37f316dc914b0570bfc0ee",
        "to": "0x1211d07f0ebea8994f23ec26e1e512929fc8ab08",
        "gas": "0x107c3",
        "value": "0x0",
        "input": "0xec3a461300000000000000000000000091b945cbb063648c44271868a7a0c7bdff64827d3e008573b76fa95febaab72c06ec152363f92f2b27dcaf00fbd0bb77a70593db0000000000000000000000000000000000000000000000000000000000000001",
        "nonce": "0x1a5",
        "chainId": "0x2105"
      },
      "additionalContracts": [],
      "isFixedGasLimit": false
    },
    {
      "hash": "0x04824f9b8e950c422a487ee03d0532c75b13831633259483a6f92caf8bc5f0df",
      "transactionType": "CALL",
      "contractName": null,
      "contractAddress": "0x1211d07f0ebea8994f23ec26e1e512929fc8ab08",
      "function": "allowFor(address,bytes32,bool)",
      "arguments": [
        "0x91B945CbB063648C44271868a7A0c7BdFf64827D",
        "0x46c2ab528350fb4f59e61eb6c0382446a3636f13f7846680a2734e5f829735a4",
        "true"
      ],
      "transaction": {
        "from": "0xb819a871d20913839c37f316dc914b0570bfc0ee",
        "to": "0x1211d07f0ebea8994f23ec26e1e512929fc8ab08",
        "gas": "0x107e3",
        "value": "0x0",
        "input": "0xec3a461300000000000000000000000091b945cbb063648c44271868a7a0c7bdff64827d46c2ab528350fb4f59e61eb6c0382446a3636f13f7846680a2734e5f829735a40000000000000000000000000000000000000000000000000000000000000001",
        "nonce": "0x1a6",
        "chainId": "0x2105"
      },
      "additionalContracts": [],
      "isFixedGasLimit": false
    },
    {
      "hash": "0xb4805ad1675c1ab96ccd652ce247cb34e2e17191b44dfc3d4427c1634bf4ada8",
      "transactionType": "CALL",
      "contractName": null,
      "contractAddress": "0x1211d07f0ebea8994f23ec26e1e512929fc8ab08",
      "function": "allowFor(address,bytes32,bool)",
      "arguments": [
        "0x91B945CbB063648C44271868a7A0c7BdFf64827D",
        "0xb0487bdd3330b4d082e49dfc24e1aa23706abcc632f9215fee20a474a9a88457",
        "true"
      ],
      "transaction": {
        "from": "0xb819a871d20913839c37f316dc914b0570bfc0ee",
        "to": "0x1211d07f0ebea8994f23ec26e1e512929fc8ab08",
        "gas": "0x107e3",
        "value": "0x0",
        "input": "0xec3a461300000000000000000000000091b945cbb063648c44271868a7a0c7bdff64827db0487bdd3330b4d082e49dfc24e1aa23706abcc632f9215fee20a474a9a884570000000000000000000000000000000000000000000000000000000000000001",
        "nonce": "0x1a7",
        "chainId": "0x2105"
      },
      "additionalContracts": [],
      "isFixedGasLimit": false
    },
    {
      "hash": "0x12f20f398500f0cd082259100b3ffb353eb09a6b34e45674f2309eb7b585b557",
      "transactionType": "CALL",
      "contractName": null,
      "contractAddress": "0x1211d07f0ebea8994f23ec26e1e512929fc8ab08",
      "function": "allowFor(address,bytes32,bool)",
      "arguments": [
        "0x91B945CbB063648C44271868a7A0c7BdFf64827D",
        "0xeefbfa32ce9dd99a431be27221a8732bc1e7b3d032ff4cbd56226b17783f7413",
        "true"
      ],
      "transaction": {
        "from": "0xb819a871d20913839c37f316dc914b0570bfc0ee",
        "to": "0x1211d07f0ebea8994f23ec26e1e512929fc8ab08",
        "gas": "0x107e3",
        "value": "0x0",
        "input": "0xec3a461300000000000000000000000091b945cbb063648c44271868a7a0c7bdff64827deefbfa32ce9dd99a431be27221a8732bc1e7b3d032ff4cbd56226b17783f74130000000000000000000000000000000000000000000000000000000000000001",
        "nonce": "0x1a8",
        "chainId": "0x2105"
      },
      "additionalContracts": [],
      "isFixedGasLimit": false
    },
    {
      "hash": "0xfb93f89af83ca4688fe97c7502ff13150f695fc421457a18b6edacf146160c48",
      "transactionType": "CALL",
      "contractName": null,
      "contractAddress": "0x1211d07f0ebea8994f23ec26e1e512929fc8ab08",
      "function": "allowFor(address,bytes32,bool)",
      "arguments": [
        "0x91B945CbB063648C44271868a7A0c7BdFf64827D",
        "0xaa85d4d7655b58b3177edbbb41bc17f2e2ebffd26ace9d6b56244a5ee16c7806",
        "true"
      ],
      "transaction": {
        "from": "0xb819a871d20913839c37f316dc914b0570bfc0ee",
        "to": "0x1211d07f0ebea8994f23ec26e1e512929fc8ab08",
        "gas": "0x107e3",
        "value": "0x0",
        "input": "0xec3a461300000000000000000000000091b945cbb063648c44271868a7a0c7bdff64827daa85d4d7655b58b3177edbbb41bc17f2e2ebffd26ace9d6b56244a5ee16c78060000000000000000000000000000000000000000000000000000000000000001",
        "nonce": "0x1a9",
        "chainId": "0x2105"
      },
      "additionalContracts": [],
      "isFixedGasLimit": false
    },
    {
      "hash": "0xaa554311ad70f66a0d1a23e157333f2f984181c76f846d9842600fb06821a5b6",
      "transactionType": "CALL",
      "contractName": null,
      "contractAddress": "0x1211d07f0ebea8994f23ec26e1e512929fc8ab08",
      "function": "allowFor(address,bytes32,bool)",
      "arguments": [
        "0xB819A871d20913839c37f316Dc914b0570bfc0eE",
        "0x4b1cf52f49d174a2779824195ac83ffb0173882d2de2b8017a7a2ad31efa9bac",
        "false"
      ],
      "transaction": {
        "from": "0xb819a871d20913839c37f316dc914b0570bfc0ee",
        "to": "0x1211d07f0ebea8994f23ec26e1e512929fc8ab08",
        "gas": "0x91aa",
        "value": "0x0",
        "input": "0xec3a4613000000000000000000000000b819a871d20913839c37f316dc914b0570bfc0ee4b1cf52f49d174a2779824195ac83ffb0173882d2de2b8017a7a2ad31efa9bac0000000000000000000000000000000000000000000000000000000000000000",
        "nonce": "0x1aa",
        "chainId": "0x2105"
      },
      "additionalContracts": [],
      "isFixedGasLimit": false
    },
    {
      "hash": "0x84291551004834e1188e5e29c6a8ae1ece5ed0607a4ce3c51b438abd9cfb2ce1",
      "transactionType": "CALL",
      "contractName": null,
      "contractAddress": "0x1211d07f0ebea8994f23ec26e1e512929fc8ab08",
      "function": "allowFor(address,bytes32,bool)",
      "arguments": [
        "0xB819A871d20913839c37f316Dc914b0570bfc0eE",
        "0xaeffe8a027d13ff1f9fbecaa8f7fc0ff2c5c5d71561a1a572f6bafeeba68abfd",
        "false"
      ],
      "transaction": {
        "from": "0xb819a871d20913839c37f316dc914b0570bfc0ee",
        "to": "0x1211d07f0ebea8994f23ec26e1e512929fc8ab08",
        "gas": "0x91aa",
        "value": "0x0",
        "input": "0xec3a4613000000000000000000000000b819a871d20913839c37f316dc914b0570bfc0eeaeffe8a027d13ff1f9fbecaa8f7fc0ff2c5c5d71561a1a572f6bafeeba68abfd0000000000000000000000000000000000000000000000000000000000000000",
        "nonce": "0x1ab",
        "chainId": "0x2105"
      },
      "additionalContracts": [],
      "isFixedGasLimit": false
    },
    {
      "hash": "0x9aa8ab382561d1b82f1e3efd001128e8dad5f84209f1b2c54b72ea70ad400a03",
      "transactionType": "CALL",
      "contractName": null,
      "contractAddress": "0x1211d07f0ebea8994f23ec26e1e512929fc8ab08",
      "function": "allowFor(address,bytes32,bool)",
      "arguments": [
        "0xB819A871d20913839c37f316Dc914b0570bfc0eE",
        "0xc8e17e1f507bc6ac21ffd444ba9d6c9d6ea2defdac21571990ea0eb8bcde3a24",
        "false"
      ],
      "transaction": {
        "from": "0xb819a871d20913839c37f316dc914b0570bfc0ee",
        "to": "0x1211d07f0ebea8994f23ec26e1e512929fc8ab08",
        "gas": "0x91aa",
        "value": "0x0",
        "input": "0xec3a4613000000000000000000000000b819a871d20913839c37f316dc914b0570bfc0eec8e17e1f507bc6ac21ffd444ba9d6c9d6ea2defdac21571990ea0eb8bcde3a240000000000000000000000000000000000000000000000000000000000000000",
        "nonce": "0x1ac",
        "chainId": "0x2105"
      },
      "additionalContracts": [],
      "isFixedGasLimit": false
    },
    {
      "hash": "0x44f80c6afdc5f42898e401f9fa0d029cf6b75fa08971538bdc0ec338788a1b94",
      "transactionType": "CALL",
      "contractName": null,
      "contractAddress": "0x1211d07f0ebea8994f23ec26e1e512929fc8ab08",
      "function": "allowFor(address,bytes32,bool)",
      "arguments": [
        "0xB819A871d20913839c37f316Dc914b0570bfc0eE",
        "0x3e008573b76fa95febaab72c06ec152363f92f2b27dcaf00fbd0bb77a70593db",
        "false"
      ],
      "transaction": {
        "from": "0xb819a871d20913839c37f316dc914b0570bfc0ee",
        "to": "0x1211d07f0ebea8994f23ec26e1e512929fc8ab08",
        "gas": "0x9188",
        "value": "0x0",
        "input": "0xec3a4613000000000000000000000000b819a871d20913839c37f316dc914b0570bfc0ee3e008573b76fa95febaab72c06ec152363f92f2b27dcaf00fbd0bb77a70593db0000000000000000000000000000000000000000000000000000000000000000",
        "nonce": "0x1ad",
        "chainId": "0x2105"
      },
      "additionalContracts": [],
      "isFixedGasLimit": false
    },
    {
      "hash": "0xff02a92db3c8e181d61feaced2e4473328aa00dd5429e645a8b82bda1bf17ed7",
      "transactionType": "CALL",
      "contractName": null,
      "contractAddress": "0x1211d07f0ebea8994f23ec26e1e512929fc8ab08",
      "function": "allowFor(address,bytes32,bool)",
      "arguments": [
        "0xB819A871d20913839c37f316Dc914b0570bfc0eE",
        "0x46c2ab528350fb4f59e61eb6c0382446a3636f13f7846680a2734e5f829735a4",
        "false"
      ],
      "transaction": {
        "from": "0xb819a871d20913839c37f316dc914b0570bfc0ee",
        "to": "0x1211d07f0ebea8994f23ec26e1e512929fc8ab08",
        "gas": "0x91aa",
        "value": "0x0",
        "input": "0xec3a4613000000000000000000000000b819a871d20913839c37f316dc914b0570bfc0ee46c2ab528350fb4f59e61eb6c0382446a3636f13f7846680a2734e5f829735a40000000000000000000000000000000000000000000000000000000000000000",
        "nonce": "0x1ae",
        "chainId": "0x2105"
      },
      "additionalContracts": [],
      "isFixedGasLimit": false
    },
    {
      "hash": "0xc30b14b5093eee29be458c3328c9472952d164db2f8ecaf0681de0f0ce460d9d",
      "transactionType": "CALL",
      "contractName": null,
      "contractAddress": "0x1211d07f0ebea8994f23ec26e1e512929fc8ab08",
      "function": "allowFor(address,bytes32,bool)",
      "arguments": [
        "0xB819A871d20913839c37f316Dc914b0570bfc0eE",
        "0xb0487bdd3330b4d082e49dfc24e1aa23706abcc632f9215fee20a474a9a88457",
        "false"
      ],
      "transaction": {
        "from": "0xb819a871d20913839c37f316dc914b0570bfc0ee",
        "to": "0x1211d07f0ebea8994f23ec26e1e512929fc8ab08",
        "gas": "0x91aa",
        "value": "0x0",
        "input": "0xec3a4613000000000000000000000000b819a871d20913839c37f316dc914b0570bfc0eeb0487bdd3330b4d082e49dfc24e1aa23706abcc632f9215fee20a474a9a884570000000000000000000000000000000000000000000000000000000000000000",
        "nonce": "0x1af",
        "chainId": "0x2105"
      },
      "additionalContracts": [],
      "isFixedGasLimit": false
    },
    {
      "hash": "0xe5e23769b1dab7250342eeeaee149347f86570e1d52dda1b3ba7bf2f5f6625a4",
      "transactionType": "CALL",
      "contractName": null,
      "contractAddress": "0x1211d07f0ebea8994f23ec26e1e512929fc8ab08",
      "function": "allowFor(address,bytes32,bool)",
      "arguments": [
        "0xB819A871d20913839c37f316Dc914b0570bfc0eE",
        "0xeefbfa32ce9dd99a431be27221a8732bc1e7b3d032ff4cbd56226b17783f7413",
        "false"
      ],
      "transaction": {
        "from": "0xb819a871d20913839c37f316dc914b0570bfc0ee",
        "to": "0x1211d07f0ebea8994f23ec26e1e512929fc8ab08",
        "gas": "0x91aa",
        "value": "0x0",
        "input": "0xec3a4613000000000000000000000000b819a871d20913839c37f316dc914b0570bfc0eeeefbfa32ce9dd99a431be27221a8732bc1e7b3d032ff4cbd56226b17783f74130000000000000000000000000000000000000000000000000000000000000000",
        "nonce": "0x1b0",
        "chainId": "0x2105"
      },
      "additionalContracts": [],
      "isFixedGasLimit": false
    },
    {
      "hash": "0x46fe542c26e0e1929d13090d4002385a19802f46b8fbed2fa6019076ee2efa0a",
      "transactionType": "CALL",
      "contractName": null,
      "contractAddress": "0x1211d07f0ebea8994f23ec26e1e512929fc8ab08",
      "function": "allowFor(address,bytes32,bool)",
      "arguments": [
        "0xB819A871d20913839c37f316Dc914b0570bfc0eE",
        "0xaa85d4d7655b58b3177edbbb41bc17f2e2ebffd26ace9d6b56244a5ee16c7806",
        "false"
      ],
      "transaction": {
        "from": "0xb819a871d20913839c37f316dc914b0570bfc0ee",
        "to": "0x1211d07f0ebea8994f23ec26e1e512929fc8ab08",
        "gas": "0x91aa",
        "value": "0x0",
        "input": "0xec3a4613000000000000000000000000b819a871d20913839c37f316dc914b0570bfc0eeaa85d4d7655b58b3177edbbb41bc17f2e2ebffd26ace9d6b56244a5ee16c78060000000000000000000000000000000000000000000000000000000000000000",
        "nonce": "0x1b1",
        "chainId": "0x2105"
      },
      "additionalContracts": [],
      "isFixedGasLimit": false
    },
    {
      "hash": "0x44451dba16d44252f9a5b1a3d6102d9b1d6ed09dcacce1953fe44d25b814233c",
      "transactionType": "CALL",
      "contractName": null,
      "contractAddress": "0x269c36a173d881720544fb303e681370158ff1fd",
      "function": "transferOwnership(address)",
      "arguments": [
        "0x91B945CbB063648C44271868a7A0c7BdFf64827D"
      ],
      "transaction": {
        "from": "0xb819a871d20913839c37f316dc914b0570bfc0ee",
        "to": "0x269c36a173d881720544fb303e681370158ff1fd",
        "gas": "0xb580",
        "value": "0x0",
        "input": "0xf2fde38b00000000000000000000000091b945cbb063648c44271868a7a0c7bdff64827d",
        "nonce": "0x1b2",
        "chainId": "0x2105"
      },
      "additionalContracts": [],
      "isFixedGasLimit": false
    },
    {
      "hash": "0xa1a3487e6f994e9a8581819d0fba2695a24797dc2a6b51995d9e874d572f431e",
      "transactionType": "CALL",
      "contractName": null,
      "contractAddress": "0xc7bc6bd45eb84d594f51ced3c5497e6812c7732f",
      "function": "transferOwnership(address)",
      "arguments": [
        "0x91B945CbB063648C44271868a7A0c7BdFf64827D"
      ],
      "transaction": {
        "from": "0xb819a871d20913839c37f316dc914b0570bfc0ee",
        "to": "0xc7bc6bd45eb84d594f51ced3c5497e6812c7732f",
        "gas": "0xb580",
        "value": "0x0",
        "input": "0xf2fde38b00000000000000000000000091b945cbb063648c44271868a7a0c7bdff64827d",
        "nonce": "0x1b3",
        "chainId": "0x2105"
      },
      "additionalContracts": [],
      "isFixedGasLimit": false
    },
    {
      "hash": "0xfbb2f34bb7192d3e5fe47a875143816b7046db65845580afa480cd5d99b777c2",
      "transactionType": "CALL",
      "contractName": null,
      "contractAddress": "0xdf0635c1ecfdf08146150691a97e2ff6a8aa1a90",
      "function": "transferOwnership(address)",
      "arguments": [
        "0x91B945CbB063648C44271868a7A0c7BdFf64827D"
      ],
      "transaction": {
        "from": "0xb819a871d20913839c37f316dc914b0570bfc0ee",
        "to": "0xdf0635c1ecfdf08146150691a97e2ff6a8aa1a90",
        "gas": "0xb59e",
        "value": "0x0",
        "input": "0xf2fde38b00000000000000000000000091b945cbb063648c44271868a7a0c7bdff64827d",
        "nonce": "0x1b4",
        "chainId": "0x2105"
      },
      "additionalContracts": [],
      "isFixedGasLimit": false
    },
    {
      "hash": "0xbc85682872bac7ade20f101e0851d9fa54657003cb8c9504895cf89f04746754",
      "transactionType": "CALL",
      "contractName": null,
      "contractAddress": "0x2b588f7f4832561e46924f3ea54c244569724915",
      "function": "transferOwnership(address)",
      "arguments": [
        "0x91B945CbB063648C44271868a7A0c7BdFf64827D"
      ],
      "transaction": {
        "from": "0xb819a871d20913839c37f316dc914b0570bfc0ee",
        "to": "0x2b588f7f4832561e46924f3ea54c244569724915",
        "gas": "0xb580",
        "value": "0x0",
        "input": "0xf2fde38b00000000000000000000000091b945cbb063648c44271868a7a0c7bdff64827d",
        "nonce": "0x1b5",
        "chainId": "0x2105"
      },
      "additionalContracts": [],
      "isFixedGasLimit": false
    },
    {
      "hash": "0xd072a2eecd56c331d46e09468d48c0fe6563d9c331439abadc8608307e46d761",
      "transactionType": "CALL",
      "contractName": null,
      "contractAddress": "0x1d8e8cefeb085f3211ab6a443ad9051b54d1cd1a",
      "function": "transferOwnership(address)",
      "arguments": [
        "0x91B945CbB063648C44271868a7A0c7BdFf64827D"
      ],
      "transaction": {
        "from": "0xb819a871d20913839c37f316dc914b0570bfc0ee",
        "to": "0x1d8e8cefeb085f3211ab6a443ad9051b54d1cd1a",
        "gas": "0xb580",
        "value": "0x0",
        "input": "0xf2fde38b00000000000000000000000091b945cbb063648c44271868a7a0c7bdff64827d",
        "nonce": "0x1b6",
        "chainId": "0x2105"
      },
      "additionalContracts": [],
      "isFixedGasLimit": false
    },
    {
      "hash": "0x0710707777f41324355fb89b63700e1c79558e1f9ba27f56757d61db25977337",
      "transactionType": "CALL",
      "contractName": null,
      "contractAddress": "0x8bad0c523516262a439197736fff982f5e0987cc",
      "function": "transferOwnership(address)",
      "arguments": [
        "0x91B945CbB063648C44271868a7A0c7BdFf64827D"
      ],
      "transaction": {
        "from": "0xb819a871d20913839c37f316dc914b0570bfc0ee",
        "to": "0x8bad0c523516262a439197736fff982f5e0987cc",
        "gas": "0xb580",
        "value": "0x0",
        "input": "0xf2fde38b00000000000000000000000091b945cbb063648c44271868a7a0c7bdff64827d",
        "nonce": "0x1b7",
        "chainId": "0x2105"
      },
      "additionalContracts": [],
      "isFixedGasLimit": false
    },
    {
      "hash": "0x49cf9835906c7c9960cbbb133a821e9457dbb7adbb6e9d57b2a40fba0d56d5cc",
      "transactionType": "CALL",
      "contractName": null,
      "contractAddress": "0x4df3dd62db219c47f6a7cb1be02c511afceadf5e",
      "function": "transferOwnership(address)",
      "arguments": [
        "0x91B945CbB063648C44271868a7A0c7BdFf64827D"
      ],
      "transaction": {
        "from": "0xb819a871d20913839c37f316dc914b0570bfc0ee",
        "to": "0x4df3dd62db219c47f6a7cb1be02c511afceadf5e",
        "gas": "0xb580",
        "value": "0x0",
        "input": "0xf2fde38b00000000000000000000000091b945cbb063648c44271868a7a0c7bdff64827d",
        "nonce": "0x1b8",
        "chainId": "0x2105"
      },
      "additionalContracts": [],
      "isFixedGasLimit": false
    },
    {
      "hash": "0x11f54b8205a13b30ef5be338fb6fe4c1c44edb7414e3772861653a6ecf35acd6",
      "transactionType": "CALL",
      "contractName": null,
      "contractAddress": "0xe32fc580e6e3f6f5947bc2d900062dce019f375f",
      "function": "transferOwnership(address)",
      "arguments": [
        "0x91B945CbB063648C44271868a7A0c7BdFf64827D"
      ],
      "transaction": {
        "from": "0xb819a871d20913839c37f316dc914b0570bfc0ee",
        "to": "0xe32fc580e6e3f6f5947bc2d900062dce019f375f",
        "gas": "0x9a49",
        "value": "0x0",
        "input": "0xf2fde38b00000000000000000000000091b945cbb063648c44271868a7a0c7bdff64827d",
        "nonce": "0x1b9",
        "chainId": "0x2105"
      },
      "additionalContracts": [],
      "isFixedGasLimit": false
    },
    {
      "hash": "0x50cae1eee88c064bd0c2b01e168a82bc91ea9f7a9d88af3a24eca1b7ad6c9dd3",
      "transactionType": "CALL",
      "contractName": null,
      "contractAddress": "0xddcca3eda77622b7ff5b7f11b340a8f818a87d2c",
      "function": "transferOwnership(address)",
      "arguments": [
        "0x91B945CbB063648C44271868a7A0c7BdFf64827D"
      ],
      "transaction": {
        "from": "0xb819a871d20913839c37f316dc914b0570bfc0ee",
        "to": "0xddcca3eda77622b7ff5b7f11b340a8f818a87d2c",
        "gas": "0x9a97",
        "value": "0x0",
        "input": "0xf2fde38b00000000000000000000000091b945cbb063648c44271868a7a0c7bdff64827d",
        "nonce": "0x1ba",
        "chainId": "0x2105"
      },
      "additionalContracts": [],
      "isFixedGasLimit": false
    },
    {
      "hash": "0xfd3276620e3099a2ef2df8b6f0c7cb1911e808578661b0201799ba0a158c713b",
      "transactionType": "CALL",
      "contractName": null,
      "contractAddress": "0x1211d07f0ebea8994f23ec26e1e512929fc8ab08",
      "function": "transferOwnership(address)",
      "arguments": [
        "0x91B945CbB063648C44271868a7A0c7BdFf64827D"
      ],
      "transaction": {
        "from": "0xb819a871d20913839c37f316dc914b0570bfc0ee",
        "to": "0x1211d07f0ebea8994f23ec26e1e512929fc8ab08",
        "gas": "0xa3d0",
        "value": "0x0",
        "input": "0xf2fde38b00000000000000000000000091b945cbb063648c44271868a7a0c7bdff64827d",
        "nonce": "0x1bb",
        "chainId": "0x2105"
      },
      "additionalContracts": [],
      "isFixedGasLimit": false
    },
    {
      "hash": "0x65d2455e87588d8046b7370842a73058c690cdd099c31f2d140ea471807cc51a",
      "transactionType": "CALL",
      "contractName": null,
      "contractAddress": "0x04f0cdc5a215dedf6a1ed5444e07367e20768041",
      "function": "transferOwnership(address)",
      "arguments": [
        "0x91B945CbB063648C44271868a7A0c7BdFf64827D"
      ],
      "transaction": {
        "from": "0xb819a871d20913839c37f316dc914b0570bfc0ee",
        "to": "0x04f0cdc5a215dedf6a1ed5444e07367e20768041",
        "gas": "0x9a49",
        "value": "0x0",
        "input": "0xf2fde38b00000000000000000000000091b945cbb063648c44271868a7a0c7bdff64827d",
        "nonce": "0x1bc",
        "chainId": "0x2105"
      },
      "additionalContracts": [],
      "isFixedGasLimit": false
    }
  ],
  "receipts": [
    {
      "status": "0x1",
      "cumulativeGasUsed": "0x332b485",
      "logs": [
        {
          "address": "0x1211d07f0ebea8994f23ec26e1e512929fc8ab08",
          "topics": [
            "0xbf768a8bd7016d5df999ce7e5dcbd90856578a89eb68c5a1d5fc1d4a3360107e",
            "0x000000000000000000000000f8b6314e66ea3e4b62e229fa5f5f052058618404",
            "0x4b1cf52f49d174a2779824195ac83ffb0173882d2de2b8017a7a2ad31efa9bac"
          ],
          "data": "0x0000000000000000000000000000000000000000000000000000000000000001",
          "blockHash": "0x9c9d99b03c463d9d0ded0ba6c8b98d52a6ae15c70837c55b5bd91d75a1a8389e",
          "blockNumber": "0x1d5b004",
          "blockTimestamp": "0x6835bceb",
          "transactionHash": "0x39971f327a0445eb96b8522cfc7369526fd6da06211fc8a6a85fa18cc9eb47fa",
          "transactionIndex": "0xdc",
          "logIndex": "0x253",
          "removed": false
        }
      ],
      "logsBloom": "0x00000000000000000004000000000200000000000000000000000000000000000000000000000040000000000000080000000000002000000000000000000000000000000000000000000000010000000000000000000000000000000000000000008000000000000000000000000000000000000000000000400000000000000000000000000000000000000000000000000000000000000000000000000000000000000000000000000000000002000000000000000000000000000000000000000000000000002000000000000000002000010000000000000000000000000000000000000000000000000000000000000000000000000000000000000000",
      "type": "0x2",
      "transactionHash": "0x39971f327a0445eb96b8522cfc7369526fd6da06211fc8a6a85fa18cc9eb47fa",
      "transactionIndex": "0xdc",
      "blockHash": "0x9c9d99b03c463d9d0ded0ba6c8b98d52a6ae15c70837c55b5bd91d75a1a8389e",
      "blockNumber": "0x1d5b004",
      "gasUsed": "0xbf0e",
      "effectiveGasPrice": "0xe38ce",
      "from": "0xb819a871d20913839c37f316dc914b0570bfc0ee",
      "to": "0x1211d07f0ebea8994f23ec26e1e512929fc8ab08",
      "contractAddress": null,
      "l1BaseFeeScalar": "0x8dd",
      "l1BlobBaseFee": "0x1",
      "l1BlobBaseFeeScalar": "0x101c12",
      "l1Fee": "0xcde5f912c",
      "l1GasPrice": "0x31d1ec6b8",
      "l1GasUsed": "0x71d"
    },
    {
      "status": "0x1",
      "cumulativeGasUsed": "0x325c9db",
      "logs": [
        {
          "address": "0x1211d07f0ebea8994f23ec26e1e512929fc8ab08",
          "topics": [
            "0xbf768a8bd7016d5df999ce7e5dcbd90856578a89eb68c5a1d5fc1d4a3360107e",
            "0x00000000000000000000000091b945cbb063648c44271868a7a0c7bdff64827d",
            "0x4b1cf52f49d174a2779824195ac83ffb0173882d2de2b8017a7a2ad31efa9bac"
          ],
          "data": "0x0000000000000000000000000000000000000000000000000000000000000001",
          "blockHash": "0x37c14fcca1568eecaff40a36e76956055f174d7b1b9f3f663900776c8989db75",
          "blockNumber": "0x1d5b006",
          "blockTimestamp": "0x6835bcef",
          "transactionHash": "0xeea62cc36608daf9ebcbbf546063895c493a7238c0688c491f05c61c18ea0807",
          "transactionIndex": "0xb5",
          "logIndex": "0x2f7",
          "removed": false
        }
      ],
      "logsBloom": "0x00000000000000000004000000000200000000000000000000000000000000000000000000000040000000000000080000000000000000000000000000000000000000000000000000000000010000000000100000000000000000000000000000000000000000000000000000000000000000000000000000400000000400000000000000000000000000004000000000000000000000000000000000000000000000000000000000000000000002000000000000000000000000000000000000000000000000000000000000000000002000010000000000000000000000000000000000000000000000000000000000000000000000000000000000000000",
      "type": "0x2",
      "transactionHash": "0xeea62cc36608daf9ebcbbf546063895c493a7238c0688c491f05c61c18ea0807",
      "transactionIndex": "0xb5",
      "blockHash": "0x37c14fcca1568eecaff40a36e76956055f174d7b1b9f3f663900776c8989db75",
      "blockNumber": "0x1d5b006",
      "gasUsed": "0xbf0e",
      "effectiveGasPrice": "0xe3326",
      "from": "0xb819a871d20913839c37f316dc914b0570bfc0ee",
      "to": "0x1211d07f0ebea8994f23ec26e1e512929fc8ab08",
      "contractAddress": null,
      "l1BaseFeeScalar": "0x8dd",
      "l1BlobBaseFee": "0x1",
      "l1BlobBaseFeeScalar": "0x101c12",
      "l1Fee": "0xde77db54b",
      "l1GasPrice": "0x35d44eabb",
      "l1GasUsed": "0x71d"
    },
    {
      "status": "0x1",
      "cumulativeGasUsed": "0x3a12eeb",
      "logs": [
        {
          "address": "0x1211d07f0ebea8994f23ec26e1e512929fc8ab08",
          "topics": [
            "0xbf768a8bd7016d5df999ce7e5dcbd90856578a89eb68c5a1d5fc1d4a3360107e",
            "0x00000000000000000000000091b945cbb063648c44271868a7a0c7bdff64827d",
            "0xaeffe8a027d13ff1f9fbecaa8f7fc0ff2c5c5d71561a1a572f6bafeeba68abfd"
          ],
          "data": "0x0000000000000000000000000000000000000000000000000000000000000001",
          "blockHash": "0x3356d5b76ceaeff4a4fe552af4f902a7e88041792ba37fe5fd6442b39c05c3de",
          "blockNumber": "0x1d5b008",
          "blockTimestamp": "0x6835bcf3",
          "transactionHash": "0x047a149f4a119ecf2706771ee88f42651440002a7d5d8656ac78e48df6e9f047",
          "transactionIndex": "0x10e",
          "logIndex": "0x3d2",
          "removed": false
        }
      ],
      "logsBloom": "0x00000000000000000004000000000200000000000000000000000000000000000000000000000040000000000000080000100000000000000000000000000000000000000040000000000000000000000000100000400000000000000000000000000000000000000000000000000000000000000000000000400000000400000000000000000000000000004000000000000000000000000000000000000000000000000000000000000000000000000000000000000000000000000000000000000000000000000000000000000000000000010000000000000000000000000000000000000000000000000000000000000000000000000000000000000000",
      "type": "0x2",
      "transactionHash": "0x047a149f4a119ecf2706771ee88f42651440002a7d5d8656ac78e48df6e9f047",
      "transactionIndex": "0x10e",
      "blockHash": "0x3356d5b76ceaeff4a4fe552af4f902a7e88041792ba37fe5fd6442b39c05c3de",
      "blockNumber": "0x1d5b008",
      "gasUsed": "0xbf0e",
      "effectiveGasPrice": "0xe3547",
      "from": "0xb819a871d20913839c37f316dc914b0570bfc0ee",
      "to": "0x1211d07f0ebea8994f23ec26e1e512929fc8ab08",
      "contractAddress": null,
      "l1BaseFeeScalar": "0x8dd",
      "l1BlobBaseFee": "0x1",
      "l1BlobBaseFeeScalar": "0x101c12",
      "l1Fee": "0xde77db54b",
      "l1GasPrice": "0x35d44eabb",
      "l1GasUsed": "0x71d"
    },
    {
      "status": "0x1",
      "cumulativeGasUsed": "0x2e6fd88",
      "logs": [
        {
          "address": "0x1211d07f0ebea8994f23ec26e1e512929fc8ab08",
          "topics": [
            "0xbf768a8bd7016d5df999ce7e5dcbd90856578a89eb68c5a1d5fc1d4a3360107e",
            "0x00000000000000000000000091b945cbb063648c44271868a7a0c7bdff64827d",
            "0xc8e17e1f507bc6ac21ffd444ba9d6c9d6ea2defdac21571990ea0eb8bcde3a24"
          ],
          "data": "0x0000000000000000000000000000000000000000000000000000000000000001",
          "blockHash": "0xefe8cfa3fc087a3556253d958a613340ea67776940ae3ff97f699d9597908143",
          "blockNumber": "0x1d5b00a",
          "blockTimestamp": "0x6835bcf7",
          "transactionHash": "0x5681ecabe1b77e69b53e325862502a7313c591128ff955dd294ba95595d22a1c",
          "transactionIndex": "0x112",
          "logIndex": "0x2c5",
          "removed": false
        }
      ],
      "logsBloom": "0x00000000000000000004000000000200000000000000000000000000000000000000020000000040000000000000080000000000000000000000000000000000000000000000000000000000000000000000100000000000000000000000000000000000000000000000000000000008000000000000000000400000000400000000000000000000000000004000000000000000000000000000000000000000000000000400000000000000000000000000000000000000000000000000000000000000000000000000000000000000000000010000000000000000000000000000000000000000000000000000000000000000000000000000000000000000",
      "type": "0x2",
      "transactionHash": "0x5681ecabe1b77e69b53e325862502a7313c591128ff955dd294ba95595d22a1c",
      "transactionIndex": "0x112",
      "blockHash": "0xefe8cfa3fc087a3556253d958a613340ea67776940ae3ff97f699d9597908143",
      "blockNumber": "0x1d5b00a",
      "gasUsed": "0xbf0e",
      "effectiveGasPrice": "0xe32bf",
      "from": "0xb819a871d20913839c37f316dc914b0570bfc0ee",
      "to": "0x1211d07f0ebea8994f23ec26e1e512929fc8ab08",
      "contractAddress": null,
      "l1BaseFeeScalar": "0x8dd",
      "l1BlobBaseFee": "0x1",
      "l1BlobBaseFeeScalar": "0x101c12",
      "l1Fee": "0xdf1c25232",
      "l1GasPrice": "0x35fc0f26e",
      "l1GasUsed": "0x71d"
    },
    {
      "status": "0x1",
      "cumulativeGasUsed": "0x4284687",
      "logs": [
        {
          "address": "0x1211d07f0ebea8994f23ec26e1e512929fc8ab08",
          "topics": [
            "0xbf768a8bd7016d5df999ce7e5dcbd90856578a89eb68c5a1d5fc1d4a3360107e",
            "0x00000000000000000000000091b945cbb063648c44271868a7a0c7bdff64827d",
            "0xcf3889b3d647b5db8c87e0e05aca2acdd693a72c71726764f2198ee27a21c728"
          ],
          "data": "0x0000000000000000000000000000000000000000000000000000000000000001",
          "blockHash": "0xf65bc253ce9e4f05ab8a36cc843b12edb5308bbf507d7153234a627853186811",
          "blockNumber": "0x1d5b00d",
          "blockTimestamp": "0x6835bcfd",
          "transactionHash": "0x43e72b3d91b46de06ac41d727d12b8a08600dd2918ece8edf983712cbaa391f0",
          "transactionIndex": "0x14f",
          "logIndex": "0x36a",
          "removed": false
        }
      ],
      "logsBloom": "0x00000000000000000004000000000200000000000000000000000000000008000000000000000040000000000000080000000000000000000000000000000000000000000000000000000000000000000000100000000000000000000000000000000000000000000000000000000000000000000000000000400000000400000000000000000800000000004000000000000000000000000000000000000000000000000000000000000000000000000000000000000000000000000000000000000000000000000000000002000000000000010000000000000000000000000000000000000000000000000000000000000000000000000000000000000000",
      "type": "0x2",
      "transactionHash": "0x43e72b3d91b46de06ac41d727d12b8a08600dd2918ece8edf983712cbaa391f0",
      "transactionIndex": "0x14f",
      "blockHash": "0xf65bc253ce9e4f05ab8a36cc843b12edb5308bbf507d7153234a627853186811",
      "blockNumber": "0x1d5b00d",
      "gasUsed": "0xbf0e",
      "effectiveGasPrice": "0xe3568",
      "from": "0xb819a871d20913839c37f316dc914b0570bfc0ee",
      "to": "0x1211d07f0ebea8994f23ec26e1e512929fc8ab08",
      "contractAddress": null,
      "l1BaseFeeScalar": "0x8dd",
      "l1BlobBaseFee": "0x1",
      "l1BlobBaseFeeScalar": "0x101c12",
      "l1Fee": "0xdf1c25232",
      "l1GasPrice": "0x35fc0f26e",
      "l1GasUsed": "0x71d"
    },
    {
      "status": "0x1",
      "cumulativeGasUsed": "0x30c1a14",
      "logs": [
        {
          "address": "0x1211d07f0ebea8994f23ec26e1e512929fc8ab08",
          "topics": [
            "0xbf768a8bd7016d5df999ce7e5dcbd90856578a89eb68c5a1d5fc1d4a3360107e",
            "0x00000000000000000000000091b945cbb063648c44271868a7a0c7bdff64827d",
            "0x79bb2eff4b96ce24cc809a1642a7365c4980ebeb15be2580a619e03726e41a98"
          ],
          "data": "0x0000000000000000000000000000000000000000000000000000000000000001",
          "blockHash": "0xce5e07d3cb18ba7ade0326bfe408235832c26ae2506d1b3c9b9a8ff3c5fee13a",
          "blockNumber": "0x1d5b00f",
          "blockTimestamp": "0x6835bd01",
          "transactionHash": "0x841ddc92bd0b640ba861913ac37b44ad3791842eeb667e58069a382ce43288f4",
          "transactionIndex": "0x11f",
          "logIndex": "0x27e",
          "removed": false
        }
      ],
      "logsBloom": "0x00000000000000000004000000000200000000000000000000000000000000000000000000000040000000000000080000000000000000000000000000000000000000000000000000000000000000000000100000000000000000000000000000000000000000000000000000000000000000000000001000400000000400000000000000000000000000004000000000000000000000000000000000000000000000000000000000000000000000000000000000000000000000000000000000800000000000000000000000000008000000010000000000000000000000000000000000000000000000000000000000000000000000000000000000000000",
      "type": "0x2",
      "transactionHash": "0x841ddc92bd0b640ba861913ac37b44ad3791842eeb667e58069a382ce43288f4",
      "transactionIndex": "0x11f",
      "blockHash": "0xce5e07d3cb18ba7ade0326bfe408235832c26ae2506d1b3c9b9a8ff3c5fee13a",
      "blockNumber": "0x1d5b00f",
      "gasUsed": "0xbf0e",
      "effectiveGasPrice": "0xe39cc",
      "from": "0xb819a871d20913839c37f316dc914b0570bfc0ee",
      "to": "0x1211d07f0ebea8994f23ec26e1e512929fc8ab08",
      "contractAddress": null,
      "l1BaseFeeScalar": "0x8dd",
      "l1BlobBaseFee": "0x1",
      "l1BlobBaseFeeScalar": "0x101c12",
      "l1Fee": "0xdf1c25232",
      "l1GasPrice": "0x35fc0f26e",
      "l1GasUsed": "0x71d"
    },
    {
      "status": "0x1",
      "cumulativeGasUsed": "0x3cf2f86",
      "logs": [
        {
          "address": "0x1211d07f0ebea8994f23ec26e1e512929fc8ab08",
          "topics": [
            "0xbf768a8bd7016d5df999ce7e5dcbd90856578a89eb68c5a1d5fc1d4a3360107e",
            "0x00000000000000000000000091b945cbb063648c44271868a7a0c7bdff64827d",
            "0x3e008573b76fa95febaab72c06ec152363f92f2b27dcaf00fbd0bb77a70593db"
          ],
          "data": "0x0000000000000000000000000000000000000000000000000000000000000001",
          "blockHash": "0x7a26ab0bc9bd9712abb4b8cae3a5c13c9f9a67634a4c9eb1796e0997910fdbd0",
          "blockNumber": "0x1d5b011",
          "blockTimestamp": "0x6835bd05",
          "transactionHash": "0x117b6917aa4aaa5ab7491f00d4d3158eb7d6f5e7629210a03b7dc514c7b6f7fb",
          "transactionIndex": "0x145",
          "logIndex": "0x580",
          "removed": false
        }
      ],
      "logsBloom": "0x00000000000000000004000000000200000000000000000000000000000000000000000000000040000000000000080000000000000000000000000000000000100000000000000000000000000000000000100000000000000000000000000000000000000000000000000000000000000000000000000000400000000400000000000000000000000000004000000000000000000000000000000000000000000000000000000000000000000000200000000000000000000000000000000000000000000000000000000000000000000000010000000000000000000000000000000000000000000000004000000000000000000000000000000000000000",
      "type": "0x2",
      "transactionHash": "0x117b6917aa4aaa5ab7491f00d4d3158eb7d6f5e7629210a03b7dc514c7b6f7fb",
      "transactionIndex": "0x145",
      "blockHash": "0x7a26ab0bc9bd9712abb4b8cae3a5c13c9f9a67634a4c9eb1796e0997910fdbd0",
      "blockNumber": "0x1d5b011",
      "gasUsed": "0xbef6",
      "effectiveGasPrice": "0xe3921",
      "from": "0xb819a871d20913839c37f316dc914b0570bfc0ee",
      "to": "0x1211d07f0ebea8994f23ec26e1e512929fc8ab08",
      "contractAddress": null,
      "l1BaseFeeScalar": "0x8dd",
      "l1BlobBaseFee": "0x1",
      "l1BlobBaseFeeScalar": "0x101c12",
      "l1Fee": "0xe77ff9a45",
      "l1GasPrice": "0x3803c1ceb",
      "l1GasUsed": "0x71d"
    },
    {
      "status": "0x1",
      "cumulativeGasUsed": "0x3a3642b",
      "logs": [
        {
          "address": "0x1211d07f0ebea8994f23ec26e1e512929fc8ab08",
          "topics": [
            "0xbf768a8bd7016d5df999ce7e5dcbd90856578a89eb68c5a1d5fc1d4a3360107e",
            "0x00000000000000000000000091b945cbb063648c44271868a7a0c7bdff64827d",
            "0x46c2ab528350fb4f59e61eb6c0382446a3636f13f7846680a2734e5f829735a4"
          ],
          "data": "0x0000000000000000000000000000000000000000000000000000000000000001",
          "blockHash": "0x6dff43c862354b3e627afecdc15945e3326c8aef141c1b1d5ac8c65304cc425e",
          "blockNumber": "0x1d5b013",
          "blockTimestamp": "0x6835bd09",
          "transactionHash": "0x04824f9b8e950c422a487ee03d0532c75b13831633259483a6f92caf8bc5f0df",
          "transactionIndex": "0xf1",
          "logIndex": "0x27a",
          "removed": false
        }
      ],
      "logsBloom": "0x00000000000000200004000000000200000000000000000000000000000000000000000000000040000000000000080004000000000000000000000000000000000000000000000000000000000000000000100000000000000000000000000000000000000000000000000000000000000000000000000000400000000400000000000000000000000000004000000000000000000000000000000000000000000000000000000000000000000000000000000000000000000000000000000000000000000000000000000000000000000000010000000000000000000000400000000000000000000000000000000000000000000000000000000000000000",
      "type": "0x2",
      "transactionHash": "0x04824f9b8e950c422a487ee03d0532c75b13831633259483a6f92caf8bc5f0df",
      "transactionIndex": "0xf1",
      "blockHash": "0x6dff43c862354b3e627afecdc15945e3326c8aef141c1b1d5ac8c65304cc425e",
      "blockNumber": "0x1d5b013",
      "gasUsed": "0xbf0e",
      "effectiveGasPrice": "0xe3c2c",
      "from": "0xb819a871d20913839c37f316dc914b0570bfc0ee",
      "to": "0x1211d07f0ebea8994f23ec26e1e512929fc8ab08",
      "contractAddress": null,
      "l1BaseFeeScalar": "0x8dd",
      "l1BlobBaseFee": "0x1",
      "l1BlobBaseFeeScalar": "0x101c12",
      "l1Fee": "0xe77ff9a45",
      "l1GasPrice": "0x3803c1ceb",
      "l1GasUsed": "0x71d"
    },
    {
      "status": "0x1",
      "cumulativeGasUsed": "0x32cb3f7",
      "logs": [
        {
          "address": "0x1211d07f0ebea8994f23ec26e1e512929fc8ab08",
          "topics": [
            "0xbf768a8bd7016d5df999ce7e5dcbd90856578a89eb68c5a1d5fc1d4a3360107e",
            "0x00000000000000000000000091b945cbb063648c44271868a7a0c7bdff64827d",
            "0xb0487bdd3330b4d082e49dfc24e1aa23706abcc632f9215fee20a474a9a88457"
          ],
          "data": "0x0000000000000000000000000000000000000000000000000000000000000001",
          "blockHash": "0xe8c603645a3a719ce8aadc1e48f5618c51fe483c459ccdaa44782355a60fc1b4",
          "blockNumber": "0x1d5b015",
          "blockTimestamp": "0x6835bd0d",
          "transactionHash": "0xb4805ad1675c1ab96ccd652ce247cb34e2e17191b44dfc3d4427c1634bf4ada8",
          "transactionIndex": "0x121",
          "logIndex": "0x263",
          "removed": false
        }
      ],
      "logsBloom": "0x00000000000000000004000000000200000000000000000000000000000000000000000000000040000000000000080000000000000000000000000000000000000000000000000000000000000000000000100000000000100000000000000000000000000000000000000000000000000000000000000000400000000400000000000000000000000000004000000000000000000000000000000000040000400000000000000000000000000000000000000000000000000000000000000000000000000000000000000000000000000000010000000000000000000000000000000000000000000000000000000000000000000000000000000000000000",
      "type": "0x2",
      "transactionHash": "0xb4805ad1675c1ab96ccd652ce247cb34e2e17191b44dfc3d4427c1634bf4ada8",
      "transactionIndex": "0x121",
      "blockHash": "0xe8c603645a3a719ce8aadc1e48f5618c51fe483c459ccdaa44782355a60fc1b4",
      "blockNumber": "0x1d5b015",
      "gasUsed": "0xbf0e",
      "effectiveGasPrice": "0xe3fff",
      "from": "0xb819a871d20913839c37f316dc914b0570bfc0ee",
      "to": "0x1211d07f0ebea8994f23ec26e1e512929fc8ab08",
      "contractAddress": null,
      "l1BaseFeeScalar": "0x8dd",
      "l1BlobBaseFee": "0x1",
      "l1BlobBaseFeeScalar": "0x101c12",
      "l1Fee": "0xe77ff9a45",
      "l1GasPrice": "0x3803c1ceb",
      "l1GasUsed": "0x71d"
    },
    {
      "status": "0x1",
      "cumulativeGasUsed": "0x3269b5c",
      "logs": [
        {
          "address": "0x1211d07f0ebea8994f23ec26e1e512929fc8ab08",
          "topics": [
            "0xbf768a8bd7016d5df999ce7e5dcbd90856578a89eb68c5a1d5fc1d4a3360107e",
            "0x00000000000000000000000091b945cbb063648c44271868a7a0c7bdff64827d",
            "0xeefbfa32ce9dd99a431be27221a8732bc1e7b3d032ff4cbd56226b17783f7413"
          ],
          "data": "0x0000000000000000000000000000000000000000000000000000000000000001",
          "blockHash": "0xae2fb83db51c0f96f7d2546733622a2beff98b6809950362b254106e669e25e9",
          "blockNumber": "0x1d5b016",
          "blockTimestamp": "0x6835bd0f",
          "transactionHash": "0x12f20f398500f0cd082259100b3ffb353eb09a6b34e45674f2309eb7b585b557",
          "transactionIndex": "0xce",
          "logIndex": "0x408",
          "removed": false
        }
      ],
      "logsBloom": "0x00000000000000000004000000000200000000000000000000000000000000000000000000000040000000000000080000000000000000000000000000000000000000000000000000000100000000000000100000000000000000000000000000000000000000000000000000000000000000000000000000400000000400800000000000000000000000004000000000000000000000000000000000000000000000000000000000000000000000000000000000000000000000000000000000000000000000000000000000000000000000010000000000000000000000000000000000000000000000000000000000000000000400000000000000000000",
      "type": "0x2",
      "transactionHash": "0x12f20f398500f0cd082259100b3ffb353eb09a6b34e45674f2309eb7b585b557",
      "transactionIndex": "0xce",
      "blockHash": "0xae2fb83db51c0f96f7d2546733622a2beff98b6809950362b254106e669e25e9",
      "blockNumber": "0x1d5b016",
      "gasUsed": "0xbf0e",
      "effectiveGasPrice": "0xe3f26",
      "from": "0xb819a871d20913839c37f316dc914b0570bfc0ee",
      "to": "0x1211d07f0ebea8994f23ec26e1e512929fc8ab08",
      "contractAddress": null,
      "l1BaseFeeScalar": "0x8dd",
      "l1BlobBaseFee": "0x1",
      "l1BlobBaseFeeScalar": "0x101c12",
      "l1Fee": "0xdbc07b2a8",
      "l1GasPrice": "0x3590d0497",
      "l1GasUsed": "0x710"
    },
    {
      "status": "0x1",
      "cumulativeGasUsed": "0x334ff0d",
      "logs": [
        {
          "address": "0x1211d07f0ebea8994f23ec26e1e512929fc8ab08",
          "topics": [
            "0xbf768a8bd7016d5df999ce7e5dcbd90856578a89eb68c5a1d5fc1d4a3360107e",
            "0x00000000000000000000000091b945cbb063648c44271868a7a0c7bdff64827d",
            "0xaa85d4d7655b58b3177edbbb41bc17f2e2ebffd26ace9d6b56244a5ee16c7806"
          ],
          "data": "0x0000000000000000000000000000000000000000000000000000000000000001",
          "blockHash": "0xc0bfb7b441ee238c3c3ab8ebaba117d62ec2c73b9975fdccf7658a9c24a8f4de",
          "blockNumber": "0x1d5b018",
          "blockTimestamp": "0x6835bd13",
          "transactionHash": "0xfb93f89af83ca4688fe97c7502ff13150f695fc421457a18b6edacf146160c48",
          "transactionIndex": "0xec",
          "logIndex": "0x272",
          "removed": false
        }
      ],
      "logsBloom": "0x00000000000000000006000000000200000000000000000000000000000000000000000000000040000000000000080000000000000000000000000000000000000000000000000000000000000000000000100000000000000000000000000000000000000000000000000000000000000000000000000000400000000400000000000000000000000000004000000000000000000000000000000000000000000000000000000000000000000000000000000000000000000000000000000000000000000000000000000000200000000000010000000000000000000000000000000000000000000000000000000000008000000000000000000000000000",
      "type": "0x2",
      "transactionHash": "0xfb93f89af83ca4688fe97c7502ff13150f695fc421457a18b6edacf146160c48",
      "transactionIndex": "0xec",
      "blockHash": "0xc0bfb7b441ee238c3c3ab8ebaba117d62ec2c73b9975fdccf7658a9c24a8f4de",
      "blockNumber": "0x1d5b018",
      "gasUsed": "0xbf0e",
      "effectiveGasPrice": "0xe3c48",
      "from": "0xb819a871d20913839c37f316dc914b0570bfc0ee",
      "to": "0x1211d07f0ebea8994f23ec26e1e512929fc8ab08",
      "contractAddress": null,
      "l1BaseFeeScalar": "0x8dd",
      "l1BlobBaseFee": "0x1",
      "l1BlobBaseFeeScalar": "0x101c12",
      "l1Fee": "0xdd60ea788",
      "l1GasPrice": "0x3590d0497",
      "l1GasUsed": "0x71d"
    },
    {
      "status": "0x1",
      "cumulativeGasUsed": "0x306cbd4",
      "logs": [
        {
          "address": "0x1211d07f0ebea8994f23ec26e1e512929fc8ab08",
          "topics": [
            "0xbf768a8bd7016d5df999ce7e5dcbd90856578a89eb68c5a1d5fc1d4a3360107e",
            "0x000000000000000000000000b819a871d20913839c37f316dc914b0570bfc0ee",
            "0x4b1cf52f49d174a2779824195ac83ffb0173882d2de2b8017a7a2ad31efa9bac"
          ],
          "data": "0x0000000000000000000000000000000000000000000000000000000000000000",
          "blockHash": "0xe223377d3ee60b42a96782d5e02e75f4c0dc61940d731f9517c8421d8c315732",
          "blockNumber": "0x1d5b01a",
          "blockTimestamp": "0x6835bd17",
          "transactionHash": "0xaa554311ad70f66a0d1a23e157333f2f984181c76f846d9842600fb06821a5b6",
          "transactionIndex": "0xff",
          "logIndex": "0x411",
          "removed": false
        }
      ],
      "logsBloom": "0x00000000000000000004000000000200000000000000000000000000000000000000000000000040000000000000080000000000000000000000000000000002000000000080000000000000010000000000000000000000000000000000000000000000000000000000000000000000000000000000000000400000000000000000000000000000000000000000000000000000000000000000000000000000000000000000000000000000000002000000000000000000000000000000000000000000000000000000000000000000002000010000000000000200000000000000000000000000000000000000000000000000000000000000000000000000",
      "type": "0x2",
      "transactionHash": "0xaa554311ad70f66a0d1a23e157333f2f984181c76f846d9842600fb06821a5b6",
      "transactionIndex": "0xff",
      "blockHash": "0xe223377d3ee60b42a96782d5e02e75f4c0dc61940d731f9517c8421d8c315732",
      "blockNumber": "0x1d5b01a",
      "gasUsed": "0x6976",
      "effectiveGasPrice": "0xe3c26",
      "from": "0xb819a871d20913839c37f316dc914b0570bfc0ee",
      "to": "0x1211d07f0ebea8994f23ec26e1e512929fc8ab08",
      "contractAddress": null,
      "l1BaseFeeScalar": "0x8dd",
      "l1BlobBaseFee": "0x1",
      "l1BlobBaseFeeScalar": "0x101c12",
      "l1Fee": "0xda200bdc8",
      "l1GasPrice": "0x3590d0497",
      "l1GasUsed": "0x702"
    },
    {
      "status": "0x1",
      "cumulativeGasUsed": "0x2e1654c",
      "logs": [
        {
          "address": "0x1211d07f0ebea8994f23ec26e1e512929fc8ab08",
          "topics": [
            "0xbf768a8bd7016d5df999ce7e5dcbd90856578a89eb68c5a1d5fc1d4a3360107e",
            "0x000000000000000000000000b819a871d20913839c37f316dc914b0570bfc0ee",
            "0xaeffe8a027d13ff1f9fbecaa8f7fc0ff2c5c5d71561a1a572f6bafeeba68abfd"
          ],
          "data": "0x0000000000000000000000000000000000000000000000000000000000000000",
          "blockHash": "0x20da3a9174b4d43c56c9e6f1a7739de609b35fe5889c6740c29cd680ae3afd0a",
          "blockNumber": "0x1d5b01c",
          "blockTimestamp": "0x6835bd1b",
          "transactionHash": "0x84291551004834e1188e5e29c6a8ae1ece5ed0607a4ce3c51b438abd9cfb2ce1",
          "transactionIndex": "0xef",
          "logIndex": "0x255",
          "removed": false
        }
      ],
      "logsBloom": "0x000000000000000000040000000002000000000000000000000000000000000000000000000000400000000000000800001000000000000000000000000000020000000000c0000000000000000000000000000000400000000000000000000000000000000000000000000000000000000000000000000000400000000000000000000000000000000000000000000000000000000000000000000000000000000000000000000000000000000000000000000000000000000000000000000000000000000000000000000000000000000000010000000000000200000000000000000000000000000000000000000000000000000000000000000000000000",
      "type": "0x2",
      "transactionHash": "0x84291551004834e1188e5e29c6a8ae1ece5ed0607a4ce3c51b438abd9cfb2ce1",
      "transactionIndex": "0xef",
      "blockHash": "0x20da3a9174b4d43c56c9e6f1a7739de609b35fe5889c6740c29cd680ae3afd0a",
      "blockNumber": "0x1d5b01c",
      "gasUsed": "0x6976",
      "effectiveGasPrice": "0xe3b43",
      "from": "0xb819a871d20913839c37f316dc914b0570bfc0ee",
      "to": "0x1211d07f0ebea8994f23ec26e1e512929fc8ab08",
      "contractAddress": null,
      "l1BaseFeeScalar": "0x8dd",
      "l1BlobBaseFee": "0x1",
      "l1BlobBaseFeeScalar": "0x101c12",
      "l1Fee": "0xe2af4ebe7",
      "l1GasPrice": "0x37aaedaf4",
      "l1GasUsed": "0x702"
    },
    {
      "status": "0x1",
      "cumulativeGasUsed": "0x2ad0df3",
      "logs": [
        {
          "address": "0x1211d07f0ebea8994f23ec26e1e512929fc8ab08",
          "topics": [
            "0xbf768a8bd7016d5df999ce7e5dcbd90856578a89eb68c5a1d5fc1d4a3360107e",
            "0x000000000000000000000000b819a871d20913839c37f316dc914b0570bfc0ee",
            "0xc8e17e1f507bc6ac21ffd444ba9d6c9d6ea2defdac21571990ea0eb8bcde3a24"
          ],
          "data": "0x0000000000000000000000000000000000000000000000000000000000000000",
          "blockHash": "0x74fa8fdb00a41049c103690a66222b33b45d704e0d895b097ca9cf57ee528c54",
          "blockNumber": "0x1d5b01e",
          "blockTimestamp": "0x6835bd1f",
          "transactionHash": "0x9aa8ab382561d1b82f1e3efd001128e8dad5f84209f1b2c54b72ea70ad400a03",
          "transactionIndex": "0xfa",
          "logIndex": "0x324",
          "removed": false
        }
      ],
      "logsBloom": "0x00000000000000000004000000000200000000000000000000000000000000000000020000000040000000000000080000000000000000000000000000000002000000000080000000000000000000000000000000000000000000000000000000000000000000000000000000000008000000000000000000400000000000000000000000000000000000000000000000000000000000000000000000000000000000000400000000000000000000000000000000000000000000000000000000000000000000000000000000000000000000010000000000000200000000000000000000000000000000000000000000000000000000000000000000000000",
      "type": "0x2",
      "transactionHash": "0x9aa8ab382561d1b82f1e3efd001128e8dad5f84209f1b2c54b72ea70ad400a03",
      "transactionIndex": "0xfa",
      "blockHash": "0x74fa8fdb00a41049c103690a66222b33b45d704e0d895b097ca9cf57ee528c54",
      "blockNumber": "0x1d5b01e",
      "gasUsed": "0x6976",
      "effectiveGasPrice": "0xe392f",
      "from": "0xb819a871d20913839c37f316dc914b0570bfc0ee",
      "to": "0x1211d07f0ebea8994f23ec26e1e512929fc8ab08",
      "contractAddress": null,
      "l1BaseFeeScalar": "0x8dd",
      "l1BlobBaseFee": "0x1",
      "l1BlobBaseFeeScalar": "0x101c12",
      "l1Fee": "0xe2af4ebe7",
      "l1GasPrice": "0x37aaedaf4",
      "l1GasUsed": "0x702"
    },
    {
      "status": "0x1",
      "cumulativeGasUsed": "0x3ada571",
      "logs": [
        {
          "address": "0x1211d07f0ebea8994f23ec26e1e512929fc8ab08",
          "topics": [
            "0xbf768a8bd7016d5df999ce7e5dcbd90856578a89eb68c5a1d5fc1d4a3360107e",
            "0x000000000000000000000000b819a871d20913839c37f316dc914b0570bfc0ee",
            "0x3e008573b76fa95febaab72c06ec152363f92f2b27dcaf00fbd0bb77a70593db"
          ],
          "data": "0x0000000000000000000000000000000000000000000000000000000000000000",
          "blockHash": "0xdd99747ba36b21a665756c3ec0ac27c5b3ce7dd775c289e0107523667a36d45a",
          "blockNumber": "0x1d5b020",
          "blockTimestamp": "0x6835bd23",
          "transactionHash": "0x44f80c6afdc5f42898e401f9fa0d029cf6b75fa08971538bdc0ec338788a1b94",
          "transactionIndex": "0xec",
          "logIndex": "0x3a7",
          "removed": false
        }
      ],
      "logsBloom": "0x00000000000000000004000000000200000000000000000000000000000000000000000000000040000000000000080000000000000000000000000000000002100000000080000000000000000000000000000000000000000000000000000000000000000000000000000000000000000000000000000000400000000000000000000000000000000000000000000000000000000000000000000000000000000000000000000000000000000000200000000000000000000000000000000000000000000000000000000000000000000000010000000000000200000000000000000000000000000000004000000000000000000000000000000000000000",
      "type": "0x2",
      "transactionHash": "0x44f80c6afdc5f42898e401f9fa0d029cf6b75fa08971538bdc0ec338788a1b94",
      "transactionIndex": "0xec",
      "blockHash": "0xdd99747ba36b21a665756c3ec0ac27c5b3ce7dd775c289e0107523667a36d45a",
      "blockNumber": "0x1d5b020",
      "gasUsed": "0x695e",
      "effectiveGasPrice": "0xe38e7",
      "from": "0xb819a871d20913839c37f316dc914b0570bfc0ee",
      "to": "0x1211d07f0ebea8994f23ec26e1e512929fc8ab08",
      "contractAddress": null,
      "l1BaseFeeScalar": "0x8dd",
      "l1BlobBaseFee": "0x1",
      "l1BlobBaseFeeScalar": "0x101c12",
      "l1Fee": "0xe2af4ebe7",
      "l1GasPrice": "0x37aaedaf4",
      "l1GasUsed": "0x702"
    },
    {
      "status": "0x1",
      "cumulativeGasUsed": "0x2691764",
      "logs": [
        {
          "address": "0x1211d07f0ebea8994f23ec26e1e512929fc8ab08",
          "topics": [
            "0xbf768a8bd7016d5df999ce7e5dcbd90856578a89eb68c5a1d5fc1d4a3360107e",
            "0x000000000000000000000000b819a871d20913839c37f316dc914b0570bfc0ee",
            "0x46c2ab528350fb4f59e61eb6c0382446a3636f13f7846680a2734e5f829735a4"
          ],
          "data": "0x0000000000000000000000000000000000000000000000000000000000000000",
          "blockHash": "0xf81722462f36a24f89096e6c9c59d235db7a158a66cf5b3117836702141aedce",
          "blockNumber": "0x1d5b022",
          "blockTimestamp": "0x6835bd27",
          "transactionHash": "0xff02a92db3c8e181d61feaced2e4473328aa00dd5429e645a8b82bda1bf17ed7",
          "transactionIndex": "0xc8",
          "logIndex": "0x8df",
          "removed": false
        }
      ],
      "logsBloom": "0x00000000000000200004000000000200000000000000000000000000000000000000000000000040000000000000080004000000000000000000000000000002000000000080000000000000000000000000000000000000000000000000000000000000000000000000000000000000000000000000000000400000000000000000000000000000000000000000000000000000000000000000000000000000000000000000000000000000000000000000000000000000000000000000000000000000000000000000000000000000000000010000000000000200000000400000000000000000000000000000000000000000000000000000000000000000",
      "type": "0x2",
      "transactionHash": "0xff02a92db3c8e181d61feaced2e4473328aa00dd5429e645a8b82bda1bf17ed7",
      "transactionIndex": "0xc8",
      "blockHash": "0xf81722462f36a24f89096e6c9c59d235db7a158a66cf5b3117836702141aedce",
      "blockNumber": "0x1d5b022",
      "gasUsed": "0x6976",
      "effectiveGasPrice": "0xe393d",
      "from": "0xb819a871d20913839c37f316dc914b0570bfc0ee",
      "to": "0x1211d07f0ebea8994f23ec26e1e512929fc8ab08",
      "contractAddress": null,
      "l1BaseFeeScalar": "0x8dd",
      "l1BlobBaseFee": "0x1",
      "l1BlobBaseFeeScalar": "0x101c12",
      "l1Fee": "0xdf11ac4dc",
      "l1GasPrice": "0x36c79e150",
      "l1GasUsed": "0x702"
    },
    {
      "status": "0x1",
      "cumulativeGasUsed": "0x2d185f1",
      "logs": [
        {
          "address": "0x1211d07f0ebea8994f23ec26e1e512929fc8ab08",
          "topics": [
            "0xbf768a8bd7016d5df999ce7e5dcbd90856578a89eb68c5a1d5fc1d4a3360107e",
            "0x000000000000000000000000b819a871d20913839c37f316dc914b0570bfc0ee",
            "0xb0487bdd3330b4d082e49dfc24e1aa23706abcc632f9215fee20a474a9a88457"
          ],
          "data": "0x0000000000000000000000000000000000000000000000000000000000000000",
          "blockHash": "0x03ef658ea508f8ed24be556410f5b6f8528c4c79c2459b04d7344ce2e9ec8e3a",
          "blockNumber": "0x1d5b023",
          "blockTimestamp": "0x6835bd29",
          "transactionHash": "0xc30b14b5093eee29be458c3328c9472952d164db2f8ecaf0681de0f0ce460d9d",
          "transactionIndex": "0xd6",
          "logIndex": "0x292",
          "removed": false
        }
      ],
      "logsBloom": "0x00000000000000000004000000000200000000000000000000000000000000000000000000000040000000000000080000000000000000000000000000000002000000000080000000000000000000000000000000000000100000000000000000000000000000000000000000000000000000000000000000400000000000000000000000000000000000000000000000000000000000000000000000040000400000000000000000000000000000000000000000000000000000000000000000000000000000000000000000000000000000010000000000000200000000000000000000000000000000000000000000000000000000000000000000000000",
      "type": "0x2",
      "transactionHash": "0xc30b14b5093eee29be458c3328c9472952d164db2f8ecaf0681de0f0ce460d9d",
      "transactionIndex": "0xd6",
      "blockHash": "0x03ef658ea508f8ed24be556410f5b6f8528c4c79c2459b04d7344ce2e9ec8e3a",
      "blockNumber": "0x1d5b023",
      "gasUsed": "0x6976",
      "effectiveGasPrice": "0xe3598",
      "from": "0xb819a871d20913839c37f316dc914b0570bfc0ee",
      "to": "0x1211d07f0ebea8994f23ec26e1e512929fc8ab08",
      "contractAddress": null,
      "l1BaseFeeScalar": "0x8dd",
      "l1BlobBaseFee": "0x1",
      "l1BlobBaseFeeScalar": "0x101c12",
      "l1Fee": "0xdf11ac4dc",
      "l1GasPrice": "0x36c79e150",
      "l1GasUsed": "0x702"
    },
    {
      "status": "0x1",
      "cumulativeGasUsed": "0x33a4804",
      "logs": [
        {
          "address": "0x1211d07f0ebea8994f23ec26e1e512929fc8ab08",
          "topics": [
            "0xbf768a8bd7016d5df999ce7e5dcbd90856578a89eb68c5a1d5fc1d4a3360107e",
            "0x000000000000000000000000b819a871d20913839c37f316dc914b0570bfc0ee",
            "0xeefbfa32ce9dd99a431be27221a8732bc1e7b3d032ff4cbd56226b17783f7413"
          ],
          "data": "0x0000000000000000000000000000000000000000000000000000000000000000",
          "blockHash": "0x7874a4dd08ab2e723328b53494c14fa69193cf9bebb8206fc1bee4535754b3d9",
          "blockNumber": "0x1d5b025",
          "blockTimestamp": "0x6835bd2d",
          "transactionHash": "0xe5e23769b1dab7250342eeeaee149347f86570e1d52dda1b3ba7bf2f5f6625a4",
          "transactionIndex": "0xf9",
          "logIndex": "0x479",
          "removed": false
        }
      ],
      "logsBloom": "0x00000000000000000004000000000200000000000000000000000000000000000000000000000040000000000000080000000000000000000000000000000002000000000080000000000100000000000000000000000000000000000000000000000000000000000000000000000000000000000000000000400000000000800000000000000000000000000000000000000000000000000000000000000000000000000000000000000000000000000000000000000000000000000000000000000000000000000000000000000000000000010000000000000200000000000000000000000000000000000000000000000000000400000000000000000000",
      "type": "0x2",
      "transactionHash": "0xe5e23769b1dab7250342eeeaee149347f86570e1d52dda1b3ba7bf2f5f6625a4",
      "transactionIndex": "0xf9",
      "blockHash": "0x7874a4dd08ab2e723328b53494c14fa69193cf9bebb8206fc1bee4535754b3d9",
      "blockNumber": "0x1d5b025",
      "gasUsed": "0x6976",
      "effectiveGasPrice": "0xe3180",
      "from": "0xb819a871d20913839c37f316dc914b0570bfc0ee",
      "to": "0x1211d07f0ebea8994f23ec26e1e512929fc8ab08",
      "contractAddress": null,
      "l1BaseFeeScalar": "0x8dd",
      "l1BlobBaseFee": "0x1",
      "l1BlobBaseFeeScalar": "0x101c12",
      "l1Fee": "0xdd67ccb8b",
      "l1GasPrice": "0x36c79e150",
      "l1GasUsed": "0x6f5"
    },
    {
      "status": "0x1",
      "cumulativeGasUsed": "0x2f9dd92",
      "logs": [
        {
          "address": "0x1211d07f0ebea8994f23ec26e1e512929fc8ab08",
          "topics": [
            "0xbf768a8bd7016d5df999ce7e5dcbd90856578a89eb68c5a1d5fc1d4a3360107e",
            "0x000000000000000000000000b819a871d20913839c37f316dc914b0570bfc0ee",
            "0xaa85d4d7655b58b3177edbbb41bc17f2e2ebffd26ace9d6b56244a5ee16c7806"
          ],
          "data": "0x0000000000000000000000000000000000000000000000000000000000000000",
          "blockHash": "0x6d9f0e8e58553c304524ffbfc385a768b66eda0feece615f5c37a23510e25481",
          "blockNumber": "0x1d5b027",
          "blockTimestamp": "0x6835bd31",
          "transactionHash": "0x46fe542c26e0e1929d13090d4002385a19802f46b8fbed2fa6019076ee2efa0a",
          "transactionIndex": "0xdb",
          "logIndex": "0x301",
          "removed": false
        }
      ],
      "logsBloom": "0x00000000000000000006000000000200000000000000000000000000000000000000000000000040000000000000080000000000000000000000000000000002000000000080000000000000000000000000000000000000000000000000000000000000000000000000000000000000000000000000000000400000000000000000000000000000000000000000000000000000000000000000000000000000000000000000000000000000000000000000000000000000000000000000000000000000000000000000000000200000000000010000000000000200000000000000000000000000000000000000000000008000000000000000000000000000",
      "type": "0x2",
      "transactionHash": "0x46fe542c26e0e1929d13090d4002385a19802f46b8fbed2fa6019076ee2efa0a",
      "transactionIndex": "0xdb",
      "blockHash": "0x6d9f0e8e58553c304524ffbfc385a768b66eda0feece615f5c37a23510e25481",
      "blockNumber": "0x1d5b027",
      "gasUsed": "0x6976",
      "effectiveGasPrice": "0xe309c",
      "from": "0xb819a871d20913839c37f316dc914b0570bfc0ee",
      "to": "0x1211d07f0ebea8994f23ec26e1e512929fc8ab08",
      "contractAddress": null,
      "l1BaseFeeScalar": "0x8dd",
      "l1BlobBaseFee": "0x1",
      "l1BlobBaseFeeScalar": "0x101c12",
      "l1Fee": "0xdf11ac4dc",
      "l1GasPrice": "0x36c79e150",
      "l1GasUsed": "0x702"
    },
    {
      "status": "0x1",
      "cumulativeGasUsed": "0x39ad144",
      "logs": [
        {
          "address": "0x269c36a173d881720544fb303e681370158ff1fd",
          "topics": [
            "0x8be0079c531659141344cd1fd0a4f28419497f9722a3daafe3b4186f6b6457e0",
            "0x000000000000000000000000b819a871d20913839c37f316dc914b0570bfc0ee",
            "0x00000000000000000000000091b945cbb063648c44271868a7a0c7bdff64827d"
          ],
          "data": "0x",
          "blockHash": "0x2e1f880c67e76852b58ba0a28146448e95d6475c2e373aabe1f8e49dbfa5abc0",
          "blockNumber": "0x1d5b029",
          "blockTimestamp": "0x6835bd35",
          "transactionHash": "0x44451dba16d44252f9a5b1a3d6102d9b1d6ed09dcacce1953fe44d25b814233c",
          "transactionIndex": "0xe5",
          "logIndex": "0x376",
          "removed": false
        }
      ],
      "logsBloom": "0x00000000000000000000000000000000000000000000000000800000000000000000000000000008000000000000000000000010000000000000000000000002000000000080000000000000000000000001100000000000000000000000000000000000000000000000000000000000000000000000000000000000000400400000000000000000000000004000000000000000000000000000000000000000000000000000000000100000000000000000000000000000000000000000000000000000000000000000000000000000000000000000000000000200000000000000000000000000000000000000000000000000000000000000000000000000",
      "type": "0x2",
      "transactionHash": "0x44451dba16d44252f9a5b1a3d6102d9b1d6ed09dcacce1953fe44d25b814233c",
      "transactionIndex": "0xe5",
      "blockHash": "0x2e1f880c67e76852b58ba0a28146448e95d6475c2e373aabe1f8e49dbfa5abc0",
      "blockNumber": "0x1d5b029",
      "gasUsed": "0x8368",
      "effectiveGasPrice": "0xe2eae",
      "from": "0xb819a871d20913839c37f316dc914b0570bfc0ee",
      "to": "0x269c36a173d881720544fb303e681370158ff1fd",
      "contractAddress": null,
      "l1BaseFeeScalar": "0x8dd",
      "l1BlobBaseFee": "0x1",
      "l1BlobBaseFeeScalar": "0x101c12",
      "l1Fee": "0xc7e142ab7",
      "l1GasPrice": "0x370ea96e1",
      "l1GasUsed": "0x640"
    },
    {
      "status": "0x1",
      "cumulativeGasUsed": "0x2f0ff43",
      "logs": [
        {
          "address": "0xc7bc6bd45eb84d594f51ced3c5497e6812c7732f",
          "topics": [
            "0x8be0079c531659141344cd1fd0a4f28419497f9722a3daafe3b4186f6b6457e0",
            "0x000000000000000000000000b819a871d20913839c37f316dc914b0570bfc0ee",
            "0x00000000000000000000000091b945cbb063648c44271868a7a0c7bdff64827d"
          ],
          "data": "0x",
          "blockHash": "0x1258eaf0ead5369b4250e5ad5781c8a109fe047fe491d6f8635f6691c77132d0",
          "blockNumber": "0x1d5b02b",
          "blockTimestamp": "0x6835bd39",
          "transactionHash": "0xa1a3487e6f994e9a8581819d0fba2695a24797dc2a6b51995d9e874d572f431e",
          "transactionIndex": "0xb3",
          "logIndex": "0x288",
          "removed": false
        }
      ],
      "logsBloom": "0x00000000000000000000000000000000000000000000000000800000000000000000000000000000000000000000000000000000000000000000000000000002008000000080000000000000000080000001100000000000000000000000000000000000000000000000000040000000000000000000000000000000000400400000000000000000000000004000000000000000000000000000000000000000000000000000000000000000000000000000000000000000000000000000000000000000000000000000000000000000000000000000000000000200000000000000000000000000000000000000000000000000000000000000000000000000",
      "type": "0x2",
      "transactionHash": "0xa1a3487e6f994e9a8581819d0fba2695a24797dc2a6b51995d9e874d572f431e",
      "transactionIndex": "0xb3",
      "blockHash": "0x1258eaf0ead5369b4250e5ad5781c8a109fe047fe491d6f8635f6691c77132d0",
      "blockNumber": "0x1d5b02b",
      "gasUsed": "0x8368",
      "effectiveGasPrice": "0xe32c0",
      "from": "0xb819a871d20913839c37f316dc914b0570bfc0ee",
      "to": "0xc7bc6bd45eb84d594f51ced3c5497e6812c7732f",
      "contractAddress": null,
      "l1BaseFeeScalar": "0x8dd",
      "l1BlobBaseFee": "0x1",
      "l1BlobBaseFeeScalar": "0x101c12",
      "l1Fee": "0xc7e142ab7",
      "l1GasPrice": "0x370ea96e1",
      "l1GasUsed": "0x640"
    },
    {
      "status": "0x1",
      "cumulativeGasUsed": "0x295cd9c",
      "logs": [
        {
          "address": "0xdf0635c1ecfdf08146150691a97e2ff6a8aa1a90",
          "topics": [
            "0x8be0079c531659141344cd1fd0a4f28419497f9722a3daafe3b4186f6b6457e0",
            "0x000000000000000000000000b819a871d20913839c37f316dc914b0570bfc0ee",
            "0x00000000000000000000000091b945cbb063648c44271868a7a0c7bdff64827d"
          ],
          "data": "0x",
          "blockHash": "0x018ff393540ca3c378042a7e89284a9b1a717ab0ee064d5fe3fd490d636d2ca3",
          "blockNumber": "0x1d5b02d",
          "blockTimestamp": "0x6835bd3d",
          "transactionHash": "0xfbb2f34bb7192d3e5fe47a875143816b7046db65845580afa480cd5d99b777c2",
          "transactionIndex": "0xc6",
          "logIndex": "0x286",
          "removed": false
        }
      ],
      "logsBloom": "0x00000000000001000000000000000000000000000000000000800000000000000000000000000000000000000000002000000000000000000000400000000002000000000080000000000000000000000001100000000000000000000000000000000000000000000000000000000000000000000000000000000000000400400000000000000000000000004000000000000000000000000000000000000000000000000000000000000000000000000000000000000000000000000000000000000000000000000000000000000000000000000000000000000200000000000000000000000000000000000000000000000000000000000000000000000000",
      "type": "0x2",
      "transactionHash": "0xfbb2f34bb7192d3e5fe47a875143816b7046db65845580afa480cd5d99b777c2",
      "transactionIndex": "0xc6",
      "blockHash": "0x018ff393540ca3c378042a7e89284a9b1a717ab0ee064d5fe3fd490d636d2ca3",
      "blockNumber": "0x1d5b02d",
      "gasUsed": "0x837e",
      "effectiveGasPrice": "0xe3386",
      "from": "0xb819a871d20913839c37f316dc914b0570bfc0ee",
      "to": "0xdf0635c1ecfdf08146150691a97e2ff6a8aa1a90",
      "contractAddress": null,
      "l1BaseFeeScalar": "0x8dd",
      "l1BlobBaseFee": "0x1",
      "l1BlobBaseFeeScalar": "0x101c12",
      "l1Fee": "0xc7e142ab7",
      "l1GasPrice": "0x370ea96e1",
      "l1GasUsed": "0x640"
    },
    {
      "status": "0x1",
      "cumulativeGasUsed": "0x29ec4f0",
      "logs": [
        {
          "address": "0x2b588f7f4832561e46924f3ea54c244569724915",
          "topics": [
            "0x8be0079c531659141344cd1fd0a4f28419497f9722a3daafe3b4186f6b6457e0",
            "0x000000000000000000000000b819a871d20913839c37f316dc914b0570bfc0ee",
            "0x00000000000000000000000091b945cbb063648c44271868a7a0c7bdff64827d"
          ],
          "data": "0x",
          "blockHash": "0x9b68475296e7101b8e6c2beccdaa19b595c9d4fcc983eb5c620eba41c9a19b07",
          "blockNumber": "0x1d5b02f",
          "blockTimestamp": "0x6835bd41",
          "transactionHash": "0xbc85682872bac7ade20f101e0851d9fa54657003cb8c9504895cf89f04746754",
          "transactionIndex": "0xe4",
          "logIndex": "0x2d0",
          "removed": false
        }
      ],
      "logsBloom": "0x00000000000000000000000000000000000000000000000000800000000000000000000000000000000000000000000000000000000000000000000000020002000000200080000000000000000000000001100000000000000000000000000000000000000000000000000000000000000000000000000000000000000400400000000000000000000000004000000000000000000000000000000000000000000000000000000000000000000000000000000000000000000000000000000000000000000000000000000000000000000000000000000000000200000000000000000000000000000000000000000000000000000000000000000000020000",
      "type": "0x2",
      "transactionHash": "0xbc85682872bac7ade20f101e0851d9fa54657003cb8c9504895cf89f04746754",
      "transactionIndex": "0xe4",
      "blockHash": "0x9b68475296e7101b8e6c2beccdaa19b595c9d4fcc983eb5c620eba41c9a19b07",
      "blockNumber": "0x1d5b02f",
      "gasUsed": "0x8368",
      "effectiveGasPrice": "0xe2f26",
      "from": "0xb819a871d20913839c37f316dc914b0570bfc0ee",
      "to": "0x2b588f7f4832561e46924f3ea54c244569724915",
      "contractAddress": null,
      "l1BaseFeeScalar": "0x8dd",
      "l1BlobBaseFee": "0x1",
      "l1BlobBaseFeeScalar": "0x101c12",
      "l1Fee": "0xc24c98c90",
      "l1GasPrice": "0x3585224b0",
      "l1GasUsed": "0x640"
    },
    {
      "status": "0x1",
      "cumulativeGasUsed": "0x324bf9d",
      "logs": [
        {
          "address": "0x1d8e8cefeb085f3211ab6a443ad9051b54d1cd1a",
          "topics": [
            "0x8be0079c531659141344cd1fd0a4f28419497f9722a3daafe3b4186f6b6457e0",
            "0x000000000000000000000000b819a871d20913839c37f316dc914b0570bfc0ee",
            "0x00000000000000000000000091b945cbb063648c44271868a7a0c7bdff64827d"
          ],
          "data": "0x",
          "blockHash": "0x9477c6adc5d8d7402f4a29b2f29f9480c130cd0db51d7e123f44e8ff215ad46a",
          "blockNumber": "0x1d5b031",
          "blockTimestamp": "0x6835bd45",
          "transactionHash": "0xd072a2eecd56c331d46e09468d48c0fe6563d9c331439abadc8608307e46d761",
          "transactionIndex": "0xe8",
          "logIndex": "0x29e",
          "removed": false
        }
      ],
      "logsBloom": "0x00000000000000000000000002000000000000000800000000800000000000000000000000000000000000000000000000000000000000000000000000000002000000000080000000000000000000000001100000000000000000000000000000000000000000000000000000000000000000000000000000000000000400400000000000000000000000004000000000000000000000000000000000000000000000000000000000000000000000000000000000000000000000000000000000000000000000000000000000000000000000000000000000000200000000000000000000000000000000000000000000000000000000000000000000800000",
      "type": "0x2",
      "transactionHash": "0xd072a2eecd56c331d46e09468d48c0fe6563d9c331439abadc8608307e46d761",
      "transactionIndex": "0xe8",
      "blockHash": "0x9477c6adc5d8d7402f4a29b2f29f9480c130cd0db51d7e123f44e8ff215ad46a",
      "blockNumber": "0x1d5b031",
      "gasUsed": "0x8368",
      "effectiveGasPrice": "0xe28fe",
      "from": "0xb819a871d20913839c37f316dc914b0570bfc0ee",
      "to": "0x1d8e8cefeb085f3211ab6a443ad9051b54d1cd1a",
      "contractAddress": null,
      "l1BaseFeeScalar": "0x8dd",
      "l1BlobBaseFee": "0x1",
      "l1BlobBaseFeeScalar": "0x101c12",
      "l1Fee": "0xc24c98c90",
      "l1GasPrice": "0x3585224b0",
      "l1GasUsed": "0x640"
    },
    {
      "status": "0x1",
      "cumulativeGasUsed": "0x3a997b6",
      "logs": [
        {
          "address": "0x8bad0c523516262a439197736fff982f5e0987cc",
          "topics": [
            "0x8be0079c531659141344cd1fd0a4f28419497f9722a3daafe3b4186f6b6457e0",
            "0x000000000000000000000000b819a871d20913839c37f316dc914b0570bfc0ee",
            "0x00000000000000000000000091b945cbb063648c44271868a7a0c7bdff64827d"
          ],
          "data": "0x",
          "blockHash": "0xbc00fdca9161f811f9c89c37e9f1649759d2f79ccbaf315b3568ea0e98a09368",
          "blockNumber": "0x1d5b033",
          "blockTimestamp": "0x6835bd49",
          "transactionHash": "0x0710707777f41324355fb89b63700e1c79558e1f9ba27f56757d61db25977337",
          "transactionIndex": "0x107",
          "logIndex": "0x516",
          "removed": false
        }
      ],
      "logsBloom": "0x00000000000000000000000000000000000000000000000000800000000000000000000000000000000000000000000000000000000000000000000000000002000000000088000000000000000000000001100000000000000000000000000000000000000000000000000000000000000000000000000000000020000400400000000000000000000000004000000000000000000000000000000000000000000000000000000000000000000000000000000000000000000000000000000000000000000000000000000000000000010000000000000000000200000000000000000000000000000000000000000000000000000000000000000000000000",
      "type": "0x2",
      "transactionHash": "0x0710707777f41324355fb89b63700e1c79558e1f9ba27f56757d61db25977337",
      "transactionIndex": "0x107",
      "blockHash": "0xbc00fdca9161f811f9c89c37e9f1649759d2f79ccbaf315b3568ea0e98a09368",
      "blockNumber": "0x1d5b033",
      "gasUsed": "0x8368",
      "effectiveGasPrice": "0xe296f",
      "from": "0xb819a871d20913839c37f316dc914b0570bfc0ee",
      "to": "0x8bad0c523516262a439197736fff982f5e0987cc",
      "contractAddress": null,
      "l1BaseFeeScalar": "0x8dd",
      "l1BlobBaseFee": "0x1",
      "l1BlobBaseFeeScalar": "0x101c12",
      "l1Fee": "0xc24c98c90",
      "l1GasPrice": "0x3585224b0",
      "l1GasUsed": "0x640"
    },
    {
      "status": "0x1",
      "cumulativeGasUsed": "0x41ccaef",
      "logs": [
        {
          "address": "0x4df3dd62db219c47f6a7cb1be02c511afceadf5e",
          "topics": [
            "0x8be0079c531659141344cd1fd0a4f28419497f9722a3daafe3b4186f6b6457e0",
            "0x000000000000000000000000b819a871d20913839c37f316dc914b0570bfc0ee",
            "0x00000000000000000000000091b945cbb063648c44271868a7a0c7bdff64827d"
          ],
          "data": "0x",
          "blockHash": "0x6af3896232692104576861a58a781afef6f547039571d0d49429861b9df1a3ef",
          "blockNumber": "0x1d5b035",
          "blockTimestamp": "0x6835bd4d",
          "transactionHash": "0x49cf9835906c7c9960cbbb133a821e9457dbb7adbb6e9d57b2a40fba0d56d5cc",
          "transactionIndex": "0x11a",
          "logIndex": "0xbd5",
          "removed": false
        }
      ],
      "logsBloom": "0x00000000000000000000000000000000000000000000000000800000000000000000000000000000000000000000000000000000000000000000000000000002000000000080000000000000000000000001100000000000000000000000000000000000000000000000000000000004000000000000000000000000000400400000000000000000000000004000000000000000000000000000000000000000000000000000000000000000010000000000000000000000000000000000000000000000000000000000000000000000000000000000000000000200000000000000000000000000000000000000000000000000000000000000002000000000",
      "type": "0x2",
      "transactionHash": "0x49cf9835906c7c9960cbbb133a821e9457dbb7adbb6e9d57b2a40fba0d56d5cc",
      "transactionIndex": "0x11a",
      "blockHash": "0x6af3896232692104576861a58a781afef6f547039571d0d49429861b9df1a3ef",
      "blockNumber": "0x1d5b035",
      "gasUsed": "0x8368",
      "effectiveGasPrice": "0xe2a42",
      "from": "0xb819a871d20913839c37f316dc914b0570bfc0ee",
      "to": "0x4df3dd62db219c47f6a7cb1be02c511afceadf5e",
      "contractAddress": null,
      "l1BaseFeeScalar": "0x8dd",
      "l1BlobBaseFee": "0x1",
      "l1BlobBaseFeeScalar": "0x101c12",
      "l1Fee": "0xba45e02ae",
      "l1GasPrice": "0x334f284db",
      "l1GasUsed": "0x640"
    },
    {
      "status": "0x1",
      "cumulativeGasUsed": "0x37eec15",
      "logs": [
        {
          "address": "0xe32fc580e6e3f6f5947bc2d900062dce019f375f",
          "topics": [
            "0x8be0079c531659141344cd1fd0a4f28419497f9722a3daafe3b4186f6b6457e0",
            "0x000000000000000000000000b819a871d20913839c37f316dc914b0570bfc0ee",
            "0x00000000000000000000000091b945cbb063648c44271868a7a0c7bdff64827d"
          ],
          "data": "0x",
          "blockHash": "0xceedc9fd19e26b557aa1b4a1981658337f9ff4fa7f2c6089f0d31d89464eed26",
          "blockNumber": "0x1d5b037",
          "blockTimestamp": "0x6835bd51",
          "transactionHash": "0x11f54b8205a13b30ef5be338fb6fe4c1c44edb7414e3772861653a6ecf35acd6",
          "transactionIndex": "0xfd",
          "logIndex": "0x4ce",
          "removed": false
        }
      ],
      "logsBloom": "0x00000000000000000000000000000000000000000000000000800000000000000000000000000000000000000000000000000000000000000000000000000002000000000080200000000000000000000001100000000000000000000000000000000000000000000000000000000000000000000000000000000000000400400000000000000000000000004000000000000000000000000000000000000000000000000000000000000000000000000000000000000000000000000000000000000000000000000000000000000000000000000000000000000200000000000000000000000000000000000000000000001000000000000000080000000000",
      "type": "0x2",
      "transactionHash": "0x11f54b8205a13b30ef5be338fb6fe4c1c44edb7414e3772861653a6ecf35acd6",
      "transactionIndex": "0xfd",
      "blockHash": "0xceedc9fd19e26b557aa1b4a1981658337f9ff4fa7f2c6089f0d31d89464eed26",
      "blockNumber": "0x1d5b037",
      "gasUsed": "0x6fb4",
      "effectiveGasPrice": "0xe3304",
      "from": "0xb819a871d20913839c37f316dc914b0570bfc0ee",
      "to": "0xe32fc580e6e3f6f5947bc2d900062dce019f375f",
      "contractAddress": null,
      "l1BaseFeeScalar": "0x8dd",
      "l1BlobBaseFee": "0x1",
      "l1BlobBaseFeeScalar": "0x101c12",
      "l1Fee": "0xba45e02ae",
      "l1GasPrice": "0x334f284db",
      "l1GasUsed": "0x640"
    },
    {
      "status": "0x1",
      "cumulativeGasUsed": "0x312f2d7",
      "logs": [
        {
          "address": "0xddcca3eda77622b7ff5b7f11b340a8f818a87d2c",
          "topics": [
            "0x8be0079c531659141344cd1fd0a4f28419497f9722a3daafe3b4186f6b6457e0",
            "0x000000000000000000000000b819a871d20913839c37f316dc914b0570bfc0ee",
            "0x00000000000000000000000091b945cbb063648c44271868a7a0c7bdff64827d"
          ],
          "data": "0x",
          "blockHash": "0x1cafaa0a1a50ae678ad7b58ee7565514fc32c9088313935311534ff1561880d6",
          "blockNumber": "0x1d5b039",
          "blockTimestamp": "0x6835bd55",
          "transactionHash": "0x50cae1eee88c064bd0c2b01e168a82bc91ea9f7a9d88af3a24eca1b7ad6c9dd3",
          "transactionIndex": "0xea",
          "logIndex": "0x2b8",
          "removed": false
        }
      ],
      "logsBloom": "0x00000000000000000000000000000000000000000000000100800000000000000000000000000000000000000000000000000000000000000000000000000002000000000080000000000000000000000001100000000000000000000000000000000000000000000000000000000000000000000000000000000000000400400000000010000000000000004000000000000000000000000000000000000000000000000000000000000000000000000000000000000000000000000001000000000000000000000000000000000000000000000000000000000200000000000000000000000000000000000000000000000000000000000000000000000000",
      "type": "0x2",
      "transactionHash": "0x50cae1eee88c064bd0c2b01e168a82bc91ea9f7a9d88af3a24eca1b7ad6c9dd3",
      "transactionIndex": "0xea",
      "blockHash": "0x1cafaa0a1a50ae678ad7b58ee7565514fc32c9088313935311534ff1561880d6",
      "blockNumber": "0x1d5b039",
      "gasUsed": "0x6fed",
      "effectiveGasPrice": "0xe34ec",
      "from": "0xb819a871d20913839c37f316dc914b0570bfc0ee",
      "to": "0xddcca3eda77622b7ff5b7f11b340a8f818a87d2c",
      "contractAddress": null,
      "l1BaseFeeScalar": "0x8dd",
      "l1BlobBaseFee": "0x1",
      "l1BlobBaseFeeScalar": "0x101c12",
      "l1Fee": "0xba45e02ae",
      "l1GasPrice": "0x334f284db",
      "l1GasUsed": "0x640"
    },
    {
      "status": "0x1",
      "cumulativeGasUsed": "0x3bc88c6",
      "logs": [
        {
          "address": "0x1211d07f0ebea8994f23ec26e1e512929fc8ab08",
          "topics": [
            "0x8be0079c531659141344cd1fd0a4f28419497f9722a3daafe3b4186f6b6457e0",
            "0x000000000000000000000000b819a871d20913839c37f316dc914b0570bfc0ee",
            "0x00000000000000000000000091b945cbb063648c44271868a7a0c7bdff64827d"
          ],
          "data": "0x",
          "blockHash": "0x7a2cbd244871623e51548e9511757e0aaa4ecbb660434a0bafb503204f4794d9",
          "blockNumber": "0x1d5b03b",
          "blockTimestamp": "0x6835bd59",
          "transactionHash": "0xfd3276620e3099a2ef2df8b6f0c7cb1911e808578661b0201799ba0a158c713b",
          "transactionIndex": "0x11c",
          "logIndex": "0x40f",
          "removed": false
        }
      ],
      "logsBloom": "0x00000000000000000000000000000000000000000000000000800000000000000000000000000040000000000000080000000000000000000000000000000002000000000080000000000000000000000001100000000000000000000000000000000000000000000000000000000000000000000000000000400000000400400000000000000000000000004000000000000000000000000000000000000000000000000000000000000000000000000000000000000000000000000000000000000000000000000000000000000000000000000000000000000200000000000000000000000000000000000000000000000000000000000000000000000000",
      "type": "0x2",
      "transactionHash": "0xfd3276620e3099a2ef2df8b6f0c7cb1911e808578661b0201799ba0a158c713b",
      "transactionIndex": "0x11c",
      "blockHash": "0x7a2cbd244871623e51548e9511757e0aaa4ecbb660434a0bafb503204f4794d9",
      "blockNumber": "0x1d5b03b",
      "gasUsed": "0x7003",
      "effectiveGasPrice": "0xe3102",
      "from": "0xb819a871d20913839c37f316dc914b0570bfc0ee",
      "to": "0x1211d07f0ebea8994f23ec26e1e512929fc8ab08",
      "contractAddress": null,
      "l1BaseFeeScalar": "0x8dd",
      "l1BlobBaseFee": "0x1",
      "l1BlobBaseFeeScalar": "0x101c12",
      "l1Fee": "0xc2ed67bb2",
      "l1GasPrice": "0x35b16dccc",
      "l1GasUsed": "0x640"
    },
    {
      "status": "0x1",
      "cumulativeGasUsed": "0x37d1af4",
      "logs": [
        {
          "address": "0x04f0cdc5a215dedf6a1ed5444e07367e20768041",
          "topics": [
            "0x8be0079c531659141344cd1fd0a4f28419497f9722a3daafe3b4186f6b6457e0",
            "0x000000000000000000000000b819a871d20913839c37f316dc914b0570bfc0ee",
            "0x00000000000000000000000091b945cbb063648c44271868a7a0c7bdff64827d"
          ],
          "data": "0x",
          "blockHash": "0x7a7d5f6a31bcc996c27856ebd89bea544df3492d3dca9e856b23b6ece5165b40",
          "blockNumber": "0x1d5b03d",
          "blockTimestamp": "0x6835bd5d",
          "transactionHash": "0x65d2455e87588d8046b7370842a73058c690cdd099c31f2d140ea471807cc51a",
          "transactionIndex": "0xbf",
          "logIndex": "0x2df",
          "removed": false
        }
      ],
      "logsBloom": "0x00000000000000000000000000000000000000000000000000800000000000000000000000000000000000000000000000000000000000000000000000000002000000000080000000000000000000100001100000000001000000000000000000000000000000000000000000000000000000000000000000000000000400400000000000000000000000004000000000000000000000000000000400000000000000000000000000000000000000000000000000000000000000000000000000000000000000000000000000000000000000000000000000000200000000000000000000000000000000000000000000000000000000000000000000000000",
      "type": "0x2",
      "transactionHash": "0x65d2455e87588d8046b7370842a73058c690cdd099c31f2d140ea471807cc51a",
      "transactionIndex": "0xbf",
      "blockHash": "0x7a7d5f6a31bcc996c27856ebd89bea544df3492d3dca9e856b23b6ece5165b40",
      "blockNumber": "0x1d5b03d",
      "gasUsed": "0x6fb4",
      "effectiveGasPrice": "0xe3113",
      "from": "0xb819a871d20913839c37f316dc914b0570bfc0ee",
      "to": "0x04f0cdc5a215dedf6a1ed5444e07367e20768041",
      "contractAddress": null,
      "l1BaseFeeScalar": "0x8dd",
      "l1BlobBaseFee": "0x1",
      "l1BlobBaseFeeScalar": "0x101c12",
      "l1Fee": "0xc2ed67bb2",
      "l1GasPrice": "0x35b16dccc",
      "l1GasUsed": "0x640"
    }
  ],
  "libraries": [],
  "pending": [],
  "returns": {},
  "timestamp": 1748352351,
  "chain": 8453,
  "commit": "9b668a0"
}