{
  "transactions": [
    {
      "hash": "0x427033e6b7a1725c36f477b004f61d02e419887c928b239c12e2a416fa4b7ffe",
      "transactionType": "CALL",
      "contractName": null,
      "contractAddress": "0x82e8399ae0f58a6f4dbccd459e1fae6d80dbe852",
      "function": "create(bytes32,bytes)",
      "arguments": [
        "0x0e0084e469f28da3ab67a5331cd75c5e6d85d98c307f838056256e6321f189c3",
        "0x6080604052348015600e575f5ffd5b506101248061001c5f395ff3fe6080604052348015600e575f5ffd5b5060043610603a575f3560e01c80633fb5c1cb14603e5780638381f58a14604f578063d09de08a146068575b5f5ffd5b604d6049366004607d565b5f55565b005b60565f5481565b60405190815260200160405180910390f35b604d5f805490806076836093565b9190505550565b5f60208284031215608c575f5ffd5b5035919050565b5f7fffffffffffffffffffffffffffffffffffffffffffffffffffffffffffffffff820360e7577f4e487b71000000000000000000000000000000000000000000000000000000005f52601160045260245ffd5b506001019056fea264697066735822122028f8155e9f269d2de2d617fad9f7cbdf5ed56a78a3ccd930ae046c848fa775b264736f6c634300081b0033"
      ],
      "transaction": {
        "from": "0x0000e6203db925dbfb9e3d650a80a1e2f4a78e94",
        "to": "0x82e8399ae0f58a6f4dbccd459e1fae6d80dbe852",
        "gas": "0x336bc",
        "value": "0x0",
        "input": "0x5b37e1500e0084e469f28da3ab67a5331cd75c5e6d85d98c307f838056256e6321f189c3000000000000000000000000000000000000000000000000000000000000004000000000000000000000000000000000000000000000000000000000000001406080604052348015600e575f5ffd5b506101248061001c5f395ff3fe6080604052348015600e575f5ffd5b5060043610603a575f3560e01c80633fb5c1cb14603e5780638381f58a14604f578063d09de08a146068575b5f5ffd5b604d6049366004607d565b5f55565b005b60565f5481565b60405190815260200160405180910390f35b604d5f805490806076836093565b9190505550565b5f60208284031215608c575f5ffd5b5035919050565b5f7fffffffffffffffffffffffffffffffffffffffffffffffffffffffffffffffff820360e7577f4e487b71000000000000000000000000000000000000000000000000000000005f52601160045260245ffd5b506001019056fea264697066735822122028f8155e9f269d2de2d617fad9f7cbdf5ed56a78a3ccd930ae046c848fa775b264736f6c634300081b0033",
        "nonce": "0x1cb",
        "chainId": "0x4268"
      },
      "additionalContracts": [
        {
          "transactionType": "CREATE2",
          "address": "0x50a6f1ad6f23663ea04986b4ae519100b54e191d",
          "initCode": "0x67363d3d37363d34f03d5260086018f3"
        },
        {
          "transactionType": "CREATE",
          "address": "0xa5833e4b3a8583ca362df902a45c8f95843065c5",
          "initCode": "0x6080604052348015600e575f5ffd5b506101248061001c5f395ff3fe6080604052348015600e575f5ffd5b5060043610603a575f3560e01c80633fb5c1cb14603e5780638381f58a14604f578063d09de08a146068575b5f5ffd5b604d6049366004607d565b5f55565b005b60565f5481565b60405190815260200160405180910390f35b604d5f805490806076836093565b9190505550565b5f60208284031215608c575f5ffd5b5035919050565b5f7fffffffffffffffffffffffffffffffffffffffffffffffffffffffffffffffff820360e7577f4e487b71000000000000000000000000000000000000000000000000000000005f52601160045260245ffd5b506001019056fea264697066735822122028f8155e9f269d2de2d617fad9f7cbdf5ed56a78a3ccd930ae046c848fa775b264736f6c634300081b0033"
        }
      ],
      "isFixedGasLimit": false
    }
  ],
  "receipts": [
    {
      "status": "0x1",
      "cumulativeGasUsed": "0xd553b5",
      "logs": [],
      "logsBloom": "0x00000000000000000000000000000000000000000000000000000000000000000000000000000000000000000000000000000000000000000000000000000000000000000000000000000000000000000000000000000000000000000000000000000000000000000000000000000000000000000000000000000000000000000000000000000000000000000000000000000000000000000000000000000000000000000000000000000000000000000000000000000000000000000000000000000000000000000000000000000000000000000000000000000000000000000000000000000000000000000000000000000000000000000000000000000000",
      "type": "0x2",
      "transactionHash": "0x427033e6b7a1725c36f477b004f61d02e419887c928b239c12e2a416fa4b7ffe",
      "transactionIndex": "0x30",
      "blockHash": "0xfaaaa02c45d6d01661242596a9a00aecb728130b3cb3540215bf8218d81f80f4",
      "blockNumber": "0x26365b",
      "gasUsed": "0x253a6",
      "effectiveGasPrice": "0x166f688d6",
      "from": "0x0000e6203db925dbfb9e3d650a80a1e2f4a78e94",
      "to": "0x82e8399ae0f58a6f4dbccd459e1fae6d80dbe852",
      "contractAddress": null
    }
  ],
  "libraries": [],
  "pending": [],
  "returns": {},
  "timestamp": 1728552069,
  "chain": 17000,
  "commit": "3791740"
}