{
  "transactions": [
    {
      "hash": "0x5c2da45546983fa95d65608137cab1742382c39223fa21fa0a59082844b5c907",
      "transactionType": "CALL",
      "contractName": null,
      "contractAddress": "0x1211d07f0ebea8994f23ec26e1e512929fc8ab08",
      "function": "allowFor(address,bytes32,bool)",
      "arguments": [
        "0x47F7749B80bA36F82EE7cfC29b3A5cb03eCC642c",
        "0x3d37afab23e5cac313ed6bbbd4cc033efdc5d534544a422062560607f0a47c91",
        "true"
      ],
      "transaction": {
        "from": "0xb819a871d20913839c37f316dc914b0570bfc0ee",
        "to": "0x1211d07f0ebea8994f23ec26e1e512929fc8ab08",
        "gas": "0x107e3",
        "value": "0x0",
        "input": "0xec3a461300000000000000000000000047f7749b80ba36f82ee7cfc29b3a5cb03ecc642c3d37afab23e5cac313ed6bbbd4cc033efdc5d534544a422062560607f0a47c910000000000000000000000000000000000000000000000000000000000000001",
        "nonce": "0x257",
        "chainId": "0xe708"
      },
      "additionalContracts": [],
      "isFixedGasLimit": false
    },
    {
      "hash": "0x86a2e14810b720dce39b90f9eb8dc9192fb35e46a7458708154d04ea00f610e2",
      "transactionType": "CALL",
      "contractName": null,
      "contractAddress": "0x47f7749b80ba36f82ee7cfc29b3a5cb03ecc642c",
      "function": "setAllowList(address[],bool)",
      "arguments": [
        "[0x269C36A173D881720544Fb303E681370158FF1FD, 0xC7Bc6bD45Eb84D594f51cED3c5497E6812C7732f, 0xDF0635c1eCfdF08146150691a97e2Ff6a8Aa1a90, 0xcb4d153604a6F21Ff7625e5044E89C3b903599Bc, 0x1D8e8cEFEb085f3211Ab6a443Ad9051b54D1cd1a, 0x0B3c6645F4F2442AD4bbee2e2273A250461cA6f8, 0x8BaD0c523516262a439197736fFf982F5E0987cC, 0x4DF3DD62DB219C47F6a7CB1bE02C511AFceAdf5E]",
        "true"
      ],
      "transaction": {
        "from": "0xb819a871d20913839c37f316dc914b0570bfc0ee",
        "to": "0x47f7749b80ba36f82ee7cfc29b3a5cb03ecc642c",
        "gas": "0x49ac9",
        "value": "0x0",
        "input": "0x31367411000000000000000000000000000000000000000000000000000000000000004000000000000000000000000000000000000000000000000000000000000000010000000000000000000000000000000000000000000000000000000000000008000000000000000000000000269c36a173d881720544fb303e681370158ff1fd000000000000000000000000c7bc6bd45eb84d594f51ced3c5497e6812c7732f000000000000000000000000df0635c1ecfdf08146150691a97e2ff6a8aa1a90000000000000000000000000cb4d153604a6f21ff7625e5044e89c3b903599bc0000000000000000000000001d8e8cefeb085f3211ab6a443ad9051b54d1cd1a0000000000000000000000000b3c6645f4f2442ad4bbee2e2273a250461ca6f80000000000000000000000008bad0c523516262a439197736fff982f5e0987cc0000000000000000000000004df3dd62db219c47f6a7cb1be02c511afceadf5e",
        "nonce": "0x258",
        "chainId": "0xe708"
      },
      "additionalContracts": [],
      "isFixedGasLimit": false
    },
    {
      "hash": "0xf2af659eff11b19e5cee6be42b51e73cd407abf5cd0d047be5fda5687bb64923",
      "transactionType": "CALL",
      "contractName": null,
      "contractAddress": "0x47f7749b80ba36f82ee7cfc29b3a5cb03ecc642c",
      "function": "setWhitelistedBridgeStatus(address,bool)",
      "arguments": [
        "0x1Fab79E6130C93a2AF11B2a5934589E003107c7c",
        "true"
      ],
      "transaction": {
        "from": "0xb819a871d20913839c37f316dc914b0570bfc0ee",
        "to": "0x47f7749b80ba36f82ee7cfc29b3a5cb03ecc642c",
        "gas": "0x1239d",
        "value": "0x0",
        "input": "0xb244997a0000000000000000000000001fab79e6130c93a2af11b2a5934589e003107c7c0000000000000000000000000000000000000000000000000000000000000001",
        "nonce": "0x259",
        "chainId": "0xe708"
      },
      "additionalContracts": [],
      "isFixedGasLimit": false
    },
    {
      "hash": "0x28b36ea7804517f5fb7d4b38a7b3ff9f658454c1c2debbf990c2f87e07eb6628",
      "transactionType": "CALL",
      "contractName": null,
      "contractAddress": "0x47f7749b80ba36f82ee7cfc29b3a5cb03ecc642c",
      "function": "setWhitelistedBridgeStatus(address,bool)",
      "arguments": [
        "0x0be4Ad33E1B8835599857f5a8f110c3537D268A8",
        "true"
      ],
      "transaction": {
        "from": "0xb819a871d20913839c37f316dc914b0570bfc0ee",
        "to": "0x47f7749b80ba36f82ee7cfc29b3a5cb03ecc642c",
        "gas": "0x1239d",
        "value": "0x0",
        "input": "0xb244997a0000000000000000000000000be4ad33e1b8835599857f5a8f110c3537d268a80000000000000000000000000000000000000000000000000000000000000001",
        "nonce": "0x25a",
        "chainId": "0xe708"
      },
      "additionalContracts": [],
      "isFixedGasLimit": false
    },
    {
      "hash": "0x8cd4498d430d697fbcb50a5f9dc6c18cfb98123fe06ca9dd5332f7fa96302e2e",
      "transactionType": "CALL",
      "contractName": null,
      "contractAddress": "0x47f7749b80ba36f82ee7cfc29b3a5cb03ecc642c",
      "function": "setWhitelistedBridgeStatus(address,bool)",
      "arguments": [
        "0x9A4Ac70da21a3057Ee8f314C5640913578C7F2a7",
        "true"
      ],
      "transaction": {
        "from": "0xb819a871d20913839c37f316dc914b0570bfc0ee",
        "to": "0x47f7749b80ba36f82ee7cfc29b3a5cb03ecc642c",
        "gas": "0x1239d",
        "value": "0x0",
        "input": "0xb244997a0000000000000000000000009a4ac70da21a3057ee8f314c5640913578c7f2a70000000000000000000000000000000000000000000000000000000000000001",
        "nonce": "0x25b",
        "chainId": "0xe708"
      },
      "additionalContracts": [],
      "isFixedGasLimit": false
    },
    {
      "hash": "0xe2669ebc2a8ea1df91161bdab377d0a2d4458d3089fc659eb00eaa4a875678a9",
      "transactionType": "CALL",
      "contractName": null,
      "contractAddress": "0x47f7749b80ba36f82ee7cfc29b3a5cb03ecc642c",
      "function": "setWhitelistedBridgeStatus(address,bool)",
      "arguments": [
        "0xF6697bfc708e202c4cF1694deDf1952e7B169b79",
        "true"
      ],
      "transaction": {
        "from": "0xb819a871d20913839c37f316dc914b0570bfc0ee",
        "to": "0x47f7749b80ba36f82ee7cfc29b3a5cb03ecc642c",
        "gas": "0x1239d",
        "value": "0x0",
        "input": "0xb244997a000000000000000000000000f6697bfc708e202c4cf1694dedf1952e7b169b790000000000000000000000000000000000000000000000000000000000000001",
        "nonce": "0x25c",
        "chainId": "0xe708"
      },
      "additionalContracts": [],
      "isFixedGasLimit": false
    },
    {
      "hash": "0x043443480804f0e0dcd1de6c5e13ec7689ef927dbb0106047c8f12f57c335725",
      "transactionType": "CALL",
      "contractName": null,
      "contractAddress": "0x47f7749b80ba36f82ee7cfc29b3a5cb03ecc642c",
      "function": "setWhitelistedDestination(uint32,bool)",
      "arguments": [
        "1",
        "true"
      ],
      "transaction": {
        "from": "0xb819a871d20913839c37f316dc914b0570bfc0ee",
        "to": "0x47f7749b80ba36f82ee7cfc29b3a5cb03ecc642c",
        "gas": "0x1228e",
        "value": "0x0",
        "input": "0x20a5056900000000000000000000000000000000000000000000000000000000000000010000000000000000000000000000000000000000000000000000000000000001",
        "nonce": "0x25d",
        "chainId": "0xe708"
      },
      "additionalContracts": [],
      "isFixedGasLimit": false
    },
    {
      "hash": "0x77e2b040fe632ebb9d394bfb1e55b36a7828989bab177cbc6f9a2510ed5fb2ce",
      "transactionType": "CALL",
      "contractName": null,
      "contractAddress": "0x47f7749b80ba36f82ee7cfc29b3a5cb03ecc642c",
      "function": "setWhitelistedDestination(uint32,bool)",
      "arguments": [
        "8453",
        "true"
      ],
      "transaction": {
        "from": "0xb819a871d20913839c37f316dc914b0570bfc0ee",
        "to": "0x47f7749b80ba36f82ee7cfc29b3a5cb03ecc642c",
        "gas": "0x1229f",
        "value": "0x0",
        "input": "0x20a5056900000000000000000000000000000000000000000000000000000000000021050000000000000000000000000000000000000000000000000000000000000001",
        "nonce": "0x25e",
        "chainId": "0xe708"
      },
      "additionalContracts": [],
      "isFixedGasLimit": false
    },
    {
      "hash": "0xe1decbd60428258b0de94b639f6393c6af2cdf0a8c16b99e0092063c6c397887",
      "transactionType": "CALL",
      "contractName": null,
      "contractAddress": "0x47f7749b80ba36f82ee7cfc29b3a5cb03ecc642c",
      "function": "setWhitelistedDestination(uint32,bool)",
      "arguments": [
        "59144",
        "true"
      ],
      "transaction": {
        "from": "0xb819a871d20913839c37f316dc914b0570bfc0ee",
        "to": "0x47f7749b80ba36f82ee7cfc29b3a5cb03ecc642c",
        "gas": "0x1229f",
        "value": "0x0",
        "input": "0x20a50569000000000000000000000000000000000000000000000000000000000000e7080000000000000000000000000000000000000000000000000000000000000001",
        "nonce": "0x25f",
        "chainId": "0xe708"
      },
      "additionalContracts": [],
      "isFixedGasLimit": false
    }
  ],
  "receipts": [
    {
      "status": "0x1",
      "cumulativeGasUsed": "0x2cf90",
      "logs": [
        {
          "address": "0x1211d07f0ebea8994f23ec26e1e512929fc8ab08",
          "topics": [
            "0xbf768a8bd7016d5df999ce7e5dcbd90856578a89eb68c5a1d5fc1d4a3360107e",
            "0x00000000000000000000000047f7749b80ba36f82ee7cfc29b3a5cb03ecc642c",
            "0x3d37afab23e5cac313ed6bbbd4cc033efdc5d534544a422062560607f0a47c91"
          ],
          "data": "0x0000000000000000000000000000000000000000000000000000000000000001",
          "blockHash": "0xd8ff944ad048927b3b795c3aef3a9e41043ec4873aa82b3502ab7ec038288485",
          "blockNumber": "0x125bf00",
          "transactionHash": "0x5c2da45546983fa95d65608137cab1742382c39223fa21fa0a59082844b5c907",
          "transactionIndex": "0x3",
          "logIndex": "0x2",
          "removed": false
        }
      ],
      "logsBloom": "0x00000000000000000004000000000200000000000000000001000000000000000000000000000040000000000000080100000000000000000000000000000000000000000000000000000000000000000000000000000000000000000000000000000000000000000000000000000000000000000000000000400000000000000000000000000000000000000000000000000000001000400000000000000000000000800000000000000000000000000000000000000000000000000000000000000000000000000000000000000000000800010000000000000000000000000000000000000000000000000000000000000000000000000000000000000000",
      "type": "0x2",
      "transactionHash": "0x5c2da45546983fa95d65608137cab1742382c39223fa21fa0a59082844b5c907",
      "transactionIndex": "0x3",
      "blockHash": "0xd8ff944ad048927b3b795c3aef3a9e41043ec4873aa82b3502ab7ec038288485",
      "blockNumber": "0x125bf00",
      "gasUsed": "0xbf0e",
      "effectiveGasPrice": "0x30de915",
      "from": "0xb819a871d20913839c37f316dc914b0570bfc0ee",
      "to": "0x1211d07f0ebea8994f23ec26e1e512929fc8ab08",
      "contractAddress": null
    },
    {
      "status": "0x1",
      "cumulativeGasUsed": "0x3fb8c",
      "logs": [
        {
          "address": "0x47f7749b80ba36f82ee7cfc29b3a5cb03ecc642c",
          "topics": [
            "0xf2feb0320d2b77f8371f78d0b9ed7a305ef76f3424adf286e4d22ec52e72de30"
          ],
          "data": "0x000000000000000000000000000000000000000000000000000000000000004000000000000000000000000000000000000000000000000000000000000000010000000000000000000000000000000000000000000000000000000000000008000000000000000000000000269c36a173d881720544fb303e681370158ff1fd000000000000000000000000c7bc6bd45eb84d594f51ced3c5497e6812c7732f000000000000000000000000df0635c1ecfdf08146150691a97e2ff6a8aa1a90000000000000000000000000cb4d153604a6f21ff7625e5044e89c3b903599bc0000000000000000000000001d8e8cefeb085f3211ab6a443ad9051b54d1cd1a0000000000000000000000000b3c6645f4f2442ad4bbee2e2273a250461ca6f80000000000000000000000008bad0c523516262a439197736fff982f5e0987cc0000000000000000000000004df3dd62db219c47f6a7cb1be02c511afceadf5e",
          "blockHash": "0x8e26e6144b549db9412186bf9dddeb44b46ebc93e64f579cf6cfcf776eba34c8",
          "blockNumber": "0x125bf02",
          "transactionHash": "0x86a2e14810b720dce39b90f9eb8dc9192fb35e46a7458708154d04ea00f610e2",
          "transactionIndex": "0x2",
          "logIndex": "0x0",
          "removed": false
        }
      ],
      "logsBloom": "0x80080000000000000000000000000000000000000000000000000000000000000000000000000000000000000000000000000000000000000000000000000000000000000000000000000000000000000080000000000000000000000000000000000000001000000000000000000000000000000000000000000000000000000000000000000000000000000000000000000000000000000000000000000000000000000000000000000000000000000000000000000000000000020000000004000000000000000000000000000000000000000000000000000000000000000000000000000000000000000000000000000000000000000000000000000000",
      "type": "0x2",
      "transactionHash": "0x86a2e14810b720dce39b90f9eb8dc9192fb35e46a7458708154d04ea00f610e2",
      "transactionIndex": "0x2",
      "blockHash": "0x8e26e6144b549db9412186bf9dddeb44b46ebc93e64f579cf6cfcf776eba34c8",
      "blockNumber": "0x125bf02",
      "gasUsed": "0x3556c",
      "effectiveGasPrice": "0x30de915",
      "from": "0xb819a871d20913839c37f316dc914b0570bfc0ee",
      "to": "0x47f7749b80ba36f82ee7cfc29b3a5cb03ecc642c",
      "contractAddress": null
    },
    {
      "status": "0x1",
      "cumulativeGasUsed": "0xd320",
      "logs": [
        {
          "address": "0x47f7749b80ba36f82ee7cfc29b3a5cb03ecc642c",
          "topics": [
            "0x556d5b611c0a2d1f2d7ff78649c275628bf133c88544dedcf5cb6f7e56d815cc",
            "0x0000000000000000000000001fab79e6130c93a2af11b2a5934589e003107c7c"
          ],
          "data": "0x0000000000000000000000000000000000000000000000000000000000000001",
          "blockHash": "0x60e516c529133736f1c42f107986d6b2df6c66538258cc5784aa6c493f31f072",
          "blockNumber": "0x125bf04",
          "transactionHash": "0xf2af659eff11b19e5cee6be42b51e73cd407abf5cd0d047be5fda5687bb64923",
          "transactionIndex": "0x0",
          "logIndex": "0x0",
          "removed": false
        }
      ],
      "logsBloom": "0x80000000000000000000000000000000000000000000000000000020080000000000000000000000000000000000000000000000000000000000000000000000000000000000010000000000000000000080000000000020000000000000000000000000000400000000000000000000000000000000000000000000000000000000000000000008000000000000000000000000000000000000000000000000000000000000000000000000000000000000000000000000000000000000000004000000000000000000000000000000000000000000000000000000000000000000000000000000000000000000000000000000000000000000000000000000",
      "type": "0x2",
      "transactionHash": "0xf2af659eff11b19e5cee6be42b51e73cd407abf5cd0d047be5fda5687bb64923",
      "transactionIndex": "0x0",
      "blockHash": "0x60e516c529133736f1c42f107986d6b2df6c66538258cc5784aa6c493f31f072",
      "blockNumber": "0x125bf04",
      "gasUsed": "0xd320",
      "effectiveGasPrice": "0x30de915",
      "from": "0xb819a871d20913839c37f316dc914b0570bfc0ee",
      "to": "0x47f7749b80ba36f82ee7cfc29b3a5cb03ecc642c",
      "contractAddress": null
    },
    {
      "status": "0x1",
      "cumulativeGasUsed": "0x18947",
      "logs": [
        {
          "address": "0x47f7749b80ba36f82ee7cfc29b3a5cb03ecc642c",
          "topics": [
            "0x556d5b611c0a2d1f2d7ff78649c275628bf133c88544dedcf5cb6f7e56d815cc",
            "0x0000000000000000000000000be4ad33e1b8835599857f5a8f110c3537d268a8"
          ],
          "data": "0x0000000000000000000000000000000000000000000000000000000000000001",
          "blockHash": "0x907ebfb17b4c841536cfbe0ba5ecea8c2f46b097c5ff2ae95561f521d2ba83ed",
          "blockNumber": "0x125bf07",
          "transactionHash": "0x28b36ea7804517f5fb7d4b38a7b3ff9f658454c1c2debbf990c2f87e07eb6628",
          "transactionIndex": "0x1",
          "logIndex": "0x2",
          "removed": false
        }
      ],
      "logsBloom": "0x80000000000000000000000000000000000000000000000000000000000000000000000000000000000000000000000000000000000000000000000000000000000000000000010000000000000000000080000010000020000000000000000000000000000400000000000000000000000000000000000000000000000000000000000000000000000000000000000000000000000000000000000000000000000000010000000000000000000000000000000000000000000000000000000004000000000200000000000000000000000000000000000000000000000000000000000000000000000000000000000000000000000000000000000000000000",
      "type": "0x2",
      "transactionHash": "0x28b36ea7804517f5fb7d4b38a7b3ff9f658454c1c2debbf990c2f87e07eb6628",
      "transactionIndex": "0x1",
      "blockHash": "0x907ebfb17b4c841536cfbe0ba5ecea8c2f46b097c5ff2ae95561f521d2ba83ed",
      "blockNumber": "0x125bf07",
      "gasUsed": "0xd320",
      "effectiveGasPrice": "0x30de915",
      "from": "0xb819a871d20913839c37f316dc914b0570bfc0ee",
      "to": "0x47f7749b80ba36f82ee7cfc29b3a5cb03ecc642c",
      "contractAddress": null
    },
    {
      "status": "0x1",
      "cumulativeGasUsed": "0x38399",
      "logs": [
        {
          "address": "0x47f7749b80ba36f82ee7cfc29b3a5cb03ecc642c",
          "topics": [
            "0x556d5b611c0a2d1f2d7ff78649c275628bf133c88544dedcf5cb6f7e56d815cc",
            "0x0000000000000000000000009a4ac70da21a3057ee8f314c5640913578c7f2a7"
          ],
          "data": "0x0000000000000000000000000000000000000000000000000000000000000001",
          "blockHash": "0x962295bada2b4a61d00f0339a0a9ffba7eac1e2bafdadf00e838970ebb69e169",
          "blockNumber": "0x125bf0a",
          "transactionHash": "0x8cd4498d430d697fbcb50a5f9dc6c18cfb98123fe06ca9dd5332f7fa96302e2e",
          "transactionIndex": "0x2",
          "logIndex": "0x2",
          "removed": false
        }
      ],
      "logsBloom": "0x80000000000000000000000000000000000000000000000000000000000000000000000000000000000000000000000000000000000000000000000000000000000000000000010000000000000000000080000000000020000000000000004000000000000400800000000000000000000000000000000000000000000000000000000000000000000000000000000000000000000000000000000000000000000000000000000000000000000000000000000000000000000004000000000004000000000000000000000000000000000000000000000000000000000000000000000000000000000000000000000000000000000000000000000000000000",
      "type": "0x2",
      "transactionHash": "0x8cd4498d430d697fbcb50a5f9dc6c18cfb98123fe06ca9dd5332f7fa96302e2e",
      "transactionIndex": "0x2",
      "blockHash": "0x962295bada2b4a61d00f0339a0a9ffba7eac1e2bafdadf00e838970ebb69e169",
      "blockNumber": "0x125bf0a",
      "gasUsed": "0xd320",
      "effectiveGasPrice": "0x30de915",
      "from": "0xb819a871d20913839c37f316dc914b0570bfc0ee",
      "to": "0x47f7749b80ba36f82ee7cfc29b3a5cb03ecc642c",
      "contractAddress": null
    },
    {
      "status": "0x1",
      "cumulativeGasUsed": "0x306bd",
      "logs": [
        {
          "address": "0x47f7749b80ba36f82ee7cfc29b3a5cb03ecc642c",
          "topics": [
            "0x556d5b611c0a2d1f2d7ff78649c275628bf133c88544dedcf5cb6f7e56d815cc",
            "0x000000000000000000000000f6697bfc708e202c4cf1694dedf1952e7b169b79"
          ],
          "data": "0x0000000000000000000000000000000000000000000000000000000000000001",
          "blockHash": "0x0aed8bb5ad261de654965d41dbaf0d72b2b6f0c68ea514369a0576cdbfdebf9f",
          "blockNumber": "0x125bf0c",
          "transactionHash": "0xe2669ebc2a8ea1df91161bdab377d0a2d4458d3089fc659eb00eaa4a875678a9",
          "transactionIndex": "0x2",
          "logIndex": "0x3",
          "removed": false
        }
      ],
      "logsBloom": "0x80000000000000000000000000000000000000000000000000000000000000000000000000000000000000000000000000000000000000000000000000000000000000000000010000000000000000000080000000400020000000000000000000000000000400000000000000000000001080000000000000000000000000000000000000000000000000000000000000000000000000000000000000000000000000000000000000000000000000000000000000000000000000000000000004000000000000000000000000000000000000000000000000000000000000000000000000000000000000000000000000000000000000000000000000000000",
      "type": "0x2",
      "transactionHash": "0xe2669ebc2a8ea1df91161bdab377d0a2d4458d3089fc659eb00eaa4a875678a9",
      "transactionIndex": "0x2",
      "blockHash": "0x0aed8bb5ad261de654965d41dbaf0d72b2b6f0c68ea514369a0576cdbfdebf9f",
      "blockNumber": "0x125bf0c",
      "gasUsed": "0xd320",
      "effectiveGasPrice": "0x30de915",
      "from": "0xb819a871d20913839c37f316dc914b0570bfc0ee",
      "to": "0x47f7749b80ba36f82ee7cfc29b3a5cb03ecc642c",
      "contractAddress": null
    },
    {
      "status": "0x1",
      "cumulativeGasUsed": "0xa6d34",
      "logs": [
        {
          "address": "0x47f7749b80ba36f82ee7cfc29b3a5cb03ecc642c",
          "topics": [
            "0x51b93196343e51a44065dcc7b5c73f9d51b366412c46b54b11a3bc0f360309d0",
            "0x0000000000000000000000000000000000000000000000000000000000000001"
          ],
          "data": "0x0000000000000000000000000000000000000000000000000000000000000001",
          "blockHash": "0x851a0bb6c7f3f061dffdf6dec6d7cd82b1a238b0f97ee7fe19afe3d541ee85c6",
          "blockNumber": "0x125bf0f",
          "transactionHash": "0x043443480804f0e0dcd1de6c5e13ec7689ef927dbb0106047c8f12f57c335725",
          "transactionIndex": "0x4",
          "logIndex": "0xc",
          "removed": false
        }
      ],
      "logsBloom": "0x80000000000000000000000000000000000000000000000000000000000000000000000000000000000000000000000000000000000000000000000000240000000000000000000000000000000000000080010000040000000000000000000000000000000000000000000000000000000000000000000000000000000000000000000000000000000000000000000040000000000000000000000000000000000000000000000000000000000000000000000000000000000000000000000004000000000000000000000000000000000000000000000000000000000040000000000000000000000000000000000000000000000000000000000000000000",
      "type": "0x2",
      "transactionHash": "0x043443480804f0e0dcd1de6c5e13ec7689ef927dbb0106047c8f12f57c335725",
      "transactionIndex": "0x4",
      "blockHash": "0x851a0bb6c7f3f061dffdf6dec6d7cd82b1a238b0f97ee7fe19afe3d541ee85c6",
      "blockNumber": "0x125bf0f",
      "gasUsed": "0xd25c",
      "effectiveGasPrice": "0x30de915",
      "from": "0xb819a871d20913839c37f316dc914b0570bfc0ee",
      "to": "0x47f7749b80ba36f82ee7cfc29b3a5cb03ecc642c",
      "contractAddress": null
    },
    {
      "status": "0x1",
      "cumulativeGasUsed": "0x509c3",
      "logs": [
        {
          "address": "0x47f7749b80ba36f82ee7cfc29b3a5cb03ecc642c",
          "topics": [
            "0x51b93196343e51a44065dcc7b5c73f9d51b366412c46b54b11a3bc0f360309d0",
            "0x0000000000000000000000000000000000000000000000000000000000002105"
          ],
          "data": "0x0000000000000000000000000000000000000000000000000000000000000001",
          "blockHash": "0xbe47e7fba27b8ebffe552f4efc1543670a34238420569f559122fe94fd3d6f25",
          "blockNumber": "0x125bf11",
          "transactionHash": "0x77e2b040fe632ebb9d394bfb1e55b36a7828989bab177cbc6f9a2510ed5fb2ce",
          "transactionIndex": "0x2",
          "logIndex": "0x9",
          "removed": false
        }
      ],
      "logsBloom": "0x80000000000000000000000000000000000000000000000000000000000000000000000000000000000000000000000000000000000000000001000000200000000000000000000000000000000000000080010000000000000000000000000000010000000000000000000000000000000000000000000000000000000000000000000000000000000000000000000040000000000000000000000020000000000000000000000000000000000000000000000000000000000000000000000004000000000000000000000000000000000000000000000000000000000000000000000000000000000000000000000000000000000000000000000000000000",
      "type": "0x2",
      "transactionHash": "0x77e2b040fe632ebb9d394bfb1e55b36a7828989bab177cbc6f9a2510ed5fb2ce",
      "transactionIndex": "0x2",
      "blockHash": "0xbe47e7fba27b8ebffe552f4efc1543670a34238420569f559122fe94fd3d6f25",
      "blockNumber": "0x125bf11",
      "gasUsed": "0xd268",
      "effectiveGasPrice": "0x30de915",
      "from": "0xb819a871d20913839c37f316dc914b0570bfc0ee",
      "to": "0x47f7749b80ba36f82ee7cfc29b3a5cb03ecc642c",
      "contractAddress": null
    },
    {
      "status": "0x1",
      "cumulativeGasUsed": "0x21a5e",
      "logs": [
        {
          "address": "0x47f7749b80ba36f82ee7cfc29b3a5cb03ecc642c",
          "topics": [
            "0x51b93196343e51a44065dcc7b5c73f9d51b366412c46b54b11a3bc0f360309d0",
            "0x000000000000000000000000000000000000000000000000000000000000e708"
          ],
          "data": "0x0000000000000000000000000000000000000000000000000000000000000001",
          "blockHash": "0x9752adbac69210d05561554dbc0e1fbc0237a717e50a2808c0f962ff8ece4bd6",
          "blockNumber": "0x125bf13",
          "transactionHash": "0xe1decbd60428258b0de94b639f6393c6af2cdf0a8c16b99e0092063c6c397887",
          "transactionIndex": "0x2",
          "logIndex": "0x2",
          "removed": false
        }
      ],
      "logsBloom": "0x80000000000000000000000000000000000000000000000000000000000000000000000000000000000000000000000040000000000000000000000000200001000000000000000000000000000000000080010000000000000000000000000000000000000000000000000000000000000000000000000000000000000000000000000000000000000000000000000040000000000000000000000400000000000000000000000000000000000000000000000000000000000000000000000004000000000000000000000000000000000000000000000000000000000000000000000000000000000000000000000000000000000000000000000000000000",
      "type": "0x2",
      "transactionHash": "0xe1decbd60428258b0de94b639f6393c6af2cdf0a8c16b99e0092063c6c397887",
      "transactionIndex": "0x2",
      "blockHash": "0x9752adbac69210d05561554dbc0e1fbc0237a717e50a2808c0f962ff8ece4bd6",
      "blockNumber": "0x125bf13",
      "gasUsed": "0xd268",
      "effectiveGasPrice": "0x30de915",
      "from": "0xb819a871d20913839c37f316dc914b0570bfc0ee",
      "to": "0x47f7749b80ba36f82ee7cfc29b3a5cb03ecc642c",
      "contractAddress": null
    }
  ],
  "libraries": [],
  "pending": [],
  "returns": {
    "0": {
      "internal_type": "address",
      "value": "0x47F7749B80bA36F82EE7cfC29b3A5cb03eCC642c"
    }
  },
  "timestamp": 1747929637,
  "chain": 59144,
  "commit": "157d7bc"
}