{
  "transactions": [
    {
      "hash": "0x7c3fefe29a6c51d27c2c1631f7cd8609d2e82dcf335a1890db05be513500aa21",
      "transactionType": "CALL",
      "contractName": null,
      "contractAddress": "0x269c36a173d881720544fb303e681370158ff1fd",
      "function": "setGasFee(uint256)",
      "arguments": [
        "108904397956204"
      ],
      "transaction": {
        "from": "0xb819a871d20913839c37f316dc914b0570bfc0ee",
        "to": "0x269c36a173d881720544fb303e681370158ff1fd",
        "gas": "0x117c3",
        "value": "0x0",
        "input": "0x678edca30000000000000000000000000000000000000000000000000000630c47f4646c",
        "nonce": "0x11f",
        "chainId": "0x1"
      },
      "additionalContracts": [],
      "isFixedGasLimit": false
    },
    {
      "hash": "0x14d7cd61426fd5113fbe5b476b5d14a579e5744f706ab955d045a2e2185f5f6f",
      "transactionType": "CALL",
      "contractName": null,
      "contractAddress": "0xc7bc6bd45eb84d594f51ced3c5497e6812c7732f",
      "function": "setGasFee(uint256)",
      "arguments": [
        "108904397956204"
      ],
      "transaction": {
        "from": "0xb819a871d20913839c37f316dc914b0570bfc0ee",
        "to": "0xc7bc6bd45eb84d594f51ced3c5497e6812c7732f",
        "gas": "0x117c3",
        "value": "0x0",
        "input": "0x678edca30000000000000000000000000000000000000000000000000000630c47f4646c",
        "nonce": "0x120",
        "chainId": "0x1"
      },
      "additionalContracts": [],
      "isFixedGasLimit": false
    },
    {
      "hash": "0xd21f30037797debf591854d0037ff3c2073f6c1d70ae2c4b1a299db17b9ddae4",
      "transactionType": "CALL",
      "contractName": null,
      "contractAddress": "0xdf0635c1ecfdf08146150691a97e2ff6a8aa1a90",
      "function": "setGasFee(uint256)",
      "arguments": [
        "108904397956204"
      ],
      "transaction": {
        "from": "0xb819a871d20913839c37f316dc914b0570bfc0ee",
        "to": "0xdf0635c1ecfdf08146150691a97e2ff6a8aa1a90",
        "gas": "0x117c3",
        "value": "0x0",
        "input": "0x678edca30000000000000000000000000000000000000000000000000000630c47f4646c",
        "nonce": "0x121",
        "chainId": "0x1"
      },
      "additionalContracts": [],
      "isFixedGasLimit": false
    },
    {
      "hash": "0xba38e62eb148646a6262283008cfec360d996c6f896b27c9cd1da47b8b3733ed",
      "transactionType": "CALL",
      "contractName": null,
      "contractAddress": "0x2b588f7f4832561e46924f3ea54c244569724915",
      "function": "setGasFee(uint256)",
      "arguments": [
        "108904397956204"
      ],
      "transaction": {
        "from": "0xb819a871d20913839c37f316dc914b0570bfc0ee",
        "to": "0x2b588f7f4832561e46924f3ea54c244569724915",
        "gas": "0x117c3",
        "value": "0x0",
        "input": "0x678edca30000000000000000000000000000000000000000000000000000630c47f4646c",
        "nonce": "0x122",
        "chainId": "0x1"
      },
      "additionalContracts": [],
      "isFixedGasLimit": false
    },
    {
      "hash": "0x269a9b57b24b5e495dbaba4b0b50e59e79797696a7c743befd39774781a6c6d4",
      "transactionType": "CALL",
      "contractName": null,
      "contractAddress": "0x1d8e8cefeb085f3211ab6a443ad9051b54d1cd1a",
      "function": "setGasFee(uint256)",
      "arguments": [
        "108904397956204"
      ],
      "transaction": {
        "from": "0xb819a871d20913839c37f316dc914b0570bfc0ee",
        "to": "0x1d8e8cefeb085f3211ab6a443ad9051b54d1cd1a",
        "gas": "0x117c3",
        "value": "0x0",
        "input": "0x678edca30000000000000000000000000000000000000000000000000000630c47f4646c",
        "nonce": "0x123",
        "chainId": "0x1"
      },
      "additionalContracts": [],
      "isFixedGasLimit": false
    },
    {
      "hash": "0x89e8b1e91c4a7f6e9319faae73c3027c24311682a56a5656058249177632af0c",
      "transactionType": "CALL",
      "contractName": null,
      "contractAddress": "0x8bad0c523516262a439197736fff982f5e0987cc",
      "function": "setGasFee(uint256)",
      "arguments": [
        "108904397956204"
      ],
      "transaction": {
        "from": "0xb819a871d20913839c37f316dc914b0570bfc0ee",
        "to": "0x8bad0c523516262a439197736fff982f5e0987cc",
        "gas": "0x117c3",
        "value": "0x0",
        "input": "0x678edca30000000000000000000000000000000000000000000000000000630c47f4646c",
        "nonce": "0x124",
        "chainId": "0x1"
      },
      "additionalContracts": [],
      "isFixedGasLimit": false
    },
    {
      "hash": "0xa8994d585afcd5271f0a6c05a2849874f78fcd02915cab2f7bbe12775724095b",
      "transactionType": "CALL",
      "contractName": null,
      "contractAddress": "0x4df3dd62db219c47f6a7cb1be02c511afceadf5e",
      "function": "setGasFee(uint256)",
      "arguments": [
        "108904397956204"
      ],
      "transaction": {
        "from": "0xb819a871d20913839c37f316dc914b0570bfc0ee",
        "to": "0x4df3dd62db219c47f6a7cb1be02c511afceadf5e",
        "gas": "0x117c3",
        "value": "0x0",
        "input": "0x678edca30000000000000000000000000000000000000000000000000000630c47f4646c",
        "nonce": "0x125",
        "chainId": "0x1"
      },
      "additionalContracts": [],
      "isFixedGasLimit": false
    }
  ],
  "receipts": [
    {
      "status": "0x1",
      "cumulativeGasUsed": "0x145c350",
      "logs": [
        {
          "address": "0x269c36a173d881720544fb303e681370158ff1fd",
          "topics": [
            "0x1208f07a7b2d478220d796eb4c732fe0d969d349f83e1fa8df282e2c99598891"
          ],
          "data": "0x0000000000000000000000000000000000000000000000000000630c47f4646c",
          "blockHash": "0x7751cdf3bf7904dccaa49fe661c6be918dacc3ac606b88e6d43ed2a28f350971",
          "blockNumber": "0x1586fd7",
          "blockTimestamp": "0x68357b97",
          "transactionHash": "0x7c3fefe29a6c51d27c2c1631f7cd8609d2e82dcf335a1890db05be513500aa21",
          "transactionIndex": "0xc8",
          "logIndex": "0x205",
          "removed": false
        }
      ],
      "logsBloom": "0x00000000000000000000000000000000000000000000000000000000000000000000000000000008000000000000000000000010000004000000000000000000000000000000000000000000000000000000000000000000000000000100000000000000000000000000000000000000000000000000000000000000000000000000000000000000000000000000000000000000000000000000000000000000000000000000000000500000000000000000000000000000000000000000000000000000000000000000000000000000000000000000000000000000000000000000000000000000000000000000000000000000000000000000000000000000",
      "type": "0x2",
      "transactionHash": "0x7c3fefe29a6c51d27c2c1631f7cd8609d2e82dcf335a1890db05be513500aa21",
      "transactionIndex": "0xc8",
      "blockHash": "0x7751cdf3bf7904dccaa49fe661c6be918dacc3ac606b88e6d43ed2a28f350971",
      "blockNumber": "0x1586fd7",
      "gasUsed": "0xca8c",
      "effectiveGasPrice": "0x98b9fabd",
      "from": "0xb819a871d20913839c37f316dc914b0570bfc0ee",
      "to": "0x269c36a173d881720544fb303e681370158ff1fd",
      "contractAddress": null
    },
    {
      "status": "0x1",
      "cumulativeGasUsed": "0x1fddad9",
      "logs": [
        {
          "address": "0xc7bc6bd45eb84d594f51ced3c5497e6812c7732f",
          "topics": [
            "0x1208f07a7b2d478220d796eb4c732fe0d969d349f83e1fa8df282e2c99598891"
          ],
          "data": "0x0000000000000000000000000000000000000000000000000000630c47f4646c",
          "blockHash": "0x7483c8d76254816750137718be673283f28f9ed2cc10c0c2e80f54cfcc4b92c5",
          "blockNumber": "0x1586fda",
          "blockTimestamp": "0x68357bbb",
          "transactionHash": "0x14d7cd61426fd5113fbe5b476b5d14a579e5744f706ab955d045a2e2185f5f6f",
          "transactionIndex": "0x197",
          "logIndex": "0x38f",
          "removed": false
        }
      ],
      "logsBloom": "0x00000000000000000000000000000000000000000000000000000000000000000000000000000000000000000000000000000000000004000000000000000000008000000000000000000000000080000000000000000000000000000100000000000000000000000000000040000000000000000000000000000000000000000000000000000000000000000000000000000000000000000000000000000000000000000000000000400000000000000000000000000000000000000000000000000000000000000000000000000000000000000000000000000000000000000000000000000000000000000000000000000000000000000000000000000000",
      "type": "0x2",
      "transactionHash": "0x14d7cd61426fd5113fbe5b476b5d14a579e5744f706ab955d045a2e2185f5f6f",
      "transactionIndex": "0x197",
      "blockHash": "0x7483c8d76254816750137718be673283f28f9ed2cc10c0c2e80f54cfcc4b92c5",
      "blockNumber": "0x1586fda",
      "gasUsed": "0xca8c",
      "effectiveGasPrice": "0x87d74973",
      "from": "0xb819a871d20913839c37f316dc914b0570bfc0ee",
      "to": "0xc7bc6bd45eb84d594f51ced3c5497e6812c7732f",
      "contractAddress": null
    },
    {
      "status": "0x1",
      "cumulativeGasUsed": "0x450dbd",
      "logs": [
        {
          "address": "0xdf0635c1ecfdf08146150691a97e2ff6a8aa1a90",
          "topics": [
            "0x1208f07a7b2d478220d796eb4c732fe0d969d349f83e1fa8df282e2c99598891"
          ],
          "data": "0x0000000000000000000000000000000000000000000000000000630c47f4646c",
          "blockHash": "0x81e45de2da6d5b785a2fa00dca204d8f2f8361033dc570f0ded86d60f69dd508",
          "blockNumber": "0x1586fdb",
          "blockTimestamp": "0x68357bc7",
          "transactionHash": "0xd21f30037797debf591854d0037ff3c2073f6c1d70ae2c4b1a299db17b9ddae4",
          "transactionIndex": "0x51",
          "logIndex": "0x59",
          "removed": false
        }
      ],
      "logsBloom": "0x00000000000001000000000000000000000000000000000000000000000000000000000000000000000000000000002000000000000004000000400000000000000000000000000000000000000000000000000000000000000000000100000000000000000000000000000000000000000000000000000000000000000000000000000000000000000000000000000000000000000000000000000000000000000000000000000000400000000000000000000000000000000000000000000000000000000000000000000000000000000000000000000000000000000000000000000000000000000000000000000000000000000000000000000000000000",
      "type": "0x2",
      "transactionHash": "0xd21f30037797debf591854d0037ff3c2073f6c1d70ae2c4b1a299db17b9ddae4",
      "transactionIndex": "0x51",
      "blockHash": "0x81e45de2da6d5b785a2fa00dca204d8f2f8361033dc570f0ded86d60f69dd508",
      "blockNumber": "0x1586fdb",
      "gasUsed": "0xca8c",
      "effectiveGasPrice": "0x98490867",
      "from": "0xb819a871d20913839c37f316dc914b0570bfc0ee",
      "to": "0xdf0635c1ecfdf08146150691a97e2ff6a8aa1a90",
      "contractAddress": null
    },
    {
      "status": "0x1",
      "cumulativeGasUsed": "0x1cb8d69",
      "logs": [
        {
          "address": "0x2b588f7f4832561e46924f3ea54c244569724915",
          "topics": [
            "0x1208f07a7b2d478220d796eb4c732fe0d969d349f83e1fa8df282e2c99598891"
          ],
          "data": "0x0000000000000000000000000000000000000000000000000000630c47f4646c",
          "blockHash": "0x80e7729a360f64404810e29bf13de7a2c7a33ec033811425e4c09f40ef2172ee",
          "blockNumber": "0x1586fdc",
          "blockTimestamp": "0x68357bd3",
          "transactionHash": "0xba38e62eb148646a6262283008cfec360d996c6f896b27c9cd1da47b8b3733ed",
          "transactionIndex": "0xb2",
          "logIndex": "0x23e",
          "removed": false
        }
      ],
      "logsBloom": "0x00000000000000000000000000000000000000000000000000000000000000000000000000000000000000000000000000000000000004000000000000020000000000200000000000000000000000000000000000000000000000000100000000000000000000000000000000000000000000000000000000000000000000000000000000000000000000000000000000000000000000000000000000000000000000000000000000400000000000000000000000000000000000000000000000000000000000000000000000000000000000000000000000000000000000000000000000000000000000000000000000000000000000000000000000020000",
      "type": "0x2",
      "transactionHash": "0xba38e62eb148646a6262283008cfec360d996c6f896b27c9cd1da47b8b3733ed",
      "transactionIndex": "0xb2",
      "blockHash": "0x80e7729a360f64404810e29bf13de7a2c7a33ec033811425e4c09f40ef2172ee",
      "blockNumber": "0x1586fdc",
      "gasUsed": "0xca8c",
      "effectiveGasPrice": "0x8aa4e00f",
      "from": "0xb819a871d20913839c37f316dc914b0570bfc0ee",
      "to": "0x2b588f7f4832561e46924f3ea54c244569724915",
      "contractAddress": null
    },
    {
      "status": "0x1",
      "cumulativeGasUsed": "0x1098340",
      "logs": [
        {
          "address": "0x1d8e8cefeb085f3211ab6a443ad9051b54d1cd1a",
          "topics": [
            "0x1208f07a7b2d478220d796eb4c732fe0d969d349f83e1fa8df282e2c99598891"
          ],
          "data": "0x0000000000000000000000000000000000000000000000000000630c47f4646c",
          "blockHash": "0x88ab57c9264f2ba3505f0e7dff6942bae311cf0cacf565fe699d91b2e901193d",
          "blockNumber": "0x1586fdd",
          "blockTimestamp": "0x68357bdf",
          "transactionHash": "0x269a9b57b24b5e495dbaba4b0b50e59e79797696a7c743befd39774781a6c6d4",
          "transactionIndex": "0xb9",
          "logIndex": "0x1a7",
          "removed": false
        }
      ],
      "logsBloom": "0x00000000000000000000000002000000000000000800000000000000000000000000000000000000000000000000000000000000000004000000000000000000000000000000000000000000000000000000000000000000000000000100000000000000000000000000000000000000000000000000000000000000000000000000000000000000000000000000000000000000000000000000000000000000000000000000000000400000000000000000000000000000000000000000000000000000000000000000000000000000000000000000000000000000000000000000000000000000000000000000000000000000000000000000000000800000",
      "type": "0x2",
      "transactionHash": "0x269a9b57b24b5e495dbaba4b0b50e59e79797696a7c743befd39774781a6c6d4",
      "transactionIndex": "0xb9",
      "blockHash": "0x88ab57c9264f2ba3505f0e7dff6942bae311cf0cacf565fe699d91b2e901193d",
      "blockNumber": "0x1586fdd",
      "gasUsed": "0xca8c",
      "effectiveGasPrice": "0x9abfa70e",
      "from": "0xb819a871d20913839c37f316dc914b0570bfc0ee",
      "to": "0x1d8e8cefeb085f3211ab6a443ad9051b54d1cd1a",
      "contractAddress": null
    },
    {
      "status": "0x1",
      "cumulativeGasUsed": "0xa2dce9",
      "logs": [
        {
          "address": "0x8bad0c523516262a439197736fff982f5e0987cc",
          "topics": [
            "0x1208f07a7b2d478220d796eb4c732fe0d969d349f83e1fa8df282e2c99598891"
          ],
          "data": "0x0000000000000000000000000000000000000000000000000000630c47f4646c",
          "blockHash": "0xd1de4e880bd8b71c660b84615c0cfacc44e7a04821d2bbc9f190aaa971572c1e",
          "blockNumber": "0x1586fde",
          "blockTimestamp": "0x68357beb",
          "transactionHash": "0x89e8b1e91c4a7f6e9319faae73c3027c24311682a56a5656058249177632af0c",
          "transactionIndex": "0x8c",
          "logIndex": "0x126",
          "removed": false
        }
      ],
      "logsBloom": "0x00000000000000000000000000000000000000000000000000000000000000000000000000000000000000000000000000000000000004000000000000000000000000000008000000000000000000000000000000000000000000000100000000000000000000000000000000000000000000000000000000000020000000000000000000000000000000000000000000000000000000000000000000000000000000000000000000400000000000000000000000000000000000000000000000000000000000000000000000000000010000000000000000000000000000000000000000000000000000000000000000000000000000000000000000000000",
      "type": "0x2",
      "transactionHash": "0x89e8b1e91c4a7f6e9319faae73c3027c24311682a56a5656058249177632af0c",
      "transactionIndex": "0x8c",
      "blockHash": "0xd1de4e880bd8b71c660b84615c0cfacc44e7a04821d2bbc9f190aaa971572c1e",
      "blockNumber": "0x1586fde",
      "gasUsed": "0xca8c",
      "effectiveGasPrice": "0xad7ec799",
      "from": "0xb819a871d20913839c37f316dc914b0570bfc0ee",
      "to": "0x8bad0c523516262a439197736fff982f5e0987cc",
      "contractAddress": null
    },
    {
      "status": "0x1",
      "cumulativeGasUsed": "0xc5b4d7",
      "logs": [
        {
          "address": "0x4df3dd62db219c47f6a7cb1be02c511afceadf5e",
          "topics": [
            "0x1208f07a7b2d478220d796eb4c732fe0d969d349f83e1fa8df282e2c99598891"
          ],
          "data": "0x0000000000000000000000000000000000000000000000000000630c47f4646c",
          "blockHash": "0xb5fc866c2eb298c6b7cf9220edc7ede0e3d33a99f28558819fe9689e88e54690",
          "blockNumber": "0x1586fdf",
          "blockTimestamp": "0x68357bf7",
          "transactionHash": "0xa8994d585afcd5271f0a6c05a2849874f78fcd02915cab2f7bbe12775724095b",
          "transactionIndex": "0x7f",
          "logIndex": "0x135",
          "removed": false
        }
      ],
      "logsBloom": "0x00000000000000000000000000000000000000000000000000000000000000000000000000000000000000000000000000000000000004000000000000000000000000000000000000000000000000000000000000000000000000000100000000000000000000000000000000000004000000000000000000000000000000000000000000000000000000000000000000000000000000000000000000000000000000000000000000400000010000000000000000000000000000000000000000000000000000000000000000000000000000000000000000000000000000000000000000000000000000000000000000000000000000000000002000000000",
      "type": "0x2",
      "transactionHash": "0xa8994d585afcd5271f0a6c05a2849874f78fcd02915cab2f7bbe12775724095b",
      "transactionIndex": "0x7f",
      "blockHash": "0xb5fc866c2eb298c6b7cf9220edc7ede0e3d33a99f28558819fe9689e88e54690",
      "blockNumber": "0x1586fdf",
      "gasUsed": "0xca8c",
      "effectiveGasPrice": "0xad3eb1c3",
      "from": "0xb819a871d20913839c37f316dc914b0570bfc0ee",
      "to": "0x4df3dd62db219c47f6a7cb1be02c511afceadf5e",
      "contractAddress": null
    }
  ],
  "libraries": [],
  "pending": [],
  "returns": {},
  "timestamp": 1748335609,
  "chain": 1,
  "commit": "9b668a0"
}