{
  "transactions": [
    {
      "hash": "0x1b526ebf44c6d660a1a106f98153a1656a75790f62cac3a922304c248fc23b1a",
      "transactionType": "CALL",
      "contractName": null,
      "contractAddress": "0x269c36a173d881720544fb303e681370158ff1fd",
      "function": "setGasFee(uint32,uint256)",
      "arguments": [
        "8453",
        "83338358600000"
      ],
      "transaction": {
        "from": "0xb819a871d20913839c37f316dc914b0570bfc0ee",
        "to": "0x269c36a173d881720544fb303e681370158ff1fd",
        "gas": "0x11bbd",
        "value": "0x0",
        "input": "0xd8ddb33c000000000000000000000000000000000000000000000000000000000000210500000000000000000000000000000000000000000000000000004bcbb942b140",
        "nonce": "0x275",
        "chainId": "0xe708"
      },
      "additionalContracts": [],
      "isFixedGasLimit": false
    },
    {
      "hash": "0x70c4019246f522027f6b9dba5be91f99238d825163270ed13666700e56b45057",
      "transactionType": "CALL",
      "contractName": null,
      "contractAddress": "0x269c36a173d881720544fb303e681370158ff1fd",
      "function": "setGasFee(uint32,uint256)",
      "arguments": [
        "59144",
        "108904397956204"
      ],
      "transaction": {
        "from": "0xb819a871d20913839c37f316dc914b0570bfc0ee",
        "to": "0x269c36a173d881720544fb303e681370158ff1fd",
        "gas": "0x11bbd",
        "value": "0x0",
        "input": "0xd8ddb33c000000000000000000000000000000000000000000000000000000000000e7080000000000000000000000000000000000000000000000000000630c47f4646c",
        "nonce": "0x276",
        "chainId": "0xe708"
      },
      "additionalContracts": [],
      "isFixedGasLimit": false
    },
    {
      "hash": "0x986b74db144eb86ccbe277eb680756ee445e273cdd9fd7c520eff6f5bc6be964",
      "transactionType": "CALL",
      "contractName": null,
      "contractAddress": "0x269c36a173d881720544fb303e681370158ff1fd",
      "function": "setGasFee(uint32,uint256)",
      "arguments": [
        "1",
        "3497531544510113"
      ],
      "transaction": {
        "from": "0xb819a871d20913839c37f316dc914b0570bfc0ee",
        "to": "0x269c36a173d881720544fb303e681370158ff1fd",
        "gas": "0x11bbd",
        "value": "0x0",
        "input": "0xd8ddb33c0000000000000000000000000000000000000000000000000000000000000001000000000000000000000000000000000000000000000000000c6cfc854d1ea1",
        "nonce": "0x277",
        "chainId": "0xe708"
      },
      "additionalContracts": [],
      "isFixedGasLimit": false
    },
    {
      "hash": "0x0ef97b399dc7f9f03abcd80c4a5877c56bfd09f8e4e76aae4514ed862ae87a28",
      "transactionType": "CALL",
      "contractName": null,
      "contractAddress": "0xc7bc6bd45eb84d594f51ced3c5497e6812c7732f",
      "function": "setGasFee(uint32,uint256)",
      "arguments": [
        "8453",
        "83338358600000"
      ],
      "transaction": {
        "from": "0xb819a871d20913839c37f316dc914b0570bfc0ee",
        "to": "0xc7bc6bd45eb84d594f51ced3c5497e6812c7732f",
        "gas": "0x11bbd",
        "value": "0x0",
        "input": "0xd8ddb33c000000000000000000000000000000000000000000000000000000000000210500000000000000000000000000000000000000000000000000004bcbb942b140",
        "nonce": "0x278",
        "chainId": "0xe708"
      },
      "additionalContracts": [],
      "isFixedGasLimit": false
    },
    {
      "hash": "0x64e885b51abc009e263cd659b6e92e7746bd106934f55a26fd916ed11356c829",
      "transactionType": "CALL",
      "contractName": null,
      "contractAddress": "0xc7bc6bd45eb84d594f51ced3c5497e6812c7732f",
      "function": "setGasFee(uint32,uint256)",
      "arguments": [
        "59144",
        "108904397956204"
      ],
      "transaction": {
        "from": "0xb819a871d20913839c37f316dc914b0570bfc0ee",
        "to": "0xc7bc6bd45eb84d594f51ced3c5497e6812c7732f",
        "gas": "0x11bbd",
        "value": "0x0",
        "input": "0xd8ddb33c000000000000000000000000000000000000000000000000000000000000e7080000000000000000000000000000000000000000000000000000630c47f4646c",
        "nonce": "0x279",
        "chainId": "0xe708"
      },
      "additionalContracts": [],
      "isFixedGasLimit": false
    },
    {
      "hash": "0x2c983fda34a963f6afba075cbafbe23cdf585e548a94d3989ecf47ef42ffa903",
      "transactionType": "CALL",
      "contractName": null,
      "contractAddress": "0xc7bc6bd45eb84d594f51ced3c5497e6812c7732f",
      "function": "setGasFee(uint32,uint256)",
      "arguments": [
        "1",
        "3497531544510113"
      ],
      "transaction": {
        "from": "0xb819a871d20913839c37f316dc914b0570bfc0ee",
        "to": "0xc7bc6bd45eb84d594f51ced3c5497e6812c7732f",
        "gas": "0x11bbd",
        "value": "0x0",
        "input": "0xd8ddb33c0000000000000000000000000000000000000000000000000000000000000001000000000000000000000000000000000000000000000000000c6cfc854d1ea1",
        "nonce": "0x27a",
        "chainId": "0xe708"
      },
      "additionalContracts": [],
      "isFixedGasLimit": false
    },
    {
      "hash": "0x46fafe7a2b335abaabd224eebfa4878533a7d12fa9a83ae29c0b82e974a692cf",
      "transactionType": "CALL",
      "contractName": null,
      "contractAddress": "0xdf0635c1ecfdf08146150691a97e2ff6a8aa1a90",
      "function": "setGasFee(uint32,uint256)",
      "arguments": [
        "8453",
        "83338358600000"
      ],
      "transaction": {
        "from": "0xb819a871d20913839c37f316dc914b0570bfc0ee",
        "to": "0xdf0635c1ecfdf08146150691a97e2ff6a8aa1a90",
        "gas": "0x11bbd",
        "value": "0x0",
        "input": "0xd8ddb33c000000000000000000000000000000000000000000000000000000000000210500000000000000000000000000000000000000000000000000004bcbb942b140",
        "nonce": "0x27b",
        "chainId": "0xe708"
      },
      "additionalContracts": [],
      "isFixedGasLimit": false
    },
    {
      "hash": "0x0e0cd4b325777d47ebc0433cc593b4689185323936497e3dee343a597b78d719",
      "transactionType": "CALL",
      "contractName": null,
      "contractAddress": "0xdf0635c1ecfdf08146150691a97e2ff6a8aa1a90",
      "function": "setGasFee(uint32,uint256)",
      "arguments": [
        "59144",
        "108904397956204"
      ],
      "transaction": {
        "from": "0xb819a871d20913839c37f316dc914b0570bfc0ee",
        "to": "0xdf0635c1ecfdf08146150691a97e2ff6a8aa1a90",
        "gas": "0x11bbd",
        "value": "0x0",
        "input": "0xd8ddb33c000000000000000000000000000000000000000000000000000000000000e7080000000000000000000000000000000000000000000000000000630c47f4646c",
        "nonce": "0x27c",
        "chainId": "0xe708"
      },
      "additionalContracts": [],
      "isFixedGasLimit": false
    },
    {
      "hash": "0x227502f3f73e7066e90075573f1360c0f7f7a100b56ae3fada86a125dbf3bd3a",
      "transactionType": "CALL",
      "contractName": null,
      "contractAddress": "0xdf0635c1ecfdf08146150691a97e2ff6a8aa1a90",
      "function": "setGasFee(uint32,uint256)",
      "arguments": [
        "1",
        "3497531544510113"
      ],
      "transaction": {
        "from": "0xb819a871d20913839c37f316dc914b0570bfc0ee",
        "to": "0xdf0635c1ecfdf08146150691a97e2ff6a8aa1a90",
        "gas": "0x11bbd",
        "value": "0x0",
        "input": "0xd8ddb33c0000000000000000000000000000000000000000000000000000000000000001000000000000000000000000000000000000000000000000000c6cfc854d1ea1",
        "nonce": "0x27d",
        "chainId": "0xe708"
      },
      "additionalContracts": [],
      "isFixedGasLimit": false
    },
    {
      "hash": "0x71de61b462f52f359e1cf4d084659a7f1c08692e2454bbc56b5e6e60f2e39397",
      "transactionType": "CALL",
      "contractName": null,
      "contractAddress": "0x2b588f7f4832561e46924f3ea54c244569724915",
      "function": "setGasFee(uint32,uint256)",
      "arguments": [
        "8453",
        "83338358600000"
      ],
      "transaction": {
        "from": "0xb819a871d20913839c37f316dc914b0570bfc0ee",
        "to": "0x2b588f7f4832561e46924f3ea54c244569724915",
        "gas": "0x11bbd",
        "value": "0x0",
        "input": "0xd8ddb33c000000000000000000000000000000000000000000000000000000000000210500000000000000000000000000000000000000000000000000004bcbb942b140",
        "nonce": "0x27e",
        "chainId": "0xe708"
      },
      "additionalContracts": [],
      "isFixedGasLimit": false
    },
    {
      "hash": "0x41ee8ac0d420ee5755c6d28c99633cb031b4725441902a7efbb06c6eb93c7c72",
      "transactionType": "CALL",
      "contractName": null,
      "contractAddress": "0x2b588f7f4832561e46924f3ea54c244569724915",
      "function": "setGasFee(uint32,uint256)",
      "arguments": [
        "59144",
        "108904397956204"
      ],
      "transaction": {
        "from": "0xb819a871d20913839c37f316dc914b0570bfc0ee",
        "to": "0x2b588f7f4832561e46924f3ea54c244569724915",
        "gas": "0x11bbd",
        "value": "0x0",
        "input": "0xd8ddb33c000000000000000000000000000000000000000000000000000000000000e7080000000000000000000000000000000000000000000000000000630c47f4646c",
        "nonce": "0x27f",
        "chainId": "0xe708"
      },
      "additionalContracts": [],
      "isFixedGasLimit": false
    },
    {
      "hash": "0x30b1e8836d65ae2e93f51cc088842fb5cd3f5ad8a79679a7ed7f83b759593d3f",
      "transactionType": "CALL",
      "contractName": null,
      "contractAddress": "0x2b588f7f4832561e46924f3ea54c244569724915",
      "function": "setGasFee(uint32,uint256)",
      "arguments": [
        "1",
        "3497531544510113"
      ],
      "transaction": {
        "from": "0xb819a871d20913839c37f316dc914b0570bfc0ee",
        "to": "0x2b588f7f4832561e46924f3ea54c244569724915",
        "gas": "0x11bbd",
        "value": "0x0",
        "input": "0xd8ddb33c0000000000000000000000000000000000000000000000000000000000000001000000000000000000000000000000000000000000000000000c6cfc854d1ea1",
        "nonce": "0x280",
        "chainId": "0xe708"
      },
      "additionalContracts": [],
      "isFixedGasLimit": false
    },
    {
      "hash": "0x9d90ffc0e75d2d89aee00a505a142ab5e49e257ff1c3a957407aa162a84eb946",
      "transactionType": "CALL",
      "contractName": null,
      "contractAddress": "0x1d8e8cefeb085f3211ab6a443ad9051b54d1cd1a",
      "function": "setGasFee(uint32,uint256)",
      "arguments": [
        "8453",
        "83338358600000"
      ],
      "transaction": {
        "from": "0xb819a871d20913839c37f316dc914b0570bfc0ee",
        "to": "0x1d8e8cefeb085f3211ab6a443ad9051b54d1cd1a",
        "gas": "0x11bbd",
        "value": "0x0",
        "input": "0xd8ddb33c000000000000000000000000000000000000000000000000000000000000210500000000000000000000000000000000000000000000000000004bcbb942b140",
        "nonce": "0x281",
        "chainId": "0xe708"
      },
      "additionalContracts": [],
      "isFixedGasLimit": false
    },
    {
      "hash": "0x9a52ffb1f5e927a7cdc84ee2ea6e807fd6ab4e68696f445c79852ee1a3e68341",
      "transactionType": "CALL",
      "contractName": null,
      "contractAddress": "0x1d8e8cefeb085f3211ab6a443ad9051b54d1cd1a",
      "function": "setGasFee(uint32,uint256)",
      "arguments": [
        "59144",
        "108904397956204"
      ],
      "transaction": {
        "from": "0xb819a871d20913839c37f316dc914b0570bfc0ee",
        "to": "0x1d8e8cefeb085f3211ab6a443ad9051b54d1cd1a",
        "gas": "0x11bbd",
        "value": "0x0",
        "input": "0xd8ddb33c000000000000000000000000000000000000000000000000000000000000e7080000000000000000000000000000000000000000000000000000630c47f4646c",
        "nonce": "0x282",
        "chainId": "0xe708"
      },
      "additionalContracts": [],
      "isFixedGasLimit": false
    },
    {
      "hash": "0x8af6ef06dae798a6185e1f3eeca0afde96e09b676c4022e7b9a8e812c2436e5c",
      "transactionType": "CALL",
      "contractName": null,
      "contractAddress": "0x1d8e8cefeb085f3211ab6a443ad9051b54d1cd1a",
      "function": "setGasFee(uint32,uint256)",
      "arguments": [
        "1",
        "3497531544510113"
      ],
      "transaction": {
        "from": "0xb819a871d20913839c37f316dc914b0570bfc0ee",
        "to": "0x1d8e8cefeb085f3211ab6a443ad9051b54d1cd1a",
        "gas": "0x11bbd",
        "value": "0x0",
        "input": "0xd8ddb33c0000000000000000000000000000000000000000000000000000000000000001000000000000000000000000000000000000000000000000000c6cfc854d1ea1",
        "nonce": "0x283",
        "chainId": "0xe708"
      },
      "additionalContracts": [],
      "isFixedGasLimit": false
    },
    {
      "hash": "0x4ff768be5861b131d24d69ae90911914a03e155c212b4a1ec744c58a281dfaa7",
      "transactionType": "CALL",
      "contractName": null,
      "contractAddress": "0x0b3c6645f4f2442ad4bbee2e2273a250461ca6f8",
      "function": "setGasFee(uint32,uint256)",
      "arguments": [
        "8453",
        "83338358600000"
      ],
      "transaction": {
        "from": "0xb819a871d20913839c37f316dc914b0570bfc0ee",
        "to": "0x0b3c6645f4f2442ad4bbee2e2273a250461ca6f8",
        "gas": "0x11bbd",
        "value": "0x0",
        "input": "0xd8ddb33c000000000000000000000000000000000000000000000000000000000000210500000000000000000000000000000000000000000000000000004bcbb942b140",
        "nonce": "0x284",
        "chainId": "0xe708"
      },
      "additionalContracts": [],
      "isFixedGasLimit": false
    },
    {
      "hash": "0xbd8f995d30e0f9e1b6c276711de06eacf3a55d83ecb23073dd485e8980426e5a",
      "transactionType": "CALL",
      "contractName": null,
      "contractAddress": "0x0b3c6645f4f2442ad4bbee2e2273a250461ca6f8",
      "function": "setGasFee(uint32,uint256)",
      "arguments": [
        "59144",
        "108904397956204"
      ],
      "transaction": {
        "from": "0xb819a871d20913839c37f316dc914b0570bfc0ee",
        "to": "0x0b3c6645f4f2442ad4bbee2e2273a250461ca6f8",
        "gas": "0x11bbd",
        "value": "0x0",
        "input": "0xd8ddb33c000000000000000000000000000000000000000000000000000000000000e7080000000000000000000000000000000000000000000000000000630c47f4646c",
        "nonce": "0x285",
        "chainId": "0xe708"
      },
      "additionalContracts": [],
      "isFixedGasLimit": false
    },
    {
      "hash": "0x248c83f467ea3d6424456682ede9b14e3d7669a6566b8a7909e2178ecef7bc13",
      "transactionType": "CALL",
      "contractName": null,
      "contractAddress": "0x0b3c6645f4f2442ad4bbee2e2273a250461ca6f8",
      "function": "setGasFee(uint32,uint256)",
      "arguments": [
        "1",
        "3497531544510113"
      ],
      "transaction": {
        "from": "0xb819a871d20913839c37f316dc914b0570bfc0ee",
        "to": "0x0b3c6645f4f2442ad4bbee2e2273a250461ca6f8",
        "gas": "0x11bbd",
        "value": "0x0",
        "input": "0xd8ddb33c0000000000000000000000000000000000000000000000000000000000000001000000000000000000000000000000000000000000000000000c6cfc854d1ea1",
        "nonce": "0x286",
        "chainId": "0xe708"
      },
      "additionalContracts": [],
      "isFixedGasLimit": false
    },
    {
      "hash": "0x08ed1341d7c3299efcb97b3f7ffc809a33cd4d11c6c0ba1b52582d6bfa0aa4b9",
      "transactionType": "CALL",
      "contractName": null,
      "contractAddress": "0x8bad0c523516262a439197736fff982f5e0987cc",
      "function": "setGasFee(uint32,uint256)",
      "arguments": [
        "8453",
        "83338358600000"
      ],
      "transaction": {
        "from": "0xb819a871d20913839c37f316dc914b0570bfc0ee",
        "to": "0x8bad0c523516262a439197736fff982f5e0987cc",
        "gas": "0x11bbd",
        "value": "0x0",
        "input": "0xd8ddb33c000000000000000000000000000000000000000000000000000000000000210500000000000000000000000000000000000000000000000000004bcbb942b140",
        "nonce": "0x287",
        "chainId": "0xe708"
      },
      "additionalContracts": [],
      "isFixedGasLimit": false
    },
    {
      "hash": "0x74bdc1f3c4badc251257056d87d1e1c740bd569e432a3ccb377e25c9052986af",
      "transactionType": "CALL",
      "contractName": null,
      "contractAddress": "0x8bad0c523516262a439197736fff982f5e0987cc",
      "function": "setGasFee(uint32,uint256)",
      "arguments": [
        "59144",
        "108904397956204"
      ],
      "transaction": {
        "from": "0xb819a871d20913839c37f316dc914b0570bfc0ee",
        "to": "0x8bad0c523516262a439197736fff982f5e0987cc",
        "gas": "0x11bbd",
        "value": "0x0",
        "input": "0xd8ddb33c000000000000000000000000000000000000000000000000000000000000e7080000000000000000000000000000000000000000000000000000630c47f4646c",
        "nonce": "0x288",
        "chainId": "0xe708"
      },
      "additionalContracts": [],
      "isFixedGasLimit": false
    },
    {
      "hash": "0xf321c9caefcd43b6049691320efc5d5daaec32f34a1c40ec2041d294b9873cbf",
      "transactionType": "CALL",
      "contractName": null,
      "contractAddress": "0x8bad0c523516262a439197736fff982f5e0987cc",
      "function": "setGasFee(uint32,uint256)",
      "arguments": [
        "1",
        "3497531544510113"
      ],
      "transaction": {
        "from": "0xb819a871d20913839c37f316dc914b0570bfc0ee",
        "to": "0x8bad0c523516262a439197736fff982f5e0987cc",
        "gas": "0x11bbd",
        "value": "0x0",
        "input": "0xd8ddb33c0000000000000000000000000000000000000000000000000000000000000001000000000000000000000000000000000000000000000000000c6cfc854d1ea1",
        "nonce": "0x289",
        "chainId": "0xe708"
      },
      "additionalContracts": [],
      "isFixedGasLimit": false
    },
    {
      "hash": "0x37b0821f5a6558378790064ca98943b464fbd87b681a0962cbbdcd92891ebfc0",
      "transactionType": "CALL",
      "contractName": null,
      "contractAddress": "0x4df3dd62db219c47f6a7cb1be02c511afceadf5e",
      "function": "setGasFee(uint32,uint256)",
      "arguments": [
        "8453",
        "83338358600000"
      ],
      "transaction": {
        "from": "0xb819a871d20913839c37f316dc914b0570bfc0ee",
        "to": "0x4df3dd62db219c47f6a7cb1be02c511afceadf5e",
        "gas": "0x11bbd",
        "value": "0x0",
        "input": "0xd8ddb33c000000000000000000000000000000000000000000000000000000000000210500000000000000000000000000000000000000000000000000004bcbb942b140",
        "nonce": "0x28a",
        "chainId": "0xe708"
      },
      "additionalContracts": [],
      "isFixedGasLimit": false
    },
    {
      "hash": "0x64848c740f426797922f8a1e91d2b8307182f22fe12381d061e3c53f7704c06f",
      "transactionType": "CALL",
      "contractName": null,
      "contractAddress": "0x4df3dd62db219c47f6a7cb1be02c511afceadf5e",
      "function": "setGasFee(uint32,uint256)",
      "arguments": [
        "59144",
        "108904397956204"
      ],
      "transaction": {
        "from": "0xb819a871d20913839c37f316dc914b0570bfc0ee",
        "to": "0x4df3dd62db219c47f6a7cb1be02c511afceadf5e",
        "gas": "0x11bbd",
        "value": "0x0",
        "input": "0xd8ddb33c000000000000000000000000000000000000000000000000000000000000e7080000000000000000000000000000000000000000000000000000630c47f4646c",
        "nonce": "0x28b",
        "chainId": "0xe708"
      },
      "additionalContracts": [],
      "isFixedGasLimit": false
    },
    {
      "hash": "0x576d67ff87aebc5b83ef1395f31976e0989ecff4f1071bb3512b313175dc09f1",
      "transactionType": "CALL",
      "contractName": null,
      "contractAddress": "0x4df3dd62db219c47f6a7cb1be02c511afceadf5e",
      "function": "setGasFee(uint32,uint256)",
      "arguments": [
        "1",
        "3497531544510113"
      ],
      "transaction": {
        "from": "0xb819a871d20913839c37f316dc914b0570bfc0ee",
        "to": "0x4df3dd62db219c47f6a7cb1be02c511afceadf5e",
        "gas": "0x11bbd",
        "value": "0x0",
        "input": "0xd8ddb33c0000000000000000000000000000000000000000000000000000000000000001000000000000000000000000000000000000000000000000000c6cfc854d1ea1",
        "nonce": "0x28c",
        "chainId": "0xe708"
      },
      "additionalContracts": [],
      "isFixedGasLimit": false
    }
  ],
  "receipts": [
    {
      "status": "0x1",
      "cumulativeGasUsed": "0x5ccd5",
      "logs": [
        {
          "address": "0x269c36a173d881720544fb303e681370158ff1fd",
          "topics": [
            "0x45b21517516b1df60737f7208bb619ba2d28debebbc5501e6bba39f466dd625b",
            "0x0000000000000000000000000000000000000000000000000000000000002105"
          ],
          "data": "0x00000000000000000000000000000000000000000000000000004bcbb942b140",
          "blockHash": "0x3ffb50f7a4048861bb3dc04a8d75bd0313518a14e6d15f324f5441d991db850f",
          "blockNumber": "0x12809bf",
          "transactionHash": "0x1b526ebf44c6d660a1a106f98153a1656a75790f62cac3a922304c248fc23b1a",
          "transactionIndex": "0x5",
          "logIndex": "0x6",
          "removed": false
        }
      ],
      "logsBloom": "0x00000000000004000000000000000000000000000000000000000000000000000000000000000008000000000000000000000010000000000001000000000000000000000000000000000000000000000000000000000000000000000000000000010000000000000000000000000000000020000000000000000000000000000000000000000000000000200000000000000000000000000000000020000000000000000000000000100000000000000000000000000000000000000000000000000000000000000000000000000000000000000000000000000000000000000000000000000000000000000000000000000000000000000000000000000000",
      "type": "0x2",
      "transactionHash": "0x1b526ebf44c6d660a1a106f98153a1656a75790f62cac3a922304c248fc23b1a",
      "transactionIndex": "0x5",
      "blockHash": "0x3ffb50f7a4048861bb3dc04a8d75bd0313518a14e6d15f324f5441d991db850f",
      "blockNumber": "0x12809bf",
      "gasUsed": "0xcd6d",
      "effectiveGasPrice": "0x303dce5",
      "from": "0xb819a871d20913839c37f316dc914b0570bfc0ee",
      "to": "0x269c36a173d881720544fb303e681370158ff1fd",
      "contractAddress": null
    },
    {
      "status": "0x1",
      "cumulativeGasUsed": "0x5ec2b",
      "logs": [
        {
          "address": "0x269c36a173d881720544fb303e681370158ff1fd",
          "topics": [
            "0x45b21517516b1df60737f7208bb619ba2d28debebbc5501e6bba39f466dd625b",
            "0x000000000000000000000000000000000000000000000000000000000000e708"
          ],
          "data": "0x0000000000000000000000000000000000000000000000000000630c47f4646c",
          "blockHash": "0xfe6876f617a5bc2d460ebfcc3dd11c7e8c7aa22389e863953dcab709c33de95b",
          "blockNumber": "0x12809c1",
          "transactionHash": "0x70c4019246f522027f6b9dba5be91f99238d825163270ed13666700e56b45057",
          "transactionIndex": "0x4",
          "logIndex": "0x2",
          "removed": false
        }
      ],
      "logsBloom": "0x00000000000004000000000000000000000000000000000000000000000000000000000000000008000000000000000040000010000000000000000000000001000000000000000000000000000000000000000000000000000000000000000000000000000000000000000000000000000020000000000000000000000000000000000000000000000000200000000000000000000000000000000400000000000000000000000000100000000000000000000000000000000000000000000000000000000000000000000000000000000000000000000000000000000000000000000000000000000000000000000000000000000000000000000000000000",
      "type": "0x2",
      "transactionHash": "0x70c4019246f522027f6b9dba5be91f99238d825163270ed13666700e56b45057",
      "transactionIndex": "0x4",
      "blockHash": "0xfe6876f617a5bc2d460ebfcc3dd11c7e8c7aa22389e863953dcab709c33de95b",
      "blockNumber": "0x12809c1",
      "gasUsed": "0xcd6d",
      "effectiveGasPrice": "0x303dce5",
      "from": "0xb819a871d20913839c37f316dc914b0570bfc0ee",
      "to": "0x269c36a173d881720544fb303e681370158ff1fd",
      "contractAddress": null
    },
    {
      "status": "0x1",
      "cumulativeGasUsed": "0x21a2b",
      "logs": [
        {
          "address": "0x269c36a173d881720544fb303e681370158ff1fd",
          "topics": [
            "0x45b21517516b1df60737f7208bb619ba2d28debebbc5501e6bba39f466dd625b",
            "0x0000000000000000000000000000000000000000000000000000000000000001"
          ],
          "data": "0x000000000000000000000000000000000000000000000000000c6cfc854d1ea1",
          "blockHash": "0x04af9ddfcbaddc8ac9f844209fbda7409d24b93140bf4fb38cbfd2ce28de06fa",
          "blockNumber": "0x12809c3",
          "transactionHash": "0x986b74db144eb86ccbe277eb680756ee445e273cdd9fd7c520eff6f5bc6be964",
          "transactionIndex": "0x2",
          "logIndex": "0x2",
          "removed": false
        }
      ],
      "logsBloom": "0x00000000000004000000000000000000000000000000000000000000000000000000000000000008000000000000000000000010000000000000000000040000000000000000000000000000000000000000000000040000000000000000000000000000000000000000000000000000000020000000000000000000000000000000000000000000000000200000000000000000000000000000000000000000000000000000000000100000000000000000000000000000000000000000000000000000000000000000000000000000000000000000000000000000000040000000000000000000000000000000000000000000000000000000000000000000",
      "type": "0x2",
      "transactionHash": "0x986b74db144eb86ccbe277eb680756ee445e273cdd9fd7c520eff6f5bc6be964",
      "transactionIndex": "0x2",
      "blockHash": "0x04af9ddfcbaddc8ac9f844209fbda7409d24b93140bf4fb38cbfd2ce28de06fa",
      "blockNumber": "0x12809c3",
      "gasUsed": "0xcd6d",
      "effectiveGasPrice": "0x303dce5",
      "from": "0xb819a871d20913839c37f316dc914b0570bfc0ee",
      "to": "0x269c36a173d881720544fb303e681370158ff1fd",
      "contractAddress": null
    },
    {
      "status": "0x1",
      "cumulativeGasUsed": "0x24321",
      "logs": [
        {
          "address": "0xc7bc6bd45eb84d594f51ced3c5497e6812c7732f",
          "topics": [
            "0x45b21517516b1df60737f7208bb619ba2d28debebbc5501e6bba39f466dd625b",
            "0x0000000000000000000000000000000000000000000000000000000000002105"
          ],
          "data": "0x00000000000000000000000000000000000000000000000000004bcbb942b140",
          "blockHash": "0xdb2b5769b070d62bef5729e5f681ba536555ee9030ccc017c855db6eb73a52ec",
          "blockNumber": "0x12809c5",
          "transactionHash": "0x0ef97b399dc7f9f03abcd80c4a5877c56bfd09f8e4e76aae4514ed862ae87a28",
          "transactionIndex": "0x2",
          "logIndex": "0x1",
          "removed": false
        }
      ],
      "logsBloom": "0x00000000000004000000000000000000000000000000000000000000000000000000000000000000000000000000000000000000000000000001000000000000008000000000000000000000000080000000000000000000000000000000000000010000000000000000000040000000000020000000000000000000000000000000000000000000000000200000000000000000000000000000000020000000000000000000000000000000000000000000000000000000000000000000000000000000000000000000000000000000000000000000000000000000000000000000000000000000000000000000000000000000000000000000000000000000",
      "type": "0x2",
      "transactionHash": "0x0ef97b399dc7f9f03abcd80c4a5877c56bfd09f8e4e76aae4514ed862ae87a28",
      "transactionIndex": "0x2",
      "blockHash": "0xdb2b5769b070d62bef5729e5f681ba536555ee9030ccc017c855db6eb73a52ec",
      "blockNumber": "0x12809c5",
      "gasUsed": "0xcd6d",
      "effectiveGasPrice": "0x303dce5",
      "from": "0xb819a871d20913839c37f316dc914b0570bfc0ee",
      "to": "0xc7bc6bd45eb84d594f51ced3c5497e6812c7732f",
      "contractAddress": null
    },
    {
      "status": "0x1",
      "cumulativeGasUsed": "0xcd6d",
      "logs": [
        {
          "address": "0xc7bc6bd45eb84d594f51ced3c5497e6812c7732f",
          "topics": [
            "0x45b21517516b1df60737f7208bb619ba2d28debebbc5501e6bba39f466dd625b",
            "0x000000000000000000000000000000000000000000000000000000000000e708"
          ],
          "data": "0x0000000000000000000000000000000000000000000000000000630c47f4646c",
          "blockHash": "0x05b259d3ec6b0e54ecaa378559bd702e6d61b2ed223be5cb0c00e4597b038f20",
          "blockNumber": "0x12809c7",
          "transactionHash": "0x64e885b51abc009e263cd659b6e92e7746bd106934f55a26fd916ed11356c829",
          "transactionIndex": "0x0",
          "logIndex": "0x0",
          "removed": false
        }
      ],
      "logsBloom": "0x00000000000004000000000000000000000000000000000000000000000000000000000000000000000000000000000040000000000000000000000000000001008000000000000000000000000080000000000000000000000000000000000000000000000000000000000040000000000020000000000000000000000000000000000000000000000000200000000000000000000000000000000400000000000000000000000000000000000000000000000000000000000000000000000000000000000000000000000000000000000000000000000000000000000000000000000000000000000000000000000000000000000000000000000000000000",
      "type": "0x2",
      "transactionHash": "0x64e885b51abc009e263cd659b6e92e7746bd106934f55a26fd916ed11356c829",
      "transactionIndex": "0x0",
      "blockHash": "0x05b259d3ec6b0e54ecaa378559bd702e6d61b2ed223be5cb0c00e4597b038f20",
      "blockNumber": "0x12809c7",
      "gasUsed": "0xcd6d",
      "effectiveGasPrice": "0x303dce5",
      "from": "0xb819a871d20913839c37f316dc914b0570bfc0ee",
      "to": "0xc7bc6bd45eb84d594f51ced3c5497e6812c7732f",
      "contractAddress": null
    },
    {
      "status": "0x1",
      "cumulativeGasUsed": "0x86c87",
      "logs": [
        {
          "address": "0xc7bc6bd45eb84d594f51ced3c5497e6812c7732f",
          "topics": [
            "0x45b21517516b1df60737f7208bb619ba2d28debebbc5501e6bba39f466dd625b",
            "0x0000000000000000000000000000000000000000000000000000000000000001"
          ],
          "data": "0x000000000000000000000000000000000000000000000000000c6cfc854d1ea1",
          "blockHash": "0x1e622ac1f2edd331f1bac7522999d10d9b4f9e8d589aaa7f3f983d7ff87e6f58",
          "blockNumber": "0x12809ca",
          "transactionHash": "0x2c983fda34a963f6afba075cbafbe23cdf585e548a94d3989ecf47ef42ffa903",
          "transactionIndex": "0x6",
          "logIndex": "0x3",
          "removed": false
        }
      ],
      "logsBloom": "0x00000000000004000000000000000000000000000000000000000000000000000000000000000000000000000000000000000000000000000000000000040000008000000000000000000000000080000000000000040000000000000000000000000000000000000000000040000000000020000000000000000000000000000000000000000000000000200000000000000000000000000000000000000000000000000000000000000000000000000000000000000000000000000000000000000000000000000000000000000000000000000000000000000000000040000000000000000000000000000000000000000000000000000000000000000000",
      "type": "0x2",
      "transactionHash": "0x2c983fda34a963f6afba075cbafbe23cdf585e548a94d3989ecf47ef42ffa903",
      "transactionIndex": "0x6",
      "blockHash": "0x1e622ac1f2edd331f1bac7522999d10d9b4f9e8d589aaa7f3f983d7ff87e6f58",
      "blockNumber": "0x12809ca",
      "gasUsed": "0xcd6d",
      "effectiveGasPrice": "0x303dce5",
      "from": "0xb819a871d20913839c37f316dc914b0570bfc0ee",
      "to": "0xc7bc6bd45eb84d594f51ced3c5497e6812c7732f",
      "contractAddress": null
    },
    {
      "status": "0x1",
      "cumulativeGasUsed": "0xa4350",
      "logs": [
        {
          "address": "0xdf0635c1ecfdf08146150691a97e2ff6a8aa1a90",
          "topics": [
            "0x45b21517516b1df60737f7208bb619ba2d28debebbc5501e6bba39f466dd625b",
            "0x0000000000000000000000000000000000000000000000000000000000002105"
          ],
          "data": "0x00000000000000000000000000000000000000000000000000004bcbb942b140",
          "blockHash": "0x5f2e83b244df7372c7e256cb3a617ab63b6dd11bec9045b6e5e83a89158db535",
          "blockNumber": "0x12809cc",
          "transactionHash": "0x46fafe7a2b335abaabd224eebfa4878533a7d12fa9a83ae29c0b82e974a692cf",
          "transactionIndex": "0x3",
          "logIndex": "0x11",
          "removed": false
        }
      ],
      "logsBloom": "0x00000000000005000000000000000000000000000000000000000000000000000000000000000000000000000000002000000000000000000001400000000000000000000000000000000000000000000000000000000000000000000000000000010000000000000000000000000000000020000000000000000000000000000000000000000000000000200000000000000000000000000000000020000000000000000000000000000000000000000000000000000000000000000000000000000000000000000000000000000000000000000000000000000000000000000000000000000000000000000000000000000000000000000000000000000000",
      "type": "0x2",
      "transactionHash": "0x46fafe7a2b335abaabd224eebfa4878533a7d12fa9a83ae29c0b82e974a692cf",
      "transactionIndex": "0x3",
      "blockHash": "0x5f2e83b244df7372c7e256cb3a617ab63b6dd11bec9045b6e5e83a89158db535",
      "blockNumber": "0x12809cc",
      "gasUsed": "0xcd6d",
      "effectiveGasPrice": "0x303dce5",
      "from": "0xb819a871d20913839c37f316dc914b0570bfc0ee",
      "to": "0xdf0635c1ecfdf08146150691a97e2ff6a8aa1a90",
      "contractAddress": null
    },
    {
      "status": "0x1",
      "cumulativeGasUsed": "0xb7d87",
      "logs": [
        {
          "address": "0xdf0635c1ecfdf08146150691a97e2ff6a8aa1a90",
          "topics": [
            "0x45b21517516b1df60737f7208bb619ba2d28debebbc5501e6bba39f466dd625b",
            "0x000000000000000000000000000000000000000000000000000000000000e708"
          ],
          "data": "0x0000000000000000000000000000000000000000000000000000630c47f4646c",
          "blockHash": "0x5a146111d170dc40c617eb834472a83be5a1ae92b124670d3196cb828eb6eb5b",
          "blockNumber": "0x12809ce",
          "transactionHash": "0x0e0cd4b325777d47ebc0433cc593b4689185323936497e3dee343a597b78d719",
          "transactionIndex": "0x5",
          "logIndex": "0xb",
          "removed": false
        }
      ],
      "logsBloom": "0x00000000000005000000000000000000000000000000000000000000000000000000000000000000000000000000002040000000000000000000400000000001000000000000000000000000000000000000000000000000000000000000000000000000000000000000000000000000000020000000000000000000000000000000000000000000000000200000000000000000000000000000000400000000000000000000000000000000000000000000000000000000000000000000000000000000000000000000000000000000000000000000000000000000000000000000000000000000000000000000000000000000000000000000000000000000",
      "type": "0x2",
      "transactionHash": "0x0e0cd4b325777d47ebc0433cc593b4689185323936497e3dee343a597b78d719",
      "transactionIndex": "0x5",
      "blockHash": "0x5a146111d170dc40c617eb834472a83be5a1ae92b124670d3196cb828eb6eb5b",
      "blockNumber": "0x12809ce",
      "gasUsed": "0xcd6d",
      "effectiveGasPrice": "0x303dce5",
      "from": "0xb819a871d20913839c37f316dc914b0570bfc0ee",
      "to": "0xdf0635c1ecfdf08146150691a97e2ff6a8aa1a90",
      "contractAddress": null
    },
    {
      "status": "0x1",
      "cumulativeGasUsed": "0x6cf08",
      "logs": [
        {
          "address": "0xdf0635c1ecfdf08146150691a97e2ff6a8aa1a90",
          "topics": [
            "0x45b21517516b1df60737f7208bb619ba2d28debebbc5501e6bba39f466dd625b",
            "0x0000000000000000000000000000000000000000000000000000000000000001"
          ],
          "data": "0x000000000000000000000000000000000000000000000000000c6cfc854d1ea1",
          "blockHash": "0xd849e166169e87ab2063fc91c71eb47762c650e654fea4ce03840c975b6c033c",
          "blockNumber": "0x12809d0",
          "transactionHash": "0x227502f3f73e7066e90075573f1360c0f7f7a100b56ae3fada86a125dbf3bd3a",
          "transactionIndex": "0x2",
          "logIndex": "0xb",
          "removed": false
        }
      ],
      "logsBloom": "0x00000000000005000000000000000000000000000000000000000000000000000000000000000000000000000000002000000000000000000000400000040000000000000000000000000000000000000000000000040000000000000000000000000000000000000000000000000000000020000000000000000000000000000000000000000000000000200000000000000000000000000000000000000000000000000000000000000000000000000000000000000000000000000000000000000000000000000000000000000000000000000000000000000000000040000000000000000000000000000000000000000000000000000000000000000000",
      "type": "0x2",
      "transactionHash": "0x227502f3f73e7066e90075573f1360c0f7f7a100b56ae3fada86a125dbf3bd3a",
      "transactionIndex": "0x2",
      "blockHash": "0xd849e166169e87ab2063fc91c71eb47762c650e654fea4ce03840c975b6c033c",
      "blockNumber": "0x12809d0",
      "gasUsed": "0xcd6d",
      "effectiveGasPrice": "0x303dce5",
      "from": "0xb819a871d20913839c37f316dc914b0570bfc0ee",
      "to": "0xdf0635c1ecfdf08146150691a97e2ff6a8aa1a90",
      "contractAddress": null
    },
    {
      "status": "0x1",
      "cumulativeGasUsed": "0xcd6d",
      "logs": [
        {
          "address": "0x2b588f7f4832561e46924f3ea54c244569724915",
          "topics": [
            "0x45b21517516b1df60737f7208bb619ba2d28debebbc5501e6bba39f466dd625b",
            "0x0000000000000000000000000000000000000000000000000000000000002105"
          ],
          "data": "0x00000000000000000000000000000000000000000000000000004bcbb942b140",
          "blockHash": "0x2259e984b837d77ad48a345aaaa4e11849aef058c9f00b00dcecc2867331d7f2",
          "blockNumber": "0x12809d3",
          "transactionHash": "0x71de61b462f52f359e1cf4d084659a7f1c08692e2454bbc56b5e6e60f2e39397",
          "transactionIndex": "0x0",
          "logIndex": "0x0",
          "removed": false
        }
      ],
      "logsBloom": "0x00000000000004000000000000000000000000000000000000000000000000000000000000000000000000000000000000000000000000000001000000020000000000200000000000000000000000000000000000000000000000000000000000010000000000000000000000000000000020000000000000000000000000000000000000000000000000200000000000000000000000000000000020000000000000000000000000000000000000000000000000000000000000000000000000000000000000000000000000000000000000000000000000000000000000000000000000000000000000000000000000000000000000000000000000020000",
      "type": "0x2",
      "transactionHash": "0x71de61b462f52f359e1cf4d084659a7f1c08692e2454bbc56b5e6e60f2e39397",
      "transactionIndex": "0x0",
      "blockHash": "0x2259e984b837d77ad48a345aaaa4e11849aef058c9f00b00dcecc2867331d7f2",
      "blockNumber": "0x12809d3",
      "gasUsed": "0xcd6d",
      "effectiveGasPrice": "0x303dce5",
      "from": "0xb819a871d20913839c37f316dc914b0570bfc0ee",
      "to": "0x2b588f7f4832561e46924f3ea54c244569724915",
      "contractAddress": null
    },
    {
      "status": "0x1",
      "cumulativeGasUsed": "0x12169",
      "logs": [
        {
          "address": "0x2b588f7f4832561e46924f3ea54c244569724915",
          "topics": [
            "0x45b21517516b1df60737f7208bb619ba2d28debebbc5501e6bba39f466dd625b",
            "0x000000000000000000000000000000000000000000000000000000000000e708"
          ],
          "data": "0x0000000000000000000000000000000000000000000000000000630c47f4646c",
          "blockHash": "0xa7c7aae199b9a43eacd0198972e894d96bac51f6027fd9a1577f99e61846f8f2",
          "blockNumber": "0x12809d5",
          "transactionHash": "0x41ee8ac0d420ee5755c6d28c99633cb031b4725441902a7efbb06c6eb93c7c72",
          "transactionIndex": "0x1",
          "logIndex": "0x0",
          "removed": false
        }
      ],
      "logsBloom": "0x00000000000004000000000000000000000000000000000000000000000000000000000000000000000000000000000040000000000000000000000000020001000000200000000000000000000000000000000000000000000000000000000000000000000000000000000000000000000020000000000000000000000000000000000000000000000000200000000000000000000000000000000400000000000000000000000000000000000000000000000000000000000000000000000000000000000000000000000000000000000000000000000000000000000000000000000000000000000000000000000000000000000000000000000000020000",
      "type": "0x2",
      "transactionHash": "0x41ee8ac0d420ee5755c6d28c99633cb031b4725441902a7efbb06c6eb93c7c72",
      "transactionIndex": "0x1",
      "blockHash": "0xa7c7aae199b9a43eacd0198972e894d96bac51f6027fd9a1577f99e61846f8f2",
      "blockNumber": "0x12809d5",
      "gasUsed": "0xcd6d",
      "effectiveGasPrice": "0x303dce5",
      "from": "0xb819a871d20913839c37f316dc914b0570bfc0ee",
      "to": "0x2b588f7f4832561e46924f3ea54c244569724915",
      "contractAddress": null
    },
    {
      "status": "0x1",
      "cumulativeGasUsed": "0x3e751",
      "logs": [
        {
          "address": "0x2b588f7f4832561e46924f3ea54c244569724915",
          "topics": [
            "0x45b21517516b1df60737f7208bb619ba2d28debebbc5501e6bba39f466dd625b",
            "0x0000000000000000000000000000000000000000000000000000000000000001"
          ],
          "data": "0x000000000000000000000000000000000000000000000000000c6cfc854d1ea1",
          "blockHash": "0x085de9ecac04859706e891afa24278ea56e6d8bb28d90832307efe84739f6c47",
          "blockNumber": "0x12809d8",
          "transactionHash": "0x30b1e8836d65ae2e93f51cc088842fb5cd3f5ad8a79679a7ed7f83b759593d3f",
          "transactionIndex": "0x3",
          "logIndex": "0x2",
          "removed": false
        }
      ],
      "logsBloom": "0x00000000000004000000000000000000000000000000000000000000000000000000000000000000000000000000000000000000000000000000000000060000000000200000000000000000000000000000000000040000000000000000000000000000000000000000000000000000000020000000000000000000000000000000000000000000000000200000000000000000000000000000000000000000000000000000000000000000000000000000000000000000000000000000000000000000000000000000000000000000000000000000000000000000000040000000000000000000000000000000000000000000000000000000000000020000",
      "type": "0x2",
      "transactionHash": "0x30b1e8836d65ae2e93f51cc088842fb5cd3f5ad8a79679a7ed7f83b759593d3f",
      "transactionIndex": "0x3",
      "blockHash": "0x085de9ecac04859706e891afa24278ea56e6d8bb28d90832307efe84739f6c47",
      "blockNumber": "0x12809d8",
      "gasUsed": "0xcd6d",
      "effectiveGasPrice": "0x303dce5",
      "from": "0xb819a871d20913839c37f316dc914b0570bfc0ee",
      "to": "0x2b588f7f4832561e46924f3ea54c244569724915",
      "contractAddress": null
    },
    {
      "status": "0x1",
      "cumulativeGasUsed": "0x1f9a5",
      "logs": [
        {
          "address": "0x1d8e8cefeb085f3211ab6a443ad9051b54d1cd1a",
          "topics": [
            "0x45b21517516b1df60737f7208bb619ba2d28debebbc5501e6bba39f466dd625b",
            "0x0000000000000000000000000000000000000000000000000000000000002105"
          ],
          "data": "0x00000000000000000000000000000000000000000000000000004bcbb942b140",
          "blockHash": "0x0306963c12ef7947a4f0cd473dbe1dd0aa2c455a0d804296b5431d9db15b6e72",
          "blockNumber": "0x12809db",
          "transactionHash": "0x9d90ffc0e75d2d89aee00a505a142ab5e49e257ff1c3a957407aa162a84eb946",
          "transactionIndex": "0x1",
          "logIndex": "0x1",
          "removed": false
        }
      ],
      "logsBloom": "0x00000000000004000000000002000000000000000800000000000000000000000000000000000000000000000000000000000000000000000001000000000000000000000000000000000000000000000000000000000000000000000000000000010000000000000000000000000000000020000000000000000000000000000000000000000000000000200000000000000000000000000000000020000000000000000000000000000000000000000000000000000000000000000000000000000000000000000000000000000000000000000000000000000000000000000000000000000000000000000000000000000000000000000000000000800000",
      "type": "0x2",
      "transactionHash": "0x9d90ffc0e75d2d89aee00a505a142ab5e49e257ff1c3a957407aa162a84eb946",
      "transactionIndex": "0x1",
      "blockHash": "0x0306963c12ef7947a4f0cd473dbe1dd0aa2c455a0d804296b5431d9db15b6e72",
      "blockNumber": "0x12809db",
      "gasUsed": "0xcd6d",
      "effectiveGasPrice": "0x303dce5",
      "from": "0xb819a871d20913839c37f316dc914b0570bfc0ee",
      "to": "0x1d8e8cefeb085f3211ab6a443ad9051b54d1cd1a",
      "contractAddress": null
    },
    {
      "status": "0x1",
      "cumulativeGasUsed": "0x32dea",
      "logs": [
        {
          "address": "0x1d8e8cefeb085f3211ab6a443ad9051b54d1cd1a",
          "topics": [
            "0x45b21517516b1df60737f7208bb619ba2d28debebbc5501e6bba39f466dd625b",
            "0x000000000000000000000000000000000000000000000000000000000000e708"
          ],
          "data": "0x0000000000000000000000000000000000000000000000000000630c47f4646c",
          "blockHash": "0x8a0d4e6b4d9a948fbfd2082c43bec7e9f7c6ada4c242dfb8cd884eebaf4dd72e",
          "blockNumber": "0x12809de",
          "transactionHash": "0x9a52ffb1f5e927a7cdc84ee2ea6e807fd6ab4e68696f445c79852ee1a3e68341",
          "transactionIndex": "0x2",
          "logIndex": "0x4",
          "removed": false
        }
      ],
      "logsBloom": "0x00000000000004000000000002000000000000000800000000000000000000000000000000000000000000000000000040000000000000000000000000000001000000000000000000000000000000000000000000000000000000000000000000000000000000000000000000000000000020000000000000000000000000000000000000000000000000200000000000000000000000000000000400000000000000000000000000000000000000000000000000000000000000000000000000000000000000000000000000000000000000000000000000000000000000000000000000000000000000000000000000000000000000000000000000800000",
      "type": "0x2",
      "transactionHash": "0x9a52ffb1f5e927a7cdc84ee2ea6e807fd6ab4e68696f445c79852ee1a3e68341",
      "transactionIndex": "0x2",
      "blockHash": "0x8a0d4e6b4d9a948fbfd2082c43bec7e9f7c6ada4c242dfb8cd884eebaf4dd72e",
      "blockNumber": "0x12809de",
      "gasUsed": "0xcd6d",
      "effectiveGasPrice": "0x303dce5",
      "from": "0xb819a871d20913839c37f316dc914b0570bfc0ee",
      "to": "0x1d8e8cefeb085f3211ab6a443ad9051b54d1cd1a",
      "contractAddress": null
    },
    {
      "status": "0x1",
      "cumulativeGasUsed": "0x6cd19",
      "logs": [
        {
          "address": "0x1d8e8cefeb085f3211ab6a443ad9051b54d1cd1a",
          "topics": [
            "0x45b21517516b1df60737f7208bb619ba2d28debebbc5501e6bba39f466dd625b",
            "0x0000000000000000000000000000000000000000000000000000000000000001"
          ],
          "data": "0x000000000000000000000000000000000000000000000000000c6cfc854d1ea1",
          "blockHash": "0xdfb598c67facfec085ddb5ceb01e742bf5d9f1387490202afb47d860f7e63b8c",
          "blockNumber": "0x12809e0",
          "transactionHash": "0x8af6ef06dae798a6185e1f3eeca0afde96e09b676c4022e7b9a8e812c2436e5c",
          "transactionIndex": "0x2",
          "logIndex": "0xe",
          "removed": false
        }
      ],
      "logsBloom": "0x00000000000004000000000002000000000000000800000000000000000000000000000000000000000000000000000000000000000000000000000000040000000000000000000000000000000000000000000000040000000000000000000000000000000000000000000000000000000020000000000000000000000000000000000000000000000000200000000000000000000000000000000000000000000000000000000000000000000000000000000000000000000000000000000000000000000000000000000000000000000000000000000000000000000040000000000000000000000000000000000000000000000000000000000000800000",
      "type": "0x2",
      "transactionHash": "0x8af6ef06dae798a6185e1f3eeca0afde96e09b676c4022e7b9a8e812c2436e5c",
      "transactionIndex": "0x2",
      "blockHash": "0xdfb598c67facfec085ddb5ceb01e742bf5d9f1387490202afb47d860f7e63b8c",
      "blockNumber": "0x12809e0",
      "gasUsed": "0xcd6d",
      "effectiveGasPrice": "0x303dce5",
      "from": "0xb819a871d20913839c37f316dc914b0570bfc0ee",
      "to": "0x1d8e8cefeb085f3211ab6a443ad9051b54d1cd1a",
      "contractAddress": null
    },
    {
      "status": "0x1",
      "cumulativeGasUsed": "0x1c6f9",
      "logs": [
        {
          "address": "0x0b3c6645f4f2442ad4bbee2e2273a250461ca6f8",
          "topics": [
            "0x45b21517516b1df60737f7208bb619ba2d28debebbc5501e6bba39f466dd625b",
            "0x0000000000000000000000000000000000000000000000000000000000002105"
          ],
          "data": "0x00000000000000000000000000000000000000000000000000004bcbb942b140",
          "blockHash": "0xbf539d22f392743f26cd0e40ca0f71526b1a62321b4d0da2761729a439de801e",
          "blockNumber": "0x12809e2",
          "transactionHash": "0x4ff768be5861b131d24d69ae90911914a03e155c212b4a1ec744c58a281dfaa7",
          "transactionIndex": "0x1",
          "logIndex": "0x0",
          "removed": false
        }
      ],
      "logsBloom": "0x00000000000004000000000000000000000000000000000000000000000000000000000000000000000001000000000000000000000000000021000000000000000000000000000000000000000000000000000000000000000000000000000000010000000000000000000000000000000020000000000000000000000000000000000000000000000000200000000000000000000000000000000020000000000000000000000000000000000000000000000000000000000000000000000000000000000000000000000000000000000000000000000000000000000000000000000000000000000000000000000000000000200000000000000000000000",
      "type": "0x2",
      "transactionHash": "0x4ff768be5861b131d24d69ae90911914a03e155c212b4a1ec744c58a281dfaa7",
      "transactionIndex": "0x1",
      "blockHash": "0xbf539d22f392743f26cd0e40ca0f71526b1a62321b4d0da2761729a439de801e",
      "blockNumber": "0x12809e2",
      "gasUsed": "0xcd6d",
      "effectiveGasPrice": "0x303dce5",
      "from": "0xb819a871d20913839c37f316dc914b0570bfc0ee",
      "to": "0x0b3c6645f4f2442ad4bbee2e2273a250461ca6f8",
      "contractAddress": null
    },
    {
      "status": "0x1",
      "cumulativeGasUsed": "0x4ad5a",
      "logs": [
        {
          "address": "0x0b3c6645f4f2442ad4bbee2e2273a250461ca6f8",
          "topics": [
            "0x45b21517516b1df60737f7208bb619ba2d28debebbc5501e6bba39f466dd625b",
            "0x000000000000000000000000000000000000000000000000000000000000e708"
          ],
          "data": "0x0000000000000000000000000000000000000000000000000000630c47f4646c",
          "blockHash": "0xdf3f377048fa94aad218c0ece46074b9cce75e896f3ecf80178a4fcba7d98b45",
          "blockNumber": "0x12809e4",
          "transactionHash": "0xbd8f995d30e0f9e1b6c276711de06eacf3a55d83ecb23073dd485e8980426e5a",
          "transactionIndex": "0x2",
          "logIndex": "0x1",
          "removed": false
        }
      ],
      "logsBloom": "0x00000000000004000000000000000000000000000000000000000000000000000000000000000000000001000000000040000000000000000020000000000001000000000000000000000000000000000000000000000000000000000000000000000000000000000000000000000000000020000000000000000000000000000000000000000000000000200000000000000000000000000000000400000000000000000000000000000000000000000000000000000000000000000000000000000000000000000000000000000000000000000000000000000000000000000000000000000000000000000000000000000000200000000000000000000000",
      "type": "0x2",
      "transactionHash": "0xbd8f995d30e0f9e1b6c276711de06eacf3a55d83ecb23073dd485e8980426e5a",
      "transactionIndex": "0x2",
      "blockHash": "0xdf3f377048fa94aad218c0ece46074b9cce75e896f3ecf80178a4fcba7d98b45",
      "blockNumber": "0x12809e4",
      "gasUsed": "0xcd6d",
      "effectiveGasPrice": "0x303dce5",
      "from": "0xb819a871d20913839c37f316dc914b0570bfc0ee",
      "to": "0x0b3c6645f4f2442ad4bbee2e2273a250461ca6f8",
      "contractAddress": null
    },
    {
      "status": "0x1",
      "cumulativeGasUsed": "0xcd6d",
      "logs": [
        {
          "address": "0x0b3c6645f4f2442ad4bbee2e2273a250461ca6f8",
          "topics": [
            "0x45b21517516b1df60737f7208bb619ba2d28debebbc5501e6bba39f466dd625b",
            "0x0000000000000000000000000000000000000000000000000000000000000001"
          ],
          "data": "0x000000000000000000000000000000000000000000000000000c6cfc854d1ea1",
          "blockHash": "0x00c45198541ebceb1bc150bc6c913a4082b5322056cff9904ce4f6fac3e68e09",
          "blockNumber": "0x12809e7",
          "transactionHash": "0x248c83f467ea3d6424456682ede9b14e3d7669a6566b8a7909e2178ecef7bc13",
          "transactionIndex": "0x0",
          "logIndex": "0x0",
          "removed": false
        }
      ],
      "logsBloom": "0x00000000000004000000000000000000000000000000000000000000000000000000000000000000000001000000000000000000000000000020000000040000000000000000000000000000000000000000000000040000000000000000000000000000000000000000000000000000000020000000000000000000000000000000000000000000000000200000000000000000000000000000000000000000000000000000000000000000000000000000000000000000000000000000000000000000000000000000000000000000000000000000000000000000000040000000000000000000000000000000000000000000200000000000000000000000",
      "type": "0x2",
      "transactionHash": "0x248c83f467ea3d6424456682ede9b14e3d7669a6566b8a7909e2178ecef7bc13",
      "transactionIndex": "0x0",
      "blockHash": "0x00c45198541ebceb1bc150bc6c913a4082b5322056cff9904ce4f6fac3e68e09",
      "blockNumber": "0x12809e7",
      "gasUsed": "0xcd6d",
      "effectiveGasPrice": "0x303dce5",
      "from": "0xb819a871d20913839c37f316dc914b0570bfc0ee",
      "to": "0x0b3c6645f4f2442ad4bbee2e2273a250461ca6f8",
      "contractAddress": null
    },
    {
      "status": "0x1",
      "cumulativeGasUsed": "0xcd6d",
      "logs": [
        {
          "address": "0x8bad0c523516262a439197736fff982f5e0987cc",
          "topics": [
            "0x45b21517516b1df60737f7208bb619ba2d28debebbc5501e6bba39f466dd625b",
            "0x0000000000000000000000000000000000000000000000000000000000002105"
          ],
          "data": "0x00000000000000000000000000000000000000000000000000004bcbb942b140",
          "blockHash": "0x508ac894f152fa09074129798b046fb9f34908901921b5a8c7929e5d34fa4134",
          "blockNumber": "0x12809ea",
          "transactionHash": "0x08ed1341d7c3299efcb97b3f7ffc809a33cd4d11c6c0ba1b52582d6bfa0aa4b9",
          "transactionIndex": "0x0",
          "logIndex": "0x0",
          "removed": false
        }
      ],
      "logsBloom": "0x00000000000004000000000000000000000000000000000000000000000000000000000000000000000000000000000000000000000000000001000000000000000000000008000000000000000000000000000000000000000000000000000000010000000000000000000000000000000020000000000000000020000000000000000000000000000000200000000000000000000000000000000020000000000000000000000000000000000000000000000000000000000000000000000000000000000000000000000000000000010000000000000000000000000000000000000000000000000000000000000000000000000000000000000000000000",
      "type": "0x2",
      "transactionHash": "0x08ed1341d7c3299efcb97b3f7ffc809a33cd4d11c6c0ba1b52582d6bfa0aa4b9",
      "transactionIndex": "0x0",
      "blockHash": "0x508ac894f152fa09074129798b046fb9f34908901921b5a8c7929e5d34fa4134",
      "blockNumber": "0x12809ea",
      "gasUsed": "0xcd6d",
      "effectiveGasPrice": "0x303dce5",
      "from": "0xb819a871d20913839c37f316dc914b0570bfc0ee",
      "to": "0x8bad0c523516262a439197736fff982f5e0987cc",
      "contractAddress": null
    },
    {
      "status": "0x1",
      "cumulativeGasUsed": "0x11f75",
      "logs": [
        {
          "address": "0x8bad0c523516262a439197736fff982f5e0987cc",
          "topics": [
            "0x45b21517516b1df60737f7208bb619ba2d28debebbc5501e6bba39f466dd625b",
            "0x000000000000000000000000000000000000000000000000000000000000e708"
          ],
          "data": "0x0000000000000000000000000000000000000000000000000000630c47f4646c",
          "blockHash": "0x065f41cd77014abbfdce28e702c27c690f90c637911b2f1704f1d9d5dae7fabb",
          "blockNumber": "0x12809ed",
          "transactionHash": "0x74bdc1f3c4badc251257056d87d1e1c740bd569e432a3ccb377e25c9052986af",
          "transactionIndex": "0x1",
          "logIndex": "0x0",
          "removed": false
        }
      ],
      "logsBloom": "0x00000000000004000000000000000000000000000000000000000000000000000000000000000000000000000000000040000000000000000000000000000001000000000008000000000000000000000000000000000000000000000000000000000000000000000000000000000000000020000000000000000020000000000000000000000000000000200000000000000000000000000000000400000000000000000000000000000000000000000000000000000000000000000000000000000000000000000000000000000000010000000000000000000000000000000000000000000000000000000000000000000000000000000000000000000000",
      "type": "0x2",
      "transactionHash": "0x74bdc1f3c4badc251257056d87d1e1c740bd569e432a3ccb377e25c9052986af",
      "transactionIndex": "0x1",
      "blockHash": "0x065f41cd77014abbfdce28e702c27c690f90c637911b2f1704f1d9d5dae7fabb",
      "blockNumber": "0x12809ed",
      "gasUsed": "0xcd6d",
      "effectiveGasPrice": "0x303dce5",
      "from": "0xb819a871d20913839c37f316dc914b0570bfc0ee",
      "to": "0x8bad0c523516262a439197736fff982f5e0987cc",
      "contractAddress": null
    },
    {
      "status": "0x1",
      "cumulativeGasUsed": "0x2e6e1",
      "logs": [
        {
          "address": "0x8bad0c523516262a439197736fff982f5e0987cc",
          "topics": [
            "0x45b21517516b1df60737f7208bb619ba2d28debebbc5501e6bba39f466dd625b",
            "0x0000000000000000000000000000000000000000000000000000000000000001"
          ],
          "data": "0x000000000000000000000000000000000000000000000000000c6cfc854d1ea1",
          "blockHash": "0x942552b9a76ce25c8ffc197e53c3bc05f70b32954184f5e4f6ae48ed5f87ac9e",
          "blockNumber": "0x12809f0",
          "transactionHash": "0xf321c9caefcd43b6049691320efc5d5daaec32f34a1c40ec2041d294b9873cbf",
          "transactionIndex": "0x2",
          "logIndex": "0x1",
          "removed": false
        }
      ],
      "logsBloom": "0x00000000000004000000000000000000000000000000000000000000000000000000000000000000000000000000000000000000000000000000000000040000000000000008000000000000000000000000000000040000000000000000000000000000000000000000000000000000000020000000000000000020000000000000000000000000000000200000000000000000000000000000000000000000000000000000000000000000000000000000000000000000000000000000000000000000000000000000000000000000010000000000000000000000000040000000000000000000000000000000000000000000000000000000000000000000",
      "type": "0x2",
      "transactionHash": "0xf321c9caefcd43b6049691320efc5d5daaec32f34a1c40ec2041d294b9873cbf",
      "transactionIndex": "0x2",
      "blockHash": "0x942552b9a76ce25c8ffc197e53c3bc05f70b32954184f5e4f6ae48ed5f87ac9e",
      "blockNumber": "0x12809f0",
      "gasUsed": "0xcd6d",
      "effectiveGasPrice": "0x303dce5",
      "from": "0xb819a871d20913839c37f316dc914b0570bfc0ee",
      "to": "0x8bad0c523516262a439197736fff982f5e0987cc",
      "contractAddress": null
    },
    {
      "status": "0x1",
      "cumulativeGasUsed": "0x68432",
      "logs": [
        {
          "address": "0x4df3dd62db219c47f6a7cb1be02c511afceadf5e",
          "topics": [
            "0x45b21517516b1df60737f7208bb619ba2d28debebbc5501e6bba39f466dd625b",
            "0x0000000000000000000000000000000000000000000000000000000000002105"
          ],
          "data": "0x00000000000000000000000000000000000000000000000000004bcbb942b140",
          "blockHash": "0x0eab6bf109299d04bb5983c965859388c645311abbca1ca636e6f402a627e117",
          "blockNumber": "0x12809f3",
          "transactionHash": "0x37b0821f5a6558378790064ca98943b464fbd87b681a0962cbbdcd92891ebfc0",
          "transactionIndex": "0x4",
          "logIndex": "0x2",
          "removed": false
        }
      ],
      "logsBloom": "0x00000000000004000000000000000000000000000000000000000000000000000000000000000000000000000000000000000000000000000001000000000000000000000000000000000000000000000000000000000000000000000000000000010000000000000000000000000004000020000000000000000000000000000000000000000000000000200000000000000000000000000000000020000000000000000000000000000000010000000000000000000000000000000000000000000000000000000000000000000000000000000000000000000000000000000000000000000000000000000000000000000000000000000000002000000000",
      "type": "0x2",
      "transactionHash": "0x37b0821f5a6558378790064ca98943b464fbd87b681a0962cbbdcd92891ebfc0",
      "transactionIndex": "0x4",
      "blockHash": "0x0eab6bf109299d04bb5983c965859388c645311abbca1ca636e6f402a627e117",
      "blockNumber": "0x12809f3",
      "gasUsed": "0xcd6d",
      "effectiveGasPrice": "0x303dce5",
      "from": "0xb819a871d20913839c37f316dc914b0570bfc0ee",
      "to": "0x4df3dd62db219c47f6a7cb1be02c511afceadf5e",
      "contractAddress": null
    },
    {
      "status": "0x1",
      "cumulativeGasUsed": "0x1d897",
      "logs": [
        {
          "address": "0x4df3dd62db219c47f6a7cb1be02c511afceadf5e",
          "topics": [
            "0x45b21517516b1df60737f7208bb619ba2d28debebbc5501e6bba39f466dd625b",
            "0x000000000000000000000000000000000000000000000000000000000000e708"
          ],
          "data": "0x0000000000000000000000000000000000000000000000000000630c47f4646c",
          "blockHash": "0xb75c60ea60c803ff30caaba77efda2c262a99075a8034dc48872ff7f0ea804e4",
          "blockNumber": "0x12809f4",
          "transactionHash": "0x64848c740f426797922f8a1e91d2b8307182f22fe12381d061e3c53f7704c06f",
          "transactionIndex": "0x1",
          "logIndex": "0x2",
          "removed": false
        }
      ],
      "logsBloom": "0x00000000000004000000000000000000000000000000000000000000000000000000000000000000000000000000000040000000000000000000000000000001000000000000000000000000000000000000000000000000000000000000000000000000000000000000000000000004000020000000000000000000000000000000000000000000000000200000000000000000000000000000000400000000000000000000000000000000010000000000000000000000000000000000000000000000000000000000000000000000000000000000000000000000000000000000000000000000000000000000000000000000000000000000002000000000",
      "type": "0x2",
      "transactionHash": "0x64848c740f426797922f8a1e91d2b8307182f22fe12381d061e3c53f7704c06f",
      "transactionIndex": "0x1",
      "blockHash": "0xb75c60ea60c803ff30caaba77efda2c262a99075a8034dc48872ff7f0ea804e4",
      "blockNumber": "0x12809f4",
      "gasUsed": "0xcd6d",
      "effectiveGasPrice": "0x303dce5",
      "from": "0xb819a871d20913839c37f316dc914b0570bfc0ee",
      "to": "0x4df3dd62db219c47f6a7cb1be02c511afceadf5e",
      "contractAddress": null
    },
    {
      "status": "0x1",
      "cumulativeGasUsed": "0x569bc",
      "logs": [
        {
          "address": "0x4df3dd62db219c47f6a7cb1be02c511afceadf5e",
          "topics": [
            "0x45b21517516b1df60737f7208bb619ba2d28debebbc5501e6bba39f466dd625b",
            "0x0000000000000000000000000000000000000000000000000000000000000001"
          ],
          "data": "0x000000000000000000000000000000000000000000000000000c6cfc854d1ea1",
          "blockHash": "0x8bb19a1dfed1f74cd03b10e93c823863b10322c7b1ab8a539ce43a121cdbe8be",
          "blockNumber": "0x12809f6",
          "transactionHash": "0x576d67ff87aebc5b83ef1395f31976e0989ecff4f1071bb3512b313175dc09f1",
          "transactionIndex": "0x5",
          "logIndex": "0x8",
          "removed": false
        }
      ],
      "logsBloom": "0x00000000000004000000000000000000000000000000000000000000000000000000000000000000000000000000000000000000000000000000000000040000000000000000000000000000000000000000000000040000000000000000000000000000000000000000000000000004000020000000000000000000000000000000000000000000000000200000000000000000000000000000000000000000000000000000000000000000010000000000000000000000000000000000000000000000000000000000000000000000000000000000000000000000000040000000000000000000000000000000000000000000000000000000002000000000",
      "type": "0x2",
      "transactionHash": "0x576d67ff87aebc5b83ef1395f31976e0989ecff4f1071bb3512b313175dc09f1",
      "transactionIndex": "0x5",
      "blockHash": "0x8bb19a1dfed1f74cd03b10e93c823863b10322c7b1ab8a539ce43a121cdbe8be",
      "blockNumber": "0x12809f6",
      "gasUsed": "0xcd6d",
      "effectiveGasPrice": "0x303dce5",
      "from": "0xb819a871d20913839c37f316dc914b0570bfc0ee",
      "to": "0x4df3dd62db219c47f6a7cb1be02c511afceadf5e",
      "contractAddress": null
    }
  ],
  "libraries": [],
  "pending": [],
  "returns": {},
  "timestamp": 1748335232,
  "chain": 59144,
  "commit": "9b668a0"
}